{
  "_format": "hh-sol-artifact-1",
  "contractName": "ClockSaleOnlyMultiTokens",
  "sourceName": "contracts/OnlyMultitokens/ClockSaleOnlyMultiTokens.sol",
  "abi": [
    {
      "inputs": [
        {
          "internalType": "address",
          "name": "_feeReceiver",
          "type": "address"
        },
        {
          "internalType": "uint256",
          "name": "_ownerCut",
          "type": "uint256"
        }
      ],
      "stateMutability": "nonpayable",
      "type": "constructor"
    },
    {
      "anonymous": false,
      "inputs": [
        {
          "indexed": true,
          "internalType": "uint256",
          "name": "_auctionId",
          "type": "uint256"
        },
        {
          "indexed": false,
          "internalType": "address",
          "name": "_buyer",
          "type": "address"
        },
        {
          "indexed": false,
          "internalType": "uint256",
          "name": "_cost",
          "type": "uint256"
        },
        {
          "indexed": false,
          "internalType": "address",
          "name": "_tokenUsed",
          "type": "address"
        },
        {
          "indexed": false,
          "internalType": "uint256",
          "name": "_nftAmount",
          "type": "uint256"
        }
      ],
      "name": "BuySuccessful",
      "type": "event"
    },
    {
      "anonymous": false,
      "inputs": [
        {
          "indexed": false,
          "internalType": "address",
          "name": "newReceiver",
          "type": "address"
        }
      ],
      "name": "ChangedFeeReceiver",
      "type": "event"
    },
    {
      "anonymous": false,
      "inputs": [
        {
          "indexed": true,
          "internalType": "address",
          "name": "previousOwner",
          "type": "address"
        },
        {
          "indexed": true,
          "internalType": "address",
          "name": "newOwner",
          "type": "address"
        }
      ],
      "name": "OwnershipTransferred",
      "type": "event"
    },
    {
      "anonymous": false,
      "inputs": [
        {
          "indexed": false,
          "internalType": "address",
          "name": "account",
          "type": "address"
        }
      ],
      "name": "Paused",
      "type": "event"
    },
    {
      "anonymous": false,
      "inputs": [
        {
          "indexed": true,
          "internalType": "uint256",
          "name": "_auctionId",
          "type": "uint256"
        }
      ],
      "name": "SaleCancelled",
      "type": "event"
    },
    {
      "anonymous": false,
      "inputs": [
        {
          "indexed": true,
          "internalType": "uint256",
          "name": "_auctionId",
          "type": "uint256"
        },
        {
          "indexed": false,
          "internalType": "address",
          "name": "_nft",
          "type": "address"
        },
        {
          "indexed": false,
          "internalType": "uint256",
          "name": "_nftId",
          "type": "uint256"
        },
        {
          "indexed": false,
          "internalType": "uint256",
          "name": "_amount",
          "type": "uint256"
        },
        {
          "indexed": false,
          "internalType": "uint256",
          "name": "priceUSD",
          "type": "uint256"
        },
        {
          "indexed": false,
          "internalType": "address[]",
          "name": "_tokens",
          "type": "address[]"
        },
        {
          "indexed": false,
          "internalType": "uint256",
          "name": "_duration",
          "type": "uint256"
        },
        {
          "indexed": false,
          "internalType": "uint256",
          "name": "_startedAt",
          "type": "uint256"
        },
        {
          "indexed": false,
          "internalType": "address",
          "name": "_seller",
          "type": "address"
        }
      ],
      "name": "SaleCreated",
      "type": "event"
    },
    {
      "anonymous": false,
      "inputs": [
        {
          "indexed": true,
          "internalType": "uint256",
          "name": "_auctionId",
          "type": "uint256"
        }
      ],
      "name": "SaleSuccessful",
      "type": "event"
    },
    {
      "anonymous": false,
      "inputs": [
        {
          "indexed": false,
          "internalType": "address",
          "name": "account",
          "type": "address"
        }
      ],
      "name": "Unpaused",
      "type": "event"
    },
    {
      "inputs": [
        {
          "internalType": "address",
          "name": "_token",
          "type": "address"
        },
        {
          "internalType": "uint256",
          "name": "decimals",
          "type": "uint256"
        }
      ],
      "name": "addToken",
      "outputs": [],
      "stateMutability": "nonpayable",
      "type": "function"
    },
    {
      "inputs": [
        {
          "internalType": "uint256",
          "name": "_tokenId",
          "type": "uint256"
        },
        {
          "internalType": "uint256",
          "name": "amount",
          "type": "uint256"
        },
        {
          "internalType": "address",
          "name": "tokenToPay",
          "type": "address"
        }
      ],
      "name": "buy",
      "outputs": [],
      "stateMutability": "nonpayable",
      "type": "function"
    },
    {
      "inputs": [
        {
          "internalType": "uint256[]",
          "name": "tokensId",
          "type": "uint256[]"
        },
        {
          "internalType": "uint256[]",
          "name": "amounts",
          "type": "uint256[]"
        },
        {
          "internalType": "address",
          "name": "tokenToPay",
          "type": "address"
        }
      ],
      "name": "buyBatch",
      "outputs": [],
      "stateMutability": "payable",
      "type": "function"
    },
    {
      "inputs": [
        {
          "internalType": "uint256",
          "name": "_tokenId",
          "type": "uint256"
        }
      ],
      "name": "cancelSale",
      "outputs": [],
      "stateMutability": "nonpayable",
      "type": "function"
    },
    {
      "inputs": [
        {
          "internalType": "address",
          "name": "_nftAddress",
          "type": "address"
        },
        {
          "internalType": "uint256",
          "name": "_tokenId",
          "type": "uint256"
        },
        {
          "internalType": "uint256",
          "name": "_priceUSD",
          "type": "uint256"
        },
        {
          "internalType": "address[]",
          "name": "_tokens",
          "type": "address[]"
        },
        {
          "internalType": "uint256",
          "name": "_amount",
          "type": "uint256"
        },
        {
          "internalType": "uint256",
          "name": "_duration",
          "type": "uint256"
        }
      ],
      "name": "createSale",
      "outputs": [],
      "stateMutability": "nonpayable",
      "type": "function"
    },
    {
      "inputs": [
        {
          "internalType": "address",
          "name": "",
          "type": "address"
        }
      ],
      "name": "decimalsByToken",
      "outputs": [
        {
          "internalType": "uint256",
          "name": "",
          "type": "uint256"
        }
      ],
      "stateMutability": "view",
      "type": "function"
    },
    {
      "inputs": [],
      "name": "decimalsUSD",
      "outputs": [
        {
          "internalType": "uint256",
          "name": "",
          "type": "uint256"
        }
      ],
      "stateMutability": "view",
      "type": "function"
    },
    {
      "inputs": [
        {
          "internalType": "uint256",
          "name": "amount",
          "type": "uint256"
        },
        {
          "internalType": "address",
          "name": "token",
          "type": "address"
        },
        {
          "internalType": "address",
          "name": "recipient",
          "type": "address"
        }
      ],
      "name": "emergencyWithdraw",
      "outputs": [],
      "stateMutability": "nonpayable",
      "type": "function"
    },
    {
      "inputs": [],
      "name": "feeReceiver",
      "outputs": [
        {
          "internalType": "address",
          "name": "",
          "type": "address"
        }
      ],
      "stateMutability": "view",
      "type": "function"
    },
    {
      "inputs": [],
      "name": "genesisBlock",
      "outputs": [
        {
          "internalType": "uint256",
          "name": "",
          "type": "uint256"
        }
      ],
      "stateMutability": "view",
      "type": "function"
    },
    {
      "inputs": [
        {
          "internalType": "uint256",
          "name": "_tokenId",
          "type": "uint256"
        },
        {
          "internalType": "address",
          "name": "tokenToGet",
          "type": "address"
        },
        {
          "internalType": "uint256",
          "name": "quantity",
          "type": "uint256"
        }
      ],
      "name": "getPrice",
      "outputs": [
        {
          "internalType": "uint256",
          "name": "",
          "type": "uint256"
        }
      ],
      "stateMutability": "view",
      "type": "function"
    },
    {
      "inputs": [
        {
          "internalType": "uint256[]",
          "name": "_tokenIds",
          "type": "uint256[]"
        }
      ],
      "name": "getSales",
      "outputs": [
        {
          "components": [
            {
              "internalType": "address",
              "name": "seller",
              "type": "address"
            },
            {
              "internalType": "address",
              "name": "nft",
              "type": "address"
            },
            {
              "internalType": "uint256",
              "name": "nftId",
              "type": "uint256"
            },
            {
              "internalType": "uint256",
              "name": "amount",
              "type": "uint256"
            },
            {
              "internalType": "uint256",
              "name": "priceUSD",
              "type": "uint256"
            },
            {
              "internalType": "address[]",
              "name": "tokens",
              "type": "address[]"
            },
            {
              "internalType": "uint256",
              "name": "duration",
              "type": "uint256"
            },
            {
              "internalType": "uint256",
              "name": "startedAt",
              "type": "uint256"
            },
            {
              "internalType": "enum ClockSaleOnlyMultiTokens.SaleStatus",
              "name": "status",
              "type": "uint8"
            }
          ],
          "internalType": "struct ClockSaleOnlyMultiTokens.Sale[]",
          "name": "",
          "type": "tuple[]"
        }
      ],
      "stateMutability": "view",
      "type": "function"
    },
    {
      "inputs": [
        {
          "internalType": "address",
          "name": "",
          "type": "address"
        }
      ],
      "name": "isAllowed",
      "outputs": [
        {
          "internalType": "bool",
          "name": "",
          "type": "bool"
        }
      ],
      "stateMutability": "view",
      "type": "function"
    },
    {
      "inputs": [
        {
          "internalType": "uint256",
          "name": "_tokenId",
          "type": "uint256"
        }
      ],
      "name": "isOnSale",
      "outputs": [
        {
          "internalType": "bool",
          "name": "",
          "type": "bool"
        }
      ],
      "stateMutability": "view",
      "type": "function"
    },
    {
      "inputs": [
        {
          "internalType": "address",
          "name": "_token",
          "type": "address"
        }
      ],
      "name": "isTokenAllowed",
      "outputs": [
        {
          "internalType": "bool",
          "name": "",
          "type": "bool"
        }
      ],
      "stateMutability": "view",
      "type": "function"
    },
    {
      "inputs": [
        {
          "internalType": "address",
          "name": "",
          "type": "address"
        },
        {
          "internalType": "address",
          "name": "",
          "type": "address"
        },
        {
          "internalType": "uint256[]",
          "name": "",
          "type": "uint256[]"
        },
        {
          "internalType": "uint256[]",
          "name": "",
          "type": "uint256[]"
        },
        {
          "internalType": "bytes",
          "name": "",
          "type": "bytes"
        }
      ],
      "name": "onERC1155BatchReceived",
      "outputs": [
        {
          "internalType": "bytes4",
          "name": "",
          "type": "bytes4"
        }
      ],
      "stateMutability": "nonpayable",
      "type": "function"
    },
    {
      "inputs": [
        {
          "internalType": "address",
          "name": "",
          "type": "address"
        },
        {
          "internalType": "address",
          "name": "",
          "type": "address"
        },
        {
          "internalType": "uint256",
          "name": "",
          "type": "uint256"
        },
        {
          "internalType": "uint256",
          "name": "",
          "type": "uint256"
        },
        {
          "internalType": "bytes",
          "name": "",
          "type": "bytes"
        }
      ],
      "name": "onERC1155Received",
      "outputs": [
        {
          "internalType": "bytes4",
          "name": "",
          "type": "bytes4"
        }
      ],
      "stateMutability": "nonpayable",
      "type": "function"
    },
    {
      "inputs": [],
      "name": "owner",
      "outputs": [
        {
          "internalType": "address",
          "name": "",
          "type": "address"
        }
      ],
      "stateMutability": "view",
      "type": "function"
    },
    {
      "inputs": [],
      "name": "ownerCut",
      "outputs": [
        {
          "internalType": "uint256",
          "name": "",
          "type": "uint256"
        }
      ],
      "stateMutability": "view",
      "type": "function"
    },
    {
      "inputs": [],
      "name": "paused",
      "outputs": [
        {
          "internalType": "bool",
          "name": "",
          "type": "bool"
        }
      ],
      "stateMutability": "view",
      "type": "function"
    },
    {
      "inputs": [
        {
          "internalType": "address",
          "name": "",
          "type": "address"
        }
      ],
      "name": "priceFeedsByToken",
      "outputs": [
        {
          "internalType": "address",
          "name": "",
          "type": "address"
        }
      ],
      "stateMutability": "view",
      "type": "function"
    },
    {
      "inputs": [],
      "name": "renounceOwnership",
      "outputs": [],
      "stateMutability": "nonpayable",
      "type": "function"
    },
    {
      "inputs": [],
      "name": "restartTrading",
      "outputs": [],
      "stateMutability": "nonpayable",
      "type": "function"
    },
    {
      "inputs": [
        {
          "internalType": "uint256",
          "name": "",
          "type": "uint256"
        }
      ],
      "name": "sales",
      "outputs": [
        {
          "internalType": "address",
          "name": "seller",
          "type": "address"
        },
        {
          "internalType": "address",
          "name": "nft",
          "type": "address"
        },
        {
          "internalType": "uint256",
          "name": "nftId",
          "type": "uint256"
        },
        {
          "internalType": "uint256",
          "name": "amount",
          "type": "uint256"
        },
        {
          "internalType": "uint256",
          "name": "priceUSD",
          "type": "uint256"
        },
        {
          "internalType": "uint256",
          "name": "duration",
          "type": "uint256"
        },
        {
          "internalType": "uint256",
          "name": "startedAt",
          "type": "uint256"
        },
        {
          "internalType": "enum ClockSaleOnlyMultiTokens.SaleStatus",
          "name": "status",
          "type": "uint8"
        }
      ],
      "stateMutability": "view",
      "type": "function"
    },
    {
      "inputs": [
        {
          "internalType": "address",
          "name": "_feeReceiver",
          "type": "address"
        }
      ],
      "name": "setFeeReceiver",
      "outputs": [],
      "stateMutability": "nonpayable",
      "type": "function"
    },
    {
      "inputs": [
        {
          "internalType": "address",
          "name": "nftAddress",
          "type": "address"
        },
        {
          "internalType": "bool",
          "name": "allow",
          "type": "bool"
        }
      ],
      "name": "setNftAllowed",
      "outputs": [],
      "stateMutability": "nonpayable",
      "type": "function"
    },
    {
      "inputs": [
        {
          "internalType": "uint256",
          "name": "_ownerCut",
          "type": "uint256"
        }
      ],
      "name": "setOwnerCut",
      "outputs": [],
      "stateMutability": "nonpayable",
      "type": "function"
    },
    {
      "inputs": [],
      "name": "stopTrading",
      "outputs": [],
      "stateMutability": "nonpayable",
      "type": "function"
    },
    {
      "inputs": [
        {
          "internalType": "bytes4",
          "name": "interfaceId",
          "type": "bytes4"
        }
      ],
      "name": "supportsInterface",
      "outputs": [
        {
          "internalType": "bool",
          "name": "",
          "type": "bool"
        }
      ],
      "stateMutability": "view",
      "type": "function"
    },
    {
      "inputs": [],
      "name": "tokenIdTracker",
      "outputs": [
        {
          "internalType": "uint256",
          "name": "_value",
          "type": "uint256"
        }
      ],
      "stateMutability": "view",
      "type": "function"
    },
    {
      "inputs": [
        {
          "internalType": "address",
          "name": "newOwner",
          "type": "address"
        }
      ],
      "name": "transferOwnership",
      "outputs": [],
      "stateMutability": "nonpayable",
      "type": "function"
    },
    {
      "inputs": [
        {
          "internalType": "uint256",
          "name": "saleId",
          "type": "uint256"
        },
        {
          "internalType": "uint256",
          "name": "newPrice",
          "type": "uint256"
        }
      ],
      "name": "updateSalePrice",
      "outputs": [],
      "stateMutability": "nonpayable",
      "type": "function"
    },
    {
      "inputs": [
        {
          "internalType": "uint256",
          "name": "saleId",
          "type": "uint256"
        },
        {
          "internalType": "address",
          "name": "receiver",
          "type": "address"
        }
      ],
      "name": "updateSaleReceiver",
      "outputs": [],
      "stateMutability": "nonpayable",
      "type": "function"
    },
    {
      "stateMutability": "payable",
      "type": "receive"
    }
  ],
  "bytecode": "0x6080604052600680553480156200001557600080fd5b5060405162002b1b38038062002b1b833981016040819052620000389162000128565b6200004333620000d8565b6000805460ff60a01b1916905560018055612710811115620000ab5760405162461bcd60e51b815260206004820152601360248201527f436c6f636b53616c653a4f574e45525f43555400000000000000000000000000604482015260640160405180910390fd5b600455600380546001600160a01b0319166001600160a01b03929092169190911790554360055562000164565b600080546001600160a01b038381166001600160a01b0319831681178455604051919092169283917f8be0079c531659141344cd1fd0a4f28419497f9722a3daafe3b4186f6b6457e09190a35050565b600080604083850312156200013c57600080fd5b82516001600160a01b03811681146200015457600080fd5b6020939093015192949293505050565b6129a780620001746000396000f3fe6080604052600436106102015760003560e01c806383b5ff8b1161011d578063bc197c81116100b0578063efdcd9741161007f578063f23a6e6111610064578063f23a6e61146106e2578063f2fde38b14610727578063f9eaee0d1461074757600080fd5b8063efdcd974146106a2578063f0f2805f146106c257600080fd5b8063bc197c81146105ee578063bd94b0051461064c578063d2cee46f1461066c578063e4ad40581461068c57600080fd5b8063af81c5b9116100ec578063af81c5b9146104fb578063b3f006741461051b578063b5f522f71461053b578063babcc539146105be57600080fd5b806383b5ff8b1461047a5780638da5cb5b146104905780638e782723146104ae5780639a37ec05146104db57600080fd5b80634896672e116101955780635c975abb116101645780635c975abb14610411578063715018a6146104305780637185f16314610445578063757de5731461045a57600080fd5b80634896672e1461039b5780634cdc9c63146103bb57806350d16d9f146103d157806359a87bc1146103f157600080fd5b80630d985a9c116101d15780630d985a9c14610333578063186c0411146103465780631e1d7bb5146103665780632cdddc1b1461038657600080fd5b8062313a681461025a57806301ffc9a71461029057806302bf3d56146102c057806304a455eb146102e557600080fd5b366102555760405162461bcd60e51b815260206004820152601360248201527f436c6f636b53616c653a444f4e545f53454e440000000000000000000000000060448201526064015b60405180910390fd5b005b600080fd5b34801561026657600080fd5b5061027a61027536600461209d565b610767565b6040516102879190612156565b60405180910390f35b34801561029c57600080fd5b506102b06102ab366004612238565b610920565b6040519015158152602001610287565b3480156102cc57600080fd5b506002546102d79081565b604051908152602001610287565b3480156102f157600080fd5b5061031b61030036600461227e565b6009602052600090815260409020546001600160a01b031681565b6040516001600160a01b039091168152602001610287565b610253610341366004612299565b610931565b34801561035257600080fd5b5061025361036136600461230d565b610a09565b34801561037257600080fd5b50610253610381366004612347565b610a99565b34801561039257600080fd5b50610253610acc565b3480156103a757600080fd5b506102536103b636600461237e565b610ae6565b3480156103c757600080fd5b506102d760055481565b3480156103dd57600080fd5b506102d76103ec3660046123a0565b610b5c565b3480156103fd57600080fd5b5061025361040c3660046123d5565b610c12565b34801561041d57600080fd5b50600054600160a01b900460ff166102b0565b34801561043c57600080fd5b5061025361117f565b34801561045157600080fd5b50610253611191565b34801561046657600080fd5b50610253610475366004612401565b6111a9565b34801561048657600080fd5b506102d760045481565b34801561049c57600080fd5b506000546001600160a01b031661031b565b3480156104ba57600080fd5b506102d76104c936600461227e565b600a6020526000908152604090205481565b3480156104e757600080fd5b506102536104f636600461241a565b6111b6565b34801561050757600080fd5b506102536105163660046124e8565b61142f565b34801561052757600080fd5b5060035461031b906001600160a01b031681565b34801561054757600080fd5b506105aa610556366004612401565b6007602081905260009182526040909120805460018201546002830154600384015460048501546006860154968601546008909601546001600160a01b039586169795909416959294919390929060ff1688565b604051610287989796959493929190612512565b3480156105ca57600080fd5b506102b06105d936600461227e565b60086020526000908152604090205460ff1681565b3480156105fa57600080fd5b506106336106093660046125d9565b7fbc197c810000000000000000000000000000000000000000000000000000000095945050505050565b6040516001600160e01b03199091168152602001610287565b34801561065857600080fd5b50610253610667366004612401565b611453565b34801561067857600080fd5b50610253610687366004612683565b611520565b34801561069857600080fd5b506102d760065481565b3480156106ae57600080fd5b506102536106bd36600461227e565b6115d5565b3480156106ce57600080fd5b506102b06106dd366004612401565b611631565b3480156106ee57600080fd5b506106336106fd3660046126b6565b7ff23a6e610000000000000000000000000000000000000000000000000000000095945050505050565b34801561073357600080fd5b5061025361074236600461227e565b61164f565b34801561075357600080fd5b506102b061076236600461227e565b6116df565b60606000825167ffffffffffffffff81111561078557610785611fc7565b6040519080825280602002602001820160405280156107be57816020015b6107ab611edf565b8152602001906001900390816107a35790505b50905060005b835181101561091957600760008583815181106107e3576107e361271b565b602090810291909101810151825281810192909252604090810160002081516101208101835281546001600160a01b0390811682526001830154168185015260028201548184015260038201546060820152600482015460808201526005820180548451818702810187019095528085529194929360a086019390929083018282801561089957602002820191906000526020600020905b81546001600160a01b0316815260019091019060200180831161087b575b50505091835250506006820154602082015260078201546040820152600882015460609091019060ff1660028111156108d4576108d461211e565b60028111156108e5576108e561211e565b815250508282815181106108fb576108fb61271b565b6020026020010181905250808061091190612747565b9150506107c4565b5092915050565b600061092b8261170b565b92915050565b81518351146109a85760405162461bcd60e51b815260206004820152602f60248201527f4172726179204c656e677468206d757374206265207468652073616d65206f6660448201527f20616d6f756e7420616e64204964730000000000000000000000000000000000606482015260840161024a565b60005b8351811015610a03576109f18482815181106109c9576109c961271b565b60200260200101518483815181106109e3576109e361271b565b602002602001015184610c12565b806109fb81612747565b9150506109ab565b50505050565b610a11611772565b6000828152600760205260409020610a2c8160070154151590565b610a785760405162461bcd60e51b815260206004820152601760248201527f436c6f636b53616c653a4e4f545f415641494c41424c45000000000000000000604482015260640161024a565b80546001600160a01b0319166001600160a01b039290921691909117905550565b610aa1611772565b6001600160a01b03919091166000908152600860205260409020805460ff1916911515919091179055565b610ad4611772565b610adc6117cc565b610ae4611825565b565b610aee611772565b6000828152600760205260409020610b098160070154151590565b610b555760405162461bcd60e51b815260206004820152601760248201527f436c6f636b53616c653a4e4f545f415641494c41424c45000000000000000000604482015260640161024a565b6004015550565b6000838152600760205260408120610b738161187a565b610bbf5760405162461bcd60e51b815260206004820152601660248201527f436c6f636b53616c653a494e56414c49445f53414c4500000000000000000000604482015260640161024a565b6006546001600160a01b0385166000908152600a6020526040902054610be59190612760565b610bf090600a612857565b6004820154610bff9085612863565b610c099190612863565b95945050505050565b610c1a6118ac565b610c22611905565b600083815260076020526040812090805b6005830154811015610c9857836001600160a01b0316836005018281548110610c5e57610c5e61271b565b6000918252602090912001546001600160a01b031603610c8657610c83868587610b5c565b91505b80610c9081612747565b915050610c33565b5080600003610ce95760405162461bcd60e51b815260206004820152601b60248201527f436c6f636b53616c653a544f4b454e5f4e4f545f414c4c4f5745440000000000604482015260640161024a565b600033905084836003016000828254610d029190612760565b90915550506003830154600003610d1c57610d1c8661195f565b610d25846116df565b610d975760405162461bcd60e51b815260206004820152602a60248201527f434c4f434b5f41554354494f4e3a20544f4b454e20544f20504159204953204e60448201527f4f5420414c4c4f57454400000000000000000000000000000000000000000000606482015260840161024a565b816001600160a01b0385166370a08231336040516001600160e01b031960e084901b1681526001600160a01b039091166004820152602401602060405180830381865afa158015610dec573d6000803e3d6000fd5b505050506040513d601f19601f82011682018060405250810190610e10919061287a565b11610e835760405162461bcd60e51b815260206004820152602260248201527f434c4f434b5f41554354494f4e3a20494e535546494349454e542042414c414e60448201527f4345000000000000000000000000000000000000000000000000000000000000606482015260840161024a565b816001600160a01b03851663dd62ed3e336040516001600160e01b031960e084901b1681526001600160a01b039091166004820152306024820152604401602060405180830381865afa158015610ede573d6000803e3d6000fd5b505050506040513d601f19601f82011682018060405250810190610f02919061287a565b11610f745760405162461bcd60e51b8152602060048201526024808201527f434c4f434b5f41554354494f4e3a20494e535546494349454e5420414c4c4f5760448201527f414e434500000000000000000000000000000000000000000000000000000000606482015260840161024a565b610f7d8361187a565b610fc95760405162461bcd60e51b815260206004820152601760248201527f436c6f636b53616c653a4e4f545f415641494c41424c45000000000000000000604482015260640161024a565b600061271060045484610fdc9190612863565b610fe69190612893565b90506000610ff48285612760565b90506001600160a01b0386166323b872dd33875460405160e084901b6001600160e01b03191681526001600160a01b03928316600482015291166024820152604481018490526064016020604051808303816000875af115801561105c573d6000803e3d6000fd5b505050506040513d601f19601f8201168201806040525081019061108091906128b5565b506001600160a01b0386166323b872dd3360035460405160e084901b6001600160e01b03191681526001600160a01b03928316600482015291166024820152604481018590526064016020604051808303816000875af11580156110e8573d6000803e3d6000fd5b505050506040513d601f19601f8201168201806040525081019061110c91906128b5565b506111188888856119ab565b604080516001600160a01b0385811682526020820187905288168183015260608101899052905189917f4b4fc464c78b40b7590e870adc5109d31591c61b1d739ac67eda1f9e8f314101919081900360800190a2505050505061117a60018055565b505050565b611187611772565b610ae46000611a4e565b611199611772565b6111a1611905565b610ae4611a9e565b6111b1611772565b600455565b6111be611905565b6001600160a01b038616600090815260086020526040902054339060ff166112285760405162461bcd60e51b815260206004820152601660248201527f436c6f636b53616c653a494e56414c49445f53414c4500000000000000000000604482015260640161024a565b611233878288611ae1565b61127f5760405162461bcd60e51b815260206004820152601360248201527f436c6f636b53616c653a4e4f545f4f574e455200000000000000000000000000604482015260640161024a565b60008451116112f65760405162461bcd60e51b815260206004820152602560248201527f596f75206861766520746f20616363657074206174206c65617374206f6e652060448201527f746f6b656e000000000000000000000000000000000000000000000000000000606482015260840161024a565b61130287828886611b7d565b60005b84518110156113b4576113308582815181106113235761132361271b565b60200260200101516116df565b6113a25760405162461bcd60e51b815260206004820152603660248201527f434c4f434b5f41554354494f4e3a204f4e45204f462054484520544f4b454e5360448201527f20544f20504159204953204e4f5420414c4c4f57454400000000000000000000606482015260840161024a565b806113ac81612747565b915050611305565b506000604051806101200160405280836001600160a01b03168152602001896001600160a01b03168152602001888152602001858152602001878152602001868152602001848152602001428152602001600060028111156114185761141861211e565b9052905061142581611bd0565b5050505050505050565b611437611772565b6001600160a01b039091166000908152600a6020526040902055565b600081815260076020526040902061146e8160070154151590565b6114ba5760405162461bcd60e51b815260206004820152601760248201527f436c6f636b53616c653a4e4f545f415641494c41424c45000000000000000000604482015260640161024a565b80546001600160a01b031633146115135760405162461bcd60e51b815260206004820152601360248201527f436c6f636b53616c653a4e4f545f4f574e455200000000000000000000000000604482015260640161024a565b61151c82611d5f565b5050565b611528611772565b6001600160a01b0382166115495761117a6001600160a01b03821684611dc6565b6040517fa9059cbb0000000000000000000000000000000000000000000000000000000081526001600160a01b0382811660048301526024820185905283169063a9059cbb906044016020604051808303816000875af11580156115b1573d6000803e3d6000fd5b505050506040513d601f19601f82011682018060405250810190610a0391906128b5565b6115dd611772565b600380546001600160a01b0319166001600160a01b0383169081179091556040519081527fce118ac8247ab22e55e5f2799d4f5dcf662d59fe0d207b98d6a89764ae81d4819060200160405180910390a150565b60008181526007602052604081206116488161187a565b9392505050565b611657611772565b6001600160a01b0381166116d35760405162461bcd60e51b815260206004820152602660248201527f4f776e61626c653a206e6577206f776e657220697320746865207a65726f206160448201527f6464726573730000000000000000000000000000000000000000000000000000606482015260840161024a565b6116dc81611a4e565b50565b6001600160a01b0381166000908152600a602052604081205461170357600061092b565b600192915050565b60006001600160e01b031982167f4e2312e000000000000000000000000000000000000000000000000000000000148061092b57507f01ffc9a7000000000000000000000000000000000000000000000000000000006001600160e01b031983161461092b565b6000546001600160a01b03163314610ae45760405162461bcd60e51b815260206004820181905260248201527f4f776e61626c653a2063616c6c6572206973206e6f7420746865206f776e6572604482015260640161024a565b600054600160a01b900460ff16610ae45760405162461bcd60e51b815260206004820152601460248201527f5061757361626c653a206e6f7420706175736564000000000000000000000000604482015260640161024a565b61182d6117cc565b6000805460ff60a01b191690557f5db9ee0a495bf2e6ff9c91a7834c1ba4fdd244a5e8aa4e537bd38aeae4b073aa335b6040516001600160a01b03909116815260200160405180910390a1565b60006118898260070154151590565b801561092b575042826006015483600701546118a591906128d2565b1192915050565b6002600154036118fe5760405162461bcd60e51b815260206004820152601f60248201527f5265656e7472616e637947756172643a207265656e7472616e742063616c6c00604482015260640161024a565b6002600155565b600054600160a01b900460ff1615610ae45760405162461bcd60e51b815260206004820152601060248201527f5061757361626c653a2070617573656400000000000000000000000000000000604482015260640161024a565b60008181526007602052604080822060088101805460ff191660011790559051909183917fe8722c7fbbc203b6f7b1c8d8b08fe896e23df39ea595609629ab14794bd448ed9190a25050565b600083815260076020526040808220600181015460028201549251637921219560e11b81523060048201526001600160a01b03868116602483015260448201949094526064810187905260a0608482015260a48101949094529092911690819063f242432a9060c4015b600060405180830381600087803b158015611a2f57600080fd5b505af1158015611a43573d6000803e3d6000fd5b505050505050505050565b600080546001600160a01b038381166001600160a01b0319831681178455604051919092169283917f8be0079c531659141344cd1fd0a4f28419497f9722a3daafe3b4186f6b6457e09190a35050565b611aa6611905565b6000805460ff60a01b1916600160a01b1790557f62e78cea01bee320cd4e420270b5ea74000d11b0c9f74754ebdbfc544b05a25861185d3390565b600080846040517efdd58e0000000000000000000000000000000000000000000000000000000081526001600160a01b0386811660048301526024820186905291925060009183169062fdd58e90604401602060405180830381865afa158015611b4f573d6000803e3d6000fd5b505050506040513d601f19601f82011682018060405250810190611b73919061287a565b1195945050505050565b604051637921219560e11b81526001600160a01b038481166004830152306024830152604482018490526064820183905260a06084830152600060a483015285919082169063f242432a9060c401611a15565b603c8160c001511015611c255760405162461bcd60e51b815260206004820152601a60248201527f436c6f636b53616c653a494e56414c49445f4455524154494f4e000000000000604482015260640161024a565b6000611c3060025490565b600081815260076020908152604091829020855181546001600160a01b039182166001600160a01b031991821617835583880151600184018054919093169116179055918501516002830155606085015160038301556080850151600483015560a085015180519394508593611cac9260058501920190611f4d565b5060c0820151600682015560e0820151600782015561010082015160088201805460ff19166001836002811115611ce557611ce561211e565b02179055505060028054600101905550807ff9c99bc06ec756a1ee15926ba230824a827d2d5e1ac2b0b6b0a202df63220f3583602001518460400151856060015186608001518760a001518860c001518960e001518a60000151604051611d539897969594939291906128e5565b60405180910390a25050565b600081815260076020526040902060088101805460ff1916600217905560038101548154611d979184916001600160a01b03166119ab565b60405182907f2c56893f6f6026d19bd17b7d05c9f15c522de1ae2b1c3a825f91a73c799321f290600090a25050565b80471015611e165760405162461bcd60e51b815260206004820152601d60248201527f416464726573733a20696e73756666696369656e742062616c616e6365000000604482015260640161024a565b6000826001600160a01b03168260405160006040518083038185875af1925050503d8060008114611e63576040519150601f19603f3d011682016040523d82523d6000602084013e611e68565b606091505b505090508061117a5760405162461bcd60e51b815260206004820152603a60248201527f416464726573733a20756e61626c6520746f2073656e642076616c75652c207260448201527f6563697069656e74206d61792068617665207265766572746564000000000000606482015260840161024a565b60405180610120016040528060006001600160a01b0316815260200160006001600160a01b0316815260200160008152602001600081526020016000815260200160608152602001600081526020016000815260200160006002811115611f4857611f4861211e565b905290565b828054828255906000526020600020908101928215611fa2579160200282015b82811115611fa257825182546001600160a01b0319166001600160a01b03909116178255602090920191600190910190611f6d565b50611fae929150611fb2565b5090565b5b80821115611fae5760008155600101611fb3565b634e487b7160e01b600052604160045260246000fd5b604051601f8201601f1916810167ffffffffffffffff8111828210171561200657612006611fc7565b604052919050565b600067ffffffffffffffff82111561202857612028611fc7565b5060051b60200190565b600082601f83011261204357600080fd5b813560206120586120538361200e565b611fdd565b82815260059290921b8401810191818101908684111561207757600080fd5b8286015b84811015612092578035835291830191830161207b565b509695505050505050565b6000602082840312156120af57600080fd5b813567ffffffffffffffff8111156120c657600080fd5b6120d284828501612032565b949350505050565b600081518084526020808501945080840160005b838110156121135781516001600160a01b0316875295820195908201906001016120ee565b509495945050505050565b634e487b7160e01b600052602160045260246000fd5b6003811061215257634e487b7160e01b600052602160045260246000fd5b9052565b60006020808301818452808551808352604092508286019150828160051b87010184880160005b8381101561222a57888303603f19018552815180516001600160a01b03168452610120818901516001600160a01b038116868b0152508188015185890152606080830151908601526080808301519086015260a0808301518187018390526121e7838801826120da565b9250505060c080830151818701525060e080830151818701525061010080830151925061221681870184612134565b50958801959350509086019060010161217d565b509098975050505050505050565b60006020828403121561224a57600080fd5b81356001600160e01b03198116811461164857600080fd5b80356001600160a01b038116811461227957600080fd5b919050565b60006020828403121561229057600080fd5b61164882612262565b6000806000606084860312156122ae57600080fd5b833567ffffffffffffffff808211156122c657600080fd5b6122d287838801612032565b945060208601359150808211156122e857600080fd5b506122f586828701612032565b92505061230460408501612262565b90509250925092565b6000806040838503121561232057600080fd5b8235915061233060208401612262565b90509250929050565b80151581146116dc57600080fd5b6000806040838503121561235a57600080fd5b61236383612262565b9150602083013561237381612339565b809150509250929050565b6000806040838503121561239157600080fd5b50508035926020909101359150565b6000806000606084860312156123b557600080fd5b833592506123c560208501612262565b9150604084013590509250925092565b6000806000606084860312156123ea57600080fd5b833592506020840135915061230460408501612262565b60006020828403121561241357600080fd5b5035919050565b60008060008060008060c0878903121561243357600080fd5b61243c87612262565b9550602080880135955060408801359450606088013567ffffffffffffffff81111561246757600080fd5b8801601f81018a1361247857600080fd5b80356124866120538261200e565b81815260059190911b8201830190838101908c8311156124a557600080fd5b928401925b828410156124ca576124bb84612262565b825292840192908401906124aa565b999c989b50969960808101359860a090910135975095505050505050565b600080604083850312156124fb57600080fd5b61250483612262565b946020939093013593505050565b6000610100820190506001600160a01b03808b168352808a166020840152508760408301528660608301528560808301528460a08301528360c083015261255c60e0830184612134565b9998505050505050505050565b600082601f83011261257a57600080fd5b813567ffffffffffffffff81111561259457612594611fc7565b6125a7601f8201601f1916602001611fdd565b8181528460208386010111156125bc57600080fd5b816020850160208301376000918101602001919091529392505050565b600080600080600060a086880312156125f157600080fd5b6125fa86612262565b945061260860208701612262565b9350604086013567ffffffffffffffff8082111561262557600080fd5b61263189838a01612032565b9450606088013591508082111561264757600080fd5b61265389838a01612032565b9350608088013591508082111561266957600080fd5b5061267688828901612569565b9150509295509295909350565b60008060006060848603121561269857600080fd5b833592506126a860208501612262565b915061230460408501612262565b600080600080600060a086880312156126ce57600080fd5b6126d786612262565b94506126e560208701612262565b93506040860135925060608601359150608086013567ffffffffffffffff81111561270f57600080fd5b61267688828901612569565b634e487b7160e01b600052603260045260246000fd5b634e487b7160e01b600052601160045260246000fd5b60006001820161275957612759612731565b5060010190565b8181038181111561092b5761092b612731565b600181815b808511156127ae57816000190482111561279457612794612731565b808516156127a157918102915b93841c9390800290612778565b509250929050565b6000826127c55750600161092b565b816127d25750600061092b565b81600181146127e857600281146127f25761280e565b600191505061092b565b60ff84111561280357612803612731565b50506001821b61092b565b5060208310610133831016604e8410600b8410161715612831575081810a61092b565b61283b8383612773565b806000190482111561284f5761284f612731565b029392505050565b600061164883836127b6565b808202811582820484141761092b5761092b612731565b60006020828403121561288c57600080fd5b5051919050565b6000826128b057634e487b7160e01b600052601260045260246000fd5b500490565b6000602082840312156128c757600080fd5b815161164881612339565b8082018082111561092b5761092b612731565b60006101008083016001600160a01b03808d16855260208c818701528b60408701528a6060870152836080870152829350895180845261012087019450818b01935060005b8181101561294857845184168652948201949382019360010161292a565b505050505060a0830186905260c083018590526001600160a01b03841660e0840152905061255c56fea2646970667358221220c76aa9a9324fe693ebf0a3597a7eeaa4589240d9251ee4e9134b5fc31d3bdb7b64736f6c63430008110033",
  "linkReferences": {},
  "deployedLinkReferences": {}
}