{
  "_format": "hh-sol-artifact-1",
  "contractName": "ClockSaleOwnableOnlyMultiTokens",
  "sourceName": "contracts/OnlyMultitokens/ClockSaleOwnableOnlyMultiTokens.sol",
  "abi": [
    {
      "inputs": [
        {
          "internalType": "address",
          "name": "_feeReceiver",
          "type": "address"
        },
        {
          "internalType": "uint256",
          "name": "_ownerCut",
          "type": "uint256"
        }
      ],
      "stateMutability": "nonpayable",
      "type": "constructor"
    },
    {
      "anonymous": false,
      "inputs": [
        {
          "indexed": true,
          "internalType": "uint256",
          "name": "_auctionId",
          "type": "uint256"
        },
        {
          "indexed": false,
          "internalType": "address",
          "name": "_buyer",
          "type": "address"
        },
        {
          "indexed": false,
          "internalType": "uint256",
          "name": "_cost",
          "type": "uint256"
        },
        {
          "indexed": false,
          "internalType": "address",
          "name": "_tokenUsed",
          "type": "address"
        },
        {
          "indexed": false,
          "internalType": "uint256",
          "name": "_nftAmount",
          "type": "uint256"
        }
      ],
      "name": "BuySuccessful",
      "type": "event"
    },
    {
      "anonymous": false,
      "inputs": [
        {
          "indexed": false,
          "internalType": "address",
          "name": "newReceiver",
          "type": "address"
        }
      ],
      "name": "ChangedFeeReceiver",
      "type": "event"
    },
    {
      "anonymous": false,
      "inputs": [
        {
          "indexed": true,
          "internalType": "address",
          "name": "previousOwner",
          "type": "address"
        },
        {
          "indexed": true,
          "internalType": "address",
          "name": "newOwner",
          "type": "address"
        }
      ],
      "name": "OwnershipTransferred",
      "type": "event"
    },
    {
      "anonymous": false,
      "inputs": [
        {
          "indexed": false,
          "internalType": "address",
          "name": "account",
          "type": "address"
        }
      ],
      "name": "Paused",
      "type": "event"
    },
    {
      "anonymous": false,
      "inputs": [
        {
          "indexed": true,
          "internalType": "uint256",
          "name": "_auctionId",
          "type": "uint256"
        }
      ],
      "name": "SaleCancelled",
      "type": "event"
    },
    {
      "anonymous": false,
      "inputs": [
        {
          "indexed": true,
          "internalType": "uint256",
          "name": "_auctionId",
          "type": "uint256"
        },
        {
          "indexed": false,
          "internalType": "address",
          "name": "_nft",
          "type": "address"
        },
        {
          "indexed": false,
          "internalType": "uint256",
          "name": "_nftId",
          "type": "uint256"
        },
        {
          "indexed": false,
          "internalType": "uint256",
          "name": "_amount",
          "type": "uint256"
        },
        {
          "indexed": false,
          "internalType": "uint256",
          "name": "priceUSD",
          "type": "uint256"
        },
        {
          "indexed": false,
          "internalType": "address[]",
          "name": "_tokens",
          "type": "address[]"
        },
        {
          "indexed": false,
          "internalType": "uint256",
          "name": "_duration",
          "type": "uint256"
        },
        {
          "indexed": false,
          "internalType": "uint256",
          "name": "_startedAt",
          "type": "uint256"
        },
        {
          "indexed": false,
          "internalType": "address",
          "name": "_seller",
          "type": "address"
        }
      ],
      "name": "SaleCreated",
      "type": "event"
    },
    {
      "anonymous": false,
      "inputs": [
        {
          "indexed": true,
          "internalType": "uint256",
          "name": "_auctionId",
          "type": "uint256"
        }
      ],
      "name": "SaleSuccessful",
      "type": "event"
    },
    {
      "anonymous": false,
      "inputs": [
        {
          "indexed": false,
          "internalType": "address",
          "name": "account",
          "type": "address"
        }
      ],
      "name": "Unpaused",
      "type": "event"
    },
    {
      "inputs": [
        {
          "internalType": "address",
          "name": "_token",
          "type": "address"
        },
        {
          "internalType": "uint256",
          "name": "decimals",
          "type": "uint256"
        }
      ],
      "name": "addToken",
      "outputs": [],
      "stateMutability": "nonpayable",
      "type": "function"
    },
    {
      "inputs": [
        {
          "internalType": "uint256",
          "name": "_tokenId",
          "type": "uint256"
        },
        {
          "internalType": "uint256",
          "name": "amount",
          "type": "uint256"
        },
        {
          "internalType": "address",
          "name": "tokenToPay",
          "type": "address"
        }
      ],
      "name": "buy",
      "outputs": [],
      "stateMutability": "nonpayable",
      "type": "function"
    },
    {
      "inputs": [
        {
          "internalType": "uint256[]",
          "name": "tokensId",
          "type": "uint256[]"
        },
        {
          "internalType": "uint256[]",
          "name": "amounts",
          "type": "uint256[]"
        },
        {
          "internalType": "address",
          "name": "tokenToPay",
          "type": "address"
        }
      ],
      "name": "buyBatch",
      "outputs": [],
      "stateMutability": "payable",
      "type": "function"
    },
    {
      "inputs": [
        {
          "internalType": "uint256",
          "name": "_tokenId",
          "type": "uint256"
        }
      ],
      "name": "cancelSale",
      "outputs": [],
      "stateMutability": "nonpayable",
      "type": "function"
    },
    {
      "inputs": [
        {
          "internalType": "address",
          "name": "_nftAddress",
          "type": "address"
        },
        {
          "internalType": "uint256",
          "name": "_tokenId",
          "type": "uint256"
        },
        {
          "internalType": "uint256",
          "name": "_priceUSD",
          "type": "uint256"
        },
        {
          "internalType": "address[]",
          "name": "_tokens",
          "type": "address[]"
        },
        {
          "internalType": "uint256",
          "name": "_amount",
          "type": "uint256"
        },
        {
          "internalType": "uint256",
          "name": "_duration",
          "type": "uint256"
        }
      ],
      "name": "createSale",
      "outputs": [],
      "stateMutability": "nonpayable",
      "type": "function"
    },
    {
      "inputs": [
        {
          "internalType": "address",
          "name": "",
          "type": "address"
        }
      ],
      "name": "decimalsByToken",
      "outputs": [
        {
          "internalType": "uint256",
          "name": "",
          "type": "uint256"
        }
      ],
      "stateMutability": "view",
      "type": "function"
    },
    {
      "inputs": [],
      "name": "decimalsUSD",
      "outputs": [
        {
          "internalType": "uint256",
          "name": "",
          "type": "uint256"
        }
      ],
      "stateMutability": "view",
      "type": "function"
    },
    {
      "inputs": [
        {
          "internalType": "uint256",
          "name": "amount",
          "type": "uint256"
        },
        {
          "internalType": "address",
          "name": "token",
          "type": "address"
        },
        {
          "internalType": "address",
          "name": "recipient",
          "type": "address"
        }
      ],
      "name": "emergencyWithdraw",
      "outputs": [],
      "stateMutability": "nonpayable",
      "type": "function"
    },
    {
      "inputs": [],
      "name": "feeReceiver",
      "outputs": [
        {
          "internalType": "address",
          "name": "",
          "type": "address"
        }
      ],
      "stateMutability": "view",
      "type": "function"
    },
    {
      "inputs": [],
      "name": "genesisBlock",
      "outputs": [
        {
          "internalType": "uint256",
          "name": "",
          "type": "uint256"
        }
      ],
      "stateMutability": "view",
      "type": "function"
    },
    {
      "inputs": [
        {
          "internalType": "uint256",
          "name": "_tokenId",
          "type": "uint256"
        },
        {
          "internalType": "address",
          "name": "tokenToGet",
          "type": "address"
        },
        {
          "internalType": "uint256",
          "name": "quantity",
          "type": "uint256"
        }
      ],
      "name": "getPrice",
      "outputs": [
        {
          "internalType": "uint256",
          "name": "",
          "type": "uint256"
        }
      ],
      "stateMutability": "view",
      "type": "function"
    },
    {
      "inputs": [
        {
          "internalType": "uint256[]",
          "name": "_tokenIds",
          "type": "uint256[]"
        }
      ],
      "name": "getSales",
      "outputs": [
        {
          "components": [
            {
              "internalType": "address",
              "name": "seller",
              "type": "address"
            },
            {
              "internalType": "address",
              "name": "nft",
              "type": "address"
            },
            {
              "internalType": "uint256",
              "name": "nftId",
              "type": "uint256"
            },
            {
              "internalType": "uint256",
              "name": "amount",
              "type": "uint256"
            },
            {
              "internalType": "uint256",
              "name": "priceUSD",
              "type": "uint256"
            },
            {
              "internalType": "address[]",
              "name": "tokens",
              "type": "address[]"
            },
            {
              "internalType": "uint256",
              "name": "duration",
              "type": "uint256"
            },
            {
              "internalType": "uint256",
              "name": "startedAt",
              "type": "uint256"
            },
            {
              "internalType": "enum ClockSaleOwnableOnlyMultiTokens.SaleStatus",
              "name": "status",
              "type": "uint8"
            }
          ],
          "internalType": "struct ClockSaleOwnableOnlyMultiTokens.Sale[]",
          "name": "",
          "type": "tuple[]"
        }
      ],
      "stateMutability": "view",
      "type": "function"
    },
    {
      "inputs": [
        {
          "internalType": "address",
          "name": "",
          "type": "address"
        }
      ],
      "name": "isAllowed",
      "outputs": [
        {
          "internalType": "bool",
          "name": "",
          "type": "bool"
        }
      ],
      "stateMutability": "view",
      "type": "function"
    },
    {
      "inputs": [
        {
          "internalType": "uint256",
          "name": "_tokenId",
          "type": "uint256"
        }
      ],
      "name": "isOnSale",
      "outputs": [
        {
          "internalType": "bool",
          "name": "",
          "type": "bool"
        }
      ],
      "stateMutability": "view",
      "type": "function"
    },
    {
      "inputs": [
        {
          "internalType": "address",
          "name": "_token",
          "type": "address"
        }
      ],
      "name": "isTokenAllowed",
      "outputs": [
        {
          "internalType": "bool",
          "name": "",
          "type": "bool"
        }
      ],
      "stateMutability": "view",
      "type": "function"
    },
    {
      "inputs": [
        {
          "internalType": "address",
          "name": "",
          "type": "address"
        },
        {
          "internalType": "address",
          "name": "",
          "type": "address"
        },
        {
          "internalType": "uint256[]",
          "name": "",
          "type": "uint256[]"
        },
        {
          "internalType": "uint256[]",
          "name": "",
          "type": "uint256[]"
        },
        {
          "internalType": "bytes",
          "name": "",
          "type": "bytes"
        }
      ],
      "name": "onERC1155BatchReceived",
      "outputs": [
        {
          "internalType": "bytes4",
          "name": "",
          "type": "bytes4"
        }
      ],
      "stateMutability": "nonpayable",
      "type": "function"
    },
    {
      "inputs": [
        {
          "internalType": "address",
          "name": "",
          "type": "address"
        },
        {
          "internalType": "address",
          "name": "",
          "type": "address"
        },
        {
          "internalType": "uint256",
          "name": "",
          "type": "uint256"
        },
        {
          "internalType": "uint256",
          "name": "",
          "type": "uint256"
        },
        {
          "internalType": "bytes",
          "name": "",
          "type": "bytes"
        }
      ],
      "name": "onERC1155Received",
      "outputs": [
        {
          "internalType": "bytes4",
          "name": "",
          "type": "bytes4"
        }
      ],
      "stateMutability": "nonpayable",
      "type": "function"
    },
    {
      "inputs": [],
      "name": "owner",
      "outputs": [
        {
          "internalType": "address",
          "name": "",
          "type": "address"
        }
      ],
      "stateMutability": "view",
      "type": "function"
    },
    {
      "inputs": [],
      "name": "ownerCut",
      "outputs": [
        {
          "internalType": "uint256",
          "name": "",
          "type": "uint256"
        }
      ],
      "stateMutability": "view",
      "type": "function"
    },
    {
      "inputs": [],
      "name": "paused",
      "outputs": [
        {
          "internalType": "bool",
          "name": "",
          "type": "bool"
        }
      ],
      "stateMutability": "view",
      "type": "function"
    },
    {
      "inputs": [
        {
          "internalType": "address",
          "name": "",
          "type": "address"
        }
      ],
      "name": "priceFeedsByToken",
      "outputs": [
        {
          "internalType": "address",
          "name": "",
          "type": "address"
        }
      ],
      "stateMutability": "view",
      "type": "function"
    },
    {
      "inputs": [],
      "name": "renounceOwnership",
      "outputs": [],
      "stateMutability": "nonpayable",
      "type": "function"
    },
    {
      "inputs": [],
      "name": "restartTrading",
      "outputs": [],
      "stateMutability": "nonpayable",
      "type": "function"
    },
    {
      "inputs": [
        {
          "internalType": "uint256",
          "name": "",
          "type": "uint256"
        }
      ],
      "name": "sales",
      "outputs": [
        {
          "internalType": "address",
          "name": "seller",
          "type": "address"
        },
        {
          "internalType": "address",
          "name": "nft",
          "type": "address"
        },
        {
          "internalType": "uint256",
          "name": "nftId",
          "type": "uint256"
        },
        {
          "internalType": "uint256",
          "name": "amount",
          "type": "uint256"
        },
        {
          "internalType": "uint256",
          "name": "priceUSD",
          "type": "uint256"
        },
        {
          "internalType": "uint256",
          "name": "duration",
          "type": "uint256"
        },
        {
          "internalType": "uint256",
          "name": "startedAt",
          "type": "uint256"
        },
        {
          "internalType": "enum ClockSaleOwnableOnlyMultiTokens.SaleStatus",
          "name": "status",
          "type": "uint8"
        }
      ],
      "stateMutability": "view",
      "type": "function"
    },
    {
      "inputs": [
        {
          "internalType": "address",
          "name": "_feeReceiver",
          "type": "address"
        }
      ],
      "name": "setFeeReceiver",
      "outputs": [],
      "stateMutability": "nonpayable",
      "type": "function"
    },
    {
      "inputs": [
        {
          "internalType": "address",
          "name": "nftAddress",
          "type": "address"
        },
        {
          "internalType": "bool",
          "name": "allow",
          "type": "bool"
        }
      ],
      "name": "setNftAllowed",
      "outputs": [],
      "stateMutability": "nonpayable",
      "type": "function"
    },
    {
      "inputs": [
        {
          "internalType": "uint256",
          "name": "_ownerCut",
          "type": "uint256"
        }
      ],
      "name": "setOwnerCut",
      "outputs": [],
      "stateMutability": "nonpayable",
      "type": "function"
    },
    {
      "inputs": [],
      "name": "stopTrading",
      "outputs": [],
      "stateMutability": "nonpayable",
      "type": "function"
    },
    {
      "inputs": [
        {
          "internalType": "bytes4",
          "name": "interfaceId",
          "type": "bytes4"
        }
      ],
      "name": "supportsInterface",
      "outputs": [
        {
          "internalType": "bool",
          "name": "",
          "type": "bool"
        }
      ],
      "stateMutability": "view",
      "type": "function"
    },
    {
      "inputs": [],
      "name": "tokenIdTracker",
      "outputs": [
        {
          "internalType": "uint256",
          "name": "_value",
          "type": "uint256"
        }
      ],
      "stateMutability": "view",
      "type": "function"
    },
    {
      "inputs": [
        {
          "internalType": "address",
          "name": "newOwner",
          "type": "address"
        }
      ],
      "name": "transferOwnership",
      "outputs": [],
      "stateMutability": "nonpayable",
      "type": "function"
    },
    {
      "inputs": [
        {
          "internalType": "uint256",
          "name": "saleId",
          "type": "uint256"
        },
        {
          "internalType": "uint256",
          "name": "newPrice",
          "type": "uint256"
        }
      ],
      "name": "updateSalePrice",
      "outputs": [],
      "stateMutability": "nonpayable",
      "type": "function"
    },
    {
      "inputs": [
        {
          "internalType": "uint256",
          "name": "saleId",
          "type": "uint256"
        },
        {
          "internalType": "address",
          "name": "receiver",
          "type": "address"
        }
      ],
      "name": "updateSaleReceiver",
      "outputs": [],
      "stateMutability": "nonpayable",
      "type": "function"
    }
  ],
  "bytecode": "0x6080604052600680553480156200001557600080fd5b5060405162002ada38038062002ada833981016040819052620000389162000128565b6200004333620000d8565b6000805460ff60a01b1916905560018055612710811115620000ab5760405162461bcd60e51b815260206004820152601360248201527f436c6f636b53616c653a4f574e45525f43555400000000000000000000000000604482015260640160405180910390fd5b600455600380546001600160a01b0319166001600160a01b03929092169190911790554360055562000164565b600080546001600160a01b038381166001600160a01b0319831681178455604051919092169283917f8be0079c531659141344cd1fd0a4f28419497f9722a3daafe3b4186f6b6457e09190a35050565b600080604083850312156200013c57600080fd5b82516001600160a01b03811681146200015457600080fd5b6020939093015192949293505050565b61296680620001746000396000f3fe6080604052600436106101fd5760003560e01c806383b5ff8b1161011d578063bc197c81116100b0578063efdcd9741161007f578063f23a6e6111610064578063f23a6e611461068c578063f2fde38b146106d1578063f9eaee0d146106f157600080fd5b8063efdcd9741461064c578063f0f2805f1461066c57600080fd5b8063bc197c8114610598578063bd94b005146105f6578063d2cee46f14610616578063e4ad40581461063657600080fd5b8063af81c5b9116100ec578063af81c5b9146104a5578063b3f00674146104c5578063b5f522f7146104e5578063babcc5391461056857600080fd5b806383b5ff8b146104245780638da5cb5b1461043a5780638e782723146104585780639a37ec051461048557600080fd5b80634896672e116101955780635c975abb116101645780635c975abb146103bb578063715018a6146103da5780637185f163146103ef578063757de5731461040457600080fd5b80634896672e146103455780634cdc9c631461036557806350d16d9f1461037b57806359a87bc11461039b57600080fd5b80630d985a9c116101d15780630d985a9c146102db578063186c0411146102f05780631e1d7bb5146103105780632cdddc1b1461033057600080fd5b8062313a681461020257806301ffc9a71461023857806302bf3d561461026857806304a455eb1461028d575b600080fd5b34801561020e57600080fd5b5061022261021d36600461205c565b610711565b60405161022f9190612115565b60405180910390f35b34801561024457600080fd5b506102586102533660046121f7565b6108ca565b604051901515815260200161022f565b34801561027457600080fd5b5060025461027f9081565b60405190815260200161022f565b34801561029957600080fd5b506102c36102a836600461223d565b6009602052600090815260409020546001600160a01b031681565b6040516001600160a01b03909116815260200161022f565b6102ee6102e9366004612258565b6108db565b005b3480156102fc57600080fd5b506102ee61030b3660046122cc565b6109b8565b34801561031c57600080fd5b506102ee61032b366004612306565b610a48565b34801561033c57600080fd5b506102ee610a7b565b34801561035157600080fd5b506102ee61036036600461233d565b610a95565b34801561037157600080fd5b5061027f60055481565b34801561038757600080fd5b5061027f61039636600461235f565b610b0b565b3480156103a757600080fd5b506102ee6103b6366004612394565b610bc1565b3480156103c757600080fd5b50600054600160a01b900460ff16610258565b3480156103e657600080fd5b506102ee61112e565b3480156103fb57600080fd5b506102ee611140565b34801561041057600080fd5b506102ee61041f3660046123c0565b611158565b34801561043057600080fd5b5061027f60045481565b34801561044657600080fd5b506000546001600160a01b03166102c3565b34801561046457600080fd5b5061027f61047336600461223d565b600a6020526000908152604090205481565b34801561049157600080fd5b506102ee6104a03660046123d9565b611165565b3480156104b157600080fd5b506102ee6104c03660046124a7565b6113e6565b3480156104d157600080fd5b506003546102c3906001600160a01b031681565b3480156104f157600080fd5b506105546105003660046123c0565b6007602081905260009182526040909120805460018201546002830154600384015460048501546006860154968601546008909601546001600160a01b039586169795909416959294919390929060ff1688565b60405161022f9897969594939291906124d1565b34801561057457600080fd5b5061025861058336600461223d565b60086020526000908152604090205460ff1681565b3480156105a457600080fd5b506105dd6105b3366004612598565b7fbc197c810000000000000000000000000000000000000000000000000000000095945050505050565b6040516001600160e01b0319909116815260200161022f565b34801561060257600080fd5b506102ee6106113660046123c0565b61140a565b34801561062257600080fd5b506102ee610631366004612642565b6114df565b34801561064257600080fd5b5061027f60065481565b34801561065857600080fd5b506102ee61066736600461223d565b611594565b34801561067857600080fd5b506102586106873660046123c0565b6115f0565b34801561069857600080fd5b506105dd6106a7366004612675565b7ff23a6e610000000000000000000000000000000000000000000000000000000095945050505050565b3480156106dd57600080fd5b506102ee6106ec36600461223d565b61160e565b3480156106fd57600080fd5b5061025861070c36600461223d565b61169e565b60606000825167ffffffffffffffff81111561072f5761072f611f86565b60405190808252806020026020018201604052801561076857816020015b610755611e9e565b81526020019060019003908161074d5790505b50905060005b83518110156108c3576007600085838151811061078d5761078d6126da565b602090810291909101810151825281810192909252604090810160002081516101208101835281546001600160a01b0390811682526001830154168185015260028201548184015260038201546060820152600482015460808201526005820180548451818702810187019095528085529194929360a086019390929083018282801561084357602002820191906000526020600020905b81546001600160a01b03168152600190910190602001808311610825575b50505091835250506006820154602082015260078201546040820152600882015460609091019060ff16600281111561087e5761087e6120dd565b600281111561088f5761088f6120dd565b815250508282815181106108a5576108a56126da565b602002602001018190525080806108bb90612706565b91505061076e565b5092915050565b60006108d5826116ca565b92915050565b81518351146109575760405162461bcd60e51b815260206004820152602f60248201527f4172726179204c656e677468206d757374206265207468652073616d65206f6660448201527f20616d6f756e7420616e6420496473000000000000000000000000000000000060648201526084015b60405180910390fd5b60005b83518110156109b2576109a0848281518110610978576109786126da565b6020026020010151848381518110610992576109926126da565b602002602001015184610bc1565b806109aa81612706565b91505061095a565b50505050565b6109c0611731565b60008281526007602052604090206109db8160070154151590565b610a275760405162461bcd60e51b815260206004820152601760248201527f436c6f636b53616c653a4e4f545f415641494c41424c45000000000000000000604482015260640161094e565b80546001600160a01b0319166001600160a01b039290921691909117905550565b610a50611731565b6001600160a01b03919091166000908152600860205260409020805460ff1916911515919091179055565b610a83611731565b610a8b61178b565b610a936117e4565b565b610a9d611731565b6000828152600760205260409020610ab88160070154151590565b610b045760405162461bcd60e51b815260206004820152601760248201527f436c6f636b53616c653a4e4f545f415641494c41424c45000000000000000000604482015260640161094e565b6004015550565b6000838152600760205260408120610b2281611839565b610b6e5760405162461bcd60e51b815260206004820152601660248201527f436c6f636b53616c653a494e56414c49445f53414c4500000000000000000000604482015260640161094e565b6006546001600160a01b0385166000908152600a6020526040902054610b94919061271f565b610b9f90600a612816565b6004820154610bae9085612822565b610bb89190612822565b95945050505050565b610bc961186b565b610bd16118c4565b600083815260076020526040812090805b6005830154811015610c4757836001600160a01b0316836005018281548110610c0d57610c0d6126da565b6000918252602090912001546001600160a01b031603610c3557610c32868587610b0b565b91505b80610c3f81612706565b915050610be2565b5080600003610c985760405162461bcd60e51b815260206004820152601b60248201527f436c6f636b53616c653a544f4b454e5f4e4f545f414c4c4f5745440000000000604482015260640161094e565b600033905084836003016000828254610cb1919061271f565b90915550506003830154600003610ccb57610ccb8661191e565b610cd48461169e565b610d465760405162461bcd60e51b815260206004820152602a60248201527f434c4f434b5f41554354494f4e3a20544f4b454e20544f20504159204953204e60448201527f4f5420414c4c4f57454400000000000000000000000000000000000000000000606482015260840161094e565b816001600160a01b0385166370a08231336040516001600160e01b031960e084901b1681526001600160a01b039091166004820152602401602060405180830381865afa158015610d9b573d6000803e3d6000fd5b505050506040513d601f19601f82011682018060405250810190610dbf9190612839565b11610e325760405162461bcd60e51b815260206004820152602260248201527f434c4f434b5f41554354494f4e3a20494e535546494349454e542042414c414e60448201527f4345000000000000000000000000000000000000000000000000000000000000606482015260840161094e565b816001600160a01b03851663dd62ed3e336040516001600160e01b031960e084901b1681526001600160a01b039091166004820152306024820152604401602060405180830381865afa158015610e8d573d6000803e3d6000fd5b505050506040513d601f19601f82011682018060405250810190610eb19190612839565b11610f235760405162461bcd60e51b8152602060048201526024808201527f434c4f434b5f41554354494f4e3a20494e535546494349454e5420414c4c4f5760448201527f414e434500000000000000000000000000000000000000000000000000000000606482015260840161094e565b610f2c83611839565b610f785760405162461bcd60e51b815260206004820152601760248201527f436c6f636b53616c653a4e4f545f415641494c41424c45000000000000000000604482015260640161094e565b600061271060045484610f8b9190612822565b610f959190612852565b90506000610fa3828561271f565b90506001600160a01b0386166323b872dd33875460405160e084901b6001600160e01b03191681526001600160a01b03928316600482015291166024820152604481018490526064016020604051808303816000875af115801561100b573d6000803e3d6000fd5b505050506040513d601f19601f8201168201806040525081019061102f9190612874565b506001600160a01b0386166323b872dd3360035460405160e084901b6001600160e01b03191681526001600160a01b03928316600482015291166024820152604481018590526064016020604051808303816000875af1158015611097573d6000803e3d6000fd5b505050506040513d601f19601f820116820180604052508101906110bb9190612874565b506110c788888561196a565b604080516001600160a01b0385811682526020820187905288168183015260608101899052905189917f4b4fc464c78b40b7590e870adc5109d31591c61b1d739ac67eda1f9e8f314101919081900360800190a2505050505061112960018055565b505050565b611136611731565b610a936000611a0d565b611148611731565b6111506118c4565b610a93611a5d565b611160611731565b600455565b61116d6118c4565b611175611731565b6001600160a01b038616600090815260086020526040902054339060ff166111df5760405162461bcd60e51b815260206004820152601660248201527f436c6f636b53616c653a494e56414c49445f53414c4500000000000000000000604482015260640161094e565b6111ea878288611aa0565b6112365760405162461bcd60e51b815260206004820152601360248201527f436c6f636b53616c653a4e4f545f4f574e455200000000000000000000000000604482015260640161094e565b60008451116112ad5760405162461bcd60e51b815260206004820152602560248201527f596f75206861766520746f20616363657074206174206c65617374206f6e652060448201527f746f6b656e000000000000000000000000000000000000000000000000000000606482015260840161094e565b6112b987828886611b3c565b60005b845181101561136b576112e78582815181106112da576112da6126da565b602002602001015161169e565b6113595760405162461bcd60e51b815260206004820152603660248201527f434c4f434b5f41554354494f4e3a204f4e45204f462054484520544f4b454e5360448201527f20544f20504159204953204e4f5420414c4c4f57454400000000000000000000606482015260840161094e565b8061136381612706565b9150506112bc565b506000604051806101200160405280836001600160a01b03168152602001896001600160a01b03168152602001888152602001858152602001878152602001868152602001848152602001428152602001600060028111156113cf576113cf6120dd565b905290506113dc81611b8f565b5050505050505050565b6113ee611731565b6001600160a01b039091166000908152600a6020526040902055565b611412611731565b600081815260076020526040902061142d8160070154151590565b6114795760405162461bcd60e51b815260206004820152601760248201527f436c6f636b53616c653a4e4f545f415641494c41424c45000000000000000000604482015260640161094e565b80546001600160a01b031633146114d25760405162461bcd60e51b815260206004820152601360248201527f436c6f636b53616c653a4e4f545f4f574e455200000000000000000000000000604482015260640161094e565b6114db82611d1e565b5050565b6114e7611731565b6001600160a01b038216611508576111296001600160a01b03821684611d85565b6040517fa9059cbb0000000000000000000000000000000000000000000000000000000081526001600160a01b0382811660048301526024820185905283169063a9059cbb906044016020604051808303816000875af1158015611570573d6000803e3d6000fd5b505050506040513d601f19601f820116820180604052508101906109b29190612874565b61159c611731565b600380546001600160a01b0319166001600160a01b0383169081179091556040519081527fce118ac8247ab22e55e5f2799d4f5dcf662d59fe0d207b98d6a89764ae81d4819060200160405180910390a150565b600081815260076020526040812061160781611839565b9392505050565b611616611731565b6001600160a01b0381166116925760405162461bcd60e51b815260206004820152602660248201527f4f776e61626c653a206e6577206f776e657220697320746865207a65726f206160448201527f6464726573730000000000000000000000000000000000000000000000000000606482015260840161094e565b61169b81611a0d565b50565b6001600160a01b0381166000908152600a60205260408120546116c25760006108d5565b600192915050565b60006001600160e01b031982167f4e2312e00000000000000000000000000000000000000000000000000000000014806108d557507f01ffc9a7000000000000000000000000000000000000000000000000000000006001600160e01b03198316146108d5565b6000546001600160a01b03163314610a935760405162461bcd60e51b815260206004820181905260248201527f4f776e61626c653a2063616c6c6572206973206e6f7420746865206f776e6572604482015260640161094e565b600054600160a01b900460ff16610a935760405162461bcd60e51b815260206004820152601460248201527f5061757361626c653a206e6f7420706175736564000000000000000000000000604482015260640161094e565b6117ec61178b565b6000805460ff60a01b191690557f5db9ee0a495bf2e6ff9c91a7834c1ba4fdd244a5e8aa4e537bd38aeae4b073aa335b6040516001600160a01b03909116815260200160405180910390a1565b60006118488260070154151590565b80156108d5575042826006015483600701546118649190612891565b1192915050565b6002600154036118bd5760405162461bcd60e51b815260206004820152601f60248201527f5265656e7472616e637947756172643a207265656e7472616e742063616c6c00604482015260640161094e565b6002600155565b600054600160a01b900460ff1615610a935760405162461bcd60e51b815260206004820152601060248201527f5061757361626c653a2070617573656400000000000000000000000000000000604482015260640161094e565b60008181526007602052604080822060088101805460ff191660011790559051909183917fe8722c7fbbc203b6f7b1c8d8b08fe896e23df39ea595609629ab14794bd448ed9190a25050565b600083815260076020526040808220600181015460028201549251637921219560e11b81523060048201526001600160a01b03868116602483015260448201949094526064810187905260a0608482015260a48101949094529092911690819063f242432a9060c4015b600060405180830381600087803b1580156119ee57600080fd5b505af1158015611a02573d6000803e3d6000fd5b505050505050505050565b600080546001600160a01b038381166001600160a01b0319831681178455604051919092169283917f8be0079c531659141344cd1fd0a4f28419497f9722a3daafe3b4186f6b6457e09190a35050565b611a656118c4565b6000805460ff60a01b1916600160a01b1790557f62e78cea01bee320cd4e420270b5ea74000d11b0c9f74754ebdbfc544b05a25861181c3390565b600080846040517efdd58e0000000000000000000000000000000000000000000000000000000081526001600160a01b0386811660048301526024820186905291925060009183169062fdd58e90604401602060405180830381865afa158015611b0e573d6000803e3d6000fd5b505050506040513d601f19601f82011682018060405250810190611b329190612839565b1195945050505050565b604051637921219560e11b81526001600160a01b038481166004830152306024830152604482018490526064820183905260a06084830152600060a483015285919082169063f242432a9060c4016119d4565b603c8160c001511015611be45760405162461bcd60e51b815260206004820152601a60248201527f436c6f636b53616c653a494e56414c49445f4455524154494f4e000000000000604482015260640161094e565b6000611bef60025490565b600081815260076020908152604091829020855181546001600160a01b039182166001600160a01b031991821617835583880151600184018054919093169116179055918501516002830155606085015160038301556080850151600483015560a085015180519394508593611c6b9260058501920190611f0c565b5060c0820151600682015560e0820151600782015561010082015160088201805460ff19166001836002811115611ca457611ca46120dd565b02179055505060028054600101905550807ff9c99bc06ec756a1ee15926ba230824a827d2d5e1ac2b0b6b0a202df63220f3583602001518460400151856060015186608001518760a001518860c001518960e001518a60000151604051611d129897969594939291906128a4565b60405180910390a25050565b600081815260076020526040902060088101805460ff1916600217905560038101548154611d569184916001600160a01b031661196a565b60405182907f2c56893f6f6026d19bd17b7d05c9f15c522de1ae2b1c3a825f91a73c799321f290600090a25050565b80471015611dd55760405162461bcd60e51b815260206004820152601d60248201527f416464726573733a20696e73756666696369656e742062616c616e6365000000604482015260640161094e565b6000826001600160a01b03168260405160006040518083038185875af1925050503d8060008114611e22576040519150601f19603f3d011682016040523d82523d6000602084013e611e27565b606091505b50509050806111295760405162461bcd60e51b815260206004820152603a60248201527f416464726573733a20756e61626c6520746f2073656e642076616c75652c207260448201527f6563697069656e74206d61792068617665207265766572746564000000000000606482015260840161094e565b60405180610120016040528060006001600160a01b0316815260200160006001600160a01b0316815260200160008152602001600081526020016000815260200160608152602001600081526020016000815260200160006002811115611f0757611f076120dd565b905290565b828054828255906000526020600020908101928215611f61579160200282015b82811115611f6157825182546001600160a01b0319166001600160a01b03909116178255602090920191600190910190611f2c565b50611f6d929150611f71565b5090565b5b80821115611f6d5760008155600101611f72565b634e487b7160e01b600052604160045260246000fd5b604051601f8201601f1916810167ffffffffffffffff81118282101715611fc557611fc5611f86565b604052919050565b600067ffffffffffffffff821115611fe757611fe7611f86565b5060051b60200190565b600082601f83011261200257600080fd5b8135602061201761201283611fcd565b611f9c565b82815260059290921b8401810191818101908684111561203657600080fd5b8286015b84811015612051578035835291830191830161203a565b509695505050505050565b60006020828403121561206e57600080fd5b813567ffffffffffffffff81111561208557600080fd5b61209184828501611ff1565b949350505050565b600081518084526020808501945080840160005b838110156120d25781516001600160a01b0316875295820195908201906001016120ad565b509495945050505050565b634e487b7160e01b600052602160045260246000fd5b6003811061211157634e487b7160e01b600052602160045260246000fd5b9052565b60006020808301818452808551808352604092508286019150828160051b87010184880160005b838110156121e957888303603f19018552815180516001600160a01b03168452610120818901516001600160a01b038116868b0152508188015185890152606080830151908601526080808301519086015260a0808301518187018390526121a683880182612099565b9250505060c080830151818701525060e08083015181870152506101008083015192506121d5818701846120f3565b50958801959350509086019060010161213c565b509098975050505050505050565b60006020828403121561220957600080fd5b81356001600160e01b03198116811461160757600080fd5b80356001600160a01b038116811461223857600080fd5b919050565b60006020828403121561224f57600080fd5b61160782612221565b60008060006060848603121561226d57600080fd5b833567ffffffffffffffff8082111561228557600080fd5b61229187838801611ff1565b945060208601359150808211156122a757600080fd5b506122b486828701611ff1565b9250506122c360408501612221565b90509250925092565b600080604083850312156122df57600080fd5b823591506122ef60208401612221565b90509250929050565b801515811461169b57600080fd5b6000806040838503121561231957600080fd5b61232283612221565b91506020830135612332816122f8565b809150509250929050565b6000806040838503121561235057600080fd5b50508035926020909101359150565b60008060006060848603121561237457600080fd5b8335925061238460208501612221565b9150604084013590509250925092565b6000806000606084860312156123a957600080fd5b83359250602084013591506122c360408501612221565b6000602082840312156123d257600080fd5b5035919050565b60008060008060008060c087890312156123f257600080fd5b6123fb87612221565b9550602080880135955060408801359450606088013567ffffffffffffffff81111561242657600080fd5b8801601f81018a1361243757600080fd5b803561244561201282611fcd565b81815260059190911b8201830190838101908c83111561246457600080fd5b928401925b828410156124895761247a84612221565b82529284019290840190612469565b999c989b50969960808101359860a090910135975095505050505050565b600080604083850312156124ba57600080fd5b6124c383612221565b946020939093013593505050565b6000610100820190506001600160a01b03808b168352808a166020840152508760408301528660608301528560808301528460a08301528360c083015261251b60e08301846120f3565b9998505050505050505050565b600082601f83011261253957600080fd5b813567ffffffffffffffff81111561255357612553611f86565b612566601f8201601f1916602001611f9c565b81815284602083860101111561257b57600080fd5b816020850160208301376000918101602001919091529392505050565b600080600080600060a086880312156125b057600080fd5b6125b986612221565b94506125c760208701612221565b9350604086013567ffffffffffffffff808211156125e457600080fd5b6125f089838a01611ff1565b9450606088013591508082111561260657600080fd5b61261289838a01611ff1565b9350608088013591508082111561262857600080fd5b5061263588828901612528565b9150509295509295909350565b60008060006060848603121561265757600080fd5b8335925061266760208501612221565b91506122c360408501612221565b600080600080600060a0868803121561268d57600080fd5b61269686612221565b94506126a460208701612221565b93506040860135925060608601359150608086013567ffffffffffffffff8111156126ce57600080fd5b61263588828901612528565b634e487b7160e01b600052603260045260246000fd5b634e487b7160e01b600052601160045260246000fd5b600060018201612718576127186126f0565b5060010190565b818103818111156108d5576108d56126f0565b600181815b8085111561276d578160001904821115612753576127536126f0565b8085161561276057918102915b93841c9390800290612737565b509250929050565b600082612784575060016108d5565b81612791575060006108d5565b81600181146127a757600281146127b1576127cd565b60019150506108d5565b60ff8411156127c2576127c26126f0565b50506001821b6108d5565b5060208310610133831016604e8410600b84101617156127f0575081810a6108d5565b6127fa8383612732565b806000190482111561280e5761280e6126f0565b029392505050565b60006116078383612775565b80820281158282048414176108d5576108d56126f0565b60006020828403121561284b57600080fd5b5051919050565b60008261286f57634e487b7160e01b600052601260045260246000fd5b500490565b60006020828403121561288657600080fd5b8151611607816122f8565b808201808211156108d5576108d56126f0565b60006101008083016001600160a01b03808d16855260208c818701528b60408701528a6060870152836080870152829350895180845261012087019450818b01935060005b818110156129075784518416865294820194938201936001016128e9565b505050505060a0830186905260c083018590526001600160a01b03841660e0840152905061251b56fea264697066735822122037ae71c67cb1e1c4331417e87a6a6236bcd8363ad0754960310ca9a15cf32fdb64736f6c63430008110033",
  "linkReferences": {},
  "deployedLinkReferences": {}
}