{
  "_format": "hh-sol-artifact-1",
  "contractName": "ClockSale",
  "sourceName": "contracts/ClockSale.sol",
  "abi": [
    {
      "inputs": [
        {
          "internalType": "address",
          "name": "_feeReceiver",
          "type": "address"
        },
        {
          "internalType": "uint256",
          "name": "_ownerCut",
          "type": "uint256"
        },
        {
          "internalType": "string",
          "name": "_name",
          "type": "string"
        },
        {
          "internalType": "string",
          "name": "_symbol",
          "type": "string"
        }
      ],
      "stateMutability": "nonpayable",
      "type": "constructor"
    },
    {
      "anonymous": false,
      "inputs": [
        {
          "indexed": true,
          "internalType": "address",
          "name": "owner",
          "type": "address"
        },
        {
          "indexed": true,
          "internalType": "address",
          "name": "approved",
          "type": "address"
        },
        {
          "indexed": true,
          "internalType": "uint256",
          "name": "tokenId",
          "type": "uint256"
        }
      ],
      "name": "Approval",
      "type": "event"
    },
    {
      "anonymous": false,
      "inputs": [
        {
          "indexed": true,
          "internalType": "address",
          "name": "owner",
          "type": "address"
        },
        {
          "indexed": true,
          "internalType": "address",
          "name": "operator",
          "type": "address"
        },
        {
          "indexed": false,
          "internalType": "bool",
          "name": "approved",
          "type": "bool"
        }
      ],
      "name": "ApprovalForAll",
      "type": "event"
    },
    {
      "anonymous": false,
      "inputs": [
        {
          "indexed": true,
          "internalType": "uint256",
          "name": "_aucitonId",
          "type": "uint256"
        },
        {
          "indexed": false,
          "internalType": "address",
          "name": "_buyer",
          "type": "address"
        },
        {
          "indexed": false,
          "internalType": "uint256",
          "name": "_cost",
          "type": "uint256"
        },
        {
          "indexed": false,
          "internalType": "uint256",
          "name": "_nftAmount",
          "type": "uint256"
        }
      ],
      "name": "BuySuccessful",
      "type": "event"
    },
    {
      "anonymous": false,
      "inputs": [
        {
          "indexed": true,
          "internalType": "address",
          "name": "previousOwner",
          "type": "address"
        },
        {
          "indexed": true,
          "internalType": "address",
          "name": "newOwner",
          "type": "address"
        }
      ],
      "name": "OwnershipTransferred",
      "type": "event"
    },
    {
      "anonymous": false,
      "inputs": [
        {
          "indexed": false,
          "internalType": "address",
          "name": "account",
          "type": "address"
        }
      ],
      "name": "Paused",
      "type": "event"
    },
    {
      "anonymous": false,
      "inputs": [
        {
          "indexed": true,
          "internalType": "uint256",
          "name": "_auctionId",
          "type": "uint256"
        }
      ],
      "name": "SaleCancelled",
      "type": "event"
    },
    {
      "anonymous": false,
      "inputs": [
        {
          "indexed": true,
          "internalType": "uint256",
          "name": "_auctionId",
          "type": "uint256"
        },
        {
          "indexed": false,
          "internalType": "uint256",
          "name": "_amount",
          "type": "uint256"
        },
        {
          "indexed": false,
          "internalType": "uint256",
          "name": "_price",
          "type": "uint256"
        },
        {
          "indexed": false,
          "internalType": "uint256",
          "name": "_duration",
          "type": "uint256"
        },
        {
          "indexed": false,
          "internalType": "address",
          "name": "_seller",
          "type": "address"
        }
      ],
      "name": "SaleCreated",
      "type": "event"
    },
    {
      "anonymous": false,
      "inputs": [
        {
          "indexed": true,
          "internalType": "uint256",
          "name": "_aucitonId",
          "type": "uint256"
        }
      ],
      "name": "SaleSuccessful",
      "type": "event"
    },
    {
      "anonymous": false,
      "inputs": [
        {
          "indexed": true,
          "internalType": "address",
          "name": "from",
          "type": "address"
        },
        {
          "indexed": true,
          "internalType": "address",
          "name": "to",
          "type": "address"
        },
        {
          "indexed": true,
          "internalType": "uint256",
          "name": "tokenId",
          "type": "uint256"
        }
      ],
      "name": "Transfer",
      "type": "event"
    },
    {
      "anonymous": false,
      "inputs": [
        {
          "indexed": false,
          "internalType": "address",
          "name": "account",
          "type": "address"
        }
      ],
      "name": "Unpaused",
      "type": "event"
    },
    {
      "inputs": [
        {
          "internalType": "address",
          "name": "to",
          "type": "address"
        },
        {
          "internalType": "uint256",
          "name": "tokenId",
          "type": "uint256"
        }
      ],
      "name": "approve",
      "outputs": [],
      "stateMutability": "nonpayable",
      "type": "function"
    },
    {
      "inputs": [
        {
          "internalType": "uint256",
          "name": "",
          "type": "uint256"
        }
      ],
      "name": "auctions",
      "outputs": [
        {
          "internalType": "address",
          "name": "seller",
          "type": "address"
        },
        {
          "internalType": "address",
          "name": "nft",
          "type": "address"
        },
        {
          "internalType": "uint256",
          "name": "nftId",
          "type": "uint256"
        },
        {
          "internalType": "uint256",
          "name": "amount",
          "type": "uint256"
        },
        {
          "internalType": "uint256",
          "name": "price",
          "type": "uint256"
        },
        {
          "internalType": "uint256",
          "name": "duration",
          "type": "uint256"
        },
        {
          "internalType": "uint256",
          "name": "startedAt",
          "type": "uint256"
        }
      ],
      "stateMutability": "view",
      "type": "function"
    },
    {
      "inputs": [
        {
          "internalType": "address",
          "name": "owner",
          "type": "address"
        }
      ],
      "name": "balanceOf",
      "outputs": [
        {
          "internalType": "uint256",
          "name": "",
          "type": "uint256"
        }
      ],
      "stateMutability": "view",
      "type": "function"
    },
    {
      "inputs": [
        {
          "internalType": "uint256",
          "name": "_tokenId",
          "type": "uint256"
        },
        {
          "internalType": "uint256",
          "name": "amount",
          "type": "uint256"
        }
      ],
      "name": "buy",
      "outputs": [],
      "stateMutability": "payable",
      "type": "function"
    },
    {
      "inputs": [
        {
          "internalType": "uint256",
          "name": "_tokenId",
          "type": "uint256"
        }
      ],
      "name": "cancelSale",
      "outputs": [],
      "stateMutability": "nonpayable",
      "type": "function"
    },
    {
      "inputs": [
        {
          "internalType": "address",
          "name": "_nftAddress",
          "type": "address"
        },
        {
          "internalType": "uint256",
          "name": "_tokenId",
          "type": "uint256"
        },
        {
          "internalType": "uint256",
          "name": "_price",
          "type": "uint256"
        },
        {
          "internalType": "uint256",
          "name": "_amount",
          "type": "uint256"
        },
        {
          "internalType": "uint256",
          "name": "_duration",
          "type": "uint256"
        }
      ],
      "name": "createSale",
      "outputs": [],
      "stateMutability": "nonpayable",
      "type": "function"
    },
    {
      "inputs": [],
      "name": "feeReceiver",
      "outputs": [
        {
          "internalType": "address",
          "name": "",
          "type": "address"
        }
      ],
      "stateMutability": "view",
      "type": "function"
    },
    {
      "inputs": [],
      "name": "genesisBlock",
      "outputs": [
        {
          "internalType": "uint256",
          "name": "",
          "type": "uint256"
        }
      ],
      "stateMutability": "view",
      "type": "function"
    },
    {
      "inputs": [
        {
          "internalType": "uint256",
          "name": "tokenId",
          "type": "uint256"
        }
      ],
      "name": "getApproved",
      "outputs": [
        {
          "internalType": "address",
          "name": "",
          "type": "address"
        }
      ],
      "stateMutability": "view",
      "type": "function"
    },
    {
      "inputs": [
        {
          "internalType": "uint256",
          "name": "_tokenId",
          "type": "uint256"
        }
      ],
      "name": "getCurrentPrice",
      "outputs": [
        {
          "internalType": "uint256",
          "name": "",
          "type": "uint256"
        }
      ],
      "stateMutability": "view",
      "type": "function"
    },
    {
      "inputs": [
        {
          "internalType": "uint256[]",
          "name": "_tokenIds",
          "type": "uint256[]"
        }
      ],
      "name": "getSales",
      "outputs": [
        {
          "components": [
            {
              "internalType": "address",
              "name": "seller",
              "type": "address"
            },
            {
              "internalType": "address",
              "name": "nft",
              "type": "address"
            },
            {
              "internalType": "uint256",
              "name": "nftId",
              "type": "uint256"
            },
            {
              "internalType": "uint256",
              "name": "amount",
              "type": "uint256"
            },
            {
              "internalType": "uint256",
              "name": "price",
              "type": "uint256"
            },
            {
              "internalType": "uint256",
              "name": "duration",
              "type": "uint256"
            },
            {
              "internalType": "uint256",
              "name": "startedAt",
              "type": "uint256"
            }
          ],
          "internalType": "struct ClockSale.Sale[]",
          "name": "",
          "type": "tuple[]"
        }
      ],
      "stateMutability": "view",
      "type": "function"
    },
    {
      "inputs": [
        {
          "internalType": "address",
          "name": "",
          "type": "address"
        }
      ],
      "name": "isAllowed",
      "outputs": [
        {
          "internalType": "bool",
          "name": "",
          "type": "bool"
        }
      ],
      "stateMutability": "view",
      "type": "function"
    },
    {
      "inputs": [
        {
          "internalType": "address",
          "name": "owner",
          "type": "address"
        },
        {
          "internalType": "address",
          "name": "operator",
          "type": "address"
        }
      ],
      "name": "isApprovedForAll",
      "outputs": [
        {
          "internalType": "bool",
          "name": "",
          "type": "bool"
        }
      ],
      "stateMutability": "view",
      "type": "function"
    },
    {
      "inputs": [],
      "name": "name",
      "outputs": [
        {
          "internalType": "string",
          "name": "",
          "type": "string"
        }
      ],
      "stateMutability": "view",
      "type": "function"
    },
    {
      "inputs": [
        {
          "internalType": "address",
          "name": "",
          "type": "address"
        },
        {
          "internalType": "address",
          "name": "",
          "type": "address"
        },
        {
          "internalType": "uint256[]",
          "name": "",
          "type": "uint256[]"
        },
        {
          "internalType": "uint256[]",
          "name": "",
          "type": "uint256[]"
        },
        {
          "internalType": "bytes",
          "name": "",
          "type": "bytes"
        }
      ],
      "name": "onERC1155BatchReceived",
      "outputs": [
        {
          "internalType": "bytes4",
          "name": "",
          "type": "bytes4"
        }
      ],
      "stateMutability": "nonpayable",
      "type": "function"
    },
    {
      "inputs": [
        {
          "internalType": "address",
          "name": "",
          "type": "address"
        },
        {
          "internalType": "address",
          "name": "",
          "type": "address"
        },
        {
          "internalType": "uint256",
          "name": "",
          "type": "uint256"
        },
        {
          "internalType": "uint256",
          "name": "",
          "type": "uint256"
        },
        {
          "internalType": "bytes",
          "name": "",
          "type": "bytes"
        }
      ],
      "name": "onERC1155Received",
      "outputs": [
        {
          "internalType": "bytes4",
          "name": "",
          "type": "bytes4"
        }
      ],
      "stateMutability": "nonpayable",
      "type": "function"
    },
    {
      "inputs": [],
      "name": "owner",
      "outputs": [
        {
          "internalType": "address",
          "name": "",
          "type": "address"
        }
      ],
      "stateMutability": "view",
      "type": "function"
    },
    {
      "inputs": [],
      "name": "ownerCut",
      "outputs": [
        {
          "internalType": "uint256",
          "name": "",
          "type": "uint256"
        }
      ],
      "stateMutability": "view",
      "type": "function"
    },
    {
      "inputs": [
        {
          "internalType": "uint256",
          "name": "tokenId",
          "type": "uint256"
        }
      ],
      "name": "ownerOf",
      "outputs": [
        {
          "internalType": "address",
          "name": "",
          "type": "address"
        }
      ],
      "stateMutability": "view",
      "type": "function"
    },
    {
      "inputs": [],
      "name": "paused",
      "outputs": [
        {
          "internalType": "bool",
          "name": "",
          "type": "bool"
        }
      ],
      "stateMutability": "view",
      "type": "function"
    },
    {
      "inputs": [],
      "name": "renounceOwnership",
      "outputs": [],
      "stateMutability": "nonpayable",
      "type": "function"
    },
    {
      "inputs": [],
      "name": "restartTrading",
      "outputs": [],
      "stateMutability": "nonpayable",
      "type": "function"
    },
    {
      "inputs": [
        {
          "internalType": "address",
          "name": "from",
          "type": "address"
        },
        {
          "internalType": "address",
          "name": "to",
          "type": "address"
        },
        {
          "internalType": "uint256",
          "name": "tokenId",
          "type": "uint256"
        }
      ],
      "name": "safeTransferFrom",
      "outputs": [],
      "stateMutability": "nonpayable",
      "type": "function"
    },
    {
      "inputs": [
        {
          "internalType": "address",
          "name": "from",
          "type": "address"
        },
        {
          "internalType": "address",
          "name": "to",
          "type": "address"
        },
        {
          "internalType": "uint256",
          "name": "tokenId",
          "type": "uint256"
        },
        {
          "internalType": "bytes",
          "name": "_data",
          "type": "bytes"
        }
      ],
      "name": "safeTransferFrom",
      "outputs": [],
      "stateMutability": "nonpayable",
      "type": "function"
    },
    {
      "inputs": [
        {
          "internalType": "address",
          "name": "operator",
          "type": "address"
        },
        {
          "internalType": "bool",
          "name": "approved",
          "type": "bool"
        }
      ],
      "name": "setApprovalForAll",
      "outputs": [],
      "stateMutability": "nonpayable",
      "type": "function"
    },
    {
      "inputs": [
        {
          "internalType": "address",
          "name": "nftAddress",
          "type": "address"
        },
        {
          "internalType": "bool",
          "name": "allow",
          "type": "bool"
        }
      ],
      "name": "setNftAllowed",
      "outputs": [],
      "stateMutability": "nonpayable",
      "type": "function"
    },
    {
      "inputs": [],
      "name": "stopTrading",
      "outputs": [],
      "stateMutability": "nonpayable",
      "type": "function"
    },
    {
      "inputs": [
        {
          "internalType": "bytes4",
          "name": "interfaceId",
          "type": "bytes4"
        }
      ],
      "name": "supportsInterface",
      "outputs": [
        {
          "internalType": "bool",
          "name": "",
          "type": "bool"
        }
      ],
      "stateMutability": "view",
      "type": "function"
    },
    {
      "inputs": [],
      "name": "symbol",
      "outputs": [
        {
          "internalType": "string",
          "name": "",
          "type": "string"
        }
      ],
      "stateMutability": "view",
      "type": "function"
    },
    {
      "inputs": [
        {
          "internalType": "uint256",
          "name": "tokenId",
          "type": "uint256"
        }
      ],
      "name": "tokenURI",
      "outputs": [
        {
          "internalType": "string",
          "name": "",
          "type": "string"
        }
      ],
      "stateMutability": "view",
      "type": "function"
    },
    {
      "inputs": [
        {
          "internalType": "address",
          "name": "from",
          "type": "address"
        },
        {
          "internalType": "address",
          "name": "to",
          "type": "address"
        },
        {
          "internalType": "uint256",
          "name": "tokenId",
          "type": "uint256"
        }
      ],
      "name": "transferFrom",
      "outputs": [],
      "stateMutability": "nonpayable",
      "type": "function"
    },
    {
      "inputs": [
        {
          "internalType": "address",
          "name": "newOwner",
          "type": "address"
        }
      ],
      "name": "transferOwnership",
      "outputs": [],
      "stateMutability": "nonpayable",
      "type": "function"
    },
    {
      "stateMutability": "payable",
      "type": "receive"
    }
  ],
  "bytecode": "0x60806040523480156200001157600080fd5b5060405162005151380380620051518339818101604052810190620000379190620004cc565b8181816000908051906020019062000051929190620001df565b5080600190805190602001906200006a929190620001df565b5050506200008d620000816200011160201b60201c565b6200011960201b60201c565b6000600660146101000a81548160ff021916908315150217905550612710831115620000b857600080fd5b8260098190555083600860006101000a81548173ffffffffffffffffffffffffffffffffffffffff021916908373ffffffffffffffffffffffffffffffffffffffff16021790555043600a8190555050505050620005e1565b600033905090565b6000600660009054906101000a900473ffffffffffffffffffffffffffffffffffffffff16905081600660006101000a81548173ffffffffffffffffffffffffffffffffffffffff021916908373ffffffffffffffffffffffffffffffffffffffff1602179055508173ffffffffffffffffffffffffffffffffffffffff168173ffffffffffffffffffffffffffffffffffffffff167f8be0079c531659141344cd1fd0a4f28419497f9722a3daafe3b4186f6b6457e060405160405180910390a35050565b828054620001ed90620005ab565b90600052602060002090601f0160209004810192826200021157600085556200025d565b82601f106200022c57805160ff19168380011785556200025d565b828001600101855582156200025d579182015b828111156200025c5782518255916020019190600101906200023f565b5b5090506200026c919062000270565b5090565b5b808211156200028b57600081600090555060010162000271565b5090565b6000604051905090565b600080fd5b600080fd5b600073ffffffffffffffffffffffffffffffffffffffff82169050919050565b6000620002d082620002a3565b9050919050565b620002e281620002c3565b8114620002ee57600080fd5b50565b6000815190506200030281620002d7565b92915050565b6000819050919050565b6200031d8162000308565b81146200032957600080fd5b50565b6000815190506200033d8162000312565b92915050565b600080fd5b600080fd5b6000601f19601f8301169050919050565b7f4e487b7100000000000000000000000000000000000000000000000000000000600052604160045260246000fd5b62000398826200034d565b810181811067ffffffffffffffff82111715620003ba57620003b96200035e565b5b80604052505050565b6000620003cf6200028f565b9050620003dd82826200038d565b919050565b600067ffffffffffffffff8211156200040057620003ff6200035e565b5b6200040b826200034d565b9050602081019050919050565b60005b83811015620004385780820151818401526020810190506200041b565b8381111562000448576000848401525b50505050565b6000620004656200045f84620003e2565b620003c3565b90508281526020810184848401111562000484576200048362000348565b5b6200049184828562000418565b509392505050565b600082601f830112620004b157620004b062000343565b5b8151620004c38482602086016200044e565b91505092915050565b60008060008060808587031215620004e957620004e862000299565b5b6000620004f987828801620002f1565b94505060206200050c878288016200032c565b935050604085015167ffffffffffffffff81111562000530576200052f6200029e565b5b6200053e8782880162000499565b925050606085015167ffffffffffffffff8111156200056257620005616200029e565b5b620005708782880162000499565b91505092959194509250565b7f4e487b7100000000000000000000000000000000000000000000000000000000600052602260045260246000fd5b60006002820490506001821680620005c457607f821691505b60208210811415620005db57620005da6200057c565b5b50919050565b614b6080620005f16000396000f3fe6080604052600436106101e65760003560e01c806383b5ff8b11610102578063bd94b00511610095578063d6febde811610064578063d6febde814610755578063e985e9c514610771578063f23a6e61146107ae578063f2fde38b146107eb5761022e565b8063bd94b00514610689578063c55d0f56146106b2578063c87b56dd146106ef578063d68a08531461072c5761022e565b8063b3f00674116100d1578063b3f00674146105bb578063b88d4fde146105e6578063babcc5391461060f578063bc197c811461064c5761022e565b806383b5ff8b146105115780638da5cb5b1461053c57806395d89b4114610567578063a22cb465146105925761022e565b806342842e0e1161017a5780636352211e116101495780636352211e1461046957806370a08231146104a6578063715018a6146104e35780637185f163146104fa5761022e565b806342842e0e146103a75780634cdc9c63146103d0578063571a26a0146103fb5780635c975abb1461043e5761022e565b8063095ea7b3116101b6578063095ea7b3146103155780631e1d7bb51461033e57806323b872dd146103675780632cdddc1b146103905761022e565b8062313a681461023357806301ffc9a71461027057806306fdde03146102ad578063081812fc146102d85761022e565b3661022e57600061022c576040517f08c379a000000000000000000000000000000000000000000000000000000000815260040161022390612fdb565b60405180910390fd5b005b600080fd5b34801561023f57600080fd5b5061025a6004803603810190610255919061319e565b610814565b6040516102679190613374565b60405180910390f35b34801561027c57600080fd5b50610297600480360381019061029291906133ee565b6109cc565b6040516102a49190613436565b60405180910390f35b3480156102b957600080fd5b506102c26109de565b6040516102cf91906134c8565b60405180910390f35b3480156102e457600080fd5b506102ff60048036038101906102fa91906134ea565b610a70565b60405161030c9190613526565b60405180910390f35b34801561032157600080fd5b5061033c6004803603810190610337919061356d565b610af5565b005b34801561034a57600080fd5b50610365600480360381019061036091906135d9565b610c0d565b005b34801561037357600080fd5b5061038e60048036038101906103899190613619565b610ce4565b005b34801561039c57600080fd5b506103a5610d44565b005b3480156103b357600080fd5b506103ce60048036038101906103c99190613619565b610e11565b005b3480156103dc57600080fd5b506103e5610e31565b6040516103f2919061367b565b60405180910390f35b34801561040757600080fd5b50610422600480360381019061041d91906134ea565b610e37565b6040516104359796959493929190613696565b60405180910390f35b34801561044a57600080fd5b50610453610eb9565b6040516104609190613436565b60405180910390f35b34801561047557600080fd5b50610490600480360381019061048b91906134ea565b610ed0565b60405161049d9190613526565b60405180910390f35b3480156104b257600080fd5b506104cd60048036038101906104c89190613705565b610f82565b6040516104da919061367b565b60405180910390f35b3480156104ef57600080fd5b506104f861103a565b005b34801561050657600080fd5b5061050f6110c2565b005b34801561051d57600080fd5b50610526611190565b604051610533919061367b565b60405180910390f35b34801561054857600080fd5b50610551611196565b60405161055e9190613526565b60405180910390f35b34801561057357600080fd5b5061057c6111c0565b60405161058991906134c8565b60405180910390f35b34801561059e57600080fd5b506105b960048036038101906105b491906135d9565b611252565b005b3480156105c757600080fd5b506105d0611268565b6040516105dd9190613526565b60405180910390f35b3480156105f257600080fd5b5061060d600480360381019061060891906137e7565b61128e565b005b34801561061b57600080fd5b5061063660048036038101906106319190613705565b6112f0565b6040516106439190613436565b60405180910390f35b34801561065857600080fd5b50610673600480360381019061066e919061386a565b611310565b6040516106809190613948565b60405180910390f35b34801561069557600080fd5b506106b060048036038101906106ab91906134ea565b611325565b005b3480156106be57600080fd5b506106d960048036038101906106d491906134ea565b6113a2565b6040516106e6919061367b565b60405180910390f35b3480156106fb57600080fd5b50610716600480360381019061071191906134ea565b6113d9565b60405161072391906134c8565b60405180910390f35b34801561073857600080fd5b50610753600480360381019061074e9190613963565b611480565b005b61076f600480360381019061076a91906139de565b61162b565b005b34801561077d57600080fd5b5061079860048036038101906107939190613a1e565b611872565b6040516107a59190613436565b60405180910390f35b3480156107ba57600080fd5b506107d560048036038101906107d09190613a5e565b611906565b6040516107e29190613948565b60405180910390f35b3480156107f757600080fd5b50610812600480360381019061080d9190613705565b61191b565b005b60606000825167ffffffffffffffff81111561083357610832613025565b5b60405190808252806020026020018201604052801561086c57816020015b610859612f15565b8152602001906001900390816108515790505b50905060005b83518110156109c257600b600085838151811061089257610891613af5565b5b602002602001015181526020019081526020016000206040518060e00160405290816000820160009054906101000a900473ffffffffffffffffffffffffffffffffffffffff1673ffffffffffffffffffffffffffffffffffffffff1673ffffffffffffffffffffffffffffffffffffffff1681526020016001820160009054906101000a900473ffffffffffffffffffffffffffffffffffffffff1673ffffffffffffffffffffffffffffffffffffffff1673ffffffffffffffffffffffffffffffffffffffff168152602001600282015481526020016003820154815260200160048201548152602001600582015481526020016006820154815250508282815181106109a4576109a3613af5565b5b602002602001018190525080806109ba90613b53565b915050610872565b5080915050919050565b60006109d782611a13565b9050919050565b6060600080546109ed90613bcb565b80601f0160208091040260200160405190810160405280929190818152602001828054610a1990613bcb565b8015610a665780601f10610a3b57610100808354040283529160200191610a66565b820191906000526020600020905b815481529060010190602001808311610a4957829003601f168201915b5050505050905090565b6000610a7b82611a8d565b610aba576040517f08c379a0000000000000000000000000000000000000000000000000000000008152600401610ab190613c6f565b60405180910390fd5b6004600083815260200190815260200160002060009054906101000a900473ffffffffffffffffffffffffffffffffffffffff169050919050565b6000610b0082610ed0565b90508073ffffffffffffffffffffffffffffffffffffffff168373ffffffffffffffffffffffffffffffffffffffff161415610b71576040517f08c379a0000000000000000000000000000000000000000000000000000000008152600401610b6890613d01565b60405180910390fd5b8073ffffffffffffffffffffffffffffffffffffffff16610b90611af9565b73ffffffffffffffffffffffffffffffffffffffff161480610bbf5750610bbe81610bb9611af9565b611872565b5b610bfe576040517f08c379a0000000000000000000000000000000000000000000000000000000008152600401610bf590613d93565b60405180910390fd5b610c088383611b01565b505050565b610c15611af9565b73ffffffffffffffffffffffffffffffffffffffff16610c33611196565b73ffffffffffffffffffffffffffffffffffffffff1614610c89576040517f08c379a0000000000000000000000000000000000000000000000000000000008152600401610c8090613dff565b60405180910390fd5b80600c60008473ffffffffffffffffffffffffffffffffffffffff1673ffffffffffffffffffffffffffffffffffffffff16815260200190815260200160002060006101000a81548160ff0219169083151502179055505050565b610cf5610cef611af9565b82611bba565b610d34576040517f08c379a0000000000000000000000000000000000000000000000000000000008152600401610d2b90613e91565b60405180910390fd5b610d3f838383611c98565b505050565b610d4c611af9565b73ffffffffffffffffffffffffffffffffffffffff16610d6a611196565b73ffffffffffffffffffffffffffffffffffffffff1614610dc0576040517f08c379a0000000000000000000000000000000000000000000000000000000008152600401610db790613dff565b60405180910390fd5b610dc8610eb9565b610e07576040517f08c379a0000000000000000000000000000000000000000000000000000000008152600401610dfe90613efd565b60405180910390fd5b610e0f611ef4565b565b610e2c8383836040518060200160405280600081525061128e565b505050565b600a5481565b600b6020528060005260406000206000915090508060000160009054906101000a900473ffffffffffffffffffffffffffffffffffffffff16908060010160009054906101000a900473ffffffffffffffffffffffffffffffffffffffff16908060020154908060030154908060040154908060050154908060060154905087565b6000600660149054906101000a900460ff16905090565b6000806002600084815260200190815260200160002060009054906101000a900473ffffffffffffffffffffffffffffffffffffffff169050600073ffffffffffffffffffffffffffffffffffffffff168173ffffffffffffffffffffffffffffffffffffffff161415610f79576040517f08c379a0000000000000000000000000000000000000000000000000000000008152600401610f7090613f8f565b60405180910390fd5b80915050919050565b60008073ffffffffffffffffffffffffffffffffffffffff168273ffffffffffffffffffffffffffffffffffffffff161415610ff3576040517f08c379a0000000000000000000000000000000000000000000000000000000008152600401610fea90614021565b60405180910390fd5b600360008373ffffffffffffffffffffffffffffffffffffffff1673ffffffffffffffffffffffffffffffffffffffff168152602001908152602001600020549050919050565b611042611af9565b73ffffffffffffffffffffffffffffffffffffffff16611060611196565b73ffffffffffffffffffffffffffffffffffffffff16146110b6576040517f08c379a00000000000000000000000000000000000000000000000000000000081526004016110ad90613dff565b60405180910390fd5b6110c06000611f96565b565b6110ca611af9565b73ffffffffffffffffffffffffffffffffffffffff166110e8611196565b73ffffffffffffffffffffffffffffffffffffffff161461113e576040517f08c379a000000000000000000000000000000000000000000000000000000000815260040161113590613dff565b60405180910390fd5b611146610eb9565b15611186576040517f08c379a000000000000000000000000000000000000000000000000000000000815260040161117d9061408d565b60405180910390fd5b61118e61205c565b565b60095481565b6000600660009054906101000a900473ffffffffffffffffffffffffffffffffffffffff16905090565b6060600180546111cf90613bcb565b80601f01602080910402602001604051908101604052809291908181526020018280546111fb90613bcb565b80156112485780601f1061121d57610100808354040283529160200191611248565b820191906000526020600020905b81548152906001019060200180831161122b57829003601f168201915b5050505050905090565b61126461125d611af9565b83836120ff565b5050565b600860009054906101000a900473ffffffffffffffffffffffffffffffffffffffff1681565b61129f611299611af9565b83611bba565b6112de576040517f08c379a00000000000000000000000000000000000000000000000000000000081526004016112d590613e91565b60405180910390fd5b6112ea8484848461226c565b50505050565b600c6020528060005260406000206000915054906101000a900460ff1681565b600063bc197c8160e01b905095945050505050565b6000600b60008381526020019081526020016000209050611345816122c8565b61134e57600080fd5b611356611af9565b73ffffffffffffffffffffffffffffffffffffffff1661137583610ed0565b73ffffffffffffffffffffffffffffffffffffffff161461139557600080fd5b61139e826122d8565b5050565b600080600b600084815260200190815260200160002090506113c3816122c8565b6113cc57600080fd5b8060040154915050919050565b60606113e482611a8d565b611423576040517f08c379a000000000000000000000000000000000000000000000000000000000815260040161141a9061411f565b60405180910390fd5b600061142d61235c565b9050600081511161144d5760405180602001604052806000815250611478565b8061145784612373565b60405160200161146892919061417b565b6040516020818303038152906040525b915050919050565b611488610eb9565b156114c8576040517f08c379a00000000000000000000000000000000000000000000000000000000081526004016114bf9061408d565b60405180910390fd5b600c60008673ffffffffffffffffffffffffffffffffffffffff1673ffffffffffffffffffffffffffffffffffffffff16815260200190815260200160002060009054906101000a900460ff16611554576040517f08c379a000000000000000000000000000000000000000000000000000000000815260040161154b906141eb565b60405180910390fd5b600061155e611af9565b905061156b8682876124d4565b6115aa576040517f08c379a00000000000000000000000000000000000000000000000000000000081526004016115a190614257565b60405180910390fd5b6115b68682878661256a565b60006040518060e001604052808373ffffffffffffffffffffffffffffffffffffffff1681526020018873ffffffffffffffffffffffffffffffffffffffff168152602001878152602001858152602001868152602001848152602001428152509050611622816125ef565b50505050505050565b611633610eb9565b15611673576040517f08c379a000000000000000000000000000000000000000000000000000000000815260040161166a9061408d565b60405180910390fd5b6000600b60008481526020019081526020016000209050600082826004015461169c9190614277565b905060006116a8611af9565b9050838360030160008282546116be91906142d1565b925050819055506000836003015414156116dc576116db85612750565b5b8134101561171f576040517f08c379a000000000000000000000000000000000000000000000000000000000815260040161171690614351565b60405180910390fd5b6000612710600954846117329190614277565b61173c91906143a0565b90506000818461174c91906142d1565b90508460000160009054906101000a900473ffffffffffffffffffffffffffffffffffffffff1673ffffffffffffffffffffffffffffffffffffffff166108fc829081150290604051600060405180830381858888f193505050501580156117b8573d6000803e3d6000fd5b50600860009054906101000a900473ffffffffffffffffffffffffffffffffffffffff1673ffffffffffffffffffffffffffffffffffffffff166108fc839081150290604051600060405180830381858888f19350505050158015611821573d6000803e3d6000fd5b5061182d8787856127a1565b867fc7b4f90ffab7fe488d634eb4ed7859d80a80c85accd722aaefeb056e5078d887848689604051611861939291906143d1565b60405180910390a250505050505050565b6000600560008473ffffffffffffffffffffffffffffffffffffffff1673ffffffffffffffffffffffffffffffffffffffff16815260200190815260200160002060008373ffffffffffffffffffffffffffffffffffffffff1673ffffffffffffffffffffffffffffffffffffffff16815260200190815260200160002060009054906101000a900460ff16905092915050565b600063f23a6e6160e01b905095945050505050565b611923611af9565b73ffffffffffffffffffffffffffffffffffffffff16611941611196565b73ffffffffffffffffffffffffffffffffffffffff1614611997576040517f08c379a000000000000000000000000000000000000000000000000000000000815260040161198e90613dff565b60405180910390fd5b600073ffffffffffffffffffffffffffffffffffffffff168173ffffffffffffffffffffffffffffffffffffffff161415611a07576040517f08c379a00000000000000000000000000000000000000000000000000000000081526004016119fe9061447a565b60405180910390fd5b611a1081611f96565b50565b60007f4e2312e0000000000000000000000000000000000000000000000000000000007bffffffffffffffffffffffffffffffffffffffffffffffffffffffff1916827bffffffffffffffffffffffffffffffffffffffffffffffffffffffff19161480611a865750611a8582612865565b5b9050919050565b60008073ffffffffffffffffffffffffffffffffffffffff166002600084815260200190815260200160002060009054906101000a900473ffffffffffffffffffffffffffffffffffffffff1673ffffffffffffffffffffffffffffffffffffffff1614159050919050565b600033905090565b816004600083815260200190815260200160002060006101000a81548173ffffffffffffffffffffffffffffffffffffffff021916908373ffffffffffffffffffffffffffffffffffffffff160217905550808273ffffffffffffffffffffffffffffffffffffffff16611b7483610ed0565b73ffffffffffffffffffffffffffffffffffffffff167f8c5be1e5ebec7d5bd14f71427d1e84f3dd0314c0f7b2291e5b200ac8c7c3b92560405160405180910390a45050565b6000611bc582611a8d565b611c04576040517f08c379a0000000000000000000000000000000000000000000000000000000008152600401611bfb9061450c565b60405180910390fd5b6000611c0f83610ed0565b90508073ffffffffffffffffffffffffffffffffffffffff168473ffffffffffffffffffffffffffffffffffffffff161480611c7e57508373ffffffffffffffffffffffffffffffffffffffff16611c6684610a70565b73ffffffffffffffffffffffffffffffffffffffff16145b80611c8f5750611c8e8185611872565b5b91505092915050565b8273ffffffffffffffffffffffffffffffffffffffff16611cb882610ed0565b73ffffffffffffffffffffffffffffffffffffffff1614611d0e576040517f08c379a0000000000000000000000000000000000000000000000000000000008152600401611d059061459e565b60405180910390fd5b600073ffffffffffffffffffffffffffffffffffffffff168273ffffffffffffffffffffffffffffffffffffffff161415611d7e576040517f08c379a0000000000000000000000000000000000000000000000000000000008152600401611d7590614630565b60405180910390fd5b611d89838383612947565b611d94600082611b01565b6001600360008573ffffffffffffffffffffffffffffffffffffffff1673ffffffffffffffffffffffffffffffffffffffff1681526020019081526020016000206000828254611de491906142d1565b925050819055506001600360008473ffffffffffffffffffffffffffffffffffffffff1673ffffffffffffffffffffffffffffffffffffffff1681526020019081526020016000206000828254611e3b9190614650565b92505081905550816002600083815260200190815260200160002060006101000a81548173ffffffffffffffffffffffffffffffffffffffff021916908373ffffffffffffffffffffffffffffffffffffffff160217905550808273ffffffffffffffffffffffffffffffffffffffff168473ffffffffffffffffffffffffffffffffffffffff167fddf252ad1be2c89b69c2b068fc378daa952ba7f163c4a11628f55a4df523b3ef60405160405180910390a4505050565b611efc610eb9565b611f3b576040517f08c379a0000000000000000000000000000000000000000000000000000000008152600401611f3290613efd565b60405180910390fd5b6000600660146101000a81548160ff0219169083151502179055507f5db9ee0a495bf2e6ff9c91a7834c1ba4fdd244a5e8aa4e537bd38aeae4b073aa611f7f611af9565b604051611f8c9190613526565b60405180910390a1565b6000600660009054906101000a900473ffffffffffffffffffffffffffffffffffffffff16905081600660006101000a81548173ffffffffffffffffffffffffffffffffffffffff021916908373ffffffffffffffffffffffffffffffffffffffff1602179055508173ffffffffffffffffffffffffffffffffffffffff168173ffffffffffffffffffffffffffffffffffffffff167f8be0079c531659141344cd1fd0a4f28419497f9722a3daafe3b4186f6b6457e060405160405180910390a35050565b612064610eb9565b156120a4576040517f08c379a000000000000000000000000000000000000000000000000000000000815260040161209b9061408d565b60405180910390fd5b6001600660146101000a81548160ff0219169083151502179055507f62e78cea01bee320cd4e420270b5ea74000d11b0c9f74754ebdbfc544b05a2586120e8611af9565b6040516120f59190613526565b60405180910390a1565b8173ffffffffffffffffffffffffffffffffffffffff168373ffffffffffffffffffffffffffffffffffffffff16141561216e576040517f08c379a0000000000000000000000000000000000000000000000000000000008152600401612165906146f2565b60405180910390fd5b80600560008573ffffffffffffffffffffffffffffffffffffffff1673ffffffffffffffffffffffffffffffffffffffff16815260200190815260200160002060008473ffffffffffffffffffffffffffffffffffffffff1673ffffffffffffffffffffffffffffffffffffffff16815260200190815260200160002060006101000a81548160ff0219169083151502179055508173ffffffffffffffffffffffffffffffffffffffff168373ffffffffffffffffffffffffffffffffffffffff167f17307eab39ab6107e8899845ad3d59bd9653f200f220920489ca2b5937696c318360405161225f9190613436565b60405180910390a3505050565b612277848484611c98565b612283848484846129f2565b6122c2576040517f08c379a00000000000000000000000000000000000000000000000000000000081526004016122b990614784565b60405180910390fd5b50505050565b6000808260060154119050919050565b6000600b600083815260200190815260200160002090506122f882612b7a565b61232b8282600301548360000160009054906101000a900473ffffffffffffffffffffffffffffffffffffffff166127a1565b817f2c56893f6f6026d19bd17b7d05c9f15c522de1ae2b1c3a825f91a73c799321f260405160405180910390a25050565b606060405180602001604052806000815250905090565b606060008214156123bb576040518060400160405280600181526020017f300000000000000000000000000000000000000000000000000000000000000081525090506124cf565b600082905060005b600082146123ed5780806123d690613b53565b915050600a826123e691906143a0565b91506123c3565b60008167ffffffffffffffff81111561240957612408613025565b5b6040519080825280601f01601f19166020018201604052801561243b5781602001600182028036833780820191505090505b5090505b600085146124c85760018261245491906142d1565b9150600a8561246391906147a4565b603061246f9190614650565b60f81b81838151811061248557612484613af5565b5b60200101907effffffffffffffffffffffffffffffffffffffffffffffffffffffffffffff1916908160001a905350600a856124c191906143a0565b945061243f565b8093505050505b919050565b6000806124e085612b86565b905060008173ffffffffffffffffffffffffffffffffffffffff1662fdd58e86866040518363ffffffff1660e01b815260040161251e9291906147d5565b602060405180830381865afa15801561253b573d6000803e3d6000fd5b505050506040513d601f19601f8201168201806040525081019061255f9190614813565b119150509392505050565b600061257585612b86565b90508073ffffffffffffffffffffffffffffffffffffffff1663f242432a853086866040518563ffffffff1660e01b81526004016125b69493929190614877565b600060405180830381600087803b1580156125d057600080fd5b505af11580156125e4573d6000803e3d6000fd5b505050505050505050565b603c8160a00151101561260157600080fd5b600061260d6007612b95565b905081600b600083815260200190815260200160002060008201518160000160006101000a81548173ffffffffffffffffffffffffffffffffffffffff021916908373ffffffffffffffffffffffffffffffffffffffff16021790555060208201518160010160006101000a81548173ffffffffffffffffffffffffffffffffffffffff021916908373ffffffffffffffffffffffffffffffffffffffff16021790555060408201518160020155606082015181600301556080820151816004015560a0820151816005015560c082015181600601559050506126f4826000015182612ba3565b6126fe6007612d71565b807f08418039e2d9aa88c39c529ae5ffa4f43775bfae250e0097d03d5f304654f493836060015184608001518560a00151866000015160405161274494939291906148cf565b60405180910390a25050565b6000600b6000838152602001908152602001600020905061277082612d87565b817fe8722c7fbbc203b6f7b1c8d8b08fe896e23df39ea595609629ab14794bd448ed60405160405180910390a25050565b6000600b6000858152602001908152602001600020905060006127e78260010160009054906101000a900473ffffffffffffffffffffffffffffffffffffffff16612b86565b90508073ffffffffffffffffffffffffffffffffffffffff1663f242432a30858560020154886040518563ffffffff1660e01b815260040161282c9493929190614877565b600060405180830381600087803b15801561284657600080fd5b505af115801561285a573d6000803e3d6000fd5b505050505050505050565b60007f80ac58cd000000000000000000000000000000000000000000000000000000007bffffffffffffffffffffffffffffffffffffffffffffffffffffffff1916827bffffffffffffffffffffffffffffffffffffffffffffffffffffffff1916148061293057507f5b5e139f000000000000000000000000000000000000000000000000000000007bffffffffffffffffffffffffffffffffffffffffffffffffffffffff1916827bffffffffffffffffffffffffffffffffffffffffffffffffffffffff1916145b80612940575061293f82612e98565b5b9050919050565b8273ffffffffffffffffffffffffffffffffffffffff16600073ffffffffffffffffffffffffffffffffffffffff1614806129ae57508173ffffffffffffffffffffffffffffffffffffffff16600073ffffffffffffffffffffffffffffffffffffffff16145b6129ed576040517f08c379a00000000000000000000000000000000000000000000000000000000081526004016129e490614960565b60405180910390fd5b505050565b6000612a138473ffffffffffffffffffffffffffffffffffffffff16612f02565b15612b6d578373ffffffffffffffffffffffffffffffffffffffff1663150b7a02612a3c611af9565b8786866040518563ffffffff1660e01b8152600401612a5e94939291906149c4565b6020604051808303816000875af1925050508015612a9a57506040513d601f19601f82011682018060405250810190612a979190614a25565b60015b612b1d573d8060008114612aca576040519150601f19603f3d011682016040523d82523d6000602084013e612acf565b606091505b50600081511415612b15576040517f08c379a0000000000000000000000000000000000000000000000000000000008152600401612b0c90614784565b60405180910390fd5b805181602001fd5b63150b7a0260e01b7bffffffffffffffffffffffffffffffffffffffffffffffffffffffff1916817bffffffffffffffffffffffffffffffffffffffffffffffffffffffff191614915050612b72565b600190505b949350505050565b612b8381612d87565b50565b60008082905080915050919050565b600081600001549050919050565b600073ffffffffffffffffffffffffffffffffffffffff168273ffffffffffffffffffffffffffffffffffffffff161415612c13576040517f08c379a0000000000000000000000000000000000000000000000000000000008152600401612c0a90614a9e565b60405180910390fd5b612c1c81611a8d565b15612c5c576040517f08c379a0000000000000000000000000000000000000000000000000000000008152600401612c5390614b0a565b60405180910390fd5b612c6860008383612947565b6001600360008473ffffffffffffffffffffffffffffffffffffffff1673ffffffffffffffffffffffffffffffffffffffff1681526020019081526020016000206000828254612cb89190614650565b92505081905550816002600083815260200190815260200160002060006101000a81548173ffffffffffffffffffffffffffffffffffffffff021916908373ffffffffffffffffffffffffffffffffffffffff160217905550808273ffffffffffffffffffffffffffffffffffffffff16600073ffffffffffffffffffffffffffffffffffffffff167fddf252ad1be2c89b69c2b068fc378daa952ba7f163c4a11628f55a4df523b3ef60405160405180910390a45050565b6001816000016000828254019250508190555050565b6000612d9282610ed0565b9050612da081600084612947565b612dab600083611b01565b6001600360008373ffffffffffffffffffffffffffffffffffffffff1673ffffffffffffffffffffffffffffffffffffffff1681526020019081526020016000206000828254612dfb91906142d1565b925050819055506002600083815260200190815260200160002060006101000a81549073ffffffffffffffffffffffffffffffffffffffff021916905581600073ffffffffffffffffffffffffffffffffffffffff168273ffffffffffffffffffffffffffffffffffffffff167fddf252ad1be2c89b69c2b068fc378daa952ba7f163c4a11628f55a4df523b3ef60405160405180910390a45050565b60007f01ffc9a7000000000000000000000000000000000000000000000000000000007bffffffffffffffffffffffffffffffffffffffffffffffffffffffff1916827bffffffffffffffffffffffffffffffffffffffffffffffffffffffff1916149050919050565b600080823b905060008111915050919050565b6040518060e00160405280600073ffffffffffffffffffffffffffffffffffffffff168152602001600073ffffffffffffffffffffffffffffffffffffffff16815260200160008152602001600081526020016000815260200160008152602001600081525090565b600082825260208201905092915050565b7f444f4e545f53454e440000000000000000000000000000000000000000000000600082015250565b6000612fc5600983612f7e565b9150612fd082612f8f565b602082019050919050565b60006020820190508181036000830152612ff481612fb8565b9050919050565b6000604051905090565b600080fd5b600080fd5b600080fd5b6000601f19601f8301169050919050565b7f4e487b7100000000000000000000000000000000000000000000000000000000600052604160045260246000fd5b61305d82613014565b810181811067ffffffffffffffff8211171561307c5761307b613025565b5b80604052505050565b600061308f612ffb565b905061309b8282613054565b919050565b600067ffffffffffffffff8211156130bb576130ba613025565b5b602082029050602081019050919050565b600080fd5b6000819050919050565b6130e4816130d1565b81146130ef57600080fd5b50565b600081359050613101816130db565b92915050565b600061311a613115846130a0565b613085565b9050808382526020820190506020840283018581111561313d5761313c6130cc565b5b835b81811015613166578061315288826130f2565b84526020840193505060208101905061313f565b5050509392505050565b600082601f8301126131855761318461300f565b5b8135613195848260208601613107565b91505092915050565b6000602082840312156131b4576131b3613005565b5b600082013567ffffffffffffffff8111156131d2576131d161300a565b5b6131de84828501613170565b91505092915050565b600081519050919050565b600082825260208201905092915050565b6000819050602082019050919050565b600073ffffffffffffffffffffffffffffffffffffffff82169050919050565b600061323e82613213565b9050919050565b61324e81613233565b82525050565b61325d816130d1565b82525050565b60e0820160008201516132796000850182613245565b50602082015161328c6020850182613245565b50604082015161329f6040850182613254565b5060608201516132b26060850182613254565b5060808201516132c56080850182613254565b5060a08201516132d860a0850182613254565b5060c08201516132eb60c0850182613254565b50505050565b60006132fd8383613263565b60e08301905092915050565b6000602082019050919050565b6000613321826131e7565b61332b81856131f2565b935061333683613203565b8060005b8381101561336757815161334e88826132f1565b975061335983613309565b92505060018101905061333a565b5085935050505092915050565b6000602082019050818103600083015261338e8184613316565b905092915050565b60007fffffffff0000000000000000000000000000000000000000000000000000000082169050919050565b6133cb81613396565b81146133d657600080fd5b50565b6000813590506133e8816133c2565b92915050565b60006020828403121561340457613403613005565b5b6000613412848285016133d9565b91505092915050565b60008115159050919050565b6134308161341b565b82525050565b600060208201905061344b6000830184613427565b92915050565b600081519050919050565b60005b8381101561347a57808201518184015260208101905061345f565b83811115613489576000848401525b50505050565b600061349a82613451565b6134a48185612f7e565b93506134b481856020860161345c565b6134bd81613014565b840191505092915050565b600060208201905081810360008301526134e2818461348f565b905092915050565b600060208284031215613500576134ff613005565b5b600061350e848285016130f2565b91505092915050565b61352081613233565b82525050565b600060208201905061353b6000830184613517565b92915050565b61354a81613233565b811461355557600080fd5b50565b60008135905061356781613541565b92915050565b6000806040838503121561358457613583613005565b5b600061359285828601613558565b92505060206135a3858286016130f2565b9150509250929050565b6135b68161341b565b81146135c157600080fd5b50565b6000813590506135d3816135ad565b92915050565b600080604083850312156135f0576135ef613005565b5b60006135fe85828601613558565b925050602061360f858286016135c4565b9150509250929050565b60008060006060848603121561363257613631613005565b5b600061364086828701613558565b935050602061365186828701613558565b9250506040613662868287016130f2565b9150509250925092565b613675816130d1565b82525050565b6000602082019050613690600083018461366c565b92915050565b600060e0820190506136ab600083018a613517565b6136b86020830189613517565b6136c5604083018861366c565b6136d2606083018761366c565b6136df608083018661366c565b6136ec60a083018561366c565b6136f960c083018461366c565b98975050505050505050565b60006020828403121561371b5761371a613005565b5b600061372984828501613558565b91505092915050565b600080fd5b600067ffffffffffffffff82111561375257613751613025565b5b61375b82613014565b9050602081019050919050565b82818337600083830152505050565b600061378a61378584613737565b613085565b9050828152602081018484840111156137a6576137a5613732565b5b6137b1848285613768565b509392505050565b600082601f8301126137ce576137cd61300f565b5b81356137de848260208601613777565b91505092915050565b6000806000806080858703121561380157613800613005565b5b600061380f87828801613558565b945050602061382087828801613558565b9350506040613831878288016130f2565b925050606085013567ffffffffffffffff8111156138525761385161300a565b5b61385e878288016137b9565b91505092959194509250565b600080600080600060a0868803121561388657613885613005565b5b600061389488828901613558565b95505060206138a588828901613558565b945050604086013567ffffffffffffffff8111156138c6576138c561300a565b5b6138d288828901613170565b935050606086013567ffffffffffffffff8111156138f3576138f261300a565b5b6138ff88828901613170565b925050608086013567ffffffffffffffff8111156139205761391f61300a565b5b61392c888289016137b9565b9150509295509295909350565b61394281613396565b82525050565b600060208201905061395d6000830184613939565b92915050565b600080600080600060a0868803121561397f5761397e613005565b5b600061398d88828901613558565b955050602061399e888289016130f2565b94505060406139af888289016130f2565b93505060606139c0888289016130f2565b92505060806139d1888289016130f2565b9150509295509295909350565b600080604083850312156139f5576139f4613005565b5b6000613a03858286016130f2565b9250506020613a14858286016130f2565b9150509250929050565b60008060408385031215613a3557613a34613005565b5b6000613a4385828601613558565b9250506020613a5485828601613558565b9150509250929050565b600080600080600060a08688031215613a7a57613a79613005565b5b6000613a8888828901613558565b9550506020613a9988828901613558565b9450506040613aaa888289016130f2565b9350506060613abb888289016130f2565b925050608086013567ffffffffffffffff811115613adc57613adb61300a565b5b613ae8888289016137b9565b9150509295509295909350565b7f4e487b7100000000000000000000000000000000000000000000000000000000600052603260045260246000fd5b7f4e487b7100000000000000000000000000000000000000000000000000000000600052601160045260246000fd5b6000613b5e826130d1565b91507fffffffffffffffffffffffffffffffffffffffffffffffffffffffffffffffff821415613b9157613b90613b24565b5b600182019050919050565b7f4e487b7100000000000000000000000000000000000000000000000000000000600052602260045260246000fd5b60006002820490506001821680613be357607f821691505b60208210811415613bf757613bf6613b9c565b5b50919050565b7f4552433732313a20617070726f76656420717565727920666f72206e6f6e657860008201527f697374656e7420746f6b656e0000000000000000000000000000000000000000602082015250565b6000613c59602c83612f7e565b9150613c6482613bfd565b604082019050919050565b60006020820190508181036000830152613c8881613c4c565b9050919050565b7f4552433732313a20617070726f76616c20746f2063757272656e74206f776e6560008201527f7200000000000000000000000000000000000000000000000000000000000000602082015250565b6000613ceb602183612f7e565b9150613cf682613c8f565b604082019050919050565b60006020820190508181036000830152613d1a81613cde565b9050919050565b7f4552433732313a20617070726f76652063616c6c6572206973206e6f74206f7760008201527f6e6572206e6f7220617070726f76656420666f7220616c6c0000000000000000602082015250565b6000613d7d603883612f7e565b9150613d8882613d21565b604082019050919050565b60006020820190508181036000830152613dac81613d70565b9050919050565b7f4f776e61626c653a2063616c6c6572206973206e6f7420746865206f776e6572600082015250565b6000613de9602083612f7e565b9150613df482613db3565b602082019050919050565b60006020820190508181036000830152613e1881613ddc565b9050919050565b7f4552433732313a207472616e736665722063616c6c6572206973206e6f74206f60008201527f776e6572206e6f7220617070726f766564000000000000000000000000000000602082015250565b6000613e7b603183612f7e565b9150613e8682613e1f565b604082019050919050565b60006020820190508181036000830152613eaa81613e6e565b9050919050565b7f5061757361626c653a206e6f7420706175736564000000000000000000000000600082015250565b6000613ee7601483612f7e565b9150613ef282613eb1565b602082019050919050565b60006020820190508181036000830152613f1681613eda565b9050919050565b7f4552433732313a206f776e657220717565727920666f72206e6f6e657869737460008201527f656e7420746f6b656e0000000000000000000000000000000000000000000000602082015250565b6000613f79602983612f7e565b9150613f8482613f1d565b604082019050919050565b60006020820190508181036000830152613fa881613f6c565b9050919050565b7f4552433732313a2062616c616e636520717565727920666f7220746865207a6560008201527f726f206164647265737300000000000000000000000000000000000000000000602082015250565b600061400b602a83612f7e565b915061401682613faf565b604082019050919050565b6000602082019050818103600083015261403a81613ffe565b9050919050565b7f5061757361626c653a2070617573656400000000000000000000000000000000600082015250565b6000614077601083612f7e565b915061408282614041565b602082019050919050565b600060208201905081810360008301526140a68161406a565b9050919050565b7f4552433732314d657461646174613a2055524920717565727920666f72206e6f60008201527f6e6578697374656e7420746f6b656e0000000000000000000000000000000000602082015250565b6000614109602f83612f7e565b9150614114826140ad565b604082019050919050565b60006020820190508181036000830152614138816140fc565b9050919050565b600081905092915050565b600061415582613451565b61415f818561413f565b935061416f81856020860161345c565b80840191505092915050565b6000614187828561414a565b9150614193828461414a565b91508190509392505050565b7f4e6674206e6f7420616c6c6f7765640000000000000000000000000000000000600082015250565b60006141d5600f83612f7e565b91506141e08261419f565b602082019050919050565b60006020820190508181036000830152614204816141c8565b9050919050565b7f5573657220646f65736e2774206f776e73206e66740000000000000000000000600082015250565b6000614241601583612f7e565b915061424c8261420b565b602082019050919050565b6000602082019050818103600083015261427081614234565b9050919050565b6000614282826130d1565b915061428d836130d1565b9250817fffffffffffffffffffffffffffffffffffffffffffffffffffffffffffffffff04831182151516156142c6576142c5613b24565b5b828202905092915050565b60006142dc826130d1565b91506142e7836130d1565b9250828210156142fa576142f9613b24565b5b828203905092915050565b7f4e4f5f454e4f5547485f56414c55450000000000000000000000000000000000600082015250565b600061433b600f83612f7e565b915061434682614305565b602082019050919050565b6000602082019050818103600083015261436a8161432e565b9050919050565b7f4e487b7100000000000000000000000000000000000000000000000000000000600052601260045260246000fd5b60006143ab826130d1565b91506143b6836130d1565b9250826143c6576143c5614371565b5b828204905092915050565b60006060820190506143e66000830186613517565b6143f3602083018561366c565b614400604083018461366c565b949350505050565b7f4f776e61626c653a206e6577206f776e657220697320746865207a65726f206160008201527f6464726573730000000000000000000000000000000000000000000000000000602082015250565b6000614464602683612f7e565b915061446f82614408565b604082019050919050565b6000602082019050818103600083015261449381614457565b9050919050565b7f4552433732313a206f70657261746f7220717565727920666f72206e6f6e657860008201527f697374656e7420746f6b656e0000000000000000000000000000000000000000602082015250565b60006144f6602c83612f7e565b91506145018261449a565b604082019050919050565b60006020820190508181036000830152614525816144e9565b9050919050565b7f4552433732313a207472616e73666572206f6620746f6b656e2074686174206960008201527f73206e6f74206f776e0000000000000000000000000000000000000000000000602082015250565b6000614588602983612f7e565b91506145938261452c565b604082019050919050565b600060208201905081810360008301526145b78161457b565b9050919050565b7f4552433732313a207472616e7366657220746f20746865207a65726f2061646460008201527f7265737300000000000000000000000000000000000000000000000000000000602082015250565b600061461a602483612f7e565b9150614625826145be565b604082019050919050565b600060208201905081810360008301526146498161460d565b9050919050565b600061465b826130d1565b9150614666836130d1565b9250827fffffffffffffffffffffffffffffffffffffffffffffffffffffffffffffffff0382111561469b5761469a613b24565b5b828201905092915050565b7f4552433732313a20617070726f766520746f2063616c6c657200000000000000600082015250565b60006146dc601983612f7e565b91506146e7826146a6565b602082019050919050565b6000602082019050818103600083015261470b816146cf565b9050919050565b7f4552433732313a207472616e7366657220746f206e6f6e20455243373231526560008201527f63656976657220696d706c656d656e7465720000000000000000000000000000602082015250565b600061476e603283612f7e565b915061477982614712565b604082019050919050565b6000602082019050818103600083015261479d81614761565b9050919050565b60006147af826130d1565b91506147ba836130d1565b9250826147ca576147c9614371565b5b828206905092915050565b60006040820190506147ea6000830185613517565b6147f7602083018461366c565b9392505050565b60008151905061480d816130db565b92915050565b60006020828403121561482957614828613005565b5b6000614837848285016147fe565b91505092915050565b600082825260208201905092915050565b50565b6000614861600083614840565b915061486c82614851565b600082019050919050565b600060a08201905061488c6000830187613517565b6148996020830186613517565b6148a6604083018561366c565b6148b3606083018461366c565b81810360808301526148c481614854565b905095945050505050565b60006080820190506148e4600083018761366c565b6148f1602083018661366c565b6148fe604083018561366c565b61490b6060830184613517565b95945050505050565b7f43414e4e4f545f5452414e534645520000000000000000000000000000000000600082015250565b600061494a600f83612f7e565b915061495582614914565b602082019050919050565b600060208201905081810360008301526149798161493d565b9050919050565b600081519050919050565b600061499682614980565b6149a08185614840565b93506149b081856020860161345c565b6149b981613014565b840191505092915050565b60006080820190506149d96000830187613517565b6149e66020830186613517565b6149f3604083018561366c565b8181036060830152614a05818461498b565b905095945050505050565b600081519050614a1f816133c2565b92915050565b600060208284031215614a3b57614a3a613005565b5b6000614a4984828501614a10565b91505092915050565b7f4552433732313a206d696e7420746f20746865207a65726f2061646472657373600082015250565b6000614a88602083612f7e565b9150614a9382614a52565b602082019050919050565b60006020820190508181036000830152614ab781614a7b565b9050919050565b7f4552433732313a20746f6b656e20616c7265616479206d696e74656400000000600082015250565b6000614af4601c83612f7e565b9150614aff82614abe565b602082019050919050565b60006020820190508181036000830152614b2381614ae7565b905091905056fea2646970667358221220e61035ebd1c49b361c64bbc25dbb1a6cab6a3a2bd45c972c51e738b79c45e79564736f6c634300080b0033",
  "linkReferences": {},
  "deployedLinkReferences": {}
}