{
  "_format": "hh-sol-artifact-1",
  "contractName": "ClockSaleMultiTokens",
  "sourceName": "contracts/ClockSaleMultiTokens.sol",
  "abi": [
    {
      "inputs": [
        {
          "internalType": "address",
          "name": "_feeReceiver",
          "type": "address"
        },
        {
          "internalType": "address",
          "name": "_wcurrency",
          "type": "address"
        },
        {
          "internalType": "address",
          "name": "_priceFeedW",
          "type": "address"
        },
        {
          "internalType": "uint256",
          "name": "_ownerCut",
          "type": "uint256"
        }
      ],
      "stateMutability": "nonpayable",
      "type": "constructor"
    },
    {
      "anonymous": false,
      "inputs": [
        {
          "indexed": true,
          "internalType": "uint256",
          "name": "_auctionId",
          "type": "uint256"
        },
        {
          "indexed": false,
          "internalType": "address",
          "name": "_buyer",
          "type": "address"
        },
        {
          "indexed": false,
          "internalType": "uint256",
          "name": "_cost",
          "type": "uint256"
        },
        {
          "indexed": false,
          "internalType": "address",
          "name": "_tokenUsed",
          "type": "address"
        },
        {
          "indexed": false,
          "internalType": "uint256",
          "name": "_nftAmount",
          "type": "uint256"
        }
      ],
      "name": "BuySuccessful",
      "type": "event"
    },
    {
      "anonymous": false,
      "inputs": [
        {
          "indexed": false,
          "internalType": "address",
          "name": "newReceiver",
          "type": "address"
        }
      ],
      "name": "ChangedFeeReceiver",
      "type": "event"
    },
    {
      "anonymous": false,
      "inputs": [
        {
          "indexed": true,
          "internalType": "address",
          "name": "previousOwner",
          "type": "address"
        },
        {
          "indexed": true,
          "internalType": "address",
          "name": "newOwner",
          "type": "address"
        }
      ],
      "name": "OwnershipTransferred",
      "type": "event"
    },
    {
      "anonymous": false,
      "inputs": [
        {
          "indexed": false,
          "internalType": "address",
          "name": "account",
          "type": "address"
        }
      ],
      "name": "Paused",
      "type": "event"
    },
    {
      "anonymous": false,
      "inputs": [
        {
          "indexed": true,
          "internalType": "uint256",
          "name": "_auctionId",
          "type": "uint256"
        }
      ],
      "name": "SaleCancelled",
      "type": "event"
    },
    {
      "anonymous": false,
      "inputs": [
        {
          "indexed": true,
          "internalType": "uint256",
          "name": "_auctionId",
          "type": "uint256"
        },
        {
          "indexed": false,
          "internalType": "address",
          "name": "_nft",
          "type": "address"
        },
        {
          "indexed": false,
          "internalType": "uint256",
          "name": "_nftId",
          "type": "uint256"
        },
        {
          "indexed": false,
          "internalType": "uint256",
          "name": "_amount",
          "type": "uint256"
        },
        {
          "indexed": false,
          "internalType": "uint256",
          "name": "priceUSD",
          "type": "uint256"
        },
        {
          "indexed": false,
          "internalType": "address[]",
          "name": "_tokens",
          "type": "address[]"
        },
        {
          "indexed": false,
          "internalType": "uint256",
          "name": "_duration",
          "type": "uint256"
        },
        {
          "indexed": false,
          "internalType": "uint256",
          "name": "_startedAt",
          "type": "uint256"
        },
        {
          "indexed": false,
          "internalType": "address",
          "name": "_seller",
          "type": "address"
        }
      ],
      "name": "SaleCreated",
      "type": "event"
    },
    {
      "anonymous": false,
      "inputs": [
        {
          "indexed": true,
          "internalType": "uint256",
          "name": "_auctionId",
          "type": "uint256"
        }
      ],
      "name": "SaleSuccessful",
      "type": "event"
    },
    {
      "anonymous": false,
      "inputs": [
        {
          "indexed": false,
          "internalType": "address",
          "name": "account",
          "type": "address"
        }
      ],
      "name": "Unpaused",
      "type": "event"
    },
    {
      "inputs": [
        {
          "internalType": "address",
          "name": "_token",
          "type": "address"
        },
        {
          "internalType": "address",
          "name": "priceFeed",
          "type": "address"
        }
      ],
      "name": "addToken",
      "outputs": [],
      "stateMutability": "nonpayable",
      "type": "function"
    },
    {
      "inputs": [
        {
          "internalType": "uint256",
          "name": "_tokenId",
          "type": "uint256"
        },
        {
          "internalType": "uint256",
          "name": "amount",
          "type": "uint256"
        },
        {
          "internalType": "address",
          "name": "tokenToPay",
          "type": "address"
        }
      ],
      "name": "buy",
      "outputs": [],
      "stateMutability": "payable",
      "type": "function"
    },
    {
      "inputs": [
        {
          "internalType": "uint256",
          "name": "_tokenId",
          "type": "uint256"
        }
      ],
      "name": "cancelSale",
      "outputs": [],
      "stateMutability": "nonpayable",
      "type": "function"
    },
    {
      "inputs": [
        {
          "internalType": "address",
          "name": "_nftAddress",
          "type": "address"
        },
        {
          "internalType": "uint256",
          "name": "_tokenId",
          "type": "uint256"
        },
        {
          "internalType": "uint256",
          "name": "_priceUSD",
          "type": "uint256"
        },
        {
          "internalType": "address[]",
          "name": "_tokens",
          "type": "address[]"
        },
        {
          "internalType": "uint256",
          "name": "_amount",
          "type": "uint256"
        },
        {
          "internalType": "uint256",
          "name": "_duration",
          "type": "uint256"
        }
      ],
      "name": "createSale",
      "outputs": [],
      "stateMutability": "nonpayable",
      "type": "function"
    },
    {
      "inputs": [
        {
          "internalType": "uint256",
          "name": "amount",
          "type": "uint256"
        },
        {
          "internalType": "address",
          "name": "token",
          "type": "address"
        },
        {
          "internalType": "address",
          "name": "recipient",
          "type": "address"
        }
      ],
      "name": "emergencyWithdraw",
      "outputs": [],
      "stateMutability": "nonpayable",
      "type": "function"
    },
    {
      "inputs": [],
      "name": "feeReceiver",
      "outputs": [
        {
          "internalType": "address",
          "name": "",
          "type": "address"
        }
      ],
      "stateMutability": "view",
      "type": "function"
    },
    {
      "inputs": [],
      "name": "genesisBlock",
      "outputs": [
        {
          "internalType": "uint256",
          "name": "",
          "type": "uint256"
        }
      ],
      "stateMutability": "view",
      "type": "function"
    },
    {
      "inputs": [
        {
          "internalType": "uint256",
          "name": "_tokenId",
          "type": "uint256"
        },
        {
          "internalType": "address",
          "name": "tokenToGet",
          "type": "address"
        },
        {
          "internalType": "uint256",
          "name": "quantity",
          "type": "uint256"
        }
      ],
      "name": "getPrice",
      "outputs": [
        {
          "internalType": "uint256",
          "name": "",
          "type": "uint256"
        }
      ],
      "stateMutability": "view",
      "type": "function"
    },
    {
      "inputs": [
        {
          "internalType": "uint256[]",
          "name": "_tokenIds",
          "type": "uint256[]"
        }
      ],
      "name": "getSales",
      "outputs": [
        {
          "components": [
            {
              "internalType": "address",
              "name": "seller",
              "type": "address"
            },
            {
              "internalType": "address",
              "name": "nft",
              "type": "address"
            },
            {
              "internalType": "uint256",
              "name": "nftId",
              "type": "uint256"
            },
            {
              "internalType": "uint256",
              "name": "amount",
              "type": "uint256"
            },
            {
              "internalType": "uint256",
              "name": "priceUSD",
              "type": "uint256"
            },
            {
              "internalType": "address[]",
              "name": "tokens",
              "type": "address[]"
            },
            {
              "internalType": "uint256",
              "name": "duration",
              "type": "uint256"
            },
            {
              "internalType": "uint256",
              "name": "startedAt",
              "type": "uint256"
            },
            {
              "internalType": "enum ClockSaleMultiTokens.SaleStatus",
              "name": "status",
              "type": "uint8"
            }
          ],
          "internalType": "struct ClockSaleMultiTokens.Sale[]",
          "name": "",
          "type": "tuple[]"
        }
      ],
      "stateMutability": "view",
      "type": "function"
    },
    {
      "inputs": [
        {
          "internalType": "address",
          "name": "",
          "type": "address"
        }
      ],
      "name": "isAllowed",
      "outputs": [
        {
          "internalType": "bool",
          "name": "",
          "type": "bool"
        }
      ],
      "stateMutability": "view",
      "type": "function"
    },
    {
      "inputs": [
        {
          "internalType": "uint256",
          "name": "_tokenId",
          "type": "uint256"
        }
      ],
      "name": "isOnSale",
      "outputs": [
        {
          "internalType": "bool",
          "name": "",
          "type": "bool"
        }
      ],
      "stateMutability": "view",
      "type": "function"
    },
    {
      "inputs": [
        {
          "internalType": "address",
          "name": "_token",
          "type": "address"
        }
      ],
      "name": "isTokenAllowed",
      "outputs": [
        {
          "internalType": "bool",
          "name": "",
          "type": "bool"
        }
      ],
      "stateMutability": "view",
      "type": "function"
    },
    {
      "inputs": [
        {
          "internalType": "address",
          "name": "",
          "type": "address"
        },
        {
          "internalType": "address",
          "name": "",
          "type": "address"
        },
        {
          "internalType": "uint256[]",
          "name": "",
          "type": "uint256[]"
        },
        {
          "internalType": "uint256[]",
          "name": "",
          "type": "uint256[]"
        },
        {
          "internalType": "bytes",
          "name": "",
          "type": "bytes"
        }
      ],
      "name": "onERC1155BatchReceived",
      "outputs": [
        {
          "internalType": "bytes4",
          "name": "",
          "type": "bytes4"
        }
      ],
      "stateMutability": "nonpayable",
      "type": "function"
    },
    {
      "inputs": [
        {
          "internalType": "address",
          "name": "",
          "type": "address"
        },
        {
          "internalType": "address",
          "name": "",
          "type": "address"
        },
        {
          "internalType": "uint256",
          "name": "",
          "type": "uint256"
        },
        {
          "internalType": "uint256",
          "name": "",
          "type": "uint256"
        },
        {
          "internalType": "bytes",
          "name": "",
          "type": "bytes"
        }
      ],
      "name": "onERC1155Received",
      "outputs": [
        {
          "internalType": "bytes4",
          "name": "",
          "type": "bytes4"
        }
      ],
      "stateMutability": "nonpayable",
      "type": "function"
    },
    {
      "inputs": [],
      "name": "owner",
      "outputs": [
        {
          "internalType": "address",
          "name": "",
          "type": "address"
        }
      ],
      "stateMutability": "view",
      "type": "function"
    },
    {
      "inputs": [],
      "name": "ownerCut",
      "outputs": [
        {
          "internalType": "uint256",
          "name": "",
          "type": "uint256"
        }
      ],
      "stateMutability": "view",
      "type": "function"
    },
    {
      "inputs": [],
      "name": "paused",
      "outputs": [
        {
          "internalType": "bool",
          "name": "",
          "type": "bool"
        }
      ],
      "stateMutability": "view",
      "type": "function"
    },
    {
      "inputs": [
        {
          "internalType": "address",
          "name": "",
          "type": "address"
        }
      ],
      "name": "priceFeedsByToken",
      "outputs": [
        {
          "internalType": "address",
          "name": "",
          "type": "address"
        }
      ],
      "stateMutability": "view",
      "type": "function"
    },
    {
      "inputs": [],
      "name": "renounceOwnership",
      "outputs": [],
      "stateMutability": "nonpayable",
      "type": "function"
    },
    {
      "inputs": [],
      "name": "restartTrading",
      "outputs": [],
      "stateMutability": "nonpayable",
      "type": "function"
    },
    {
      "inputs": [
        {
          "internalType": "uint256",
          "name": "",
          "type": "uint256"
        }
      ],
      "name": "sales",
      "outputs": [
        {
          "internalType": "address",
          "name": "seller",
          "type": "address"
        },
        {
          "internalType": "address",
          "name": "nft",
          "type": "address"
        },
        {
          "internalType": "uint256",
          "name": "nftId",
          "type": "uint256"
        },
        {
          "internalType": "uint256",
          "name": "amount",
          "type": "uint256"
        },
        {
          "internalType": "uint256",
          "name": "priceUSD",
          "type": "uint256"
        },
        {
          "internalType": "uint256",
          "name": "duration",
          "type": "uint256"
        },
        {
          "internalType": "uint256",
          "name": "startedAt",
          "type": "uint256"
        },
        {
          "internalType": "enum ClockSaleMultiTokens.SaleStatus",
          "name": "status",
          "type": "uint8"
        }
      ],
      "stateMutability": "view",
      "type": "function"
    },
    {
      "inputs": [
        {
          "internalType": "address",
          "name": "_feeReceiver",
          "type": "address"
        }
      ],
      "name": "setFeeReceiver",
      "outputs": [],
      "stateMutability": "nonpayable",
      "type": "function"
    },
    {
      "inputs": [
        {
          "internalType": "address",
          "name": "nftAddress",
          "type": "address"
        },
        {
          "internalType": "bool",
          "name": "allow",
          "type": "bool"
        }
      ],
      "name": "setNftAllowed",
      "outputs": [],
      "stateMutability": "nonpayable",
      "type": "function"
    },
    {
      "inputs": [
        {
          "internalType": "uint256",
          "name": "_ownerCut",
          "type": "uint256"
        }
      ],
      "name": "setOwnerCut",
      "outputs": [],
      "stateMutability": "nonpayable",
      "type": "function"
    },
    {
      "inputs": [],
      "name": "stopTrading",
      "outputs": [],
      "stateMutability": "nonpayable",
      "type": "function"
    },
    {
      "inputs": [
        {
          "internalType": "bytes4",
          "name": "interfaceId",
          "type": "bytes4"
        }
      ],
      "name": "supportsInterface",
      "outputs": [
        {
          "internalType": "bool",
          "name": "",
          "type": "bool"
        }
      ],
      "stateMutability": "view",
      "type": "function"
    },
    {
      "inputs": [],
      "name": "tokenIdTracker",
      "outputs": [
        {
          "internalType": "uint256",
          "name": "_value",
          "type": "uint256"
        }
      ],
      "stateMutability": "view",
      "type": "function"
    },
    {
      "inputs": [
        {
          "internalType": "address",
          "name": "newOwner",
          "type": "address"
        }
      ],
      "name": "transferOwnership",
      "outputs": [],
      "stateMutability": "nonpayable",
      "type": "function"
    },
    {
      "inputs": [],
      "name": "wcurrency",
      "outputs": [
        {
          "internalType": "address",
          "name": "",
          "type": "address"
        }
      ],
      "stateMutability": "view",
      "type": "function"
    },
    {
      "stateMutability": "payable",
      "type": "receive"
    }
  ],
  "bytecode": "0x60806040523480156200001157600080fd5b5060405162002c5b38038062002c5b833981016040819052620000349162000168565b6200003f33620000fb565b6000805460ff60a01b1916905560018055612710811115620000a75760405162461bcd60e51b815260206004820152601360248201527f436c6f636b53616c653a4f574e45525f43555400000000000000000000000000604482015260640160405180910390fd5b600455600380546001600160a01b039485166001600160a01b0319918216179091554360055560098054938516938216841790556000928352600860205260409092208054919093169116179055620001ba565b600080546001600160a01b038381166001600160a01b0319831681178455604051919092169283917f8be0079c531659141344cd1fd0a4f28419497f9722a3daafe3b4186f6b6457e09190a35050565b80516001600160a01b03811681146200016357600080fd5b919050565b600080600080608085870312156200017f57600080fd5b6200018a856200014b565b93506200019a602086016200014b565b9250620001aa604086016200014b565b6060959095015193969295505050565b612a9180620001ca6000396000f3fe6080604052600436106101c55760003560e01c8063757de573116100f7578063bc197c8111610095578063f0f2805f11610064578063f0f2805f14610603578063f23a6e6114610623578063f2fde38b14610668578063f9eaee0d1461068857600080fd5b8063bc197c8114610545578063bd94b005146105a3578063d2cee46f146105c3578063efdcd974146105e357600080fd5b80639a37ec05116100d15780639a37ec0514610452578063b3f0067414610472578063b5f522f714610492578063babcc5391461051557600080fd5b8063757de573146103fe57806383b5ff8b1461041e5780638da5cb5b1461043457600080fd5b80634cdc9c631161016457806359a87bc11161013e57806359a87bc1146103a25780635c975abb146103b5578063715018a6146103d45780637185f163146103e957600080fd5b80634cdc9c631461034c57806350d16d9f146103625780635476bd721461038257600080fd5b806304a455eb116101a057806304a455eb146102a9578063098f3c3c146102f75780631e1d7bb5146103175780632cdddc1b1461033757600080fd5b8062313a681461021e57806301ffc9a71461025457806302bf3d561461028457600080fd5b366102195760405162461bcd60e51b815260206004820152601360248201527f436c6f636b53616c653a444f4e545f53454e440000000000000000000000000060448201526064015b60405180910390fd5b005b600080fd5b34801561022a57600080fd5b5061023e61023936600461224d565b6106a8565b60405161024b9190612306565b60405180910390f35b34801561026057600080fd5b5061027461026f3660046123e8565b610861565b604051901515815260200161024b565b34801561029057600080fd5b5060025461029b9081565b60405190815260200161024b565b3480156102b557600080fd5b506102df6102c436600461242e565b6008602052600090815260409020546001600160a01b031681565b6040516001600160a01b03909116815260200161024b565b34801561030357600080fd5b506009546102df906001600160a01b031681565b34801561032357600080fd5b50610217610332366004612457565b610872565b34801561034357600080fd5b506102176108a5565b34801561035857600080fd5b5061029b60055481565b34801561036e57600080fd5b5061029b61037d36600461248e565b6108bf565b34801561038e57600080fd5b5061021761039d3660046124c3565b6109fb565b6102176103b03660046124f6565b610a31565b3480156103c157600080fd5b50600054600160a01b900460ff16610274565b3480156103e057600080fd5b50610217611245565b3480156103f557600080fd5b50610217611257565b34801561040a57600080fd5b5061021761041936600461252b565b61126f565b34801561042a57600080fd5b5061029b60045481565b34801561044057600080fd5b506000546001600160a01b03166102df565b34801561045e57600080fd5b5061021761046d366004612544565b61127c565b34801561047e57600080fd5b506003546102df906001600160a01b031681565b34801561049e57600080fd5b506105016104ad36600461252b565b6006602081905260009182526040909120805460018201546002830154600384015460048501549585015460078601546008909601546001600160a01b039586169794909516959294919392909160ff1688565b60405161024b989796959493929190612612565b34801561052157600080fd5b5061027461053036600461242e565b60076020526000908152604090205460ff1681565b34801561055157600080fd5b5061058a6105603660046126d9565b7fbc197c810000000000000000000000000000000000000000000000000000000095945050505050565b6040516001600160e01b0319909116815260200161024b565b3480156105af57600080fd5b506102176105be36600461252b565b61147e565b3480156105cf57600080fd5b506102176105de366004612783565b611543565b3480156105ef57600080fd5b506102176105fe36600461242e565b6115fe565b34801561060f57600080fd5b5061027461061e36600461252b565b61165a565b34801561062f57600080fd5b5061058a61063e3660046127b6565b7ff23a6e610000000000000000000000000000000000000000000000000000000095945050505050565b34801561067457600080fd5b5061021761068336600461242e565b611678565b34801561069457600080fd5b506102746106a336600461242e565b611708565b60606000825167ffffffffffffffff8111156106c6576106c6612177565b6040519080825280602002602001820160405280156106ff57816020015b6106ec61208f565b8152602001906001900390816106e45790505b50905060005b835181101561085a57600660008583815181106107245761072461281b565b602090810291909101810151825281810192909252604090810160002081516101208101835281546001600160a01b0390811682526001830154168185015260028201548184015260038201546060820152600482015460808201526005820180548451818702810187019095528085529194929360a08601939092908301828280156107da57602002820191906000526020600020905b81546001600160a01b031681526001909101906020018083116107bc575b50505091835250506006820154602082015260078201546040820152600882015460609091019060ff166002811115610815576108156122ce565b6002811115610826576108266122ce565b8152505082828151811061083c5761083c61281b565b6020026020010181905250808061085290612847565b915050610705565b5092915050565b600061086c8261176b565b92915050565b61087a6117d2565b6001600160a01b03919091166000908152600760205260409020805460ff1916911515919091179055565b6108ad6117d2565b6108b561182c565b6108bd611885565b565b60008381526006602052604081206108d6816118da565b6109225760405162461bcd60e51b815260206004820152601660248201527f436c6f636b53616c653a494e56414c49445f53414c4500000000000000000000604482015260640161020e565b6001600160a01b038085166000908152600860205260408082205481517ffeaf968c0000000000000000000000000000000000000000000000000000000081529151931692839163feaf968c9160048083019260a09291908290030181865afa158015610993573d6000803e3d6000fd5b505050506040513d601f19601f820116820180604052508101906109b7919061287c565b50505091505060008584600401546109cf91906128cc565b90506109e581896109e085836128eb565b61190c565b6109ef82826128eb565b98975050505050505050565b610a036117d2565b6001600160a01b03918216600090815260086020526040902080546001600160a01b03191691909216179055565b610a39611973565b610a416119cd565b600083815260066020526040812090805b6005830154811015610ab857836001600160a01b0316836005018281548110610a7d57610a7d61281b565b6000918252602090912001546001600160a01b03161415610aa657610aa38685876108bf565b91505b80610ab081612847565b915050610a52565b5080610b065760405162461bcd60e51b815260206004820152601b60248201527f436c6f636b53616c653a544f4b454e5f4e4f545f414c4c4f5745440000000000604482015260640161020e565b600033905084836003016000828254610b1f919061290d565b90915550506003830154610b3657610b3686611a27565b6009546001600160a01b0385811691161415610de157610b55836118da565b610ba15760405162461bcd60e51b815260206004820152601760248201527f436c6f636b53616c653a4e4f545f415641494c41424c45000000000000000000604482015260640161020e565b81341015610bf15760405162461bcd60e51b815260206004820152601a60248201527f436c6f636b53616c653a4e4f545f454e4f5547485f56414c5545000000000000604482015260640161020e565b610c306040518060400160405280600d81526020017f6d61696e2063757272656e63790000000000000000000000000000000000000081525034611a73565b600354610c479085906001600160a01b0316611ad1565b600061271060045484610c5a91906128cc565b610c6491906128eb565b90506000610c72828561290d565b85546040519192506001600160a01b031690600090829084908381818185875af1925050503d8060008114610cc3576040519150601f19603f3d011682016040523d82523d6000602084013e610cc8565b606091505b5050905080610d195760405162461bcd60e51b815260206004820152601060248201527f5472616e73666572206661696c65642e00000000000000000000000000000000604482015260640161020e565b6003546040516000916001600160a01b03169086908381818185875af1925050503d8060008114610d66576040519150601f19603f3d011682016040523d82523d6000602084013e610d6b565b606091505b5050905080610dbc5760405162461bcd60e51b815260206004820152601060248201527f5472616e73666572206661696c65642e00000000000000000000000000000000604482015260640161020e565b600454600354610dd79189916001600160a01b03163161190c565b50505050506111d5565b610dea84611708565b610e5c5760405162461bcd60e51b815260206004820152602a60248201527f434c4f434b5f41554354494f4e3a20544f4b454e20544f20504159204953204e60448201527f4f5420414c4c4f57454400000000000000000000000000000000000000000000606482015260840161020e565b816001600160a01b0385166370a08231336040516001600160e01b031960e084901b1681526001600160a01b039091166004820152602401602060405180830381865afa158015610eb1573d6000803e3d6000fd5b505050506040513d601f19601f82011682018060405250810190610ed59190612924565b11610f485760405162461bcd60e51b815260206004820152602260248201527f434c4f434b5f41554354494f4e3a20494e535546494349454e542042414c414e60448201527f4345000000000000000000000000000000000000000000000000000000000000606482015260840161020e565b816001600160a01b03851663dd62ed3e336040516001600160e01b031960e084901b1681526001600160a01b039091166004820152306024820152604401602060405180830381865afa158015610fa3573d6000803e3d6000fd5b505050506040513d601f19601f82011682018060405250810190610fc79190612924565b116110395760405162461bcd60e51b8152602060048201526024808201527f434c4f434b5f41554354494f4e3a20494e535546494349454e5420414c4c4f5760448201527f414e434500000000000000000000000000000000000000000000000000000000606482015260840161020e565b611042836118da565b61108e5760405162461bcd60e51b815260206004820152601760248201527f436c6f636b53616c653a4e4f545f415641494c41424c45000000000000000000604482015260640161020e565b6000612710600454846110a191906128cc565b6110ab91906128eb565b905060006110b9828561290d565b90506001600160a01b0386166323b872dd33875460405160e084901b6001600160e01b03191681526001600160a01b03928316600482015291166024820152604481018490526064016020604051808303816000875af1158015611121573d6000803e3d6000fd5b505050506040513d601f19601f82011682018060405250810190611145919061293d565b506001600160a01b0386166323b872dd3360035460405160e084901b6001600160e01b03191681526001600160a01b03928316600482015291166024820152604481018590526064016020604051808303816000875af11580156111ad573d6000803e3d6000fd5b505050506040513d601f19601f820116820180604052508101906111d1919061293d565b5050505b6111e0868683611b3a565b604080516001600160a01b0383811682526020820185905286168183015260608101879052905187917f4b4fc464c78b40b7590e870adc5109d31591c61b1d739ac67eda1f9e8f314101919081900360800190a250505061124060018055565b505050565b61124d6117d2565b6108bd6000611bdd565b61125f6117d2565b6112676119cd565b6108bd611c2d565b6112776117d2565b600455565b6112846119cd565b6001600160a01b038616600090815260076020526040902054339060ff166112ee5760405162461bcd60e51b815260206004820152601660248201527f436c6f636b53616c653a494e56414c49445f53414c4500000000000000000000604482015260640161020e565b6112f9878288611c70565b6113455760405162461bcd60e51b815260206004820152601360248201527f436c6f636b53616c653a4e4f545f4f574e455200000000000000000000000000604482015260640161020e565b61135187828886611d0c565b60005b84518110156114035761137f8582815181106113725761137261281b565b6020026020010151611708565b6113f15760405162461bcd60e51b815260206004820152603660248201527f434c4f434b5f41554354494f4e3a204f4e45204f462054484520544f4b454e5360448201527f20544f20504159204953204e4f5420414c4c4f57454400000000000000000000606482015260840161020e565b806113fb81612847565b915050611354565b506000604051806101200160405280836001600160a01b03168152602001896001600160a01b0316815260200188815260200185815260200187815260200186815260200184815260200142815260200160006002811115611467576114676122ce565b9052905061147481611d5f565b5050505050505050565b600081815260066020526040902060078101546114dd5760405162461bcd60e51b815260206004820152601760248201527f436c6f636b53616c653a4e4f545f415641494c41424c45000000000000000000604482015260640161020e565b80546001600160a01b031633146115365760405162461bcd60e51b815260206004820152601360248201527f436c6f636b53616c653a4e4f545f4f574e455200000000000000000000000000604482015260640161020e565b61153f82611eee565b5050565b61154b6117d2565b6001600160a01b03821661156c576112406001600160a01b03821684611f55565b6040517fa9059cbb0000000000000000000000000000000000000000000000000000000081526001600160a01b0382811660048301526024820185905283169063a9059cbb906044016020604051808303816000875af11580156115d4573d6000803e3d6000fd5b505050506040513d601f19601f820116820180604052508101906115f8919061293d565b50505050565b6116066117d2565b600380546001600160a01b0319166001600160a01b0383169081179091556040519081527fce118ac8247ab22e55e5f2799d4f5dcf662d59fe0d207b98d6a89764ae81d4819060200160405180910390a150565b6000818152600660205260408120611671816118da565b9392505050565b6116806117d2565b6001600160a01b0381166116fc5760405162461bcd60e51b815260206004820152602660248201527f4f776e61626c653a206e6577206f776e657220697320746865207a65726f206160448201527f6464726573730000000000000000000000000000000000000000000000000000606482015260840161020e565b61170581611bdd565b50565b6001600160a01b038116600090815260086020908152604080832054905160609190911b6bffffffffffffffffffffffff1916918101919091528190603401604051602081830303815290604052511161176357600061086c565b600192915050565b60006001600160e01b031982167f4e2312e000000000000000000000000000000000000000000000000000000000148061086c57507f01ffc9a7000000000000000000000000000000000000000000000000000000006001600160e01b031983161461086c565b6000546001600160a01b031633146108bd5760405162461bcd60e51b815260206004820181905260248201527f4f776e61626c653a2063616c6c6572206973206e6f7420746865206f776e6572604482015260640161020e565b600054600160a01b900460ff166108bd5760405162461bcd60e51b815260206004820152601460248201527f5061757361626c653a206e6f7420706175736564000000000000000000000000604482015260640161020e565b61188d61182c565b6000805460ff60a01b191690557f5db9ee0a495bf2e6ff9c91a7834c1ba4fdd244a5e8aa4e537bd38aeae4b073aa335b6040516001600160a01b03909116815260200160405180910390a1565b60006118e98260070154151590565b801561086c57504282600601548360070154611905919061295a565b1192915050565b6040516024810184905260448101839052606481018290526112409060840160408051601f198184030181529190526020810180516001600160e01b03167fd1ed7a3c0000000000000000000000000000000000000000000000000000000017905261206e565b600260015414156119c65760405162461bcd60e51b815260206004820152601f60248201527f5265656e7472616e637947756172643a207265656e7472616e742063616c6c00604482015260640161020e565b6002600155565b600054600160a01b900460ff16156108bd5760405162461bcd60e51b815260206004820152601060248201527f5061757361626c653a2070617573656400000000000000000000000000000000604482015260640161020e565b60008181526006602052604080822060088101805460ff191660011790559051909183917fe8722c7fbbc203b6f7b1c8d8b08fe896e23df39ea595609629ab14794bd448ed9190a25050565b61153f8282604051602401611a89929190612972565b60408051601f198184030181529190526020810180516001600160e01b03167fb60e72cc0000000000000000000000000000000000000000000000000000000017905261206e565b6040516001600160a01b0380841660248301528216604482015261153f9060640160408051601f198184030181529190526020810180516001600160e01b03167fdaf0d4aa0000000000000000000000000000000000000000000000000000000017905261206e565b600083815260066020526040808220600181015460028201549251637921219560e11b81523060048201526001600160a01b03868116602483015260448201949094526064810187905260a0608482015260a48101949094529092911690819063f242432a9060c4015b600060405180830381600087803b158015611bbe57600080fd5b505af1158015611bd2573d6000803e3d6000fd5b505050505050505050565b600080546001600160a01b038381166001600160a01b0319831681178455604051919092169283917f8be0079c531659141344cd1fd0a4f28419497f9722a3daafe3b4186f6b6457e09190a35050565b611c356119cd565b6000805460ff60a01b1916600160a01b1790557f62e78cea01bee320cd4e420270b5ea74000d11b0c9f74754ebdbfc544b05a2586118bd3390565b600080846040517efdd58e0000000000000000000000000000000000000000000000000000000081526001600160a01b0386811660048301526024820186905291925060009183169062fdd58e90604401602060405180830381865afa158015611cde573d6000803e3d6000fd5b505050506040513d601f19601f82011682018060405250810190611d029190612924565b1195945050505050565b604051637921219560e11b81526001600160a01b038481166004830152306024830152604482018490526064820183905260a06084830152600060a483015285919082169063f242432a9060c401611ba4565b603c8160c001511015611db45760405162461bcd60e51b815260206004820152601a60248201527f436c6f636b53616c653a494e56414c49445f4455524154494f4e000000000000604482015260640161020e565b6000611dbf60025490565b600081815260066020908152604091829020855181546001600160a01b039182166001600160a01b031991821617835583880151600184018054919093169116179055918501516002830155606085015160038301556080850151600483015560a085015180519394508593611e3b92600585019201906120fd565b5060c0820151600682015560e0820151600782015561010082015160088201805460ff19166001836002811115611e7457611e746122ce565b02179055505060028054600101905550807ff9c99bc06ec756a1ee15926ba230824a827d2d5e1ac2b0b6b0a202df63220f3583602001518460400151856060015186608001518760a001518860c001518960e001518a60000151604051611ee29897969594939291906129cf565b60405180910390a25050565b600081815260066020526040902060088101805460ff1916600217905560038101548154611f269184916001600160a01b0316611b3a565b60405182907f2c56893f6f6026d19bd17b7d05c9f15c522de1ae2b1c3a825f91a73c799321f290600090a25050565b80471015611fa55760405162461bcd60e51b815260206004820152601d60248201527f416464726573733a20696e73756666696369656e742062616c616e6365000000604482015260640161020e565b6000826001600160a01b03168260405160006040518083038185875af1925050503d8060008114611ff2576040519150601f19603f3d011682016040523d82523d6000602084013e611ff7565b606091505b50509050806112405760405162461bcd60e51b815260206004820152603a60248201527f416464726573733a20756e61626c6520746f2073656e642076616c75652c207260448201527f6563697069656e74206d61792068617665207265766572746564000000000000606482015260840161020e565b80516a636f6e736f6c652e6c6f67602083016000808483855afa5050505050565b60405180610120016040528060006001600160a01b0316815260200160006001600160a01b03168152602001600081526020016000815260200160008152602001606081526020016000815260200160008152602001600060028111156120f8576120f86122ce565b905290565b828054828255906000526020600020908101928215612152579160200282015b8281111561215257825182546001600160a01b0319166001600160a01b0390911617825560209092019160019091019061211d565b5061215e929150612162565b5090565b5b8082111561215e5760008155600101612163565b634e487b7160e01b600052604160045260246000fd5b604051601f8201601f1916810167ffffffffffffffff811182821017156121b6576121b6612177565b604052919050565b600067ffffffffffffffff8211156121d8576121d8612177565b5060051b60200190565b600082601f8301126121f357600080fd5b81356020612208612203836121be565b61218d565b82815260059290921b8401810191818101908684111561222757600080fd5b8286015b84811015612242578035835291830191830161222b565b509695505050505050565b60006020828403121561225f57600080fd5b813567ffffffffffffffff81111561227657600080fd5b612282848285016121e2565b949350505050565b600081518084526020808501945080840160005b838110156122c35781516001600160a01b03168752958201959082019060010161229e565b509495945050505050565b634e487b7160e01b600052602160045260246000fd5b6003811061230257634e487b7160e01b600052602160045260246000fd5b9052565b60006020808301818452808551808352604092508286019150828160051b87010184880160005b838110156123da57888303603f19018552815180516001600160a01b03168452610120818901516001600160a01b038116868b0152508188015185890152606080830151908601526080808301519086015260a0808301518187018390526123978388018261228a565b9250505060c080830151818701525060e08083015181870152506101008083015192506123c6818701846122e4565b50958801959350509086019060010161232d565b509098975050505050505050565b6000602082840312156123fa57600080fd5b81356001600160e01b03198116811461167157600080fd5b80356001600160a01b038116811461242957600080fd5b919050565b60006020828403121561244057600080fd5b61167182612412565b801515811461170557600080fd5b6000806040838503121561246a57600080fd5b61247383612412565b9150602083013561248381612449565b809150509250929050565b6000806000606084860312156124a357600080fd5b833592506124b360208501612412565b9150604084013590509250925092565b600080604083850312156124d657600080fd5b6124df83612412565b91506124ed60208401612412565b90509250929050565b60008060006060848603121561250b57600080fd5b833592506020840135915061252260408501612412565b90509250925092565b60006020828403121561253d57600080fd5b5035919050565b60008060008060008060c0878903121561255d57600080fd5b61256687612412565b9550602080880135955060408801359450606088013567ffffffffffffffff81111561259157600080fd5b8801601f81018a136125a257600080fd5b80356125b0612203826121be565b81815260059190911b8201830190838101908c8311156125cf57600080fd5b928401925b828410156125f4576125e584612412565b825292840192908401906125d4565b999c989b50969960808101359860a090910135975095505050505050565b6000610100820190506001600160a01b03808b168352808a166020840152508760408301528660608301528560808301528460a08301528360c083015261265c60e08301846122e4565b9998505050505050505050565b600082601f83011261267a57600080fd5b813567ffffffffffffffff81111561269457612694612177565b6126a7601f8201601f191660200161218d565b8181528460208386010111156126bc57600080fd5b816020850160208301376000918101602001919091529392505050565b600080600080600060a086880312156126f157600080fd5b6126fa86612412565b945061270860208701612412565b9350604086013567ffffffffffffffff8082111561272557600080fd5b61273189838a016121e2565b9450606088013591508082111561274757600080fd5b61275389838a016121e2565b9350608088013591508082111561276957600080fd5b5061277688828901612669565b9150509295509295909350565b60008060006060848603121561279857600080fd5b833592506127a860208501612412565b915061252260408501612412565b600080600080600060a086880312156127ce57600080fd5b6127d786612412565b94506127e560208701612412565b93506040860135925060608601359150608086013567ffffffffffffffff81111561280f57600080fd5b61277688828901612669565b634e487b7160e01b600052603260045260246000fd5b634e487b7160e01b600052601160045260246000fd5b600060001982141561285b5761285b612831565b5060010190565b805169ffffffffffffffffffff8116811461242957600080fd5b600080600080600060a0868803121561289457600080fd5b61289d86612862565b94506020860151935060408601519250606086015191506128c060808701612862565b90509295509295909350565b60008160001904831182151516156128e6576128e6612831565b500290565b60008261290857634e487b7160e01b600052601260045260246000fd5b500490565b60008282101561291f5761291f612831565b500390565b60006020828403121561293657600080fd5b5051919050565b60006020828403121561294f57600080fd5b815161167181612449565b6000821982111561296d5761296d612831565b500190565b604081526000835180604084015260005b818110156129a05760208187018101516060868401015201612983565b818111156129b2576000606083860101525b50602083019390935250601f91909101601f191601606001919050565b60006101008083016001600160a01b03808d16855260208c818701528b60408701528a6060870152836080870152829350895180845261012087019450818b01935060005b81811015612a32578451841686529482019493820193600101612a14565b505050505060a0830186905260c083018590526001600160a01b03841660e0840152905061265c56fea26469706673582212207c2f24cf9218d039d4641b3fafa2e9cabec16ef45c880ef3b50fa0aab00f250864736f6c634300080b0033",
  "linkReferences": {},
  "deployedLinkReferences": {}
}