{
  "_format": "hh-sol-artifact-1",
  "contractName": "ClockSaleMultiTokens",
  "sourceName": "contracts/ClockSaleMultiTokens.sol",
  "abi": [
    {
      "inputs": [
        {
          "internalType": "address",
          "name": "_feeReceiver",
          "type": "address"
        },
        {
          "internalType": "address",
          "name": "_wcurrency",
          "type": "address"
        },
        {
          "internalType": "address",
          "name": "_priceFeedW",
          "type": "address"
        },
        {
          "internalType": "uint256",
          "name": "_decimals",
          "type": "uint256"
        },
        {
          "internalType": "uint256",
          "name": "_ownerCut",
          "type": "uint256"
        }
      ],
      "stateMutability": "nonpayable",
      "type": "constructor"
    },
    {
      "anonymous": false,
      "inputs": [
        {
          "indexed": true,
          "internalType": "uint256",
          "name": "_auctionId",
          "type": "uint256"
        },
        {
          "indexed": false,
          "internalType": "address",
          "name": "_buyer",
          "type": "address"
        },
        {
          "indexed": false,
          "internalType": "uint256",
          "name": "_cost",
          "type": "uint256"
        },
        {
          "indexed": false,
          "internalType": "address",
          "name": "_tokenUsed",
          "type": "address"
        },
        {
          "indexed": false,
          "internalType": "uint256",
          "name": "_nftAmount",
          "type": "uint256"
        }
      ],
      "name": "BuySuccessful",
      "type": "event"
    },
    {
      "anonymous": false,
      "inputs": [
        {
          "indexed": false,
          "internalType": "address",
          "name": "newReceiver",
          "type": "address"
        }
      ],
      "name": "ChangedFeeReceiver",
      "type": "event"
    },
    {
      "anonymous": false,
      "inputs": [
        {
          "indexed": true,
          "internalType": "address",
          "name": "previousOwner",
          "type": "address"
        },
        {
          "indexed": true,
          "internalType": "address",
          "name": "newOwner",
          "type": "address"
        }
      ],
      "name": "OwnershipTransferred",
      "type": "event"
    },
    {
      "anonymous": false,
      "inputs": [
        {
          "indexed": false,
          "internalType": "address",
          "name": "account",
          "type": "address"
        }
      ],
      "name": "Paused",
      "type": "event"
    },
    {
      "anonymous": false,
      "inputs": [
        {
          "indexed": true,
          "internalType": "uint256",
          "name": "_auctionId",
          "type": "uint256"
        }
      ],
      "name": "SaleCancelled",
      "type": "event"
    },
    {
      "anonymous": false,
      "inputs": [
        {
          "indexed": true,
          "internalType": "uint256",
          "name": "_auctionId",
          "type": "uint256"
        },
        {
          "indexed": false,
          "internalType": "address",
          "name": "_nft",
          "type": "address"
        },
        {
          "indexed": false,
          "internalType": "uint256",
          "name": "_nftId",
          "type": "uint256"
        },
        {
          "indexed": false,
          "internalType": "uint256",
          "name": "_amount",
          "type": "uint256"
        },
        {
          "indexed": false,
          "internalType": "uint256",
          "name": "priceUSD",
          "type": "uint256"
        },
        {
          "indexed": false,
          "internalType": "address[]",
          "name": "_tokens",
          "type": "address[]"
        },
        {
          "indexed": false,
          "internalType": "uint256",
          "name": "_duration",
          "type": "uint256"
        },
        {
          "indexed": false,
          "internalType": "uint256",
          "name": "_startedAt",
          "type": "uint256"
        },
        {
          "indexed": false,
          "internalType": "address",
          "name": "_seller",
          "type": "address"
        }
      ],
      "name": "SaleCreated",
      "type": "event"
    },
    {
      "anonymous": false,
      "inputs": [
        {
          "indexed": true,
          "internalType": "uint256",
          "name": "_auctionId",
          "type": "uint256"
        }
      ],
      "name": "SaleSuccessful",
      "type": "event"
    },
    {
      "anonymous": false,
      "inputs": [
        {
          "indexed": false,
          "internalType": "address",
          "name": "account",
          "type": "address"
        }
      ],
      "name": "Unpaused",
      "type": "event"
    },
    {
      "inputs": [
        {
          "internalType": "address",
          "name": "_token",
          "type": "address"
        },
        {
          "internalType": "address",
          "name": "priceFeed",
          "type": "address"
        },
        {
          "internalType": "uint256",
          "name": "decimals",
          "type": "uint256"
        }
      ],
      "name": "addToken",
      "outputs": [],
      "stateMutability": "nonpayable",
      "type": "function"
    },
    {
      "inputs": [
        {
          "internalType": "uint256",
          "name": "_tokenId",
          "type": "uint256"
        },
        {
          "internalType": "uint256",
          "name": "amount",
          "type": "uint256"
        },
        {
          "internalType": "address",
          "name": "tokenToPay",
          "type": "address"
        }
      ],
      "name": "buy",
      "outputs": [],
      "stateMutability": "payable",
      "type": "function"
    },
    {
      "inputs": [
        {
          "internalType": "uint256[]",
          "name": "tokensId",
          "type": "uint256[]"
        },
        {
          "internalType": "uint256[]",
          "name": "amounts",
          "type": "uint256[]"
        },
        {
          "internalType": "address",
          "name": "tokenToPay",
          "type": "address"
        }
      ],
      "name": "buyBatch",
      "outputs": [],
      "stateMutability": "nonpayable",
      "type": "function"
    },
    {
      "inputs": [
        {
          "internalType": "uint256",
          "name": "_tokenId",
          "type": "uint256"
        }
      ],
      "name": "cancelSale",
      "outputs": [],
      "stateMutability": "nonpayable",
      "type": "function"
    },
    {
      "inputs": [
        {
          "internalType": "address",
          "name": "_nftAddress",
          "type": "address"
        },
        {
          "internalType": "uint256",
          "name": "_tokenId",
          "type": "uint256"
        },
        {
          "internalType": "uint256",
          "name": "_priceUSD",
          "type": "uint256"
        },
        {
          "internalType": "address[]",
          "name": "_tokens",
          "type": "address[]"
        },
        {
          "internalType": "uint256",
          "name": "_amount",
          "type": "uint256"
        },
        {
          "internalType": "uint256",
          "name": "_duration",
          "type": "uint256"
        }
      ],
      "name": "createSale",
      "outputs": [],
      "stateMutability": "nonpayable",
      "type": "function"
    },
    {
      "inputs": [
        {
          "internalType": "address",
          "name": "",
          "type": "address"
        }
      ],
      "name": "decimalsByToken",
      "outputs": [
        {
          "internalType": "uint256",
          "name": "",
          "type": "uint256"
        }
      ],
      "stateMutability": "view",
      "type": "function"
    },
    {
      "inputs": [],
      "name": "decimalsUSD",
      "outputs": [
        {
          "internalType": "uint256",
          "name": "",
          "type": "uint256"
        }
      ],
      "stateMutability": "view",
      "type": "function"
    },
    {
      "inputs": [
        {
          "internalType": "uint256",
          "name": "amount",
          "type": "uint256"
        },
        {
          "internalType": "address",
          "name": "token",
          "type": "address"
        },
        {
          "internalType": "address",
          "name": "recipient",
          "type": "address"
        }
      ],
      "name": "emergencyWithdraw",
      "outputs": [],
      "stateMutability": "nonpayable",
      "type": "function"
    },
    {
      "inputs": [],
      "name": "feeReceiver",
      "outputs": [
        {
          "internalType": "address",
          "name": "",
          "type": "address"
        }
      ],
      "stateMutability": "view",
      "type": "function"
    },
    {
      "inputs": [],
      "name": "genesisBlock",
      "outputs": [
        {
          "internalType": "uint256",
          "name": "",
          "type": "uint256"
        }
      ],
      "stateMutability": "view",
      "type": "function"
    },
    {
      "inputs": [
        {
          "internalType": "uint256",
          "name": "_tokenId",
          "type": "uint256"
        },
        {
          "internalType": "address",
          "name": "tokenToGet",
          "type": "address"
        },
        {
          "internalType": "uint256",
          "name": "quantity",
          "type": "uint256"
        }
      ],
      "name": "getPrice",
      "outputs": [
        {
          "internalType": "uint256",
          "name": "",
          "type": "uint256"
        }
      ],
      "stateMutability": "view",
      "type": "function"
    },
    {
      "inputs": [
        {
          "internalType": "uint256[]",
          "name": "_tokenIds",
          "type": "uint256[]"
        }
      ],
      "name": "getSales",
      "outputs": [
        {
          "components": [
            {
              "internalType": "address",
              "name": "seller",
              "type": "address"
            },
            {
              "internalType": "address",
              "name": "nft",
              "type": "address"
            },
            {
              "internalType": "uint256",
              "name": "nftId",
              "type": "uint256"
            },
            {
              "internalType": "uint256",
              "name": "amount",
              "type": "uint256"
            },
            {
              "internalType": "uint256",
              "name": "priceUSD",
              "type": "uint256"
            },
            {
              "internalType": "address[]",
              "name": "tokens",
              "type": "address[]"
            },
            {
              "internalType": "uint256",
              "name": "duration",
              "type": "uint256"
            },
            {
              "internalType": "uint256",
              "name": "startedAt",
              "type": "uint256"
            },
            {
              "internalType": "enum ClockSaleMultiTokens.SaleStatus",
              "name": "status",
              "type": "uint8"
            }
          ],
          "internalType": "struct ClockSaleMultiTokens.Sale[]",
          "name": "",
          "type": "tuple[]"
        }
      ],
      "stateMutability": "view",
      "type": "function"
    },
    {
      "inputs": [
        {
          "internalType": "address",
          "name": "",
          "type": "address"
        }
      ],
      "name": "isAllowed",
      "outputs": [
        {
          "internalType": "bool",
          "name": "",
          "type": "bool"
        }
      ],
      "stateMutability": "view",
      "type": "function"
    },
    {
      "inputs": [
        {
          "internalType": "uint256",
          "name": "_tokenId",
          "type": "uint256"
        }
      ],
      "name": "isOnSale",
      "outputs": [
        {
          "internalType": "bool",
          "name": "",
          "type": "bool"
        }
      ],
      "stateMutability": "view",
      "type": "function"
    },
    {
      "inputs": [
        {
          "internalType": "address",
          "name": "_token",
          "type": "address"
        }
      ],
      "name": "isTokenAllowed",
      "outputs": [
        {
          "internalType": "bool",
          "name": "",
          "type": "bool"
        }
      ],
      "stateMutability": "view",
      "type": "function"
    },
    {
      "inputs": [
        {
          "internalType": "address",
          "name": "",
          "type": "address"
        },
        {
          "internalType": "address",
          "name": "",
          "type": "address"
        },
        {
          "internalType": "uint256[]",
          "name": "",
          "type": "uint256[]"
        },
        {
          "internalType": "uint256[]",
          "name": "",
          "type": "uint256[]"
        },
        {
          "internalType": "bytes",
          "name": "",
          "type": "bytes"
        }
      ],
      "name": "onERC1155BatchReceived",
      "outputs": [
        {
          "internalType": "bytes4",
          "name": "",
          "type": "bytes4"
        }
      ],
      "stateMutability": "nonpayable",
      "type": "function"
    },
    {
      "inputs": [
        {
          "internalType": "address",
          "name": "",
          "type": "address"
        },
        {
          "internalType": "address",
          "name": "",
          "type": "address"
        },
        {
          "internalType": "uint256",
          "name": "",
          "type": "uint256"
        },
        {
          "internalType": "uint256",
          "name": "",
          "type": "uint256"
        },
        {
          "internalType": "bytes",
          "name": "",
          "type": "bytes"
        }
      ],
      "name": "onERC1155Received",
      "outputs": [
        {
          "internalType": "bytes4",
          "name": "",
          "type": "bytes4"
        }
      ],
      "stateMutability": "nonpayable",
      "type": "function"
    },
    {
      "inputs": [],
      "name": "owner",
      "outputs": [
        {
          "internalType": "address",
          "name": "",
          "type": "address"
        }
      ],
      "stateMutability": "view",
      "type": "function"
    },
    {
      "inputs": [],
      "name": "ownerCut",
      "outputs": [
        {
          "internalType": "uint256",
          "name": "",
          "type": "uint256"
        }
      ],
      "stateMutability": "view",
      "type": "function"
    },
    {
      "inputs": [],
      "name": "paused",
      "outputs": [
        {
          "internalType": "bool",
          "name": "",
          "type": "bool"
        }
      ],
      "stateMutability": "view",
      "type": "function"
    },
    {
      "inputs": [
        {
          "internalType": "address",
          "name": "",
          "type": "address"
        }
      ],
      "name": "priceFeedsByToken",
      "outputs": [
        {
          "internalType": "address",
          "name": "",
          "type": "address"
        }
      ],
      "stateMutability": "view",
      "type": "function"
    },
    {
      "inputs": [],
      "name": "renounceOwnership",
      "outputs": [],
      "stateMutability": "nonpayable",
      "type": "function"
    },
    {
      "inputs": [],
      "name": "restartTrading",
      "outputs": [],
      "stateMutability": "nonpayable",
      "type": "function"
    },
    {
      "inputs": [
        {
          "internalType": "uint256",
          "name": "",
          "type": "uint256"
        }
      ],
      "name": "sales",
      "outputs": [
        {
          "internalType": "address",
          "name": "seller",
          "type": "address"
        },
        {
          "internalType": "address",
          "name": "nft",
          "type": "address"
        },
        {
          "internalType": "uint256",
          "name": "nftId",
          "type": "uint256"
        },
        {
          "internalType": "uint256",
          "name": "amount",
          "type": "uint256"
        },
        {
          "internalType": "uint256",
          "name": "priceUSD",
          "type": "uint256"
        },
        {
          "internalType": "uint256",
          "name": "duration",
          "type": "uint256"
        },
        {
          "internalType": "uint256",
          "name": "startedAt",
          "type": "uint256"
        },
        {
          "internalType": "enum ClockSaleMultiTokens.SaleStatus",
          "name": "status",
          "type": "uint8"
        }
      ],
      "stateMutability": "view",
      "type": "function"
    },
    {
      "inputs": [
        {
          "internalType": "address",
          "name": "_feeReceiver",
          "type": "address"
        }
      ],
      "name": "setFeeReceiver",
      "outputs": [],
      "stateMutability": "nonpayable",
      "type": "function"
    },
    {
      "inputs": [
        {
          "internalType": "address",
          "name": "nftAddress",
          "type": "address"
        },
        {
          "internalType": "bool",
          "name": "allow",
          "type": "bool"
        }
      ],
      "name": "setNftAllowed",
      "outputs": [],
      "stateMutability": "nonpayable",
      "type": "function"
    },
    {
      "inputs": [
        {
          "internalType": "uint256",
          "name": "_ownerCut",
          "type": "uint256"
        }
      ],
      "name": "setOwnerCut",
      "outputs": [],
      "stateMutability": "nonpayable",
      "type": "function"
    },
    {
      "inputs": [],
      "name": "stopTrading",
      "outputs": [],
      "stateMutability": "nonpayable",
      "type": "function"
    },
    {
      "inputs": [
        {
          "internalType": "bytes4",
          "name": "interfaceId",
          "type": "bytes4"
        }
      ],
      "name": "supportsInterface",
      "outputs": [
        {
          "internalType": "bool",
          "name": "",
          "type": "bool"
        }
      ],
      "stateMutability": "view",
      "type": "function"
    },
    {
      "inputs": [],
      "name": "tokenIdTracker",
      "outputs": [
        {
          "internalType": "uint256",
          "name": "_value",
          "type": "uint256"
        }
      ],
      "stateMutability": "view",
      "type": "function"
    },
    {
      "inputs": [
        {
          "internalType": "address",
          "name": "newOwner",
          "type": "address"
        }
      ],
      "name": "transferOwnership",
      "outputs": [],
      "stateMutability": "nonpayable",
      "type": "function"
    },
    {
      "inputs": [],
      "name": "wcurrency",
      "outputs": [
        {
          "internalType": "address",
          "name": "",
          "type": "address"
        }
      ],
      "stateMutability": "view",
      "type": "function"
    },
    {
      "stateMutability": "payable",
      "type": "receive"
    }
  ],
  "bytecode": "0x6080604052600680553480156200001557600080fd5b506040516200306f3803806200306f83398101604081905262000038916200017b565b62000043336200010e565b6000805460ff60a01b1916905560018055612710811115620000ab5760405162461bcd60e51b815260206004820152601360248201527f436c6f636b53616c653a4f574e45525f43555400000000000000000000000000604482015260640160405180910390fd5b600455600380546001600160a01b03199081166001600160a01b039687161790915543600555600b8054821694861694851790556000938452600960209081526040808620805490931694909616939093179055600a90915291902055620001d8565b600080546001600160a01b038381166001600160a01b0319831681178455604051919092169283917f8be0079c531659141344cd1fd0a4f28419497f9722a3daafe3b4186f6b6457e09190a35050565b80516001600160a01b03811681146200017657600080fd5b919050565b600080600080600060a086880312156200019457600080fd5b6200019f866200015e565b9450620001af602087016200015e565b9350620001bf604087016200015e565b6060870151608090970151959894975095949392505050565b612e8780620001e86000396000f3fe6080604052600436106101e65760003560e01c806383b5ff8b11610102578063bd94b00511610095578063f0f2805f11610064578063f0f2805f14610687578063f23a6e61146106a7578063f2fde38b146106ec578063f9eaee0d1461070c57600080fd5b8063bd94b00514610611578063d2cee46f14610631578063e4ad405814610651578063efdcd9741461066757600080fd5b8063b3f00674116100d1578063b3f00674146104e0578063b5f522f714610500578063babcc53914610583578063bc197c81146105b357600080fd5b806383b5ff8b1461045f5780638da5cb5b146104755780638e782723146104935780639a37ec05146104c057600080fd5b80634cdc9c631161017a5780636daa9850116101495780636daa9850146103f5578063715018a6146104155780637185f1631461042a578063757de5731461043f57600080fd5b80634cdc9c631461038d57806350d16d9f146103a357806359a87bc1146103c35780635c975abb146103d657600080fd5b8063098f3c3c116101b6578063098f3c3c146103185780630d985a9c146103385780631e1d7bb5146103585780632cdddc1b1461037857600080fd5b8062313a681461023f57806301ffc9a71461027557806302bf3d56146102a557806304a455eb146102ca57600080fd5b3661023a5760405162461bcd60e51b815260206004820152601360248201527f436c6f636b53616c653a444f4e545f53454e440000000000000000000000000060448201526064015b60405180910390fd5b005b600080fd5b34801561024b57600080fd5b5061025f61025a3660046124cc565b61072c565b60405161026c9190612585565b60405180910390f35b34801561028157600080fd5b50610295610290366004612667565b6108e5565b604051901515815260200161026c565b3480156102b157600080fd5b506002546102bc9081565b60405190815260200161026c565b3480156102d657600080fd5b506103006102e53660046126ad565b6009602052600090815260409020546001600160a01b031681565b6040516001600160a01b03909116815260200161026c565b34801561032457600080fd5b50600b54610300906001600160a01b031681565b34801561034457600080fd5b506102386103533660046126c8565b6108f6565b34801561036457600080fd5b5061023861037336600461274a565b6109ce565b34801561038457600080fd5b50610238610a01565b34801561039957600080fd5b506102bc60055481565b3480156103af57600080fd5b506102bc6103be366004612781565b610a1b565b6102386103d13660046127b6565b610bf2565b3480156103e257600080fd5b50600054600160a01b900460ff16610295565b34801561040157600080fd5b506102386104103660046127e2565b611406565b34801561042157600080fd5b5061023861144b565b34801561043657600080fd5b5061023861145d565b34801561044b57600080fd5b5061023861045a36600461280e565b611475565b34801561046b57600080fd5b506102bc60045481565b34801561048157600080fd5b506000546001600160a01b0316610300565b34801561049f57600080fd5b506102bc6104ae3660046126ad565b600a6020526000908152604090205481565b3480156104cc57600080fd5b506102386104db366004612827565b611482565b3480156104ec57600080fd5b50600354610300906001600160a01b031681565b34801561050c57600080fd5b5061056f61051b36600461280e565b6007602081905260009182526040909120805460018201546002830154600384015460048501546006860154968601546008909601546001600160a01b039586169795909416959294919390929060ff1688565b60405161026c9897969594939291906128f5565b34801561058f57600080fd5b5061029561059e3660046126ad565b60086020526000908152604090205460ff1681565b3480156105bf57600080fd5b506105f86105ce3660046129bc565b7fbc197c810000000000000000000000000000000000000000000000000000000095945050505050565b6040516001600160e01b0319909116815260200161026c565b34801561061d57600080fd5b5061023861062c36600461280e565b6116fb565b34801561063d57600080fd5b5061023861064c366004612a66565b6117c8565b34801561065d57600080fd5b506102bc60065481565b34801561067357600080fd5b506102386106823660046126ad565b61187d565b34801561069357600080fd5b506102956106a236600461280e565b6118d9565b3480156106b357600080fd5b506105f86106c2366004612a99565b7ff23a6e610000000000000000000000000000000000000000000000000000000095945050505050565b3480156106f857600080fd5b506102386107073660046126ad565b6118f7565b34801561071857600080fd5b506102956107273660046126ad565b611987565b60606000825167ffffffffffffffff81111561074a5761074a6123f6565b60405190808252806020026020018201604052801561078357816020015b61077061230e565b8152602001906001900390816107685790505b50905060005b83518110156108de57600760008583815181106107a8576107a8612afe565b602090810291909101810151825281810192909252604090810160002081516101208101835281546001600160a01b0390811682526001830154168185015260028201548184015260038201546060820152600482015460808201526005820180548451818702810187019095528085529194929360a086019390929083018282801561085e57602002820191906000526020600020905b81546001600160a01b03168152600190910190602001808311610840575b50505091835250506006820154602082015260078201546040820152600882015460609091019060ff1660028111156108995761089961254d565b60028111156108aa576108aa61254d565b815250508282815181106108c0576108c0612afe565b602002602001018190525080806108d690612b2a565b915050610789565b5092915050565b60006108f0826119ea565b92915050565b815183511461096d5760405162461bcd60e51b815260206004820152602e60248201527f4172726179204c656e676874206d7573206265207468652073616d65206f662060448201527f616d6f756e7420616e6420496473000000000000000000000000000000000000606482015260840161022f565b60005b83518110156109c8576109b684828151811061098e5761098e612afe565b60200260200101518483815181106109a8576109a8612afe565b602002602001015184610bf2565b806109c081612b2a565b915050610970565b50505050565b6109d6611a51565b6001600160a01b03919091166000908152600860205260409020805460ff1916911515919091179055565b610a09611a51565b610a11611aab565b610a19611b04565b565b6000838152600760205260408120610a3281611b59565b610a7e5760405162461bcd60e51b815260206004820152601660248201527f436c6f636b53616c653a494e56414c49445f53414c4500000000000000000000604482015260640161022f565b6001600160a01b038085166000908152600960205260408082205481517ffeaf968c0000000000000000000000000000000000000000000000000000000081529151931692839163feaf968c9160048083019260a09291908290030181865afa158015610aef573d6000803e3d6000fd5b505050506040513d601f19601f82011682018060405250810190610b139190612b5f565b5050509150506000826001600160a01b031663313ce5676040518163ffffffff1660e01b8152600401602060405180830381865afa158015610b59573d6000803e3d6000fd5b505050506040513d601f19601f82011682018060405250810190610b7d9190612baf565b6006546001600160a01b0389166000908152600a602052604090205460ff9290921692508391610bae908490612bd2565b610bb89190612bea565b610bc390600a612ce5565b6004860154610bd29089612cf1565b610bdc9190612cf1565b610be69190612d10565b98975050505050505050565b610bfa611b8b565b610c02611be5565b600083815260076020526040812090805b6005830154811015610c7957836001600160a01b0316836005018281548110610c3e57610c3e612afe565b6000918252602090912001546001600160a01b03161415610c6757610c64868587610a1b565b91505b80610c7181612b2a565b915050610c13565b5080610cc75760405162461bcd60e51b815260206004820152601b60248201527f436c6f636b53616c653a544f4b454e5f4e4f545f414c4c4f5745440000000000604482015260640161022f565b600033905084836003016000828254610ce09190612bea565b90915550506003830154610cf757610cf786611c3f565b600b546001600160a01b0385811691161415610fa257610d1683611b59565b610d625760405162461bcd60e51b815260206004820152601760248201527f436c6f636b53616c653a4e4f545f415641494c41424c45000000000000000000604482015260640161022f565b81341015610db25760405162461bcd60e51b815260206004820152601a60248201527f436c6f636b53616c653a4e4f545f454e4f5547485f56414c5545000000000000604482015260640161022f565b610df16040518060400160405280600d81526020017f6d61696e2063757272656e63790000000000000000000000000000000000000081525034611c8b565b600354610e089085906001600160a01b0316611ce9565b600061271060045484610e1b9190612cf1565b610e259190612d10565b90506000610e338285612bea565b85546040519192506001600160a01b031690600090829084908381818185875af1925050503d8060008114610e84576040519150601f19603f3d011682016040523d82523d6000602084013e610e89565b606091505b5050905080610eda5760405162461bcd60e51b815260206004820152601060248201527f5472616e73666572206661696c65642e00000000000000000000000000000000604482015260640161022f565b6003546040516000916001600160a01b03169086908381818185875af1925050503d8060008114610f27576040519150601f19603f3d011682016040523d82523d6000602084013e610f2c565b606091505b5050905080610f7d5760405162461bcd60e51b815260206004820152601060248201527f5472616e73666572206661696c65642e00000000000000000000000000000000604482015260640161022f565b600454600354610f989189916001600160a01b031631611d52565b5050505050611396565b610fab84611987565b61101d5760405162461bcd60e51b815260206004820152602a60248201527f434c4f434b5f41554354494f4e3a20544f4b454e20544f20504159204953204e60448201527f4f5420414c4c4f57454400000000000000000000000000000000000000000000606482015260840161022f565b816001600160a01b0385166370a08231336040516001600160e01b031960e084901b1681526001600160a01b039091166004820152602401602060405180830381865afa158015611072573d6000803e3d6000fd5b505050506040513d601f19601f820116820180604052508101906110969190612d32565b116111095760405162461bcd60e51b815260206004820152602260248201527f434c4f434b5f41554354494f4e3a20494e535546494349454e542042414c414e60448201527f4345000000000000000000000000000000000000000000000000000000000000606482015260840161022f565b816001600160a01b03851663dd62ed3e336040516001600160e01b031960e084901b1681526001600160a01b039091166004820152306024820152604401602060405180830381865afa158015611164573d6000803e3d6000fd5b505050506040513d601f19601f820116820180604052508101906111889190612d32565b116111fa5760405162461bcd60e51b8152602060048201526024808201527f434c4f434b5f41554354494f4e3a20494e535546494349454e5420414c4c4f5760448201527f414e434500000000000000000000000000000000000000000000000000000000606482015260840161022f565b61120383611b59565b61124f5760405162461bcd60e51b815260206004820152601760248201527f436c6f636b53616c653a4e4f545f415641494c41424c45000000000000000000604482015260640161022f565b6000612710600454846112629190612cf1565b61126c9190612d10565b9050600061127a8285612bea565b90506001600160a01b0386166323b872dd33875460405160e084901b6001600160e01b03191681526001600160a01b03928316600482015291166024820152604481018490526064016020604051808303816000875af11580156112e2573d6000803e3d6000fd5b505050506040513d601f19601f820116820180604052508101906113069190612d4b565b506001600160a01b0386166323b872dd3360035460405160e084901b6001600160e01b03191681526001600160a01b03928316600482015291166024820152604481018590526064016020604051808303816000875af115801561136e573d6000803e3d6000fd5b505050506040513d601f19601f820116820180604052508101906113929190612d4b565b5050505b6113a1868683611db9565b604080516001600160a01b0383811682526020820185905286168183015260608101879052905187917f4b4fc464c78b40b7590e870adc5109d31591c61b1d739ac67eda1f9e8f314101919081900360800190a250505061140160018055565b505050565b61140e611a51565b6001600160a01b03928316600090815260096020908152604080832080546001600160a01b0319169590961694909417909455600a909352912055565b611453611a51565b610a196000611e5c565b611465611a51565b61146d611be5565b610a19611eac565b61147d611a51565b600455565b61148a611be5565b6001600160a01b038616600090815260086020526040902054339060ff166114f45760405162461bcd60e51b815260206004820152601660248201527f436c6f636b53616c653a494e56414c49445f53414c4500000000000000000000604482015260640161022f565b6114ff878288611eef565b61154b5760405162461bcd60e51b815260206004820152601360248201527f436c6f636b53616c653a4e4f545f4f574e455200000000000000000000000000604482015260640161022f565b60008451116115c25760405162461bcd60e51b815260206004820152602560248201527f596f75206861766520746f20616363657074206174206c65617374206f6e652060448201527f746f6b656e000000000000000000000000000000000000000000000000000000606482015260840161022f565b6115ce87828886611f8b565b60005b8451811015611680576115fc8582815181106115ef576115ef612afe565b6020026020010151611987565b61166e5760405162461bcd60e51b815260206004820152603660248201527f434c4f434b5f41554354494f4e3a204f4e45204f462054484520544f4b454e5360448201527f20544f20504159204953204e4f5420414c4c4f57454400000000000000000000606482015260840161022f565b8061167881612b2a565b9150506115d1565b506000604051806101200160405280836001600160a01b03168152602001896001600160a01b03168152602001888152602001858152602001878152602001868152602001848152602001428152602001600060028111156116e4576116e461254d565b905290506116f181611fde565b5050505050505050565b60008181526007602052604090206117168160070154151590565b6117625760405162461bcd60e51b815260206004820152601760248201527f436c6f636b53616c653a4e4f545f415641494c41424c45000000000000000000604482015260640161022f565b80546001600160a01b031633146117bb5760405162461bcd60e51b815260206004820152601360248201527f436c6f636b53616c653a4e4f545f4f574e455200000000000000000000000000604482015260640161022f565b6117c48261216d565b5050565b6117d0611a51565b6001600160a01b0382166117f1576114016001600160a01b038216846121d4565b6040517fa9059cbb0000000000000000000000000000000000000000000000000000000081526001600160a01b0382811660048301526024820185905283169063a9059cbb906044016020604051808303816000875af1158015611859573d6000803e3d6000fd5b505050506040513d601f19601f820116820180604052508101906109c89190612d4b565b611885611a51565b600380546001600160a01b0319166001600160a01b0383169081179091556040519081527fce118ac8247ab22e55e5f2799d4f5dcf662d59fe0d207b98d6a89764ae81d4819060200160405180910390a150565b60008181526007602052604081206118f081611b59565b9392505050565b6118ff611a51565b6001600160a01b03811661197b5760405162461bcd60e51b815260206004820152602660248201527f4f776e61626c653a206e6577206f776e657220697320746865207a65726f206160448201527f6464726573730000000000000000000000000000000000000000000000000000606482015260840161022f565b61198481611e5c565b50565b6001600160a01b038116600090815260096020908152604080832054905160609190911b6bffffffffffffffffffffffff191691810191909152819060340160405160208183030381529060405251116119e25760006108f0565b600192915050565b60006001600160e01b031982167f4e2312e00000000000000000000000000000000000000000000000000000000014806108f057507f01ffc9a7000000000000000000000000000000000000000000000000000000006001600160e01b03198316146108f0565b6000546001600160a01b03163314610a195760405162461bcd60e51b815260206004820181905260248201527f4f776e61626c653a2063616c6c6572206973206e6f7420746865206f776e6572604482015260640161022f565b600054600160a01b900460ff16610a195760405162461bcd60e51b815260206004820152601460248201527f5061757361626c653a206e6f7420706175736564000000000000000000000000604482015260640161022f565b611b0c611aab565b6000805460ff60a01b191690557f5db9ee0a495bf2e6ff9c91a7834c1ba4fdd244a5e8aa4e537bd38aeae4b073aa335b6040516001600160a01b03909116815260200160405180910390a1565b6000611b688260070154151590565b80156108f057504282600601548360070154611b849190612bd2565b1192915050565b60026001541415611bde5760405162461bcd60e51b815260206004820152601f60248201527f5265656e7472616e637947756172643a207265656e7472616e742063616c6c00604482015260640161022f565b6002600155565b600054600160a01b900460ff1615610a195760405162461bcd60e51b815260206004820152601060248201527f5061757361626c653a2070617573656400000000000000000000000000000000604482015260640161022f565b60008181526007602052604080822060088101805460ff191660011790559051909183917fe8722c7fbbc203b6f7b1c8d8b08fe896e23df39ea595609629ab14794bd448ed9190a25050565b6117c48282604051602401611ca1929190612d68565b60408051601f198184030181529190526020810180516001600160e01b03167fb60e72cc000000000000000000000000000000000000000000000000000000001790526122ed565b6040516001600160a01b038084166024830152821660448201526117c49060640160408051601f198184030181529190526020810180516001600160e01b03167fdaf0d4aa000000000000000000000000000000000000000000000000000000001790526122ed565b6040516024810184905260448101839052606481018290526114019060840160408051601f198184030181529190526020810180516001600160e01b03167fd1ed7a3c000000000000000000000000000000000000000000000000000000001790526122ed565b600083815260076020526040808220600181015460028201549251637921219560e11b81523060048201526001600160a01b03868116602483015260448201949094526064810187905260a0608482015260a48101949094529092911690819063f242432a9060c4015b600060405180830381600087803b158015611e3d57600080fd5b505af1158015611e51573d6000803e3d6000fd5b505050505050505050565b600080546001600160a01b038381166001600160a01b0319831681178455604051919092169283917f8be0079c531659141344cd1fd0a4f28419497f9722a3daafe3b4186f6b6457e09190a35050565b611eb4611be5565b6000805460ff60a01b1916600160a01b1790557f62e78cea01bee320cd4e420270b5ea74000d11b0c9f74754ebdbfc544b05a258611b3c3390565b600080846040517efdd58e0000000000000000000000000000000000000000000000000000000081526001600160a01b0386811660048301526024820186905291925060009183169062fdd58e90604401602060405180830381865afa158015611f5d573d6000803e3d6000fd5b505050506040513d601f19601f82011682018060405250810190611f819190612d32565b1195945050505050565b604051637921219560e11b81526001600160a01b038481166004830152306024830152604482018490526064820183905260a06084830152600060a483015285919082169063f242432a9060c401611e23565b603c8160c0015110156120335760405162461bcd60e51b815260206004820152601a60248201527f436c6f636b53616c653a494e56414c49445f4455524154494f4e000000000000604482015260640161022f565b600061203e60025490565b600081815260076020908152604091829020855181546001600160a01b039182166001600160a01b031991821617835583880151600184018054919093169116179055918501516002830155606085015160038301556080850151600483015560a0850151805193945085936120ba926005850192019061237c565b5060c0820151600682015560e0820151600782015561010082015160088201805460ff191660018360028111156120f3576120f361254d565b02179055505060028054600101905550807ff9c99bc06ec756a1ee15926ba230824a827d2d5e1ac2b0b6b0a202df63220f3583602001518460400151856060015186608001518760a001518860c001518960e001518a60000151604051612161989796959493929190612dc5565b60405180910390a25050565b600081815260076020526040902060088101805460ff19166002179055600381015481546121a59184916001600160a01b0316611db9565b60405182907f2c56893f6f6026d19bd17b7d05c9f15c522de1ae2b1c3a825f91a73c799321f290600090a25050565b804710156122245760405162461bcd60e51b815260206004820152601d60248201527f416464726573733a20696e73756666696369656e742062616c616e6365000000604482015260640161022f565b6000826001600160a01b03168260405160006040518083038185875af1925050503d8060008114612271576040519150601f19603f3d011682016040523d82523d6000602084013e612276565b606091505b50509050806114015760405162461bcd60e51b815260206004820152603a60248201527f416464726573733a20756e61626c6520746f2073656e642076616c75652c207260448201527f6563697069656e74206d61792068617665207265766572746564000000000000606482015260840161022f565b80516a636f6e736f6c652e6c6f67602083016000808483855afa5050505050565b60405180610120016040528060006001600160a01b0316815260200160006001600160a01b03168152602001600081526020016000815260200160008152602001606081526020016000815260200160008152602001600060028111156123775761237761254d565b905290565b8280548282559060005260206000209081019282156123d1579160200282015b828111156123d157825182546001600160a01b0319166001600160a01b0390911617825560209092019160019091019061239c565b506123dd9291506123e1565b5090565b5b808211156123dd57600081556001016123e2565b634e487b7160e01b600052604160045260246000fd5b604051601f8201601f1916810167ffffffffffffffff81118282101715612435576124356123f6565b604052919050565b600067ffffffffffffffff821115612457576124576123f6565b5060051b60200190565b600082601f83011261247257600080fd5b813560206124876124828361243d565b61240c565b82815260059290921b840181019181810190868411156124a657600080fd5b8286015b848110156124c157803583529183019183016124aa565b509695505050505050565b6000602082840312156124de57600080fd5b813567ffffffffffffffff8111156124f557600080fd5b61250184828501612461565b949350505050565b600081518084526020808501945080840160005b838110156125425781516001600160a01b03168752958201959082019060010161251d565b509495945050505050565b634e487b7160e01b600052602160045260246000fd5b6003811061258157634e487b7160e01b600052602160045260246000fd5b9052565b60006020808301818452808551808352604092508286019150828160051b87010184880160005b8381101561265957888303603f19018552815180516001600160a01b03168452610120818901516001600160a01b038116868b0152508188015185890152606080830151908601526080808301519086015260a08083015181870183905261261683880182612509565b9250505060c080830151818701525060e080830151818701525061010080830151925061264581870184612563565b5095880195935050908601906001016125ac565b509098975050505050505050565b60006020828403121561267957600080fd5b81356001600160e01b0319811681146118f057600080fd5b80356001600160a01b03811681146126a857600080fd5b919050565b6000602082840312156126bf57600080fd5b6118f082612691565b6000806000606084860312156126dd57600080fd5b833567ffffffffffffffff808211156126f557600080fd5b61270187838801612461565b9450602086013591508082111561271757600080fd5b5061272486828701612461565b92505061273360408501612691565b90509250925092565b801515811461198457600080fd5b6000806040838503121561275d57600080fd5b61276683612691565b915060208301356127768161273c565b809150509250929050565b60008060006060848603121561279657600080fd5b833592506127a660208501612691565b9150604084013590509250925092565b6000806000606084860312156127cb57600080fd5b833592506020840135915061273360408501612691565b6000806000606084860312156127f757600080fd5b61280084612691565b92506127a660208501612691565b60006020828403121561282057600080fd5b5035919050565b60008060008060008060c0878903121561284057600080fd5b61284987612691565b9550602080880135955060408801359450606088013567ffffffffffffffff81111561287457600080fd5b8801601f81018a1361288557600080fd5b80356128936124828261243d565b81815260059190911b8201830190838101908c8311156128b257600080fd5b928401925b828410156128d7576128c884612691565b825292840192908401906128b7565b999c989b50969960808101359860a090910135975095505050505050565b6000610100820190506001600160a01b03808b168352808a166020840152508760408301528660608301528560808301528460a08301528360c083015261293f60e0830184612563565b9998505050505050505050565b600082601f83011261295d57600080fd5b813567ffffffffffffffff811115612977576129776123f6565b61298a601f8201601f191660200161240c565b81815284602083860101111561299f57600080fd5b816020850160208301376000918101602001919091529392505050565b600080600080600060a086880312156129d457600080fd5b6129dd86612691565b94506129eb60208701612691565b9350604086013567ffffffffffffffff80821115612a0857600080fd5b612a1489838a01612461565b94506060880135915080821115612a2a57600080fd5b612a3689838a01612461565b93506080880135915080821115612a4c57600080fd5b50612a598882890161294c565b9150509295509295909350565b600080600060608486031215612a7b57600080fd5b83359250612a8b60208501612691565b915061273360408501612691565b600080600080600060a08688031215612ab157600080fd5b612aba86612691565b9450612ac860208701612691565b93506040860135925060608601359150608086013567ffffffffffffffff811115612af257600080fd5b612a598882890161294c565b634e487b7160e01b600052603260045260246000fd5b634e487b7160e01b600052601160045260246000fd5b6000600019821415612b3e57612b3e612b14565b5060010190565b805169ffffffffffffffffffff811681146126a857600080fd5b600080600080600060a08688031215612b7757600080fd5b612b8086612b45565b9450602086015193506040860151925060608601519150612ba360808701612b45565b90509295509295909350565b600060208284031215612bc157600080fd5b815160ff811681146118f057600080fd5b60008219821115612be557612be5612b14565b500190565b600082821015612bfc57612bfc612b14565b500390565b600181815b80851115612c3c578160001904821115612c2257612c22612b14565b80851615612c2f57918102915b93841c9390800290612c06565b509250929050565b600082612c53575060016108f0565b81612c60575060006108f0565b8160018114612c765760028114612c8057612c9c565b60019150506108f0565b60ff841115612c9157612c91612b14565b50506001821b6108f0565b5060208310610133831016604e8410600b8410161715612cbf575081810a6108f0565b612cc98383612c01565b8060001904821115612cdd57612cdd612b14565b029392505050565b60006118f08383612c44565b6000816000190483118215151615612d0b57612d0b612b14565b500290565b600082612d2d57634e487b7160e01b600052601260045260246000fd5b500490565b600060208284031215612d4457600080fd5b5051919050565b600060208284031215612d5d57600080fd5b81516118f08161273c565b604081526000835180604084015260005b81811015612d965760208187018101516060868401015201612d79565b81811115612da8576000606083860101525b50602083019390935250601f91909101601f191601606001919050565b60006101008083016001600160a01b03808d16855260208c818701528b60408701528a6060870152836080870152829350895180845261012087019450818b01935060005b81811015612e28578451841686529482019493820193600101612e0a565b505050505060a0830186905260c083018590526001600160a01b03841660e0840152905061293f56fea26469706673582212204c03b5195935b78636cd19270a4cdba8d729b11f6ffbdd468543dac1c08e3a1564736f6c634300080b0033",
  "linkReferences": {},
  "deployedLinkReferences": {}
}