{
  "_format": "hh-sol-artifact-1",
  "contractName": "ClockAuction",
  "sourceName": "contracts/ClockAuction.sol",
  "abi": [
    {
      "inputs": [
        {
          "internalType": "uint256",
          "name": "_ownerCut",
          "type": "uint256"
        }
      ],
      "stateMutability": "nonpayable",
      "type": "constructor"
    },
    {
      "anonymous": false,
      "inputs": [
        {
          "indexed": true,
          "internalType": "address",
          "name": "_nftAddress",
          "type": "address"
        },
        {
          "indexed": true,
          "internalType": "uint256",
          "name": "_tokenId",
          "type": "uint256"
        }
      ],
      "name": "AuctionCancelled",
      "type": "event"
    },
    {
      "anonymous": false,
      "inputs": [
        {
          "indexed": true,
          "internalType": "address",
          "name": "_nftAddress",
          "type": "address"
        },
        {
          "indexed": true,
          "internalType": "uint256",
          "name": "_tokenId",
          "type": "uint256"
        },
        {
          "indexed": false,
          "internalType": "uint256",
          "name": "_startingPrice",
          "type": "uint256"
        },
        {
          "indexed": false,
          "internalType": "uint256",
          "name": "_endingPrice",
          "type": "uint256"
        },
        {
          "indexed": false,
          "internalType": "uint256",
          "name": "_duration",
          "type": "uint256"
        },
        {
          "indexed": false,
          "internalType": "address",
          "name": "_seller",
          "type": "address"
        }
      ],
      "name": "AuctionCreated",
      "type": "event"
    },
    {
      "anonymous": false,
      "inputs": [
        {
          "indexed": true,
          "internalType": "address",
          "name": "_nftAddress",
          "type": "address"
        },
        {
          "indexed": true,
          "internalType": "uint256",
          "name": "_tokenId",
          "type": "uint256"
        },
        {
          "indexed": false,
          "internalType": "uint256",
          "name": "_totalPrice",
          "type": "uint256"
        },
        {
          "indexed": false,
          "internalType": "address",
          "name": "_winner",
          "type": "address"
        }
      ],
      "name": "AuctionSuccessful",
      "type": "event"
    },
    {
      "anonymous": false,
      "inputs": [
        {
          "indexed": true,
          "internalType": "address",
          "name": "previousOwner",
          "type": "address"
        },
        {
          "indexed": true,
          "internalType": "address",
          "name": "newOwner",
          "type": "address"
        }
      ],
      "name": "OwnershipTransferred",
      "type": "event"
    },
    {
      "anonymous": false,
      "inputs": [
        {
          "indexed": false,
          "internalType": "address",
          "name": "account",
          "type": "address"
        }
      ],
      "name": "Paused",
      "type": "event"
    },
    {
      "anonymous": false,
      "inputs": [
        {
          "indexed": false,
          "internalType": "address",
          "name": "account",
          "type": "address"
        }
      ],
      "name": "Unpaused",
      "type": "event"
    },
    {
      "inputs": [
        {
          "internalType": "address",
          "name": "",
          "type": "address"
        },
        {
          "internalType": "uint256",
          "name": "",
          "type": "uint256"
        }
      ],
      "name": "auctions",
      "outputs": [
        {
          "internalType": "address",
          "name": "seller",
          "type": "address"
        },
        {
          "internalType": "uint128",
          "name": "startingPrice",
          "type": "uint128"
        },
        {
          "internalType": "uint128",
          "name": "endingPrice",
          "type": "uint128"
        },
        {
          "internalType": "uint64",
          "name": "duration",
          "type": "uint64"
        },
        {
          "internalType": "uint64",
          "name": "startedAt",
          "type": "uint64"
        }
      ],
      "stateMutability": "view",
      "type": "function"
    },
    {
      "inputs": [
        {
          "internalType": "address",
          "name": "_nftAddress",
          "type": "address"
        },
        {
          "internalType": "uint256",
          "name": "_tokenId",
          "type": "uint256"
        }
      ],
      "name": "bid",
      "outputs": [],
      "stateMutability": "payable",
      "type": "function"
    },
    {
      "inputs": [
        {
          "internalType": "address",
          "name": "_nftAddress",
          "type": "address"
        },
        {
          "internalType": "uint256",
          "name": "_tokenId",
          "type": "uint256"
        }
      ],
      "name": "cancelAuction",
      "outputs": [],
      "stateMutability": "nonpayable",
      "type": "function"
    },
    {
      "inputs": [
        {
          "internalType": "address",
          "name": "_nftAddress",
          "type": "address"
        },
        {
          "internalType": "uint256",
          "name": "_tokenId",
          "type": "uint256"
        }
      ],
      "name": "cancelAuctionWhenPaused",
      "outputs": [],
      "stateMutability": "nonpayable",
      "type": "function"
    },
    {
      "inputs": [
        {
          "internalType": "address",
          "name": "_nftAddress",
          "type": "address"
        },
        {
          "internalType": "uint256",
          "name": "_tokenId",
          "type": "uint256"
        },
        {
          "internalType": "uint256",
          "name": "_startingPrice",
          "type": "uint256"
        },
        {
          "internalType": "uint256",
          "name": "_endingPrice",
          "type": "uint256"
        },
        {
          "internalType": "uint256",
          "name": "_duration",
          "type": "uint256"
        }
      ],
      "name": "createAuction",
      "outputs": [],
      "stateMutability": "nonpayable",
      "type": "function"
    },
    {
      "inputs": [
        {
          "internalType": "address",
          "name": "_nftAddress",
          "type": "address"
        },
        {
          "internalType": "uint256",
          "name": "_tokenId",
          "type": "uint256"
        }
      ],
      "name": "getAuction",
      "outputs": [
        {
          "internalType": "address",
          "name": "seller",
          "type": "address"
        },
        {
          "internalType": "uint256",
          "name": "startingPrice",
          "type": "uint256"
        },
        {
          "internalType": "uint256",
          "name": "endingPrice",
          "type": "uint256"
        },
        {
          "internalType": "uint256",
          "name": "duration",
          "type": "uint256"
        },
        {
          "internalType": "uint256",
          "name": "startedAt",
          "type": "uint256"
        }
      ],
      "stateMutability": "view",
      "type": "function"
    },
    {
      "inputs": [
        {
          "internalType": "address",
          "name": "_nftAddress",
          "type": "address"
        },
        {
          "internalType": "uint256",
          "name": "_tokenId",
          "type": "uint256"
        }
      ],
      "name": "getCurrentPrice",
      "outputs": [
        {
          "internalType": "uint256",
          "name": "",
          "type": "uint256"
        }
      ],
      "stateMutability": "view",
      "type": "function"
    },
    {
      "inputs": [
        {
          "internalType": "address",
          "name": "",
          "type": "address"
        },
        {
          "internalType": "address",
          "name": "",
          "type": "address"
        },
        {
          "internalType": "uint256[]",
          "name": "",
          "type": "uint256[]"
        },
        {
          "internalType": "uint256[]",
          "name": "",
          "type": "uint256[]"
        },
        {
          "internalType": "bytes",
          "name": "",
          "type": "bytes"
        }
      ],
      "name": "onERC1155BatchReceived",
      "outputs": [
        {
          "internalType": "bytes4",
          "name": "",
          "type": "bytes4"
        }
      ],
      "stateMutability": "nonpayable",
      "type": "function"
    },
    {
      "inputs": [
        {
          "internalType": "address",
          "name": "",
          "type": "address"
        },
        {
          "internalType": "address",
          "name": "",
          "type": "address"
        },
        {
          "internalType": "uint256",
          "name": "",
          "type": "uint256"
        },
        {
          "internalType": "uint256",
          "name": "",
          "type": "uint256"
        },
        {
          "internalType": "bytes",
          "name": "",
          "type": "bytes"
        }
      ],
      "name": "onERC1155Received",
      "outputs": [
        {
          "internalType": "bytes4",
          "name": "",
          "type": "bytes4"
        }
      ],
      "stateMutability": "nonpayable",
      "type": "function"
    },
    {
      "inputs": [],
      "name": "owner",
      "outputs": [
        {
          "internalType": "address",
          "name": "",
          "type": "address"
        }
      ],
      "stateMutability": "view",
      "type": "function"
    },
    {
      "inputs": [],
      "name": "ownerCut",
      "outputs": [
        {
          "internalType": "uint256",
          "name": "",
          "type": "uint256"
        }
      ],
      "stateMutability": "view",
      "type": "function"
    },
    {
      "inputs": [],
      "name": "paused",
      "outputs": [
        {
          "internalType": "bool",
          "name": "",
          "type": "bool"
        }
      ],
      "stateMutability": "view",
      "type": "function"
    },
    {
      "inputs": [],
      "name": "renounceOwnership",
      "outputs": [],
      "stateMutability": "nonpayable",
      "type": "function"
    },
    {
      "inputs": [
        {
          "internalType": "address",
          "name": "nftAddress",
          "type": "address"
        },
        {
          "internalType": "bool",
          "name": "isAllowed",
          "type": "bool"
        }
      ],
      "name": "setNftAllowed",
      "outputs": [],
      "stateMutability": "nonpayable",
      "type": "function"
    },
    {
      "inputs": [
        {
          "internalType": "bytes4",
          "name": "interfaceId",
          "type": "bytes4"
        }
      ],
      "name": "supportsInterface",
      "outputs": [
        {
          "internalType": "bool",
          "name": "",
          "type": "bool"
        }
      ],
      "stateMutability": "view",
      "type": "function"
    },
    {
      "inputs": [
        {
          "internalType": "address",
          "name": "newOwner",
          "type": "address"
        }
      ],
      "name": "transferOwnership",
      "outputs": [],
      "stateMutability": "nonpayable",
      "type": "function"
    },
    {
      "stateMutability": "payable",
      "type": "receive"
    }
  ],
  "bytecode": "0x60806040523480156200001157600080fd5b5060405162002dbe38038062002dbe83398181016040528101906200003791906200019b565b620000576200004b6200008f60201b60201c565b6200009760201b60201c565b60008060146101000a81548160ff0219169083151502179055506127108111156200008157600080fd5b8060018190555050620001cd565b600033905090565b60008060009054906101000a900473ffffffffffffffffffffffffffffffffffffffff169050816000806101000a81548173ffffffffffffffffffffffffffffffffffffffff021916908373ffffffffffffffffffffffffffffffffffffffff1602179055508173ffffffffffffffffffffffffffffffffffffffff168173ffffffffffffffffffffffffffffffffffffffff167f8be0079c531659141344cd1fd0a4f28419497f9722a3daafe3b4186f6b6457e060405160405180910390a35050565b600080fd5b6000819050919050565b620001758162000160565b81146200018157600080fd5b50565b60008151905062000195816200016a565b92915050565b600060208284031215620001b457620001b36200015b565b5b6000620001c48482850162000184565b91505092915050565b612be180620001dd6000396000f3fe6080604052600436106100f75760003560e01c8063762a66a21161008a578063961c9ae411610059578063961c9ae41461036f578063bc197c8114610398578063f23a6e61146103d5578063f2fde38b146104125761013f565b8063762a66a2146102af57806383b5ff8b146102f0578063859b97fe1461031b5780638da5cb5b146103445761013f565b806359d667a5116100c657806359d667a5146102145780635c975abb146102305780636c54df521461025b578063715018a6146102985761013f565b806301ffc9a7146101445780631ae6b6ee146101815780631e1d7bb5146101aa57806344f91c1e146101d35761013f565b3661013f57600061013d576040517f08c379a000000000000000000000000000000000000000000000000000000000815260040161013490611a82565b60405180910390fd5b005b600080fd5b34801561015057600080fd5b5061016b60048036038101906101669190611b0e565b61043b565b6040516101789190611b56565b60405180910390f35b34801561018d57600080fd5b506101a860048036038101906101a39190611c05565b6104b5565b005b3480156101b657600080fd5b506101d160048036038101906101cc9190611c71565b610612565b005b3480156101df57600080fd5b506101fa60048036038101906101f59190611c05565b6106e9565b60405161020b959493929190611d0e565b60405180910390f35b61022e60048036038101906102299190611c05565b6107ac565b005b34801561023c57600080fd5b5061024561089b565b6040516102529190611b56565b60405180910390f35b34801561026757600080fd5b50610282600480360381019061027d9190611c05565b6108b1565b60405161028f9190611d70565b60405180910390f35b3480156102a457600080fd5b506102ad61092a565b005b3480156102bb57600080fd5b506102d660048036038101906102d19190611c05565b6109b2565b6040516102e7959493929190611d8b565b60405180910390f35b3480156102fc57600080fd5b50610305610b11565b6040516103129190611d70565b60405180910390f35b34801561032757600080fd5b50610342600480360381019061033d9190611c05565b610b17565b005b34801561035057600080fd5b50610359610c14565b6040516103669190611dde565b60405180910390f35b34801561037b57600080fd5b5061039660048036038101906103919190611df9565b610c3d565b005b3480156103a457600080fd5b506103bf60048036038101906103ba9190612082565b610e53565b6040516103cc9190612160565b60405180910390f35b3480156103e157600080fd5b506103fc60048036038101906103f7919061217b565b610e68565b6040516104099190612160565b60405180910390f35b34801561041e57600080fd5b5061043960048036038101906104349190612212565b610e7d565b005b60007f4e2312e0000000000000000000000000000000000000000000000000000000007bffffffffffffffffffffffffffffffffffffffffffffffffffffffff1916827bffffffffffffffffffffffffffffffffffffffffffffffffffffffff191614806104ae57506104ad82610f75565b5b9050919050565b6104bd61089b565b6104fc576040517f08c379a00000000000000000000000000000000000000000000000000000000081526004016104f39061228b565b60405180910390fd5b610504610fdf565b73ffffffffffffffffffffffffffffffffffffffff16610522610c14565b73ffffffffffffffffffffffffffffffffffffffff1614610578576040517f08c379a000000000000000000000000000000000000000000000000000000000815260040161056f906122f7565b60405180910390fd5b6000600260008473ffffffffffffffffffffffffffffffffffffffff1673ffffffffffffffffffffffffffffffffffffffff168152602001908152602001600020600083815260200190815260200160002090506105d581610fe7565b6105de57600080fd5b61060d83838360000160009054906101000a900473ffffffffffffffffffffffffffffffffffffffff16611015565b505050565b61061a610fdf565b73ffffffffffffffffffffffffffffffffffffffff16610638610c14565b73ffffffffffffffffffffffffffffffffffffffff161461068e576040517f08c379a0000000000000000000000000000000000000000000000000000000008152600401610685906122f7565b60405180910390fd5b80600360008473ffffffffffffffffffffffffffffffffffffffff1673ffffffffffffffffffffffffffffffffffffffff16815260200190815260200160002060006101000a81548160ff0219169083151502179055505050565b6002602052816000526040600020602052806000526040600020600091509150508060000160009054906101000a900473ffffffffffffffffffffffffffffffffffffffff16908060010160009054906101000a90046fffffffffffffffffffffffffffffffff16908060010160109054906101000a90046fffffffffffffffffffffffffffffffff16908060020160009054906101000a900467ffffffffffffffff16908060020160089054906101000a900467ffffffffffffffff16905085565b6107b461089b565b156107f4576040517f08c379a00000000000000000000000000000000000000000000000000000000081526004016107eb90612363565b60405180910390fd5b600360008373ffffffffffffffffffffffffffffffffffffffff1673ffffffffffffffffffffffffffffffffffffffff16815260200190815260200160002060009054906101000a900460ff16610880576040517f08c379a0000000000000000000000000000000000000000000000000000000008152600401610877906123cf565b60405180910390fd5b61088b828234611073565b50610897823383611221565b5050565b60008060149054906101000a900460ff16905090565b600080600260008573ffffffffffffffffffffffffffffffffffffffff1673ffffffffffffffffffffffffffffffffffffffff1681526020019081526020016000206000848152602001908152602001600020905061090f81610fe7565b61091857600080fd5b610921816112a6565b91505092915050565b610932610fdf565b73ffffffffffffffffffffffffffffffffffffffff16610950610c14565b73ffffffffffffffffffffffffffffffffffffffff16146109a6576040517f08c379a000000000000000000000000000000000000000000000000000000000815260040161099d906122f7565b60405180910390fd5b6109b060006113a2565b565b600080600080600080600260008973ffffffffffffffffffffffffffffffffffffffff1673ffffffffffffffffffffffffffffffffffffffff16815260200190815260200160002060008881526020019081526020016000209050610a1681610fe7565b610a1f57600080fd5b8060000160009054906101000a900473ffffffffffffffffffffffffffffffffffffffff168160010160009054906101000a90046fffffffffffffffffffffffffffffffff168260010160109054906101000a90046fffffffffffffffffffffffffffffffff168360020160009054906101000a900467ffffffffffffffff168460020160089054906101000a900467ffffffffffffffff16836fffffffffffffffffffffffffffffffff169350826fffffffffffffffffffffffffffffffff1692508167ffffffffffffffff1691508067ffffffffffffffff16905095509550955095509550509295509295909350565b60015481565b6000600260008473ffffffffffffffffffffffffffffffffffffffff1673ffffffffffffffffffffffffffffffffffffffff16815260200190815260200160002060008381526020019081526020016000209050610b7481610fe7565b610b7d57600080fd5b8060000160009054906101000a900473ffffffffffffffffffffffffffffffffffffffff1673ffffffffffffffffffffffffffffffffffffffff16610bc0610fdf565b73ffffffffffffffffffffffffffffffffffffffff1614610be057600080fd5b610c0f83838360000160009054906101000a900473ffffffffffffffffffffffffffffffffffffffff16611015565b505050565b60008060009054906101000a900473ffffffffffffffffffffffffffffffffffffffff16905090565b610c4561089b565b15610c85576040517f08c379a0000000000000000000000000000000000000000000000000000000008152600401610c7c90612363565b60405180910390fd5b826fffffffffffffffffffffffffffffffff8110610ca257600080fd5b826fffffffffffffffffffffffffffffffff8110610cbf57600080fd5b8267ffffffffffffffff811115610cd557600080fd5b600360008973ffffffffffffffffffffffffffffffffffffffff1673ffffffffffffffffffffffffffffffffffffffff16815260200190815260200160002060009054906101000a900460ff16610d61576040517f08c379a0000000000000000000000000000000000000000000000000000000008152600401610d58906123cf565b60405180910390fd5b6000610d6b610fdf565b9050610d7889828a611466565b610db7576040517f08c379a0000000000000000000000000000000000000000000000000000000008152600401610dae9061243b565b60405180910390fd5b610dc289828a6114fc565b60006040518060a001604052808373ffffffffffffffffffffffffffffffffffffffff168152602001896fffffffffffffffffffffffffffffffff168152602001886fffffffffffffffffffffffffffffffff1681526020018767ffffffffffffffff1681526020014267ffffffffffffffff168152509050610e478a8a8385611581565b50505050505050505050565b600063bc197c8160e01b905095945050505050565b600063f23a6e6160e01b905095945050505050565b610e85610fdf565b73ffffffffffffffffffffffffffffffffffffffff16610ea3610c14565b73ffffffffffffffffffffffffffffffffffffffff1614610ef9576040517f08c379a0000000000000000000000000000000000000000000000000000000008152600401610ef0906122f7565b60405180910390fd5b600073ffffffffffffffffffffffffffffffffffffffff168173ffffffffffffffffffffffffffffffffffffffff161415610f69576040517f08c379a0000000000000000000000000000000000000000000000000000000008152600401610f60906124cd565b60405180910390fd5b610f72816113a2565b50565b60007f01ffc9a7000000000000000000000000000000000000000000000000000000007bffffffffffffffffffffffffffffffffffffffffffffffffffffffff1916827bffffffffffffffffffffffffffffffffffffffffffffffffffffffff1916149050919050565b600033905090565b6000808260020160089054906101000a900467ffffffffffffffff1667ffffffffffffffff16119050919050565b61101f83836117a9565b61102a838284611221565b818373ffffffffffffffffffffffffffffffffffffffff167f018b64b6242d32aa550e95d78985b938d71af5b3f10827b0683f55da1639304860405160405180910390a3505050565b600080600260008673ffffffffffffffffffffffffffffffffffffffff1673ffffffffffffffffffffffffffffffffffffffff168152602001908152602001600020600085815260200190815260200160002090506110d181610fe7565b6110da57600080fd5b60006110e5826112a6565b9050808410156110f457600080fd5b60008260000160009054906101000a900473ffffffffffffffffffffffffffffffffffffffff16905061112787876117a9565b600082111561117957600061113b836118a3565b90506000818461114b919061251c565b9050611176818473ffffffffffffffffffffffffffffffffffffffff166118c790919063ffffffff16565b50505b818511156111c3576000828661118f919061251c565b90506111c18161119d610fdf565b73ffffffffffffffffffffffffffffffffffffffff166118c790919063ffffffff16565b505b858773ffffffffffffffffffffffffffffffffffffffff167f6c00bb44a64da29b6a73920d50ff280237d277bda3e1f3cdf4e24392e6839efe843360405161120c929190612550565b60405180910390a38193505050509392505050565b600061122c846119bb565b90508073ffffffffffffffffffffffffffffffffffffffff1663f242432a30858560016040518563ffffffff1660e01b815260040161126e94939291906125f5565b600060405180830381600087803b15801561128857600080fd5b505af115801561129c573d6000803e3d6000fd5b5050505050505050565b600080600090508260020160089054906101000a900467ffffffffffffffff1667ffffffffffffffff16421115611308578260020160089054906101000a900467ffffffffffffffff1667ffffffffffffffff1642611305919061251c565b90505b61139a8360010160009054906101000a90046fffffffffffffffffffffffffffffffff166fffffffffffffffffffffffffffffffff168460010160109054906101000a90046fffffffffffffffffffffffffffffffff166fffffffffffffffffffffffffffffffff168560020160009054906101000a900467ffffffffffffffff1667ffffffffffffffff16846119ca565b915050919050565b60008060009054906101000a900473ffffffffffffffffffffffffffffffffffffffff169050816000806101000a81548173ffffffffffffffffffffffffffffffffffffffff021916908373ffffffffffffffffffffffffffffffffffffffff1602179055508173ffffffffffffffffffffffffffffffffffffffff168173ffffffffffffffffffffffffffffffffffffffff167f8be0079c531659141344cd1fd0a4f28419497f9722a3daafe3b4186f6b6457e060405160405180910390a35050565b600080611472856119bb565b905060008173ffffffffffffffffffffffffffffffffffffffff1662fdd58e86866040518363ffffffff1660e01b81526004016114b092919061264d565b602060405180830381865afa1580156114cd573d6000803e3d6000fd5b505050506040513d601f19601f820116820180604052508101906114f1919061268b565b119150509392505050565b6000611507846119bb565b90508073ffffffffffffffffffffffffffffffffffffffff1663f242432a84308560016040518563ffffffff1660e01b815260040161154994939291906125f5565b600060405180830381600087803b15801561156357600080fd5b505af1158015611577573d6000803e3d6000fd5b5050505050505050565b603c826060015167ffffffffffffffff16101561159d57600080fd5b81600260008673ffffffffffffffffffffffffffffffffffffffff1673ffffffffffffffffffffffffffffffffffffffff168152602001908152602001600020600085815260200190815260200160002060008201518160000160006101000a81548173ffffffffffffffffffffffffffffffffffffffff021916908373ffffffffffffffffffffffffffffffffffffffff16021790555060208201518160010160006101000a8154816fffffffffffffffffffffffffffffffff02191690836fffffffffffffffffffffffffffffffff16021790555060408201518160010160106101000a8154816fffffffffffffffffffffffffffffffff02191690836fffffffffffffffffffffffffffffffff16021790555060608201518160020160006101000a81548167ffffffffffffffff021916908367ffffffffffffffff16021790555060808201518160020160086101000a81548167ffffffffffffffff021916908367ffffffffffffffff160217905550905050828473ffffffffffffffffffffffffffffffffffffffff167febc6e332a2c695c53d77b2922a18bcf3ab024549f5f2bfa67e0875ec29d59d4684602001516fffffffffffffffffffffffffffffffff1685604001516fffffffffffffffffffffffffffffffff16866060015167ffffffffffffffff168660405161179b94939291906126b8565b60405180910390a350505050565b600260008373ffffffffffffffffffffffffffffffffffffffff1673ffffffffffffffffffffffffffffffffffffffff1681526020019081526020016000206000828152602001908152602001600020600080820160006101000a81549073ffffffffffffffffffffffffffffffffffffffff02191690556001820160006101000a8154906fffffffffffffffffffffffffffffffff02191690556001820160106101000a8154906fffffffffffffffffffffffffffffffff02191690556002820160006101000a81549067ffffffffffffffff02191690556002820160086101000a81549067ffffffffffffffff021916905550505050565b6000612710600154836118b691906126fd565b6118c09190612786565b9050919050565b8047101561190a576040517f08c379a000000000000000000000000000000000000000000000000000000000815260040161190190612803565b60405180910390fd5b60008273ffffffffffffffffffffffffffffffffffffffff168260405161193090612851565b60006040518083038185875af1925050503d806000811461196d576040519150601f19603f3d011682016040523d82523d6000602084013e611972565b606091505b50509050806119b6576040517f08c379a00000000000000000000000000000000000000000000000000000000081526004016119ad906128d8565b60405180910390fd5b505050565b60008082905080915050919050565b60008282106119db57839050611a1d565b600085856119e99190612902565b905060008484836119fa9190612996565b611a049190612aad565b905060008188611a149190612b17565b90508093505050505b949350505050565b600082825260208201905092915050565b7f444f4e545f53454e440000000000000000000000000000000000000000000000600082015250565b6000611a6c600983611a25565b9150611a7782611a36565b602082019050919050565b60006020820190508181036000830152611a9b81611a5f565b9050919050565b6000604051905090565b600080fd5b600080fd5b60007fffffffff0000000000000000000000000000000000000000000000000000000082169050919050565b611aeb81611ab6565b8114611af657600080fd5b50565b600081359050611b0881611ae2565b92915050565b600060208284031215611b2457611b23611aac565b5b6000611b3284828501611af9565b91505092915050565b60008115159050919050565b611b5081611b3b565b82525050565b6000602082019050611b6b6000830184611b47565b92915050565b600073ffffffffffffffffffffffffffffffffffffffff82169050919050565b6000611b9c82611b71565b9050919050565b611bac81611b91565b8114611bb757600080fd5b50565b600081359050611bc981611ba3565b92915050565b6000819050919050565b611be281611bcf565b8114611bed57600080fd5b50565b600081359050611bff81611bd9565b92915050565b60008060408385031215611c1c57611c1b611aac565b5b6000611c2a85828601611bba565b9250506020611c3b85828601611bf0565b9150509250929050565b611c4e81611b3b565b8114611c5957600080fd5b50565b600081359050611c6b81611c45565b92915050565b60008060408385031215611c8857611c87611aac565b5b6000611c9685828601611bba565b9250506020611ca785828601611c5c565b9150509250929050565b611cba81611b91565b82525050565b60006fffffffffffffffffffffffffffffffff82169050919050565b611ce581611cc0565b82525050565b600067ffffffffffffffff82169050919050565b611d0881611ceb565b82525050565b600060a082019050611d236000830188611cb1565b611d306020830187611cdc565b611d3d6040830186611cdc565b611d4a6060830185611cff565b611d576080830184611cff565b9695505050505050565b611d6a81611bcf565b82525050565b6000602082019050611d856000830184611d61565b92915050565b600060a082019050611da06000830188611cb1565b611dad6020830187611d61565b611dba6040830186611d61565b611dc76060830185611d61565b611dd46080830184611d61565b9695505050505050565b6000602082019050611df36000830184611cb1565b92915050565b600080600080600060a08688031215611e1557611e14611aac565b5b6000611e2388828901611bba565b9550506020611e3488828901611bf0565b9450506040611e4588828901611bf0565b9350506060611e5688828901611bf0565b9250506080611e6788828901611bf0565b9150509295509295909350565b600080fd5b6000601f19601f8301169050919050565b7f4e487b7100000000000000000000000000000000000000000000000000000000600052604160045260246000fd5b611ec282611e79565b810181811067ffffffffffffffff82111715611ee157611ee0611e8a565b5b80604052505050565b6000611ef4611aa2565b9050611f008282611eb9565b919050565b600067ffffffffffffffff821115611f2057611f1f611e8a565b5b602082029050602081019050919050565b600080fd5b6000611f49611f4484611f05565b611eea565b90508083825260208201905060208402830185811115611f6c57611f6b611f31565b5b835b81811015611f955780611f818882611bf0565b845260208401935050602081019050611f6e565b5050509392505050565b600082601f830112611fb457611fb3611e74565b5b8135611fc4848260208601611f36565b91505092915050565b600080fd5b600067ffffffffffffffff821115611fed57611fec611e8a565b5b611ff682611e79565b9050602081019050919050565b82818337600083830152505050565b600061202561202084611fd2565b611eea565b90508281526020810184848401111561204157612040611fcd565b5b61204c848285612003565b509392505050565b600082601f83011261206957612068611e74565b5b8135612079848260208601612012565b91505092915050565b600080600080600060a0868803121561209e5761209d611aac565b5b60006120ac88828901611bba565b95505060206120bd88828901611bba565b945050604086013567ffffffffffffffff8111156120de576120dd611ab1565b5b6120ea88828901611f9f565b935050606086013567ffffffffffffffff81111561210b5761210a611ab1565b5b61211788828901611f9f565b925050608086013567ffffffffffffffff81111561213857612137611ab1565b5b61214488828901612054565b9150509295509295909350565b61215a81611ab6565b82525050565b60006020820190506121756000830184612151565b92915050565b600080600080600060a0868803121561219757612196611aac565b5b60006121a588828901611bba565b95505060206121b688828901611bba565b94505060406121c788828901611bf0565b93505060606121d888828901611bf0565b925050608086013567ffffffffffffffff8111156121f9576121f8611ab1565b5b61220588828901612054565b9150509295509295909350565b60006020828403121561222857612227611aac565b5b600061223684828501611bba565b91505092915050565b7f5061757361626c653a206e6f7420706175736564000000000000000000000000600082015250565b6000612275601483611a25565b91506122808261223f565b602082019050919050565b600060208201905081810360008301526122a481612268565b9050919050565b7f4f776e61626c653a2063616c6c6572206973206e6f7420746865206f776e6572600082015250565b60006122e1602083611a25565b91506122ec826122ab565b602082019050919050565b60006020820190508181036000830152612310816122d4565b9050919050565b7f5061757361626c653a2070617573656400000000000000000000000000000000600082015250565b600061234d601083611a25565b915061235882612317565b602082019050919050565b6000602082019050818103600083015261237c81612340565b9050919050565b7f4e6674206e6f7420616c6c6f7765640000000000000000000000000000000000600082015250565b60006123b9600f83611a25565b91506123c482612383565b602082019050919050565b600060208201905081810360008301526123e8816123ac565b9050919050565b7f5573657220646f65736e2774206f776e73206e66740000000000000000000000600082015250565b6000612425601583611a25565b9150612430826123ef565b602082019050919050565b6000602082019050818103600083015261245481612418565b9050919050565b7f4f776e61626c653a206e6577206f776e657220697320746865207a65726f206160008201527f6464726573730000000000000000000000000000000000000000000000000000602082015250565b60006124b7602683611a25565b91506124c28261245b565b604082019050919050565b600060208201905081810360008301526124e6816124aa565b9050919050565b7f4e487b7100000000000000000000000000000000000000000000000000000000600052601160045260246000fd5b600061252782611bcf565b915061253283611bcf565b925082821015612545576125446124ed565b5b828203905092915050565b60006040820190506125656000830185611d61565b6125726020830184611cb1565b9392505050565b6000819050919050565b6000819050919050565b60006125a86125a361259e84612579565b612583565b611bcf565b9050919050565b6125b88161258d565b82525050565b600082825260208201905092915050565b50565b60006125df6000836125be565b91506125ea826125cf565b600082019050919050565b600060a08201905061260a6000830187611cb1565b6126176020830186611cb1565b6126246040830185611d61565b61263160608301846125af565b8181036080830152612642816125d2565b905095945050505050565b60006040820190506126626000830185611cb1565b61266f6020830184611d61565b9392505050565b60008151905061268581611bd9565b92915050565b6000602082840312156126a1576126a0611aac565b5b60006126af84828501612676565b91505092915050565b60006080820190506126cd6000830187611d61565b6126da6020830186611d61565b6126e76040830185611d61565b6126f46060830184611cb1565b95945050505050565b600061270882611bcf565b915061271383611bcf565b9250817fffffffffffffffffffffffffffffffffffffffffffffffffffffffffffffffff048311821515161561274c5761274b6124ed565b5b828202905092915050565b7f4e487b7100000000000000000000000000000000000000000000000000000000600052601260045260246000fd5b600061279182611bcf565b915061279c83611bcf565b9250826127ac576127ab612757565b5b828204905092915050565b7f416464726573733a20696e73756666696369656e742062616c616e6365000000600082015250565b60006127ed601d83611a25565b91506127f8826127b7565b602082019050919050565b6000602082019050818103600083015261281c816127e0565b9050919050565b600081905092915050565b600061283b600083612823565b9150612846826125cf565b600082019050919050565b600061285c8261282e565b9150819050919050565b7f416464726573733a20756e61626c6520746f2073656e642076616c75652c207260008201527f6563697069656e74206d61792068617665207265766572746564000000000000602082015250565b60006128c2603a83611a25565b91506128cd82612866565b604082019050919050565b600060208201905081810360008301526128f1816128b5565b9050919050565b6000819050919050565b600061290d826128f8565b9150612918836128f8565b9250827f800000000000000000000000000000000000000000000000000000000000000001821260008412151615612953576129526124ed565b5b827f7fffffffffffffffffffffffffffffffffffffffffffffffffffffffffffffff01821360008412161561298b5761298a6124ed565b5b828203905092915050565b60006129a1826128f8565b91506129ac836128f8565b9250827f7fffffffffffffffffffffffffffffffffffffffffffffffffffffffffffffff04821160008413600084131616156129eb576129ea6124ed565b5b817f80000000000000000000000000000000000000000000000000000000000000000583126000841260008413161615612a2857612a276124ed565b5b827f80000000000000000000000000000000000000000000000000000000000000000582126000841360008412161615612a6557612a646124ed565b5b827f7fffffffffffffffffffffffffffffffffffffffffffffffffffffffffffffff0582126000841260008412161615612aa257612aa16124ed565b5b828202905092915050565b6000612ab8826128f8565b9150612ac3836128f8565b925082612ad357612ad2612757565b5b600160000383147f800000000000000000000000000000000000000000000000000000000000000083141615612b0c57612b0b6124ed565b5b828205905092915050565b6000612b22826128f8565b9150612b2d836128f8565b9250817f7fffffffffffffffffffffffffffffffffffffffffffffffffffffffffffffff03831360008312151615612b6857612b676124ed565b5b817f8000000000000000000000000000000000000000000000000000000000000000038312600083121615612ba057612b9f6124ed565b5b82820190509291505056fea2646970667358221220a2dc21390ddd460a6206e3352ca4f9502c23c668f753115651f8145171d6abab64736f6c634300080b0033",
  "linkReferences": {},
  "deployedLinkReferences": {}
}