{
  "_format": "hh-sol-artifact-1",
  "contractName": "ClockAuction",
  "sourceName": "contracts/ClockAuction.sol",
  "abi": [
    {
      "inputs": [
        {
          "internalType": "uint256",
          "name": "_ownerCut",
          "type": "uint256"
        }
      ],
      "stateMutability": "nonpayable",
      "type": "constructor"
    },
    {
      "anonymous": false,
      "inputs": [
        {
          "indexed": true,
          "internalType": "address",
          "name": "_nftAddress",
          "type": "address"
        },
        {
          "indexed": true,
          "internalType": "uint256",
          "name": "_tokenId",
          "type": "uint256"
        }
      ],
      "name": "AuctionCancelled",
      "type": "event"
    },
    {
      "anonymous": false,
      "inputs": [
        {
          "indexed": true,
          "internalType": "address",
          "name": "_nftAddress",
          "type": "address"
        },
        {
          "indexed": true,
          "internalType": "uint256",
          "name": "_tokenId",
          "type": "uint256"
        },
        {
          "indexed": false,
          "internalType": "uint256",
          "name": "_startingPrice",
          "type": "uint256"
        },
        {
          "indexed": false,
          "internalType": "uint256",
          "name": "_endingPrice",
          "type": "uint256"
        },
        {
          "indexed": false,
          "internalType": "uint256",
          "name": "_duration",
          "type": "uint256"
        },
        {
          "indexed": false,
          "internalType": "address",
          "name": "_seller",
          "type": "address"
        }
      ],
      "name": "AuctionCreated",
      "type": "event"
    },
    {
      "anonymous": false,
      "inputs": [
        {
          "indexed": true,
          "internalType": "address",
          "name": "_nftAddress",
          "type": "address"
        },
        {
          "indexed": true,
          "internalType": "uint256",
          "name": "_tokenId",
          "type": "uint256"
        },
        {
          "indexed": false,
          "internalType": "uint256",
          "name": "_totalPrice",
          "type": "uint256"
        },
        {
          "indexed": false,
          "internalType": "address",
          "name": "_winner",
          "type": "address"
        }
      ],
      "name": "AuctionSuccessful",
      "type": "event"
    },
    {
      "anonymous": false,
      "inputs": [
        {
          "indexed": true,
          "internalType": "address",
          "name": "previousOwner",
          "type": "address"
        },
        {
          "indexed": true,
          "internalType": "address",
          "name": "newOwner",
          "type": "address"
        }
      ],
      "name": "OwnershipTransferred",
      "type": "event"
    },
    {
      "anonymous": false,
      "inputs": [
        {
          "indexed": false,
          "internalType": "address",
          "name": "account",
          "type": "address"
        }
      ],
      "name": "Paused",
      "type": "event"
    },
    {
      "anonymous": false,
      "inputs": [
        {
          "indexed": false,
          "internalType": "address",
          "name": "account",
          "type": "address"
        }
      ],
      "name": "Unpaused",
      "type": "event"
    },
    {
      "inputs": [
        {
          "internalType": "address",
          "name": "",
          "type": "address"
        },
        {
          "internalType": "uint256",
          "name": "",
          "type": "uint256"
        }
      ],
      "name": "auctions",
      "outputs": [
        {
          "internalType": "address",
          "name": "seller",
          "type": "address"
        },
        {
          "internalType": "uint128",
          "name": "startingPrice",
          "type": "uint128"
        },
        {
          "internalType": "uint128",
          "name": "endingPrice",
          "type": "uint128"
        },
        {
          "internalType": "uint64",
          "name": "duration",
          "type": "uint64"
        },
        {
          "internalType": "uint64",
          "name": "startedAt",
          "type": "uint64"
        }
      ],
      "stateMutability": "view",
      "type": "function"
    },
    {
      "inputs": [
        {
          "internalType": "address",
          "name": "_nftAddress",
          "type": "address"
        },
        {
          "internalType": "uint256",
          "name": "_tokenId",
          "type": "uint256"
        }
      ],
      "name": "bid",
      "outputs": [],
      "stateMutability": "payable",
      "type": "function"
    },
    {
      "inputs": [
        {
          "internalType": "address",
          "name": "_nftAddress",
          "type": "address"
        },
        {
          "internalType": "uint256",
          "name": "_tokenId",
          "type": "uint256"
        }
      ],
      "name": "cancelAuction",
      "outputs": [],
      "stateMutability": "nonpayable",
      "type": "function"
    },
    {
      "inputs": [
        {
          "internalType": "address",
          "name": "_nftAddress",
          "type": "address"
        },
        {
          "internalType": "uint256",
          "name": "_tokenId",
          "type": "uint256"
        }
      ],
      "name": "cancelAuctionWhenPaused",
      "outputs": [],
      "stateMutability": "nonpayable",
      "type": "function"
    },
    {
      "inputs": [
        {
          "internalType": "address",
          "name": "_nftAddress",
          "type": "address"
        },
        {
          "internalType": "uint256",
          "name": "_tokenId",
          "type": "uint256"
        },
        {
          "internalType": "uint256",
          "name": "_startingPrice",
          "type": "uint256"
        },
        {
          "internalType": "uint256",
          "name": "_endingPrice",
          "type": "uint256"
        },
        {
          "internalType": "uint256",
          "name": "_duration",
          "type": "uint256"
        }
      ],
      "name": "createAuction",
      "outputs": [],
      "stateMutability": "nonpayable",
      "type": "function"
    },
    {
      "inputs": [],
      "name": "genesisBlock",
      "outputs": [
        {
          "internalType": "uint256",
          "name": "",
          "type": "uint256"
        }
      ],
      "stateMutability": "view",
      "type": "function"
    },
    {
      "inputs": [
        {
          "internalType": "address",
          "name": "_nftAddress",
          "type": "address"
        },
        {
          "internalType": "uint256",
          "name": "_tokenId",
          "type": "uint256"
        }
      ],
      "name": "getAuction",
      "outputs": [
        {
          "internalType": "address",
          "name": "seller",
          "type": "address"
        },
        {
          "internalType": "uint256",
          "name": "startingPrice",
          "type": "uint256"
        },
        {
          "internalType": "uint256",
          "name": "endingPrice",
          "type": "uint256"
        },
        {
          "internalType": "uint256",
          "name": "duration",
          "type": "uint256"
        },
        {
          "internalType": "uint256",
          "name": "startedAt",
          "type": "uint256"
        }
      ],
      "stateMutability": "view",
      "type": "function"
    },
    {
      "inputs": [
        {
          "internalType": "address[]",
          "name": "_nftAddresses",
          "type": "address[]"
        },
        {
          "internalType": "uint256[]",
          "name": "_tokenIds",
          "type": "uint256[]"
        }
      ],
      "name": "getAuctions",
      "outputs": [
        {
          "components": [
            {
              "internalType": "address",
              "name": "seller",
              "type": "address"
            },
            {
              "internalType": "uint128",
              "name": "startingPrice",
              "type": "uint128"
            },
            {
              "internalType": "uint128",
              "name": "endingPrice",
              "type": "uint128"
            },
            {
              "internalType": "uint64",
              "name": "duration",
              "type": "uint64"
            },
            {
              "internalType": "uint64",
              "name": "startedAt",
              "type": "uint64"
            }
          ],
          "internalType": "struct ClockAuction.Auction[]",
          "name": "",
          "type": "tuple[]"
        }
      ],
      "stateMutability": "view",
      "type": "function"
    },
    {
      "inputs": [
        {
          "internalType": "address",
          "name": "_nftAddress",
          "type": "address"
        },
        {
          "internalType": "uint256",
          "name": "_tokenId",
          "type": "uint256"
        }
      ],
      "name": "getCurrentPrice",
      "outputs": [
        {
          "internalType": "uint256",
          "name": "",
          "type": "uint256"
        }
      ],
      "stateMutability": "view",
      "type": "function"
    },
    {
      "inputs": [
        {
          "internalType": "address",
          "name": "",
          "type": "address"
        }
      ],
      "name": "isAllowed",
      "outputs": [
        {
          "internalType": "bool",
          "name": "",
          "type": "bool"
        }
      ],
      "stateMutability": "view",
      "type": "function"
    },
    {
      "inputs": [
        {
          "internalType": "address",
          "name": "",
          "type": "address"
        },
        {
          "internalType": "address",
          "name": "",
          "type": "address"
        },
        {
          "internalType": "uint256[]",
          "name": "",
          "type": "uint256[]"
        },
        {
          "internalType": "uint256[]",
          "name": "",
          "type": "uint256[]"
        },
        {
          "internalType": "bytes",
          "name": "",
          "type": "bytes"
        }
      ],
      "name": "onERC1155BatchReceived",
      "outputs": [
        {
          "internalType": "bytes4",
          "name": "",
          "type": "bytes4"
        }
      ],
      "stateMutability": "nonpayable",
      "type": "function"
    },
    {
      "inputs": [
        {
          "internalType": "address",
          "name": "",
          "type": "address"
        },
        {
          "internalType": "address",
          "name": "",
          "type": "address"
        },
        {
          "internalType": "uint256",
          "name": "",
          "type": "uint256"
        },
        {
          "internalType": "uint256",
          "name": "",
          "type": "uint256"
        },
        {
          "internalType": "bytes",
          "name": "",
          "type": "bytes"
        }
      ],
      "name": "onERC1155Received",
      "outputs": [
        {
          "internalType": "bytes4",
          "name": "",
          "type": "bytes4"
        }
      ],
      "stateMutability": "nonpayable",
      "type": "function"
    },
    {
      "inputs": [],
      "name": "owner",
      "outputs": [
        {
          "internalType": "address",
          "name": "",
          "type": "address"
        }
      ],
      "stateMutability": "view",
      "type": "function"
    },
    {
      "inputs": [],
      "name": "ownerCut",
      "outputs": [
        {
          "internalType": "uint256",
          "name": "",
          "type": "uint256"
        }
      ],
      "stateMutability": "view",
      "type": "function"
    },
    {
      "inputs": [],
      "name": "paused",
      "outputs": [
        {
          "internalType": "bool",
          "name": "",
          "type": "bool"
        }
      ],
      "stateMutability": "view",
      "type": "function"
    },
    {
      "inputs": [],
      "name": "renounceOwnership",
      "outputs": [],
      "stateMutability": "nonpayable",
      "type": "function"
    },
    {
      "inputs": [
        {
          "internalType": "address",
          "name": "nftAddress",
          "type": "address"
        },
        {
          "internalType": "bool",
          "name": "allow",
          "type": "bool"
        }
      ],
      "name": "setNftAllowed",
      "outputs": [],
      "stateMutability": "nonpayable",
      "type": "function"
    },
    {
      "inputs": [
        {
          "internalType": "bytes4",
          "name": "interfaceId",
          "type": "bytes4"
        }
      ],
      "name": "supportsInterface",
      "outputs": [
        {
          "internalType": "bool",
          "name": "",
          "type": "bool"
        }
      ],
      "stateMutability": "view",
      "type": "function"
    },
    {
      "inputs": [
        {
          "internalType": "address",
          "name": "newOwner",
          "type": "address"
        }
      ],
      "name": "transferOwnership",
      "outputs": [],
      "stateMutability": "nonpayable",
      "type": "function"
    },
    {
      "stateMutability": "payable",
      "type": "receive"
    }
  ],
  "bytecode": "0x60806040523480156200001157600080fd5b5060405162003577380380620035778339818101604052810190620000379190620001a2565b620000576200004b6200009660201b60201c565b6200009e60201b60201c565b60008060146101000a81548160ff0219169083151502179055506127108111156200008157600080fd5b806001819055504360028190555050620001d4565b600033905090565b60008060009054906101000a900473ffffffffffffffffffffffffffffffffffffffff169050816000806101000a81548173ffffffffffffffffffffffffffffffffffffffff021916908373ffffffffffffffffffffffffffffffffffffffff1602179055508173ffffffffffffffffffffffffffffffffffffffff168173ffffffffffffffffffffffffffffffffffffffff167f8be0079c531659141344cd1fd0a4f28419497f9722a3daafe3b4186f6b6457e060405160405180910390a35050565b600080fd5b6000819050919050565b6200017c8162000167565b81146200018857600080fd5b50565b6000815190506200019c8162000171565b92915050565b600060208284031215620001bb57620001ba62000162565b5b6000620001cb848285016200018b565b91505092915050565b61339380620001e46000396000f3fe6080604052600436106101185760003560e01c8063715018a6116100a0578063961c9ae411610064578063961c9ae4146103f8578063babcc53914610421578063bc197c811461045e578063f23a6e611461049b578063f2fde38b146104d857610160565b8063715018a614610321578063762a66a21461033857806383b5ff8b14610379578063859b97fe146103a45780638da5cb5b146103cd57610160565b806344f91c1e116100e757806344f91c1e146102315780634cdc9c631461027257806359d667a51461029d5780635c975abb146102b95780636c54df52146102e457610160565b806301ffc9a71461016557806314eb2dba146101a25780631ae6b6ee146101df5780631e1d7bb51461020857610160565b3661016057600061015e576040517f08c379a000000000000000000000000000000000000000000000000000000000815260040161015590611eaf565b60405180910390fd5b005b600080fd5b34801561017157600080fd5b5061018c60048036038101906101879190611f3b565b610501565b6040516101999190611f83565b60405180910390f35b3480156101ae57600080fd5b506101c960048036038101906101c4919061224e565b61057b565b6040516101d6919061243a565b60405180910390f35b3480156101eb57600080fd5b506102066004803603810190610201919061245c565b61083f565b005b34801561021457600080fd5b5061022f600480360381019061022a91906124c8565b61099c565b005b34801561023d57600080fd5b506102586004803603810190610253919061245c565b610a73565b604051610269959493929190612535565b60405180910390f35b34801561027e57600080fd5b50610287610b36565b6040516102949190612597565b60405180910390f35b6102b760048036038101906102b2919061245c565b610b3c565b005b3480156102c557600080fd5b506102ce610c2b565b6040516102db9190611f83565b60405180910390f35b3480156102f057600080fd5b5061030b6004803603810190610306919061245c565b610c41565b6040516103189190612597565b60405180910390f35b34801561032d57600080fd5b50610336610cba565b005b34801561034457600080fd5b5061035f600480360381019061035a919061245c565b610d42565b6040516103709594939291906125b2565b60405180910390f35b34801561038557600080fd5b5061038e610ea1565b60405161039b9190612597565b60405180910390f35b3480156103b057600080fd5b506103cb60048036038101906103c6919061245c565b610ea7565b005b3480156103d957600080fd5b506103e2610fa4565b6040516103ef9190612605565b60405180910390f35b34801561040457600080fd5b5061041f600480360381019061041a9190612620565b610fcd565b005b34801561042d57600080fd5b506104486004803603810190610443919061269b565b6111e3565b6040516104559190611f83565b60405180910390f35b34801561046a57600080fd5b506104856004803603810190610480919061277d565b611203565b604051610492919061285b565b60405180910390f35b3480156104a757600080fd5b506104c260048036038101906104bd9190612876565b611218565b6040516104cf919061285b565b60405180910390f35b3480156104e457600080fd5b506104ff60048036038101906104fa919061269b565b61122d565b005b60007f4e2312e0000000000000000000000000000000000000000000000000000000007bffffffffffffffffffffffffffffffffffffffffffffffffffffffff1916827bffffffffffffffffffffffffffffffffffffffffffffffffffffffff19161480610574575061057382611325565b5b9050919050565b606081518351146105c1576040517f08c379a00000000000000000000000000000000000000000000000000000000081526004016105b890612959565b60405180910390fd5b6000825167ffffffffffffffff8111156105de576105dd611fb4565b5b60405190808252806020026020018201604052801561061757816020015b610604611dd5565b8152602001906001900390816105fc5790505b50905060005b8351811015610834576003600086838151811061063d5761063c612979565b5b602002602001015173ffffffffffffffffffffffffffffffffffffffff1673ffffffffffffffffffffffffffffffffffffffff168152602001908152602001600020600085838151811061069457610693612979565b5b602002602001015181526020019081526020016000206040518060a00160405290816000820160009054906101000a900473ffffffffffffffffffffffffffffffffffffffff1673ffffffffffffffffffffffffffffffffffffffff1673ffffffffffffffffffffffffffffffffffffffff1681526020016001820160009054906101000a90046fffffffffffffffffffffffffffffffff166fffffffffffffffffffffffffffffffff166fffffffffffffffffffffffffffffffff1681526020016001820160109054906101000a90046fffffffffffffffffffffffffffffffff166fffffffffffffffffffffffffffffffff166fffffffffffffffffffffffffffffffff1681526020016002820160009054906101000a900467ffffffffffffffff1667ffffffffffffffff1667ffffffffffffffff1681526020016002820160089054906101000a900467ffffffffffffffff1667ffffffffffffffff1667ffffffffffffffff168152505082828151811061081657610815612979565b5b6020026020010181905250808061082c906129d7565b91505061061d565b508091505092915050565b610847610c2b565b610886576040517f08c379a000000000000000000000000000000000000000000000000000000000815260040161087d90612a6c565b60405180910390fd5b61088e61138f565b73ffffffffffffffffffffffffffffffffffffffff166108ac610fa4565b73ffffffffffffffffffffffffffffffffffffffff1614610902576040517f08c379a00000000000000000000000000000000000000000000000000000000081526004016108f990612ad8565b60405180910390fd5b6000600360008473ffffffffffffffffffffffffffffffffffffffff1673ffffffffffffffffffffffffffffffffffffffff1681526020019081526020016000206000838152602001908152602001600020905061095f81611397565b61096857600080fd5b61099783838360000160009054906101000a900473ffffffffffffffffffffffffffffffffffffffff166113c5565b505050565b6109a461138f565b73ffffffffffffffffffffffffffffffffffffffff166109c2610fa4565b73ffffffffffffffffffffffffffffffffffffffff1614610a18576040517f08c379a0000000000000000000000000000000000000000000000000000000008152600401610a0f90612ad8565b60405180910390fd5b80600460008473ffffffffffffffffffffffffffffffffffffffff1673ffffffffffffffffffffffffffffffffffffffff16815260200190815260200160002060006101000a81548160ff0219169083151502179055505050565b6003602052816000526040600020602052806000526040600020600091509150508060000160009054906101000a900473ffffffffffffffffffffffffffffffffffffffff16908060010160009054906101000a90046fffffffffffffffffffffffffffffffff16908060010160109054906101000a90046fffffffffffffffffffffffffffffffff16908060020160009054906101000a900467ffffffffffffffff16908060020160089054906101000a900467ffffffffffffffff16905085565b60025481565b610b44610c2b565b15610b84576040517f08c379a0000000000000000000000000000000000000000000000000000000008152600401610b7b90612b44565b60405180910390fd5b600460008373ffffffffffffffffffffffffffffffffffffffff1673ffffffffffffffffffffffffffffffffffffffff16815260200190815260200160002060009054906101000a900460ff16610c10576040517f08c379a0000000000000000000000000000000000000000000000000000000008152600401610c0790612bb0565b60405180910390fd5b610c1b828234611423565b50610c278233836115d1565b5050565b60008060149054906101000a900460ff16905090565b600080600360008573ffffffffffffffffffffffffffffffffffffffff1673ffffffffffffffffffffffffffffffffffffffff16815260200190815260200160002060008481526020019081526020016000209050610c9f81611397565b610ca857600080fd5b610cb181611656565b91505092915050565b610cc261138f565b73ffffffffffffffffffffffffffffffffffffffff16610ce0610fa4565b73ffffffffffffffffffffffffffffffffffffffff1614610d36576040517f08c379a0000000000000000000000000000000000000000000000000000000008152600401610d2d90612ad8565b60405180910390fd5b610d406000611752565b565b600080600080600080600360008973ffffffffffffffffffffffffffffffffffffffff1673ffffffffffffffffffffffffffffffffffffffff16815260200190815260200160002060008881526020019081526020016000209050610da681611397565b610daf57600080fd5b8060000160009054906101000a900473ffffffffffffffffffffffffffffffffffffffff168160010160009054906101000a90046fffffffffffffffffffffffffffffffff168260010160109054906101000a90046fffffffffffffffffffffffffffffffff168360020160009054906101000a900467ffffffffffffffff168460020160089054906101000a900467ffffffffffffffff16836fffffffffffffffffffffffffffffffff169350826fffffffffffffffffffffffffffffffff1692508167ffffffffffffffff1691508067ffffffffffffffff16905095509550955095509550509295509295909350565b60015481565b6000600360008473ffffffffffffffffffffffffffffffffffffffff1673ffffffffffffffffffffffffffffffffffffffff16815260200190815260200160002060008381526020019081526020016000209050610f0481611397565b610f0d57600080fd5b8060000160009054906101000a900473ffffffffffffffffffffffffffffffffffffffff1673ffffffffffffffffffffffffffffffffffffffff16610f5061138f565b73ffffffffffffffffffffffffffffffffffffffff1614610f7057600080fd5b610f9f83838360000160009054906101000a900473ffffffffffffffffffffffffffffffffffffffff166113c5565b505050565b60008060009054906101000a900473ffffffffffffffffffffffffffffffffffffffff16905090565b610fd5610c2b565b15611015576040517f08c379a000000000000000000000000000000000000000000000000000000000815260040161100c90612b44565b60405180910390fd5b826fffffffffffffffffffffffffffffffff811061103257600080fd5b826fffffffffffffffffffffffffffffffff811061104f57600080fd5b8267ffffffffffffffff81111561106557600080fd5b600460008973ffffffffffffffffffffffffffffffffffffffff1673ffffffffffffffffffffffffffffffffffffffff16815260200190815260200160002060009054906101000a900460ff166110f1576040517f08c379a00000000000000000000000000000000000000000000000000000000081526004016110e890612bb0565b60405180910390fd5b60006110fb61138f565b905061110889828a611816565b611147576040517f08c379a000000000000000000000000000000000000000000000000000000000815260040161113e90612c1c565b60405180910390fd5b61115289828a6118ac565b60006040518060a001604052808373ffffffffffffffffffffffffffffffffffffffff168152602001896fffffffffffffffffffffffffffffffff168152602001886fffffffffffffffffffffffffffffffff1681526020018767ffffffffffffffff1681526020014267ffffffffffffffff1681525090506111d78a8a8385611931565b50505050505050505050565b60046020528060005260406000206000915054906101000a900460ff1681565b600063bc197c8160e01b905095945050505050565b600063f23a6e6160e01b905095945050505050565b61123561138f565b73ffffffffffffffffffffffffffffffffffffffff16611253610fa4565b73ffffffffffffffffffffffffffffffffffffffff16146112a9576040517f08c379a00000000000000000000000000000000000000000000000000000000081526004016112a090612ad8565b60405180910390fd5b600073ffffffffffffffffffffffffffffffffffffffff168173ffffffffffffffffffffffffffffffffffffffff161415611319576040517f08c379a000000000000000000000000000000000000000000000000000000000815260040161131090612cae565b60405180910390fd5b61132281611752565b50565b60007f01ffc9a7000000000000000000000000000000000000000000000000000000007bffffffffffffffffffffffffffffffffffffffffffffffffffffffff1916827bffffffffffffffffffffffffffffffffffffffffffffffffffffffff1916149050919050565b600033905090565b6000808260020160089054906101000a900467ffffffffffffffff1667ffffffffffffffff16119050919050565b6113cf8383611b59565b6113da8382846115d1565b818373ffffffffffffffffffffffffffffffffffffffff167f018b64b6242d32aa550e95d78985b938d71af5b3f10827b0683f55da1639304860405160405180910390a3505050565b600080600360008673ffffffffffffffffffffffffffffffffffffffff1673ffffffffffffffffffffffffffffffffffffffff1681526020019081526020016000206000858152602001908152602001600020905061148181611397565b61148a57600080fd5b600061149582611656565b9050808410156114a457600080fd5b60008260000160009054906101000a900473ffffffffffffffffffffffffffffffffffffffff1690506114d78787611b59565b60008211156115295760006114eb83611c53565b9050600081846114fb9190612cce565b9050611526818473ffffffffffffffffffffffffffffffffffffffff16611c7790919063ffffffff16565b50505b81851115611573576000828661153f9190612cce565b90506115718161154d61138f565b73ffffffffffffffffffffffffffffffffffffffff16611c7790919063ffffffff16565b505b858773ffffffffffffffffffffffffffffffffffffffff167f6c00bb44a64da29b6a73920d50ff280237d277bda3e1f3cdf4e24392e6839efe84336040516115bc929190612d02565b60405180910390a38193505050509392505050565b60006115dc84611d6b565b90508073ffffffffffffffffffffffffffffffffffffffff1663f242432a30858560016040518563ffffffff1660e01b815260040161161e9493929190612da7565b600060405180830381600087803b15801561163857600080fd5b505af115801561164c573d6000803e3d6000fd5b5050505050505050565b600080600090508260020160089054906101000a900467ffffffffffffffff1667ffffffffffffffff164211156116b8578260020160089054906101000a900467ffffffffffffffff1667ffffffffffffffff16426116b59190612cce565b90505b61174a8360010160009054906101000a90046fffffffffffffffffffffffffffffffff166fffffffffffffffffffffffffffffffff168460010160109054906101000a90046fffffffffffffffffffffffffffffffff166fffffffffffffffffffffffffffffffff168560020160009054906101000a900467ffffffffffffffff1667ffffffffffffffff1684611d7a565b915050919050565b60008060009054906101000a900473ffffffffffffffffffffffffffffffffffffffff169050816000806101000a81548173ffffffffffffffffffffffffffffffffffffffff021916908373ffffffffffffffffffffffffffffffffffffffff1602179055508173ffffffffffffffffffffffffffffffffffffffff168173ffffffffffffffffffffffffffffffffffffffff167f8be0079c531659141344cd1fd0a4f28419497f9722a3daafe3b4186f6b6457e060405160405180910390a35050565b60008061182285611d6b565b905060008173ffffffffffffffffffffffffffffffffffffffff1662fdd58e86866040518363ffffffff1660e01b8152600401611860929190612dff565b602060405180830381865afa15801561187d573d6000803e3d6000fd5b505050506040513d601f19601f820116820180604052508101906118a19190612e3d565b119150509392505050565b60006118b784611d6b565b90508073ffffffffffffffffffffffffffffffffffffffff1663f242432a84308560016040518563ffffffff1660e01b81526004016118f99493929190612da7565b600060405180830381600087803b15801561191357600080fd5b505af1158015611927573d6000803e3d6000fd5b5050505050505050565b603c826060015167ffffffffffffffff16101561194d57600080fd5b81600360008673ffffffffffffffffffffffffffffffffffffffff1673ffffffffffffffffffffffffffffffffffffffff168152602001908152602001600020600085815260200190815260200160002060008201518160000160006101000a81548173ffffffffffffffffffffffffffffffffffffffff021916908373ffffffffffffffffffffffffffffffffffffffff16021790555060208201518160010160006101000a8154816fffffffffffffffffffffffffffffffff02191690836fffffffffffffffffffffffffffffffff16021790555060408201518160010160106101000a8154816fffffffffffffffffffffffffffffffff02191690836fffffffffffffffffffffffffffffffff16021790555060608201518160020160006101000a81548167ffffffffffffffff021916908367ffffffffffffffff16021790555060808201518160020160086101000a81548167ffffffffffffffff021916908367ffffffffffffffff160217905550905050828473ffffffffffffffffffffffffffffffffffffffff167febc6e332a2c695c53d77b2922a18bcf3ab024549f5f2bfa67e0875ec29d59d4684602001516fffffffffffffffffffffffffffffffff1685604001516fffffffffffffffffffffffffffffffff16866060015167ffffffffffffffff1686604051611b4b9493929190612e6a565b60405180910390a350505050565b600360008373ffffffffffffffffffffffffffffffffffffffff1673ffffffffffffffffffffffffffffffffffffffff1681526020019081526020016000206000828152602001908152602001600020600080820160006101000a81549073ffffffffffffffffffffffffffffffffffffffff02191690556001820160006101000a8154906fffffffffffffffffffffffffffffffff02191690556001820160106101000a8154906fffffffffffffffffffffffffffffffff02191690556002820160006101000a81549067ffffffffffffffff02191690556002820160086101000a81549067ffffffffffffffff021916905550505050565b600061271060015483611c669190612eaf565b611c709190612f38565b9050919050565b80471015611cba576040517f08c379a0000000000000000000000000000000000000000000000000000000008152600401611cb190612fb5565b60405180910390fd5b60008273ffffffffffffffffffffffffffffffffffffffff1682604051611ce090613003565b60006040518083038185875af1925050503d8060008114611d1d576040519150601f19603f3d011682016040523d82523d6000602084013e611d22565b606091505b5050905080611d66576040517f08c379a0000000000000000000000000000000000000000000000000000000008152600401611d5d9061308a565b60405180910390fd5b505050565b60008082905080915050919050565b6000828210611d8b57839050611dcd565b60008585611d9991906130b4565b90506000848483611daa9190613148565b611db4919061325f565b905060008188611dc491906132c9565b90508093505050505b949350505050565b6040518060a00160405280600073ffffffffffffffffffffffffffffffffffffffff16815260200160006fffffffffffffffffffffffffffffffff16815260200160006fffffffffffffffffffffffffffffffff168152602001600067ffffffffffffffff168152602001600067ffffffffffffffff1681525090565b600082825260208201905092915050565b7f444f4e545f53454e440000000000000000000000000000000000000000000000600082015250565b6000611e99600983611e52565b9150611ea482611e63565b602082019050919050565b60006020820190508181036000830152611ec881611e8c565b9050919050565b6000604051905090565b600080fd5b600080fd5b60007fffffffff0000000000000000000000000000000000000000000000000000000082169050919050565b611f1881611ee3565b8114611f2357600080fd5b50565b600081359050611f3581611f0f565b92915050565b600060208284031215611f5157611f50611ed9565b5b6000611f5f84828501611f26565b91505092915050565b60008115159050919050565b611f7d81611f68565b82525050565b6000602082019050611f986000830184611f74565b92915050565b600080fd5b6000601f19601f8301169050919050565b7f4e487b7100000000000000000000000000000000000000000000000000000000600052604160045260246000fd5b611fec82611fa3565b810181811067ffffffffffffffff8211171561200b5761200a611fb4565b5b80604052505050565b600061201e611ecf565b905061202a8282611fe3565b919050565b600067ffffffffffffffff82111561204a57612049611fb4565b5b602082029050602081019050919050565b600080fd5b600073ffffffffffffffffffffffffffffffffffffffff82169050919050565b600061208b82612060565b9050919050565b61209b81612080565b81146120a657600080fd5b50565b6000813590506120b881612092565b92915050565b60006120d16120cc8461202f565b612014565b905080838252602082019050602084028301858111156120f4576120f361205b565b5b835b8181101561211d578061210988826120a9565b8452602084019350506020810190506120f6565b5050509392505050565b600082601f83011261213c5761213b611f9e565b5b813561214c8482602086016120be565b91505092915050565b600067ffffffffffffffff8211156121705761216f611fb4565b5b602082029050602081019050919050565b6000819050919050565b61219481612181565b811461219f57600080fd5b50565b6000813590506121b18161218b565b92915050565b60006121ca6121c584612155565b612014565b905080838252602082019050602084028301858111156121ed576121ec61205b565b5b835b81811015612216578061220288826121a2565b8452602084019350506020810190506121ef565b5050509392505050565b600082601f83011261223557612234611f9e565b5b81356122458482602086016121b7565b91505092915050565b6000806040838503121561226557612264611ed9565b5b600083013567ffffffffffffffff81111561228357612282611ede565b5b61228f85828601612127565b925050602083013567ffffffffffffffff8111156122b0576122af611ede565b5b6122bc85828601612220565b9150509250929050565b600081519050919050565b600082825260208201905092915050565b6000819050602082019050919050565b6122fb81612080565b82525050565b60006fffffffffffffffffffffffffffffffff82169050919050565b61232681612301565b82525050565b600067ffffffffffffffff82169050919050565b6123498161232c565b82525050565b60a08201600082015161236560008501826122f2565b506020820151612378602085018261231d565b50604082015161238b604085018261231d565b50606082015161239e6060850182612340565b5060808201516123b16080850182612340565b50505050565b60006123c3838361234f565b60a08301905092915050565b6000602082019050919050565b60006123e7826122c6565b6123f181856122d1565b93506123fc836122e2565b8060005b8381101561242d57815161241488826123b7565b975061241f836123cf565b925050600181019050612400565b5085935050505092915050565b6000602082019050818103600083015261245481846123dc565b905092915050565b6000806040838503121561247357612472611ed9565b5b6000612481858286016120a9565b9250506020612492858286016121a2565b9150509250929050565b6124a581611f68565b81146124b057600080fd5b50565b6000813590506124c28161249c565b92915050565b600080604083850312156124df576124de611ed9565b5b60006124ed858286016120a9565b92505060206124fe858286016124b3565b9150509250929050565b61251181612080565b82525050565b61252081612301565b82525050565b61252f8161232c565b82525050565b600060a08201905061254a6000830188612508565b6125576020830187612517565b6125646040830186612517565b6125716060830185612526565b61257e6080830184612526565b9695505050505050565b61259181612181565b82525050565b60006020820190506125ac6000830184612588565b92915050565b600060a0820190506125c76000830188612508565b6125d46020830187612588565b6125e16040830186612588565b6125ee6060830185612588565b6125fb6080830184612588565b9695505050505050565b600060208201905061261a6000830184612508565b92915050565b600080600080600060a0868803121561263c5761263b611ed9565b5b600061264a888289016120a9565b955050602061265b888289016121a2565b945050604061266c888289016121a2565b935050606061267d888289016121a2565b925050608061268e888289016121a2565b9150509295509295909350565b6000602082840312156126b1576126b0611ed9565b5b60006126bf848285016120a9565b91505092915050565b600080fd5b600067ffffffffffffffff8211156126e8576126e7611fb4565b5b6126f182611fa3565b9050602081019050919050565b82818337600083830152505050565b600061272061271b846126cd565b612014565b90508281526020810184848401111561273c5761273b6126c8565b5b6127478482856126fe565b509392505050565b600082601f83011261276457612763611f9e565b5b813561277484826020860161270d565b91505092915050565b600080600080600060a0868803121561279957612798611ed9565b5b60006127a7888289016120a9565b95505060206127b8888289016120a9565b945050604086013567ffffffffffffffff8111156127d9576127d8611ede565b5b6127e588828901612220565b935050606086013567ffffffffffffffff81111561280657612805611ede565b5b61281288828901612220565b925050608086013567ffffffffffffffff81111561283357612832611ede565b5b61283f8882890161274f565b9150509295509295909350565b61285581611ee3565b82525050565b6000602082019050612870600083018461284c565b92915050565b600080600080600060a0868803121561289257612891611ed9565b5b60006128a0888289016120a9565b95505060206128b1888289016120a9565b94505060406128c2888289016121a2565b93505060606128d3888289016121a2565b925050608086013567ffffffffffffffff8111156128f4576128f3611ede565b5b6129008882890161274f565b9150509295509295909350565b7f496e76616c696420696e707574206c656e676874730000000000000000000000600082015250565b6000612943601583611e52565b915061294e8261290d565b602082019050919050565b6000602082019050818103600083015261297281612936565b9050919050565b7f4e487b7100000000000000000000000000000000000000000000000000000000600052603260045260246000fd5b7f4e487b7100000000000000000000000000000000000000000000000000000000600052601160045260246000fd5b60006129e282612181565b91507fffffffffffffffffffffffffffffffffffffffffffffffffffffffffffffffff821415612a1557612a146129a8565b5b600182019050919050565b7f5061757361626c653a206e6f7420706175736564000000000000000000000000600082015250565b6000612a56601483611e52565b9150612a6182612a20565b602082019050919050565b60006020820190508181036000830152612a8581612a49565b9050919050565b7f4f776e61626c653a2063616c6c6572206973206e6f7420746865206f776e6572600082015250565b6000612ac2602083611e52565b9150612acd82612a8c565b602082019050919050565b60006020820190508181036000830152612af181612ab5565b9050919050565b7f5061757361626c653a2070617573656400000000000000000000000000000000600082015250565b6000612b2e601083611e52565b9150612b3982612af8565b602082019050919050565b60006020820190508181036000830152612b5d81612b21565b9050919050565b7f4e6674206e6f7420616c6c6f7765640000000000000000000000000000000000600082015250565b6000612b9a600f83611e52565b9150612ba582612b64565b602082019050919050565b60006020820190508181036000830152612bc981612b8d565b9050919050565b7f5573657220646f65736e2774206f776e73206e66740000000000000000000000600082015250565b6000612c06601583611e52565b9150612c1182612bd0565b602082019050919050565b60006020820190508181036000830152612c3581612bf9565b9050919050565b7f4f776e61626c653a206e6577206f776e657220697320746865207a65726f206160008201527f6464726573730000000000000000000000000000000000000000000000000000602082015250565b6000612c98602683611e52565b9150612ca382612c3c565b604082019050919050565b60006020820190508181036000830152612cc781612c8b565b9050919050565b6000612cd982612181565b9150612ce483612181565b925082821015612cf757612cf66129a8565b5b828203905092915050565b6000604082019050612d176000830185612588565b612d246020830184612508565b9392505050565b6000819050919050565b6000819050919050565b6000612d5a612d55612d5084612d2b565b612d35565b612181565b9050919050565b612d6a81612d3f565b82525050565b600082825260208201905092915050565b50565b6000612d91600083612d70565b9150612d9c82612d81565b600082019050919050565b600060a082019050612dbc6000830187612508565b612dc96020830186612508565b612dd66040830185612588565b612de36060830184612d61565b8181036080830152612df481612d84565b905095945050505050565b6000604082019050612e146000830185612508565b612e216020830184612588565b9392505050565b600081519050612e378161218b565b92915050565b600060208284031215612e5357612e52611ed9565b5b6000612e6184828501612e28565b91505092915050565b6000608082019050612e7f6000830187612588565b612e8c6020830186612588565b612e996040830185612588565b612ea66060830184612508565b95945050505050565b6000612eba82612181565b9150612ec583612181565b9250817fffffffffffffffffffffffffffffffffffffffffffffffffffffffffffffffff0483118215151615612efe57612efd6129a8565b5b828202905092915050565b7f4e487b7100000000000000000000000000000000000000000000000000000000600052601260045260246000fd5b6000612f4382612181565b9150612f4e83612181565b925082612f5e57612f5d612f09565b5b828204905092915050565b7f416464726573733a20696e73756666696369656e742062616c616e6365000000600082015250565b6000612f9f601d83611e52565b9150612faa82612f69565b602082019050919050565b60006020820190508181036000830152612fce81612f92565b9050919050565b600081905092915050565b6000612fed600083612fd5565b9150612ff882612d81565b600082019050919050565b600061300e82612fe0565b9150819050919050565b7f416464726573733a20756e61626c6520746f2073656e642076616c75652c207260008201527f6563697069656e74206d61792068617665207265766572746564000000000000602082015250565b6000613074603a83611e52565b915061307f82613018565b604082019050919050565b600060208201905081810360008301526130a381613067565b9050919050565b6000819050919050565b60006130bf826130aa565b91506130ca836130aa565b9250827f800000000000000000000000000000000000000000000000000000000000000001821260008412151615613105576131046129a8565b5b827f7fffffffffffffffffffffffffffffffffffffffffffffffffffffffffffffff01821360008412161561313d5761313c6129a8565b5b828203905092915050565b6000613153826130aa565b915061315e836130aa565b9250827f7fffffffffffffffffffffffffffffffffffffffffffffffffffffffffffffff048211600084136000841316161561319d5761319c6129a8565b5b817f800000000000000000000000000000000000000000000000000000000000000005831260008412600084131616156131da576131d96129a8565b5b827f80000000000000000000000000000000000000000000000000000000000000000582126000841360008412161615613217576132166129a8565b5b827f7fffffffffffffffffffffffffffffffffffffffffffffffffffffffffffffff0582126000841260008412161615613254576132536129a8565b5b828202905092915050565b600061326a826130aa565b9150613275836130aa565b92508261328557613284612f09565b5b600160000383147f8000000000000000000000000000000000000000000000000000000000000000831416156132be576132bd6129a8565b5b828205905092915050565b60006132d4826130aa565b91506132df836130aa565b9250817f7fffffffffffffffffffffffffffffffffffffffffffffffffffffffffffffff0383136000831215161561331a576133196129a8565b5b817f8000000000000000000000000000000000000000000000000000000000000000038312600083121615613352576133516129a8565b5b82820190509291505056fea2646970667358221220251a97258452957faebfac16c602c98f852782c0787d749252add71ca1661a1e64736f6c634300080b0033",
  "linkReferences": {},
  "deployedLinkReferences": {}
}