{
  "_format": "hh-sol-artifact-1",
  "contractName": "ClockSale",
  "sourceName": "contracts/ClockSale.sol",
  "abi": [
    {
      "inputs": [
        {
          "internalType": "address",
          "name": "_feeReceiver",
          "type": "address"
        },
        {
          "internalType": "uint256",
          "name": "_ownerCut",
          "type": "uint256"
        },
        {
          "internalType": "string",
          "name": "_name",
          "type": "string"
        },
        {
          "internalType": "string",
          "name": "_symbol",
          "type": "string"
        }
      ],
      "stateMutability": "nonpayable",
      "type": "constructor"
    },
    {
      "anonymous": false,
      "inputs": [
        {
          "indexed": true,
          "internalType": "address",
          "name": "owner",
          "type": "address"
        },
        {
          "indexed": true,
          "internalType": "address",
          "name": "approved",
          "type": "address"
        },
        {
          "indexed": true,
          "internalType": "uint256",
          "name": "tokenId",
          "type": "uint256"
        }
      ],
      "name": "Approval",
      "type": "event"
    },
    {
      "anonymous": false,
      "inputs": [
        {
          "indexed": true,
          "internalType": "address",
          "name": "owner",
          "type": "address"
        },
        {
          "indexed": true,
          "internalType": "address",
          "name": "operator",
          "type": "address"
        },
        {
          "indexed": false,
          "internalType": "bool",
          "name": "approved",
          "type": "bool"
        }
      ],
      "name": "ApprovalForAll",
      "type": "event"
    },
    {
      "anonymous": false,
      "inputs": [
        {
          "indexed": true,
          "internalType": "uint256",
          "name": "_aucitonId",
          "type": "uint256"
        },
        {
          "indexed": false,
          "internalType": "address",
          "name": "_buyer",
          "type": "address"
        },
        {
          "indexed": false,
          "internalType": "uint256",
          "name": "_cost",
          "type": "uint256"
        },
        {
          "indexed": false,
          "internalType": "uint256",
          "name": "_nftAmount",
          "type": "uint256"
        }
      ],
      "name": "BuySuccessful",
      "type": "event"
    },
    {
      "anonymous": false,
      "inputs": [
        {
          "indexed": true,
          "internalType": "address",
          "name": "previousOwner",
          "type": "address"
        },
        {
          "indexed": true,
          "internalType": "address",
          "name": "newOwner",
          "type": "address"
        }
      ],
      "name": "OwnershipTransferred",
      "type": "event"
    },
    {
      "anonymous": false,
      "inputs": [
        {
          "indexed": false,
          "internalType": "address",
          "name": "account",
          "type": "address"
        }
      ],
      "name": "Paused",
      "type": "event"
    },
    {
      "anonymous": false,
      "inputs": [
        {
          "indexed": true,
          "internalType": "uint256",
          "name": "_auctionId",
          "type": "uint256"
        }
      ],
      "name": "SaleCancelled",
      "type": "event"
    },
    {
      "anonymous": false,
      "inputs": [
        {
          "indexed": true,
          "internalType": "uint256",
          "name": "_auctionId",
          "type": "uint256"
        },
        {
          "indexed": false,
          "internalType": "uint256",
          "name": "_amount",
          "type": "uint256"
        },
        {
          "indexed": false,
          "internalType": "uint256",
          "name": "_price",
          "type": "uint256"
        },
        {
          "indexed": false,
          "internalType": "uint256",
          "name": "_duration",
          "type": "uint256"
        },
        {
          "indexed": false,
          "internalType": "address",
          "name": "_seller",
          "type": "address"
        }
      ],
      "name": "SaleCreated",
      "type": "event"
    },
    {
      "anonymous": false,
      "inputs": [
        {
          "indexed": true,
          "internalType": "uint256",
          "name": "_aucitonId",
          "type": "uint256"
        }
      ],
      "name": "SaleSuccessful",
      "type": "event"
    },
    {
      "anonymous": false,
      "inputs": [
        {
          "indexed": true,
          "internalType": "address",
          "name": "from",
          "type": "address"
        },
        {
          "indexed": true,
          "internalType": "address",
          "name": "to",
          "type": "address"
        },
        {
          "indexed": true,
          "internalType": "uint256",
          "name": "tokenId",
          "type": "uint256"
        }
      ],
      "name": "Transfer",
      "type": "event"
    },
    {
      "anonymous": false,
      "inputs": [
        {
          "indexed": false,
          "internalType": "address",
          "name": "account",
          "type": "address"
        }
      ],
      "name": "Unpaused",
      "type": "event"
    },
    {
      "inputs": [
        {
          "internalType": "address",
          "name": "to",
          "type": "address"
        },
        {
          "internalType": "uint256",
          "name": "tokenId",
          "type": "uint256"
        }
      ],
      "name": "approve",
      "outputs": [],
      "stateMutability": "nonpayable",
      "type": "function"
    },
    {
      "inputs": [
        {
          "internalType": "uint256",
          "name": "",
          "type": "uint256"
        }
      ],
      "name": "auctions",
      "outputs": [
        {
          "internalType": "address",
          "name": "seller",
          "type": "address"
        },
        {
          "internalType": "address",
          "name": "nft",
          "type": "address"
        },
        {
          "internalType": "uint256",
          "name": "nftId",
          "type": "uint256"
        },
        {
          "internalType": "uint256",
          "name": "amount",
          "type": "uint256"
        },
        {
          "internalType": "uint256",
          "name": "price",
          "type": "uint256"
        },
        {
          "internalType": "uint256",
          "name": "duration",
          "type": "uint256"
        },
        {
          "internalType": "uint256",
          "name": "startedAt",
          "type": "uint256"
        }
      ],
      "stateMutability": "view",
      "type": "function"
    },
    {
      "inputs": [
        {
          "internalType": "address",
          "name": "owner",
          "type": "address"
        }
      ],
      "name": "balanceOf",
      "outputs": [
        {
          "internalType": "uint256",
          "name": "",
          "type": "uint256"
        }
      ],
      "stateMutability": "view",
      "type": "function"
    },
    {
      "inputs": [
        {
          "internalType": "uint256",
          "name": "_tokenId",
          "type": "uint256"
        },
        {
          "internalType": "uint256",
          "name": "amount",
          "type": "uint256"
        }
      ],
      "name": "buy",
      "outputs": [],
      "stateMutability": "payable",
      "type": "function"
    },
    {
      "inputs": [
        {
          "internalType": "uint256",
          "name": "_tokenId",
          "type": "uint256"
        }
      ],
      "name": "cancelSale",
      "outputs": [],
      "stateMutability": "nonpayable",
      "type": "function"
    },
    {
      "inputs": [
        {
          "internalType": "address",
          "name": "_nftAddress",
          "type": "address"
        },
        {
          "internalType": "uint256",
          "name": "_tokenId",
          "type": "uint256"
        },
        {
          "internalType": "uint256",
          "name": "_price",
          "type": "uint256"
        },
        {
          "internalType": "uint256",
          "name": "_amount",
          "type": "uint256"
        },
        {
          "internalType": "uint256",
          "name": "_duration",
          "type": "uint256"
        }
      ],
      "name": "createSale",
      "outputs": [],
      "stateMutability": "nonpayable",
      "type": "function"
    },
    {
      "inputs": [],
      "name": "feeReceiver",
      "outputs": [
        {
          "internalType": "address",
          "name": "",
          "type": "address"
        }
      ],
      "stateMutability": "view",
      "type": "function"
    },
    {
      "inputs": [],
      "name": "genesisBlock",
      "outputs": [
        {
          "internalType": "uint256",
          "name": "",
          "type": "uint256"
        }
      ],
      "stateMutability": "view",
      "type": "function"
    },
    {
      "inputs": [
        {
          "internalType": "uint256",
          "name": "tokenId",
          "type": "uint256"
        }
      ],
      "name": "getApproved",
      "outputs": [
        {
          "internalType": "address",
          "name": "",
          "type": "address"
        }
      ],
      "stateMutability": "view",
      "type": "function"
    },
    {
      "inputs": [
        {
          "internalType": "uint256",
          "name": "_tokenId",
          "type": "uint256"
        }
      ],
      "name": "getCurrentPrice",
      "outputs": [
        {
          "internalType": "uint256",
          "name": "",
          "type": "uint256"
        }
      ],
      "stateMutability": "view",
      "type": "function"
    },
    {
      "inputs": [
        {
          "internalType": "uint256[]",
          "name": "_tokenIds",
          "type": "uint256[]"
        }
      ],
      "name": "getSales",
      "outputs": [
        {
          "components": [
            {
              "internalType": "address",
              "name": "seller",
              "type": "address"
            },
            {
              "internalType": "address",
              "name": "nft",
              "type": "address"
            },
            {
              "internalType": "uint256",
              "name": "nftId",
              "type": "uint256"
            },
            {
              "internalType": "uint256",
              "name": "amount",
              "type": "uint256"
            },
            {
              "internalType": "uint256",
              "name": "price",
              "type": "uint256"
            },
            {
              "internalType": "uint256",
              "name": "duration",
              "type": "uint256"
            },
            {
              "internalType": "uint256",
              "name": "startedAt",
              "type": "uint256"
            }
          ],
          "internalType": "struct ClockSale.Sale[]",
          "name": "",
          "type": "tuple[]"
        }
      ],
      "stateMutability": "view",
      "type": "function"
    },
    {
      "inputs": [
        {
          "internalType": "address",
          "name": "",
          "type": "address"
        }
      ],
      "name": "isAllowed",
      "outputs": [
        {
          "internalType": "bool",
          "name": "",
          "type": "bool"
        }
      ],
      "stateMutability": "view",
      "type": "function"
    },
    {
      "inputs": [
        {
          "internalType": "address",
          "name": "owner",
          "type": "address"
        },
        {
          "internalType": "address",
          "name": "operator",
          "type": "address"
        }
      ],
      "name": "isApprovedForAll",
      "outputs": [
        {
          "internalType": "bool",
          "name": "",
          "type": "bool"
        }
      ],
      "stateMutability": "view",
      "type": "function"
    },
    {
      "inputs": [],
      "name": "name",
      "outputs": [
        {
          "internalType": "string",
          "name": "",
          "type": "string"
        }
      ],
      "stateMutability": "view",
      "type": "function"
    },
    {
      "inputs": [
        {
          "internalType": "address",
          "name": "",
          "type": "address"
        },
        {
          "internalType": "address",
          "name": "",
          "type": "address"
        },
        {
          "internalType": "uint256[]",
          "name": "",
          "type": "uint256[]"
        },
        {
          "internalType": "uint256[]",
          "name": "",
          "type": "uint256[]"
        },
        {
          "internalType": "bytes",
          "name": "",
          "type": "bytes"
        }
      ],
      "name": "onERC1155BatchReceived",
      "outputs": [
        {
          "internalType": "bytes4",
          "name": "",
          "type": "bytes4"
        }
      ],
      "stateMutability": "nonpayable",
      "type": "function"
    },
    {
      "inputs": [
        {
          "internalType": "address",
          "name": "",
          "type": "address"
        },
        {
          "internalType": "address",
          "name": "",
          "type": "address"
        },
        {
          "internalType": "uint256",
          "name": "",
          "type": "uint256"
        },
        {
          "internalType": "uint256",
          "name": "",
          "type": "uint256"
        },
        {
          "internalType": "bytes",
          "name": "",
          "type": "bytes"
        }
      ],
      "name": "onERC1155Received",
      "outputs": [
        {
          "internalType": "bytes4",
          "name": "",
          "type": "bytes4"
        }
      ],
      "stateMutability": "nonpayable",
      "type": "function"
    },
    {
      "inputs": [],
      "name": "owner",
      "outputs": [
        {
          "internalType": "address",
          "name": "",
          "type": "address"
        }
      ],
      "stateMutability": "view",
      "type": "function"
    },
    {
      "inputs": [],
      "name": "ownerCut",
      "outputs": [
        {
          "internalType": "uint256",
          "name": "",
          "type": "uint256"
        }
      ],
      "stateMutability": "view",
      "type": "function"
    },
    {
      "inputs": [
        {
          "internalType": "uint256",
          "name": "tokenId",
          "type": "uint256"
        }
      ],
      "name": "ownerOf",
      "outputs": [
        {
          "internalType": "address",
          "name": "",
          "type": "address"
        }
      ],
      "stateMutability": "view",
      "type": "function"
    },
    {
      "inputs": [],
      "name": "paused",
      "outputs": [
        {
          "internalType": "bool",
          "name": "",
          "type": "bool"
        }
      ],
      "stateMutability": "view",
      "type": "function"
    },
    {
      "inputs": [],
      "name": "renounceOwnership",
      "outputs": [],
      "stateMutability": "nonpayable",
      "type": "function"
    },
    {
      "inputs": [],
      "name": "restartTrading",
      "outputs": [],
      "stateMutability": "nonpayable",
      "type": "function"
    },
    {
      "inputs": [
        {
          "internalType": "address",
          "name": "from",
          "type": "address"
        },
        {
          "internalType": "address",
          "name": "to",
          "type": "address"
        },
        {
          "internalType": "uint256",
          "name": "tokenId",
          "type": "uint256"
        }
      ],
      "name": "safeTransferFrom",
      "outputs": [],
      "stateMutability": "nonpayable",
      "type": "function"
    },
    {
      "inputs": [
        {
          "internalType": "address",
          "name": "from",
          "type": "address"
        },
        {
          "internalType": "address",
          "name": "to",
          "type": "address"
        },
        {
          "internalType": "uint256",
          "name": "tokenId",
          "type": "uint256"
        },
        {
          "internalType": "bytes",
          "name": "_data",
          "type": "bytes"
        }
      ],
      "name": "safeTransferFrom",
      "outputs": [],
      "stateMutability": "nonpayable",
      "type": "function"
    },
    {
      "inputs": [
        {
          "internalType": "address",
          "name": "operator",
          "type": "address"
        },
        {
          "internalType": "bool",
          "name": "approved",
          "type": "bool"
        }
      ],
      "name": "setApprovalForAll",
      "outputs": [],
      "stateMutability": "nonpayable",
      "type": "function"
    },
    {
      "inputs": [
        {
          "internalType": "address",
          "name": "nftAddress",
          "type": "address"
        },
        {
          "internalType": "bool",
          "name": "allow",
          "type": "bool"
        }
      ],
      "name": "setNftAllowed",
      "outputs": [],
      "stateMutability": "nonpayable",
      "type": "function"
    },
    {
      "inputs": [],
      "name": "stopTrading",
      "outputs": [],
      "stateMutability": "nonpayable",
      "type": "function"
    },
    {
      "inputs": [
        {
          "internalType": "bytes4",
          "name": "interfaceId",
          "type": "bytes4"
        }
      ],
      "name": "supportsInterface",
      "outputs": [
        {
          "internalType": "bool",
          "name": "",
          "type": "bool"
        }
      ],
      "stateMutability": "view",
      "type": "function"
    },
    {
      "inputs": [],
      "name": "symbol",
      "outputs": [
        {
          "internalType": "string",
          "name": "",
          "type": "string"
        }
      ],
      "stateMutability": "view",
      "type": "function"
    },
    {
      "inputs": [
        {
          "internalType": "uint256",
          "name": "tokenId",
          "type": "uint256"
        }
      ],
      "name": "tokenURI",
      "outputs": [
        {
          "internalType": "string",
          "name": "",
          "type": "string"
        }
      ],
      "stateMutability": "view",
      "type": "function"
    },
    {
      "inputs": [
        {
          "internalType": "address",
          "name": "from",
          "type": "address"
        },
        {
          "internalType": "address",
          "name": "to",
          "type": "address"
        },
        {
          "internalType": "uint256",
          "name": "tokenId",
          "type": "uint256"
        }
      ],
      "name": "transferFrom",
      "outputs": [],
      "stateMutability": "nonpayable",
      "type": "function"
    },
    {
      "inputs": [
        {
          "internalType": "address",
          "name": "newOwner",
          "type": "address"
        }
      ],
      "name": "transferOwnership",
      "outputs": [],
      "stateMutability": "nonpayable",
      "type": "function"
    },
    {
      "stateMutability": "payable",
      "type": "receive"
    }
  ],
  "bytecode": "0x60806040523480156200001157600080fd5b506040516200503f3803806200503f8339818101604052810190620000379190620004cc565b8181816000908051906020019062000051929190620001df565b5080600190805190602001906200006a929190620001df565b5050506200008d620000816200011160201b60201c565b6200011960201b60201c565b6000600660146101000a81548160ff021916908315150217905550612710831115620000b857600080fd5b8260098190555083600860006101000a81548173ffffffffffffffffffffffffffffffffffffffff021916908373ffffffffffffffffffffffffffffffffffffffff16021790555043600a8190555050505050620005e1565b600033905090565b6000600660009054906101000a900473ffffffffffffffffffffffffffffffffffffffff16905081600660006101000a81548173ffffffffffffffffffffffffffffffffffffffff021916908373ffffffffffffffffffffffffffffffffffffffff1602179055508173ffffffffffffffffffffffffffffffffffffffff168173ffffffffffffffffffffffffffffffffffffffff167f8be0079c531659141344cd1fd0a4f28419497f9722a3daafe3b4186f6b6457e060405160405180910390a35050565b828054620001ed90620005ab565b90600052602060002090601f0160209004810192826200021157600085556200025d565b82601f106200022c57805160ff19168380011785556200025d565b828001600101855582156200025d579182015b828111156200025c5782518255916020019190600101906200023f565b5b5090506200026c919062000270565b5090565b5b808211156200028b57600081600090555060010162000271565b5090565b6000604051905090565b600080fd5b600080fd5b600073ffffffffffffffffffffffffffffffffffffffff82169050919050565b6000620002d082620002a3565b9050919050565b620002e281620002c3565b8114620002ee57600080fd5b50565b6000815190506200030281620002d7565b92915050565b6000819050919050565b6200031d8162000308565b81146200032957600080fd5b50565b6000815190506200033d8162000312565b92915050565b600080fd5b600080fd5b6000601f19601f8301169050919050565b7f4e487b7100000000000000000000000000000000000000000000000000000000600052604160045260246000fd5b62000398826200034d565b810181811067ffffffffffffffff82111715620003ba57620003b96200035e565b5b80604052505050565b6000620003cf6200028f565b9050620003dd82826200038d565b919050565b600067ffffffffffffffff8211156200040057620003ff6200035e565b5b6200040b826200034d565b9050602081019050919050565b60005b83811015620004385780820151818401526020810190506200041b565b8381111562000448576000848401525b50505050565b6000620004656200045f84620003e2565b620003c3565b90508281526020810184848401111562000484576200048362000348565b5b6200049184828562000418565b509392505050565b600082601f830112620004b157620004b062000343565b5b8151620004c38482602086016200044e565b91505092915050565b60008060008060808587031215620004e957620004e862000299565b5b6000620004f987828801620002f1565b94505060206200050c878288016200032c565b935050604085015167ffffffffffffffff81111562000530576200052f6200029e565b5b6200053e8782880162000499565b925050606085015167ffffffffffffffff8111156200056257620005616200029e565b5b620005708782880162000499565b91505092959194509250565b7f4e487b7100000000000000000000000000000000000000000000000000000000600052602260045260246000fd5b60006002820490506001821680620005c457607f821691505b60208210811415620005db57620005da6200057c565b5b50919050565b614a4e80620005f16000396000f3fe6080604052600436106101e65760003560e01c806383b5ff8b11610102578063bd94b00511610095578063d6febde811610064578063d6febde814610755578063e985e9c514610771578063f23a6e61146107ae578063f2fde38b146107eb5761022e565b8063bd94b00514610689578063c55d0f56146106b2578063c87b56dd146106ef578063d68a08531461072c5761022e565b8063b3f00674116100d1578063b3f00674146105bb578063b88d4fde146105e6578063babcc5391461060f578063bc197c811461064c5761022e565b806383b5ff8b146105115780638da5cb5b1461053c57806395d89b4114610567578063a22cb465146105925761022e565b806342842e0e1161017a5780636352211e116101495780636352211e1461046957806370a08231146104a6578063715018a6146104e35780637185f163146104fa5761022e565b806342842e0e146103a75780634cdc9c63146103d0578063571a26a0146103fb5780635c975abb1461043e5761022e565b8063095ea7b3116101b6578063095ea7b3146103155780631e1d7bb51461033e57806323b872dd146103675780632cdddc1b146103905761022e565b8062313a681461023357806301ffc9a71461027057806306fdde03146102ad578063081812fc146102d85761022e565b3661022e57600061022c576040517f08c379a000000000000000000000000000000000000000000000000000000000815260040161022390612f35565b60405180910390fd5b005b600080fd5b34801561023f57600080fd5b5061025a600480360381019061025591906130f8565b610814565b60405161026791906132ce565b60405180910390f35b34801561027c57600080fd5b5061029760048036038101906102929190613348565b6109cc565b6040516102a49190613390565b60405180910390f35b3480156102b957600080fd5b506102c26109de565b6040516102cf9190613422565b60405180910390f35b3480156102e457600080fd5b506102ff60048036038101906102fa9190613444565b610a70565b60405161030c9190613480565b60405180910390f35b34801561032157600080fd5b5061033c600480360381019061033791906134c7565b610af5565b005b34801561034a57600080fd5b5061036560048036038101906103609190613533565b610c0d565b005b34801561037357600080fd5b5061038e60048036038101906103899190613573565b610ce4565b005b34801561039c57600080fd5b506103a5610d44565b005b3480156103b357600080fd5b506103ce60048036038101906103c99190613573565b610e11565b005b3480156103dc57600080fd5b506103e5610e31565b6040516103f291906135d5565b60405180910390f35b34801561040757600080fd5b50610422600480360381019061041d9190613444565b610e37565b60405161043597969594939291906135f0565b60405180910390f35b34801561044a57600080fd5b50610453610eb9565b6040516104609190613390565b60405180910390f35b34801561047557600080fd5b50610490600480360381019061048b9190613444565b610ed0565b60405161049d9190613480565b60405180910390f35b3480156104b257600080fd5b506104cd60048036038101906104c8919061365f565b610f82565b6040516104da91906135d5565b60405180910390f35b3480156104ef57600080fd5b506104f861103a565b005b34801561050657600080fd5b5061050f6110c2565b005b34801561051d57600080fd5b50610526611190565b60405161053391906135d5565b60405180910390f35b34801561054857600080fd5b50610551611196565b60405161055e9190613480565b60405180910390f35b34801561057357600080fd5b5061057c6111c0565b6040516105899190613422565b60405180910390f35b34801561059e57600080fd5b506105b960048036038101906105b49190613533565b611252565b005b3480156105c757600080fd5b506105d0611268565b6040516105dd9190613480565b60405180910390f35b3480156105f257600080fd5b5061060d60048036038101906106089190613741565b61128e565b005b34801561061b57600080fd5b506106366004803603810190610631919061365f565b6112f0565b6040516106439190613390565b60405180910390f35b34801561065857600080fd5b50610673600480360381019061066e91906137c4565b611310565b60405161068091906138a2565b60405180910390f35b34801561069557600080fd5b506106b060048036038101906106ab9190613444565b611325565b005b3480156106be57600080fd5b506106d960048036038101906106d49190613444565b6113a2565b6040516106e691906135d5565b60405180910390f35b3480156106fb57600080fd5b5061071660048036038101906107119190613444565b6113d9565b6040516107239190613422565b60405180910390f35b34801561073857600080fd5b50610753600480360381019061074e91906138bd565b611480565b005b61076f600480360381019061076a9190613938565b61162b565b005b34801561077d57600080fd5b5061079860048036038101906107939190613978565b611872565b6040516107a59190613390565b60405180910390f35b3480156107ba57600080fd5b506107d560048036038101906107d091906139b8565b611906565b6040516107e291906138a2565b60405180910390f35b3480156107f757600080fd5b50610812600480360381019061080d919061365f565b61191b565b005b60606000825167ffffffffffffffff81111561083357610832612f7f565b5b60405190808252806020026020018201604052801561086c57816020015b610859612e6f565b8152602001906001900390816108515790505b50905060005b83518110156109c257600b600085838151811061089257610891613a4f565b5b602002602001015181526020019081526020016000206040518060e00160405290816000820160009054906101000a900473ffffffffffffffffffffffffffffffffffffffff1673ffffffffffffffffffffffffffffffffffffffff1673ffffffffffffffffffffffffffffffffffffffff1681526020016001820160009054906101000a900473ffffffffffffffffffffffffffffffffffffffff1673ffffffffffffffffffffffffffffffffffffffff1673ffffffffffffffffffffffffffffffffffffffff168152602001600282015481526020016003820154815260200160048201548152602001600582015481526020016006820154815250508282815181106109a4576109a3613a4f565b5b602002602001018190525080806109ba90613aad565b915050610872565b5080915050919050565b60006109d782611a13565b9050919050565b6060600080546109ed90613b25565b80601f0160208091040260200160405190810160405280929190818152602001828054610a1990613b25565b8015610a665780601f10610a3b57610100808354040283529160200191610a66565b820191906000526020600020905b815481529060010190602001808311610a4957829003601f168201915b5050505050905090565b6000610a7b82611a8d565b610aba576040517f08c379a0000000000000000000000000000000000000000000000000000000008152600401610ab190613bc9565b60405180910390fd5b6004600083815260200190815260200160002060009054906101000a900473ffffffffffffffffffffffffffffffffffffffff169050919050565b6000610b0082610ed0565b90508073ffffffffffffffffffffffffffffffffffffffff168373ffffffffffffffffffffffffffffffffffffffff161415610b71576040517f08c379a0000000000000000000000000000000000000000000000000000000008152600401610b6890613c5b565b60405180910390fd5b8073ffffffffffffffffffffffffffffffffffffffff16610b90611af9565b73ffffffffffffffffffffffffffffffffffffffff161480610bbf5750610bbe81610bb9611af9565b611872565b5b610bfe576040517f08c379a0000000000000000000000000000000000000000000000000000000008152600401610bf590613ced565b60405180910390fd5b610c088383611b01565b505050565b610c15611af9565b73ffffffffffffffffffffffffffffffffffffffff16610c33611196565b73ffffffffffffffffffffffffffffffffffffffff1614610c89576040517f08c379a0000000000000000000000000000000000000000000000000000000008152600401610c8090613d59565b60405180910390fd5b80600c60008473ffffffffffffffffffffffffffffffffffffffff1673ffffffffffffffffffffffffffffffffffffffff16815260200190815260200160002060006101000a81548160ff0219169083151502179055505050565b610cf5610cef611af9565b82611bba565b610d34576040517f08c379a0000000000000000000000000000000000000000000000000000000008152600401610d2b90613deb565b60405180910390fd5b610d3f838383611c98565b505050565b610d4c611af9565b73ffffffffffffffffffffffffffffffffffffffff16610d6a611196565b73ffffffffffffffffffffffffffffffffffffffff1614610dc0576040517f08c379a0000000000000000000000000000000000000000000000000000000008152600401610db790613d59565b60405180910390fd5b610dc8610eb9565b610e07576040517f08c379a0000000000000000000000000000000000000000000000000000000008152600401610dfe90613e57565b60405180910390fd5b610e0f611ef4565b565b610e2c8383836040518060200160405280600081525061128e565b505050565b600a5481565b600b6020528060005260406000206000915090508060000160009054906101000a900473ffffffffffffffffffffffffffffffffffffffff16908060010160009054906101000a900473ffffffffffffffffffffffffffffffffffffffff16908060020154908060030154908060040154908060050154908060060154905087565b6000600660149054906101000a900460ff16905090565b6000806002600084815260200190815260200160002060009054906101000a900473ffffffffffffffffffffffffffffffffffffffff169050600073ffffffffffffffffffffffffffffffffffffffff168173ffffffffffffffffffffffffffffffffffffffff161415610f79576040517f08c379a0000000000000000000000000000000000000000000000000000000008152600401610f7090613ee9565b60405180910390fd5b80915050919050565b60008073ffffffffffffffffffffffffffffffffffffffff168273ffffffffffffffffffffffffffffffffffffffff161415610ff3576040517f08c379a0000000000000000000000000000000000000000000000000000000008152600401610fea90613f7b565b60405180910390fd5b600360008373ffffffffffffffffffffffffffffffffffffffff1673ffffffffffffffffffffffffffffffffffffffff168152602001908152602001600020549050919050565b611042611af9565b73ffffffffffffffffffffffffffffffffffffffff16611060611196565b73ffffffffffffffffffffffffffffffffffffffff16146110b6576040517f08c379a00000000000000000000000000000000000000000000000000000000081526004016110ad90613d59565b60405180910390fd5b6110c06000611f96565b565b6110ca611af9565b73ffffffffffffffffffffffffffffffffffffffff166110e8611196565b73ffffffffffffffffffffffffffffffffffffffff161461113e576040517f08c379a000000000000000000000000000000000000000000000000000000000815260040161113590613d59565b60405180910390fd5b611146610eb9565b15611186576040517f08c379a000000000000000000000000000000000000000000000000000000000815260040161117d90613fe7565b60405180910390fd5b61118e61205c565b565b60095481565b6000600660009054906101000a900473ffffffffffffffffffffffffffffffffffffffff16905090565b6060600180546111cf90613b25565b80601f01602080910402602001604051908101604052809291908181526020018280546111fb90613b25565b80156112485780601f1061121d57610100808354040283529160200191611248565b820191906000526020600020905b81548152906001019060200180831161122b57829003601f168201915b5050505050905090565b61126461125d611af9565b83836120ff565b5050565b600860009054906101000a900473ffffffffffffffffffffffffffffffffffffffff1681565b61129f611299611af9565b83611bba565b6112de576040517f08c379a00000000000000000000000000000000000000000000000000000000081526004016112d590613deb565b60405180910390fd5b6112ea8484848461226c565b50505050565b600c6020528060005260406000206000915054906101000a900460ff1681565b600063bc197c8160e01b905095945050505050565b6000600b60008381526020019081526020016000209050611345816122c8565b61134e57600080fd5b611356611af9565b73ffffffffffffffffffffffffffffffffffffffff1661137583610ed0565b73ffffffffffffffffffffffffffffffffffffffff161461139557600080fd5b61139e826122d8565b5050565b600080600b600084815260200190815260200160002090506113c3816122c8565b6113cc57600080fd5b8060040154915050919050565b60606113e482611a8d565b611423576040517f08c379a000000000000000000000000000000000000000000000000000000000815260040161141a90614079565b60405180910390fd5b600061142d61235c565b9050600081511161144d5760405180602001604052806000815250611478565b8061145784612373565b6040516020016114689291906140d5565b6040516020818303038152906040525b915050919050565b611488610eb9565b156114c8576040517f08c379a00000000000000000000000000000000000000000000000000000000081526004016114bf90613fe7565b60405180910390fd5b600c60008673ffffffffffffffffffffffffffffffffffffffff1673ffffffffffffffffffffffffffffffffffffffff16815260200190815260200160002060009054906101000a900460ff16611554576040517f08c379a000000000000000000000000000000000000000000000000000000000815260040161154b90614145565b60405180910390fd5b600061155e611af9565b905061156b8682876124d4565b6115aa576040517f08c379a00000000000000000000000000000000000000000000000000000000081526004016115a1906141b1565b60405180910390fd5b6115b68682878661256a565b60006040518060e001604052808373ffffffffffffffffffffffffffffffffffffffff1681526020018873ffffffffffffffffffffffffffffffffffffffff168152602001878152602001858152602001868152602001848152602001428152509050611622816125ef565b50505050505050565b611633610eb9565b15611673576040517f08c379a000000000000000000000000000000000000000000000000000000000815260040161166a90613fe7565b60405180910390fd5b6000600b60008481526020019081526020016000209050600082826004015461169c91906141d1565b905060006116a8611af9565b9050838360030160008282546116be919061422b565b925050819055506000836003015414156116dc576116db85612750565b5b8134101561171f576040517f08c379a0000000000000000000000000000000000000000000000000000000008152600401611716906142ab565b60405180910390fd5b60006127106009548461173291906141d1565b61173c91906142fa565b90506000818461174c919061422b565b90508460000160009054906101000a900473ffffffffffffffffffffffffffffffffffffffff1673ffffffffffffffffffffffffffffffffffffffff166108fc829081150290604051600060405180830381858888f193505050501580156117b8573d6000803e3d6000fd5b50600860009054906101000a900473ffffffffffffffffffffffffffffffffffffffff1673ffffffffffffffffffffffffffffffffffffffff166108fc839081150290604051600060405180830381858888f19350505050158015611821573d6000803e3d6000fd5b5061182d8787856127a1565b867fc7b4f90ffab7fe488d634eb4ed7859d80a80c85accd722aaefeb056e5078d8878486896040516118619392919061432b565b60405180910390a250505050505050565b6000600560008473ffffffffffffffffffffffffffffffffffffffff1673ffffffffffffffffffffffffffffffffffffffff16815260200190815260200160002060008373ffffffffffffffffffffffffffffffffffffffff1673ffffffffffffffffffffffffffffffffffffffff16815260200190815260200160002060009054906101000a900460ff16905092915050565b600063f23a6e6160e01b905095945050505050565b611923611af9565b73ffffffffffffffffffffffffffffffffffffffff16611941611196565b73ffffffffffffffffffffffffffffffffffffffff1614611997576040517f08c379a000000000000000000000000000000000000000000000000000000000815260040161198e90613d59565b60405180910390fd5b600073ffffffffffffffffffffffffffffffffffffffff168173ffffffffffffffffffffffffffffffffffffffff161415611a07576040517f08c379a00000000000000000000000000000000000000000000000000000000081526004016119fe906143d4565b60405180910390fd5b611a1081611f96565b50565b60007f4e2312e0000000000000000000000000000000000000000000000000000000007bffffffffffffffffffffffffffffffffffffffffffffffffffffffff1916827bffffffffffffffffffffffffffffffffffffffffffffffffffffffff19161480611a865750611a8582612865565b5b9050919050565b60008073ffffffffffffffffffffffffffffffffffffffff166002600084815260200190815260200160002060009054906101000a900473ffffffffffffffffffffffffffffffffffffffff1673ffffffffffffffffffffffffffffffffffffffff1614159050919050565b600033905090565b816004600083815260200190815260200160002060006101000a81548173ffffffffffffffffffffffffffffffffffffffff021916908373ffffffffffffffffffffffffffffffffffffffff160217905550808273ffffffffffffffffffffffffffffffffffffffff16611b7483610ed0565b73ffffffffffffffffffffffffffffffffffffffff167f8c5be1e5ebec7d5bd14f71427d1e84f3dd0314c0f7b2291e5b200ac8c7c3b92560405160405180910390a45050565b6000611bc582611a8d565b611c04576040517f08c379a0000000000000000000000000000000000000000000000000000000008152600401611bfb90614466565b60405180910390fd5b6000611c0f83610ed0565b90508073ffffffffffffffffffffffffffffffffffffffff168473ffffffffffffffffffffffffffffffffffffffff161480611c7e57508373ffffffffffffffffffffffffffffffffffffffff16611c6684610a70565b73ffffffffffffffffffffffffffffffffffffffff16145b80611c8f5750611c8e8185611872565b5b91505092915050565b8273ffffffffffffffffffffffffffffffffffffffff16611cb882610ed0565b73ffffffffffffffffffffffffffffffffffffffff1614611d0e576040517f08c379a0000000000000000000000000000000000000000000000000000000008152600401611d05906144f8565b60405180910390fd5b600073ffffffffffffffffffffffffffffffffffffffff168273ffffffffffffffffffffffffffffffffffffffff161415611d7e576040517f08c379a0000000000000000000000000000000000000000000000000000000008152600401611d759061458a565b60405180910390fd5b611d89838383612947565b611d94600082611b01565b6001600360008573ffffffffffffffffffffffffffffffffffffffff1673ffffffffffffffffffffffffffffffffffffffff1681526020019081526020016000206000828254611de4919061422b565b925050819055506001600360008473ffffffffffffffffffffffffffffffffffffffff1673ffffffffffffffffffffffffffffffffffffffff1681526020019081526020016000206000828254611e3b91906145aa565b92505081905550816002600083815260200190815260200160002060006101000a81548173ffffffffffffffffffffffffffffffffffffffff021916908373ffffffffffffffffffffffffffffffffffffffff160217905550808273ffffffffffffffffffffffffffffffffffffffff168473ffffffffffffffffffffffffffffffffffffffff167fddf252ad1be2c89b69c2b068fc378daa952ba7f163c4a11628f55a4df523b3ef60405160405180910390a4505050565b611efc610eb9565b611f3b576040517f08c379a0000000000000000000000000000000000000000000000000000000008152600401611f3290613e57565b60405180910390fd5b6000600660146101000a81548160ff0219169083151502179055507f5db9ee0a495bf2e6ff9c91a7834c1ba4fdd244a5e8aa4e537bd38aeae4b073aa611f7f611af9565b604051611f8c9190613480565b60405180910390a1565b6000600660009054906101000a900473ffffffffffffffffffffffffffffffffffffffff16905081600660006101000a81548173ffffffffffffffffffffffffffffffffffffffff021916908373ffffffffffffffffffffffffffffffffffffffff1602179055508173ffffffffffffffffffffffffffffffffffffffff168173ffffffffffffffffffffffffffffffffffffffff167f8be0079c531659141344cd1fd0a4f28419497f9722a3daafe3b4186f6b6457e060405160405180910390a35050565b612064610eb9565b156120a4576040517f08c379a000000000000000000000000000000000000000000000000000000000815260040161209b90613fe7565b60405180910390fd5b6001600660146101000a81548160ff0219169083151502179055507f62e78cea01bee320cd4e420270b5ea74000d11b0c9f74754ebdbfc544b05a2586120e8611af9565b6040516120f59190613480565b60405180910390a1565b8173ffffffffffffffffffffffffffffffffffffffff168373ffffffffffffffffffffffffffffffffffffffff16141561216e576040517f08c379a00000000000000000000000000000000000000000000000000000000081526004016121659061464c565b60405180910390fd5b80600560008573ffffffffffffffffffffffffffffffffffffffff1673ffffffffffffffffffffffffffffffffffffffff16815260200190815260200160002060008473ffffffffffffffffffffffffffffffffffffffff1673ffffffffffffffffffffffffffffffffffffffff16815260200190815260200160002060006101000a81548160ff0219169083151502179055508173ffffffffffffffffffffffffffffffffffffffff168373ffffffffffffffffffffffffffffffffffffffff167f17307eab39ab6107e8899845ad3d59bd9653f200f220920489ca2b5937696c318360405161225f9190613390565b60405180910390a3505050565b612277848484611c98565b6122838484848461294c565b6122c2576040517f08c379a00000000000000000000000000000000000000000000000000000000081526004016122b9906146de565b60405180910390fd5b50505050565b6000808260060154119050919050565b6000600b600083815260200190815260200160002090506122f882612ad4565b61232b8282600301548360000160009054906101000a900473ffffffffffffffffffffffffffffffffffffffff166127a1565b817f2c56893f6f6026d19bd17b7d05c9f15c522de1ae2b1c3a825f91a73c799321f260405160405180910390a25050565b606060405180602001604052806000815250905090565b606060008214156123bb576040518060400160405280600181526020017f300000000000000000000000000000000000000000000000000000000000000081525090506124cf565b600082905060005b600082146123ed5780806123d690613aad565b915050600a826123e691906142fa565b91506123c3565b60008167ffffffffffffffff81111561240957612408612f7f565b5b6040519080825280601f01601f19166020018201604052801561243b5781602001600182028036833780820191505090505b5090505b600085146124c857600182612454919061422b565b9150600a8561246391906146fe565b603061246f91906145aa565b60f81b81838151811061248557612484613a4f565b5b60200101907effffffffffffffffffffffffffffffffffffffffffffffffffffffffffffff1916908160001a905350600a856124c191906142fa565b945061243f565b8093505050505b919050565b6000806124e085612ae0565b905060008173ffffffffffffffffffffffffffffffffffffffff1662fdd58e86866040518363ffffffff1660e01b815260040161251e92919061472f565b602060405180830381865afa15801561253b573d6000803e3d6000fd5b505050506040513d601f19601f8201168201806040525081019061255f919061476d565b119150509392505050565b600061257585612ae0565b90508073ffffffffffffffffffffffffffffffffffffffff1663f242432a853086866040518563ffffffff1660e01b81526004016125b694939291906147d1565b600060405180830381600087803b1580156125d057600080fd5b505af11580156125e4573d6000803e3d6000fd5b505050505050505050565b603c8160a00151101561260157600080fd5b600061260d6007612aef565b905081600b600083815260200190815260200160002060008201518160000160006101000a81548173ffffffffffffffffffffffffffffffffffffffff021916908373ffffffffffffffffffffffffffffffffffffffff16021790555060208201518160010160006101000a81548173ffffffffffffffffffffffffffffffffffffffff021916908373ffffffffffffffffffffffffffffffffffffffff16021790555060408201518160020155606082015181600301556080820151816004015560a0820151816005015560c082015181600601559050506126f4826000015182612afd565b6126fe6007612ccb565b807f08418039e2d9aa88c39c529ae5ffa4f43775bfae250e0097d03d5f304654f493836060015184608001518560a0015186600001516040516127449493929190614829565b60405180910390a25050565b6000600b6000838152602001908152602001600020905061277082612ce1565b817fe8722c7fbbc203b6f7b1c8d8b08fe896e23df39ea595609629ab14794bd448ed60405160405180910390a25050565b6000600b6000858152602001908152602001600020905060006127e78260010160009054906101000a900473ffffffffffffffffffffffffffffffffffffffff16612ae0565b90508073ffffffffffffffffffffffffffffffffffffffff1663f242432a30858560020154886040518563ffffffff1660e01b815260040161282c94939291906147d1565b600060405180830381600087803b15801561284657600080fd5b505af115801561285a573d6000803e3d6000fd5b505050505050505050565b60007f80ac58cd000000000000000000000000000000000000000000000000000000007bffffffffffffffffffffffffffffffffffffffffffffffffffffffff1916827bffffffffffffffffffffffffffffffffffffffffffffffffffffffff1916148061293057507f5b5e139f000000000000000000000000000000000000000000000000000000007bffffffffffffffffffffffffffffffffffffffffffffffffffffffff1916827bffffffffffffffffffffffffffffffffffffffffffffffffffffffff1916145b80612940575061293f82612df2565b5b9050919050565b505050565b600061296d8473ffffffffffffffffffffffffffffffffffffffff16612e5c565b15612ac7578373ffffffffffffffffffffffffffffffffffffffff1663150b7a02612996611af9565b8786866040518563ffffffff1660e01b81526004016129b894939291906148b2565b6020604051808303816000875af19250505080156129f457506040513d601f19601f820116820180604052508101906129f19190614913565b60015b612a77573d8060008114612a24576040519150601f19603f3d011682016040523d82523d6000602084013e612a29565b606091505b50600081511415612a6f576040517f08c379a0000000000000000000000000000000000000000000000000000000008152600401612a66906146de565b60405180910390fd5b805181602001fd5b63150b7a0260e01b7bffffffffffffffffffffffffffffffffffffffffffffffffffffffff1916817bffffffffffffffffffffffffffffffffffffffffffffffffffffffff191614915050612acc565b600190505b949350505050565b612add81612ce1565b50565b60008082905080915050919050565b600081600001549050919050565b600073ffffffffffffffffffffffffffffffffffffffff168273ffffffffffffffffffffffffffffffffffffffff161415612b6d576040517f08c379a0000000000000000000000000000000000000000000000000000000008152600401612b649061498c565b60405180910390fd5b612b7681611a8d565b15612bb6576040517f08c379a0000000000000000000000000000000000000000000000000000000008152600401612bad906149f8565b60405180910390fd5b612bc260008383612947565b6001600360008473ffffffffffffffffffffffffffffffffffffffff1673ffffffffffffffffffffffffffffffffffffffff1681526020019081526020016000206000828254612c1291906145aa565b92505081905550816002600083815260200190815260200160002060006101000a81548173ffffffffffffffffffffffffffffffffffffffff021916908373ffffffffffffffffffffffffffffffffffffffff160217905550808273ffffffffffffffffffffffffffffffffffffffff16600073ffffffffffffffffffffffffffffffffffffffff167fddf252ad1be2c89b69c2b068fc378daa952ba7f163c4a11628f55a4df523b3ef60405160405180910390a45050565b6001816000016000828254019250508190555050565b6000612cec82610ed0565b9050612cfa81600084612947565b612d05600083611b01565b6001600360008373ffffffffffffffffffffffffffffffffffffffff1673ffffffffffffffffffffffffffffffffffffffff1681526020019081526020016000206000828254612d55919061422b565b925050819055506002600083815260200190815260200160002060006101000a81549073ffffffffffffffffffffffffffffffffffffffff021916905581600073ffffffffffffffffffffffffffffffffffffffff168273ffffffffffffffffffffffffffffffffffffffff167fddf252ad1be2c89b69c2b068fc378daa952ba7f163c4a11628f55a4df523b3ef60405160405180910390a45050565b60007f01ffc9a7000000000000000000000000000000000000000000000000000000007bffffffffffffffffffffffffffffffffffffffffffffffffffffffff1916827bffffffffffffffffffffffffffffffffffffffffffffffffffffffff1916149050919050565b600080823b905060008111915050919050565b6040518060e00160405280600073ffffffffffffffffffffffffffffffffffffffff168152602001600073ffffffffffffffffffffffffffffffffffffffff16815260200160008152602001600081526020016000815260200160008152602001600081525090565b600082825260208201905092915050565b7f444f4e545f53454e440000000000000000000000000000000000000000000000600082015250565b6000612f1f600983612ed8565b9150612f2a82612ee9565b602082019050919050565b60006020820190508181036000830152612f4e81612f12565b9050919050565b6000604051905090565b600080fd5b600080fd5b600080fd5b6000601f19601f8301169050919050565b7f4e487b7100000000000000000000000000000000000000000000000000000000600052604160045260246000fd5b612fb782612f6e565b810181811067ffffffffffffffff82111715612fd657612fd5612f7f565b5b80604052505050565b6000612fe9612f55565b9050612ff58282612fae565b919050565b600067ffffffffffffffff82111561301557613014612f7f565b5b602082029050602081019050919050565b600080fd5b6000819050919050565b61303e8161302b565b811461304957600080fd5b50565b60008135905061305b81613035565b92915050565b600061307461306f84612ffa565b612fdf565b9050808382526020820190506020840283018581111561309757613096613026565b5b835b818110156130c057806130ac888261304c565b845260208401935050602081019050613099565b5050509392505050565b600082601f8301126130df576130de612f69565b5b81356130ef848260208601613061565b91505092915050565b60006020828403121561310e5761310d612f5f565b5b600082013567ffffffffffffffff81111561312c5761312b612f64565b5b613138848285016130ca565b91505092915050565b600081519050919050565b600082825260208201905092915050565b6000819050602082019050919050565b600073ffffffffffffffffffffffffffffffffffffffff82169050919050565b60006131988261316d565b9050919050565b6131a88161318d565b82525050565b6131b78161302b565b82525050565b60e0820160008201516131d3600085018261319f565b5060208201516131e6602085018261319f565b5060408201516131f960408501826131ae565b50606082015161320c60608501826131ae565b50608082015161321f60808501826131ae565b5060a082015161323260a08501826131ae565b5060c082015161324560c08501826131ae565b50505050565b600061325783836131bd565b60e08301905092915050565b6000602082019050919050565b600061327b82613141565b613285818561314c565b93506132908361315d565b8060005b838110156132c15781516132a8888261324b565b97506132b383613263565b925050600181019050613294565b5085935050505092915050565b600060208201905081810360008301526132e88184613270565b905092915050565b60007fffffffff0000000000000000000000000000000000000000000000000000000082169050919050565b613325816132f0565b811461333057600080fd5b50565b6000813590506133428161331c565b92915050565b60006020828403121561335e5761335d612f5f565b5b600061336c84828501613333565b91505092915050565b60008115159050919050565b61338a81613375565b82525050565b60006020820190506133a56000830184613381565b92915050565b600081519050919050565b60005b838110156133d45780820151818401526020810190506133b9565b838111156133e3576000848401525b50505050565b60006133f4826133ab565b6133fe8185612ed8565b935061340e8185602086016133b6565b61341781612f6e565b840191505092915050565b6000602082019050818103600083015261343c81846133e9565b905092915050565b60006020828403121561345a57613459612f5f565b5b60006134688482850161304c565b91505092915050565b61347a8161318d565b82525050565b60006020820190506134956000830184613471565b92915050565b6134a48161318d565b81146134af57600080fd5b50565b6000813590506134c18161349b565b92915050565b600080604083850312156134de576134dd612f5f565b5b60006134ec858286016134b2565b92505060206134fd8582860161304c565b9150509250929050565b61351081613375565b811461351b57600080fd5b50565b60008135905061352d81613507565b92915050565b6000806040838503121561354a57613549612f5f565b5b6000613558858286016134b2565b92505060206135698582860161351e565b9150509250929050565b60008060006060848603121561358c5761358b612f5f565b5b600061359a868287016134b2565b93505060206135ab868287016134b2565b92505060406135bc8682870161304c565b9150509250925092565b6135cf8161302b565b82525050565b60006020820190506135ea60008301846135c6565b92915050565b600060e082019050613605600083018a613471565b6136126020830189613471565b61361f60408301886135c6565b61362c60608301876135c6565b61363960808301866135c6565b61364660a08301856135c6565b61365360c08301846135c6565b98975050505050505050565b60006020828403121561367557613674612f5f565b5b6000613683848285016134b2565b91505092915050565b600080fd5b600067ffffffffffffffff8211156136ac576136ab612f7f565b5b6136b582612f6e565b9050602081019050919050565b82818337600083830152505050565b60006136e46136df84613691565b612fdf565b905082815260208101848484011115613700576136ff61368c565b5b61370b8482856136c2565b509392505050565b600082601f83011261372857613727612f69565b5b81356137388482602086016136d1565b91505092915050565b6000806000806080858703121561375b5761375a612f5f565b5b6000613769878288016134b2565b945050602061377a878288016134b2565b935050604061378b8782880161304c565b925050606085013567ffffffffffffffff8111156137ac576137ab612f64565b5b6137b887828801613713565b91505092959194509250565b600080600080600060a086880312156137e0576137df612f5f565b5b60006137ee888289016134b2565b95505060206137ff888289016134b2565b945050604086013567ffffffffffffffff8111156138205761381f612f64565b5b61382c888289016130ca565b935050606086013567ffffffffffffffff81111561384d5761384c612f64565b5b613859888289016130ca565b925050608086013567ffffffffffffffff81111561387a57613879612f64565b5b61388688828901613713565b9150509295509295909350565b61389c816132f0565b82525050565b60006020820190506138b76000830184613893565b92915050565b600080600080600060a086880312156138d9576138d8612f5f565b5b60006138e7888289016134b2565b95505060206138f88882890161304c565b94505060406139098882890161304c565b935050606061391a8882890161304c565b925050608061392b8882890161304c565b9150509295509295909350565b6000806040838503121561394f5761394e612f5f565b5b600061395d8582860161304c565b925050602061396e8582860161304c565b9150509250929050565b6000806040838503121561398f5761398e612f5f565b5b600061399d858286016134b2565b92505060206139ae858286016134b2565b9150509250929050565b600080600080600060a086880312156139d4576139d3612f5f565b5b60006139e2888289016134b2565b95505060206139f3888289016134b2565b9450506040613a048882890161304c565b9350506060613a158882890161304c565b925050608086013567ffffffffffffffff811115613a3657613a35612f64565b5b613a4288828901613713565b9150509295509295909350565b7f4e487b7100000000000000000000000000000000000000000000000000000000600052603260045260246000fd5b7f4e487b7100000000000000000000000000000000000000000000000000000000600052601160045260246000fd5b6000613ab88261302b565b91507fffffffffffffffffffffffffffffffffffffffffffffffffffffffffffffffff821415613aeb57613aea613a7e565b5b600182019050919050565b7f4e487b7100000000000000000000000000000000000000000000000000000000600052602260045260246000fd5b60006002820490506001821680613b3d57607f821691505b60208210811415613b5157613b50613af6565b5b50919050565b7f4552433732313a20617070726f76656420717565727920666f72206e6f6e657860008201527f697374656e7420746f6b656e0000000000000000000000000000000000000000602082015250565b6000613bb3602c83612ed8565b9150613bbe82613b57565b604082019050919050565b60006020820190508181036000830152613be281613ba6565b9050919050565b7f4552433732313a20617070726f76616c20746f2063757272656e74206f776e6560008201527f7200000000000000000000000000000000000000000000000000000000000000602082015250565b6000613c45602183612ed8565b9150613c5082613be9565b604082019050919050565b60006020820190508181036000830152613c7481613c38565b9050919050565b7f4552433732313a20617070726f76652063616c6c6572206973206e6f74206f7760008201527f6e6572206e6f7220617070726f76656420666f7220616c6c0000000000000000602082015250565b6000613cd7603883612ed8565b9150613ce282613c7b565b604082019050919050565b60006020820190508181036000830152613d0681613cca565b9050919050565b7f4f776e61626c653a2063616c6c6572206973206e6f7420746865206f776e6572600082015250565b6000613d43602083612ed8565b9150613d4e82613d0d565b602082019050919050565b60006020820190508181036000830152613d7281613d36565b9050919050565b7f4552433732313a207472616e736665722063616c6c6572206973206e6f74206f60008201527f776e6572206e6f7220617070726f766564000000000000000000000000000000602082015250565b6000613dd5603183612ed8565b9150613de082613d79565b604082019050919050565b60006020820190508181036000830152613e0481613dc8565b9050919050565b7f5061757361626c653a206e6f7420706175736564000000000000000000000000600082015250565b6000613e41601483612ed8565b9150613e4c82613e0b565b602082019050919050565b60006020820190508181036000830152613e7081613e34565b9050919050565b7f4552433732313a206f776e657220717565727920666f72206e6f6e657869737460008201527f656e7420746f6b656e0000000000000000000000000000000000000000000000602082015250565b6000613ed3602983612ed8565b9150613ede82613e77565b604082019050919050565b60006020820190508181036000830152613f0281613ec6565b9050919050565b7f4552433732313a2062616c616e636520717565727920666f7220746865207a6560008201527f726f206164647265737300000000000000000000000000000000000000000000602082015250565b6000613f65602a83612ed8565b9150613f7082613f09565b604082019050919050565b60006020820190508181036000830152613f9481613f58565b9050919050565b7f5061757361626c653a2070617573656400000000000000000000000000000000600082015250565b6000613fd1601083612ed8565b9150613fdc82613f9b565b602082019050919050565b6000602082019050818103600083015261400081613fc4565b9050919050565b7f4552433732314d657461646174613a2055524920717565727920666f72206e6f60008201527f6e6578697374656e7420746f6b656e0000000000000000000000000000000000602082015250565b6000614063602f83612ed8565b915061406e82614007565b604082019050919050565b6000602082019050818103600083015261409281614056565b9050919050565b600081905092915050565b60006140af826133ab565b6140b98185614099565b93506140c98185602086016133b6565b80840191505092915050565b60006140e182856140a4565b91506140ed82846140a4565b91508190509392505050565b7f4e6674206e6f7420616c6c6f7765640000000000000000000000000000000000600082015250565b600061412f600f83612ed8565b915061413a826140f9565b602082019050919050565b6000602082019050818103600083015261415e81614122565b9050919050565b7f5573657220646f65736e2774206f776e73206e66740000000000000000000000600082015250565b600061419b601583612ed8565b91506141a682614165565b602082019050919050565b600060208201905081810360008301526141ca8161418e565b9050919050565b60006141dc8261302b565b91506141e78361302b565b9250817fffffffffffffffffffffffffffffffffffffffffffffffffffffffffffffffff04831182151516156142205761421f613a7e565b5b828202905092915050565b60006142368261302b565b91506142418361302b565b92508282101561425457614253613a7e565b5b828203905092915050565b7f4e4f5f454e4f5547485f56414c55450000000000000000000000000000000000600082015250565b6000614295600f83612ed8565b91506142a08261425f565b602082019050919050565b600060208201905081810360008301526142c481614288565b9050919050565b7f4e487b7100000000000000000000000000000000000000000000000000000000600052601260045260246000fd5b60006143058261302b565b91506143108361302b565b9250826143205761431f6142cb565b5b828204905092915050565b60006060820190506143406000830186613471565b61434d60208301856135c6565b61435a60408301846135c6565b949350505050565b7f4f776e61626c653a206e6577206f776e657220697320746865207a65726f206160008201527f6464726573730000000000000000000000000000000000000000000000000000602082015250565b60006143be602683612ed8565b91506143c982614362565b604082019050919050565b600060208201905081810360008301526143ed816143b1565b9050919050565b7f4552433732313a206f70657261746f7220717565727920666f72206e6f6e657860008201527f697374656e7420746f6b656e0000000000000000000000000000000000000000602082015250565b6000614450602c83612ed8565b915061445b826143f4565b604082019050919050565b6000602082019050818103600083015261447f81614443565b9050919050565b7f4552433732313a207472616e73666572206f6620746f6b656e2074686174206960008201527f73206e6f74206f776e0000000000000000000000000000000000000000000000602082015250565b60006144e2602983612ed8565b91506144ed82614486565b604082019050919050565b60006020820190508181036000830152614511816144d5565b9050919050565b7f4552433732313a207472616e7366657220746f20746865207a65726f2061646460008201527f7265737300000000000000000000000000000000000000000000000000000000602082015250565b6000614574602483612ed8565b915061457f82614518565b604082019050919050565b600060208201905081810360008301526145a381614567565b9050919050565b60006145b58261302b565b91506145c08361302b565b9250827fffffffffffffffffffffffffffffffffffffffffffffffffffffffffffffffff038211156145f5576145f4613a7e565b5b828201905092915050565b7f4552433732313a20617070726f766520746f2063616c6c657200000000000000600082015250565b6000614636601983612ed8565b915061464182614600565b602082019050919050565b6000602082019050818103600083015261466581614629565b9050919050565b7f4552433732313a207472616e7366657220746f206e6f6e20455243373231526560008201527f63656976657220696d706c656d656e7465720000000000000000000000000000602082015250565b60006146c8603283612ed8565b91506146d38261466c565b604082019050919050565b600060208201905081810360008301526146f7816146bb565b9050919050565b60006147098261302b565b91506147148361302b565b925082614724576147236142cb565b5b828206905092915050565b60006040820190506147446000830185613471565b61475160208301846135c6565b9392505050565b60008151905061476781613035565b92915050565b60006020828403121561478357614782612f5f565b5b600061479184828501614758565b91505092915050565b600082825260208201905092915050565b50565b60006147bb60008361479a565b91506147c6826147ab565b600082019050919050565b600060a0820190506147e66000830187613471565b6147f36020830186613471565b61480060408301856135c6565b61480d60608301846135c6565b818103608083015261481e816147ae565b905095945050505050565b600060808201905061483e60008301876135c6565b61484b60208301866135c6565b61485860408301856135c6565b6148656060830184613471565b95945050505050565b600081519050919050565b60006148848261486e565b61488e818561479a565b935061489e8185602086016133b6565b6148a781612f6e565b840191505092915050565b60006080820190506148c76000830187613471565b6148d46020830186613471565b6148e160408301856135c6565b81810360608301526148f38184614879565b905095945050505050565b60008151905061490d8161331c565b92915050565b60006020828403121561492957614928612f5f565b5b6000614937848285016148fe565b91505092915050565b7f4552433732313a206d696e7420746f20746865207a65726f2061646472657373600082015250565b6000614976602083612ed8565b915061498182614940565b602082019050919050565b600060208201905081810360008301526149a581614969565b9050919050565b7f4552433732313a20746f6b656e20616c7265616479206d696e74656400000000600082015250565b60006149e2601c83612ed8565b91506149ed826149ac565b602082019050919050565b60006020820190508181036000830152614a11816149d5565b905091905056fea2646970667358221220acb91e44bfdc7a6debfd1597c9d2cc6b0398eb64680361adb57d7d53b206729e64736f6c634300080b0033",
  "linkReferences": {},
  "deployedLinkReferences": {}
}