{
  "_format": "hh-sol-artifact-1",
  "contractName": "ClockSale",
  "sourceName": "contracts/ClockSale.sol",
  "abi": [
    {
      "inputs": [
        {
          "internalType": "address",
          "name": "_feeReceiver",
          "type": "address"
        },
        {
          "internalType": "uint256",
          "name": "_ownerCut",
          "type": "uint256"
        },
        {
          "internalType": "string",
          "name": "_name",
          "type": "string"
        },
        {
          "internalType": "string",
          "name": "_symbol",
          "type": "string"
        }
      ],
      "stateMutability": "nonpayable",
      "type": "constructor"
    },
    {
      "anonymous": false,
      "inputs": [
        {
          "indexed": true,
          "internalType": "address",
          "name": "owner",
          "type": "address"
        },
        {
          "indexed": true,
          "internalType": "address",
          "name": "approved",
          "type": "address"
        },
        {
          "indexed": true,
          "internalType": "uint256",
          "name": "tokenId",
          "type": "uint256"
        }
      ],
      "name": "Approval",
      "type": "event"
    },
    {
      "anonymous": false,
      "inputs": [
        {
          "indexed": true,
          "internalType": "address",
          "name": "owner",
          "type": "address"
        },
        {
          "indexed": true,
          "internalType": "address",
          "name": "operator",
          "type": "address"
        },
        {
          "indexed": false,
          "internalType": "bool",
          "name": "approved",
          "type": "bool"
        }
      ],
      "name": "ApprovalForAll",
      "type": "event"
    },
    {
      "anonymous": false,
      "inputs": [
        {
          "indexed": true,
          "internalType": "uint256",
          "name": "_aucitonId",
          "type": "uint256"
        },
        {
          "indexed": false,
          "internalType": "address",
          "name": "_buyer",
          "type": "address"
        },
        {
          "indexed": false,
          "internalType": "uint256",
          "name": "_cost",
          "type": "uint256"
        },
        {
          "indexed": false,
          "internalType": "uint256",
          "name": "_nftAmount",
          "type": "uint256"
        }
      ],
      "name": "BuySuccessful",
      "type": "event"
    },
    {
      "anonymous": false,
      "inputs": [
        {
          "indexed": true,
          "internalType": "address",
          "name": "previousOwner",
          "type": "address"
        },
        {
          "indexed": true,
          "internalType": "address",
          "name": "newOwner",
          "type": "address"
        }
      ],
      "name": "OwnershipTransferred",
      "type": "event"
    },
    {
      "anonymous": false,
      "inputs": [
        {
          "indexed": false,
          "internalType": "address",
          "name": "account",
          "type": "address"
        }
      ],
      "name": "Paused",
      "type": "event"
    },
    {
      "anonymous": false,
      "inputs": [
        {
          "indexed": true,
          "internalType": "uint256",
          "name": "_auctionId",
          "type": "uint256"
        }
      ],
      "name": "SaleCancelled",
      "type": "event"
    },
    {
      "anonymous": false,
      "inputs": [
        {
          "indexed": true,
          "internalType": "uint256",
          "name": "_auctionId",
          "type": "uint256"
        },
        {
          "indexed": false,
          "internalType": "uint256",
          "name": "_amount",
          "type": "uint256"
        },
        {
          "indexed": false,
          "internalType": "uint256",
          "name": "_price",
          "type": "uint256"
        },
        {
          "indexed": false,
          "internalType": "uint256",
          "name": "_duration",
          "type": "uint256"
        },
        {
          "indexed": false,
          "internalType": "address",
          "name": "_seller",
          "type": "address"
        }
      ],
      "name": "SaleCreated",
      "type": "event"
    },
    {
      "anonymous": false,
      "inputs": [
        {
          "indexed": true,
          "internalType": "uint256",
          "name": "_aucitonId",
          "type": "uint256"
        }
      ],
      "name": "SaleSuccessful",
      "type": "event"
    },
    {
      "anonymous": false,
      "inputs": [
        {
          "indexed": true,
          "internalType": "address",
          "name": "from",
          "type": "address"
        },
        {
          "indexed": true,
          "internalType": "address",
          "name": "to",
          "type": "address"
        },
        {
          "indexed": true,
          "internalType": "uint256",
          "name": "tokenId",
          "type": "uint256"
        }
      ],
      "name": "Transfer",
      "type": "event"
    },
    {
      "anonymous": false,
      "inputs": [
        {
          "indexed": false,
          "internalType": "address",
          "name": "account",
          "type": "address"
        }
      ],
      "name": "Unpaused",
      "type": "event"
    },
    {
      "inputs": [
        {
          "internalType": "address",
          "name": "to",
          "type": "address"
        },
        {
          "internalType": "uint256",
          "name": "tokenId",
          "type": "uint256"
        }
      ],
      "name": "approve",
      "outputs": [],
      "stateMutability": "nonpayable",
      "type": "function"
    },
    {
      "inputs": [
        {
          "internalType": "address",
          "name": "owner",
          "type": "address"
        }
      ],
      "name": "balanceOf",
      "outputs": [
        {
          "internalType": "uint256",
          "name": "",
          "type": "uint256"
        }
      ],
      "stateMutability": "view",
      "type": "function"
    },
    {
      "inputs": [
        {
          "internalType": "uint256",
          "name": "_tokenId",
          "type": "uint256"
        },
        {
          "internalType": "uint256",
          "name": "amount",
          "type": "uint256"
        }
      ],
      "name": "buy",
      "outputs": [],
      "stateMutability": "payable",
      "type": "function"
    },
    {
      "inputs": [
        {
          "internalType": "uint256",
          "name": "_tokenId",
          "type": "uint256"
        }
      ],
      "name": "cancelSale",
      "outputs": [],
      "stateMutability": "nonpayable",
      "type": "function"
    },
    {
      "inputs": [
        {
          "internalType": "address",
          "name": "_nftAddress",
          "type": "address"
        },
        {
          "internalType": "uint256",
          "name": "_tokenId",
          "type": "uint256"
        },
        {
          "internalType": "uint256",
          "name": "_price",
          "type": "uint256"
        },
        {
          "internalType": "uint256",
          "name": "_amount",
          "type": "uint256"
        },
        {
          "internalType": "uint256",
          "name": "_duration",
          "type": "uint256"
        }
      ],
      "name": "createSale",
      "outputs": [],
      "stateMutability": "nonpayable",
      "type": "function"
    },
    {
      "inputs": [],
      "name": "feeReceiver",
      "outputs": [
        {
          "internalType": "address",
          "name": "",
          "type": "address"
        }
      ],
      "stateMutability": "view",
      "type": "function"
    },
    {
      "inputs": [],
      "name": "genesisBlock",
      "outputs": [
        {
          "internalType": "uint256",
          "name": "",
          "type": "uint256"
        }
      ],
      "stateMutability": "view",
      "type": "function"
    },
    {
      "inputs": [
        {
          "internalType": "uint256",
          "name": "tokenId",
          "type": "uint256"
        }
      ],
      "name": "getApproved",
      "outputs": [
        {
          "internalType": "address",
          "name": "",
          "type": "address"
        }
      ],
      "stateMutability": "view",
      "type": "function"
    },
    {
      "inputs": [
        {
          "internalType": "uint256",
          "name": "_tokenId",
          "type": "uint256"
        }
      ],
      "name": "getCurrentPrice",
      "outputs": [
        {
          "internalType": "uint256",
          "name": "",
          "type": "uint256"
        }
      ],
      "stateMutability": "view",
      "type": "function"
    },
    {
      "inputs": [
        {
          "internalType": "uint256[]",
          "name": "_tokenIds",
          "type": "uint256[]"
        }
      ],
      "name": "getSales",
      "outputs": [
        {
          "components": [
            {
              "internalType": "address",
              "name": "seller",
              "type": "address"
            },
            {
              "internalType": "address",
              "name": "nft",
              "type": "address"
            },
            {
              "internalType": "uint256",
              "name": "nftId",
              "type": "uint256"
            },
            {
              "internalType": "uint256",
              "name": "amount",
              "type": "uint256"
            },
            {
              "internalType": "uint256",
              "name": "price",
              "type": "uint256"
            },
            {
              "internalType": "uint256",
              "name": "duration",
              "type": "uint256"
            },
            {
              "internalType": "uint256",
              "name": "startedAt",
              "type": "uint256"
            },
            {
              "internalType": "enum ClockSale.SaleStatus",
              "name": "status",
              "type": "uint8"
            }
          ],
          "internalType": "struct ClockSale.Sale[]",
          "name": "",
          "type": "tuple[]"
        }
      ],
      "stateMutability": "view",
      "type": "function"
    },
    {
      "inputs": [
        {
          "internalType": "address",
          "name": "",
          "type": "address"
        }
      ],
      "name": "isAllowed",
      "outputs": [
        {
          "internalType": "bool",
          "name": "",
          "type": "bool"
        }
      ],
      "stateMutability": "view",
      "type": "function"
    },
    {
      "inputs": [
        {
          "internalType": "address",
          "name": "owner",
          "type": "address"
        },
        {
          "internalType": "address",
          "name": "operator",
          "type": "address"
        }
      ],
      "name": "isApprovedForAll",
      "outputs": [
        {
          "internalType": "bool",
          "name": "",
          "type": "bool"
        }
      ],
      "stateMutability": "view",
      "type": "function"
    },
    {
      "inputs": [],
      "name": "name",
      "outputs": [
        {
          "internalType": "string",
          "name": "",
          "type": "string"
        }
      ],
      "stateMutability": "view",
      "type": "function"
    },
    {
      "inputs": [
        {
          "internalType": "address",
          "name": "",
          "type": "address"
        },
        {
          "internalType": "address",
          "name": "",
          "type": "address"
        },
        {
          "internalType": "uint256[]",
          "name": "",
          "type": "uint256[]"
        },
        {
          "internalType": "uint256[]",
          "name": "",
          "type": "uint256[]"
        },
        {
          "internalType": "bytes",
          "name": "",
          "type": "bytes"
        }
      ],
      "name": "onERC1155BatchReceived",
      "outputs": [
        {
          "internalType": "bytes4",
          "name": "",
          "type": "bytes4"
        }
      ],
      "stateMutability": "nonpayable",
      "type": "function"
    },
    {
      "inputs": [
        {
          "internalType": "address",
          "name": "",
          "type": "address"
        },
        {
          "internalType": "address",
          "name": "",
          "type": "address"
        },
        {
          "internalType": "uint256",
          "name": "",
          "type": "uint256"
        },
        {
          "internalType": "uint256",
          "name": "",
          "type": "uint256"
        },
        {
          "internalType": "bytes",
          "name": "",
          "type": "bytes"
        }
      ],
      "name": "onERC1155Received",
      "outputs": [
        {
          "internalType": "bytes4",
          "name": "",
          "type": "bytes4"
        }
      ],
      "stateMutability": "nonpayable",
      "type": "function"
    },
    {
      "inputs": [],
      "name": "owner",
      "outputs": [
        {
          "internalType": "address",
          "name": "",
          "type": "address"
        }
      ],
      "stateMutability": "view",
      "type": "function"
    },
    {
      "inputs": [],
      "name": "ownerCut",
      "outputs": [
        {
          "internalType": "uint256",
          "name": "",
          "type": "uint256"
        }
      ],
      "stateMutability": "view",
      "type": "function"
    },
    {
      "inputs": [
        {
          "internalType": "uint256",
          "name": "tokenId",
          "type": "uint256"
        }
      ],
      "name": "ownerOf",
      "outputs": [
        {
          "internalType": "address",
          "name": "",
          "type": "address"
        }
      ],
      "stateMutability": "view",
      "type": "function"
    },
    {
      "inputs": [],
      "name": "paused",
      "outputs": [
        {
          "internalType": "bool",
          "name": "",
          "type": "bool"
        }
      ],
      "stateMutability": "view",
      "type": "function"
    },
    {
      "inputs": [],
      "name": "renounceOwnership",
      "outputs": [],
      "stateMutability": "nonpayable",
      "type": "function"
    },
    {
      "inputs": [],
      "name": "restartTrading",
      "outputs": [],
      "stateMutability": "nonpayable",
      "type": "function"
    },
    {
      "inputs": [
        {
          "internalType": "address",
          "name": "from",
          "type": "address"
        },
        {
          "internalType": "address",
          "name": "to",
          "type": "address"
        },
        {
          "internalType": "uint256",
          "name": "tokenId",
          "type": "uint256"
        }
      ],
      "name": "safeTransferFrom",
      "outputs": [],
      "stateMutability": "nonpayable",
      "type": "function"
    },
    {
      "inputs": [
        {
          "internalType": "address",
          "name": "from",
          "type": "address"
        },
        {
          "internalType": "address",
          "name": "to",
          "type": "address"
        },
        {
          "internalType": "uint256",
          "name": "tokenId",
          "type": "uint256"
        },
        {
          "internalType": "bytes",
          "name": "_data",
          "type": "bytes"
        }
      ],
      "name": "safeTransferFrom",
      "outputs": [],
      "stateMutability": "nonpayable",
      "type": "function"
    },
    {
      "inputs": [
        {
          "internalType": "uint256",
          "name": "",
          "type": "uint256"
        }
      ],
      "name": "sales",
      "outputs": [
        {
          "internalType": "address",
          "name": "seller",
          "type": "address"
        },
        {
          "internalType": "address",
          "name": "nft",
          "type": "address"
        },
        {
          "internalType": "uint256",
          "name": "nftId",
          "type": "uint256"
        },
        {
          "internalType": "uint256",
          "name": "amount",
          "type": "uint256"
        },
        {
          "internalType": "uint256",
          "name": "price",
          "type": "uint256"
        },
        {
          "internalType": "uint256",
          "name": "duration",
          "type": "uint256"
        },
        {
          "internalType": "uint256",
          "name": "startedAt",
          "type": "uint256"
        },
        {
          "internalType": "enum ClockSale.SaleStatus",
          "name": "status",
          "type": "uint8"
        }
      ],
      "stateMutability": "view",
      "type": "function"
    },
    {
      "inputs": [
        {
          "internalType": "address",
          "name": "operator",
          "type": "address"
        },
        {
          "internalType": "bool",
          "name": "approved",
          "type": "bool"
        }
      ],
      "name": "setApprovalForAll",
      "outputs": [],
      "stateMutability": "nonpayable",
      "type": "function"
    },
    {
      "inputs": [
        {
          "internalType": "address",
          "name": "nftAddress",
          "type": "address"
        },
        {
          "internalType": "bool",
          "name": "allow",
          "type": "bool"
        }
      ],
      "name": "setNftAllowed",
      "outputs": [],
      "stateMutability": "nonpayable",
      "type": "function"
    },
    {
      "inputs": [],
      "name": "stopTrading",
      "outputs": [],
      "stateMutability": "nonpayable",
      "type": "function"
    },
    {
      "inputs": [
        {
          "internalType": "bytes4",
          "name": "interfaceId",
          "type": "bytes4"
        }
      ],
      "name": "supportsInterface",
      "outputs": [
        {
          "internalType": "bool",
          "name": "",
          "type": "bool"
        }
      ],
      "stateMutability": "view",
      "type": "function"
    },
    {
      "inputs": [],
      "name": "symbol",
      "outputs": [
        {
          "internalType": "string",
          "name": "",
          "type": "string"
        }
      ],
      "stateMutability": "view",
      "type": "function"
    },
    {
      "inputs": [],
      "name": "tokenIdTracker",
      "outputs": [
        {
          "internalType": "uint256",
          "name": "_value",
          "type": "uint256"
        }
      ],
      "stateMutability": "view",
      "type": "function"
    },
    {
      "inputs": [
        {
          "internalType": "uint256",
          "name": "tokenId",
          "type": "uint256"
        }
      ],
      "name": "tokenURI",
      "outputs": [
        {
          "internalType": "string",
          "name": "",
          "type": "string"
        }
      ],
      "stateMutability": "view",
      "type": "function"
    },
    {
      "inputs": [
        {
          "internalType": "address",
          "name": "from",
          "type": "address"
        },
        {
          "internalType": "address",
          "name": "to",
          "type": "address"
        },
        {
          "internalType": "uint256",
          "name": "tokenId",
          "type": "uint256"
        }
      ],
      "name": "transferFrom",
      "outputs": [],
      "stateMutability": "nonpayable",
      "type": "function"
    },
    {
      "inputs": [
        {
          "internalType": "address",
          "name": "newOwner",
          "type": "address"
        }
      ],
      "name": "transferOwnership",
      "outputs": [],
      "stateMutability": "nonpayable",
      "type": "function"
    },
    {
      "stateMutability": "payable",
      "type": "receive"
    }
  ],
  "bytecode": "0x60806040523480156200001157600080fd5b506040516200534b3803806200534b8339818101604052810190620000379190620004cc565b8181816000908051906020019062000051929190620001df565b5080600190805190602001906200006a929190620001df565b5050506200008d620000816200011160201b60201c565b6200011960201b60201c565b6000600660146101000a81548160ff021916908315150217905550612710831115620000b857600080fd5b8260098190555083600860006101000a81548173ffffffffffffffffffffffffffffffffffffffff021916908373ffffffffffffffffffffffffffffffffffffffff16021790555043600a8190555050505050620005e1565b600033905090565b6000600660009054906101000a900473ffffffffffffffffffffffffffffffffffffffff16905081600660006101000a81548173ffffffffffffffffffffffffffffffffffffffff021916908373ffffffffffffffffffffffffffffffffffffffff1602179055508173ffffffffffffffffffffffffffffffffffffffff168173ffffffffffffffffffffffffffffffffffffffff167f8be0079c531659141344cd1fd0a4f28419497f9722a3daafe3b4186f6b6457e060405160405180910390a35050565b828054620001ed90620005ab565b90600052602060002090601f0160209004810192826200021157600085556200025d565b82601f106200022c57805160ff19168380011785556200025d565b828001600101855582156200025d579182015b828111156200025c5782518255916020019190600101906200023f565b5b5090506200026c919062000270565b5090565b5b808211156200028b57600081600090555060010162000271565b5090565b6000604051905090565b600080fd5b600080fd5b600073ffffffffffffffffffffffffffffffffffffffff82169050919050565b6000620002d082620002a3565b9050919050565b620002e281620002c3565b8114620002ee57600080fd5b50565b6000815190506200030281620002d7565b92915050565b6000819050919050565b6200031d8162000308565b81146200032957600080fd5b50565b6000815190506200033d8162000312565b92915050565b600080fd5b600080fd5b6000601f19601f8301169050919050565b7f4e487b7100000000000000000000000000000000000000000000000000000000600052604160045260246000fd5b62000398826200034d565b810181811067ffffffffffffffff82111715620003ba57620003b96200035e565b5b80604052505050565b6000620003cf6200028f565b9050620003dd82826200038d565b919050565b600067ffffffffffffffff8211156200040057620003ff6200035e565b5b6200040b826200034d565b9050602081019050919050565b60005b83811015620004385780820151818401526020810190506200041b565b8381111562000448576000848401525b50505050565b6000620004656200045f84620003e2565b620003c3565b90508281526020810184848401111562000484576200048362000348565b5b6200049184828562000418565b509392505050565b600082601f830112620004b157620004b062000343565b5b8151620004c38482602086016200044e565b91505092915050565b60008060008060808587031215620004e957620004e862000299565b5b6000620004f987828801620002f1565b94505060206200050c878288016200032c565b935050604085015167ffffffffffffffff81111562000530576200052f6200029e565b5b6200053e8782880162000499565b925050606085015167ffffffffffffffff8111156200056257620005616200029e565b5b620005708782880162000499565b91505092959194509250565b7f4e487b7100000000000000000000000000000000000000000000000000000000600052602260045260246000fd5b60006002820490506001821680620005c457607f821691505b60208210811415620005db57620005da6200057c565b5b50919050565b614d5a80620005f16000396000f3fe6080604052600436106101f15760003560e01c806383b5ff8b1161010d578063bc197c81116100a0578063d68a08531161006f578063d68a085314610763578063d6febde81461078c578063e985e9c5146107a8578063f23a6e61146107e5578063f2fde38b1461082257610239565b8063bc197c8114610683578063bd94b005146106c0578063c55d0f56146106e9578063c87b56dd1461072657610239565b8063b3f00674116100dc578063b3f00674146105ae578063b5f522f7146105d9578063b88d4fde1461061d578063babcc5391461064657610239565b806383b5ff8b146105045780638da5cb5b1461052f57806395d89b411461055a578063a22cb4651461058557610239565b80632cdddc1b116101855780636352211e116101545780636352211e1461045c57806370a0823114610499578063715018a6146104d65780637185f163146104ed57610239565b80632cdddc1b146103c657806342842e0e146103dd5780634cdc9c63146104065780635c975abb1461043157610239565b8063081812fc116101c1578063081812fc1461030e578063095ea7b31461034b5780631e1d7bb51461037457806323b872dd1461039d57610239565b8062313a681461023e57806301ffc9a71461027b57806302bf3d56146102b857806306fdde03146102e357610239565b36610239576000610237576040517f08c379a000000000000000000000000000000000000000000000000000000000815260040161022e9061312b565b60405180910390fd5b005b600080fd5b34801561024a57600080fd5b50610265600480360381019061026091906132ee565b61084b565b6040516102729190613550565b60405180910390f35b34801561028757600080fd5b506102a2600480360381019061029d91906135ca565b610a3f565b6040516102af9190613612565b60405180910390f35b3480156102c457600080fd5b506102cd610a51565b6040516102da919061363c565b60405180910390f35b3480156102ef57600080fd5b506102f8610a5d565b60405161030591906136ce565b60405180910390f35b34801561031a57600080fd5b50610335600480360381019061033091906136f0565b610aef565b604051610342919061372c565b60405180910390f35b34801561035757600080fd5b50610372600480360381019061036d9190613773565b610b74565b005b34801561038057600080fd5b5061039b600480360381019061039691906137df565b610c8c565b005b3480156103a957600080fd5b506103c460048036038101906103bf919061381f565b610d63565b005b3480156103d257600080fd5b506103db610dc3565b005b3480156103e957600080fd5b5061040460048036038101906103ff919061381f565b610e90565b005b34801561041257600080fd5b5061041b610eb0565b604051610428919061363c565b60405180910390f35b34801561043d57600080fd5b50610446610eb6565b6040516104539190613612565b60405180910390f35b34801561046857600080fd5b50610483600480360381019061047e91906136f0565b610ecd565b604051610490919061372c565b60405180910390f35b3480156104a557600080fd5b506104c060048036038101906104bb9190613872565b610f7f565b6040516104cd919061363c565b60405180910390f35b3480156104e257600080fd5b506104eb611037565b005b3480156104f957600080fd5b506105026110bf565b005b34801561051057600080fd5b5061051961118d565b604051610526919061363c565b60405180910390f35b34801561053b57600080fd5b50610544611193565b604051610551919061372c565b60405180910390f35b34801561056657600080fd5b5061056f6111bd565b60405161057c91906136ce565b60405180910390f35b34801561059157600080fd5b506105ac60048036038101906105a791906137df565b61124f565b005b3480156105ba57600080fd5b506105c3611265565b6040516105d0919061372c565b60405180910390f35b3480156105e557600080fd5b5061060060048036038101906105fb91906136f0565b61128b565b6040516106149897969594939291906138ae565b60405180910390f35b34801561062957600080fd5b50610644600480360381019061063f91906139e1565b611320565b005b34801561065257600080fd5b5061066d60048036038101906106689190613872565b611382565b60405161067a9190613612565b60405180910390f35b34801561068f57600080fd5b506106aa60048036038101906106a59190613a64565b6113a2565b6040516106b79190613b42565b60405180910390f35b3480156106cc57600080fd5b506106e760048036038101906106e291906136f0565b6113b7565b005b3480156106f557600080fd5b50610710600480360381019061070b91906136f0565b611434565b60405161071d919061363c565b60405180910390f35b34801561073257600080fd5b5061074d600480360381019061074891906136f0565b61146b565b60405161075a91906136ce565b60405180910390f35b34801561076f57600080fd5b5061078a60048036038101906107859190613b5d565b611512565b005b6107a660048036038101906107a19190613bd8565b6116d7565b005b3480156107b457600080fd5b506107cf60048036038101906107ca9190613c18565b61191e565b6040516107dc9190613612565b60405180910390f35b3480156107f157600080fd5b5061080c60048036038101906108079190613c58565b6119b2565b6040516108199190613b42565b60405180910390f35b34801561082e57600080fd5b5061084960048036038101906108449190613872565b6119c7565b005b60606000825167ffffffffffffffff81111561086a57610869613175565b5b6040519080825280602002602001820160405280156108a357816020015b61089061304b565b8152602001906001900390816108885790505b50905060005b8351811015610a3557600b60008583815181106108c9576108c8613cef565b5b60200260200101518152602001908152602001600020604051806101000160405290816000820160009054906101000a900473ffffffffffffffffffffffffffffffffffffffff1673ffffffffffffffffffffffffffffffffffffffff1673ffffffffffffffffffffffffffffffffffffffff1681526020016001820160009054906101000a900473ffffffffffffffffffffffffffffffffffffffff1673ffffffffffffffffffffffffffffffffffffffff1673ffffffffffffffffffffffffffffffffffffffff16815260200160028201548152602001600382015481526020016004820154815260200160058201548152602001600682015481526020016007820160009054906101000a900460ff1660028111156109ee576109ed6133b3565b5b6002811115610a00576109ff6133b3565b5b81525050828281518110610a1757610a16613cef565b5b60200260200101819052508080610a2d90613d4d565b9150506108a9565b5080915050919050565b6000610a4a82611abf565b9050919050565b60078060000154905081565b606060008054610a6c90613dc5565b80601f0160208091040260200160405190810160405280929190818152602001828054610a9890613dc5565b8015610ae55780601f10610aba57610100808354040283529160200191610ae5565b820191906000526020600020905b815481529060010190602001808311610ac857829003601f168201915b5050505050905090565b6000610afa82611b39565b610b39576040517f08c379a0000000000000000000000000000000000000000000000000000000008152600401610b3090613e69565b60405180910390fd5b6004600083815260200190815260200160002060009054906101000a900473ffffffffffffffffffffffffffffffffffffffff169050919050565b6000610b7f82610ecd565b90508073ffffffffffffffffffffffffffffffffffffffff168373ffffffffffffffffffffffffffffffffffffffff161415610bf0576040517f08c379a0000000000000000000000000000000000000000000000000000000008152600401610be790613efb565b60405180910390fd5b8073ffffffffffffffffffffffffffffffffffffffff16610c0f611ba5565b73ffffffffffffffffffffffffffffffffffffffff161480610c3e5750610c3d81610c38611ba5565b61191e565b5b610c7d576040517f08c379a0000000000000000000000000000000000000000000000000000000008152600401610c7490613f8d565b60405180910390fd5b610c878383611bad565b505050565b610c94611ba5565b73ffffffffffffffffffffffffffffffffffffffff16610cb2611193565b73ffffffffffffffffffffffffffffffffffffffff1614610d08576040517f08c379a0000000000000000000000000000000000000000000000000000000008152600401610cff90613ff9565b60405180910390fd5b80600c60008473ffffffffffffffffffffffffffffffffffffffff1673ffffffffffffffffffffffffffffffffffffffff16815260200190815260200160002060006101000a81548160ff0219169083151502179055505050565b610d74610d6e611ba5565b82611c66565b610db3576040517f08c379a0000000000000000000000000000000000000000000000000000000008152600401610daa9061408b565b60405180910390fd5b610dbe838383611d44565b505050565b610dcb611ba5565b73ffffffffffffffffffffffffffffffffffffffff16610de9611193565b73ffffffffffffffffffffffffffffffffffffffff1614610e3f576040517f08c379a0000000000000000000000000000000000000000000000000000000008152600401610e3690613ff9565b60405180910390fd5b610e47610eb6565b610e86576040517f08c379a0000000000000000000000000000000000000000000000000000000008152600401610e7d906140f7565b60405180910390fd5b610e8e611fa0565b565b610eab83838360405180602001604052806000815250611320565b505050565b600a5481565b6000600660149054906101000a900460ff16905090565b6000806002600084815260200190815260200160002060009054906101000a900473ffffffffffffffffffffffffffffffffffffffff169050600073ffffffffffffffffffffffffffffffffffffffff168173ffffffffffffffffffffffffffffffffffffffff161415610f76576040517f08c379a0000000000000000000000000000000000000000000000000000000008152600401610f6d90614189565b60405180910390fd5b80915050919050565b60008073ffffffffffffffffffffffffffffffffffffffff168273ffffffffffffffffffffffffffffffffffffffff161415610ff0576040517f08c379a0000000000000000000000000000000000000000000000000000000008152600401610fe79061421b565b60405180910390fd5b600360008373ffffffffffffffffffffffffffffffffffffffff1673ffffffffffffffffffffffffffffffffffffffff168152602001908152602001600020549050919050565b61103f611ba5565b73ffffffffffffffffffffffffffffffffffffffff1661105d611193565b73ffffffffffffffffffffffffffffffffffffffff16146110b3576040517f08c379a00000000000000000000000000000000000000000000000000000000081526004016110aa90613ff9565b60405180910390fd5b6110bd6000612042565b565b6110c7611ba5565b73ffffffffffffffffffffffffffffffffffffffff166110e5611193565b73ffffffffffffffffffffffffffffffffffffffff161461113b576040517f08c379a000000000000000000000000000000000000000000000000000000000815260040161113290613ff9565b60405180910390fd5b611143610eb6565b15611183576040517f08c379a000000000000000000000000000000000000000000000000000000000815260040161117a90614287565b60405180910390fd5b61118b612108565b565b60095481565b6000600660009054906101000a900473ffffffffffffffffffffffffffffffffffffffff16905090565b6060600180546111cc90613dc5565b80601f01602080910402602001604051908101604052809291908181526020018280546111f890613dc5565b80156112455780601f1061121a57610100808354040283529160200191611245565b820191906000526020600020905b81548152906001019060200180831161122857829003601f168201915b5050505050905090565b61126161125a611ba5565b83836121ab565b5050565b600860009054906101000a900473ffffffffffffffffffffffffffffffffffffffff1681565b600b6020528060005260406000206000915090508060000160009054906101000a900473ffffffffffffffffffffffffffffffffffffffff16908060010160009054906101000a900473ffffffffffffffffffffffffffffffffffffffff16908060020154908060030154908060040154908060050154908060060154908060070160009054906101000a900460ff16905088565b61133161132b611ba5565b83611c66565b611370576040517f08c379a00000000000000000000000000000000000000000000000000000000081526004016113679061408b565b60405180910390fd5b61137c84848484612318565b50505050565b600c6020528060005260406000206000915054906101000a900460ff1681565b600063bc197c8160e01b905095945050505050565b6000600b600083815260200190815260200160002090506113d781612374565b6113e057600080fd5b6113e8611ba5565b73ffffffffffffffffffffffffffffffffffffffff1661140783610ecd565b73ffffffffffffffffffffffffffffffffffffffff161461142757600080fd5b61143082612384565b5050565b600080600b6000848152602001908152602001600020905061145581612374565b61145e57600080fd5b8060040154915050919050565b606061147682611b39565b6114b5576040517f08c379a00000000000000000000000000000000000000000000000000000000081526004016114ac90614319565b60405180910390fd5b60006114bf612435565b905060008151116114df576040518060200160405280600081525061150a565b806114e98461244c565b6040516020016114fa929190614375565b6040516020818303038152906040525b915050919050565b61151a610eb6565b1561155a576040517f08c379a000000000000000000000000000000000000000000000000000000000815260040161155190614287565b60405180910390fd5b600c60008673ffffffffffffffffffffffffffffffffffffffff1673ffffffffffffffffffffffffffffffffffffffff16815260200190815260200160002060009054906101000a900460ff166115e6576040517f08c379a00000000000000000000000000000000000000000000000000000000081526004016115dd906143e5565b60405180910390fd5b60006115f0611ba5565b90506115fd8682876125ad565b61163c576040517f08c379a000000000000000000000000000000000000000000000000000000000815260040161163390614451565b60405180910390fd5b61164886828786612643565b60006040518061010001604052808373ffffffffffffffffffffffffffffffffffffffff1681526020018873ffffffffffffffffffffffffffffffffffffffff168152602001878152602001858152602001868152602001848152602001428152602001600060028111156116c0576116bf6133b3565b5b81525090506116ce816126c8565b50505050505050565b6116df610eb6565b1561171f576040517f08c379a000000000000000000000000000000000000000000000000000000000815260040161171690614287565b60405180910390fd5b6000600b6000848152602001908152602001600020905060008282600401546117489190614471565b90506000611754611ba5565b90508383600301600082825461176a91906144cb565b925050819055506000836003015414156117885761178785612859565b5b813410156117cb576040517f08c379a00000000000000000000000000000000000000000000000000000000081526004016117c29061454b565b60405180910390fd5b6000612710600954846117de9190614471565b6117e8919061459a565b9050600081846117f891906144cb565b90508460000160009054906101000a900473ffffffffffffffffffffffffffffffffffffffff1673ffffffffffffffffffffffffffffffffffffffff166108fc829081150290604051600060405180830381858888f19350505050158015611864573d6000803e3d6000fd5b50600860009054906101000a900473ffffffffffffffffffffffffffffffffffffffff1673ffffffffffffffffffffffffffffffffffffffff166108fc839081150290604051600060405180830381858888f193505050501580156118cd573d6000803e3d6000fd5b506118d98787856128d7565b867fc7b4f90ffab7fe488d634eb4ed7859d80a80c85accd722aaefeb056e5078d88784868960405161190d939291906145cb565b60405180910390a250505050505050565b6000600560008473ffffffffffffffffffffffffffffffffffffffff1673ffffffffffffffffffffffffffffffffffffffff16815260200190815260200160002060008373ffffffffffffffffffffffffffffffffffffffff1673ffffffffffffffffffffffffffffffffffffffff16815260200190815260200160002060009054906101000a900460ff16905092915050565b600063f23a6e6160e01b905095945050505050565b6119cf611ba5565b73ffffffffffffffffffffffffffffffffffffffff166119ed611193565b73ffffffffffffffffffffffffffffffffffffffff1614611a43576040517f08c379a0000000000000000000000000000000000000000000000000000000008152600401611a3a90613ff9565b60405180910390fd5b600073ffffffffffffffffffffffffffffffffffffffff168173ffffffffffffffffffffffffffffffffffffffff161415611ab3576040517f08c379a0000000000000000000000000000000000000000000000000000000008152600401611aaa90614674565b60405180910390fd5b611abc81612042565b50565b60007f4e2312e0000000000000000000000000000000000000000000000000000000007bffffffffffffffffffffffffffffffffffffffffffffffffffffffff1916827bffffffffffffffffffffffffffffffffffffffffffffffffffffffff19161480611b325750611b318261299b565b5b9050919050565b60008073ffffffffffffffffffffffffffffffffffffffff166002600084815260200190815260200160002060009054906101000a900473ffffffffffffffffffffffffffffffffffffffff1673ffffffffffffffffffffffffffffffffffffffff1614159050919050565b600033905090565b816004600083815260200190815260200160002060006101000a81548173ffffffffffffffffffffffffffffffffffffffff021916908373ffffffffffffffffffffffffffffffffffffffff160217905550808273ffffffffffffffffffffffffffffffffffffffff16611c2083610ecd565b73ffffffffffffffffffffffffffffffffffffffff167f8c5be1e5ebec7d5bd14f71427d1e84f3dd0314c0f7b2291e5b200ac8c7c3b92560405160405180910390a45050565b6000611c7182611b39565b611cb0576040517f08c379a0000000000000000000000000000000000000000000000000000000008152600401611ca790614706565b60405180910390fd5b6000611cbb83610ecd565b90508073ffffffffffffffffffffffffffffffffffffffff168473ffffffffffffffffffffffffffffffffffffffff161480611d2a57508373ffffffffffffffffffffffffffffffffffffffff16611d1284610aef565b73ffffffffffffffffffffffffffffffffffffffff16145b80611d3b5750611d3a818561191e565b5b91505092915050565b8273ffffffffffffffffffffffffffffffffffffffff16611d6482610ecd565b73ffffffffffffffffffffffffffffffffffffffff1614611dba576040517f08c379a0000000000000000000000000000000000000000000000000000000008152600401611db190614798565b60405180910390fd5b600073ffffffffffffffffffffffffffffffffffffffff168273ffffffffffffffffffffffffffffffffffffffff161415611e2a576040517f08c379a0000000000000000000000000000000000000000000000000000000008152600401611e219061482a565b60405180910390fd5b611e35838383612a7d565b611e40600082611bad565b6001600360008573ffffffffffffffffffffffffffffffffffffffff1673ffffffffffffffffffffffffffffffffffffffff1681526020019081526020016000206000828254611e9091906144cb565b925050819055506001600360008473ffffffffffffffffffffffffffffffffffffffff1673ffffffffffffffffffffffffffffffffffffffff1681526020019081526020016000206000828254611ee7919061484a565b92505081905550816002600083815260200190815260200160002060006101000a81548173ffffffffffffffffffffffffffffffffffffffff021916908373ffffffffffffffffffffffffffffffffffffffff160217905550808273ffffffffffffffffffffffffffffffffffffffff168473ffffffffffffffffffffffffffffffffffffffff167fddf252ad1be2c89b69c2b068fc378daa952ba7f163c4a11628f55a4df523b3ef60405160405180910390a4505050565b611fa8610eb6565b611fe7576040517f08c379a0000000000000000000000000000000000000000000000000000000008152600401611fde906140f7565b60405180910390fd5b6000600660146101000a81548160ff0219169083151502179055507f5db9ee0a495bf2e6ff9c91a7834c1ba4fdd244a5e8aa4e537bd38aeae4b073aa61202b611ba5565b604051612038919061372c565b60405180910390a1565b6000600660009054906101000a900473ffffffffffffffffffffffffffffffffffffffff16905081600660006101000a81548173ffffffffffffffffffffffffffffffffffffffff021916908373ffffffffffffffffffffffffffffffffffffffff1602179055508173ffffffffffffffffffffffffffffffffffffffff168173ffffffffffffffffffffffffffffffffffffffff167f8be0079c531659141344cd1fd0a4f28419497f9722a3daafe3b4186f6b6457e060405160405180910390a35050565b612110610eb6565b15612150576040517f08c379a000000000000000000000000000000000000000000000000000000000815260040161214790614287565b60405180910390fd5b6001600660146101000a81548160ff0219169083151502179055507f62e78cea01bee320cd4e420270b5ea74000d11b0c9f74754ebdbfc544b05a258612194611ba5565b6040516121a1919061372c565b60405180910390a1565b8173ffffffffffffffffffffffffffffffffffffffff168373ffffffffffffffffffffffffffffffffffffffff16141561221a576040517f08c379a0000000000000000000000000000000000000000000000000000000008152600401612211906148ec565b60405180910390fd5b80600560008573ffffffffffffffffffffffffffffffffffffffff1673ffffffffffffffffffffffffffffffffffffffff16815260200190815260200160002060008473ffffffffffffffffffffffffffffffffffffffff1673ffffffffffffffffffffffffffffffffffffffff16815260200190815260200160002060006101000a81548160ff0219169083151502179055508173ffffffffffffffffffffffffffffffffffffffff168373ffffffffffffffffffffffffffffffffffffffff167f17307eab39ab6107e8899845ad3d59bd9653f200f220920489ca2b5937696c318360405161230b9190613612565b60405180910390a3505050565b612323848484611d44565b61232f84848484612b28565b61236e576040517f08c379a00000000000000000000000000000000000000000000000000000000081526004016123659061497e565b60405180910390fd5b50505050565b6000808260060154119050919050565b6000600b6000838152602001908152602001600020905060028160070160006101000a81548160ff021916908360028111156123c3576123c26133b3565b5b02179055506123d182612cb0565b6124048282600301548360000160009054906101000a900473ffffffffffffffffffffffffffffffffffffffff166128d7565b817f2c56893f6f6026d19bd17b7d05c9f15c522de1ae2b1c3a825f91a73c799321f260405160405180910390a25050565b606060405180602001604052806000815250905090565b60606000821415612494576040518060400160405280600181526020017f300000000000000000000000000000000000000000000000000000000000000081525090506125a8565b600082905060005b600082146124c65780806124af90613d4d565b915050600a826124bf919061459a565b915061249c565b60008167ffffffffffffffff8111156124e2576124e1613175565b5b6040519080825280601f01601f1916602001820160405280156125145781602001600182028036833780820191505090505b5090505b600085146125a15760018261252d91906144cb565b9150600a8561253c919061499e565b6030612548919061484a565b60f81b81838151811061255e5761255d613cef565b5b60200101907effffffffffffffffffffffffffffffffffffffffffffffffffffffffffffff1916908160001a905350600a8561259a919061459a565b9450612518565b8093505050505b919050565b6000806125b985612cbc565b905060008173ffffffffffffffffffffffffffffffffffffffff1662fdd58e86866040518363ffffffff1660e01b81526004016125f79291906149cf565b602060405180830381865afa158015612614573d6000803e3d6000fd5b505050506040513d601f19601f820116820180604052508101906126389190614a0d565b119150509392505050565b600061264e85612cbc565b90508073ffffffffffffffffffffffffffffffffffffffff1663f242432a853086866040518563ffffffff1660e01b815260040161268f9493929190614a71565b600060405180830381600087803b1580156126a957600080fd5b505af11580156126bd573d6000803e3d6000fd5b505050505050505050565b603c8160a0015110156126da57600080fd5b60006126e66007612ccb565b905081600b600083815260200190815260200160002060008201518160000160006101000a81548173ffffffffffffffffffffffffffffffffffffffff021916908373ffffffffffffffffffffffffffffffffffffffff16021790555060208201518160010160006101000a81548173ffffffffffffffffffffffffffffffffffffffff021916908373ffffffffffffffffffffffffffffffffffffffff16021790555060408201518160020155606082015181600301556080820151816004015560a0820151816005015560c0820151816006015560e08201518160070160006101000a81548160ff021916908360028111156127e7576127e66133b3565b5b02179055509050506127fd826000015182612cd9565b6128076007612ea7565b807f08418039e2d9aa88c39c529ae5ffa4f43775bfae250e0097d03d5f304654f493836060015184608001518560a00151866000015160405161284d9493929190614ac9565b60405180910390a25050565b6000600b6000838152602001908152602001600020905060018160070160006101000a81548160ff02191690836002811115612898576128976133b3565b5b02179055506128a682612ebd565b817fe8722c7fbbc203b6f7b1c8d8b08fe896e23df39ea595609629ab14794bd448ed60405160405180910390a25050565b6000600b60008581526020019081526020016000209050600061291d8260010160009054906101000a900473ffffffffffffffffffffffffffffffffffffffff16612cbc565b90508073ffffffffffffffffffffffffffffffffffffffff1663f242432a30858560020154886040518563ffffffff1660e01b81526004016129629493929190614a71565b600060405180830381600087803b15801561297c57600080fd5b505af1158015612990573d6000803e3d6000fd5b505050505050505050565b60007f80ac58cd000000000000000000000000000000000000000000000000000000007bffffffffffffffffffffffffffffffffffffffffffffffffffffffff1916827bffffffffffffffffffffffffffffffffffffffffffffffffffffffff19161480612a6657507f5b5e139f000000000000000000000000000000000000000000000000000000007bffffffffffffffffffffffffffffffffffffffffffffffffffffffff1916827bffffffffffffffffffffffffffffffffffffffffffffffffffffffff1916145b80612a765750612a7582612fce565b5b9050919050565b8273ffffffffffffffffffffffffffffffffffffffff16600073ffffffffffffffffffffffffffffffffffffffff161480612ae457508173ffffffffffffffffffffffffffffffffffffffff16600073ffffffffffffffffffffffffffffffffffffffff16145b612b23576040517f08c379a0000000000000000000000000000000000000000000000000000000008152600401612b1a90614b5a565b60405180910390fd5b505050565b6000612b498473ffffffffffffffffffffffffffffffffffffffff16613038565b15612ca3578373ffffffffffffffffffffffffffffffffffffffff1663150b7a02612b72611ba5565b8786866040518563ffffffff1660e01b8152600401612b949493929190614bbe565b6020604051808303816000875af1925050508015612bd057506040513d601f19601f82011682018060405250810190612bcd9190614c1f565b60015b612c53573d8060008114612c00576040519150601f19603f3d011682016040523d82523d6000602084013e612c05565b606091505b50600081511415612c4b576040517f08c379a0000000000000000000000000000000000000000000000000000000008152600401612c429061497e565b60405180910390fd5b805181602001fd5b63150b7a0260e01b7bffffffffffffffffffffffffffffffffffffffffffffffffffffffff1916817bffffffffffffffffffffffffffffffffffffffffffffffffffffffff191614915050612ca8565b600190505b949350505050565b612cb981612ebd565b50565b60008082905080915050919050565b600081600001549050919050565b600073ffffffffffffffffffffffffffffffffffffffff168273ffffffffffffffffffffffffffffffffffffffff161415612d49576040517f08c379a0000000000000000000000000000000000000000000000000000000008152600401612d4090614c98565b60405180910390fd5b612d5281611b39565b15612d92576040517f08c379a0000000000000000000000000000000000000000000000000000000008152600401612d8990614d04565b60405180910390fd5b612d9e60008383612a7d565b6001600360008473ffffffffffffffffffffffffffffffffffffffff1673ffffffffffffffffffffffffffffffffffffffff1681526020019081526020016000206000828254612dee919061484a565b92505081905550816002600083815260200190815260200160002060006101000a81548173ffffffffffffffffffffffffffffffffffffffff021916908373ffffffffffffffffffffffffffffffffffffffff160217905550808273ffffffffffffffffffffffffffffffffffffffff16600073ffffffffffffffffffffffffffffffffffffffff167fddf252ad1be2c89b69c2b068fc378daa952ba7f163c4a11628f55a4df523b3ef60405160405180910390a45050565b6001816000016000828254019250508190555050565b6000612ec882610ecd565b9050612ed681600084612a7d565b612ee1600083611bad565b6001600360008373ffffffffffffffffffffffffffffffffffffffff1673ffffffffffffffffffffffffffffffffffffffff1681526020019081526020016000206000828254612f3191906144cb565b925050819055506002600083815260200190815260200160002060006101000a81549073ffffffffffffffffffffffffffffffffffffffff021916905581600073ffffffffffffffffffffffffffffffffffffffff168273ffffffffffffffffffffffffffffffffffffffff167fddf252ad1be2c89b69c2b068fc378daa952ba7f163c4a11628f55a4df523b3ef60405160405180910390a45050565b60007f01ffc9a7000000000000000000000000000000000000000000000000000000007bffffffffffffffffffffffffffffffffffffffffffffffffffffffff1916827bffffffffffffffffffffffffffffffffffffffffffffffffffffffff1916149050919050565b600080823b905060008111915050919050565b604051806101000160405280600073ffffffffffffffffffffffffffffffffffffffff168152602001600073ffffffffffffffffffffffffffffffffffffffff1681526020016000815260200160008152602001600081526020016000815260200160008152602001600060028111156130c8576130c76133b3565b5b81525090565b600082825260208201905092915050565b7f444f4e545f53454e440000000000000000000000000000000000000000000000600082015250565b60006131156009836130ce565b9150613120826130df565b602082019050919050565b6000602082019050818103600083015261314481613108565b9050919050565b6000604051905090565b600080fd5b600080fd5b600080fd5b6000601f19601f8301169050919050565b7f4e487b7100000000000000000000000000000000000000000000000000000000600052604160045260246000fd5b6131ad82613164565b810181811067ffffffffffffffff821117156131cc576131cb613175565b5b80604052505050565b60006131df61314b565b90506131eb82826131a4565b919050565b600067ffffffffffffffff82111561320b5761320a613175565b5b602082029050602081019050919050565b600080fd5b6000819050919050565b61323481613221565b811461323f57600080fd5b50565b6000813590506132518161322b565b92915050565b600061326a613265846131f0565b6131d5565b9050808382526020820190506020840283018581111561328d5761328c61321c565b5b835b818110156132b657806132a28882613242565b84526020840193505060208101905061328f565b5050509392505050565b600082601f8301126132d5576132d461315f565b5b81356132e5848260208601613257565b91505092915050565b60006020828403121561330457613303613155565b5b600082013567ffffffffffffffff8111156133225761332161315a565b5b61332e848285016132c0565b91505092915050565b600081519050919050565b600082825260208201905092915050565b6000819050602082019050919050565b600073ffffffffffffffffffffffffffffffffffffffff82169050919050565b600061338e82613363565b9050919050565b61339e81613383565b82525050565b6133ad81613221565b82525050565b7f4e487b7100000000000000000000000000000000000000000000000000000000600052602160045260246000fd5b600381106133f3576133f26133b3565b5b50565b6000819050613404826133e2565b919050565b6000613414826133f6565b9050919050565b61342481613409565b82525050565b610100820160008201516134416000850182613395565b5060208201516134546020850182613395565b50604082015161346760408501826133a4565b50606082015161347a60608501826133a4565b50608082015161348d60808501826133a4565b5060a08201516134a060a08501826133a4565b5060c08201516134b360c08501826133a4565b5060e08201516134c660e085018261341b565b50505050565b60006134d8838361342a565b6101008301905092915050565b6000602082019050919050565b60006134fd82613337565b6135078185613342565b935061351283613353565b8060005b8381101561354357815161352a88826134cc565b9750613535836134e5565b925050600181019050613516565b5085935050505092915050565b6000602082019050818103600083015261356a81846134f2565b905092915050565b60007fffffffff0000000000000000000000000000000000000000000000000000000082169050919050565b6135a781613572565b81146135b257600080fd5b50565b6000813590506135c48161359e565b92915050565b6000602082840312156135e0576135df613155565b5b60006135ee848285016135b5565b91505092915050565b60008115159050919050565b61360c816135f7565b82525050565b60006020820190506136276000830184613603565b92915050565b61363681613221565b82525050565b6000602082019050613651600083018461362d565b92915050565b600081519050919050565b60005b83811015613680578082015181840152602081019050613665565b8381111561368f576000848401525b50505050565b60006136a082613657565b6136aa81856130ce565b93506136ba818560208601613662565b6136c381613164565b840191505092915050565b600060208201905081810360008301526136e88184613695565b905092915050565b60006020828403121561370657613705613155565b5b600061371484828501613242565b91505092915050565b61372681613383565b82525050565b6000602082019050613741600083018461371d565b92915050565b61375081613383565b811461375b57600080fd5b50565b60008135905061376d81613747565b92915050565b6000806040838503121561378a57613789613155565b5b60006137988582860161375e565b92505060206137a985828601613242565b9150509250929050565b6137bc816135f7565b81146137c757600080fd5b50565b6000813590506137d9816137b3565b92915050565b600080604083850312156137f6576137f5613155565b5b60006138048582860161375e565b9250506020613815858286016137ca565b9150509250929050565b60008060006060848603121561383857613837613155565b5b60006138468682870161375e565b93505060206138578682870161375e565b925050604061386886828701613242565b9150509250925092565b60006020828403121561388857613887613155565b5b60006138968482850161375e565b91505092915050565b6138a881613409565b82525050565b6000610100820190506138c4600083018b61371d565b6138d1602083018a61371d565b6138de604083018961362d565b6138eb606083018861362d565b6138f8608083018761362d565b61390560a083018661362d565b61391260c083018561362d565b61391f60e083018461389f565b9998505050505050505050565b600080fd5b600067ffffffffffffffff82111561394c5761394b613175565b5b61395582613164565b9050602081019050919050565b82818337600083830152505050565b600061398461397f84613931565b6131d5565b9050828152602081018484840111156139a05761399f61392c565b5b6139ab848285613962565b509392505050565b600082601f8301126139c8576139c761315f565b5b81356139d8848260208601613971565b91505092915050565b600080600080608085870312156139fb576139fa613155565b5b6000613a098782880161375e565b9450506020613a1a8782880161375e565b9350506040613a2b87828801613242565b925050606085013567ffffffffffffffff811115613a4c57613a4b61315a565b5b613a58878288016139b3565b91505092959194509250565b600080600080600060a08688031215613a8057613a7f613155565b5b6000613a8e8882890161375e565b9550506020613a9f8882890161375e565b945050604086013567ffffffffffffffff811115613ac057613abf61315a565b5b613acc888289016132c0565b935050606086013567ffffffffffffffff811115613aed57613aec61315a565b5b613af9888289016132c0565b925050608086013567ffffffffffffffff811115613b1a57613b1961315a565b5b613b26888289016139b3565b9150509295509295909350565b613b3c81613572565b82525050565b6000602082019050613b576000830184613b33565b92915050565b600080600080600060a08688031215613b7957613b78613155565b5b6000613b878882890161375e565b9550506020613b9888828901613242565b9450506040613ba988828901613242565b9350506060613bba88828901613242565b9250506080613bcb88828901613242565b9150509295509295909350565b60008060408385031215613bef57613bee613155565b5b6000613bfd85828601613242565b9250506020613c0e85828601613242565b9150509250929050565b60008060408385031215613c2f57613c2e613155565b5b6000613c3d8582860161375e565b9250506020613c4e8582860161375e565b9150509250929050565b600080600080600060a08688031215613c7457613c73613155565b5b6000613c828882890161375e565b9550506020613c938882890161375e565b9450506040613ca488828901613242565b9350506060613cb588828901613242565b925050608086013567ffffffffffffffff811115613cd657613cd561315a565b5b613ce2888289016139b3565b9150509295509295909350565b7f4e487b7100000000000000000000000000000000000000000000000000000000600052603260045260246000fd5b7f4e487b7100000000000000000000000000000000000000000000000000000000600052601160045260246000fd5b6000613d5882613221565b91507fffffffffffffffffffffffffffffffffffffffffffffffffffffffffffffffff821415613d8b57613d8a613d1e565b5b600182019050919050565b7f4e487b7100000000000000000000000000000000000000000000000000000000600052602260045260246000fd5b60006002820490506001821680613ddd57607f821691505b60208210811415613df157613df0613d96565b5b50919050565b7f4552433732313a20617070726f76656420717565727920666f72206e6f6e657860008201527f697374656e7420746f6b656e0000000000000000000000000000000000000000602082015250565b6000613e53602c836130ce565b9150613e5e82613df7565b604082019050919050565b60006020820190508181036000830152613e8281613e46565b9050919050565b7f4552433732313a20617070726f76616c20746f2063757272656e74206f776e6560008201527f7200000000000000000000000000000000000000000000000000000000000000602082015250565b6000613ee56021836130ce565b9150613ef082613e89565b604082019050919050565b60006020820190508181036000830152613f1481613ed8565b9050919050565b7f4552433732313a20617070726f76652063616c6c6572206973206e6f74206f7760008201527f6e6572206e6f7220617070726f76656420666f7220616c6c0000000000000000602082015250565b6000613f776038836130ce565b9150613f8282613f1b565b604082019050919050565b60006020820190508181036000830152613fa681613f6a565b9050919050565b7f4f776e61626c653a2063616c6c6572206973206e6f7420746865206f776e6572600082015250565b6000613fe36020836130ce565b9150613fee82613fad565b602082019050919050565b6000602082019050818103600083015261401281613fd6565b9050919050565b7f4552433732313a207472616e736665722063616c6c6572206973206e6f74206f60008201527f776e6572206e6f7220617070726f766564000000000000000000000000000000602082015250565b60006140756031836130ce565b915061408082614019565b604082019050919050565b600060208201905081810360008301526140a481614068565b9050919050565b7f5061757361626c653a206e6f7420706175736564000000000000000000000000600082015250565b60006140e16014836130ce565b91506140ec826140ab565b602082019050919050565b60006020820190508181036000830152614110816140d4565b9050919050565b7f4552433732313a206f776e657220717565727920666f72206e6f6e657869737460008201527f656e7420746f6b656e0000000000000000000000000000000000000000000000602082015250565b60006141736029836130ce565b915061417e82614117565b604082019050919050565b600060208201905081810360008301526141a281614166565b9050919050565b7f4552433732313a2062616c616e636520717565727920666f7220746865207a6560008201527f726f206164647265737300000000000000000000000000000000000000000000602082015250565b6000614205602a836130ce565b9150614210826141a9565b604082019050919050565b60006020820190508181036000830152614234816141f8565b9050919050565b7f5061757361626c653a2070617573656400000000000000000000000000000000600082015250565b60006142716010836130ce565b915061427c8261423b565b602082019050919050565b600060208201905081810360008301526142a081614264565b9050919050565b7f4552433732314d657461646174613a2055524920717565727920666f72206e6f60008201527f6e6578697374656e7420746f6b656e0000000000000000000000000000000000602082015250565b6000614303602f836130ce565b915061430e826142a7565b604082019050919050565b60006020820190508181036000830152614332816142f6565b9050919050565b600081905092915050565b600061434f82613657565b6143598185614339565b9350614369818560208601613662565b80840191505092915050565b60006143818285614344565b915061438d8284614344565b91508190509392505050565b7f4e6674206e6f7420616c6c6f7765640000000000000000000000000000000000600082015250565b60006143cf600f836130ce565b91506143da82614399565b602082019050919050565b600060208201905081810360008301526143fe816143c2565b9050919050565b7f5573657220646f65736e2774206f776e73206e66740000000000000000000000600082015250565b600061443b6015836130ce565b915061444682614405565b602082019050919050565b6000602082019050818103600083015261446a8161442e565b9050919050565b600061447c82613221565b915061448783613221565b9250817fffffffffffffffffffffffffffffffffffffffffffffffffffffffffffffffff04831182151516156144c0576144bf613d1e565b5b828202905092915050565b60006144d682613221565b91506144e183613221565b9250828210156144f4576144f3613d1e565b5b828203905092915050565b7f4e4f5f454e4f5547485f56414c55450000000000000000000000000000000000600082015250565b6000614535600f836130ce565b9150614540826144ff565b602082019050919050565b6000602082019050818103600083015261456481614528565b9050919050565b7f4e487b7100000000000000000000000000000000000000000000000000000000600052601260045260246000fd5b60006145a582613221565b91506145b083613221565b9250826145c0576145bf61456b565b5b828204905092915050565b60006060820190506145e0600083018661371d565b6145ed602083018561362d565b6145fa604083018461362d565b949350505050565b7f4f776e61626c653a206e6577206f776e657220697320746865207a65726f206160008201527f6464726573730000000000000000000000000000000000000000000000000000602082015250565b600061465e6026836130ce565b915061466982614602565b604082019050919050565b6000602082019050818103600083015261468d81614651565b9050919050565b7f4552433732313a206f70657261746f7220717565727920666f72206e6f6e657860008201527f697374656e7420746f6b656e0000000000000000000000000000000000000000602082015250565b60006146f0602c836130ce565b91506146fb82614694565b604082019050919050565b6000602082019050818103600083015261471f816146e3565b9050919050565b7f4552433732313a207472616e73666572206f6620746f6b656e2074686174206960008201527f73206e6f74206f776e0000000000000000000000000000000000000000000000602082015250565b60006147826029836130ce565b915061478d82614726565b604082019050919050565b600060208201905081810360008301526147b181614775565b9050919050565b7f4552433732313a207472616e7366657220746f20746865207a65726f2061646460008201527f7265737300000000000000000000000000000000000000000000000000000000602082015250565b60006148146024836130ce565b915061481f826147b8565b604082019050919050565b6000602082019050818103600083015261484381614807565b9050919050565b600061485582613221565b915061486083613221565b9250827fffffffffffffffffffffffffffffffffffffffffffffffffffffffffffffffff0382111561489557614894613d1e565b5b828201905092915050565b7f4552433732313a20617070726f766520746f2063616c6c657200000000000000600082015250565b60006148d66019836130ce565b91506148e1826148a0565b602082019050919050565b60006020820190508181036000830152614905816148c9565b9050919050565b7f4552433732313a207472616e7366657220746f206e6f6e20455243373231526560008201527f63656976657220696d706c656d656e7465720000000000000000000000000000602082015250565b60006149686032836130ce565b91506149738261490c565b604082019050919050565b600060208201905081810360008301526149978161495b565b9050919050565b60006149a982613221565b91506149b483613221565b9250826149c4576149c361456b565b5b828206905092915050565b60006040820190506149e4600083018561371d565b6149f1602083018461362d565b9392505050565b600081519050614a078161322b565b92915050565b600060208284031215614a2357614a22613155565b5b6000614a31848285016149f8565b91505092915050565b600082825260208201905092915050565b50565b6000614a5b600083614a3a565b9150614a6682614a4b565b600082019050919050565b600060a082019050614a86600083018761371d565b614a93602083018661371d565b614aa0604083018561362d565b614aad606083018461362d565b8181036080830152614abe81614a4e565b905095945050505050565b6000608082019050614ade600083018761362d565b614aeb602083018661362d565b614af8604083018561362d565b614b05606083018461371d565b95945050505050565b7f43414e4e4f545f5452414e534645520000000000000000000000000000000000600082015250565b6000614b44600f836130ce565b9150614b4f82614b0e565b602082019050919050565b60006020820190508181036000830152614b7381614b37565b9050919050565b600081519050919050565b6000614b9082614b7a565b614b9a8185614a3a565b9350614baa818560208601613662565b614bb381613164565b840191505092915050565b6000608082019050614bd3600083018761371d565b614be0602083018661371d565b614bed604083018561362d565b8181036060830152614bff8184614b85565b905095945050505050565b600081519050614c198161359e565b92915050565b600060208284031215614c3557614c34613155565b5b6000614c4384828501614c0a565b91505092915050565b7f4552433732313a206d696e7420746f20746865207a65726f2061646472657373600082015250565b6000614c826020836130ce565b9150614c8d82614c4c565b602082019050919050565b60006020820190508181036000830152614cb181614c75565b9050919050565b7f4552433732313a20746f6b656e20616c7265616479206d696e74656400000000600082015250565b6000614cee601c836130ce565b9150614cf982614cb8565b602082019050919050565b60006020820190508181036000830152614d1d81614ce1565b905091905056fea2646970667358221220514090c5f161f0b2e5710a14ec457054a1dd769cca7a6f0ae77ff626c112691d64736f6c634300080b0033",
  "linkReferences": {},
  "deployedLinkReferences": {}
}