{
  "_format": "hh-sol-artifact-1",
  "contractName": "EndersBattlePassOnlyMultiTokens",
  "sourceName": "contracts/OnlyMultitokens/EndersBattlePassOnlyMultiTokens.sol",
  "abi": [
    {
      "inputs": [
        {
          "internalType": "string",
          "name": "_name",
          "type": "string"
        },
        {
          "internalType": "string",
          "name": "_symbol",
          "type": "string"
        }
      ],
      "stateMutability": "nonpayable",
      "type": "constructor"
    },
    {
      "anonymous": false,
      "inputs": [
        {
          "indexed": true,
          "internalType": "address",
          "name": "account",
          "type": "address"
        },
        {
          "indexed": true,
          "internalType": "address",
          "name": "operator",
          "type": "address"
        },
        {
          "indexed": false,
          "internalType": "bool",
          "name": "approved",
          "type": "bool"
        }
      ],
      "name": "ApprovalForAll",
      "type": "event"
    },
    {
      "anonymous": false,
      "inputs": [
        {
          "indexed": true,
          "internalType": "bytes32",
          "name": "role",
          "type": "bytes32"
        },
        {
          "indexed": true,
          "internalType": "bytes32",
          "name": "previousAdminRole",
          "type": "bytes32"
        },
        {
          "indexed": true,
          "internalType": "bytes32",
          "name": "newAdminRole",
          "type": "bytes32"
        }
      ],
      "name": "RoleAdminChanged",
      "type": "event"
    },
    {
      "anonymous": false,
      "inputs": [
        {
          "indexed": true,
          "internalType": "bytes32",
          "name": "role",
          "type": "bytes32"
        },
        {
          "indexed": true,
          "internalType": "address",
          "name": "account",
          "type": "address"
        },
        {
          "indexed": true,
          "internalType": "address",
          "name": "sender",
          "type": "address"
        }
      ],
      "name": "RoleGranted",
      "type": "event"
    },
    {
      "anonymous": false,
      "inputs": [
        {
          "indexed": true,
          "internalType": "bytes32",
          "name": "role",
          "type": "bytes32"
        },
        {
          "indexed": true,
          "internalType": "address",
          "name": "account",
          "type": "address"
        },
        {
          "indexed": true,
          "internalType": "address",
          "name": "sender",
          "type": "address"
        }
      ],
      "name": "RoleRevoked",
      "type": "event"
    },
    {
      "anonymous": false,
      "inputs": [
        {
          "indexed": true,
          "internalType": "address",
          "name": "operator",
          "type": "address"
        },
        {
          "indexed": true,
          "internalType": "address",
          "name": "from",
          "type": "address"
        },
        {
          "indexed": true,
          "internalType": "address",
          "name": "to",
          "type": "address"
        },
        {
          "indexed": false,
          "internalType": "uint256[]",
          "name": "ids",
          "type": "uint256[]"
        },
        {
          "indexed": false,
          "internalType": "uint256[]",
          "name": "values",
          "type": "uint256[]"
        }
      ],
      "name": "TransferBatch",
      "type": "event"
    },
    {
      "anonymous": false,
      "inputs": [
        {
          "indexed": true,
          "internalType": "address",
          "name": "operator",
          "type": "address"
        },
        {
          "indexed": true,
          "internalType": "address",
          "name": "from",
          "type": "address"
        },
        {
          "indexed": true,
          "internalType": "address",
          "name": "to",
          "type": "address"
        },
        {
          "indexed": false,
          "internalType": "uint256",
          "name": "id",
          "type": "uint256"
        },
        {
          "indexed": false,
          "internalType": "uint256",
          "name": "value",
          "type": "uint256"
        }
      ],
      "name": "TransferSingle",
      "type": "event"
    },
    {
      "anonymous": false,
      "inputs": [
        {
          "indexed": false,
          "internalType": "string",
          "name": "value",
          "type": "string"
        },
        {
          "indexed": true,
          "internalType": "uint256",
          "name": "id",
          "type": "uint256"
        }
      ],
      "name": "URI",
      "type": "event"
    },
    {
      "inputs": [],
      "name": "DEFAULT_ADMIN_ROLE",
      "outputs": [
        {
          "internalType": "bytes32",
          "name": "",
          "type": "bytes32"
        }
      ],
      "stateMutability": "view",
      "type": "function"
    },
    {
      "inputs": [],
      "name": "SEASON_ROLE",
      "outputs": [
        {
          "internalType": "bytes32",
          "name": "",
          "type": "bytes32"
        }
      ],
      "stateMutability": "view",
      "type": "function"
    },
    {
      "inputs": [],
      "name": "SUPPLY_ROLE",
      "outputs": [
        {
          "internalType": "bytes32",
          "name": "",
          "type": "bytes32"
        }
      ],
      "stateMutability": "view",
      "type": "function"
    },
    {
      "inputs": [],
      "name": "URI_SETTER_ROLE",
      "outputs": [
        {
          "internalType": "bytes32",
          "name": "",
          "type": "bytes32"
        }
      ],
      "stateMutability": "view",
      "type": "function"
    },
    {
      "inputs": [
        {
          "internalType": "uint256",
          "name": "id",
          "type": "uint256"
        },
        {
          "internalType": "uint256",
          "name": "priceUSD",
          "type": "uint256"
        }
      ],
      "name": "addSeason",
      "outputs": [],
      "stateMutability": "nonpayable",
      "type": "function"
    },
    {
      "inputs": [
        {
          "internalType": "address",
          "name": "_token",
          "type": "address"
        },
        {
          "internalType": "uint256",
          "name": "decimals",
          "type": "uint256"
        }
      ],
      "name": "addToken",
      "outputs": [],
      "stateMutability": "nonpayable",
      "type": "function"
    },
    {
      "inputs": [
        {
          "internalType": "address",
          "name": "account",
          "type": "address"
        },
        {
          "internalType": "uint256",
          "name": "id",
          "type": "uint256"
        }
      ],
      "name": "balanceOf",
      "outputs": [
        {
          "internalType": "uint256",
          "name": "",
          "type": "uint256"
        }
      ],
      "stateMutability": "view",
      "type": "function"
    },
    {
      "inputs": [
        {
          "internalType": "address[]",
          "name": "accounts",
          "type": "address[]"
        },
        {
          "internalType": "uint256[]",
          "name": "ids",
          "type": "uint256[]"
        }
      ],
      "name": "balanceOfBatch",
      "outputs": [
        {
          "internalType": "uint256[]",
          "name": "",
          "type": "uint256[]"
        }
      ],
      "stateMutability": "view",
      "type": "function"
    },
    {
      "inputs": [],
      "name": "baseURI",
      "outputs": [
        {
          "internalType": "string",
          "name": "",
          "type": "string"
        }
      ],
      "stateMutability": "view",
      "type": "function"
    },
    {
      "inputs": [
        {
          "internalType": "address",
          "name": "from",
          "type": "address"
        },
        {
          "internalType": "uint256[]",
          "name": "ids",
          "type": "uint256[]"
        },
        {
          "internalType": "uint256[]",
          "name": "amounts",
          "type": "uint256[]"
        }
      ],
      "name": "burnBatchFor",
      "outputs": [],
      "stateMutability": "nonpayable",
      "type": "function"
    },
    {
      "inputs": [
        {
          "internalType": "address",
          "name": "to",
          "type": "address"
        },
        {
          "internalType": "uint256",
          "name": "id",
          "type": "uint256"
        }
      ],
      "name": "burnFor",
      "outputs": [],
      "stateMutability": "nonpayable",
      "type": "function"
    },
    {
      "inputs": [
        {
          "internalType": "address",
          "name": "tokenToPay",
          "type": "address"
        },
        {
          "internalType": "uint256",
          "name": "amount",
          "type": "uint256"
        }
      ],
      "name": "buyBattlePass",
      "outputs": [],
      "stateMutability": "payable",
      "type": "function"
    },
    {
      "inputs": [],
      "name": "currentSeason",
      "outputs": [
        {
          "internalType": "uint256",
          "name": "",
          "type": "uint256"
        }
      ],
      "stateMutability": "view",
      "type": "function"
    },
    {
      "inputs": [
        {
          "internalType": "address",
          "name": "",
          "type": "address"
        }
      ],
      "name": "decimalsByToken",
      "outputs": [
        {
          "internalType": "uint256",
          "name": "",
          "type": "uint256"
        }
      ],
      "stateMutability": "view",
      "type": "function"
    },
    {
      "inputs": [],
      "name": "decimalsUSD",
      "outputs": [
        {
          "internalType": "uint256",
          "name": "",
          "type": "uint256"
        }
      ],
      "stateMutability": "view",
      "type": "function"
    },
    {
      "inputs": [
        {
          "internalType": "uint256",
          "name": "id",
          "type": "uint256"
        },
        {
          "internalType": "uint256",
          "name": "priceUSD",
          "type": "uint256"
        }
      ],
      "name": "editSeason",
      "outputs": [],
      "stateMutability": "nonpayable",
      "type": "function"
    },
    {
      "inputs": [
        {
          "internalType": "uint256",
          "name": "id",
          "type": "uint256"
        }
      ],
      "name": "exists",
      "outputs": [
        {
          "internalType": "bool",
          "name": "",
          "type": "bool"
        }
      ],
      "stateMutability": "view",
      "type": "function"
    },
    {
      "inputs": [
        {
          "internalType": "address",
          "name": "tokenToGet",
          "type": "address"
        },
        {
          "internalType": "uint256",
          "name": "quantity",
          "type": "uint256"
        }
      ],
      "name": "getPrice",
      "outputs": [
        {
          "internalType": "uint256",
          "name": "",
          "type": "uint256"
        }
      ],
      "stateMutability": "view",
      "type": "function"
    },
    {
      "inputs": [
        {
          "internalType": "bytes32",
          "name": "role",
          "type": "bytes32"
        }
      ],
      "name": "getRoleAdmin",
      "outputs": [
        {
          "internalType": "bytes32",
          "name": "",
          "type": "bytes32"
        }
      ],
      "stateMutability": "view",
      "type": "function"
    },
    {
      "inputs": [
        {
          "internalType": "uint256",
          "name": "id",
          "type": "uint256"
        }
      ],
      "name": "getSeason",
      "outputs": [
        {
          "components": [
            {
              "internalType": "uint256",
              "name": "rewardId",
              "type": "uint256"
            },
            {
              "internalType": "uint256",
              "name": "priceUSD",
              "type": "uint256"
            },
            {
              "internalType": "bool",
              "name": "ended",
              "type": "bool"
            },
            {
              "internalType": "bool",
              "name": "exists",
              "type": "bool"
            }
          ],
          "internalType": "struct EndersBattlePassOnlyMultiTokens.Season",
          "name": "",
          "type": "tuple"
        }
      ],
      "stateMutability": "view",
      "type": "function"
    },
    {
      "inputs": [
        {
          "internalType": "bytes32",
          "name": "role",
          "type": "bytes32"
        },
        {
          "internalType": "address",
          "name": "account",
          "type": "address"
        }
      ],
      "name": "grantRole",
      "outputs": [],
      "stateMutability": "nonpayable",
      "type": "function"
    },
    {
      "inputs": [
        {
          "internalType": "bytes32",
          "name": "role",
          "type": "bytes32"
        },
        {
          "internalType": "address",
          "name": "account",
          "type": "address"
        }
      ],
      "name": "hasRole",
      "outputs": [
        {
          "internalType": "bool",
          "name": "",
          "type": "bool"
        }
      ],
      "stateMutability": "view",
      "type": "function"
    },
    {
      "inputs": [
        {
          "internalType": "uint256",
          "name": "",
          "type": "uint256"
        }
      ],
      "name": "idToIpfs",
      "outputs": [
        {
          "internalType": "string",
          "name": "",
          "type": "string"
        }
      ],
      "stateMutability": "view",
      "type": "function"
    },
    {
      "inputs": [
        {
          "internalType": "address",
          "name": "account",
          "type": "address"
        },
        {
          "internalType": "address",
          "name": "operator",
          "type": "address"
        }
      ],
      "name": "isApprovedForAll",
      "outputs": [
        {
          "internalType": "bool",
          "name": "",
          "type": "bool"
        }
      ],
      "stateMutability": "view",
      "type": "function"
    },
    {
      "inputs": [
        {
          "internalType": "address",
          "name": "_token",
          "type": "address"
        }
      ],
      "name": "isTokenAllowed",
      "outputs": [
        {
          "internalType": "bool",
          "name": "",
          "type": "bool"
        }
      ],
      "stateMutability": "view",
      "type": "function"
    },
    {
      "inputs": [
        {
          "internalType": "address",
          "name": "_to",
          "type": "address"
        },
        {
          "internalType": "uint256",
          "name": "_optionId",
          "type": "uint256"
        },
        {
          "internalType": "bytes",
          "name": "_data",
          "type": "bytes"
        }
      ],
      "name": "mint",
      "outputs": [],
      "stateMutability": "nonpayable",
      "type": "function"
    },
    {
      "inputs": [
        {
          "internalType": "address",
          "name": "to",
          "type": "address"
        },
        {
          "internalType": "uint256[]",
          "name": "ids",
          "type": "uint256[]"
        },
        {
          "internalType": "uint256[]",
          "name": "amounts",
          "type": "uint256[]"
        },
        {
          "internalType": "bytes",
          "name": "",
          "type": "bytes"
        }
      ],
      "name": "mintBatch",
      "outputs": [],
      "stateMutability": "nonpayable",
      "type": "function"
    },
    {
      "inputs": [],
      "name": "name",
      "outputs": [
        {
          "internalType": "string",
          "name": "",
          "type": "string"
        }
      ],
      "stateMutability": "view",
      "type": "function"
    },
    {
      "inputs": [
        {
          "internalType": "bytes32",
          "name": "role",
          "type": "bytes32"
        },
        {
          "internalType": "address",
          "name": "account",
          "type": "address"
        }
      ],
      "name": "renounceRole",
      "outputs": [],
      "stateMutability": "nonpayable",
      "type": "function"
    },
    {
      "inputs": [
        {
          "internalType": "bytes32",
          "name": "role",
          "type": "bytes32"
        },
        {
          "internalType": "address",
          "name": "account",
          "type": "address"
        }
      ],
      "name": "revokeRole",
      "outputs": [],
      "stateMutability": "nonpayable",
      "type": "function"
    },
    {
      "inputs": [
        {
          "internalType": "address",
          "name": "from",
          "type": "address"
        },
        {
          "internalType": "address",
          "name": "to",
          "type": "address"
        },
        {
          "internalType": "uint256[]",
          "name": "ids",
          "type": "uint256[]"
        },
        {
          "internalType": "uint256[]",
          "name": "amounts",
          "type": "uint256[]"
        },
        {
          "internalType": "bytes",
          "name": "data",
          "type": "bytes"
        }
      ],
      "name": "safeBatchTransferFrom",
      "outputs": [],
      "stateMutability": "nonpayable",
      "type": "function"
    },
    {
      "inputs": [
        {
          "internalType": "address",
          "name": "from",
          "type": "address"
        },
        {
          "internalType": "address",
          "name": "to",
          "type": "address"
        },
        {
          "internalType": "uint256",
          "name": "id",
          "type": "uint256"
        },
        {
          "internalType": "uint256",
          "name": "amount",
          "type": "uint256"
        },
        {
          "internalType": "bytes",
          "name": "data",
          "type": "bytes"
        }
      ],
      "name": "safeTransferFrom",
      "outputs": [],
      "stateMutability": "nonpayable",
      "type": "function"
    },
    {
      "inputs": [
        {
          "internalType": "uint256",
          "name": "",
          "type": "uint256"
        }
      ],
      "name": "seasons",
      "outputs": [
        {
          "internalType": "uint256",
          "name": "rewardId",
          "type": "uint256"
        },
        {
          "internalType": "uint256",
          "name": "priceUSD",
          "type": "uint256"
        },
        {
          "internalType": "bool",
          "name": "ended",
          "type": "bool"
        },
        {
          "internalType": "bool",
          "name": "exists",
          "type": "bool"
        }
      ],
      "stateMutability": "view",
      "type": "function"
    },
    {
      "inputs": [
        {
          "internalType": "address",
          "name": "operator",
          "type": "address"
        },
        {
          "internalType": "bool",
          "name": "approved",
          "type": "bool"
        }
      ],
      "name": "setApprovalForAll",
      "outputs": [],
      "stateMutability": "nonpayable",
      "type": "function"
    },
    {
      "inputs": [
        {
          "internalType": "uint256[]",
          "name": "ids",
          "type": "uint256[]"
        },
        {
          "internalType": "string[]",
          "name": "hashes",
          "type": "string[]"
        }
      ],
      "name": "setIpfsHashBatch",
      "outputs": [],
      "stateMutability": "nonpayable",
      "type": "function"
    },
    {
      "inputs": [
        {
          "internalType": "bytes4",
          "name": "interfaceId",
          "type": "bytes4"
        }
      ],
      "name": "supportsInterface",
      "outputs": [
        {
          "internalType": "bool",
          "name": "",
          "type": "bool"
        }
      ],
      "stateMutability": "view",
      "type": "function"
    },
    {
      "inputs": [],
      "name": "symbol",
      "outputs": [
        {
          "internalType": "string",
          "name": "",
          "type": "string"
        }
      ],
      "stateMutability": "view",
      "type": "function"
    },
    {
      "inputs": [
        {
          "internalType": "uint256",
          "name": "id",
          "type": "uint256"
        }
      ],
      "name": "totalSupply",
      "outputs": [
        {
          "internalType": "uint256",
          "name": "",
          "type": "uint256"
        }
      ],
      "stateMutability": "view",
      "type": "function"
    },
    {
      "inputs": [
        {
          "internalType": "uint256",
          "name": "id",
          "type": "uint256"
        }
      ],
      "name": "uri",
      "outputs": [
        {
          "internalType": "string",
          "name": "",
          "type": "string"
        }
      ],
      "stateMutability": "view",
      "type": "function"
    },
    {
      "inputs": [
        {
          "internalType": "uint256",
          "name": "amount",
          "type": "uint256"
        },
        {
          "internalType": "address",
          "name": "token",
          "type": "address"
        },
        {
          "internalType": "address",
          "name": "recipient",
          "type": "address"
        }
      ],
      "name": "withdraw",
      "outputs": [],
      "stateMutability": "nonpayable",
      "type": "function"
    }
  ],
  "bytecode": "0x608060405260066008553480156200001657600080fd5b5060405162003ecb38038062003ecb83398101604081905262000039916200028b565b604080516020810190915260008152620000538162000110565b506001600455600a62000067838262000384565b50600b62000076828262000384565b506200008460003362000122565b620000b07fdb71320fc8c138e2e0557b1d938cfafeb2e3c06e084ea9fce78bd34034626ac83362000122565b620000dc7fbc1f3f7c406085be62d227092f4fd5af86922a19f3a87e6199f14015341eb9d93362000122565b620001087f7804d923f43a17d325d77e781528e0793b2edd9890ab45fc64efd7b4b427744c3362000122565b505062000450565b60026200011e828262000384565b5050565b60008281526005602090815260408083206001600160a01b038516845290915290205460ff166200011e5760008281526005602090815260408083206001600160a01b03851684529091529020805460ff19166001179055620001823390565b6001600160a01b0316816001600160a01b0316837f2f8788117e7eff1d82e926ec794901d17c78024a50270940304540a733656f0d60405160405180910390a45050565b634e487b7160e01b600052604160045260246000fd5b600082601f830112620001ee57600080fd5b81516001600160401b03808211156200020b576200020b620001c6565b604051601f8301601f19908116603f01168101908282118183101715620002365762000236620001c6565b816040528381526020925086838588010111156200025357600080fd5b600091505b8382101562000277578582018301518183018401529082019062000258565b600093810190920192909252949350505050565b600080604083850312156200029f57600080fd5b82516001600160401b0380821115620002b757600080fd5b620002c586838701620001dc565b93506020850151915080821115620002dc57600080fd5b50620002eb85828601620001dc565b9150509250929050565b600181811c908216806200030a57607f821691505b6020821081036200032b57634e487b7160e01b600052602260045260246000fd5b50919050565b601f8211156200037f57600081815260208120601f850160051c810160208610156200035a5750805b601f850160051c820191505b818110156200037b5782815560010162000366565b5050505b505050565b81516001600160401b03811115620003a057620003a0620001c6565b620003b881620003b18454620002f5565b8462000331565b602080601f831160018114620003f05760008415620003d75750858301515b600019600386901b1c1916600185901b1785556200037b565b600085815260208120601f198616915b82811015620004215788860151825594840194600190910190840162000400565b5085821015620004405787850151600019600388901b60f8161c191681555b5050505050600190811b01905550565b613a6b80620004606000396000f3fe6080604052600436106102b95760003560e01c80638e7827231161016e578063bcb39621116100cb578063e985e9c51161007f578063f5d709a111610064578063f5d709a1146108c3578063f9eaee0d14610933578063ffff22bd1461095357600080fd5b8063e985e9c51461085a578063f242432a146108a357600080fd5b8063c4a4de82116100b0578063c4a4de8214610804578063d547741f14610824578063e4ad40581461084457600080fd5b8063bcb39621146107c1578063bd85b039146107d757600080fd5b8063a217fddf11610122578063a43d865411610107578063a43d8654146106c3578063af81c5b914610781578063b460af94146107a157600080fd5b8063a217fddf1461068e578063a22cb465146106a357600080fd5b806394056b4d1161015357806394056b4d1461063957806394d008ef1461065957806395d89b411461067957600080fd5b80638e782723146105c657806391d14854146105f357600080fd5b806336568abe1161021c57806356ad06f8116101d05780637bc8e14c116101b55780637bc8e14c1461053e5780637f34571014610572578063885c2f35146105a657600080fd5b806356ad06f8146104f55780636c0360eb1461052957600080fd5b80634e1273f4116102015780634e1273f4146104795780634f558e79146104a657806350751d9d146104d557600080fd5b806336568abe14610439578063449e815d1461045957600080fd5b80631dd319cb11610273578063248a9ca311610258578063248a9ca3146103c95780632eb2c2d6146103f95780632f2ff15d1461041957600080fd5b80631dd319cb146103875780631f7fdffa146103a957600080fd5b806301ffc9a7116102a457806301ffc9a71461032257806306fdde03146103525780630e89341c1461036757600080fd5b8062d27655146102be578062fdd58e146102f4575b600080fd5b3480156102ca57600080fd5b506102de6102d9366004612c93565b610966565b6040516102eb9190612cfc565b60405180910390f35b34801561030057600080fd5b5061031461030f366004612d2b565b610a00565b6040519081526020016102eb565b34801561032e57600080fd5b5061034261033d366004612d6b565b610aac565b60405190151581526020016102eb565b34801561035e57600080fd5b506102de610ab7565b34801561037357600080fd5b506102de610382366004612c93565b610ac4565b34801561039357600080fd5b506103a76103a2366004612d2b565b610b68565b005b3480156103b557600080fd5b506103a76103c4366004612e16565b610ba3565b3480156103d557600080fd5b506103146103e4366004612c93565b60009081526005602052604090206001015490565b34801561040557600080fd5b506103a7610414366004613017565b610c53565b34801561042557600080fd5b506103a76104343660046130c1565b610cf5565b34801561044557600080fd5b506103a76104543660046130c1565b610d1a565b34801561046557600080fd5b50610314610474366004612d2b565b610da6565b34801561048557600080fd5b506104996104943660046130ed565b610e5e565b6040516102eb91906131f3565b3480156104b257600080fd5b506103426104c1366004612c93565b600090815260036020526040902054151590565b3480156104e157600080fd5b506103a76104f0366004613206565b610f9c565b34801561050157600080fd5b506103147fdb71320fc8c138e2e0557b1d938cfafeb2e3c06e084ea9fce78bd34034626ac881565b34801561053557600080fd5b506102de611061565b34801561054a57600080fd5b506103147fbc1f3f7c406085be62d227092f4fd5af86922a19f3a87e6199f14015341eb9d981565b34801561057e57600080fd5b506103147f7804d923f43a17d325d77e781528e0793b2edd9890ab45fc64efd7b4b427744c81565b3480156105b257600080fd5b506103a76105c13660046132fb565b61106e565b3480156105d257600080fd5b506103146105e136600461337c565b60096020526000908152604090205481565b3480156105ff57600080fd5b5061034261060e3660046130c1565b60009182526005602090815260408084206001600160a01b0393909316845291905290205460ff1690565b34801561064557600080fd5b506103a7610654366004613397565b61110e565b34801561066557600080fd5b506103a76106743660046133b9565b611242565b34801561068557600080fd5b506102de6112af565b34801561069a57600080fd5b50610314600081565b3480156106af57600080fd5b506103a76106be366004613421565b6112bc565b3480156106cf57600080fd5b5061074a6106de366004612c93565b604080516080808201835260008083526020808401829052838501829052606093840182905294815260078552839020835191820184528054825260018101549482019490945260029093015460ff808216151593850193909352610100900490911615159082015290565b6040516102eb9190815181526020808301519082015260408083015115159082015260609182015115159181019190915260800190565b34801561078d57600080fd5b506103a761079c366004612d2b565b6112c7565b3480156107ad57600080fd5b506103a76107bc366004613458565b61130e565b3480156107cd57600080fd5b5061031460065481565b3480156107e357600080fd5b506103146107f2366004612c93565b60009081526003602052604090205490565b34801561081057600080fd5b506103a761081f366004613397565b6113d3565b34801561083057600080fd5b506103a761083f3660046130c1565b611420565b34801561085057600080fd5b5061031460085481565b34801561086657600080fd5b50610342610875366004613494565b6001600160a01b03918216600090815260016020908152604080832093909416825291909152205460ff1690565b3480156108af57600080fd5b506103a76108be3660046134be565b611445565b3480156108cf57600080fd5b5061090b6108de366004612c93565b60076020526000908152604090208054600182015460029092015490919060ff8082169161010090041684565b60408051948552602085019390935290151591830191909152151560608201526080016102eb565b34801561093f57600080fd5b5061034261094e36600461337c565b6114e0565b6103a7610961366004612d2b565b61150c565b600d602052600090815260409020805461097f90613523565b80601f01602080910402602001604051908101604052809291908181526020018280546109ab90613523565b80156109f85780601f106109cd576101008083540402835291602001916109f8565b820191906000526020600020905b8154815290600101906020018083116109db57829003601f168201915b505050505081565b60006001600160a01b038316610a835760405162461bcd60e51b815260206004820152602a60248201527f455243313135353a2061646472657373207a65726f206973206e6f742061207660448201527f616c6964206f776e65720000000000000000000000000000000000000000000060648201526084015b60405180910390fd5b506000818152602081815260408083206001600160a01b03861684529091529020545b92915050565b6000610aa6826117b5565b600a805461097f90613523565b6000818152600d6020526040812080546060929190610ae290613523565b80601f0160208091040260200160405190810160405280929190818152602001828054610b0e90613523565b8015610b5b5780601f10610b3057610100808354040283529160200191610b5b565b820191906000526020600020905b815481529060010190602001808311610b3e57829003601f168201915b5093979650505050505050565b7fbc1f3f7c406085be62d227092f4fd5af86922a19f3a87e6199f14015341eb9d9610b92816117f3565b610b9e83836001611800565b505050565b7fbc1f3f7c406085be62d227092f4fd5af86922a19f3a87e6199f14015341eb9d9610bcd816117f3565b610c498888888080602002602001604051908101604052809392919081815260200183836020028082843760009201919091525050604080516020808c0282810182019093528b82529093508b92508a918291850190849080828437600092018290525060408051602081019091529081529250611995915050565b5050505050505050565b6001600160a01b038516331480610c6f5750610c6f8533610875565b610ce15760405162461bcd60e51b815260206004820152602e60248201527f455243313135353a2063616c6c6572206973206e6f7420746f6b656e206f776e60448201527f6572206f7220617070726f7665640000000000000000000000000000000000006064820152608401610a7a565b610cee8585858585611b6a565b5050505050565b600082815260056020526040902060010154610d10816117f3565b610b9e8383611dce565b6001600160a01b0381163314610d985760405162461bcd60e51b815260206004820152602f60248201527f416363657373436f6e74726f6c3a2063616e206f6e6c792072656e6f756e636560448201527f20726f6c657320666f722073656c6600000000000000000000000000000000006064820152608401610a7a565b610da28282611e70565b5050565b6006546000908152600760205260408120600281015460ff1615610e0c5760405162461bcd60e51b815260206004820152601660248201527f436c6f636b53616c653a494e56414c49445f53414c45000000000000000000006044820152606401610a7a565b6008546001600160a01b038516600090815260096020526040902054610e329190613573565b610e3d90600a61366a565b6001820154610e4c9085613676565b610e569190613676565b949350505050565b60608151835114610ed75760405162461bcd60e51b815260206004820152602960248201527f455243313135353a206163636f756e747320616e6420696473206c656e67746860448201527f206d69736d6174636800000000000000000000000000000000000000000000006064820152608401610a7a565b6000835167ffffffffffffffff811115610ef357610ef3612ec1565b604051908082528060200260200182016040528015610f1c578160200160208202803683370190505b50905060005b8451811015610f9457610f67858281518110610f4057610f4061368d565b6020026020010151858381518110610f5a57610f5a61368d565b6020026020010151610a00565b828281518110610f7957610f7961368d565b6020908102919091010152610f8d816136a3565b9050610f22565b509392505050565b7f7804d923f43a17d325d77e781528e0793b2edd9890ab45fc64efd7b4b427744c610fc6816117f3565b60005b835181101561105b576000838281518110610fe657610fe661368d565b6020026020010151511115611049578281815181106110075761100761368d565b6020026020010151600d60008684815181106110255761102561368d565b6020026020010151815260200190815260200160002090816110479190613702565b505b80611053816136a3565b915050610fc9565b50505050565b600c805461097f90613523565b7fbc1f3f7c406085be62d227092f4fd5af86922a19f3a87e6199f14015341eb9d9611098816117f3565b6111068686868080602002602001604051908101604052809392919081815260200183836020028082843760009201919091525050604080516020808a02828101820190935289825290935089925088918291850190849080828437600092019190915250611ef392505050565b505050505050565b7fdb71320fc8c138e2e0557b1d938cfafeb2e3c06e084ea9fce78bd34034626ac8611138816117f3565b60065460009081526007602052604090205483036111985760405162461bcd60e51b815260206004820152601760248201527f6964732073686f756c6420626520646966666572656e740000000000000000006044820152606401610a7a565b600680549060006111a8836136a3565b90915550506006805460009081526007602052604080822060010185905582548252808220869055915481522060020154610100900460ff16610b9e576006805460009081526007602081905260408220600201805461ff0019166101001790559154600192919061121b908490613573565b81526020810191909152604001600020600201805460ff1916911515919091179055505050565b7fbc1f3f7c406085be62d227092f4fd5af86922a19f3a87e6199f14015341eb9d961126c816117f3565b610cee8585600186868080601f01602080910402602001604051908101604052809392919081815260200183838082843760009201919091525061214892505050565b600b805461097f90613523565b610da2338383612262565b7fbc1f3f7c406085be62d227092f4fd5af86922a19f3a87e6199f14015341eb9d96112f1816117f3565b506001600160a01b03909116600090815260096020526040902055565b7f7804d923f43a17d325d77e781528e0793b2edd9890ab45fc64efd7b4b427744c611338816117f3565b6001600160a01b0383161561105b576040517fa9059cbb0000000000000000000000000000000000000000000000000000000081526001600160a01b0383811660048301526024820186905284169063a9059cbb906044016020604051808303816000875af11580156113af573d6000803e3d6000fd5b505050506040513d601f19601f82011682018060405250810190610cee91906137c2565b7fdb71320fc8c138e2e0557b1d938cfafeb2e3c06e084ea9fce78bd34034626ac86113fd816117f3565b506006805460009081526007602052604080822060010193909355905481522055565b60008281526005602052604090206001015461143b816117f3565b610b9e8383611e70565b6001600160a01b03851633148061146157506114618533610875565b6114d35760405162461bcd60e51b815260206004820152602e60248201527f455243313135353a2063616c6c6572206973206e6f7420746f6b656e206f776e60448201527f6572206f7220617070726f7665640000000000000000000000000000000000006064820152608401610a7a565b610cee8585858585612356565b6001600160a01b038116600090815260096020526040812054611504576000610aa6565b600192915050565b600654600090815260076020526040812054906115298484610da6565b9050611534846114e0565b6115805760405162461bcd60e51b815260206004820152601b60248201527f544f4b454e20544f20504159204953204e4f5420414c4c4f57454400000000006044820152606401610a7a565b806001600160a01b0385166370a08231336040516001600160e01b031960e084901b1681526001600160a01b039091166004820152602401602060405180830381865afa1580156115d5573d6000803e3d6000fd5b505050506040513d601f19601f820116820180604052508101906115f991906137df565b116116465760405162461bcd60e51b815260206004820152601360248201527f494e535546494349454e542042414c414e4345000000000000000000000000006044820152606401610a7a565b806001600160a01b03851663dd62ed3e336040516001600160e01b031960e084901b1681526001600160a01b039091166004820152306024820152604401602060405180830381865afa1580156116a1573d6000803e3d6000fd5b505050506040513d601f19601f820116820180604052508101906116c591906137df565b116117125760405162461bcd60e51b815260206004820152601560248201527f494e535546494349454e5420414c4c4f57414e434500000000000000000000006044820152606401610a7a565b6001600160a01b0384166323b872dd336040516001600160e01b031960e084901b1681526001600160a01b039091166004820152306024820152604481018490526064016020604051808303816000875af1158015611775573d6000803e3d6000fd5b505050506040513d601f19601f8201168201806040525081019061179991906137c2565b5061105b33838560405180602001604052806000815250612148565b60006001600160e01b031982167f7965db0b000000000000000000000000000000000000000000000000000000001480610aa65750610aa68261250f565b6117fd81336125aa565b50565b6001600160a01b0383166118625760405162461bcd60e51b815260206004820152602360248201527f455243313135353a206275726e2066726f6d20746865207a65726f206164647260448201526265737360e81b6064820152608401610a7a565b33600061186e8461261f565b9050600061187b8461261f565b905061189b8387600085856040518060200160405280600081525061266a565b6000858152602081815260408083206001600160a01b038a168452909152902054848110156119185760405162461bcd60e51b8152602060048201526024808201527f455243313135353a206275726e20616d6f756e7420657863656564732062616c604482015263616e636560e01b6064820152608401610a7a565b6000868152602081815260408083206001600160a01b038b81168086529184528285208a8703905582518b81529384018a90529092908816917fc3d58168c5ae7397731d063d5bbf3d657854427343f4c083240f7aacaa2d0f62910160405180910390a46040805160208101909152600090525b50505050505050565b6001600160a01b0384166119f55760405162461bcd60e51b815260206004820152602160248201527f455243313135353a206d696e7420746f20746865207a65726f206164647265736044820152607360f81b6064820152608401610a7a565b8151835114611a575760405162461bcd60e51b815260206004820152602860248201527f455243313135353a2069647320616e6420616d6f756e7473206c656e677468206044820152670dad2e6dac2e8c6d60c31b6064820152608401610a7a565b33611a678160008787878761266a565b60005b8451811015611b0257838181518110611a8557611a8561368d565b6020026020010151600080878481518110611aa257611aa261368d565b602002602001015181526020019081526020016000206000886001600160a01b03166001600160a01b031681526020019081526020016000206000828254611aea91906137f8565b90915550819050611afa816136a3565b915050611a6a565b50846001600160a01b031660006001600160a01b0316826001600160a01b03167f4a39dc06d4c0dbc64b70af90fd698a233a518aa5d07e595d983b8c0526c8f7fb8787604051611b5392919061380b565b60405180910390a4610cee816000878787876127f8565b8151835114611bcc5760405162461bcd60e51b815260206004820152602860248201527f455243313135353a2069647320616e6420616d6f756e7473206c656e677468206044820152670dad2e6dac2e8c6d60c31b6064820152608401610a7a565b6001600160a01b038416611c305760405162461bcd60e51b815260206004820152602560248201527f455243313135353a207472616e7366657220746f20746865207a65726f206164604482015264647265737360d81b6064820152608401610a7a565b33611c3f81878787878761266a565b60005b8451811015611d68576000858281518110611c5f57611c5f61368d565b602002602001015190506000858381518110611c7d57611c7d61368d565b602090810291909101810151600084815280835260408082206001600160a01b038e168352909352919091205490915081811015611d105760405162461bcd60e51b815260206004820152602a60248201527f455243313135353a20696e73756666696369656e742062616c616e636520666f60448201526939103a3930b739b332b960b11b6064820152608401610a7a565b6000838152602081815260408083206001600160a01b038e8116855292528083208585039055908b16825281208054849290611d4d9084906137f8565b9250508190555050505080611d61906136a3565b9050611c42565b50846001600160a01b0316866001600160a01b0316826001600160a01b03167f4a39dc06d4c0dbc64b70af90fd698a233a518aa5d07e595d983b8c0526c8f7fb8787604051611db892919061380b565b60405180910390a46111068187878787876127f8565b60008281526005602090815260408083206001600160a01b038516845290915290205460ff16610da25760008281526005602090815260408083206001600160a01b03851684529091529020805460ff19166001179055611e2c3390565b6001600160a01b0316816001600160a01b0316837f2f8788117e7eff1d82e926ec794901d17c78024a50270940304540a733656f0d60405160405180910390a45050565b60008281526005602090815260408083206001600160a01b038516845290915290205460ff1615610da25760008281526005602090815260408083206001600160a01b0385168085529252808320805460ff1916905551339285917ff6391f5c32d9c69d2a47ea670b442974b53935d1edc7fd64eb21e047a839171b9190a45050565b6001600160a01b038316611f555760405162461bcd60e51b815260206004820152602360248201527f455243313135353a206275726e2066726f6d20746865207a65726f206164647260448201526265737360e81b6064820152608401610a7a565b8051825114611fb75760405162461bcd60e51b815260206004820152602860248201527f455243313135353a2069647320616e6420616d6f756e7473206c656e677468206044820152670dad2e6dac2e8c6d60c31b6064820152608401610a7a565b6000339050611fda8185600086866040518060200160405280600081525061266a565b60005b83518110156120db576000848281518110611ffa57611ffa61368d565b6020026020010151905060008483815181106120185761201861368d565b602090810291909101810151600084815280835260408082206001600160a01b038c1683529093529190912054909150818110156120a45760405162461bcd60e51b8152602060048201526024808201527f455243313135353a206275726e20616d6f756e7420657863656564732062616c604482015263616e636560e01b6064820152608401610a7a565b6000928352602083815260408085206001600160a01b038b16865290915290922091039055806120d3816136a3565b915050611fdd565b5060006001600160a01b0316846001600160a01b0316826001600160a01b03167f4a39dc06d4c0dbc64b70af90fd698a233a518aa5d07e595d983b8c0526c8f7fb868660405161212c92919061380b565b60405180910390a460408051602081019091526000905261105b565b6001600160a01b0384166121a85760405162461bcd60e51b815260206004820152602160248201527f455243313135353a206d696e7420746f20746865207a65726f206164647265736044820152607360f81b6064820152608401610a7a565b3360006121b48561261f565b905060006121c18561261f565b90506121d28360008985858961266a565b6000868152602081815260408083206001600160a01b038b168452909152812080548792906122029084906137f8565b909155505060408051878152602081018790526001600160a01b03808a1692600092918716917fc3d58168c5ae7397731d063d5bbf3d657854427343f4c083240f7aacaa2d0f62910160405180910390a461198c8360008989898961299d565b816001600160a01b0316836001600160a01b0316036122e95760405162461bcd60e51b815260206004820152602960248201527f455243313135353a2073657474696e6720617070726f76616c2073746174757360448201527f20666f722073656c6600000000000000000000000000000000000000000000006064820152608401610a7a565b6001600160a01b03838116600081815260016020908152604080832094871680845294825291829020805460ff191686151590811790915591519182527f17307eab39ab6107e8899845ad3d59bd9653f200f220920489ca2b5937696c31910160405180910390a3505050565b6001600160a01b0384166123ba5760405162461bcd60e51b815260206004820152602560248201527f455243313135353a207472616e7366657220746f20746865207a65726f206164604482015264647265737360d81b6064820152608401610a7a565b3360006123c68561261f565b905060006123d38561261f565b90506123e383898985858961266a565b6000868152602081815260408083206001600160a01b038c168452909152902054858110156124675760405162461bcd60e51b815260206004820152602a60248201527f455243313135353a20696e73756666696369656e742062616c616e636520666f60448201526939103a3930b739b332b960b11b6064820152608401610a7a565b6000878152602081815260408083206001600160a01b038d8116855292528083208985039055908a168252812080548892906124a49084906137f8565b909155505060408051888152602081018890526001600160a01b03808b16928c821692918816917fc3d58168c5ae7397731d063d5bbf3d657854427343f4c083240f7aacaa2d0f62910160405180910390a4612504848a8a8a8a8a61299d565b505050505050505050565b60006001600160e01b031982167fd9b67a2600000000000000000000000000000000000000000000000000000000148061257257506001600160e01b031982167f0e89341c00000000000000000000000000000000000000000000000000000000145b80610aa657507f01ffc9a7000000000000000000000000000000000000000000000000000000006001600160e01b0319831614610aa6565b60008281526005602090815260408083206001600160a01b038516845290915290205460ff16610da2576125dd81612a99565b6125e8836020612aab565b6040516020016125f9929190613839565b60408051601f198184030181529082905262461bcd60e51b8252610a7a91600401612cfc565b604080516001808252818301909252606091600091906020808301908036833701905050905082816000815181106126595761265961368d565b602090810291909101015292915050565b6001600160a01b0385166126f15760005b83518110156126ef578281815181106126965761269661368d565b6020026020010151600360008684815181106126b4576126b461368d565b6020026020010151815260200190815260200160002060008282546126d991906137f8565b909155506126e89050816136a3565b905061267b565b505b6001600160a01b0384166111065760005b835181101561198c57600084828151811061271f5761271f61368d565b60200260200101519050600084838151811061273d5761273d61368d565b60200260200101519050600060036000848152602001908152602001600020549050818110156127d55760405162461bcd60e51b815260206004820152602860248201527f455243313135353a206275726e20616d6f756e74206578636565647320746f7460448201527f616c537570706c790000000000000000000000000000000000000000000000006064820152608401610a7a565b600092835260036020526040909220910390556127f1816136a3565b9050612702565b6001600160a01b0384163b156111065760405163bc197c8160e01b81526001600160a01b0385169063bc197c819061283c90899089908890889088906004016138ba565b6020604051808303816000875af1925050508015612877575060408051601f3d908101601f1916820190925261287491810190613918565b60015b61292c57612883613935565b806308c379a0036128bc5750612897613951565b806128a257506128be565b8060405162461bcd60e51b8152600401610a7a9190612cfc565b505b60405162461bcd60e51b815260206004820152603460248201527f455243313135353a207472616e7366657220746f206e6f6e2d4552433131353560448201527f526563656976657220696d706c656d656e7465720000000000000000000000006064820152608401610a7a565b6001600160e01b0319811663bc197c8160e01b1461198c5760405162461bcd60e51b815260206004820152602860248201527f455243313135353a204552433131353552656365697665722072656a656374656044820152676420746f6b656e7360c01b6064820152608401610a7a565b6001600160a01b0384163b156111065760405163f23a6e6160e01b81526001600160a01b0385169063f23a6e61906129e190899089908890889088906004016139db565b6020604051808303816000875af1925050508015612a1c575060408051601f3d908101601f19168201909252612a1991810190613918565b60015b612a2857612883613935565b6001600160e01b0319811663f23a6e6160e01b1461198c5760405162461bcd60e51b815260206004820152602860248201527f455243313135353a204552433131353552656365697665722072656a656374656044820152676420746f6b656e7360c01b6064820152608401610a7a565b6060610aa66001600160a01b03831660145b60606000612aba836002613676565b612ac59060026137f8565b67ffffffffffffffff811115612add57612add612ec1565b6040519080825280601f01601f191660200182016040528015612b07576020820181803683370190505b5090507f300000000000000000000000000000000000000000000000000000000000000081600081518110612b3e57612b3e61368d565b60200101906001600160f81b031916908160001a9053507f780000000000000000000000000000000000000000000000000000000000000081600181518110612b8957612b8961368d565b60200101906001600160f81b031916908160001a9053506000612bad846002613676565b612bb89060016137f8565b90505b6001811115612c3d577f303132333435363738396162636465660000000000000000000000000000000085600f1660108110612bf957612bf961368d565b1a60f81b828281518110612c0f57612c0f61368d565b60200101906001600160f81b031916908160001a90535060049490941c93612c3681613a1e565b9050612bbb565b508315612c8c5760405162461bcd60e51b815260206004820181905260248201527f537472696e67733a20686578206c656e67746820696e73756666696369656e746044820152606401610a7a565b9392505050565b600060208284031215612ca557600080fd5b5035919050565b60005b83811015612cc7578181015183820152602001612caf565b50506000910152565b60008151808452612ce8816020860160208601612cac565b601f01601f19169290920160200192915050565b602081526000612c8c6020830184612cd0565b80356001600160a01b0381168114612d2657600080fd5b919050565b60008060408385031215612d3e57600080fd5b612d4783612d0f565b946020939093013593505050565b6001600160e01b0319811681146117fd57600080fd5b600060208284031215612d7d57600080fd5b8135612c8c81612d55565b60008083601f840112612d9a57600080fd5b50813567ffffffffffffffff811115612db257600080fd5b6020830191508360208260051b8501011115612dcd57600080fd5b9250929050565b60008083601f840112612de657600080fd5b50813567ffffffffffffffff811115612dfe57600080fd5b602083019150836020828501011115612dcd57600080fd5b60008060008060008060006080888a031215612e3157600080fd5b612e3a88612d0f565b9650602088013567ffffffffffffffff80821115612e5757600080fd5b612e638b838c01612d88565b909850965060408a0135915080821115612e7c57600080fd5b612e888b838c01612d88565b909650945060608a0135915080821115612ea157600080fd5b50612eae8a828b01612dd4565b989b979a50959850939692959293505050565b634e487b7160e01b600052604160045260246000fd5b601f8201601f1916810167ffffffffffffffff81118282101715612efd57612efd612ec1565b6040525050565b600067ffffffffffffffff821115612f1e57612f1e612ec1565b5060051b60200190565b600082601f830112612f3957600080fd5b81356020612f4682612f04565b604051612f538282612ed7565b83815260059390931b8501820192828101915086841115612f7357600080fd5b8286015b84811015612f8e5780358352918301918301612f77565b509695505050505050565b600067ffffffffffffffff831115612fb357612fb3612ec1565b604051612fca601f8501601f191660200182612ed7565b809150838152848484011115612fdf57600080fd5b83836020830137600060208583010152509392505050565b600082601f83011261300857600080fd5b612c8c83833560208501612f99565b600080600080600060a0868803121561302f57600080fd5b61303886612d0f565b945061304660208701612d0f565b9350604086013567ffffffffffffffff8082111561306357600080fd5b61306f89838a01612f28565b9450606088013591508082111561308557600080fd5b61309189838a01612f28565b935060808801359150808211156130a757600080fd5b506130b488828901612ff7565b9150509295509295909350565b600080604083850312156130d457600080fd5b823591506130e460208401612d0f565b90509250929050565b6000806040838503121561310057600080fd5b823567ffffffffffffffff8082111561311857600080fd5b818501915085601f83011261312c57600080fd5b8135602061313982612f04565b6040516131468282612ed7565b83815260059390931b850182019282810191508984111561316657600080fd5b948201945b8386101561318b5761317c86612d0f565b8252948201949082019061316b565b965050860135925050808211156131a157600080fd5b506131ae85828601612f28565b9150509250929050565b600081518084526020808501945080840160005b838110156131e8578151875295820195908201906001016131cc565b509495945050505050565b602081526000612c8c60208301846131b8565b600080604080848603121561321a57600080fd5b833567ffffffffffffffff8082111561323257600080fd5b61323e87838801612f28565b945060209150818601358181111561325557600080fd5b8601601f8101881361326657600080fd5b803561327181612f04565b855161327d8282612ed7565b82815260059290921b830185019185810191508a83111561329d57600080fd5b8584015b838110156132e9578035868111156132b95760008081fd5b8501603f81018d136132cb5760008081fd5b6132db8d898301358b8401612f99565b8452509186019186016132a1565b50809750505050505050509250929050565b60008060008060006060868803121561331357600080fd5b61331c86612d0f565b9450602086013567ffffffffffffffff8082111561333957600080fd5b61334589838a01612d88565b9096509450604088013591508082111561335e57600080fd5b5061336b88828901612d88565b969995985093965092949392505050565b60006020828403121561338e57600080fd5b612c8c82612d0f565b600080604083850312156133aa57600080fd5b50508035926020909101359150565b600080600080606085870312156133cf57600080fd5b6133d885612d0f565b935060208501359250604085013567ffffffffffffffff8111156133fb57600080fd5b61340787828801612dd4565b95989497509550505050565b80151581146117fd57600080fd5b6000806040838503121561343457600080fd5b61343d83612d0f565b9150602083013561344d81613413565b809150509250929050565b60008060006060848603121561346d57600080fd5b8335925061347d60208501612d0f565b915061348b60408501612d0f565b90509250925092565b600080604083850312156134a757600080fd5b6134b083612d0f565b91506130e460208401612d0f565b600080600080600060a086880312156134d657600080fd5b6134df86612d0f565b94506134ed60208701612d0f565b93506040860135925060608601359150608086013567ffffffffffffffff81111561351757600080fd5b6130b488828901612ff7565b600181811c9082168061353757607f821691505b60208210810361355757634e487b7160e01b600052602260045260246000fd5b50919050565b634e487b7160e01b600052601160045260246000fd5b81810381811115610aa657610aa661355d565b600181815b808511156135c15781600019048211156135a7576135a761355d565b808516156135b457918102915b93841c939080029061358b565b509250929050565b6000826135d857506001610aa6565b816135e557506000610aa6565b81600181146135fb576002811461360557613621565b6001915050610aa6565b60ff8411156136165761361661355d565b50506001821b610aa6565b5060208310610133831016604e8410600b8410161715613644575081810a610aa6565b61364e8383613586565b80600019048211156136625761366261355d565b029392505050565b6000612c8c83836135c9565b8082028115828204841417610aa657610aa661355d565b634e487b7160e01b600052603260045260246000fd5b6000600182016136b5576136b561355d565b5060010190565b601f821115610b9e57600081815260208120601f850160051c810160208610156136e35750805b601f850160051c820191505b81811015611106578281556001016136ef565b815167ffffffffffffffff81111561371c5761371c612ec1565b6137308161372a8454613523565b846136bc565b602080601f831160018114613765576000841561374d5750858301515b600019600386901b1c1916600185901b178555611106565b600085815260208120601f198616915b8281101561379457888601518255948401946001909101908401613775565b50858210156137b25787850151600019600388901b60f8161c191681555b5050505050600190811b01905550565b6000602082840312156137d457600080fd5b8151612c8c81613413565b6000602082840312156137f157600080fd5b5051919050565b80820180821115610aa657610aa661355d565b60408152600061381e60408301856131b8565b828103602084015261383081856131b8565b95945050505050565b7f416363657373436f6e74726f6c3a206163636f756e7420000000000000000000815260008351613871816017850160208801612cac565b7f206973206d697373696e6720726f6c652000000000000000000000000000000060179184019182015283516138ae816028840160208801612cac565b01602801949350505050565b60006001600160a01b03808816835280871660208401525060a060408301526138e660a08301866131b8565b82810360608401526138f881866131b8565b9050828103608084015261390c8185612cd0565b98975050505050505050565b60006020828403121561392a57600080fd5b8151612c8c81612d55565b600060033d111561394e5760046000803e5060005160e01c5b90565b600060443d101561395f5790565b6040516003193d81016004833e81513d67ffffffffffffffff816024840111818411171561398f57505050505090565b82850191508151818111156139a75750505050505090565b843d87010160208285010111156139c15750505050505090565b6139d060208286010187612ed7565b509095945050505050565b60006001600160a01b03808816835280871660208401525084604083015283606083015260a06080830152613a1360a0830184612cd0565b979650505050505050565b600081613a2d57613a2d61355d565b50600019019056fea264697066735822122041f2c6f80ba53e08cbabc6c73a8e76bc08bfe529d5042a6de50f185bed4a0dea64736f6c63430008110033",
  "linkReferences": {},
  "deployedLinkReferences": {}
}