{
  "_format": "hh-sol-artifact-1",
  "contractName": "EndersComicsOnlyMultiTokens",
  "sourceName": "contracts/OnlyMultitokens/EndersComicsOnlyMultiTokens.sol",
  "abi": [
    {
      "inputs": [
        {
          "internalType": "string",
          "name": "_name",
          "type": "string"
        },
        {
          "internalType": "string",
          "name": "_symbol",
          "type": "string"
        }
      ],
      "stateMutability": "nonpayable",
      "type": "constructor"
    },
    {
      "anonymous": false,
      "inputs": [
        {
          "indexed": true,
          "internalType": "address",
          "name": "account",
          "type": "address"
        },
        {
          "indexed": true,
          "internalType": "address",
          "name": "operator",
          "type": "address"
        },
        {
          "indexed": false,
          "internalType": "bool",
          "name": "approved",
          "type": "bool"
        }
      ],
      "name": "ApprovalForAll",
      "type": "event"
    },
    {
      "anonymous": false,
      "inputs": [
        {
          "indexed": true,
          "internalType": "bytes32",
          "name": "role",
          "type": "bytes32"
        },
        {
          "indexed": true,
          "internalType": "bytes32",
          "name": "previousAdminRole",
          "type": "bytes32"
        },
        {
          "indexed": true,
          "internalType": "bytes32",
          "name": "newAdminRole",
          "type": "bytes32"
        }
      ],
      "name": "RoleAdminChanged",
      "type": "event"
    },
    {
      "anonymous": false,
      "inputs": [
        {
          "indexed": true,
          "internalType": "bytes32",
          "name": "role",
          "type": "bytes32"
        },
        {
          "indexed": true,
          "internalType": "address",
          "name": "account",
          "type": "address"
        },
        {
          "indexed": true,
          "internalType": "address",
          "name": "sender",
          "type": "address"
        }
      ],
      "name": "RoleGranted",
      "type": "event"
    },
    {
      "anonymous": false,
      "inputs": [
        {
          "indexed": true,
          "internalType": "bytes32",
          "name": "role",
          "type": "bytes32"
        },
        {
          "indexed": true,
          "internalType": "address",
          "name": "account",
          "type": "address"
        },
        {
          "indexed": true,
          "internalType": "address",
          "name": "sender",
          "type": "address"
        }
      ],
      "name": "RoleRevoked",
      "type": "event"
    },
    {
      "anonymous": false,
      "inputs": [
        {
          "indexed": true,
          "internalType": "address",
          "name": "operator",
          "type": "address"
        },
        {
          "indexed": true,
          "internalType": "address",
          "name": "from",
          "type": "address"
        },
        {
          "indexed": true,
          "internalType": "address",
          "name": "to",
          "type": "address"
        },
        {
          "indexed": false,
          "internalType": "uint256[]",
          "name": "ids",
          "type": "uint256[]"
        },
        {
          "indexed": false,
          "internalType": "uint256[]",
          "name": "values",
          "type": "uint256[]"
        }
      ],
      "name": "TransferBatch",
      "type": "event"
    },
    {
      "anonymous": false,
      "inputs": [
        {
          "indexed": true,
          "internalType": "address",
          "name": "operator",
          "type": "address"
        },
        {
          "indexed": true,
          "internalType": "address",
          "name": "from",
          "type": "address"
        },
        {
          "indexed": true,
          "internalType": "address",
          "name": "to",
          "type": "address"
        },
        {
          "indexed": false,
          "internalType": "uint256",
          "name": "id",
          "type": "uint256"
        },
        {
          "indexed": false,
          "internalType": "uint256",
          "name": "value",
          "type": "uint256"
        }
      ],
      "name": "TransferSingle",
      "type": "event"
    },
    {
      "anonymous": false,
      "inputs": [
        {
          "indexed": false,
          "internalType": "string",
          "name": "value",
          "type": "string"
        },
        {
          "indexed": true,
          "internalType": "uint256",
          "name": "id",
          "type": "uint256"
        }
      ],
      "name": "URI",
      "type": "event"
    },
    {
      "inputs": [],
      "name": "COMIC_ROLE",
      "outputs": [
        {
          "internalType": "bytes32",
          "name": "",
          "type": "bytes32"
        }
      ],
      "stateMutability": "view",
      "type": "function"
    },
    {
      "inputs": [],
      "name": "DEFAULT_ADMIN_ROLE",
      "outputs": [
        {
          "internalType": "bytes32",
          "name": "",
          "type": "bytes32"
        }
      ],
      "stateMutability": "view",
      "type": "function"
    },
    {
      "inputs": [],
      "name": "SUPPLY_ROLE",
      "outputs": [
        {
          "internalType": "bytes32",
          "name": "",
          "type": "bytes32"
        }
      ],
      "stateMutability": "view",
      "type": "function"
    },
    {
      "inputs": [],
      "name": "URI_SETTER_ROLE",
      "outputs": [
        {
          "internalType": "bytes32",
          "name": "",
          "type": "bytes32"
        }
      ],
      "stateMutability": "view",
      "type": "function"
    },
    {
      "inputs": [
        {
          "internalType": "uint256",
          "name": "priceUSD",
          "type": "uint256"
        },
        {
          "internalType": "uint256",
          "name": "limit",
          "type": "uint256"
        }
      ],
      "name": "addComic",
      "outputs": [],
      "stateMutability": "nonpayable",
      "type": "function"
    },
    {
      "inputs": [
        {
          "internalType": "address",
          "name": "_token",
          "type": "address"
        },
        {
          "internalType": "uint256",
          "name": "decimals",
          "type": "uint256"
        }
      ],
      "name": "addToken",
      "outputs": [],
      "stateMutability": "nonpayable",
      "type": "function"
    },
    {
      "inputs": [
        {
          "internalType": "address",
          "name": "account",
          "type": "address"
        },
        {
          "internalType": "uint256",
          "name": "id",
          "type": "uint256"
        }
      ],
      "name": "balanceOf",
      "outputs": [
        {
          "internalType": "uint256",
          "name": "",
          "type": "uint256"
        }
      ],
      "stateMutability": "view",
      "type": "function"
    },
    {
      "inputs": [
        {
          "internalType": "address[]",
          "name": "accounts",
          "type": "address[]"
        },
        {
          "internalType": "uint256[]",
          "name": "ids",
          "type": "uint256[]"
        }
      ],
      "name": "balanceOfBatch",
      "outputs": [
        {
          "internalType": "uint256[]",
          "name": "",
          "type": "uint256[]"
        }
      ],
      "stateMutability": "view",
      "type": "function"
    },
    {
      "inputs": [],
      "name": "baseURI",
      "outputs": [
        {
          "internalType": "string",
          "name": "",
          "type": "string"
        }
      ],
      "stateMutability": "view",
      "type": "function"
    },
    {
      "inputs": [
        {
          "internalType": "address",
          "name": "from",
          "type": "address"
        },
        {
          "internalType": "uint256[]",
          "name": "ids",
          "type": "uint256[]"
        },
        {
          "internalType": "uint256[]",
          "name": "amounts",
          "type": "uint256[]"
        }
      ],
      "name": "burnBatchFor",
      "outputs": [],
      "stateMutability": "nonpayable",
      "type": "function"
    },
    {
      "inputs": [
        {
          "internalType": "address",
          "name": "to",
          "type": "address"
        },
        {
          "internalType": "uint256",
          "name": "id",
          "type": "uint256"
        }
      ],
      "name": "burnFor",
      "outputs": [],
      "stateMutability": "nonpayable",
      "type": "function"
    },
    {
      "inputs": [
        {
          "internalType": "address",
          "name": "receiver",
          "type": "address"
        },
        {
          "internalType": "address",
          "name": "tokenToPay",
          "type": "address"
        },
        {
          "internalType": "uint256",
          "name": "id",
          "type": "uint256"
        },
        {
          "internalType": "uint256",
          "name": "amount",
          "type": "uint256"
        }
      ],
      "name": "buy",
      "outputs": [],
      "stateMutability": "payable",
      "type": "function"
    },
    {
      "inputs": [
        {
          "internalType": "address",
          "name": "to",
          "type": "address"
        },
        {
          "internalType": "uint256[]",
          "name": "tokensId",
          "type": "uint256[]"
        },
        {
          "internalType": "uint256[]",
          "name": "amounts",
          "type": "uint256[]"
        },
        {
          "internalType": "address",
          "name": "tokenToPay",
          "type": "address"
        }
      ],
      "name": "buyBatch",
      "outputs": [],
      "stateMutability": "payable",
      "type": "function"
    },
    {
      "inputs": [],
      "name": "comicIdCounter",
      "outputs": [
        {
          "internalType": "uint256",
          "name": "",
          "type": "uint256"
        }
      ],
      "stateMutability": "view",
      "type": "function"
    },
    {
      "inputs": [
        {
          "internalType": "uint256",
          "name": "",
          "type": "uint256"
        }
      ],
      "name": "comics",
      "outputs": [
        {
          "internalType": "uint256",
          "name": "comicId",
          "type": "uint256"
        },
        {
          "internalType": "uint256",
          "name": "priceUSD",
          "type": "uint256"
        },
        {
          "internalType": "uint256",
          "name": "limit",
          "type": "uint256"
        },
        {
          "internalType": "bool",
          "name": "exists",
          "type": "bool"
        }
      ],
      "stateMutability": "view",
      "type": "function"
    },
    {
      "inputs": [
        {
          "internalType": "address",
          "name": "",
          "type": "address"
        }
      ],
      "name": "decimalsByToken",
      "outputs": [
        {
          "internalType": "uint256",
          "name": "",
          "type": "uint256"
        }
      ],
      "stateMutability": "view",
      "type": "function"
    },
    {
      "inputs": [],
      "name": "decimalsUSD",
      "outputs": [
        {
          "internalType": "uint256",
          "name": "",
          "type": "uint256"
        }
      ],
      "stateMutability": "view",
      "type": "function"
    },
    {
      "inputs": [
        {
          "internalType": "uint256",
          "name": "id",
          "type": "uint256"
        },
        {
          "internalType": "uint256",
          "name": "comicId",
          "type": "uint256"
        },
        {
          "internalType": "uint256",
          "name": "priceUSD",
          "type": "uint256"
        },
        {
          "internalType": "uint256",
          "name": "limit",
          "type": "uint256"
        }
      ],
      "name": "editComic",
      "outputs": [],
      "stateMutability": "nonpayable",
      "type": "function"
    },
    {
      "inputs": [
        {
          "internalType": "uint256",
          "name": "id",
          "type": "uint256"
        }
      ],
      "name": "exists",
      "outputs": [
        {
          "internalType": "bool",
          "name": "",
          "type": "bool"
        }
      ],
      "stateMutability": "view",
      "type": "function"
    },
    {
      "inputs": [
        {
          "internalType": "uint256",
          "name": "id",
          "type": "uint256"
        }
      ],
      "name": "getComic",
      "outputs": [
        {
          "components": [
            {
              "internalType": "uint256",
              "name": "comicId",
              "type": "uint256"
            },
            {
              "internalType": "uint256",
              "name": "priceUSD",
              "type": "uint256"
            },
            {
              "internalType": "uint256",
              "name": "limit",
              "type": "uint256"
            },
            {
              "internalType": "bool",
              "name": "exists",
              "type": "bool"
            }
          ],
          "internalType": "struct EndersComicsOnlyMultiTokens.Comic",
          "name": "",
          "type": "tuple"
        }
      ],
      "stateMutability": "view",
      "type": "function"
    },
    {
      "inputs": [],
      "name": "getComics",
      "outputs": [
        {
          "components": [
            {
              "internalType": "uint256",
              "name": "comicId",
              "type": "uint256"
            },
            {
              "internalType": "uint256",
              "name": "priceUSD",
              "type": "uint256"
            },
            {
              "internalType": "uint256",
              "name": "limit",
              "type": "uint256"
            },
            {
              "internalType": "bool",
              "name": "exists",
              "type": "bool"
            }
          ],
          "internalType": "struct EndersComicsOnlyMultiTokens.Comic[]",
          "name": "",
          "type": "tuple[]"
        }
      ],
      "stateMutability": "view",
      "type": "function"
    },
    {
      "inputs": [
        {
          "internalType": "address",
          "name": "tokenToGet",
          "type": "address"
        },
        {
          "internalType": "uint256",
          "name": "id",
          "type": "uint256"
        },
        {
          "internalType": "uint256",
          "name": "quantity",
          "type": "uint256"
        }
      ],
      "name": "getPrice",
      "outputs": [
        {
          "internalType": "uint256",
          "name": "",
          "type": "uint256"
        }
      ],
      "stateMutability": "view",
      "type": "function"
    },
    {
      "inputs": [
        {
          "internalType": "bytes32",
          "name": "role",
          "type": "bytes32"
        }
      ],
      "name": "getRoleAdmin",
      "outputs": [
        {
          "internalType": "bytes32",
          "name": "",
          "type": "bytes32"
        }
      ],
      "stateMutability": "view",
      "type": "function"
    },
    {
      "inputs": [
        {
          "internalType": "bytes32",
          "name": "role",
          "type": "bytes32"
        },
        {
          "internalType": "address",
          "name": "account",
          "type": "address"
        }
      ],
      "name": "grantRole",
      "outputs": [],
      "stateMutability": "nonpayable",
      "type": "function"
    },
    {
      "inputs": [
        {
          "internalType": "bytes32",
          "name": "role",
          "type": "bytes32"
        },
        {
          "internalType": "address",
          "name": "account",
          "type": "address"
        }
      ],
      "name": "hasRole",
      "outputs": [
        {
          "internalType": "bool",
          "name": "",
          "type": "bool"
        }
      ],
      "stateMutability": "view",
      "type": "function"
    },
    {
      "inputs": [
        {
          "internalType": "uint256",
          "name": "",
          "type": "uint256"
        }
      ],
      "name": "idToIpfs",
      "outputs": [
        {
          "internalType": "string",
          "name": "",
          "type": "string"
        }
      ],
      "stateMutability": "view",
      "type": "function"
    },
    {
      "inputs": [
        {
          "internalType": "address",
          "name": "account",
          "type": "address"
        },
        {
          "internalType": "address",
          "name": "operator",
          "type": "address"
        }
      ],
      "name": "isApprovedForAll",
      "outputs": [
        {
          "internalType": "bool",
          "name": "",
          "type": "bool"
        }
      ],
      "stateMutability": "view",
      "type": "function"
    },
    {
      "inputs": [
        {
          "internalType": "address",
          "name": "_token",
          "type": "address"
        }
      ],
      "name": "isTokenAllowed",
      "outputs": [
        {
          "internalType": "bool",
          "name": "",
          "type": "bool"
        }
      ],
      "stateMutability": "view",
      "type": "function"
    },
    {
      "inputs": [
        {
          "internalType": "address",
          "name": "_to",
          "type": "address"
        },
        {
          "internalType": "uint256",
          "name": "_optionId",
          "type": "uint256"
        },
        {
          "internalType": "bytes",
          "name": "_data",
          "type": "bytes"
        }
      ],
      "name": "mint",
      "outputs": [],
      "stateMutability": "nonpayable",
      "type": "function"
    },
    {
      "inputs": [
        {
          "internalType": "address",
          "name": "to",
          "type": "address"
        },
        {
          "internalType": "uint256[]",
          "name": "ids",
          "type": "uint256[]"
        },
        {
          "internalType": "uint256[]",
          "name": "amounts",
          "type": "uint256[]"
        },
        {
          "internalType": "bytes",
          "name": "",
          "type": "bytes"
        }
      ],
      "name": "mintBatch",
      "outputs": [],
      "stateMutability": "nonpayable",
      "type": "function"
    },
    {
      "inputs": [],
      "name": "name",
      "outputs": [
        {
          "internalType": "string",
          "name": "",
          "type": "string"
        }
      ],
      "stateMutability": "view",
      "type": "function"
    },
    {
      "inputs": [
        {
          "internalType": "bytes32",
          "name": "role",
          "type": "bytes32"
        },
        {
          "internalType": "address",
          "name": "account",
          "type": "address"
        }
      ],
      "name": "renounceRole",
      "outputs": [],
      "stateMutability": "nonpayable",
      "type": "function"
    },
    {
      "inputs": [
        {
          "internalType": "bytes32",
          "name": "role",
          "type": "bytes32"
        },
        {
          "internalType": "address",
          "name": "account",
          "type": "address"
        }
      ],
      "name": "revokeRole",
      "outputs": [],
      "stateMutability": "nonpayable",
      "type": "function"
    },
    {
      "inputs": [
        {
          "internalType": "address",
          "name": "from",
          "type": "address"
        },
        {
          "internalType": "address",
          "name": "to",
          "type": "address"
        },
        {
          "internalType": "uint256[]",
          "name": "ids",
          "type": "uint256[]"
        },
        {
          "internalType": "uint256[]",
          "name": "amounts",
          "type": "uint256[]"
        },
        {
          "internalType": "bytes",
          "name": "data",
          "type": "bytes"
        }
      ],
      "name": "safeBatchTransferFrom",
      "outputs": [],
      "stateMutability": "nonpayable",
      "type": "function"
    },
    {
      "inputs": [
        {
          "internalType": "address",
          "name": "from",
          "type": "address"
        },
        {
          "internalType": "address",
          "name": "to",
          "type": "address"
        },
        {
          "internalType": "uint256",
          "name": "id",
          "type": "uint256"
        },
        {
          "internalType": "uint256",
          "name": "amount",
          "type": "uint256"
        },
        {
          "internalType": "bytes",
          "name": "data",
          "type": "bytes"
        }
      ],
      "name": "safeTransferFrom",
      "outputs": [],
      "stateMutability": "nonpayable",
      "type": "function"
    },
    {
      "inputs": [
        {
          "internalType": "address",
          "name": "operator",
          "type": "address"
        },
        {
          "internalType": "bool",
          "name": "approved",
          "type": "bool"
        }
      ],
      "name": "setApprovalForAll",
      "outputs": [],
      "stateMutability": "nonpayable",
      "type": "function"
    },
    {
      "inputs": [
        {
          "internalType": "uint256[]",
          "name": "ids",
          "type": "uint256[]"
        },
        {
          "internalType": "string[]",
          "name": "hashes",
          "type": "string[]"
        }
      ],
      "name": "setIpfsHashBatch",
      "outputs": [],
      "stateMutability": "nonpayable",
      "type": "function"
    },
    {
      "inputs": [
        {
          "internalType": "bytes4",
          "name": "interfaceId",
          "type": "bytes4"
        }
      ],
      "name": "supportsInterface",
      "outputs": [
        {
          "internalType": "bool",
          "name": "",
          "type": "bool"
        }
      ],
      "stateMutability": "view",
      "type": "function"
    },
    {
      "inputs": [],
      "name": "symbol",
      "outputs": [
        {
          "internalType": "string",
          "name": "",
          "type": "string"
        }
      ],
      "stateMutability": "view",
      "type": "function"
    },
    {
      "inputs": [
        {
          "internalType": "uint256",
          "name": "id",
          "type": "uint256"
        }
      ],
      "name": "totalSupply",
      "outputs": [
        {
          "internalType": "uint256",
          "name": "",
          "type": "uint256"
        }
      ],
      "stateMutability": "view",
      "type": "function"
    },
    {
      "inputs": [
        {
          "internalType": "uint256",
          "name": "id",
          "type": "uint256"
        }
      ],
      "name": "uri",
      "outputs": [
        {
          "internalType": "string",
          "name": "",
          "type": "string"
        }
      ],
      "stateMutability": "view",
      "type": "function"
    },
    {
      "inputs": [
        {
          "internalType": "uint256",
          "name": "amount",
          "type": "uint256"
        },
        {
          "internalType": "address",
          "name": "token",
          "type": "address"
        },
        {
          "internalType": "address",
          "name": "recipient",
          "type": "address"
        }
      ],
      "name": "withdraw",
      "outputs": [],
      "stateMutability": "nonpayable",
      "type": "function"
    }
  ],
  "bytecode": "0x608060405260066007553480156200001657600080fd5b50604051620042d3380380620042d3833981016040819052620000399162000291565b604080516020810190915260008152620000538162000116565b506001600455600a6200006783826200038a565b50600b6200007682826200038a565b50600060088190556200008a903362000128565b620000b67fc57889f90abbcde0d0182fe0074dcc50c2fb7a21d3d7c4f24a6c50b6c06dc8333362000128565b620000e27fbc1f3f7c406085be62d227092f4fd5af86922a19f3a87e6199f14015341eb9d93362000128565b6200010e7f7804d923f43a17d325d77e781528e0793b2edd9890ab45fc64efd7b4b427744c3362000128565b505062000456565b60026200012482826200038a565b5050565b60008281526005602090815260408083206001600160a01b038516845290915290205460ff16620001245760008281526005602090815260408083206001600160a01b03851684529091529020805460ff19166001179055620001883390565b6001600160a01b0316816001600160a01b0316837f2f8788117e7eff1d82e926ec794901d17c78024a50270940304540a733656f0d60405160405180910390a45050565b634e487b7160e01b600052604160045260246000fd5b600082601f830112620001f457600080fd5b81516001600160401b0380821115620002115762000211620001cc565b604051601f8301601f19908116603f011681019082821181831017156200023c576200023c620001cc565b816040528381526020925086838588010111156200025957600080fd5b600091505b838210156200027d57858201830151818301840152908201906200025e565b600093810190920192909252949350505050565b60008060408385031215620002a557600080fd5b82516001600160401b0380821115620002bd57600080fd5b620002cb86838701620001e2565b93506020850151915080821115620002e257600080fd5b50620002f185828601620001e2565b9150509250929050565b600181811c908216806200031057607f821691505b6020821081036200033157634e487b7160e01b600052602260045260246000fd5b50919050565b601f8211156200038557600081815260208120601f850160051c81016020861015620003605750805b601f850160051c820191505b8181101562000381578281556001016200036c565b5050505b505050565b81516001600160401b03811115620003a657620003a6620001cc565b620003be81620003b78454620002fb565b8462000337565b602080601f831160018114620003f65760008415620003dd5750858301515b600019600386901b1c1916600185901b17855562000381565b600085815260208120601f198616915b82811015620004275788860151825594840194600190910190840162000406565b5085821015620004465787850151600019600388901b60f8161c191681555b5050505050600190811b01905550565b613e6d80620004666000396000f3fe6080604052600436106102cd5760003560e01c80637f34571011610179578063a9d424e2116100d6578063d547741f1161008a578063eac1b7d811610064578063eac1b7d8146108a1578063f242432a146108d5578063f9eaee0d146108f557600080fd5b8063d547741f14610822578063e4ad405814610842578063e985e9c51461085857600080fd5b8063b460af94116100bb578063b460af94146107b3578063b65b4ad1146107d3578063bd85b039146107f557600080fd5b8063a9d424e214610780578063af81c5b91461079357600080fd5b806395d89b411161012d5780639c653e34116101125780639c653e3414610738578063a217fddf1461074b578063a22cb4651461076057600080fd5b806395d89b4114610703578063965c0d7f1461071857600080fd5b80638e7827231161015e5780638e7827231461067057806391d148541461069d57806394d008ef146106e357600080fd5b80637f3457101461061c578063885c2f351461065057600080fd5b80632eb2c2d6116102325780634f558e79116101e65780636c0360eb116101c05780636c0360eb1461056c5780637a80dc1d146105815780637bc8e14c146105e857600080fd5b80634f558e79146104fd57806350751d9d1461052c5780635728f7981461054c57600080fd5b806336568abe1161021757806336568abe1461048357806347ac33ee146104a35780634e1273f4146104d057600080fd5b80632eb2c2d6146104435780632f2ff15d1461046357600080fd5b80630a33d9ca116102895780631dd319cb1161026e5780631dd319cb146103d35780631f7fdffa146103f3578063248a9ca31461041357600080fd5b80630a33d9ca1461039d5780630e89341c146103b357600080fd5b8062fdd58e116102b8578062fdd58e1461032a57806301ffc9a71461035857806306fdde031461038857600080fd5b8062d27655146102d2578062f86f4814610308575b600080fd5b3480156102de57600080fd5b506102f26102ed366004612eda565b610915565b6040516102ff9190612f43565b60405180910390f35b34801561031457600080fd5b50610328610323366004612f56565b6109af565b005b34801561033657600080fd5b5061034a610345366004612fa4565b6109fa565b6040519081526020016102ff565b34801561036457600080fd5b50610378610373366004612fe4565b610aa6565b60405190151581526020016102ff565b34801561039457600080fd5b506102f2610ab1565b3480156103a957600080fd5b5061034a60085481565b3480156103bf57600080fd5b506102f26103ce366004612eda565b610abe565b3480156103df57600080fd5b506103286103ee366004612fa4565b610b62565b3480156103ff57600080fd5b5061032861040e36600461308f565b610b9d565b34801561041f57600080fd5b5061034a61042e366004612eda565b60009081526005602052604090206001015490565b34801561044f57600080fd5b5061032861045e366004613290565b610c4d565b34801561046f57600080fd5b5061032861047e36600461333a565b610cef565b34801561048f57600080fd5b5061032861049e36600461333a565b610d14565b3480156104af57600080fd5b506104c36104be366004612eda565b610da0565b6040516102ff9190613366565b3480156104dc57600080fd5b506104f06104eb366004613393565b610e17565b6040516102ff9190613499565b34801561050957600080fd5b50610378610518366004612eda565b600090815260036020526040902054151590565b34801561053857600080fd5b506103286105473660046134ac565b610f55565b34801561055857600080fd5b5061034a6105673660046135a1565b61101a565b34801561057857600080fd5b506102f26110cf565b34801561058d57600080fd5b506105c661059c366004612eda565b60066020526000908152604090208054600182015460028301546003909301549192909160ff1684565b60408051948552602085019390935291830152151560608201526080016102ff565b3480156105f457600080fd5b5061034a7fbc1f3f7c406085be62d227092f4fd5af86922a19f3a87e6199f14015341eb9d981565b34801561062857600080fd5b5061034a7f7804d923f43a17d325d77e781528e0793b2edd9890ab45fc64efd7b4b427744c81565b34801561065c57600080fd5b5061032861066b3660046135d4565b6110dc565b34801561067c57600080fd5b5061034a61068b366004613655565b60096020526000908152604090205481565b3480156106a957600080fd5b506103786106b836600461333a565b60009182526005602090815260408084206001600160a01b0393909316845291905290205460ff1690565b3480156106ef57600080fd5b506103286106fe366004613670565b61117c565b34801561070f57600080fd5b506102f26111e9565b34801561072457600080fd5b506103286107333660046136ca565b6111f6565b6103286107463660046136ec565b611293565b34801561075757600080fd5b5061034a600081565b34801561076c57600080fd5b5061032861077b36600461377f565b611366565b61032861078e3660046137b6565b611371565b34801561079f57600080fd5b506103286107ae366004612fa4565b6116f3565b3480156107bf57600080fd5b506103286107ce3660046137f8565b61173a565b3480156107df57600080fd5b506107e86117ff565b6040516102ff9190613834565b34801561080157600080fd5b5061034a610810366004612eda565b60009081526003602052604090205490565b34801561082e57600080fd5b5061032861083d36600461333a565b611910565b34801561084e57600080fd5b5061034a60075481565b34801561086457600080fd5b506103786108733660046138a5565b6001600160a01b03918216600090815260016020908152604080832093909416825291909152205460ff1690565b3480156108ad57600080fd5b5061034a7fc57889f90abbcde0d0182fe0074dcc50c2fb7a21d3d7c4f24a6c50b6c06dc83381565b3480156108e157600080fd5b506103286108f03660046138cf565b611935565b34801561090157600080fd5b50610378610910366004613655565b6119d0565b600d602052600090815260409020805461092e90613934565b80601f016020809104026020016040519081016040528092919081815260200182805461095a90613934565b80156109a75780601f1061097c576101008083540402835291602001916109a7565b820191906000526020600020905b81548152906001019060200180831161098a57829003601f168201915b505050505081565b7fc57889f90abbcde0d0182fe0074dcc50c2fb7a21d3d7c4f24a6c50b6c06dc8336109d9816119fc565b50600093845260066020526040909320600181019190915590815560020155565b60006001600160a01b038316610a7d5760405162461bcd60e51b815260206004820152602a60248201527f455243313135353a2061646472657373207a65726f206973206e6f742061207660448201527f616c6964206f776e65720000000000000000000000000000000000000000000060648201526084015b60405180910390fd5b506000818152602081815260408083206001600160a01b03861684529091529020545b92915050565b6000610aa082611a09565b600a805461092e90613934565b6000818152600d6020526040812080546060929190610adc90613934565b80601f0160208091040260200160405190810160405280929190818152602001828054610b0890613934565b8015610b555780601f10610b2a57610100808354040283529160200191610b55565b820191906000526020600020905b815481529060010190602001808311610b3857829003601f168201915b5093979650505050505050565b7fbc1f3f7c406085be62d227092f4fd5af86922a19f3a87e6199f14015341eb9d9610b8c816119fc565b610b9883836001611a47565b505050565b7fbc1f3f7c406085be62d227092f4fd5af86922a19f3a87e6199f14015341eb9d9610bc7816119fc565b610c438888888080602002602001604051908101604052809392919081815260200183836020028082843760009201919091525050604080516020808c0282810182019093528b82529093508b92508a918291850190849080828437600092018290525060408051602081019091529081529250611bdc915050565b5050505050505050565b6001600160a01b038516331480610c695750610c698533610873565b610cdb5760405162461bcd60e51b815260206004820152602e60248201527f455243313135353a2063616c6c6572206973206e6f7420746f6b656e206f776e60448201527f6572206f7220617070726f7665640000000000000000000000000000000000006064820152608401610a74565b610ce88585858585611db1565b5050505050565b600082815260056020526040902060010154610d0a816119fc565b610b988383612015565b6001600160a01b0381163314610d925760405162461bcd60e51b815260206004820152602f60248201527f416363657373436f6e74726f6c3a2063616e206f6e6c792072656e6f756e636560448201527f20726f6c657320666f722073656c6600000000000000000000000000000000006064820152608401610a74565b610d9c82826120b7565b5050565b610dcd60405180608001604052806000815260200160008152602001600081526020016000151581525090565b5060009081526006602090815260409182902082516080810184528154815260018201549281019290925260028101549282019290925260039091015460ff161515606082015290565b60608151835114610e905760405162461bcd60e51b815260206004820152602960248201527f455243313135353a206163636f756e747320616e6420696473206c656e67746860448201527f206d69736d6174636800000000000000000000000000000000000000000000006064820152608401610a74565b6000835167ffffffffffffffff811115610eac57610eac61313a565b604051908082528060200260200182016040528015610ed5578160200160208202803683370190505b50905060005b8451811015610f4d57610f20858281518110610ef957610ef9613968565b6020026020010151858381518110610f1357610f13613968565b60200260200101516109fa565b828281518110610f3257610f32613968565b6020908102919091010152610f4681613994565b9050610edb565b509392505050565b7f7804d923f43a17d325d77e781528e0793b2edd9890ab45fc64efd7b4b427744c610f7f816119fc565b60005b8351811015611014576000838281518110610f9f57610f9f613968565b602002602001015151111561100257828181518110610fc057610fc0613968565b6020026020010151600d6000868481518110610fde57610fde613968565b60200260200101518152602001908152602001600020908161100091906139f3565b505b8061100c81613994565b915050610f82565b50505050565b6000828152600660205260408120600381015460ff1661107c5760405162461bcd60e51b815260206004820152601e60248201527f436c6f636b53616c653a544f4b454e5f444f45535f4e4f545f455849535400006044820152606401610a74565b6007546001600160a01b0386166000908152600960205260409020546110a29190613ab3565b6110ad90600a613baa565b60018201546110bc9085613bb6565b6110c69190613bb6565b95945050505050565b600c805461092e90613934565b7fbc1f3f7c406085be62d227092f4fd5af86922a19f3a87e6199f14015341eb9d9611106816119fc565b6111748686868080602002602001604051908101604052809392919081815260200183836020028082843760009201919091525050604080516020808a0282810182019093528982529093508992508891829185019084908082843760009201919091525061213a92505050565b505050505050565b7fbc1f3f7c406085be62d227092f4fd5af86922a19f3a87e6199f14015341eb9d96111a6816119fc565b610ce88585600186868080601f01602080910402602001604051908101604052809392919081815260200183838082843760009201919091525061238f92505050565b600b805461092e90613934565b7fc57889f90abbcde0d0182fe0074dcc50c2fb7a21d3d7c4f24a6c50b6c06dc833611220816119fc565b600060085460016112319190613bcd565b600081815260066020526040902060018101869055818155600281018590556003015490915060ff16611014576000818152600660205260408120600301805460ff19166001179055600880549161128883613994565b919050555050505050565b815183511461130a5760405162461bcd60e51b815260206004820152602f60248201527f4172726179204c656e677468206d757374206265207468652073616d65206f6660448201527f20616d6f756e7420616e642049647300000000000000000000000000000000006064820152608401610a74565b60005b8351811015610ce857611354858386848151811061132d5761132d613968565b602002602001015186858151811061134757611347613968565b6020026020010151611371565b8061135e81613994565b91505061130d565b610d9c3383836124a9565b60008281526006602090815260408083205483526003909152902054611398908290613bcd565b60008381526006602052604090206002015410156113f85760405162461bcd60e51b815260206004820152601c60248201527f4c696d697420616d6f756e74206f66204e4654732072656163686564000000006044820152606401610a74565b600061140584848461101a565b60008481526006602052604090206003015490915060ff166114695760405162461bcd60e51b815260206004820152601860248201527f5468697320746f6b656e20646f65736e277420657869737400000000000000006044820152606401610a74565b611472846119d0565b6114be5760405162461bcd60e51b815260206004820152601b60248201527f544f4b454e20544f20504159204953204e4f5420414c4c4f57454400000000006044820152606401610a74565b806001600160a01b0385166370a08231336040516001600160e01b031960e084901b1681526001600160a01b039091166004820152602401602060405180830381865afa158015611513573d6000803e3d6000fd5b505050506040513d601f19601f820116820180604052508101906115379190613be0565b116115845760405162461bcd60e51b815260206004820152601360248201527f494e535546494349454e542042414c414e4345000000000000000000000000006044820152606401610a74565b806001600160a01b03851663dd62ed3e336040516001600160e01b031960e084901b1681526001600160a01b039091166004820152306024820152604401602060405180830381865afa1580156115df573d6000803e3d6000fd5b505050506040513d601f19601f820116820180604052508101906116039190613be0565b116116505760405162461bcd60e51b815260206004820152601560248201527f494e535546494349454e5420414c4c4f57414e434500000000000000000000006044820152606401610a74565b6001600160a01b0384166323b872dd336040516001600160e01b031960e084901b1681526001600160a01b039091166004820152306024820152604481018490526064016020604051808303816000875af11580156116b3573d6000803e3d6000fd5b505050506040513d601f19601f820116820180604052508101906116d79190613bf9565b50610ce88584846040518060200160405280600081525061238f565b7fbc1f3f7c406085be62d227092f4fd5af86922a19f3a87e6199f14015341eb9d961171d816119fc565b506001600160a01b03909116600090815260096020526040902055565b7f7804d923f43a17d325d77e781528e0793b2edd9890ab45fc64efd7b4b427744c611764816119fc565b6001600160a01b03831615611014576040517fa9059cbb0000000000000000000000000000000000000000000000000000000081526001600160a01b0383811660048301526024820186905284169063a9059cbb906044016020604051808303816000875af11580156117db573d6000803e3d6000fd5b505050506040513d601f19601f82011682018060405250810190610ce89190613bf9565b6060600060085467ffffffffffffffff81111561181e5761181e61313a565b60405190808252806020026020018201604052801561187c57816020015b61186960405180608001604052806000815260200160008152602001600081526020016000151581525090565b81526020019060019003908161183c5790505b50905060015b600854811161190a57600081815260066020908152604091829020825160808101845281548152600180830154938201939093526002820154938101939093526003015460ff161515606083015283906118dc9084613ab3565b815181106118ec576118ec613968565b6020026020010181905250808061190290613994565b915050611882565b50919050565b60008281526005602052604090206001015461192b816119fc565b610b9883836120b7565b6001600160a01b03851633148061195157506119518533610873565b6119c35760405162461bcd60e51b815260206004820152602e60248201527f455243313135353a2063616c6c6572206973206e6f7420746f6b656e206f776e60448201527f6572206f7220617070726f7665640000000000000000000000000000000000006064820152608401610a74565b610ce8858585858561259d565b6001600160a01b0381166000908152600960205260408120546119f4576000610aa0565b600192915050565b611a068133612756565b50565b60006001600160e01b031982167f7965db0b000000000000000000000000000000000000000000000000000000001480610aa05750610aa0826127cb565b6001600160a01b038316611aa95760405162461bcd60e51b815260206004820152602360248201527f455243313135353a206275726e2066726f6d20746865207a65726f206164647260448201526265737360e81b6064820152608401610a74565b336000611ab584612866565b90506000611ac284612866565b9050611ae2838760008585604051806020016040528060008152506128b1565b6000858152602081815260408083206001600160a01b038a16845290915290205484811015611b5f5760405162461bcd60e51b8152602060048201526024808201527f455243313135353a206275726e20616d6f756e7420657863656564732062616c604482015263616e636560e01b6064820152608401610a74565b6000868152602081815260408083206001600160a01b038b81168086529184528285208a8703905582518b81529384018a90529092908816917fc3d58168c5ae7397731d063d5bbf3d657854427343f4c083240f7aacaa2d0f62910160405180910390a46040805160208101909152600090525b50505050505050565b6001600160a01b038416611c3c5760405162461bcd60e51b815260206004820152602160248201527f455243313135353a206d696e7420746f20746865207a65726f206164647265736044820152607360f81b6064820152608401610a74565b8151835114611c9e5760405162461bcd60e51b815260206004820152602860248201527f455243313135353a2069647320616e6420616d6f756e7473206c656e677468206044820152670dad2e6dac2e8c6d60c31b6064820152608401610a74565b33611cae816000878787876128b1565b60005b8451811015611d4957838181518110611ccc57611ccc613968565b6020026020010151600080878481518110611ce957611ce9613968565b602002602001015181526020019081526020016000206000886001600160a01b03166001600160a01b031681526020019081526020016000206000828254611d319190613bcd565b90915550819050611d4181613994565b915050611cb1565b50846001600160a01b031660006001600160a01b0316826001600160a01b03167f4a39dc06d4c0dbc64b70af90fd698a233a518aa5d07e595d983b8c0526c8f7fb8787604051611d9a929190613c16565b60405180910390a4610ce881600087878787612a3f565b8151835114611e135760405162461bcd60e51b815260206004820152602860248201527f455243313135353a2069647320616e6420616d6f756e7473206c656e677468206044820152670dad2e6dac2e8c6d60c31b6064820152608401610a74565b6001600160a01b038416611e775760405162461bcd60e51b815260206004820152602560248201527f455243313135353a207472616e7366657220746f20746865207a65726f206164604482015264647265737360d81b6064820152608401610a74565b33611e868187878787876128b1565b60005b8451811015611faf576000858281518110611ea657611ea6613968565b602002602001015190506000858381518110611ec457611ec4613968565b602090810291909101810151600084815280835260408082206001600160a01b038e168352909352919091205490915081811015611f575760405162461bcd60e51b815260206004820152602a60248201527f455243313135353a20696e73756666696369656e742062616c616e636520666f60448201526939103a3930b739b332b960b11b6064820152608401610a74565b6000838152602081815260408083206001600160a01b038e8116855292528083208585039055908b16825281208054849290611f94908490613bcd565b9250508190555050505080611fa890613994565b9050611e89565b50846001600160a01b0316866001600160a01b0316826001600160a01b03167f4a39dc06d4c0dbc64b70af90fd698a233a518aa5d07e595d983b8c0526c8f7fb8787604051611fff929190613c16565b60405180910390a4611174818787878787612a3f565b60008281526005602090815260408083206001600160a01b038516845290915290205460ff16610d9c5760008281526005602090815260408083206001600160a01b03851684529091529020805460ff191660011790556120733390565b6001600160a01b0316816001600160a01b0316837f2f8788117e7eff1d82e926ec794901d17c78024a50270940304540a733656f0d60405160405180910390a45050565b60008281526005602090815260408083206001600160a01b038516845290915290205460ff1615610d9c5760008281526005602090815260408083206001600160a01b0385168085529252808320805460ff1916905551339285917ff6391f5c32d9c69d2a47ea670b442974b53935d1edc7fd64eb21e047a839171b9190a45050565b6001600160a01b03831661219c5760405162461bcd60e51b815260206004820152602360248201527f455243313135353a206275726e2066726f6d20746865207a65726f206164647260448201526265737360e81b6064820152608401610a74565b80518251146121fe5760405162461bcd60e51b815260206004820152602860248201527f455243313135353a2069647320616e6420616d6f756e7473206c656e677468206044820152670dad2e6dac2e8c6d60c31b6064820152608401610a74565b6000339050612221818560008686604051806020016040528060008152506128b1565b60005b835181101561232257600084828151811061224157612241613968565b60200260200101519050600084838151811061225f5761225f613968565b602090810291909101810151600084815280835260408082206001600160a01b038c1683529093529190912054909150818110156122eb5760405162461bcd60e51b8152602060048201526024808201527f455243313135353a206275726e20616d6f756e7420657863656564732062616c604482015263616e636560e01b6064820152608401610a74565b6000928352602083815260408085206001600160a01b038b168652909152909220910390558061231a81613994565b915050612224565b5060006001600160a01b0316846001600160a01b0316826001600160a01b03167f4a39dc06d4c0dbc64b70af90fd698a233a518aa5d07e595d983b8c0526c8f7fb8686604051612373929190613c16565b60405180910390a4604080516020810190915260009052611014565b6001600160a01b0384166123ef5760405162461bcd60e51b815260206004820152602160248201527f455243313135353a206d696e7420746f20746865207a65726f206164647265736044820152607360f81b6064820152608401610a74565b3360006123fb85612866565b9050600061240885612866565b9050612419836000898585896128b1565b6000868152602081815260408083206001600160a01b038b16845290915281208054879290612449908490613bcd565b909155505060408051878152602081018790526001600160a01b03808a1692600092918716917fc3d58168c5ae7397731d063d5bbf3d657854427343f4c083240f7aacaa2d0f62910160405180910390a4611bd383600089898989612be4565b816001600160a01b0316836001600160a01b0316036125305760405162461bcd60e51b815260206004820152602960248201527f455243313135353a2073657474696e6720617070726f76616c2073746174757360448201527f20666f722073656c6600000000000000000000000000000000000000000000006064820152608401610a74565b6001600160a01b03838116600081815260016020908152604080832094871680845294825291829020805460ff191686151590811790915591519182527f17307eab39ab6107e8899845ad3d59bd9653f200f220920489ca2b5937696c31910160405180910390a3505050565b6001600160a01b0384166126015760405162461bcd60e51b815260206004820152602560248201527f455243313135353a207472616e7366657220746f20746865207a65726f206164604482015264647265737360d81b6064820152608401610a74565b33600061260d85612866565b9050600061261a85612866565b905061262a8389898585896128b1565b6000868152602081815260408083206001600160a01b038c168452909152902054858110156126ae5760405162461bcd60e51b815260206004820152602a60248201527f455243313135353a20696e73756666696369656e742062616c616e636520666f60448201526939103a3930b739b332b960b11b6064820152608401610a74565b6000878152602081815260408083206001600160a01b038d8116855292528083208985039055908a168252812080548892906126eb908490613bcd565b909155505060408051888152602081018890526001600160a01b03808b16928c821692918816917fc3d58168c5ae7397731d063d5bbf3d657854427343f4c083240f7aacaa2d0f62910160405180910390a461274b848a8a8a8a8a612be4565b505050505050505050565b60008281526005602090815260408083206001600160a01b038516845290915290205460ff16610d9c5761278981612ce0565b612794836020612cf2565b6040516020016127a5929190613c3b565b60408051601f198184030181529082905262461bcd60e51b8252610a7491600401612f43565b60006001600160e01b031982167fd9b67a2600000000000000000000000000000000000000000000000000000000148061282e57506001600160e01b031982167f0e89341c00000000000000000000000000000000000000000000000000000000145b80610aa057507f01ffc9a7000000000000000000000000000000000000000000000000000000006001600160e01b0319831614610aa0565b604080516001808252818301909252606091600091906020808301908036833701905050905082816000815181106128a0576128a0613968565b602090810291909101015292915050565b6001600160a01b0385166129385760005b8351811015612936578281815181106128dd576128dd613968565b6020026020010151600360008684815181106128fb576128fb613968565b6020026020010151815260200190815260200160002060008282546129209190613bcd565b9091555061292f905081613994565b90506128c2565b505b6001600160a01b0384166111745760005b8351811015611bd357600084828151811061296657612966613968565b60200260200101519050600084838151811061298457612984613968565b6020026020010151905060006003600084815260200190815260200160002054905081811015612a1c5760405162461bcd60e51b815260206004820152602860248201527f455243313135353a206275726e20616d6f756e74206578636565647320746f7460448201527f616c537570706c790000000000000000000000000000000000000000000000006064820152608401610a74565b60009283526003602052604090922091039055612a3881613994565b9050612949565b6001600160a01b0384163b156111745760405163bc197c8160e01b81526001600160a01b0385169063bc197c8190612a839089908990889088908890600401613cbc565b6020604051808303816000875af1925050508015612abe575060408051601f3d908101601f19168201909252612abb91810190613d1a565b60015b612b7357612aca613d37565b806308c379a003612b035750612ade613d53565b80612ae95750612b05565b8060405162461bcd60e51b8152600401610a749190612f43565b505b60405162461bcd60e51b815260206004820152603460248201527f455243313135353a207472616e7366657220746f206e6f6e2d4552433131353560448201527f526563656976657220696d706c656d656e7465720000000000000000000000006064820152608401610a74565b6001600160e01b0319811663bc197c8160e01b14611bd35760405162461bcd60e51b815260206004820152602860248201527f455243313135353a204552433131353552656365697665722072656a656374656044820152676420746f6b656e7360c01b6064820152608401610a74565b6001600160a01b0384163b156111745760405163f23a6e6160e01b81526001600160a01b0385169063f23a6e6190612c289089908990889088908890600401613ddd565b6020604051808303816000875af1925050508015612c63575060408051601f3d908101601f19168201909252612c6091810190613d1a565b60015b612c6f57612aca613d37565b6001600160e01b0319811663f23a6e6160e01b14611bd35760405162461bcd60e51b815260206004820152602860248201527f455243313135353a204552433131353552656365697665722072656a656374656044820152676420746f6b656e7360c01b6064820152608401610a74565b6060610aa06001600160a01b03831660145b60606000612d01836002613bb6565b612d0c906002613bcd565b67ffffffffffffffff811115612d2457612d2461313a565b6040519080825280601f01601f191660200182016040528015612d4e576020820181803683370190505b5090507f300000000000000000000000000000000000000000000000000000000000000081600081518110612d8557612d85613968565b60200101906001600160f81b031916908160001a9053507f780000000000000000000000000000000000000000000000000000000000000081600181518110612dd057612dd0613968565b60200101906001600160f81b031916908160001a9053506000612df4846002613bb6565b612dff906001613bcd565b90505b6001811115612e84577f303132333435363738396162636465660000000000000000000000000000000085600f1660108110612e4057612e40613968565b1a60f81b828281518110612e5657612e56613968565b60200101906001600160f81b031916908160001a90535060049490941c93612e7d81613e20565b9050612e02565b508315612ed35760405162461bcd60e51b815260206004820181905260248201527f537472696e67733a20686578206c656e67746820696e73756666696369656e746044820152606401610a74565b9392505050565b600060208284031215612eec57600080fd5b5035919050565b60005b83811015612f0e578181015183820152602001612ef6565b50506000910152565b60008151808452612f2f816020860160208601612ef3565b601f01601f19169290920160200192915050565b602081526000612ed36020830184612f17565b60008060008060808587031215612f6c57600080fd5b5050823594602084013594506040840135936060013592509050565b80356001600160a01b0381168114612f9f57600080fd5b919050565b60008060408385031215612fb757600080fd5b612fc083612f88565b946020939093013593505050565b6001600160e01b031981168114611a0657600080fd5b600060208284031215612ff657600080fd5b8135612ed381612fce565b60008083601f84011261301357600080fd5b50813567ffffffffffffffff81111561302b57600080fd5b6020830191508360208260051b850101111561304657600080fd5b9250929050565b60008083601f84011261305f57600080fd5b50813567ffffffffffffffff81111561307757600080fd5b60208301915083602082850101111561304657600080fd5b60008060008060008060006080888a0312156130aa57600080fd5b6130b388612f88565b9650602088013567ffffffffffffffff808211156130d057600080fd5b6130dc8b838c01613001565b909850965060408a01359150808211156130f557600080fd5b6131018b838c01613001565b909650945060608a013591508082111561311a57600080fd5b506131278a828b0161304d565b989b979a50959850939692959293505050565b634e487b7160e01b600052604160045260246000fd5b601f8201601f1916810167ffffffffffffffff811182821017156131765761317661313a565b6040525050565b600067ffffffffffffffff8211156131975761319761313a565b5060051b60200190565b600082601f8301126131b257600080fd5b813560206131bf8261317d565b6040516131cc8282613150565b83815260059390931b85018201928281019150868411156131ec57600080fd5b8286015b8481101561320757803583529183019183016131f0565b509695505050505050565b600067ffffffffffffffff83111561322c5761322c61313a565b604051613243601f8501601f191660200182613150565b80915083815284848401111561325857600080fd5b83836020830137600060208583010152509392505050565b600082601f83011261328157600080fd5b612ed383833560208501613212565b600080600080600060a086880312156132a857600080fd5b6132b186612f88565b94506132bf60208701612f88565b9350604086013567ffffffffffffffff808211156132dc57600080fd5b6132e889838a016131a1565b945060608801359150808211156132fe57600080fd5b61330a89838a016131a1565b9350608088013591508082111561332057600080fd5b5061332d88828901613270565b9150509295509295909350565b6000806040838503121561334d57600080fd5b8235915061335d60208401612f88565b90509250929050565b81518152602080830151908201526040808301519082015260608083015115159082015260808101610aa0565b600080604083850312156133a657600080fd5b823567ffffffffffffffff808211156133be57600080fd5b818501915085601f8301126133d257600080fd5b813560206133df8261317d565b6040516133ec8282613150565b83815260059390931b850182019282810191508984111561340c57600080fd5b948201945b838610156134315761342286612f88565b82529482019490820190613411565b9650508601359250508082111561344757600080fd5b50613454858286016131a1565b9150509250929050565b600081518084526020808501945080840160005b8381101561348e57815187529582019590820190600101613472565b509495945050505050565b602081526000612ed3602083018461345e565b60008060408084860312156134c057600080fd5b833567ffffffffffffffff808211156134d857600080fd5b6134e4878388016131a1565b94506020915081860135818111156134fb57600080fd5b8601601f8101881361350c57600080fd5b80356135178161317d565b85516135238282613150565b82815260059290921b830185019185810191508a83111561354357600080fd5b8584015b8381101561358f5780358681111561355f5760008081fd5b8501603f81018d136135715760008081fd5b6135818d898301358b8401613212565b845250918601918601613547565b50809750505050505050509250929050565b6000806000606084860312156135b657600080fd5b6135bf84612f88565b95602085013595506040909401359392505050565b6000806000806000606086880312156135ec57600080fd5b6135f586612f88565b9450602086013567ffffffffffffffff8082111561361257600080fd5b61361e89838a01613001565b9096509450604088013591508082111561363757600080fd5b5061364488828901613001565b969995985093965092949392505050565b60006020828403121561366757600080fd5b612ed382612f88565b6000806000806060858703121561368657600080fd5b61368f85612f88565b935060208501359250604085013567ffffffffffffffff8111156136b257600080fd5b6136be8782880161304d565b95989497509550505050565b600080604083850312156136dd57600080fd5b50508035926020909101359150565b6000806000806080858703121561370257600080fd5b61370b85612f88565b9350602085013567ffffffffffffffff8082111561372857600080fd5b613734888389016131a1565b9450604087013591508082111561374a57600080fd5b50613757878288016131a1565b92505061376660608601612f88565b905092959194509250565b8015158114611a0657600080fd5b6000806040838503121561379257600080fd5b61379b83612f88565b915060208301356137ab81613771565b809150509250929050565b600080600080608085870312156137cc57600080fd5b6137d585612f88565b93506137e360208601612f88565b93969395505050506040820135916060013590565b60008060006060848603121561380d57600080fd5b8335925061381d60208501612f88565b915061382b60408501612f88565b90509250925092565b6020808252825182820181905260009190848201906040850190845b81811015613899576138868385518051825260208101516020830152604081015160408301526060810151151560608301525050565b9284019260809290920191600101613850565b50909695505050505050565b600080604083850312156138b857600080fd5b6138c183612f88565b915061335d60208401612f88565b600080600080600060a086880312156138e757600080fd5b6138f086612f88565b94506138fe60208701612f88565b93506040860135925060608601359150608086013567ffffffffffffffff81111561392857600080fd5b61332d88828901613270565b600181811c9082168061394857607f821691505b60208210810361190a57634e487b7160e01b600052602260045260246000fd5b634e487b7160e01b600052603260045260246000fd5b634e487b7160e01b600052601160045260246000fd5b6000600182016139a6576139a661397e565b5060010190565b601f821115610b9857600081815260208120601f850160051c810160208610156139d45750805b601f850160051c820191505b81811015611174578281556001016139e0565b815167ffffffffffffffff811115613a0d57613a0d61313a565b613a2181613a1b8454613934565b846139ad565b602080601f831160018114613a565760008415613a3e5750858301515b600019600386901b1c1916600185901b178555611174565b600085815260208120601f198616915b82811015613a8557888601518255948401946001909101908401613a66565b5085821015613aa35787850151600019600388901b60f8161c191681555b5050505050600190811b01905550565b81810381811115610aa057610aa061397e565b600181815b80851115613b01578160001904821115613ae757613ae761397e565b80851615613af457918102915b93841c9390800290613acb565b509250929050565b600082613b1857506001610aa0565b81613b2557506000610aa0565b8160018114613b3b5760028114613b4557613b61565b6001915050610aa0565b60ff841115613b5657613b5661397e565b50506001821b610aa0565b5060208310610133831016604e8410600b8410161715613b84575081810a610aa0565b613b8e8383613ac6565b8060001904821115613ba257613ba261397e565b029392505050565b6000612ed38383613b09565b8082028115828204841417610aa057610aa061397e565b80820180821115610aa057610aa061397e565b600060208284031215613bf257600080fd5b5051919050565b600060208284031215613c0b57600080fd5b8151612ed381613771565b604081526000613c29604083018561345e565b82810360208401526110c6818561345e565b7f416363657373436f6e74726f6c3a206163636f756e7420000000000000000000815260008351613c73816017850160208801612ef3565b7f206973206d697373696e6720726f6c65200000000000000000000000000000006017918401918201528351613cb0816028840160208801612ef3565b01602801949350505050565b60006001600160a01b03808816835280871660208401525060a06040830152613ce860a083018661345e565b8281036060840152613cfa818661345e565b90508281036080840152613d0e8185612f17565b98975050505050505050565b600060208284031215613d2c57600080fd5b8151612ed381612fce565b600060033d1115613d505760046000803e5060005160e01c5b90565b600060443d1015613d615790565b6040516003193d81016004833e81513d67ffffffffffffffff8160248401118184111715613d9157505050505090565b8285019150815181811115613da95750505050505090565b843d8701016020828501011115613dc35750505050505090565b613dd260208286010187613150565b509095945050505050565b60006001600160a01b03808816835280871660208401525084604083015283606083015260a06080830152613e1560a0830184612f17565b979650505050505050565b600081613e2f57613e2f61397e565b50600019019056fea2646970667358221220e6bd5f15d4b67376f5e7432c373155228ce13a06cda6dd6e5b72ff9b05eb897064736f6c63430008110033",
  "linkReferences": {},
  "deployedLinkReferences": {}
}