{
  "_format": "hh-sol-artifact-1",
  "contractName": "EndersGate",
  "sourceName": "contracts/EndersGate.sol",
  "abi": [
    {
      "inputs": [
        {
          "internalType": "string",
          "name": "_name",
          "type": "string"
        },
        {
          "internalType": "string",
          "name": "_symbol",
          "type": "string"
        },
        {
          "internalType": "string",
          "name": "_contractURI",
          "type": "string"
        },
        {
          "internalType": "string",
          "name": "_tokenURIPrefix",
          "type": "string"
        },
        {
          "components": [
            {
              "internalType": "address",
              "name": "receiver",
              "type": "address"
            },
            {
              "internalType": "uint96",
              "name": "feeNumerator",
              "type": "uint96"
            }
          ],
          "internalType": "struct EndersGate.SetRoyalty",
          "name": "setRoyaltyInfo",
          "type": "tuple"
        }
      ],
      "stateMutability": "nonpayable",
      "type": "constructor"
    },
    {
      "inputs": [
        {
          "internalType": "address",
          "name": "operator",
          "type": "address"
        }
      ],
      "name": "OperatorNotAllowed",
      "type": "error"
    },
    {
      "anonymous": false,
      "inputs": [
        {
          "indexed": true,
          "internalType": "address",
          "name": "account",
          "type": "address"
        },
        {
          "indexed": true,
          "internalType": "address",
          "name": "operator",
          "type": "address"
        },
        {
          "indexed": false,
          "internalType": "bool",
          "name": "approved",
          "type": "bool"
        }
      ],
      "name": "ApprovalForAll",
      "type": "event"
    },
    {
      "anonymous": false,
      "inputs": [
        {
          "indexed": true,
          "internalType": "address",
          "name": "previousOwner",
          "type": "address"
        },
        {
          "indexed": true,
          "internalType": "address",
          "name": "newOwner",
          "type": "address"
        }
      ],
      "name": "OwnershipTransferred",
      "type": "event"
    },
    {
      "anonymous": false,
      "inputs": [
        {
          "indexed": true,
          "internalType": "bytes32",
          "name": "role",
          "type": "bytes32"
        },
        {
          "indexed": true,
          "internalType": "bytes32",
          "name": "previousAdminRole",
          "type": "bytes32"
        },
        {
          "indexed": true,
          "internalType": "bytes32",
          "name": "newAdminRole",
          "type": "bytes32"
        }
      ],
      "name": "RoleAdminChanged",
      "type": "event"
    },
    {
      "anonymous": false,
      "inputs": [
        {
          "indexed": true,
          "internalType": "bytes32",
          "name": "role",
          "type": "bytes32"
        },
        {
          "indexed": true,
          "internalType": "address",
          "name": "account",
          "type": "address"
        },
        {
          "indexed": true,
          "internalType": "address",
          "name": "sender",
          "type": "address"
        }
      ],
      "name": "RoleGranted",
      "type": "event"
    },
    {
      "anonymous": false,
      "inputs": [
        {
          "indexed": true,
          "internalType": "bytes32",
          "name": "role",
          "type": "bytes32"
        },
        {
          "indexed": true,
          "internalType": "address",
          "name": "account",
          "type": "address"
        },
        {
          "indexed": true,
          "internalType": "address",
          "name": "sender",
          "type": "address"
        }
      ],
      "name": "RoleRevoked",
      "type": "event"
    },
    {
      "anonymous": false,
      "inputs": [
        {
          "indexed": true,
          "internalType": "address",
          "name": "operator",
          "type": "address"
        },
        {
          "indexed": true,
          "internalType": "address",
          "name": "from",
          "type": "address"
        },
        {
          "indexed": true,
          "internalType": "address",
          "name": "to",
          "type": "address"
        },
        {
          "indexed": false,
          "internalType": "uint256[]",
          "name": "ids",
          "type": "uint256[]"
        },
        {
          "indexed": false,
          "internalType": "uint256[]",
          "name": "values",
          "type": "uint256[]"
        }
      ],
      "name": "TransferBatch",
      "type": "event"
    },
    {
      "anonymous": false,
      "inputs": [
        {
          "indexed": true,
          "internalType": "address",
          "name": "operator",
          "type": "address"
        },
        {
          "indexed": true,
          "internalType": "address",
          "name": "from",
          "type": "address"
        },
        {
          "indexed": true,
          "internalType": "address",
          "name": "to",
          "type": "address"
        },
        {
          "indexed": false,
          "internalType": "uint256",
          "name": "id",
          "type": "uint256"
        },
        {
          "indexed": false,
          "internalType": "uint256",
          "name": "value",
          "type": "uint256"
        }
      ],
      "name": "TransferSingle",
      "type": "event"
    },
    {
      "anonymous": false,
      "inputs": [
        {
          "indexed": false,
          "internalType": "string",
          "name": "value",
          "type": "string"
        },
        {
          "indexed": true,
          "internalType": "uint256",
          "name": "id",
          "type": "uint256"
        }
      ],
      "name": "URI",
      "type": "event"
    },
    {
      "inputs": [],
      "name": "DEFAULT_ADMIN_ROLE",
      "outputs": [
        {
          "internalType": "bytes32",
          "name": "",
          "type": "bytes32"
        }
      ],
      "stateMutability": "view",
      "type": "function"
    },
    {
      "inputs": [],
      "name": "SUPPLY_ROLE",
      "outputs": [
        {
          "internalType": "bytes32",
          "name": "",
          "type": "bytes32"
        }
      ],
      "stateMutability": "view",
      "type": "function"
    },
    {
      "inputs": [],
      "name": "URI_SETTER_ROLE",
      "outputs": [
        {
          "internalType": "bytes32",
          "name": "",
          "type": "bytes32"
        }
      ],
      "stateMutability": "view",
      "type": "function"
    },
    {
      "inputs": [
        {
          "internalType": "address",
          "name": "account",
          "type": "address"
        },
        {
          "internalType": "uint256",
          "name": "id",
          "type": "uint256"
        }
      ],
      "name": "balanceOf",
      "outputs": [
        {
          "internalType": "uint256",
          "name": "",
          "type": "uint256"
        }
      ],
      "stateMutability": "view",
      "type": "function"
    },
    {
      "inputs": [
        {
          "internalType": "address[]",
          "name": "accounts",
          "type": "address[]"
        },
        {
          "internalType": "uint256[]",
          "name": "ids",
          "type": "uint256[]"
        }
      ],
      "name": "balanceOfBatch",
      "outputs": [
        {
          "internalType": "uint256[]",
          "name": "",
          "type": "uint256[]"
        }
      ],
      "stateMutability": "view",
      "type": "function"
    },
    {
      "inputs": [],
      "name": "baseURI",
      "outputs": [
        {
          "internalType": "string",
          "name": "",
          "type": "string"
        }
      ],
      "stateMutability": "view",
      "type": "function"
    },
    {
      "inputs": [
        {
          "internalType": "address",
          "name": "from",
          "type": "address"
        },
        {
          "internalType": "uint256[]",
          "name": "ids",
          "type": "uint256[]"
        },
        {
          "internalType": "uint256[]",
          "name": "amounts",
          "type": "uint256[]"
        }
      ],
      "name": "burnBatchFor",
      "outputs": [],
      "stateMutability": "nonpayable",
      "type": "function"
    },
    {
      "inputs": [
        {
          "internalType": "address",
          "name": "to",
          "type": "address"
        },
        {
          "internalType": "uint256",
          "name": "id",
          "type": "uint256"
        }
      ],
      "name": "burnFor",
      "outputs": [],
      "stateMutability": "nonpayable",
      "type": "function"
    },
    {
      "inputs": [],
      "name": "contractURI",
      "outputs": [
        {
          "internalType": "string",
          "name": "",
          "type": "string"
        }
      ],
      "stateMutability": "view",
      "type": "function"
    },
    {
      "inputs": [
        {
          "internalType": "uint256",
          "name": "id",
          "type": "uint256"
        }
      ],
      "name": "exists",
      "outputs": [
        {
          "internalType": "bool",
          "name": "",
          "type": "bool"
        }
      ],
      "stateMutability": "view",
      "type": "function"
    },
    {
      "inputs": [
        {
          "internalType": "bytes32",
          "name": "role",
          "type": "bytes32"
        }
      ],
      "name": "getRoleAdmin",
      "outputs": [
        {
          "internalType": "bytes32",
          "name": "",
          "type": "bytes32"
        }
      ],
      "stateMutability": "view",
      "type": "function"
    },
    {
      "inputs": [
        {
          "internalType": "bytes32",
          "name": "role",
          "type": "bytes32"
        },
        {
          "internalType": "address",
          "name": "account",
          "type": "address"
        }
      ],
      "name": "grantRole",
      "outputs": [],
      "stateMutability": "nonpayable",
      "type": "function"
    },
    {
      "inputs": [
        {
          "internalType": "bytes32",
          "name": "role",
          "type": "bytes32"
        },
        {
          "internalType": "address",
          "name": "account",
          "type": "address"
        }
      ],
      "name": "hasRole",
      "outputs": [
        {
          "internalType": "bool",
          "name": "",
          "type": "bool"
        }
      ],
      "stateMutability": "view",
      "type": "function"
    },
    {
      "inputs": [
        {
          "internalType": "address",
          "name": "account",
          "type": "address"
        },
        {
          "internalType": "address",
          "name": "operator",
          "type": "address"
        }
      ],
      "name": "isApprovedForAll",
      "outputs": [
        {
          "internalType": "bool",
          "name": "",
          "type": "bool"
        }
      ],
      "stateMutability": "view",
      "type": "function"
    },
    {
      "inputs": [
        {
          "internalType": "address",
          "name": "",
          "type": "address"
        }
      ],
      "name": "lastTransfer",
      "outputs": [
        {
          "internalType": "uint256",
          "name": "",
          "type": "uint256"
        }
      ],
      "stateMutability": "view",
      "type": "function"
    },
    {
      "inputs": [
        {
          "internalType": "address",
          "name": "account",
          "type": "address"
        },
        {
          "internalType": "uint256",
          "name": "id",
          "type": "uint256"
        },
        {
          "internalType": "bytes",
          "name": "_data",
          "type": "bytes"
        }
      ],
      "name": "mint",
      "outputs": [],
      "stateMutability": "nonpayable",
      "type": "function"
    },
    {
      "inputs": [
        {
          "internalType": "address",
          "name": "to",
          "type": "address"
        },
        {
          "internalType": "uint256[]",
          "name": "ids",
          "type": "uint256[]"
        },
        {
          "internalType": "uint256[]",
          "name": "amounts",
          "type": "uint256[]"
        },
        {
          "internalType": "bytes",
          "name": "",
          "type": "bytes"
        }
      ],
      "name": "mintBatch",
      "outputs": [],
      "stateMutability": "nonpayable",
      "type": "function"
    },
    {
      "inputs": [],
      "name": "name",
      "outputs": [
        {
          "internalType": "string",
          "name": "",
          "type": "string"
        }
      ],
      "stateMutability": "view",
      "type": "function"
    },
    {
      "inputs": [],
      "name": "owner",
      "outputs": [
        {
          "internalType": "address",
          "name": "",
          "type": "address"
        }
      ],
      "stateMutability": "view",
      "type": "function"
    },
    {
      "inputs": [],
      "name": "renounceOwnership",
      "outputs": [],
      "stateMutability": "nonpayable",
      "type": "function"
    },
    {
      "inputs": [
        {
          "internalType": "bytes32",
          "name": "role",
          "type": "bytes32"
        },
        {
          "internalType": "address",
          "name": "account",
          "type": "address"
        }
      ],
      "name": "renounceRole",
      "outputs": [],
      "stateMutability": "nonpayable",
      "type": "function"
    },
    {
      "inputs": [
        {
          "internalType": "bytes32",
          "name": "role",
          "type": "bytes32"
        },
        {
          "internalType": "address",
          "name": "account",
          "type": "address"
        }
      ],
      "name": "revokeRole",
      "outputs": [],
      "stateMutability": "nonpayable",
      "type": "function"
    },
    {
      "inputs": [
        {
          "internalType": "uint256",
          "name": "_tokenId",
          "type": "uint256"
        },
        {
          "internalType": "uint256",
          "name": "_salePrice",
          "type": "uint256"
        }
      ],
      "name": "royaltyInfo",
      "outputs": [
        {
          "internalType": "address",
          "name": "",
          "type": "address"
        },
        {
          "internalType": "uint256",
          "name": "",
          "type": "uint256"
        }
      ],
      "stateMutability": "view",
      "type": "function"
    },
    {
      "inputs": [
        {
          "internalType": "address",
          "name": "from",
          "type": "address"
        },
        {
          "internalType": "address",
          "name": "to",
          "type": "address"
        },
        {
          "internalType": "uint256[]",
          "name": "ids",
          "type": "uint256[]"
        },
        {
          "internalType": "uint256[]",
          "name": "amounts",
          "type": "uint256[]"
        },
        {
          "internalType": "bytes",
          "name": "data",
          "type": "bytes"
        }
      ],
      "name": "safeBatchTransferFrom",
      "outputs": [],
      "stateMutability": "nonpayable",
      "type": "function"
    },
    {
      "inputs": [
        {
          "internalType": "address",
          "name": "from",
          "type": "address"
        },
        {
          "internalType": "address",
          "name": "to",
          "type": "address"
        },
        {
          "internalType": "uint256",
          "name": "tokenId",
          "type": "uint256"
        },
        {
          "internalType": "uint256",
          "name": "amount",
          "type": "uint256"
        },
        {
          "internalType": "bytes",
          "name": "data",
          "type": "bytes"
        }
      ],
      "name": "safeTransferFrom",
      "outputs": [],
      "stateMutability": "nonpayable",
      "type": "function"
    },
    {
      "inputs": [
        {
          "internalType": "address",
          "name": "operator",
          "type": "address"
        },
        {
          "internalType": "bool",
          "name": "approved",
          "type": "bool"
        }
      ],
      "name": "setApprovalForAll",
      "outputs": [],
      "stateMutability": "nonpayable",
      "type": "function"
    },
    {
      "inputs": [
        {
          "internalType": "string",
          "name": "newuri",
          "type": "string"
        }
      ],
      "name": "setContractURI",
      "outputs": [],
      "stateMutability": "nonpayable",
      "type": "function"
    },
    {
      "inputs": [
        {
          "internalType": "string",
          "name": "newuri",
          "type": "string"
        }
      ],
      "name": "setURI",
      "outputs": [],
      "stateMutability": "nonpayable",
      "type": "function"
    },
    {
      "inputs": [
        {
          "internalType": "bytes4",
          "name": "interfaceId",
          "type": "bytes4"
        }
      ],
      "name": "supportsInterface",
      "outputs": [
        {
          "internalType": "bool",
          "name": "",
          "type": "bool"
        }
      ],
      "stateMutability": "view",
      "type": "function"
    },
    {
      "inputs": [],
      "name": "symbol",
      "outputs": [
        {
          "internalType": "string",
          "name": "",
          "type": "string"
        }
      ],
      "stateMutability": "view",
      "type": "function"
    },
    {
      "inputs": [
        {
          "internalType": "uint256",
          "name": "id",
          "type": "uint256"
        }
      ],
      "name": "totalSupply",
      "outputs": [
        {
          "internalType": "uint256",
          "name": "",
          "type": "uint256"
        }
      ],
      "stateMutability": "view",
      "type": "function"
    },
    {
      "inputs": [
        {
          "internalType": "address",
          "name": "newOwner",
          "type": "address"
        }
      ],
      "name": "transferOwnership",
      "outputs": [],
      "stateMutability": "nonpayable",
      "type": "function"
    },
    {
      "inputs": [
        {
          "internalType": "uint256",
          "name": "id",
          "type": "uint256"
        }
      ],
      "name": "uri",
      "outputs": [
        {
          "internalType": "string",
          "name": "",
          "type": "string"
        }
      ],
      "stateMutability": "view",
      "type": "function"
    }
  ],
  "bytecode": "0x60806040523480156200001157600080fd5b50604051620065fa380380620065fa833981810160405281019062000037919062000b01565b733cc6cdda760b79bafa08df41ecfa224f810dceb66001846200006081620003b460201b60201c565b506200008162000075620003d060201b60201c565b620003d860201b60201c565b60006daaeb6d7670e522a718067333cd4e73ffffffffffffffffffffffffffffffffffffffff163b1115620002765780156200013c576daaeb6d7670e522a718067333cd4e73ffffffffffffffffffffffffffffffffffffffff16637d3e3dbe30846040518363ffffffff1660e01b81526004016200010292919062000c16565b600060405180830381600087803b1580156200011d57600080fd5b505af115801562000132573d6000803e3d6000fd5b5050505062000275565b600073ffffffffffffffffffffffffffffffffffffffff168273ffffffffffffffffffffffffffffffffffffffff1614620001f6576daaeb6d7670e522a718067333cd4e73ffffffffffffffffffffffffffffffffffffffff1663a0af290330846040518363ffffffff1660e01b8152600401620001bc92919062000c16565b600060405180830381600087803b158015620001d757600080fd5b505af1158015620001ec573d6000803e3d6000fd5b5050505062000274565b6daaeb6d7670e522a718067333cd4e73ffffffffffffffffffffffffffffffffffffffff16634420e486306040518263ffffffff1660e01b81526004016200023f919062000c43565b600060405180830381600087803b1580156200025a57600080fd5b505af11580156200026f573d6000803e3d6000fd5b505050505b5b5b50506200028d6000801b336200049e60201b60201c565b620002bf7f7804d923f43a17d325d77e781528e0793b2edd9890ab45fc64efd7b4b427744c336200049e60201b60201c565b620002f17fbc1f3f7c406085be62d227092f4fd5af86922a19f3a87e6199f14015341eb9d9336200049e60201b60201c565b600073ffffffffffffffffffffffffffffffffffffffff16816000015173ffffffffffffffffffffffffffffffffffffffff1614620003455762000344816000015182602001516200059060201b60201c565b5b84600890805190602001906200035d929190620007a8565b50836009908051906020019062000376929190620007a8565b5082600a90805190602001906200038f929190620007a8565b5081600b9080519060200190620003a8929190620007a8565b50505050505062000ddf565b8060029080519060200190620003cc929190620007a8565b5050565b600033905090565b6000600760009054906101000a900473ffffffffffffffffffffffffffffffffffffffff16905081600760006101000a81548173ffffffffffffffffffffffffffffffffffffffff021916908373ffffffffffffffffffffffffffffffffffffffff1602179055508173ffffffffffffffffffffffffffffffffffffffff168173ffffffffffffffffffffffffffffffffffffffff167f8be0079c531659141344cd1fd0a4f28419497f9722a3daafe3b4186f6b6457e060405160405180910390a35050565b620004b082826200073360201b60201c565b6200058c5760016004600084815260200190815260200160002060000160008373ffffffffffffffffffffffffffffffffffffffff1673ffffffffffffffffffffffffffffffffffffffff16815260200190815260200160002060006101000a81548160ff02191690831515021790555062000531620003d060201b60201c565b73ffffffffffffffffffffffffffffffffffffffff168173ffffffffffffffffffffffffffffffffffffffff16837f2f8788117e7eff1d82e926ec794901d17c78024a50270940304540a733656f0d60405160405180910390a45b5050565b620005a06200079e60201b60201c565b6bffffffffffffffffffffffff16816bffffffffffffffffffffffff16111562000601576040517f08c379a0000000000000000000000000000000000000000000000000000000008152600401620005f89062000ce7565b60405180910390fd5b600073ffffffffffffffffffffffffffffffffffffffff168273ffffffffffffffffffffffffffffffffffffffff160362000673576040517f08c379a00000000000000000000000000000000000000000000000000000000081526004016200066a9062000d59565b60405180910390fd5b60405180604001604052808373ffffffffffffffffffffffffffffffffffffffff168152602001826bffffffffffffffffffffffff16815250600560008201518160000160006101000a81548173ffffffffffffffffffffffffffffffffffffffff021916908373ffffffffffffffffffffffffffffffffffffffff16021790555060208201518160000160146101000a8154816bffffffffffffffffffffffff02191690836bffffffffffffffffffffffff1602179055509050505050565b60006004600084815260200190815260200160002060000160008373ffffffffffffffffffffffffffffffffffffffff1673ffffffffffffffffffffffffffffffffffffffff16815260200190815260200160002060009054906101000a900460ff16905092915050565b6000612710905090565b828054620007b69062000daa565b90600052602060002090601f016020900481019282620007da576000855562000826565b82601f10620007f557805160ff191683800117855562000826565b8280016001018555821562000826579182015b828111156200082557825182559160200191906001019062000808565b5b50905062000835919062000839565b5090565b5b80821115620008545760008160009055506001016200083a565b5090565b6000604051905090565b600080fd5b600080fd5b600080fd5b600080fd5b6000601f19601f8301169050919050565b7f4e487b7100000000000000000000000000000000000000000000000000000000600052604160045260246000fd5b620008c18262000876565b810181811067ffffffffffffffff82111715620008e357620008e262000887565b5b80604052505050565b6000620008f862000858565b9050620009068282620008b6565b919050565b600067ffffffffffffffff82111562000929576200092862000887565b5b620009348262000876565b9050602081019050919050565b60005b838110156200096157808201518184015260208101905062000944565b8381111562000971576000848401525b50505050565b60006200098e62000988846200090b565b620008ec565b905082815260208101848484011115620009ad57620009ac62000871565b5b620009ba84828562000941565b509392505050565b600082601f830112620009da57620009d96200086c565b5b8151620009ec84826020860162000977565b91505092915050565b600080fd5b600073ffffffffffffffffffffffffffffffffffffffff82169050919050565b600062000a2782620009fa565b9050919050565b62000a398162000a1a565b811462000a4557600080fd5b50565b60008151905062000a598162000a2e565b92915050565b60006bffffffffffffffffffffffff82169050919050565b62000a828162000a5f565b811462000a8e57600080fd5b50565b60008151905062000aa28162000a77565b92915050565b60006040828403121562000ac15762000ac0620009f5565b5b62000acd6040620008ec565b9050600062000adf8482850162000a48565b600083015250602062000af58482850162000a91565b60208301525092915050565b600080600080600060c0868803121562000b205762000b1f62000862565b5b600086015167ffffffffffffffff81111562000b415762000b4062000867565b5b62000b4f88828901620009c2565b955050602086015167ffffffffffffffff81111562000b735762000b7262000867565b5b62000b8188828901620009c2565b945050604086015167ffffffffffffffff81111562000ba55762000ba462000867565b5b62000bb388828901620009c2565b935050606086015167ffffffffffffffff81111562000bd75762000bd662000867565b5b62000be588828901620009c2565b925050608062000bf88882890162000aa8565b9150509295509295909350565b62000c108162000a1a565b82525050565b600060408201905062000c2d600083018562000c05565b62000c3c602083018462000c05565b9392505050565b600060208201905062000c5a600083018462000c05565b92915050565b600082825260208201905092915050565b7f455243323938313a20726f79616c7479206665652077696c6c2065786365656460008201527f2073616c65507269636500000000000000000000000000000000000000000000602082015250565b600062000ccf602a8362000c60565b915062000cdc8262000c71565b604082019050919050565b6000602082019050818103600083015262000d028162000cc0565b9050919050565b7f455243323938313a20696e76616c696420726563656976657200000000000000600082015250565b600062000d4160198362000c60565b915062000d4e8262000d09565b602082019050919050565b6000602082019050818103600083015262000d748162000d32565b9050919050565b7f4e487b7100000000000000000000000000000000000000000000000000000000600052602260045260246000fd5b6000600282049050600182168062000dc357607f821691505b60208210810362000dd95762000dd862000d7b565b5b50919050565b61580b8062000def6000396000f3fe608060405234801561001057600080fd5b50600436106101fa5760003560e01c8063715018a61161011a57806395d89b41116100ad578063d547741f1161007c578063d547741f146105d4578063e8a3d485146105f0578063e985e9c51461060e578063f242432a1461063e578063f2fde38b1461065a576101fa565b806395d89b411461054c578063a217fddf1461056a578063a22cb46514610588578063bd85b039146105a4576101fa565b80638da5cb5b116100e95780638da5cb5b146104c657806391d14854146104e4578063938e3d7b1461051457806394d008ef14610530576101fa565b8063715018a6146104645780637bc8e14c1461046e5780637f3457101461048c578063885c2f35146104aa576101fa565b80632a55205a116101925780634e1273f4116101615780634e1273f4146103b65780634f558e79146103e65780635b6612ad146104165780636c0360eb14610446576101fa565b80632a55205a146103315780632eb2c2d6146103625780632f2ff15d1461037e57806336568abe1461039a576101fa565b80630e89341c116101ce5780630e89341c146102995780631dd319cb146102c95780631f7fdffa146102e5578063248a9ca314610301576101fa565b8062fdd58e146101ff57806301ffc9a71461022f57806302fe53051461025f57806306fdde031461027b575b600080fd5b61021960048036038101906102149190613a56565b610676565b6040516102269190613aa5565b60405180910390f35b61024960048036038101906102449190613b18565b61073e565b6040516102569190613b60565b60405180910390f35b61027960048036038101906102749190613cc1565b610750565b005b610283610795565b6040516102909190613d92565b60405180910390f35b6102b360048036038101906102ae9190613db4565b610823565b6040516102c09190613d92565b60405180910390f35b6102e360048036038101906102de9190613a56565b610883565b005b6102ff60048036038101906102fa9190613e97565b6108be565b005b61031b60048036038101906103169190613f96565b61098f565b6040516103289190613fd2565b60405180910390f35b61034b60048036038101906103469190613fed565b6109af565b60405161035992919061403c565b60405180910390f35b61037c600480360381019061037791906141c9565b610b99565b005b61039860048036038101906103939190614298565b610d81565b005b6103b460048036038101906103af9190614298565b610da2565b005b6103d060048036038101906103cb919061439b565b610e25565b6040516103dd91906144d1565b60405180910390f35b61040060048036038101906103fb9190613db4565b610f3e565b60405161040d9190613b60565b60405180910390f35b610430600480360381019061042b91906144f3565b610f52565b60405161043d9190613aa5565b60405180910390f35b61044e610f6a565b60405161045b9190613d92565b60405180910390f35b61046c610ff8565b005b61047661100c565b6040516104839190613fd2565b60405180910390f35b610494611030565b6040516104a19190613fd2565b60405180910390f35b6104c460048036038101906104bf9190614520565b611054565b005b6104ce611113565b6040516104db91906145b5565b60405180910390f35b6104fe60048036038101906104f99190614298565b61113d565b60405161050b9190613b60565b60405180910390f35b61052e60048036038101906105299190613cc1565b6111a8565b005b61054a600480360381019061054591906145d0565b6111ed565b005b61055461123a565b6040516105619190613d92565b60405180910390f35b6105726112c8565b60405161057f9190613fd2565b60405180910390f35b6105a2600480360381019061059d9190614670565b6112cf565b005b6105be60048036038101906105b99190613db4565b6112e5565b6040516105cb9190613aa5565b60405180910390f35b6105ee60048036038101906105e99190614298565b611302565b005b6105f8611323565b6040516106059190613d92565b60405180910390f35b610628600480360381019061062391906146b0565b6113b1565b6040516106359190613b60565b60405180910390f35b610658600480360381019061065391906146f0565b611445565b005b610674600480360381019061066f91906144f3565b61162d565b005b60008073ffffffffffffffffffffffffffffffffffffffff168373ffffffffffffffffffffffffffffffffffffffff16036106e6576040517f08c379a00000000000000000000000000000000000000000000000000000000081526004016106dd906147f9565b60405180910390fd5b60008083815260200190815260200160002060008473ffffffffffffffffffffffffffffffffffffffff1673ffffffffffffffffffffffffffffffffffffffff16815260200190815260200160002054905092915050565b6000610749826116b0565b9050919050565b7f7804d923f43a17d325d77e781528e0793b2edd9890ab45fc64efd7b4b427744c61077a8161172a565b81600b908051906020019061079092919061390b565b505050565b600880546107a290614848565b80601f01602080910402602001604051908101604052809291908181526020018280546107ce90614848565b801561081b5780601f106107f05761010080835404028352916020019161081b565b820191906000526020600020905b8154815290600101906020018083116107fe57829003601f168201915b505050505081565b60606000600b805461083490614848565b905011610850576040518060200160405280600081525061087c565b600b61085b8361173e565b60405160200161086c929190614949565b6040516020818303038152906040525b9050919050565b7fbc1f3f7c406085be62d227092f4fd5af86922a19f3a87e6199f14015341eb9d96108ad8161172a565b6108b98383600161180c565b505050565b7fbc1f3f7c406085be62d227092f4fd5af86922a19f3a87e6199f14015341eb9d96108e88161172a565b61098588888880806020026020016040519081016040528093929190818152602001838360200280828437600081840152601f19601f82011690508083019250505050505050878780806020026020016040519081016040528093929190818152602001838360200280828437600081840152601f19601f8201169050808301925050505050505060405180602001604052806000815250611a52565b5050505050505050565b600060046000838152602001908152602001600020600101549050919050565b6000806000600660008681526020019081526020016000206040518060400160405290816000820160009054906101000a900473ffffffffffffffffffffffffffffffffffffffff1673ffffffffffffffffffffffffffffffffffffffff1673ffffffffffffffffffffffffffffffffffffffff1681526020016000820160149054906101000a90046bffffffffffffffffffffffff166bffffffffffffffffffffffff166bffffffffffffffffffffffff16815250509050600073ffffffffffffffffffffffffffffffffffffffff16816000015173ffffffffffffffffffffffffffffffffffffffff1603610b445760056040518060400160405290816000820160009054906101000a900473ffffffffffffffffffffffffffffffffffffffff1673ffffffffffffffffffffffffffffffffffffffff1673ffffffffffffffffffffffffffffffffffffffff1681526020016000820160149054906101000a90046bffffffffffffffffffffffff166bffffffffffffffffffffffff166bffffffffffffffffffffffff168152505090505b6000610b4e611c7e565b6bffffffffffffffffffffffff1682602001516bffffffffffffffffffffffff1686610b7a919061499c565b610b849190614a25565b90508160000151819350935050509250929050565b8460006daaeb6d7670e522a718067333cd4e73ffffffffffffffffffffffffffffffffffffffff163b1115610d6b573373ffffffffffffffffffffffffffffffffffffffff168173ffffffffffffffffffffffffffffffffffffffff1603610c0d57610c088686868686611c88565b610d79565b6daaeb6d7670e522a718067333cd4e73ffffffffffffffffffffffffffffffffffffffff1663c617113430336040518363ffffffff1660e01b8152600401610c56929190614a56565b602060405180830381865afa158015610c73573d6000803e3d6000fd5b505050506040513d601f19601f82011682018060405250810190610c979190614a94565b8015610d2957506daaeb6d7670e522a718067333cd4e73ffffffffffffffffffffffffffffffffffffffff1663c617113430836040518363ffffffff1660e01b8152600401610ce7929190614a56565b602060405180830381865afa158015610d04573d6000803e3d6000fd5b505050506040513d601f19601f82011682018060405250810190610d289190614a94565b5b610d6a57336040517fede71dcc000000000000000000000000000000000000000000000000000000008152600401610d6191906145b5565b60405180910390fd5b5b610d788686868686611c88565b5b505050505050565b610d8a8261098f565b610d938161172a565b610d9d8383611d29565b505050565b610daa611e0a565b73ffffffffffffffffffffffffffffffffffffffff168173ffffffffffffffffffffffffffffffffffffffff1614610e17576040517f08c379a0000000000000000000000000000000000000000000000000000000008152600401610e0e90614b33565b60405180910390fd5b610e218282611e12565b5050565b60608151835114610e6b576040517f08c379a0000000000000000000000000000000000000000000000000000000008152600401610e6290614bc5565b60405180910390fd5b6000835167ffffffffffffffff811115610e8857610e87613b96565b5b604051908082528060200260200182016040528015610eb65781602001602082028036833780820191505090505b50905060005b8451811015610f3357610f03858281518110610edb57610eda614be5565b5b6020026020010151858381518110610ef657610ef5614be5565b5b6020026020010151610676565b828281518110610f1657610f15614be5565b5b60200260200101818152505080610f2c90614c14565b9050610ebc565b508091505092915050565b600080610f4a836112e5565b119050919050565b600c6020528060005260406000206000915090505481565b600b8054610f7790614848565b80601f0160208091040260200160405190810160405280929190818152602001828054610fa390614848565b8015610ff05780601f10610fc557610100808354040283529160200191610ff0565b820191906000526020600020905b815481529060010190602001808311610fd357829003601f168201915b505050505081565b611000611ef4565b61100a6000611f72565b565b7fbc1f3f7c406085be62d227092f4fd5af86922a19f3a87e6199f14015341eb9d981565b7f7804d923f43a17d325d77e781528e0793b2edd9890ab45fc64efd7b4b427744c81565b7fbc1f3f7c406085be62d227092f4fd5af86922a19f3a87e6199f14015341eb9d961107e8161172a565b61110b86868680806020026020016040519081016040528093929190818152602001838360200280828437600081840152601f19601f82011690508083019250505050505050858580806020026020016040519081016040528093929190818152602001838360200280828437600081840152601f19601f82011690508083019250505050505050612038565b505050505050565b6000600760009054906101000a900473ffffffffffffffffffffffffffffffffffffffff16905090565b60006004600084815260200190815260200160002060000160008373ffffffffffffffffffffffffffffffffffffffff1673ffffffffffffffffffffffffffffffffffffffff16815260200190815260200160002060009054906101000a900460ff16905092915050565b7f7804d923f43a17d325d77e781528e0793b2edd9890ab45fc64efd7b4b427744c6111d28161172a565b81600a90805190602001906111e892919061390b565b505050565b7fbc1f3f7c406085be62d227092f4fd5af86922a19f3a87e6199f14015341eb9d96112178161172a565b6112338585600160405180602001604052806000815250612306565b5050505050565b6009805461124790614848565b80601f016020809104026020016040519081016040528092919081815260200182805461127390614848565b80156112c05780601f10611295576101008083540402835291602001916112c0565b820191906000526020600020905b8154815290600101906020018083116112a357829003601f168201915b505050505081565b6000801b81565b6112e16112da611e0a565b83836124b6565b5050565b600060036000838152602001908152602001600020549050919050565b61130b8261098f565b6113148161172a565b61131e8383611e12565b505050565b600a805461133090614848565b80601f016020809104026020016040519081016040528092919081815260200182805461135c90614848565b80156113a95780601f1061137e576101008083540402835291602001916113a9565b820191906000526020600020905b81548152906001019060200180831161138c57829003601f168201915b505050505081565b6000600160008473ffffffffffffffffffffffffffffffffffffffff1673ffffffffffffffffffffffffffffffffffffffff16815260200190815260200160002060008373ffffffffffffffffffffffffffffffffffffffff1673ffffffffffffffffffffffffffffffffffffffff16815260200190815260200160002060009054906101000a900460ff16905092915050565b8460006daaeb6d7670e522a718067333cd4e73ffffffffffffffffffffffffffffffffffffffff163b1115611617573373ffffffffffffffffffffffffffffffffffffffff168173ffffffffffffffffffffffffffffffffffffffff16036114b9576114b48686868686612622565b611625565b6daaeb6d7670e522a718067333cd4e73ffffffffffffffffffffffffffffffffffffffff1663c617113430336040518363ffffffff1660e01b8152600401611502929190614a56565b602060405180830381865afa15801561151f573d6000803e3d6000fd5b505050506040513d601f19601f820116820180604052508101906115439190614a94565b80156115d557506daaeb6d7670e522a718067333cd4e73ffffffffffffffffffffffffffffffffffffffff1663c617113430836040518363ffffffff1660e01b8152600401611593929190614a56565b602060405180830381865afa1580156115b0573d6000803e3d6000fd5b505050506040513d601f19601f820116820180604052508101906115d49190614a94565b5b61161657336040517fede71dcc00000000000000000000000000000000000000000000000000000000815260040161160d91906145b5565b60405180910390fd5b5b6116248686868686612622565b5b505050505050565b611635611ef4565b600073ffffffffffffffffffffffffffffffffffffffff168173ffffffffffffffffffffffffffffffffffffffff16036116a4576040517f08c379a000000000000000000000000000000000000000000000000000000000815260040161169b90614cce565b60405180910390fd5b6116ad81611f72565b50565b60007f2a55205a000000000000000000000000000000000000000000000000000000007bffffffffffffffffffffffffffffffffffffffffffffffffffffffff1916827bffffffffffffffffffffffffffffffffffffffffffffffffffffffff191614806117235750611722826126c3565b5b9050919050565b61173b81611736611e0a565b61273d565b50565b60606000600161174d846127c2565b01905060008167ffffffffffffffff81111561176c5761176b613b96565b5b6040519080825280601f01601f19166020018201604052801561179e5781602001600182028036833780820191505090505b509050600082602001820190505b600115611801578080600190039150507f3031323334353637383961626364656600000000000000000000000000000000600a86061a8153600a85816117f5576117f46149f6565b5b049450600085036117ac575b819350505050919050565b600073ffffffffffffffffffffffffffffffffffffffff168373ffffffffffffffffffffffffffffffffffffffff160361187b576040517f08c379a000000000000000000000000000000000000000000000000000000000815260040161187290614d60565b60405180910390fd5b6000611885611e0a565b9050600061189284612915565b9050600061189f84612915565b90506118bf8387600085856040518060200160405280600081525061298f565b600080600087815260200190815260200160002060008873ffffffffffffffffffffffffffffffffffffffff1673ffffffffffffffffffffffffffffffffffffffff16815260200190815260200160002054905084811015611956576040517f08c379a000000000000000000000000000000000000000000000000000000000815260040161194d90614df2565b60405180910390fd5b84810360008088815260200190815260200160002060008973ffffffffffffffffffffffffffffffffffffffff1673ffffffffffffffffffffffffffffffffffffffff16815260200190815260200160002081905550600073ffffffffffffffffffffffffffffffffffffffff168773ffffffffffffffffffffffffffffffffffffffff168573ffffffffffffffffffffffffffffffffffffffff167fc3d58168c5ae7397731d063d5bbf3d657854427343f4c083240f7aacaa2d0f628989604051611a23929190614e12565b60405180910390a4611a49848860008686604051806020016040528060008152506129e9565b50505050505050565b600073ffffffffffffffffffffffffffffffffffffffff168473ffffffffffffffffffffffffffffffffffffffff1603611ac1576040517f08c379a0000000000000000000000000000000000000000000000000000000008152600401611ab890614ead565b60405180910390fd5b8151835114611b05576040517f08c379a0000000000000000000000000000000000000000000000000000000008152600401611afc90614f3f565b60405180910390fd5b6000611b0f611e0a565b9050611b208160008787878761298f565b60005b8451811015611bd957838181518110611b3f57611b3e614be5565b5b6020026020010151600080878481518110611b5d57611b5c614be5565b5b6020026020010151815260200190815260200160002060008873ffffffffffffffffffffffffffffffffffffffff1673ffffffffffffffffffffffffffffffffffffffff1681526020019081526020016000206000828254611bbf9190614f5f565b925050819055508080611bd190614c14565b915050611b23565b508473ffffffffffffffffffffffffffffffffffffffff16600073ffffffffffffffffffffffffffffffffffffffff168273ffffffffffffffffffffffffffffffffffffffff167f4a39dc06d4c0dbc64b70af90fd698a233a518aa5d07e595d983b8c0526c8f7fb8787604051611c51929190614fb5565b60405180910390a4611c68816000878787876129e9565b611c77816000878787876129f1565b5050505050565b6000612710905090565b611c90611e0a565b73ffffffffffffffffffffffffffffffffffffffff168573ffffffffffffffffffffffffffffffffffffffff161480611cd65750611cd585611cd0611e0a565b6113b1565b5b611d15576040517f08c379a0000000000000000000000000000000000000000000000000000000008152600401611d0c9061505e565b60405180910390fd5b611d228585858585612bc8565b5050505050565b611d33828261113d565b611e065760016004600084815260200190815260200160002060000160008373ffffffffffffffffffffffffffffffffffffffff1673ffffffffffffffffffffffffffffffffffffffff16815260200190815260200160002060006101000a81548160ff021916908315150217905550611dab611e0a565b73ffffffffffffffffffffffffffffffffffffffff168173ffffffffffffffffffffffffffffffffffffffff16837f2f8788117e7eff1d82e926ec794901d17c78024a50270940304540a733656f0d60405160405180910390a45b5050565b600033905090565b611e1c828261113d565b15611ef05760006004600084815260200190815260200160002060000160008373ffffffffffffffffffffffffffffffffffffffff1673ffffffffffffffffffffffffffffffffffffffff16815260200190815260200160002060006101000a81548160ff021916908315150217905550611e95611e0a565b73ffffffffffffffffffffffffffffffffffffffff168173ffffffffffffffffffffffffffffffffffffffff16837ff6391f5c32d9c69d2a47ea670b442974b53935d1edc7fd64eb21e047a839171b60405160405180910390a45b5050565b611efc611e0a565b73ffffffffffffffffffffffffffffffffffffffff16611f1a611113565b73ffffffffffffffffffffffffffffffffffffffff1614611f70576040517f08c379a0000000000000000000000000000000000000000000000000000000008152600401611f67906150ca565b60405180910390fd5b565b6000600760009054906101000a900473ffffffffffffffffffffffffffffffffffffffff16905081600760006101000a81548173ffffffffffffffffffffffffffffffffffffffff021916908373ffffffffffffffffffffffffffffffffffffffff1602179055508173ffffffffffffffffffffffffffffffffffffffff168173ffffffffffffffffffffffffffffffffffffffff167f8be0079c531659141344cd1fd0a4f28419497f9722a3daafe3b4186f6b6457e060405160405180910390a35050565b600073ffffffffffffffffffffffffffffffffffffffff168373ffffffffffffffffffffffffffffffffffffffff16036120a7576040517f08c379a000000000000000000000000000000000000000000000000000000000815260040161209e90614d60565b60405180910390fd5b80518251146120eb576040517f08c379a00000000000000000000000000000000000000000000000000000000081526004016120e290614f3f565b60405180910390fd5b60006120f5611e0a565b90506121158185600086866040518060200160405280600081525061298f565b60005b835181101561226257600084828151811061213657612135614be5565b5b60200260200101519050600084838151811061215557612154614be5565b5b60200260200101519050600080600084815260200190815260200160002060008973ffffffffffffffffffffffffffffffffffffffff1673ffffffffffffffffffffffffffffffffffffffff168152602001908152602001600020549050818110156121f6576040517f08c379a00000000000000000000000000000000000000000000000000000000081526004016121ed90614df2565b60405180910390fd5b81810360008085815260200190815260200160002060008a73ffffffffffffffffffffffffffffffffffffffff1673ffffffffffffffffffffffffffffffffffffffff16815260200190815260200160002081905550505050808061225a90614c14565b915050612118565b50600073ffffffffffffffffffffffffffffffffffffffff168473ffffffffffffffffffffffffffffffffffffffff168273ffffffffffffffffffffffffffffffffffffffff167f4a39dc06d4c0dbc64b70af90fd698a233a518aa5d07e595d983b8c0526c8f7fb86866040516122da929190614fb5565b60405180910390a4612300818560008686604051806020016040528060008152506129e9565b50505050565b600073ffffffffffffffffffffffffffffffffffffffff168473ffffffffffffffffffffffffffffffffffffffff1603612375576040517f08c379a000000000000000000000000000000000000000000000000000000000815260040161236c90614ead565b60405180910390fd5b600061237f611e0a565b9050600061238c85612915565b9050600061239985612915565b90506123aa8360008985858961298f565b8460008088815260200190815260200160002060008973ffffffffffffffffffffffffffffffffffffffff1673ffffffffffffffffffffffffffffffffffffffff16815260200190815260200160002060008282546124099190614f5f565b925050819055508673ffffffffffffffffffffffffffffffffffffffff16600073ffffffffffffffffffffffffffffffffffffffff168473ffffffffffffffffffffffffffffffffffffffff167fc3d58168c5ae7397731d063d5bbf3d657854427343f4c083240f7aacaa2d0f628989604051612487929190614e12565b60405180910390a461249e836000898585896129e9565b6124ad83600089898989612ee9565b50505050505050565b8173ffffffffffffffffffffffffffffffffffffffff168373ffffffffffffffffffffffffffffffffffffffff1603612524576040517f08c379a000000000000000000000000000000000000000000000000000000000815260040161251b9061515c565b60405180910390fd5b80600160008573ffffffffffffffffffffffffffffffffffffffff1673ffffffffffffffffffffffffffffffffffffffff16815260200190815260200160002060008473ffffffffffffffffffffffffffffffffffffffff1673ffffffffffffffffffffffffffffffffffffffff16815260200190815260200160002060006101000a81548160ff0219169083151502179055508173ffffffffffffffffffffffffffffffffffffffff168373ffffffffffffffffffffffffffffffffffffffff167f17307eab39ab6107e8899845ad3d59bd9653f200f220920489ca2b5937696c31836040516126159190613b60565b60405180910390a3505050565b61262a611e0a565b73ffffffffffffffffffffffffffffffffffffffff168573ffffffffffffffffffffffffffffffffffffffff161480612670575061266f8561266a611e0a565b6113b1565b5b6126af576040517f08c379a00000000000000000000000000000000000000000000000000000000081526004016126a69061505e565b60405180910390fd5b6126bc85858585856130c0565b5050505050565b60007f7965db0b000000000000000000000000000000000000000000000000000000007bffffffffffffffffffffffffffffffffffffffffffffffffffffffff1916827bffffffffffffffffffffffffffffffffffffffffffffffffffffffff1916148061273657506127358261335b565b5b9050919050565b612747828261113d565b6127be576127548161343d565b6127628360001c602061346a565b604051602001612773929190615214565b6040516020818303038152906040526040517f08c379a00000000000000000000000000000000000000000000000000000000081526004016127b59190613d92565b60405180910390fd5b5050565b600080600090507a184f03e93ff9f4daa797ed6e38ed64bf6a1f0100000000000000008310612820577a184f03e93ff9f4daa797ed6e38ed64bf6a1f0100000000000000008381612816576128156149f6565b5b0492506040810190505b6d04ee2d6d415b85acef8100000000831061285d576d04ee2d6d415b85acef81000000008381612853576128526149f6565b5b0492506020810190505b662386f26fc10000831061288c57662386f26fc100008381612882576128816149f6565b5b0492506010810190505b6305f5e10083106128b5576305f5e10083816128ab576128aa6149f6565b5b0492506008810190505b61271083106128da5761271083816128d0576128cf6149f6565b5b0492506004810190505b606483106128fd57606483816128f3576128f26149f6565b5b0492506002810190505b600a831061290c576001810190505b80915050919050565b60606000600167ffffffffffffffff81111561293457612933613b96565b5b6040519080825280602002602001820160405280156129625781602001602082028036833780820191505090505b509050828160008151811061297a57612979614be5565b5b60200260200101818152505080915050919050565b42600c60008673ffffffffffffffffffffffffffffffffffffffff1673ffffffffffffffffffffffffffffffffffffffff168152602001908152602001600020819055506129e18686868686866136a6565b505050505050565b505050505050565b612a108473ffffffffffffffffffffffffffffffffffffffff16613876565b15612bc0578373ffffffffffffffffffffffffffffffffffffffff1663bc197c8187878686866040518663ffffffff1660e01b8152600401612a569594939291906152a3565b6020604051808303816000875af1925050508015612a9257506040513d601f19601f82011682018060405250810190612a8f9190615320565b60015b612b3757612a9e61535a565b806308c379a003612afa5750612ab261537c565b80612abd5750612afc565b806040517f08c379a0000000000000000000000000000000000000000000000000000000008152600401612af19190613d92565b60405180910390fd5b505b6040517f08c379a0000000000000000000000000000000000000000000000000000000008152600401612b2e9061547e565b60405180910390fd5b63bc197c8160e01b7bffffffffffffffffffffffffffffffffffffffffffffffffffffffff1916817bffffffffffffffffffffffffffffffffffffffffffffffffffffffff191614612bbe576040517f08c379a0000000000000000000000000000000000000000000000000000000008152600401612bb590615510565b60405180910390fd5b505b505050505050565b8151835114612c0c576040517f08c379a0000000000000000000000000000000000000000000000000000000008152600401612c0390614f3f565b60405180910390fd5b600073ffffffffffffffffffffffffffffffffffffffff168473ffffffffffffffffffffffffffffffffffffffff1603612c7b576040517f08c379a0000000000000000000000000000000000000000000000000000000008152600401612c72906155a2565b60405180910390fd5b6000612c85611e0a565b9050612c9581878787878761298f565b60005b8451811015612e46576000858281518110612cb657612cb5614be5565b5b602002602001015190506000858381518110612cd557612cd4614be5565b5b60200260200101519050600080600084815260200190815260200160002060008b73ffffffffffffffffffffffffffffffffffffffff1673ffffffffffffffffffffffffffffffffffffffff16815260200190815260200160002054905081811015612d76576040517f08c379a0000000000000000000000000000000000000000000000000000000008152600401612d6d90615634565b60405180910390fd5b81810360008085815260200190815260200160002060008c73ffffffffffffffffffffffffffffffffffffffff1673ffffffffffffffffffffffffffffffffffffffff168152602001908152602001600020819055508160008085815260200190815260200160002060008b73ffffffffffffffffffffffffffffffffffffffff1673ffffffffffffffffffffffffffffffffffffffff1681526020019081526020016000206000828254612e2b9190614f5f565b9250508190555050505080612e3f90614c14565b9050612c98565b508473ffffffffffffffffffffffffffffffffffffffff168673ffffffffffffffffffffffffffffffffffffffff168273ffffffffffffffffffffffffffffffffffffffff167f4a39dc06d4c0dbc64b70af90fd698a233a518aa5d07e595d983b8c0526c8f7fb8787604051612ebd929190614fb5565b60405180910390a4612ed38187878787876129e9565b612ee18187878787876129f1565b505050505050565b612f088473ffffffffffffffffffffffffffffffffffffffff16613876565b156130b8578373ffffffffffffffffffffffffffffffffffffffff1663f23a6e6187878686866040518663ffffffff1660e01b8152600401612f4e959493929190615654565b6020604051808303816000875af1925050508015612f8a57506040513d601f19601f82011682018060405250810190612f879190615320565b60015b61302f57612f9661535a565b806308c379a003612ff25750612faa61537c565b80612fb55750612ff4565b806040517f08c379a0000000000000000000000000000000000000000000000000000000008152600401612fe99190613d92565b60405180910390fd5b505b6040517f08c379a00000000000000000000000000000000000000000000000000000000081526004016130269061547e565b60405180910390fd5b63f23a6e6160e01b7bffffffffffffffffffffffffffffffffffffffffffffffffffffffff1916817bffffffffffffffffffffffffffffffffffffffffffffffffffffffff1916146130b6576040517f08c379a00000000000000000000000000000000000000000000000000000000081526004016130ad90615510565b60405180910390fd5b505b505050505050565b600073ffffffffffffffffffffffffffffffffffffffff168473ffffffffffffffffffffffffffffffffffffffff160361312f576040517f08c379a0000000000000000000000000000000000000000000000000000000008152600401613126906155a2565b60405180910390fd5b6000613139611e0a565b9050600061314685612915565b9050600061315385612915565b905061316383898985858961298f565b600080600088815260200190815260200160002060008a73ffffffffffffffffffffffffffffffffffffffff1673ffffffffffffffffffffffffffffffffffffffff168152602001908152602001600020549050858110156131fa576040517f08c379a00000000000000000000000000000000000000000000000000000000081526004016131f190615634565b60405180910390fd5b85810360008089815260200190815260200160002060008b73ffffffffffffffffffffffffffffffffffffffff1673ffffffffffffffffffffffffffffffffffffffff168152602001908152602001600020819055508560008089815260200190815260200160002060008a73ffffffffffffffffffffffffffffffffffffffff1673ffffffffffffffffffffffffffffffffffffffff16815260200190815260200160002060008282546132af9190614f5f565b925050819055508773ffffffffffffffffffffffffffffffffffffffff168973ffffffffffffffffffffffffffffffffffffffff168573ffffffffffffffffffffffffffffffffffffffff167fc3d58168c5ae7397731d063d5bbf3d657854427343f4c083240f7aacaa2d0f628a8a60405161332c929190614e12565b60405180910390a4613342848a8a86868a6129e9565b613350848a8a8a8a8a612ee9565b505050505050505050565b60007fd9b67a26000000000000000000000000000000000000000000000000000000007bffffffffffffffffffffffffffffffffffffffffffffffffffffffff1916827bffffffffffffffffffffffffffffffffffffffffffffffffffffffff1916148061342657507f0e89341c000000000000000000000000000000000000000000000000000000007bffffffffffffffffffffffffffffffffffffffffffffffffffffffff1916827bffffffffffffffffffffffffffffffffffffffffffffffffffffffff1916145b80613436575061343582613899565b5b9050919050565b60606134638273ffffffffffffffffffffffffffffffffffffffff16601460ff1661346a565b9050919050565b60606000600283600261347d919061499c565b6134879190614f5f565b67ffffffffffffffff8111156134a05761349f613b96565b5b6040519080825280601f01601f1916602001820160405280156134d25781602001600182028036833780820191505090505b5090507f30000000000000000000000000000000000000000000000000000000000000008160008151811061350a57613509614be5565b5b60200101907effffffffffffffffffffffffffffffffffffffffffffffffffffffffffffff1916908160001a9053507f78000000000000000000000000000000000000000000000000000000000000008160018151811061356e5761356d614be5565b5b60200101907effffffffffffffffffffffffffffffffffffffffffffffffffffffffffffff1916908160001a905350600060018460026135ae919061499c565b6135b89190614f5f565b90505b6001811115613658577f3031323334353637383961626364656600000000000000000000000000000000600f8616601081106135fa576135f9614be5565b5b1a60f81b82828151811061361157613610614be5565b5b60200101907effffffffffffffffffffffffffffffffffffffffffffffffffffffffffffff1916908160001a905350600485901c945080613651906156ae565b90506135bb565b506000841461369c576040517f08c379a000000000000000000000000000000000000000000000000000000000815260040161369390615723565b60405180910390fd5b8091505092915050565b6136b4868686868686613903565b600073ffffffffffffffffffffffffffffffffffffffff168573ffffffffffffffffffffffffffffffffffffffff16036137655760005b83518110156137635782818151811061370757613706614be5565b5b60200260200101516003600086848151811061372657613725614be5565b5b60200260200101518152602001908152602001600020600082825461374b9190614f5f565b925050819055508061375c90614c14565b90506136eb565b505b600073ffffffffffffffffffffffffffffffffffffffff168473ffffffffffffffffffffffffffffffffffffffff160361386e5760005b835181101561386c5760008482815181106137ba576137b9614be5565b5b6020026020010151905060008483815181106137d9576137d8614be5565b5b602002602001015190506000600360008481526020019081526020016000205490508181101561383e576040517f08c379a0000000000000000000000000000000000000000000000000000000008152600401613835906157b5565b60405180910390fd5b81810360036000858152602001908152602001600020819055505050508061386590614c14565b905061379c565b505b505050505050565b6000808273ffffffffffffffffffffffffffffffffffffffff163b119050919050565b60007f01ffc9a7000000000000000000000000000000000000000000000000000000007bffffffffffffffffffffffffffffffffffffffffffffffffffffffff1916827bffffffffffffffffffffffffffffffffffffffffffffffffffffffff1916149050919050565b505050505050565b82805461391790614848565b90600052602060002090601f0160209004810192826139395760008555613980565b82601f1061395257805160ff1916838001178555613980565b82800160010185558215613980579182015b8281111561397f578251825591602001919060010190613964565b5b50905061398d9190613991565b5090565b5b808211156139aa576000816000905550600101613992565b5090565b6000604051905090565b600080fd5b600080fd5b600073ffffffffffffffffffffffffffffffffffffffff82169050919050565b60006139ed826139c2565b9050919050565b6139fd816139e2565b8114613a0857600080fd5b50565b600081359050613a1a816139f4565b92915050565b6000819050919050565b613a3381613a20565b8114613a3e57600080fd5b50565b600081359050613a5081613a2a565b92915050565b60008060408385031215613a6d57613a6c6139b8565b5b6000613a7b85828601613a0b565b9250506020613a8c85828601613a41565b9150509250929050565b613a9f81613a20565b82525050565b6000602082019050613aba6000830184613a96565b92915050565b60007fffffffff0000000000000000000000000000000000000000000000000000000082169050919050565b613af581613ac0565b8114613b0057600080fd5b50565b600081359050613b1281613aec565b92915050565b600060208284031215613b2e57613b2d6139b8565b5b6000613b3c84828501613b03565b91505092915050565b60008115159050919050565b613b5a81613b45565b82525050565b6000602082019050613b756000830184613b51565b92915050565b600080fd5b600080fd5b6000601f19601f8301169050919050565b7f4e487b7100000000000000000000000000000000000000000000000000000000600052604160045260246000fd5b613bce82613b85565b810181811067ffffffffffffffff82111715613bed57613bec613b96565b5b80604052505050565b6000613c006139ae565b9050613c0c8282613bc5565b919050565b600067ffffffffffffffff821115613c2c57613c2b613b96565b5b613c3582613b85565b9050602081019050919050565b82818337600083830152505050565b6000613c64613c5f84613c11565b613bf6565b905082815260208101848484011115613c8057613c7f613b80565b5b613c8b848285613c42565b509392505050565b600082601f830112613ca857613ca7613b7b565b5b8135613cb8848260208601613c51565b91505092915050565b600060208284031215613cd757613cd66139b8565b5b600082013567ffffffffffffffff811115613cf557613cf46139bd565b5b613d0184828501613c93565b91505092915050565b600081519050919050565b600082825260208201905092915050565b60005b83811015613d44578082015181840152602081019050613d29565b83811115613d53576000848401525b50505050565b6000613d6482613d0a565b613d6e8185613d15565b9350613d7e818560208601613d26565b613d8781613b85565b840191505092915050565b60006020820190508181036000830152613dac8184613d59565b905092915050565b600060208284031215613dca57613dc96139b8565b5b6000613dd884828501613a41565b91505092915050565b600080fd5b600080fd5b60008083601f840112613e0157613e00613b7b565b5b8235905067ffffffffffffffff811115613e1e57613e1d613de1565b5b602083019150836020820283011115613e3a57613e39613de6565b5b9250929050565b60008083601f840112613e5757613e56613b7b565b5b8235905067ffffffffffffffff811115613e7457613e73613de1565b5b602083019150836001820283011115613e9057613e8f613de6565b5b9250929050565b60008060008060008060006080888a031215613eb657613eb56139b8565b5b6000613ec48a828b01613a0b565b975050602088013567ffffffffffffffff811115613ee557613ee46139bd565b5b613ef18a828b01613deb565b9650965050604088013567ffffffffffffffff811115613f1457613f136139bd565b5b613f208a828b01613deb565b9450945050606088013567ffffffffffffffff811115613f4357613f426139bd565b5b613f4f8a828b01613e41565b925092505092959891949750929550565b6000819050919050565b613f7381613f60565b8114613f7e57600080fd5b50565b600081359050613f9081613f6a565b92915050565b600060208284031215613fac57613fab6139b8565b5b6000613fba84828501613f81565b91505092915050565b613fcc81613f60565b82525050565b6000602082019050613fe76000830184613fc3565b92915050565b60008060408385031215614004576140036139b8565b5b600061401285828601613a41565b925050602061402385828601613a41565b9150509250929050565b614036816139e2565b82525050565b6000604082019050614051600083018561402d565b61405e6020830184613a96565b9392505050565b600067ffffffffffffffff8211156140805761407f613b96565b5b602082029050602081019050919050565b60006140a461409f84614065565b613bf6565b905080838252602082019050602084028301858111156140c7576140c6613de6565b5b835b818110156140f057806140dc8882613a41565b8452602084019350506020810190506140c9565b5050509392505050565b600082601f83011261410f5761410e613b7b565b5b813561411f848260208601614091565b91505092915050565b600067ffffffffffffffff82111561414357614142613b96565b5b61414c82613b85565b9050602081019050919050565b600061416c61416784614128565b613bf6565b90508281526020810184848401111561418857614187613b80565b5b614193848285613c42565b509392505050565b600082601f8301126141b0576141af613b7b565b5b81356141c0848260208601614159565b91505092915050565b600080600080600060a086880312156141e5576141e46139b8565b5b60006141f388828901613a0b565b955050602061420488828901613a0b565b945050604086013567ffffffffffffffff811115614225576142246139bd565b5b614231888289016140fa565b935050606086013567ffffffffffffffff811115614252576142516139bd565b5b61425e888289016140fa565b925050608086013567ffffffffffffffff81111561427f5761427e6139bd565b5b61428b8882890161419b565b9150509295509295909350565b600080604083850312156142af576142ae6139b8565b5b60006142bd85828601613f81565b92505060206142ce85828601613a0b565b9150509250929050565b600067ffffffffffffffff8211156142f3576142f2613b96565b5b602082029050602081019050919050565b6000614317614312846142d8565b613bf6565b9050808382526020820190506020840283018581111561433a57614339613de6565b5b835b81811015614363578061434f8882613a0b565b84526020840193505060208101905061433c565b5050509392505050565b600082601f83011261438257614381613b7b565b5b8135614392848260208601614304565b91505092915050565b600080604083850312156143b2576143b16139b8565b5b600083013567ffffffffffffffff8111156143d0576143cf6139bd565b5b6143dc8582860161436d565b925050602083013567ffffffffffffffff8111156143fd576143fc6139bd565b5b614409858286016140fa565b9150509250929050565b600081519050919050565b600082825260208201905092915050565b6000819050602082019050919050565b61444881613a20565b82525050565b600061445a838361443f565b60208301905092915050565b6000602082019050919050565b600061447e82614413565b614488818561441e565b93506144938361442f565b8060005b838110156144c45781516144ab888261444e565b97506144b683614466565b925050600181019050614497565b5085935050505092915050565b600060208201905081810360008301526144eb8184614473565b905092915050565b600060208284031215614509576145086139b8565b5b600061451784828501613a0b565b91505092915050565b60008060008060006060868803121561453c5761453b6139b8565b5b600061454a88828901613a0b565b955050602086013567ffffffffffffffff81111561456b5761456a6139bd565b5b61457788828901613deb565b9450945050604086013567ffffffffffffffff81111561459a576145996139bd565b5b6145a688828901613deb565b92509250509295509295909350565b60006020820190506145ca600083018461402d565b92915050565b600080600080606085870312156145ea576145e96139b8565b5b60006145f887828801613a0b565b945050602061460987828801613a41565b935050604085013567ffffffffffffffff81111561462a576146296139bd565b5b61463687828801613e41565b925092505092959194509250565b61464d81613b45565b811461465857600080fd5b50565b60008135905061466a81614644565b92915050565b60008060408385031215614687576146866139b8565b5b600061469585828601613a0b565b92505060206146a68582860161465b565b9150509250929050565b600080604083850312156146c7576146c66139b8565b5b60006146d585828601613a0b565b92505060206146e685828601613a0b565b9150509250929050565b600080600080600060a0868803121561470c5761470b6139b8565b5b600061471a88828901613a0b565b955050602061472b88828901613a0b565b945050604061473c88828901613a41565b935050606061474d88828901613a41565b925050608086013567ffffffffffffffff81111561476e5761476d6139bd565b5b61477a8882890161419b565b9150509295509295909350565b7f455243313135353a2061646472657373207a65726f206973206e6f742061207660008201527f616c6964206f776e657200000000000000000000000000000000000000000000602082015250565b60006147e3602a83613d15565b91506147ee82614787565b604082019050919050565b60006020820190508181036000830152614812816147d6565b9050919050565b7f4e487b7100000000000000000000000000000000000000000000000000000000600052602260045260246000fd5b6000600282049050600182168061486057607f821691505b60208210810361487357614872614819565b5b50919050565b600081905092915050565b60008190508160005260206000209050919050565b600081546148a681614848565b6148b08186614879565b945060018216600081146148cb57600181146148dc5761490f565b60ff1983168652818601935061490f565b6148e585614884565b60005b83811015614907578154818901526001820191506020810190506148e8565b838801955050505b50505092915050565b600061492382613d0a565b61492d8185614879565b935061493d818560208601613d26565b80840191505092915050565b60006149558285614899565b91506149618284614918565b91508190509392505050565b7f4e487b7100000000000000000000000000000000000000000000000000000000600052601160045260246000fd5b60006149a782613a20565b91506149b283613a20565b9250817fffffffffffffffffffffffffffffffffffffffffffffffffffffffffffffffff04831182151516156149eb576149ea61496d565b5b828202905092915050565b7f4e487b7100000000000000000000000000000000000000000000000000000000600052601260045260246000fd5b6000614a3082613a20565b9150614a3b83613a20565b925082614a4b57614a4a6149f6565b5b828204905092915050565b6000604082019050614a6b600083018561402d565b614a78602083018461402d565b9392505050565b600081519050614a8e81614644565b92915050565b600060208284031215614aaa57614aa96139b8565b5b6000614ab884828501614a7f565b91505092915050565b7f416363657373436f6e74726f6c3a2063616e206f6e6c792072656e6f756e636560008201527f20726f6c657320666f722073656c660000000000000000000000000000000000602082015250565b6000614b1d602f83613d15565b9150614b2882614ac1565b604082019050919050565b60006020820190508181036000830152614b4c81614b10565b9050919050565b7f455243313135353a206163636f756e747320616e6420696473206c656e67746860008201527f206d69736d617463680000000000000000000000000000000000000000000000602082015250565b6000614baf602983613d15565b9150614bba82614b53565b604082019050919050565b60006020820190508181036000830152614bde81614ba2565b9050919050565b7f4e487b7100000000000000000000000000000000000000000000000000000000600052603260045260246000fd5b6000614c1f82613a20565b91507fffffffffffffffffffffffffffffffffffffffffffffffffffffffffffffffff8203614c5157614c5061496d565b5b600182019050919050565b7f4f776e61626c653a206e6577206f776e657220697320746865207a65726f206160008201527f6464726573730000000000000000000000000000000000000000000000000000602082015250565b6000614cb8602683613d15565b9150614cc382614c5c565b604082019050919050565b60006020820190508181036000830152614ce781614cab565b9050919050565b7f455243313135353a206275726e2066726f6d20746865207a65726f206164647260008201527f6573730000000000000000000000000000000000000000000000000000000000602082015250565b6000614d4a602383613d15565b9150614d5582614cee565b604082019050919050565b60006020820190508181036000830152614d7981614d3d565b9050919050565b7f455243313135353a206275726e20616d6f756e7420657863656564732062616c60008201527f616e636500000000000000000000000000000000000000000000000000000000602082015250565b6000614ddc602483613d15565b9150614de782614d80565b604082019050919050565b60006020820190508181036000830152614e0b81614dcf565b9050919050565b6000604082019050614e276000830185613a96565b614e346020830184613a96565b9392505050565b7f455243313135353a206d696e7420746f20746865207a65726f2061646472657360008201527f7300000000000000000000000000000000000000000000000000000000000000602082015250565b6000614e97602183613d15565b9150614ea282614e3b565b604082019050919050565b60006020820190508181036000830152614ec681614e8a565b9050919050565b7f455243313135353a2069647320616e6420616d6f756e7473206c656e6774682060008201527f6d69736d61746368000000000000000000000000000000000000000000000000602082015250565b6000614f29602883613d15565b9150614f3482614ecd565b604082019050919050565b60006020820190508181036000830152614f5881614f1c565b9050919050565b6000614f6a82613a20565b9150614f7583613a20565b9250827fffffffffffffffffffffffffffffffffffffffffffffffffffffffffffffffff03821115614faa57614fa961496d565b5b828201905092915050565b60006040820190508181036000830152614fcf8185614473565b90508181036020830152614fe38184614473565b90509392505050565b7f455243313135353a2063616c6c6572206973206e6f7420746f6b656e206f776e60008201527f6572206f7220617070726f766564000000000000000000000000000000000000602082015250565b6000615048602e83613d15565b915061505382614fec565b604082019050919050565b600060208201905081810360008301526150778161503b565b9050919050565b7f4f776e61626c653a2063616c6c6572206973206e6f7420746865206f776e6572600082015250565b60006150b4602083613d15565b91506150bf8261507e565b602082019050919050565b600060208201905081810360008301526150e3816150a7565b9050919050565b7f455243313135353a2073657474696e6720617070726f76616c2073746174757360008201527f20666f722073656c660000000000000000000000000000000000000000000000602082015250565b6000615146602983613d15565b9150615151826150ea565b604082019050919050565b6000602082019050818103600083015261517581615139565b9050919050565b7f416363657373436f6e74726f6c3a206163636f756e7420000000000000000000600082015250565b60006151b2601783614879565b91506151bd8261517c565b601782019050919050565b7f206973206d697373696e6720726f6c6520000000000000000000000000000000600082015250565b60006151fe601183614879565b9150615209826151c8565b601182019050919050565b600061521f826151a5565b915061522b8285614918565b9150615236826151f1565b91506152428284614918565b91508190509392505050565b600081519050919050565b600082825260208201905092915050565b60006152758261524e565b61527f8185615259565b935061528f818560208601613d26565b61529881613b85565b840191505092915050565b600060a0820190506152b8600083018861402d565b6152c5602083018761402d565b81810360408301526152d78186614473565b905081810360608301526152eb8185614473565b905081810360808301526152ff818461526a565b90509695505050505050565b60008151905061531a81613aec565b92915050565b600060208284031215615336576153356139b8565b5b60006153448482850161530b565b91505092915050565b60008160e01c9050919050565b600060033d11156153795760046000803e61537660005161534d565b90505b90565b600060443d106154095761538e6139ae565b60043d036004823e80513d602482011167ffffffffffffffff821117156153b6575050615409565b808201805167ffffffffffffffff8111156153d45750505050615409565b80602083010160043d0385018111156153f1575050505050615409565b61540082602001850186613bc5565b82955050505050505b90565b7f455243313135353a207472616e7366657220746f206e6f6e2d4552433131353560008201527f526563656976657220696d706c656d656e746572000000000000000000000000602082015250565b6000615468603483613d15565b91506154738261540c565b604082019050919050565b600060208201905081810360008301526154978161545b565b9050919050565b7f455243313135353a204552433131353552656365697665722072656a6563746560008201527f6420746f6b656e73000000000000000000000000000000000000000000000000602082015250565b60006154fa602883613d15565b91506155058261549e565b604082019050919050565b60006020820190508181036000830152615529816154ed565b9050919050565b7f455243313135353a207472616e7366657220746f20746865207a65726f20616460008201527f6472657373000000000000000000000000000000000000000000000000000000602082015250565b600061558c602583613d15565b915061559782615530565b604082019050919050565b600060208201905081810360008301526155bb8161557f565b9050919050565b7f455243313135353a20696e73756666696369656e742062616c616e636520666f60008201527f72207472616e7366657200000000000000000000000000000000000000000000602082015250565b600061561e602a83613d15565b9150615629826155c2565b604082019050919050565b6000602082019050818103600083015261564d81615611565b9050919050565b600060a082019050615669600083018861402d565b615676602083018761402d565b6156836040830186613a96565b6156906060830185613a96565b81810360808301526156a2818461526a565b90509695505050505050565b60006156b982613a20565b9150600082036156cc576156cb61496d565b5b600182039050919050565b7f537472696e67733a20686578206c656e67746820696e73756666696369656e74600082015250565b600061570d602083613d15565b9150615718826156d7565b602082019050919050565b6000602082019050818103600083015261573c81615700565b9050919050565b7f455243313135353a206275726e20616d6f756e74206578636565647320746f7460008201527f616c537570706c79000000000000000000000000000000000000000000000000602082015250565b600061579f602883613d15565b91506157aa82615743565b604082019050919050565b600060208201905081810360008301526157ce81615792565b905091905056fea2646970667358221220fefe81deb84d4e40fac891f473c27d04dd1b51119a6233b6c75e831fddc1f17d64736f6c634300080d0033",
  "linkReferences": {},
  "deployedLinkReferences": {}
}