{
  "_format": "hh-sol-artifact-1",
  "contractName": "EndersPack",
  "sourceName": "contracts/Packs/EndersPack.sol",
  "abi": [
    {
      "inputs": [
        {
          "internalType": "string",
          "name": "_tokenURIPrefix",
          "type": "string"
        }
      ],
      "stateMutability": "nonpayable",
      "type": "constructor"
    },
    {
      "anonymous": false,
      "inputs": [
        {
          "indexed": true,
          "internalType": "address",
          "name": "account",
          "type": "address"
        },
        {
          "indexed": true,
          "internalType": "address",
          "name": "operator",
          "type": "address"
        },
        {
          "indexed": false,
          "internalType": "bool",
          "name": "approved",
          "type": "bool"
        }
      ],
      "name": "ApprovalForAll",
      "type": "event"
    },
    {
      "anonymous": false,
      "inputs": [
        {
          "indexed": true,
          "internalType": "uint256",
          "name": "optionId",
          "type": "uint256"
        },
        {
          "indexed": true,
          "internalType": "address",
          "name": "buyer",
          "type": "address"
        },
        {
          "indexed": false,
          "internalType": "uint256",
          "name": "boxesPurchased",
          "type": "uint256"
        },
        {
          "indexed": false,
          "internalType": "uint256",
          "name": "itemsMinted",
          "type": "uint256"
        }
      ],
      "name": "LootBoxOpened",
      "type": "event"
    },
    {
      "anonymous": false,
      "inputs": [
        {
          "indexed": true,
          "internalType": "bytes32",
          "name": "role",
          "type": "bytes32"
        },
        {
          "indexed": true,
          "internalType": "bytes32",
          "name": "previousAdminRole",
          "type": "bytes32"
        },
        {
          "indexed": true,
          "internalType": "bytes32",
          "name": "newAdminRole",
          "type": "bytes32"
        }
      ],
      "name": "RoleAdminChanged",
      "type": "event"
    },
    {
      "anonymous": false,
      "inputs": [
        {
          "indexed": true,
          "internalType": "bytes32",
          "name": "role",
          "type": "bytes32"
        },
        {
          "indexed": true,
          "internalType": "address",
          "name": "account",
          "type": "address"
        },
        {
          "indexed": true,
          "internalType": "address",
          "name": "sender",
          "type": "address"
        }
      ],
      "name": "RoleGranted",
      "type": "event"
    },
    {
      "anonymous": false,
      "inputs": [
        {
          "indexed": true,
          "internalType": "bytes32",
          "name": "role",
          "type": "bytes32"
        },
        {
          "indexed": true,
          "internalType": "address",
          "name": "account",
          "type": "address"
        },
        {
          "indexed": true,
          "internalType": "address",
          "name": "sender",
          "type": "address"
        }
      ],
      "name": "RoleRevoked",
      "type": "event"
    },
    {
      "anonymous": false,
      "inputs": [
        {
          "indexed": true,
          "internalType": "address",
          "name": "operator",
          "type": "address"
        },
        {
          "indexed": true,
          "internalType": "address",
          "name": "from",
          "type": "address"
        },
        {
          "indexed": true,
          "internalType": "address",
          "name": "to",
          "type": "address"
        },
        {
          "indexed": false,
          "internalType": "uint256[]",
          "name": "ids",
          "type": "uint256[]"
        },
        {
          "indexed": false,
          "internalType": "uint256[]",
          "name": "values",
          "type": "uint256[]"
        }
      ],
      "name": "TransferBatch",
      "type": "event"
    },
    {
      "anonymous": false,
      "inputs": [
        {
          "indexed": true,
          "internalType": "address",
          "name": "operator",
          "type": "address"
        },
        {
          "indexed": true,
          "internalType": "address",
          "name": "from",
          "type": "address"
        },
        {
          "indexed": true,
          "internalType": "address",
          "name": "to",
          "type": "address"
        },
        {
          "indexed": false,
          "internalType": "uint256",
          "name": "id",
          "type": "uint256"
        },
        {
          "indexed": false,
          "internalType": "uint256",
          "name": "value",
          "type": "uint256"
        }
      ],
      "name": "TransferSingle",
      "type": "event"
    },
    {
      "anonymous": false,
      "inputs": [
        {
          "indexed": false,
          "internalType": "string",
          "name": "value",
          "type": "string"
        },
        {
          "indexed": true,
          "internalType": "uint256",
          "name": "id",
          "type": "uint256"
        }
      ],
      "name": "URI",
      "type": "event"
    },
    {
      "inputs": [],
      "name": "DEFAULT_ADMIN_ROLE",
      "outputs": [
        {
          "internalType": "bytes32",
          "name": "",
          "type": "bytes32"
        }
      ],
      "stateMutability": "view",
      "type": "function"
    },
    {
      "inputs": [],
      "name": "PACKS_ROLE",
      "outputs": [
        {
          "internalType": "bytes32",
          "name": "",
          "type": "bytes32"
        }
      ],
      "stateMutability": "view",
      "type": "function"
    },
    {
      "inputs": [],
      "name": "SUPPLY_ROLE",
      "outputs": [
        {
          "internalType": "bytes32",
          "name": "",
          "type": "bytes32"
        }
      ],
      "stateMutability": "view",
      "type": "function"
    },
    {
      "inputs": [],
      "name": "URI_SETTER_ROLE",
      "outputs": [
        {
          "internalType": "bytes32",
          "name": "",
          "type": "bytes32"
        }
      ],
      "stateMutability": "view",
      "type": "function"
    },
    {
      "inputs": [
        {
          "internalType": "address",
          "name": "account",
          "type": "address"
        },
        {
          "internalType": "uint256",
          "name": "id",
          "type": "uint256"
        }
      ],
      "name": "balanceOf",
      "outputs": [
        {
          "internalType": "uint256",
          "name": "",
          "type": "uint256"
        }
      ],
      "stateMutability": "view",
      "type": "function"
    },
    {
      "inputs": [
        {
          "internalType": "address[]",
          "name": "accounts",
          "type": "address[]"
        },
        {
          "internalType": "uint256[]",
          "name": "ids",
          "type": "uint256[]"
        }
      ],
      "name": "balanceOfBatch",
      "outputs": [
        {
          "internalType": "uint256[]",
          "name": "",
          "type": "uint256[]"
        }
      ],
      "stateMutability": "view",
      "type": "function"
    },
    {
      "inputs": [],
      "name": "baseURI",
      "outputs": [
        {
          "internalType": "string",
          "name": "",
          "type": "string"
        }
      ],
      "stateMutability": "view",
      "type": "function"
    },
    {
      "inputs": [
        {
          "internalType": "address",
          "name": "from",
          "type": "address"
        },
        {
          "internalType": "uint256[]",
          "name": "ids",
          "type": "uint256[]"
        },
        {
          "internalType": "uint256[]",
          "name": "amounts",
          "type": "uint256[]"
        }
      ],
      "name": "burnBatchFor",
      "outputs": [],
      "stateMutability": "nonpayable",
      "type": "function"
    },
    {
      "inputs": [
        {
          "internalType": "address",
          "name": "to",
          "type": "address"
        },
        {
          "internalType": "uint256",
          "name": "id",
          "type": "uint256"
        }
      ],
      "name": "burnFor",
      "outputs": [],
      "stateMutability": "nonpayable",
      "type": "function"
    },
    {
      "inputs": [
        {
          "internalType": "uint256",
          "name": "id",
          "type": "uint256"
        }
      ],
      "name": "exists",
      "outputs": [
        {
          "internalType": "bool",
          "name": "",
          "type": "bool"
        }
      ],
      "stateMutability": "view",
      "type": "function"
    },
    {
      "inputs": [
        {
          "internalType": "bytes32",
          "name": "role",
          "type": "bytes32"
        }
      ],
      "name": "getRoleAdmin",
      "outputs": [
        {
          "internalType": "bytes32",
          "name": "",
          "type": "bytes32"
        }
      ],
      "stateMutability": "view",
      "type": "function"
    },
    {
      "inputs": [
        {
          "internalType": "bytes32",
          "name": "role",
          "type": "bytes32"
        },
        {
          "internalType": "address",
          "name": "account",
          "type": "address"
        }
      ],
      "name": "grantRole",
      "outputs": [],
      "stateMutability": "nonpayable",
      "type": "function"
    },
    {
      "inputs": [
        {
          "internalType": "bytes32",
          "name": "role",
          "type": "bytes32"
        },
        {
          "internalType": "address",
          "name": "account",
          "type": "address"
        }
      ],
      "name": "hasRole",
      "outputs": [
        {
          "internalType": "bool",
          "name": "",
          "type": "bool"
        }
      ],
      "stateMutability": "view",
      "type": "function"
    },
    {
      "inputs": [
        {
          "internalType": "address",
          "name": "account",
          "type": "address"
        },
        {
          "internalType": "address",
          "name": "operator",
          "type": "address"
        }
      ],
      "name": "isApprovedForAll",
      "outputs": [
        {
          "internalType": "bool",
          "name": "",
          "type": "bool"
        }
      ],
      "stateMutability": "view",
      "type": "function"
    },
    {
      "inputs": [
        {
          "internalType": "address",
          "name": "_to",
          "type": "address"
        },
        {
          "internalType": "uint256",
          "name": "_optionId",
          "type": "uint256"
        },
        {
          "internalType": "bytes",
          "name": "_data",
          "type": "bytes"
        }
      ],
      "name": "mint",
      "outputs": [],
      "stateMutability": "nonpayable",
      "type": "function"
    },
    {
      "inputs": [
        {
          "internalType": "address",
          "name": "to",
          "type": "address"
        },
        {
          "internalType": "uint256[]",
          "name": "ids",
          "type": "uint256[]"
        },
        {
          "internalType": "uint256[]",
          "name": "amounts",
          "type": "uint256[]"
        },
        {
          "internalType": "bytes",
          "name": "",
          "type": "bytes"
        }
      ],
      "name": "mintBatch",
      "outputs": [],
      "stateMutability": "nonpayable",
      "type": "function"
    },
    {
      "inputs": [
        {
          "internalType": "address",
          "name": "operator",
          "type": "address"
        },
        {
          "internalType": "address",
          "name": "from",
          "type": "address"
        },
        {
          "internalType": "uint256[]",
          "name": "ids",
          "type": "uint256[]"
        },
        {
          "internalType": "uint256[]",
          "name": "values",
          "type": "uint256[]"
        },
        {
          "internalType": "bytes",
          "name": "data",
          "type": "bytes"
        }
      ],
      "name": "onERC1155BatchReceived",
      "outputs": [
        {
          "internalType": "bytes4",
          "name": "",
          "type": "bytes4"
        }
      ],
      "stateMutability": "nonpayable",
      "type": "function"
    },
    {
      "inputs": [
        {
          "internalType": "address",
          "name": "operator",
          "type": "address"
        },
        {
          "internalType": "address",
          "name": "from",
          "type": "address"
        },
        {
          "internalType": "uint256",
          "name": "id",
          "type": "uint256"
        },
        {
          "internalType": "uint256",
          "name": "value",
          "type": "uint256"
        },
        {
          "internalType": "bytes",
          "name": "data",
          "type": "bytes"
        }
      ],
      "name": "onERC1155Received",
      "outputs": [
        {
          "internalType": "bytes4",
          "name": "",
          "type": "bytes4"
        }
      ],
      "stateMutability": "nonpayable",
      "type": "function"
    },
    {
      "inputs": [
        {
          "internalType": "bytes32",
          "name": "role",
          "type": "bytes32"
        },
        {
          "internalType": "address",
          "name": "account",
          "type": "address"
        }
      ],
      "name": "renounceRole",
      "outputs": [],
      "stateMutability": "nonpayable",
      "type": "function"
    },
    {
      "inputs": [
        {
          "internalType": "bytes32",
          "name": "role",
          "type": "bytes32"
        },
        {
          "internalType": "address",
          "name": "account",
          "type": "address"
        }
      ],
      "name": "revokeRole",
      "outputs": [],
      "stateMutability": "nonpayable",
      "type": "function"
    },
    {
      "inputs": [
        {
          "internalType": "address",
          "name": "from",
          "type": "address"
        },
        {
          "internalType": "address",
          "name": "to",
          "type": "address"
        },
        {
          "internalType": "uint256[]",
          "name": "ids",
          "type": "uint256[]"
        },
        {
          "internalType": "uint256[]",
          "name": "amounts",
          "type": "uint256[]"
        },
        {
          "internalType": "bytes",
          "name": "data",
          "type": "bytes"
        }
      ],
      "name": "safeBatchTransferFrom",
      "outputs": [],
      "stateMutability": "nonpayable",
      "type": "function"
    },
    {
      "inputs": [
        {
          "internalType": "address",
          "name": "from",
          "type": "address"
        },
        {
          "internalType": "address",
          "name": "to",
          "type": "address"
        },
        {
          "internalType": "uint256",
          "name": "id",
          "type": "uint256"
        },
        {
          "internalType": "uint256",
          "name": "amount",
          "type": "uint256"
        },
        {
          "internalType": "bytes",
          "name": "data",
          "type": "bytes"
        }
      ],
      "name": "safeTransferFrom",
      "outputs": [],
      "stateMutability": "nonpayable",
      "type": "function"
    },
    {
      "inputs": [
        {
          "internalType": "address",
          "name": "operator",
          "type": "address"
        },
        {
          "internalType": "bool",
          "name": "approved",
          "type": "bool"
        }
      ],
      "name": "setApprovalForAll",
      "outputs": [],
      "stateMutability": "nonpayable",
      "type": "function"
    },
    {
      "inputs": [
        {
          "internalType": "uint256",
          "name": "_option",
          "type": "uint256"
        },
        {
          "internalType": "uint256",
          "name": "_mintLimit",
          "type": "uint256"
        },
        {
          "internalType": "uint256[]",
          "name": "_typeIds",
          "type": "uint256[]"
        },
        {
          "internalType": "uint256[]",
          "name": "_typeInferiorLimit",
          "type": "uint256[]"
        },
        {
          "internalType": "uint256[]",
          "name": "_typeSuperiorLimit",
          "type": "uint256[]"
        }
      ],
      "name": "setOptionSettings",
      "outputs": [],
      "stateMutability": "nonpayable",
      "type": "function"
    },
    {
      "inputs": [
        {
          "internalType": "address",
          "name": "_factoryAddress",
          "type": "address"
        },
        {
          "internalType": "uint256",
          "name": "_numOptions",
          "type": "uint256"
        },
        {
          "internalType": "uint256",
          "name": "_numTypes",
          "type": "uint256"
        },
        {
          "internalType": "uint256",
          "name": "_seed",
          "type": "uint256"
        }
      ],
      "name": "setState",
      "outputs": [],
      "stateMutability": "nonpayable",
      "type": "function"
    },
    {
      "inputs": [
        {
          "internalType": "uint256",
          "name": "_typeId",
          "type": "uint256"
        },
        {
          "internalType": "uint256[]",
          "name": "_tokenIds",
          "type": "uint256[]"
        }
      ],
      "name": "setTokensForTypes",
      "outputs": [],
      "stateMutability": "nonpayable",
      "type": "function"
    },
    {
      "inputs": [
        {
          "internalType": "string",
          "name": "newuri",
          "type": "string"
        }
      ],
      "name": "setURI",
      "outputs": [],
      "stateMutability": "nonpayable",
      "type": "function"
    },
    {
      "inputs": [],
      "name": "state",
      "outputs": [
        {
          "internalType": "address",
          "name": "factoryAddress",
          "type": "address"
        },
        {
          "internalType": "uint256",
          "name": "numOptions",
          "type": "uint256"
        },
        {
          "internalType": "uint256",
          "name": "numTypes",
          "type": "uint256"
        },
        {
          "internalType": "uint256",
          "name": "seed",
          "type": "uint256"
        }
      ],
      "stateMutability": "view",
      "type": "function"
    },
    {
      "inputs": [
        {
          "internalType": "bytes4",
          "name": "interfaceId",
          "type": "bytes4"
        }
      ],
      "name": "supportsInterface",
      "outputs": [
        {
          "internalType": "bool",
          "name": "",
          "type": "bool"
        }
      ],
      "stateMutability": "view",
      "type": "function"
    },
    {
      "inputs": [
        {
          "internalType": "uint256",
          "name": "id",
          "type": "uint256"
        }
      ],
      "name": "totalSupply",
      "outputs": [
        {
          "internalType": "uint256",
          "name": "",
          "type": "uint256"
        }
      ],
      "stateMutability": "view",
      "type": "function"
    },
    {
      "inputs": [
        {
          "internalType": "uint256",
          "name": "_optionId",
          "type": "uint256"
        },
        {
          "internalType": "uint256",
          "name": "_amount",
          "type": "uint256"
        }
      ],
      "name": "unpack",
      "outputs": [
        {
          "internalType": "uint256",
          "name": "",
          "type": "uint256"
        }
      ],
      "stateMutability": "nonpayable",
      "type": "function"
    },
    {
      "inputs": [
        {
          "internalType": "uint256",
          "name": "id",
          "type": "uint256"
        }
      ],
      "name": "uri",
      "outputs": [
        {
          "internalType": "string",
          "name": "",
          "type": "string"
        }
      ],
      "stateMutability": "view",
      "type": "function"
    }
  ],
  "bytecode": "0x60806040523480156200001157600080fd5b50604051620063c0380380620063c08339818101604052810190620000379190620004fa565b6040518060200160405280600081525062000058816200012c60201b60201c565b506001600481905550806006908051906020019062000079929190620002ad565b506200008f6000801b336200014860201b60201c565b620000c17fa0db453afbdd578961ee678b162bb5819004b00d6e9ac3163ea127c4e17e7d65336200014860201b60201c565b620000f37fbc1f3f7c406085be62d227092f4fd5af86922a19f3a87e6199f14015341eb9d9336200014860201b60201c565b620001257f7804d923f43a17d325d77e781528e0793b2edd9890ab45fc64efd7b4b427744c336200014860201b60201c565b50620005af565b806002908051906020019062000144929190620002ad565b5050565b6200015a82826200023a60201b60201c565b620002365760016005600084815260200190815260200160002060000160008373ffffffffffffffffffffffffffffffffffffffff1673ffffffffffffffffffffffffffffffffffffffff16815260200190815260200160002060006101000a81548160ff021916908315150217905550620001db620002a560201b60201c565b73ffffffffffffffffffffffffffffffffffffffff168173ffffffffffffffffffffffffffffffffffffffff16837f2f8788117e7eff1d82e926ec794901d17c78024a50270940304540a733656f0d60405160405180910390a45b5050565b60006005600084815260200190815260200160002060000160008373ffffffffffffffffffffffffffffffffffffffff1673ffffffffffffffffffffffffffffffffffffffff16815260200190815260200160002060009054906101000a900460ff16905092915050565b600033905090565b828054620002bb906200057a565b90600052602060002090601f016020900481019282620002df57600085556200032b565b82601f10620002fa57805160ff19168380011785556200032b565b828001600101855582156200032b579182015b828111156200032a5782518255916020019190600101906200030d565b5b5090506200033a91906200033e565b5090565b5b80821115620003595760008160009055506001016200033f565b5090565b6000604051905090565b600080fd5b600080fd5b600080fd5b600080fd5b6000601f19601f8301169050919050565b7f4e487b7100000000000000000000000000000000000000000000000000000000600052604160045260246000fd5b620003c6826200037b565b810181811067ffffffffffffffff82111715620003e857620003e76200038c565b5b80604052505050565b6000620003fd6200035d565b90506200040b8282620003bb565b919050565b600067ffffffffffffffff8211156200042e576200042d6200038c565b5b62000439826200037b565b9050602081019050919050565b60005b838110156200046657808201518184015260208101905062000449565b8381111562000476576000848401525b50505050565b6000620004936200048d8462000410565b620003f1565b905082815260208101848484011115620004b257620004b162000376565b5b620004bf84828562000446565b509392505050565b600082601f830112620004df57620004de62000371565b5b8151620004f18482602086016200047c565b91505092915050565b60006020828403121562000513576200051262000367565b5b600082015167ffffffffffffffff8111156200053457620005336200036c565b5b6200054284828501620004c7565b91505092915050565b7f4e487b7100000000000000000000000000000000000000000000000000000000600052602260045260246000fd5b600060028204905060018216806200059357607f821691505b602082108103620005a957620005a86200054b565b5b50919050565b615e0180620005bf6000396000f3fe608060405234801561001057600080fd5b50600436106101ef5760003560e01c80637f3457101161010f578063bc197c81116100a2578063d547741f11610071578063d547741f146105db578063e985e9c5146105f7578063f23a6e6114610627578063f242432a14610657576101ef565b8063bc197c811461052a578063bd34c3911461055a578063bd85b0391461058a578063c19d93fb146105ba576101ef565b806394d008ef116100de57806394d008ef146104b8578063a217fddf146104d4578063a22cb465146104f2578063aec956751461050e576101ef565b80637f34571014610432578063885c2f35146104505780638aedb74b1461046c57806391d1485414610488576101ef565b8063248a9ca3116101875780634e1273f4116101565780634e1273f4146103965780634f558e79146103c65780636c0360eb146103f65780637bc8e14c14610414576101ef565b8063248a9ca3146103125780632eb2c2d6146103425780632f2ff15d1461035e57806336568abe1461037a576101ef565b80630e89341c116101c35780630e89341c1461028e5780631dd319cb146102be5780631f7fdffa146102da57806322629f9e146102f6576101ef565b8062fdd58e146101f457806301ffc9a71461022457806302fe53051461025457806303395cd814610270575b600080fd5b61020e600480360381019061020991906139e0565b610673565b60405161021b9190613a2f565b60405180910390f35b61023e60048036038101906102399190613aa2565b61073b565b60405161024b9190613aea565b60405180910390f35b61026e60048036038101906102699190613c4b565b61074d565b005b610278610792565b6040516102859190613cad565b60405180910390f35b6102a860048036038101906102a39190613cc8565b6107b6565b6040516102b59190613d7d565b60405180910390f35b6102d860048036038101906102d391906139e0565b610816565b005b6102f460048036038101906102ef9190613e55565b610851565b005b610310600480360381019061030b9190613f1e565b610922565b005b61032c60048036038101906103279190613fb1565b6109c3565b6040516103399190613cad565b60405180910390f35b61035c60048036038101906103579190614142565b6109e3565b005b61037860048036038101906103739190614211565b610a84565b005b610394600480360381019061038f9190614211565b610aa5565b005b6103b060048036038101906103ab9190614314565b610b28565b6040516103bd919061444a565b60405180910390f35b6103e060048036038101906103db9190613cc8565b610c41565b6040516103ed9190613aea565b60405180910390f35b6103fe610c55565b60405161040b9190613d7d565b60405180910390f35b61041c610ce3565b6040516104299190613cad565b60405180910390f35b61043a610d07565b6040516104479190613cad565b60405180910390f35b61046a6004803603810190610465919061446c565b610d2b565b005b61048660048036038101906104819190614501565b610dea565b005b6104a2600480360381019061049d9190614211565b610e85565b6040516104af9190613aea565b60405180910390f35b6104d260048036038101906104cd919061455d565b610ef0565b005b6104dc610f83565b6040516104e99190613cad565b60405180910390f35b61050c600480360381019061050791906145fd565b610f8a565b005b6105286004803603810190610523919061463d565b610fa0565b005b610544600480360381019061053f919061470c565b611044565b60405161055191906147f7565b60405180910390f35b610574600480360381019061056f9190614812565b611075565b6040516105819190613a2f565b60405180910390f35b6105a4600480360381019061059f9190613cc8565b611192565b6040516105b19190613a2f565b60405180910390f35b6105c26111af565b6040516105d29493929190614861565b60405180910390f35b6105f560048036038101906105f09190614211565b6111ed565b005b610611600480360381019061060c91906148a6565b61120e565b60405161061e9190613aea565b60405180910390f35b610641600480360381019061063c91906148e6565b6112a2565b60405161064e91906147f7565b60405180910390f35b610671600480360381019061066c9190614980565b6112d1565b005b60008073ffffffffffffffffffffffffffffffffffffffff168373ffffffffffffffffffffffffffffffffffffffff16036106e3576040517f08c379a00000000000000000000000000000000000000000000000000000000081526004016106da90614a89565b60405180910390fd5b60008083815260200190815260200160002060008473ffffffffffffffffffffffffffffffffffffffff1673ffffffffffffffffffffffffffffffffffffffff16815260200190815260200160002054905092915050565b600061074682611372565b9050919050565b7f7804d923f43a17d325d77e781528e0793b2edd9890ab45fc64efd7b4b427744c610777816113ec565b816006908051906020019061078d929190613895565b505050565b7fa0db453afbdd578961ee678b162bb5819004b00d6e9ac3163ea127c4e17e7d6581565b60606000600680546107c790614ad8565b9050116107e3576040518060200160405280600081525061080f565b60066107ee83611400565b6040516020016107ff929190614bd9565b6040516020818303038152906040525b9050919050565b7fbc1f3f7c406085be62d227092f4fd5af86922a19f3a87e6199f14015341eb9d9610840816113ec565b61084c838360016114ce565b505050565b7fbc1f3f7c406085be62d227092f4fd5af86922a19f3a87e6199f14015341eb9d961087b816113ec565b61091888888880806020026020016040519081016040528093929190818152602001838360200280828437600081840152601f19601f82011690508083019250505050505050878780806020026020016040519081016040528093929190818152602001838360200280828437600081840152601f19601f8201169050808301925050505050505060405180602001604052806000815250611714565b5050505050505050565b7fa0db453afbdd578961ee678b162bb5819004b00d6e9ac3163ea127c4e17e7d6561094c816113ec565b73__$94219fdbb8ef132c3e96012168c3e96117$__636306b42b6007878787876040518663ffffffff1660e01b815260040161098c959493929190614c22565b60006040518083038186803b1580156109a457600080fd5b505af41580156109b8573d6000803e3d6000fd5b505050505050505050565b600060056000838152602001908152602001600020600101549050919050565b6109eb611940565b73ffffffffffffffffffffffffffffffffffffffff168573ffffffffffffffffffffffffffffffffffffffff161480610a315750610a3085610a2b611940565b61120e565b5b610a70576040517f08c379a0000000000000000000000000000000000000000000000000000000008152600401610a6790614ce7565b60405180910390fd5b610a7d8585858585611948565b5050505050565b610a8d826109c3565b610a96816113ec565b610aa08383611c69565b505050565b610aad611940565b73ffffffffffffffffffffffffffffffffffffffff168173ffffffffffffffffffffffffffffffffffffffff1614610b1a576040517f08c379a0000000000000000000000000000000000000000000000000000000008152600401610b1190614d79565b60405180910390fd5b610b248282611d4a565b5050565b60608151835114610b6e576040517f08c379a0000000000000000000000000000000000000000000000000000000008152600401610b6590614e0b565b60405180910390fd5b6000835167ffffffffffffffff811115610b8b57610b8a613b20565b5b604051908082528060200260200182016040528015610bb95781602001602082028036833780820191505090505b50905060005b8451811015610c3657610c06858281518110610bde57610bdd614e2b565b5b6020026020010151858381518110610bf957610bf8614e2b565b5b6020026020010151610673565b828281518110610c1957610c18614e2b565b5b60200260200101818152505080610c2f90614e89565b9050610bbf565b508091505092915050565b600080610c4d83611192565b119050919050565b60068054610c6290614ad8565b80601f0160208091040260200160405190810160405280929190818152602001828054610c8e90614ad8565b8015610cdb5780601f10610cb057610100808354040283529160200191610cdb565b820191906000526020600020905b815481529060010190602001808311610cbe57829003601f168201915b505050505081565b7fbc1f3f7c406085be62d227092f4fd5af86922a19f3a87e6199f14015341eb9d981565b7f7804d923f43a17d325d77e781528e0793b2edd9890ab45fc64efd7b4b427744c81565b7fbc1f3f7c406085be62d227092f4fd5af86922a19f3a87e6199f14015341eb9d9610d55816113ec565b610de286868680806020026020016040519081016040528093929190818152602001838360200280828437600081840152601f19601f82011690508083019250505050505050858580806020026020016040519081016040528093929190818152602001838360200280828437600081840152601f19601f82011690508083019250505050505050611e2c565b505050505050565b7fa0db453afbdd578961ee678b162bb5819004b00d6e9ac3163ea127c4e17e7d65610e14816113ec565b73__$94219fdbb8ef132c3e96012168c3e96117$__63d0177506600785856040518463ffffffff1660e01b8152600401610e5093929190614f67565b60006040518083038186803b158015610e6857600080fd5b505af4158015610e7c573d6000803e3d6000fd5b50505050505050565b60006005600084815260200190815260200160002060000160008373ffffffffffffffffffffffffffffffffffffffff1673ffffffffffffffffffffffffffffffffffffffff16815260200190815260200160002060009054906101000a900460ff16905092915050565b7fbc1f3f7c406085be62d227092f4fd5af86922a19f3a87e6199f14015341eb9d9610f1a816113ec565b6007600101548410610f2b57600080fd5b610f7c8585600186868080601f016020809104026020016040519081016040528093929190818152602001838380828437600081840152601f19601f820116905080830192505050505050506120fa565b5050505050565b6000801b81565b610f9c610f95611940565b83836122aa565b5050565b7fa0db453afbdd578961ee678b162bb5819004b00d6e9ac3163ea127c4e17e7d65610fca816113ec565b73__$94219fdbb8ef132c3e96012168c3e96117$__630b6eaecb600788888888886040518763ffffffff1660e01b815260040161100c96959493929190614fa5565b60006040518083038186803b15801561102457600080fd5b505af4158015611038573d6000803e3d6000fd5b50505050505050505050565b60007fbc197c819b3e337a6f9652dd10becd7eef83032af3b9d958d3d42f6694146621905098975050505050505050565b600061107f612416565b6000611089611940565b90506110aa8173ffffffffffffffffffffffffffffffffffffffff16612465565b156110ea576040517f08c379a00000000000000000000000000000000000000000000000000000000081526004016110e190615067565b60405180910390fd5b8073ffffffffffffffffffffffffffffffffffffffff163273ffffffffffffffffffffffffffffffffffffffff1614611158576040517f08c379a000000000000000000000000000000000000000000000000000000000815260040161114f90615067565b60405180910390fd5b6111638185856114ce565b61118160078583866040518060200160405280600081525030612488565b91505061118c61289b565b92915050565b600060036000838152602001908152602001600020549050919050565b60078060000160009054906101000a900473ffffffffffffffffffffffffffffffffffffffff16908060010154908060020154908060050154905084565b6111f6826109c3565b6111ff816113ec565b6112098383611d4a565b505050565b6000600160008473ffffffffffffffffffffffffffffffffffffffff1673ffffffffffffffffffffffffffffffffffffffff16815260200190815260200160002060008373ffffffffffffffffffffffffffffffffffffffff1673ffffffffffffffffffffffffffffffffffffffff16815260200190815260200160002060009054906101000a900460ff16905092915050565b60007ff23a6e612e1ff4830e658fe43f4e3cb4a5f8170bd5d9e69fb5d7a7fa9e4fdf9790509695505050505050565b6112d9611940565b73ffffffffffffffffffffffffffffffffffffffff168573ffffffffffffffffffffffffffffffffffffffff16148061131f575061131e85611319611940565b61120e565b5b61135e576040517f08c379a000000000000000000000000000000000000000000000000000000000815260040161135590614ce7565b60405180910390fd5b61136b85858585856128a5565b5050505050565b60007f7965db0b000000000000000000000000000000000000000000000000000000007bffffffffffffffffffffffffffffffffffffffffffffffffffffffff1916827bffffffffffffffffffffffffffffffffffffffffffffffffffffffff191614806113e557506113e482612b40565b5b9050919050565b6113fd816113f8611940565b612c22565b50565b60606000600161140f84612ca7565b01905060008167ffffffffffffffff81111561142e5761142d613b20565b5b6040519080825280601f01601f1916602001820160405280156114605781602001600182028036833780820191505090505b509050600082602001820190505b6001156114c3578080600190039150507f3031323334353637383961626364656600000000000000000000000000000000600a86061a8153600a85816114b7576114b6615087565b5b0494506000850361146e575b819350505050919050565b600073ffffffffffffffffffffffffffffffffffffffff168373ffffffffffffffffffffffffffffffffffffffff160361153d576040517f08c379a000000000000000000000000000000000000000000000000000000000815260040161153490615128565b60405180910390fd5b6000611547611940565b9050600061155484612dfa565b9050600061156184612dfa565b905061158183876000858560405180602001604052806000815250612e74565b600080600087815260200190815260200160002060008873ffffffffffffffffffffffffffffffffffffffff1673ffffffffffffffffffffffffffffffffffffffff16815260200190815260200160002054905084811015611618576040517f08c379a000000000000000000000000000000000000000000000000000000000815260040161160f906151ba565b60405180910390fd5b84810360008088815260200190815260200160002060008973ffffffffffffffffffffffffffffffffffffffff1673ffffffffffffffffffffffffffffffffffffffff16815260200190815260200160002081905550600073ffffffffffffffffffffffffffffffffffffffff168773ffffffffffffffffffffffffffffffffffffffff168573ffffffffffffffffffffffffffffffffffffffff167fc3d58168c5ae7397731d063d5bbf3d657854427343f4c083240f7aacaa2d0f6289896040516116e59291906151da565b60405180910390a461170b84886000868660405180602001604052806000815250613044565b50505050505050565b600073ffffffffffffffffffffffffffffffffffffffff168473ffffffffffffffffffffffffffffffffffffffff1603611783576040517f08c379a000000000000000000000000000000000000000000000000000000000815260040161177a90615275565b60405180910390fd5b81518351146117c7576040517f08c379a00000000000000000000000000000000000000000000000000000000081526004016117be90615307565b60405180910390fd5b60006117d1611940565b90506117e281600087878787612e74565b60005b845181101561189b5783818151811061180157611800614e2b565b5b602002602001015160008087848151811061181f5761181e614e2b565b5b6020026020010151815260200190815260200160002060008873ffffffffffffffffffffffffffffffffffffffff1673ffffffffffffffffffffffffffffffffffffffff16815260200190815260200160002060008282546118819190615327565b92505081905550808061189390614e89565b9150506117e5565b508473ffffffffffffffffffffffffffffffffffffffff16600073ffffffffffffffffffffffffffffffffffffffff168273ffffffffffffffffffffffffffffffffffffffff167f4a39dc06d4c0dbc64b70af90fd698a233a518aa5d07e595d983b8c0526c8f7fb878760405161191392919061537d565b60405180910390a461192a81600087878787613044565b6119398160008787878761304c565b5050505050565b600033905090565b815183511461198c576040517f08c379a000000000000000000000000000000000000000000000000000000000815260040161198390615307565b60405180910390fd5b600073ffffffffffffffffffffffffffffffffffffffff168473ffffffffffffffffffffffffffffffffffffffff16036119fb576040517f08c379a00000000000000000000000000000000000000000000000000000000081526004016119f290615426565b60405180910390fd5b6000611a05611940565b9050611a15818787878787612e74565b60005b8451811015611bc6576000858281518110611a3657611a35614e2b565b5b602002602001015190506000858381518110611a5557611a54614e2b565b5b60200260200101519050600080600084815260200190815260200160002060008b73ffffffffffffffffffffffffffffffffffffffff1673ffffffffffffffffffffffffffffffffffffffff16815260200190815260200160002054905081811015611af6576040517f08c379a0000000000000000000000000000000000000000000000000000000008152600401611aed906154b8565b60405180910390fd5b81810360008085815260200190815260200160002060008c73ffffffffffffffffffffffffffffffffffffffff1673ffffffffffffffffffffffffffffffffffffffff168152602001908152602001600020819055508160008085815260200190815260200160002060008b73ffffffffffffffffffffffffffffffffffffffff1673ffffffffffffffffffffffffffffffffffffffff1681526020019081526020016000206000828254611bab9190615327565b9250508190555050505080611bbf90614e89565b9050611a18565b508473ffffffffffffffffffffffffffffffffffffffff168673ffffffffffffffffffffffffffffffffffffffff168273ffffffffffffffffffffffffffffffffffffffff167f4a39dc06d4c0dbc64b70af90fd698a233a518aa5d07e595d983b8c0526c8f7fb8787604051611c3d92919061537d565b60405180910390a4611c53818787878787613044565b611c6181878787878761304c565b505050505050565b611c738282610e85565b611d465760016005600084815260200190815260200160002060000160008373ffffffffffffffffffffffffffffffffffffffff1673ffffffffffffffffffffffffffffffffffffffff16815260200190815260200160002060006101000a81548160ff021916908315150217905550611ceb611940565b73ffffffffffffffffffffffffffffffffffffffff168173ffffffffffffffffffffffffffffffffffffffff16837f2f8788117e7eff1d82e926ec794901d17c78024a50270940304540a733656f0d60405160405180910390a45b5050565b611d548282610e85565b15611e285760006005600084815260200190815260200160002060000160008373ffffffffffffffffffffffffffffffffffffffff1673ffffffffffffffffffffffffffffffffffffffff16815260200190815260200160002060006101000a81548160ff021916908315150217905550611dcd611940565b73ffffffffffffffffffffffffffffffffffffffff168173ffffffffffffffffffffffffffffffffffffffff16837ff6391f5c32d9c69d2a47ea670b442974b53935d1edc7fd64eb21e047a839171b60405160405180910390a45b5050565b600073ffffffffffffffffffffffffffffffffffffffff168373ffffffffffffffffffffffffffffffffffffffff1603611e9b576040517f08c379a0000000000000000000000000000000000000000000000000000000008152600401611e9290615128565b60405180910390fd5b8051825114611edf576040517f08c379a0000000000000000000000000000000000000000000000000000000008152600401611ed690615307565b60405180910390fd5b6000611ee9611940565b9050611f0981856000868660405180602001604052806000815250612e74565b60005b8351811015612056576000848281518110611f2a57611f29614e2b565b5b602002602001015190506000848381518110611f4957611f48614e2b565b5b60200260200101519050600080600084815260200190815260200160002060008973ffffffffffffffffffffffffffffffffffffffff1673ffffffffffffffffffffffffffffffffffffffff16815260200190815260200160002054905081811015611fea576040517f08c379a0000000000000000000000000000000000000000000000000000000008152600401611fe1906151ba565b60405180910390fd5b81810360008085815260200190815260200160002060008a73ffffffffffffffffffffffffffffffffffffffff1673ffffffffffffffffffffffffffffffffffffffff16815260200190815260200160002081905550505050808061204e90614e89565b915050611f0c565b50600073ffffffffffffffffffffffffffffffffffffffff168473ffffffffffffffffffffffffffffffffffffffff168273ffffffffffffffffffffffffffffffffffffffff167f4a39dc06d4c0dbc64b70af90fd698a233a518aa5d07e595d983b8c0526c8f7fb86866040516120ce92919061537d565b60405180910390a46120f481856000868660405180602001604052806000815250613044565b50505050565b600073ffffffffffffffffffffffffffffffffffffffff168473ffffffffffffffffffffffffffffffffffffffff1603612169576040517f08c379a000000000000000000000000000000000000000000000000000000000815260040161216090615275565b60405180910390fd5b6000612173611940565b9050600061218085612dfa565b9050600061218d85612dfa565b905061219e83600089858589612e74565b8460008088815260200190815260200160002060008973ffffffffffffffffffffffffffffffffffffffff1673ffffffffffffffffffffffffffffffffffffffff16815260200190815260200160002060008282546121fd9190615327565b925050819055508673ffffffffffffffffffffffffffffffffffffffff16600073ffffffffffffffffffffffffffffffffffffffff168473ffffffffffffffffffffffffffffffffffffffff167fc3d58168c5ae7397731d063d5bbf3d657854427343f4c083240f7aacaa2d0f62898960405161227b9291906151da565b60405180910390a461229283600089858589613044565b6122a183600089898989613223565b50505050505050565b8173ffffffffffffffffffffffffffffffffffffffff168373ffffffffffffffffffffffffffffffffffffffff1603612318576040517f08c379a000000000000000000000000000000000000000000000000000000000815260040161230f9061554a565b60405180910390fd5b80600160008573ffffffffffffffffffffffffffffffffffffffff1673ffffffffffffffffffffffffffffffffffffffff16815260200190815260200160002060008473ffffffffffffffffffffffffffffffffffffffff1673ffffffffffffffffffffffffffffffffffffffff16815260200190815260200160002060006101000a81548160ff0219169083151502179055508173ffffffffffffffffffffffffffffffffffffffff168373ffffffffffffffffffffffffffffffffffffffff167f17307eab39ab6107e8899845ad3d59bd9653f200f220920489ca2b5937696c31836040516124099190613aea565b60405180910390a3505050565b60026004540361245b576040517f08c379a0000000000000000000000000000000000000000000000000000000008152600401612452906155b6565b60405180910390fd5b6002600481905550565b6000808273ffffffffffffffffffffffffffffffffffffffff163b119050919050565b6000866001015486106124d0576040517f08c379a00000000000000000000000000000000000000000000000000000000081526004016124c790615622565b60405180910390fd5b60008760030160008881526020019081526020016000206040518060800160405290816000820180548060200260200160405190810160405280929190818152602001828054801561254157602002820191906000526020600020905b81548152602001906001019080831161252d575b505050505081526020016001820180548060200260200160405190810160405280929190818152602001828054801561259957602002820191906000526020600020905b815481526020019060010190808311612585575b50505050508152602001600282018054806020026020016040519081016040528092919081815260200182805480156125f157602002820191906000526020600020905b8154815260200190600101908083116125dd575b5050505050815260200160038201548152505090506000805b8681101561288b5760008084600001515167ffffffffffffffff81111561263457612633613b20565b5b6040519080825280602002602001820160405280156126625781602001602082028036833780820191505090505b50905060005b85600001515181101561273b5760008660200151828151811061268e5761268d614e2b565b5b60200260200101511115612728576000866020015182815181106126b5576126b4614e2b565b5b602002602001015190506126e98e8d896000015185815181106126db576126da614e2b565b5b6020026020010151846133fa565b80846126f59190615327565b93508083838151811061270b5761270a614e2b565b5b6020026020010181815161271f9190615327565b91508181525050505b808061273390614e89565b915050612668565b505b846060015182101561281757600085600001515161275a8e613564565b6127649190615642565b90508560400151818151811061277d5761277c614e2b565b5b602002602001015182828151811061279857612797614e2b565b5b6020026020010151106127ab5750612812565b6127d68d8c886000015184815181106127c7576127c6614e2b565b5b602002602001015160016133fa565b82806127e190614e89565b9350508181815181106127f7576127f6614e2b565b5b60200260200101805180919061280c90614e89565b81525050505b61273d565b81846128239190615327565b93508973ffffffffffffffffffffffffffffffffffffffff168b7fd8c55eae4f6ffa3dfbfba23f50cb5e242e86d347736fe1b910ad11bff616d8398b8560405161286e9291906151da565b60405180910390a35050808061288390614e89565b91505061260a565b5080925050509695505050505050565b6001600481905550565b600073ffffffffffffffffffffffffffffffffffffffff168473ffffffffffffffffffffffffffffffffffffffff1603612914576040517f08c379a000000000000000000000000000000000000000000000000000000000815260040161290b90615426565b60405180910390fd5b600061291e611940565b9050600061292b85612dfa565b9050600061293885612dfa565b9050612948838989858589612e74565b600080600088815260200190815260200160002060008a73ffffffffffffffffffffffffffffffffffffffff1673ffffffffffffffffffffffffffffffffffffffff168152602001908152602001600020549050858110156129df576040517f08c379a00000000000000000000000000000000000000000000000000000000081526004016129d6906154b8565b60405180910390fd5b85810360008089815260200190815260200160002060008b73ffffffffffffffffffffffffffffffffffffffff1673ffffffffffffffffffffffffffffffffffffffff168152602001908152602001600020819055508560008089815260200190815260200160002060008a73ffffffffffffffffffffffffffffffffffffffff1673ffffffffffffffffffffffffffffffffffffffff1681526020019081526020016000206000828254612a949190615327565b925050819055508773ffffffffffffffffffffffffffffffffffffffff168973ffffffffffffffffffffffffffffffffffffffff168573ffffffffffffffffffffffffffffffffffffffff167fc3d58168c5ae7397731d063d5bbf3d657854427343f4c083240f7aacaa2d0f628a8a604051612b119291906151da565b60405180910390a4612b27848a8a86868a613044565b612b35848a8a8a8a8a613223565b505050505050505050565b60007fd9b67a26000000000000000000000000000000000000000000000000000000007bffffffffffffffffffffffffffffffffffffffffffffffffffffffff1916827bffffffffffffffffffffffffffffffffffffffffffffffffffffffff19161480612c0b57507f0e89341c000000000000000000000000000000000000000000000000000000007bffffffffffffffffffffffffffffffffffffffffffffffffffffffff1916827bffffffffffffffffffffffffffffffffffffffffffffffffffffffff1916145b80612c1b5750612c1a826135ba565b5b9050919050565b612c2c8282610e85565b612ca357612c3981613624565b612c478360001c6020613651565b604051602001612c5892919061570b565b6040516020818303038152906040526040517f08c379a0000000000000000000000000000000000000000000000000000000008152600401612c9a9190613d7d565b60405180910390fd5b5050565b600080600090507a184f03e93ff9f4daa797ed6e38ed64bf6a1f0100000000000000008310612d05577a184f03e93ff9f4daa797ed6e38ed64bf6a1f0100000000000000008381612cfb57612cfa615087565b5b0492506040810190505b6d04ee2d6d415b85acef81000000008310612d42576d04ee2d6d415b85acef81000000008381612d3857612d37615087565b5b0492506020810190505b662386f26fc100008310612d7157662386f26fc100008381612d6757612d66615087565b5b0492506010810190505b6305f5e1008310612d9a576305f5e1008381612d9057612d8f615087565b5b0492506008810190505b6127108310612dbf576127108381612db557612db4615087565b5b0492506004810190505b60648310612de25760648381612dd857612dd7615087565b5b0492506002810190505b600a8310612df1576001810190505b80915050919050565b60606000600167ffffffffffffffff811115612e1957612e18613b20565b5b604051908082528060200260200182016040528015612e475781602001602082028036833780820191505090505b5090508281600081518110612e5f57612e5e614e2b565b5b60200260200101818152505080915050919050565b612e8286868686868661388d565b600073ffffffffffffffffffffffffffffffffffffffff168573ffffffffffffffffffffffffffffffffffffffff1603612f335760005b8351811015612f3157828181518110612ed557612ed4614e2b565b5b602002602001015160036000868481518110612ef457612ef3614e2b565b5b602002602001015181526020019081526020016000206000828254612f199190615327565b9250508190555080612f2a90614e89565b9050612eb9565b505b600073ffffffffffffffffffffffffffffffffffffffff168473ffffffffffffffffffffffffffffffffffffffff160361303c5760005b835181101561303a576000848281518110612f8857612f87614e2b565b5b602002602001015190506000848381518110612fa757612fa6614e2b565b5b602002602001015190506000600360008481526020019081526020016000205490508181101561300c576040517f08c379a0000000000000000000000000000000000000000000000000000000008152600401613003906157b7565b60405180910390fd5b81810360036000858152602001908152602001600020819055505050508061303390614e89565b9050612f6a565b505b505050505050565b505050505050565b61306b8473ffffffffffffffffffffffffffffffffffffffff16612465565b1561321b578373ffffffffffffffffffffffffffffffffffffffff1663bc197c8187878686866040518663ffffffff1660e01b81526004016130b195949392919061582c565b6020604051808303816000875af19250505080156130ed57506040513d601f19601f820116820180604052508101906130ea91906158a9565b60015b613192576130f96158e3565b806308c379a003613155575061310d615905565b806131185750613157565b806040517f08c379a000000000000000000000000000000000000000000000000000000000815260040161314c9190613d7d565b60405180910390fd5b505b6040517f08c379a000000000000000000000000000000000000000000000000000000000815260040161318990615a07565b60405180910390fd5b63bc197c8160e01b7bffffffffffffffffffffffffffffffffffffffffffffffffffffffff1916817bffffffffffffffffffffffffffffffffffffffffffffffffffffffff191614613219576040517f08c379a000000000000000000000000000000000000000000000000000000000815260040161321090615a99565b60405180910390fd5b505b505050505050565b6132428473ffffffffffffffffffffffffffffffffffffffff16612465565b156133f2578373ffffffffffffffffffffffffffffffffffffffff1663f23a6e6187878686866040518663ffffffff1660e01b8152600401613288959493929190615ab9565b6020604051808303816000875af19250505080156132c457506040513d601f19601f820116820180604052508101906132c191906158a9565b60015b613369576132d06158e3565b806308c379a00361332c57506132e4615905565b806132ef575061332e565b806040517f08c379a00000000000000000000000000000000000000000000000000000000081526004016133239190613d7d565b60405180910390fd5b505b6040517f08c379a000000000000000000000000000000000000000000000000000000000815260040161336090615a07565b60405180910390fd5b63f23a6e6160e01b7bffffffffffffffffffffffffffffffffffffffffffffffffffffffff1916817bffffffffffffffffffffffffffffffffffffffffffffffffffffffff1916146133f0576040517f08c379a00000000000000000000000000000000000000000000000000000000081526004016133e790615a99565b60405180910390fd5b505b505050505050565b83600201548210613440576040517f08c379a000000000000000000000000000000000000000000000000000000000815260040161343790615b5f565b60405180910390fd5b60008460000160009054906101000a900473ffffffffffffffffffffffffffffffffffffffff16905060005b8281101561355c5760008660040160008681526020019081526020016000208054905061349888613564565b6134a29190615642565b9050600087600401600087815260200190815260200160002082815481106134cd576134cc614e2b565b5b906000526020600020015490508373ffffffffffffffffffffffffffffffffffffffff166394d008ef88836040518363ffffffff1660e01b8152600401613515929190615ba5565b600060405180830381600087803b15801561352f57600080fd5b505af1158015613543573d6000803e3d6000fd5b505050505050808061355490614e89565b91505061346c565b505050505050565b6000806001436135749190615be1565b4033846005015460405160200161358d93929190615c9f565b6040516020818303038152906040528051906020012060001c905080836005018190555080915050919050565b60007f01ffc9a7000000000000000000000000000000000000000000000000000000007bffffffffffffffffffffffffffffffffffffffffffffffffffffffff1916827bffffffffffffffffffffffffffffffffffffffffffffffffffffffff1916149050919050565b606061364a8273ffffffffffffffffffffffffffffffffffffffff16601460ff16613651565b9050919050565b6060600060028360026136649190615cdc565b61366e9190615327565b67ffffffffffffffff81111561368757613686613b20565b5b6040519080825280601f01601f1916602001820160405280156136b95781602001600182028036833780820191505090505b5090507f3000000000000000000000000000000000000000000000000000000000000000816000815181106136f1576136f0614e2b565b5b60200101907effffffffffffffffffffffffffffffffffffffffffffffffffffffffffffff1916908160001a9053507f78000000000000000000000000000000000000000000000000000000000000008160018151811061375557613754614e2b565b5b60200101907effffffffffffffffffffffffffffffffffffffffffffffffffffffffffffff1916908160001a905350600060018460026137959190615cdc565b61379f9190615327565b90505b600181111561383f577f3031323334353637383961626364656600000000000000000000000000000000600f8616601081106137e1576137e0614e2b565b5b1a60f81b8282815181106137f8576137f7614e2b565b5b60200101907effffffffffffffffffffffffffffffffffffffffffffffffffffffffffffff1916908160001a905350600485901c94508061383890615d36565b90506137a2565b5060008414613883576040517f08c379a000000000000000000000000000000000000000000000000000000000815260040161387a90615dab565b60405180910390fd5b8091505092915050565b505050505050565b8280546138a190614ad8565b90600052602060002090601f0160209004810192826138c3576000855561390a565b82601f106138dc57805160ff191683800117855561390a565b8280016001018555821561390a579182015b828111156139095782518255916020019190600101906138ee565b5b509050613917919061391b565b5090565b5b8082111561393457600081600090555060010161391c565b5090565b6000604051905090565b600080fd5b600080fd5b600073ffffffffffffffffffffffffffffffffffffffff82169050919050565b60006139778261394c565b9050919050565b6139878161396c565b811461399257600080fd5b50565b6000813590506139a48161397e565b92915050565b6000819050919050565b6139bd816139aa565b81146139c857600080fd5b50565b6000813590506139da816139b4565b92915050565b600080604083850312156139f7576139f6613942565b5b6000613a0585828601613995565b9250506020613a16858286016139cb565b9150509250929050565b613a29816139aa565b82525050565b6000602082019050613a446000830184613a20565b92915050565b60007fffffffff0000000000000000000000000000000000000000000000000000000082169050919050565b613a7f81613a4a565b8114613a8a57600080fd5b50565b600081359050613a9c81613a76565b92915050565b600060208284031215613ab857613ab7613942565b5b6000613ac684828501613a8d565b91505092915050565b60008115159050919050565b613ae481613acf565b82525050565b6000602082019050613aff6000830184613adb565b92915050565b600080fd5b600080fd5b6000601f19601f8301169050919050565b7f4e487b7100000000000000000000000000000000000000000000000000000000600052604160045260246000fd5b613b5882613b0f565b810181811067ffffffffffffffff82111715613b7757613b76613b20565b5b80604052505050565b6000613b8a613938565b9050613b968282613b4f565b919050565b600067ffffffffffffffff821115613bb657613bb5613b20565b5b613bbf82613b0f565b9050602081019050919050565b82818337600083830152505050565b6000613bee613be984613b9b565b613b80565b905082815260208101848484011115613c0a57613c09613b0a565b5b613c15848285613bcc565b509392505050565b600082601f830112613c3257613c31613b05565b5b8135613c42848260208601613bdb565b91505092915050565b600060208284031215613c6157613c60613942565b5b600082013567ffffffffffffffff811115613c7f57613c7e613947565b5b613c8b84828501613c1d565b91505092915050565b6000819050919050565b613ca781613c94565b82525050565b6000602082019050613cc26000830184613c9e565b92915050565b600060208284031215613cde57613cdd613942565b5b6000613cec848285016139cb565b91505092915050565b600081519050919050565b600082825260208201905092915050565b60005b83811015613d2f578082015181840152602081019050613d14565b83811115613d3e576000848401525b50505050565b6000613d4f82613cf5565b613d598185613d00565b9350613d69818560208601613d11565b613d7281613b0f565b840191505092915050565b60006020820190508181036000830152613d978184613d44565b905092915050565b600080fd5b600080fd5b60008083601f840112613dbf57613dbe613b05565b5b8235905067ffffffffffffffff811115613ddc57613ddb613d9f565b5b602083019150836020820283011115613df857613df7613da4565b5b9250929050565b60008083601f840112613e1557613e14613b05565b5b8235905067ffffffffffffffff811115613e3257613e31613d9f565b5b602083019150836001820283011115613e4e57613e4d613da4565b5b9250929050565b60008060008060008060006080888a031215613e7457613e73613942565b5b6000613e828a828b01613995565b975050602088013567ffffffffffffffff811115613ea357613ea2613947565b5b613eaf8a828b01613da9565b9650965050604088013567ffffffffffffffff811115613ed257613ed1613947565b5b613ede8a828b01613da9565b9450945050606088013567ffffffffffffffff811115613f0157613f00613947565b5b613f0d8a828b01613dff565b925092505092959891949750929550565b60008060008060808587031215613f3857613f37613942565b5b6000613f4687828801613995565b9450506020613f57878288016139cb565b9350506040613f68878288016139cb565b9250506060613f79878288016139cb565b91505092959194509250565b613f8e81613c94565b8114613f9957600080fd5b50565b600081359050613fab81613f85565b92915050565b600060208284031215613fc757613fc6613942565b5b6000613fd584828501613f9c565b91505092915050565b600067ffffffffffffffff821115613ff957613ff8613b20565b5b602082029050602081019050919050565b600061401d61401884613fde565b613b80565b905080838252602082019050602084028301858111156140405761403f613da4565b5b835b81811015614069578061405588826139cb565b845260208401935050602081019050614042565b5050509392505050565b600082601f83011261408857614087613b05565b5b813561409884826020860161400a565b91505092915050565b600067ffffffffffffffff8211156140bc576140bb613b20565b5b6140c582613b0f565b9050602081019050919050565b60006140e56140e0846140a1565b613b80565b90508281526020810184848401111561410157614100613b0a565b5b61410c848285613bcc565b509392505050565b600082601f83011261412957614128613b05565b5b81356141398482602086016140d2565b91505092915050565b600080600080600060a0868803121561415e5761415d613942565b5b600061416c88828901613995565b955050602061417d88828901613995565b945050604086013567ffffffffffffffff81111561419e5761419d613947565b5b6141aa88828901614073565b935050606086013567ffffffffffffffff8111156141cb576141ca613947565b5b6141d788828901614073565b925050608086013567ffffffffffffffff8111156141f8576141f7613947565b5b61420488828901614114565b9150509295509295909350565b6000806040838503121561422857614227613942565b5b600061423685828601613f9c565b925050602061424785828601613995565b9150509250929050565b600067ffffffffffffffff82111561426c5761426b613b20565b5b602082029050602081019050919050565b600061429061428b84614251565b613b80565b905080838252602082019050602084028301858111156142b3576142b2613da4565b5b835b818110156142dc57806142c88882613995565b8452602084019350506020810190506142b5565b5050509392505050565b600082601f8301126142fb576142fa613b05565b5b813561430b84826020860161427d565b91505092915050565b6000806040838503121561432b5761432a613942565b5b600083013567ffffffffffffffff81111561434957614348613947565b5b614355858286016142e6565b925050602083013567ffffffffffffffff81111561437657614375613947565b5b61438285828601614073565b9150509250929050565b600081519050919050565b600082825260208201905092915050565b6000819050602082019050919050565b6143c1816139aa565b82525050565b60006143d383836143b8565b60208301905092915050565b6000602082019050919050565b60006143f78261438c565b6144018185614397565b935061440c836143a8565b8060005b8381101561443d57815161442488826143c7565b975061442f836143df565b925050600181019050614410565b5085935050505092915050565b6000602082019050818103600083015261446481846143ec565b905092915050565b60008060008060006060868803121561448857614487613942565b5b600061449688828901613995565b955050602086013567ffffffffffffffff8111156144b7576144b6613947565b5b6144c388828901613da9565b9450945050604086013567ffffffffffffffff8111156144e6576144e5613947565b5b6144f288828901613da9565b92509250509295509295909350565b6000806040838503121561451857614517613942565b5b6000614526858286016139cb565b925050602083013567ffffffffffffffff81111561454757614546613947565b5b61455385828601614073565b9150509250929050565b6000806000806060858703121561457757614576613942565b5b600061458587828801613995565b9450506020614596878288016139cb565b935050604085013567ffffffffffffffff8111156145b7576145b6613947565b5b6145c387828801613dff565b925092505092959194509250565b6145da81613acf565b81146145e557600080fd5b50565b6000813590506145f7816145d1565b92915050565b6000806040838503121561461457614613613942565b5b600061462285828601613995565b9250506020614633858286016145e8565b9150509250929050565b600080600080600060a0868803121561465957614658613942565b5b6000614667888289016139cb565b9550506020614678888289016139cb565b945050604086013567ffffffffffffffff81111561469957614698613947565b5b6146a588828901614073565b935050606086013567ffffffffffffffff8111156146c6576146c5613947565b5b6146d288828901614073565b925050608086013567ffffffffffffffff8111156146f3576146f2613947565b5b6146ff88828901614073565b9150509295509295909350565b60008060008060008060008060a0898b03121561472c5761472b613942565b5b600061473a8b828c01613995565b985050602061474b8b828c01613995565b975050604089013567ffffffffffffffff81111561476c5761476b613947565b5b6147788b828c01613da9565b9650965050606089013567ffffffffffffffff81111561479b5761479a613947565b5b6147a78b828c01613da9565b9450945050608089013567ffffffffffffffff8111156147ca576147c9613947565b5b6147d68b828c01613dff565b92509250509295985092959890939650565b6147f181613a4a565b82525050565b600060208201905061480c60008301846147e8565b92915050565b6000806040838503121561482957614828613942565b5b6000614837858286016139cb565b9250506020614848858286016139cb565b9150509250929050565b61485b8161396c565b82525050565b60006080820190506148766000830187614852565b6148836020830186613a20565b6148906040830185613a20565b61489d6060830184613a20565b95945050505050565b600080604083850312156148bd576148bc613942565b5b60006148cb85828601613995565b92505060206148dc85828601613995565b9150509250929050565b60008060008060008060a0878903121561490357614902613942565b5b600061491189828a01613995565b965050602061492289828a01613995565b955050604061493389828a016139cb565b945050606061494489828a016139cb565b935050608087013567ffffffffffffffff81111561496557614964613947565b5b61497189828a01613dff565b92509250509295509295509295565b600080600080600060a0868803121561499c5761499b613942565b5b60006149aa88828901613995565b95505060206149bb88828901613995565b94505060406149cc888289016139cb565b93505060606149dd888289016139cb565b925050608086013567ffffffffffffffff8111156149fe576149fd613947565b5b614a0a88828901614114565b9150509295509295909350565b7f455243313135353a2061646472657373207a65726f206973206e6f742061207660008201527f616c6964206f776e657200000000000000000000000000000000000000000000602082015250565b6000614a73602a83613d00565b9150614a7e82614a17565b604082019050919050565b60006020820190508181036000830152614aa281614a66565b9050919050565b7f4e487b7100000000000000000000000000000000000000000000000000000000600052602260045260246000fd5b60006002820490506001821680614af057607f821691505b602082108103614b0357614b02614aa9565b5b50919050565b600081905092915050565b60008190508160005260206000209050919050565b60008154614b3681614ad8565b614b408186614b09565b94506001821660008114614b5b5760018114614b6c57614b9f565b60ff19831686528186019350614b9f565b614b7585614b14565b60005b83811015614b9757815481890152600182019150602081019050614b78565b838801955050505b50505092915050565b6000614bb382613cf5565b614bbd8185614b09565b9350614bcd818560208601613d11565b80840191505092915050565b6000614be58285614b29565b9150614bf18284614ba8565b91508190509392505050565b8082525050565b614c0d8161396c565b82525050565b614c1c816139aa565b82525050565b600060a082019050614c376000830188614bfd565b614c446020830187614c04565b614c516040830186614c13565b614c5e6060830185614c13565b614c6b6080830184614c13565b9695505050505050565b7f455243313135353a2063616c6c6572206973206e6f7420746f6b656e206f776e60008201527f6572206f7220617070726f766564000000000000000000000000000000000000602082015250565b6000614cd1602e83613d00565b9150614cdc82614c75565b604082019050919050565b60006020820190508181036000830152614d0081614cc4565b9050919050565b7f416363657373436f6e74726f6c3a2063616e206f6e6c792072656e6f756e636560008201527f20726f6c657320666f722073656c660000000000000000000000000000000000602082015250565b6000614d63602f83613d00565b9150614d6e82614d07565b604082019050919050565b60006020820190508181036000830152614d9281614d56565b9050919050565b7f455243313135353a206163636f756e747320616e6420696473206c656e67746860008201527f206d69736d617463680000000000000000000000000000000000000000000000602082015250565b6000614df5602983613d00565b9150614e0082614d99565b604082019050919050565b60006020820190508181036000830152614e2481614de8565b9050919050565b7f4e487b7100000000000000000000000000000000000000000000000000000000600052603260045260246000fd5b7f4e487b7100000000000000000000000000000000000000000000000000000000600052601160045260246000fd5b6000614e94826139aa565b91507fffffffffffffffffffffffffffffffffffffffffffffffffffffffffffffffff8203614ec657614ec5614e5a565b5b600182019050919050565b600082825260208201905092915050565b614eeb816139aa565b82525050565b6000614efd8383614ee2565b60208301905092915050565b6000614f148261438c565b614f1e8185614ed1565b9350614f29836143a8565b8060005b83811015614f5a578151614f418882614ef1565b9750614f4c836143df565b925050600181019050614f2d565b5085935050505092915050565b6000606082019050614f7c6000830186614bfd565b614f896020830185614c13565b8181036040830152614f9b8184614f09565b9050949350505050565b600060c082019050614fba6000830189614bfd565b614fc76020830188614c13565b614fd46040830187614c13565b8181036060830152614fe68186614f09565b90508181036080830152614ffa8185614f09565b905081810360a083015261500e8184614f09565b9050979650505050505050565b7f4f6e6c7920454f41206163636f756e7473000000000000000000000000000000600082015250565b6000615051601183613d00565b915061505c8261501b565b602082019050919050565b6000602082019050818103600083015261508081615044565b9050919050565b7f4e487b7100000000000000000000000000000000000000000000000000000000600052601260045260246000fd5b7f455243313135353a206275726e2066726f6d20746865207a65726f206164647260008201527f6573730000000000000000000000000000000000000000000000000000000000602082015250565b6000615112602383613d00565b915061511d826150b6565b604082019050919050565b6000602082019050818103600083015261514181615105565b9050919050565b7f455243313135353a206275726e20616d6f756e7420657863656564732062616c60008201527f616e636500000000000000000000000000000000000000000000000000000000602082015250565b60006151a4602483613d00565b91506151af82615148565b604082019050919050565b600060208201905081810360008301526151d381615197565b9050919050565b60006040820190506151ef6000830185613a20565b6151fc6020830184613a20565b9392505050565b7f455243313135353a206d696e7420746f20746865207a65726f2061646472657360008201527f7300000000000000000000000000000000000000000000000000000000000000602082015250565b600061525f602183613d00565b915061526a82615203565b604082019050919050565b6000602082019050818103600083015261528e81615252565b9050919050565b7f455243313135353a2069647320616e6420616d6f756e7473206c656e6774682060008201527f6d69736d61746368000000000000000000000000000000000000000000000000602082015250565b60006152f1602883613d00565b91506152fc82615295565b604082019050919050565b60006020820190508181036000830152615320816152e4565b9050919050565b6000615332826139aa565b915061533d836139aa565b9250827fffffffffffffffffffffffffffffffffffffffffffffffffffffffffffffffff0382111561537257615371614e5a565b5b828201905092915050565b6000604082019050818103600083015261539781856143ec565b905081810360208301526153ab81846143ec565b90509392505050565b7f455243313135353a207472616e7366657220746f20746865207a65726f20616460008201527f6472657373000000000000000000000000000000000000000000000000000000602082015250565b6000615410602583613d00565b915061541b826153b4565b604082019050919050565b6000602082019050818103600083015261543f81615403565b9050919050565b7f455243313135353a20696e73756666696369656e742062616c616e636520666f60008201527f72207472616e7366657200000000000000000000000000000000000000000000602082015250565b60006154a2602a83613d00565b91506154ad82615446565b604082019050919050565b600060208201905081810360008301526154d181615495565b9050919050565b7f455243313135353a2073657474696e6720617070726f76616c2073746174757360008201527f20666f722073656c660000000000000000000000000000000000000000000000602082015250565b6000615534602983613d00565b915061553f826154d8565b604082019050919050565b6000602082019050818103600083015261556381615527565b9050919050565b7f5265656e7472616e637947756172643a207265656e7472616e742063616c6c00600082015250565b60006155a0601f83613d00565b91506155ab8261556a565b602082019050919050565b600060208201905081810360008301526155cf81615593565b9050919050565b7f5f6f7074696f6e206f7574206f662072616e6765000000000000000000000000600082015250565b600061560c601483613d00565b9150615617826155d6565b602082019050919050565b6000602082019050818103600083015261563b816155ff565b9050919050565b600061564d826139aa565b9150615658836139aa565b92508261566857615667615087565b5b828206905092915050565b7f416363657373436f6e74726f6c3a206163636f756e7420000000000000000000600082015250565b60006156a9601783614b09565b91506156b482615673565b601782019050919050565b7f206973206d697373696e6720726f6c6520000000000000000000000000000000600082015250565b60006156f5601183614b09565b9150615700826156bf565b601182019050919050565b60006157168261569c565b91506157228285614ba8565b915061572d826156e8565b91506157398284614ba8565b91508190509392505050565b7f455243313135353a206275726e20616d6f756e74206578636565647320746f7460008201527f616c537570706c79000000000000000000000000000000000000000000000000602082015250565b60006157a1602883613d00565b91506157ac82615745565b604082019050919050565b600060208201905081810360008301526157d081615794565b9050919050565b600081519050919050565b600082825260208201905092915050565b60006157fe826157d7565b61580881856157e2565b9350615818818560208601613d11565b61582181613b0f565b840191505092915050565b600060a0820190506158416000830188614852565b61584e6020830187614852565b818103604083015261586081866143ec565b9050818103606083015261587481856143ec565b9050818103608083015261588881846157f3565b90509695505050505050565b6000815190506158a381613a76565b92915050565b6000602082840312156158bf576158be613942565b5b60006158cd84828501615894565b91505092915050565b60008160e01c9050919050565b600060033d11156159025760046000803e6158ff6000516158d6565b90505b90565b600060443d1061599257615917613938565b60043d036004823e80513d602482011167ffffffffffffffff8211171561593f575050615992565b808201805167ffffffffffffffff81111561595d5750505050615992565b80602083010160043d03850181111561597a575050505050615992565b61598982602001850186613b4f565b82955050505050505b90565b7f455243313135353a207472616e7366657220746f206e6f6e2d4552433131353560008201527f526563656976657220696d706c656d656e746572000000000000000000000000602082015250565b60006159f1603483613d00565b91506159fc82615995565b604082019050919050565b60006020820190508181036000830152615a20816159e4565b9050919050565b7f455243313135353a204552433131353552656365697665722072656a6563746560008201527f6420746f6b656e73000000000000000000000000000000000000000000000000602082015250565b6000615a83602883613d00565b9150615a8e82615a27565b604082019050919050565b60006020820190508181036000830152615ab281615a76565b9050919050565b600060a082019050615ace6000830188614852565b615adb6020830187614852565b615ae86040830186613a20565b615af56060830185613a20565b8181036080830152615b0781846157f3565b90509695505050505050565b7f74797065206f7574206f662072616e6765000000000000000000000000000000600082015250565b6000615b49601183613d00565b9150615b5482615b13565b602082019050919050565b60006020820190508181036000830152615b7881615b3c565b9050919050565b50565b6000615b8f6000836157e2565b9150615b9a82615b7f565b600082019050919050565b6000606082019050615bba6000830185614852565b615bc76020830184613a20565b8181036040830152615bd881615b82565b90509392505050565b6000615bec826139aa565b9150615bf7836139aa565b925082821015615c0a57615c09614e5a565b5b828203905092915050565b6000819050919050565b615c30615c2b82613c94565b615c15565b82525050565b60008160601b9050919050565b6000615c4e82615c36565b9050919050565b6000615c6082615c43565b9050919050565b615c78615c738261396c565b615c55565b82525050565b6000819050919050565b615c99615c94826139aa565b615c7e565b82525050565b6000615cab8286615c1f565b602082019150615cbb8285615c67565b601482019150615ccb8284615c88565b602082019150819050949350505050565b6000615ce7826139aa565b9150615cf2836139aa565b9250817fffffffffffffffffffffffffffffffffffffffffffffffffffffffffffffffff0483118215151615615d2b57615d2a614e5a565b5b828202905092915050565b6000615d41826139aa565b915060008203615d5457615d53614e5a565b5b600182039050919050565b7f537472696e67733a20686578206c656e67746820696e73756666696369656e74600082015250565b6000615d95602083613d00565b9150615da082615d5f565b602082019050919050565b60006020820190508181036000830152615dc481615d88565b905091905056fea264697066735822122097ce9692901df21bf20de266273a04149ff3b917b09b672b5007d6130e08656064736f6c634300080d0033",
  "linkReferences": {
    "contracts/Packs/LootBoxRandomness.sol": {
      "LootBoxRandomness": [
        {
          "length": 20,
          "start": 3853
        },
        {
          "length": 20,
          "start": 5077
        },
        {
          "length": 20,
          "start": 5515
        }
      ]
    }
  },
  "deployedLinkReferences": {
    "contracts/Packs/LootBoxRandomness.sol": {
      "LootBoxRandomness": [
        {
          "length": 20,
          "start": 2382
        },
        {
          "length": 20,
          "start": 3606
        },
        {
          "length": 20,
          "start": 4044
        }
      ]
    }
  }
}