{
  "_format": "hh-sol-artifact-1",
  "contractName": "ERC1155card",
  "sourceName": "contracts/NFT.sol",
  "abi": [
    {
      "inputs": [
        {
          "internalType": "string",
          "name": "_link",
          "type": "string"
        }
      ],
      "stateMutability": "nonpayable",
      "type": "constructor"
    },
    {
      "anonymous": false,
      "inputs": [
        {
          "indexed": true,
          "internalType": "address",
          "name": "account",
          "type": "address"
        },
        {
          "indexed": true,
          "internalType": "address",
          "name": "operator",
          "type": "address"
        },
        {
          "indexed": false,
          "internalType": "bool",
          "name": "approved",
          "type": "bool"
        }
      ],
      "name": "ApprovalForAll",
      "type": "event"
    },
    {
      "anonymous": false,
      "inputs": [
        {
          "indexed": true,
          "internalType": "address",
          "name": "operator",
          "type": "address"
        },
        {
          "indexed": true,
          "internalType": "address",
          "name": "from",
          "type": "address"
        },
        {
          "indexed": true,
          "internalType": "address",
          "name": "to",
          "type": "address"
        },
        {
          "indexed": false,
          "internalType": "uint256[]",
          "name": "ids",
          "type": "uint256[]"
        },
        {
          "indexed": false,
          "internalType": "uint256[]",
          "name": "values",
          "type": "uint256[]"
        }
      ],
      "name": "TransferBatch",
      "type": "event"
    },
    {
      "anonymous": false,
      "inputs": [
        {
          "indexed": true,
          "internalType": "address",
          "name": "operator",
          "type": "address"
        },
        {
          "indexed": true,
          "internalType": "address",
          "name": "from",
          "type": "address"
        },
        {
          "indexed": true,
          "internalType": "address",
          "name": "to",
          "type": "address"
        },
        {
          "indexed": false,
          "internalType": "uint256",
          "name": "id",
          "type": "uint256"
        },
        {
          "indexed": false,
          "internalType": "uint256",
          "name": "value",
          "type": "uint256"
        }
      ],
      "name": "TransferSingle",
      "type": "event"
    },
    {
      "anonymous": false,
      "inputs": [
        {
          "indexed": false,
          "internalType": "string",
          "name": "value",
          "type": "string"
        },
        {
          "indexed": true,
          "internalType": "uint256",
          "name": "id",
          "type": "uint256"
        }
      ],
      "name": "URI",
      "type": "event"
    },
    {
      "inputs": [
        {
          "internalType": "address",
          "name": "account",
          "type": "address"
        },
        {
          "internalType": "uint256",
          "name": "id",
          "type": "uint256"
        }
      ],
      "name": "balanceOf",
      "outputs": [
        {
          "internalType": "uint256",
          "name": "",
          "type": "uint256"
        }
      ],
      "stateMutability": "view",
      "type": "function"
    },
    {
      "inputs": [
        {
          "internalType": "address[]",
          "name": "accounts",
          "type": "address[]"
        },
        {
          "internalType": "uint256[]",
          "name": "ids",
          "type": "uint256[]"
        }
      ],
      "name": "balanceOfBatch",
      "outputs": [
        {
          "internalType": "uint256[]",
          "name": "",
          "type": "uint256[]"
        }
      ],
      "stateMutability": "view",
      "type": "function"
    },
    {
      "inputs": [
        {
          "internalType": "address",
          "name": "_creator",
          "type": "address"
        }
      ],
      "name": "changeCreator",
      "outputs": [],
      "stateMutability": "nonpayable",
      "type": "function"
    },
    {
      "inputs": [
        {
          "internalType": "string",
          "name": "_link",
          "type": "string"
        }
      ],
      "name": "changeStats",
      "outputs": [],
      "stateMutability": "nonpayable",
      "type": "function"
    },
    {
      "inputs": [],
      "name": "displayCreator",
      "outputs": [
        {
          "internalType": "address",
          "name": "",
          "type": "address"
        }
      ],
      "stateMutability": "view",
      "type": "function"
    },
    {
      "inputs": [],
      "name": "displayLink",
      "outputs": [
        {
          "internalType": "string",
          "name": "",
          "type": "string"
        }
      ],
      "stateMutability": "view",
      "type": "function"
    },
    {
      "inputs": [
        {
          "internalType": "address",
          "name": "account",
          "type": "address"
        },
        {
          "internalType": "address",
          "name": "operator",
          "type": "address"
        }
      ],
      "name": "isApprovedForAll",
      "outputs": [
        {
          "internalType": "bool",
          "name": "",
          "type": "bool"
        }
      ],
      "stateMutability": "view",
      "type": "function"
    },
    {
      "inputs": [
        {
          "internalType": "address",
          "name": "account",
          "type": "address"
        },
        {
          "internalType": "uint256",
          "name": "id",
          "type": "uint256"
        },
        {
          "internalType": "uint256",
          "name": "amount",
          "type": "uint256"
        }
      ],
      "name": "mint",
      "outputs": [],
      "stateMutability": "nonpayable",
      "type": "function"
    },
    {
      "inputs": [
        {
          "internalType": "address",
          "name": "from",
          "type": "address"
        },
        {
          "internalType": "address",
          "name": "to",
          "type": "address"
        },
        {
          "internalType": "uint256[]",
          "name": "ids",
          "type": "uint256[]"
        },
        {
          "internalType": "uint256[]",
          "name": "amounts",
          "type": "uint256[]"
        },
        {
          "internalType": "bytes",
          "name": "data",
          "type": "bytes"
        }
      ],
      "name": "safeBatchTransferFrom",
      "outputs": [],
      "stateMutability": "nonpayable",
      "type": "function"
    },
    {
      "inputs": [
        {
          "internalType": "address",
          "name": "from",
          "type": "address"
        },
        {
          "internalType": "address",
          "name": "to",
          "type": "address"
        },
        {
          "internalType": "uint256",
          "name": "id",
          "type": "uint256"
        },
        {
          "internalType": "uint256",
          "name": "amount",
          "type": "uint256"
        },
        {
          "internalType": "bytes",
          "name": "data",
          "type": "bytes"
        }
      ],
      "name": "safeTransferFrom",
      "outputs": [],
      "stateMutability": "nonpayable",
      "type": "function"
    },
    {
      "inputs": [
        {
          "internalType": "address",
          "name": "operator",
          "type": "address"
        },
        {
          "internalType": "bool",
          "name": "approved",
          "type": "bool"
        }
      ],
      "name": "setApprovalForAll",
      "outputs": [],
      "stateMutability": "nonpayable",
      "type": "function"
    },
    {
      "inputs": [
        {
          "internalType": "bytes4",
          "name": "interfaceId",
          "type": "bytes4"
        }
      ],
      "name": "supportsInterface",
      "outputs": [
        {
          "internalType": "bool",
          "name": "",
          "type": "bool"
        }
      ],
      "stateMutability": "view",
      "type": "function"
    },
    {
      "inputs": [
        {
          "internalType": "uint256",
          "name": "",
          "type": "uint256"
        }
      ],
      "name": "uri",
      "outputs": [
        {
          "internalType": "string",
          "name": "",
          "type": "string"
        }
      ],
      "stateMutability": "view",
      "type": "function"
    }
  ],
  "bytecode": "0x60806040523480156200001157600080fd5b506040516200314e3803806200314e8339818101604052810190620000379190620002f9565b62000048816200009060201b60201c565b33600260006101000a81548173ffffffffffffffffffffffffffffffffffffffff021916908373ffffffffffffffffffffffffffffffffffffffff16021790555050620003af565b8060039080519060200190620000a8929190620000ac565b5050565b828054620000ba9062000379565b90600052602060002090601f016020900481019282620000de57600085556200012a565b82601f10620000f957805160ff19168380011785556200012a565b828001600101855582156200012a579182015b82811115620001295782518255916020019190600101906200010c565b5b5090506200013991906200013d565b5090565b5b80821115620001585760008160009055506001016200013e565b5090565b6000604051905090565b600080fd5b600080fd5b600080fd5b600080fd5b6000601f19601f8301169050919050565b7f4e487b7100000000000000000000000000000000000000000000000000000000600052604160045260246000fd5b620001c5826200017a565b810181811067ffffffffffffffff82111715620001e757620001e66200018b565b5b80604052505050565b6000620001fc6200015c565b90506200020a8282620001ba565b919050565b600067ffffffffffffffff8211156200022d576200022c6200018b565b5b62000238826200017a565b9050602081019050919050565b60005b838110156200026557808201518184015260208101905062000248565b8381111562000275576000848401525b50505050565b6000620002926200028c846200020f565b620001f0565b905082815260208101848484011115620002b157620002b062000175565b5b620002be84828562000245565b509392505050565b600082601f830112620002de57620002dd62000170565b5b8151620002f08482602086016200027b565b91505092915050565b60006020828403121562000312576200031162000166565b5b600082015167ffffffffffffffff8111156200033357620003326200016b565b5b6200034184828501620002c6565b91505092915050565b7f4e487b7100000000000000000000000000000000000000000000000000000000600052602260045260246000fd5b600060028204905060018216806200039257607f821691505b60208210811415620003a957620003a86200034a565b5b50919050565b612d8f80620003bf6000396000f3fe608060405234801561001057600080fd5b50600436106100ce5760003560e01c80632eb2c2d61161008c578063a22cb46511610066578063a22cb46514610223578063c26642a61461023f578063e985e9c51461025b578063f242432a1461028b576100ce565b80632eb2c2d6146101bb5780634e1273f4146101d757806374580e2f14610207576100ce565b8062fdd58e146100d357806301ffc9a7146101035780630e89341c1461013357806310633a821461016357806312a5736b14610181578063156e29f61461019f575b600080fd5b6100ed60048036038101906100e89190611900565b6102a7565b6040516100fa919061194f565b60405180910390f35b61011d600480360381019061011891906119c2565b610370565b60405161012a9190611a0a565b60405180910390f35b61014d60048036038101906101489190611a25565b610452565b60405161015a9190611aeb565b60405180910390f35b61016b6104e6565b6040516101789190611b1c565b60405180910390f35b610189610510565b6040516101969190611aeb565b60405180910390f35b6101b960048036038101906101b49190611b37565b6105a2565b005b6101d560048036038101906101d09190611d87565b6105c2565b005b6101f160048036038101906101ec9190611f19565b610663565b6040516101fe919061204f565b60405180910390f35b610221600480360381019061021c9190612071565b61077c565b005b61023d600480360381019061023891906120ca565b61081a565b005b610259600480360381019061025491906121ab565b61099b565b005b610275600480360381019061027091906121f4565b610a45565b6040516102829190611a0a565b60405180910390f35b6102a560048036038101906102a09190612234565b610ad9565b005b60008073ffffffffffffffffffffffffffffffffffffffff168373ffffffffffffffffffffffffffffffffffffffff161415610318576040517f08c379a000000000000000000000000000000000000000000000000000000000815260040161030f9061233d565b60405180910390fd5b60008083815260200190815260200160002060008473ffffffffffffffffffffffffffffffffffffffff1673ffffffffffffffffffffffffffffffffffffffff16815260200190815260200160002054905092915050565b60007fd9b67a26000000000000000000000000000000000000000000000000000000007bffffffffffffffffffffffffffffffffffffffffffffffffffffffff1916827bffffffffffffffffffffffffffffffffffffffffffffffffffffffff1916148061043b57507f0e89341c000000000000000000000000000000000000000000000000000000007bffffffffffffffffffffffffffffffffffffffffffffffffffffffff1916827bffffffffffffffffffffffffffffffffffffffffffffffffffffffff1916145b8061044b575061044a82610bd2565b5b9050919050565b6060600380546104619061238c565b80601f016020809104026020016040519081016040528092919081815260200182805461048d9061238c565b80156104da5780601f106104af576101008083540402835291602001916104da565b820191906000526020600020905b8154815290600101906020018083116104bd57829003601f168201915b50505050509050919050565b6000600260009054906101000a900473ffffffffffffffffffffffffffffffffffffffff16905090565b60606003805461051f9061238c565b80601f016020809104026020016040519081016040528092919081815260200182805461054b9061238c565b80156105985780601f1061056d57610100808354040283529160200191610598565b820191906000526020600020905b81548152906001019060200180831161057b57829003601f168201915b5050505050905090565b6105bd83838360405180602001604052806000815250610c3c565b505050565b6105ca610dd2565b73ffffffffffffffffffffffffffffffffffffffff168573ffffffffffffffffffffffffffffffffffffffff161480610610575061060f8561060a610dd2565b610a45565b5b61064f576040517f08c379a000000000000000000000000000000000000000000000000000000000815260040161064690612430565b60405180910390fd5b61065c8585858585610dda565b5050505050565b606081518351146106a9576040517f08c379a00000000000000000000000000000000000000000000000000000000081526004016106a0906124c2565b60405180910390fd5b6000835167ffffffffffffffff8111156106c6576106c5611b8f565b5b6040519080825280602002602001820160405280156106f45781602001602082028036833780820191505090505b50905060005b845181101561077157610741858281518110610719576107186124e2565b5b6020026020010151858381518110610734576107336124e2565b5b60200260200101516102a7565b828281518110610754576107536124e2565b5b6020026020010181815250508061076a90612540565b90506106fa565b508091505092915050565b3373ffffffffffffffffffffffffffffffffffffffff16600260009054906101000a900473ffffffffffffffffffffffffffffffffffffffff1673ffffffffffffffffffffffffffffffffffffffff16146107d657600080fd5b80600260006101000a81548173ffffffffffffffffffffffffffffffffffffffff021916908373ffffffffffffffffffffffffffffffffffffffff16021790555050565b8173ffffffffffffffffffffffffffffffffffffffff16610839610dd2565b73ffffffffffffffffffffffffffffffffffffffff161415610890576040517f08c379a0000000000000000000000000000000000000000000000000000000008152600401610887906125fb565b60405180910390fd5b806001600061089d610dd2565b73ffffffffffffffffffffffffffffffffffffffff1673ffffffffffffffffffffffffffffffffffffffff16815260200190815260200160002060008473ffffffffffffffffffffffffffffffffffffffff1673ffffffffffffffffffffffffffffffffffffffff16815260200190815260200160002060006101000a81548160ff0219169083151502179055508173ffffffffffffffffffffffffffffffffffffffff1661094a610dd2565b73ffffffffffffffffffffffffffffffffffffffff167f17307eab39ab6107e8899845ad3d59bd9653f200f220920489ca2b5937696c318360405161098f9190611a0a565b60405180910390a35050565b600260009054906101000a900473ffffffffffffffffffffffffffffffffffffffff1673ffffffffffffffffffffffffffffffffffffffff163373ffffffffffffffffffffffffffffffffffffffff1614610a2b576040517f08c379a0000000000000000000000000000000000000000000000000000000008152600401610a2290612667565b60405180910390fd5b8060039080519060200190610a419291906117b5565b5050565b6000600160008473ffffffffffffffffffffffffffffffffffffffff1673ffffffffffffffffffffffffffffffffffffffff16815260200190815260200160002060008373ffffffffffffffffffffffffffffffffffffffff1673ffffffffffffffffffffffffffffffffffffffff16815260200190815260200160002060009054906101000a900460ff16905092915050565b610ae1610dd2565b73ffffffffffffffffffffffffffffffffffffffff168573ffffffffffffffffffffffffffffffffffffffff161480610b275750610b2685610b21610dd2565b610a45565b5b80610b7f5750600260009054906101000a900473ffffffffffffffffffffffffffffffffffffffff1673ffffffffffffffffffffffffffffffffffffffff163373ffffffffffffffffffffffffffffffffffffffff16145b610bbe576040517f08c379a0000000000000000000000000000000000000000000000000000000008152600401610bb5906126f9565b60405180910390fd5b610bcb85858585856110ee565b5050505050565b60007f01ffc9a7000000000000000000000000000000000000000000000000000000007bffffffffffffffffffffffffffffffffffffffffffffffffffffffff1916827bffffffffffffffffffffffffffffffffffffffffffffffffffffffff1916149050919050565b600073ffffffffffffffffffffffffffffffffffffffff168473ffffffffffffffffffffffffffffffffffffffff161415610cac576040517f08c379a0000000000000000000000000000000000000000000000000000000008152600401610ca39061278b565b60405180910390fd5b6000610cb6610dd2565b9050610cd781600087610cc888611370565b610cd188611370565b876113ea565b8260008086815260200190815260200160002060008773ffffffffffffffffffffffffffffffffffffffff1673ffffffffffffffffffffffffffffffffffffffff1681526020019081526020016000206000828254610d3691906127ab565b925050819055508473ffffffffffffffffffffffffffffffffffffffff16600073ffffffffffffffffffffffffffffffffffffffff168273ffffffffffffffffffffffffffffffffffffffff167fc3d58168c5ae7397731d063d5bbf3d657854427343f4c083240f7aacaa2d0f628787604051610db4929190612801565b60405180910390a4610dcb816000878787876113f2565b5050505050565b600033905090565b8151835114610e1e576040517f08c379a0000000000000000000000000000000000000000000000000000000008152600401610e159061289c565b60405180910390fd5b600073ffffffffffffffffffffffffffffffffffffffff168473ffffffffffffffffffffffffffffffffffffffff161415610e8e576040517f08c379a0000000000000000000000000000000000000000000000000000000008152600401610e859061292e565b60405180910390fd5b6000610e98610dd2565b9050610ea88187878787876113ea565b60005b8451811015611059576000858281518110610ec957610ec86124e2565b5b602002602001015190506000858381518110610ee857610ee76124e2565b5b60200260200101519050600080600084815260200190815260200160002060008b73ffffffffffffffffffffffffffffffffffffffff1673ffffffffffffffffffffffffffffffffffffffff16815260200190815260200160002054905081811015610f89576040517f08c379a0000000000000000000000000000000000000000000000000000000008152600401610f80906129c0565b60405180910390fd5b81810360008085815260200190815260200160002060008c73ffffffffffffffffffffffffffffffffffffffff1673ffffffffffffffffffffffffffffffffffffffff168152602001908152602001600020819055508160008085815260200190815260200160002060008b73ffffffffffffffffffffffffffffffffffffffff1673ffffffffffffffffffffffffffffffffffffffff168152602001908152602001600020600082825461103e91906127ab565b925050819055505050508061105290612540565b9050610eab565b508473ffffffffffffffffffffffffffffffffffffffff168673ffffffffffffffffffffffffffffffffffffffff168273ffffffffffffffffffffffffffffffffffffffff167f4a39dc06d4c0dbc64b70af90fd698a233a518aa5d07e595d983b8c0526c8f7fb87876040516110d09291906129e0565b60405180910390a46110e68187878787876115ca565b505050505050565b600073ffffffffffffffffffffffffffffffffffffffff168473ffffffffffffffffffffffffffffffffffffffff16141561115e576040517f08c379a00000000000000000000000000000000000000000000000000000000081526004016111559061292e565b60405180910390fd5b6000611168610dd2565b905061118881878761117988611370565b61118288611370565b876113ea565b600080600086815260200190815260200160002060008873ffffffffffffffffffffffffffffffffffffffff1673ffffffffffffffffffffffffffffffffffffffff1681526020019081526020016000205490508381101561121f576040517f08c379a0000000000000000000000000000000000000000000000000000000008152600401611216906129c0565b60405180910390fd5b83810360008087815260200190815260200160002060008973ffffffffffffffffffffffffffffffffffffffff1673ffffffffffffffffffffffffffffffffffffffff168152602001908152602001600020819055508360008087815260200190815260200160002060008873ffffffffffffffffffffffffffffffffffffffff1673ffffffffffffffffffffffffffffffffffffffff16815260200190815260200160002060008282546112d491906127ab565b925050819055508573ffffffffffffffffffffffffffffffffffffffff168773ffffffffffffffffffffffffffffffffffffffff168373ffffffffffffffffffffffffffffffffffffffff167fc3d58168c5ae7397731d063d5bbf3d657854427343f4c083240f7aacaa2d0f628888604051611351929190612801565b60405180910390a46113678288888888886113f2565b50505050505050565b60606000600167ffffffffffffffff81111561138f5761138e611b8f565b5b6040519080825280602002602001820160405280156113bd5781602001602082028036833780820191505090505b50905082816000815181106113d5576113d46124e2565b5b60200260200101818152505080915050919050565b505050505050565b6114118473ffffffffffffffffffffffffffffffffffffffff166117a2565b156115c2578373ffffffffffffffffffffffffffffffffffffffff1663f23a6e6187878686866040518663ffffffff1660e01b8152600401611457959493929190612a6c565b6020604051808303816000875af192505050801561149357506040513d601f19601f820116820180604052508101906114909190612adb565b60015b6115395761149f612b15565b806308c379a014156114fc57506114b4612b37565b806114bf57506114fe565b806040517f08c379a00000000000000000000000000000000000000000000000000000000081526004016114f39190611aeb565b60405180910390fd5b505b6040517f08c379a000000000000000000000000000000000000000000000000000000000815260040161153090612c3f565b60405180910390fd5b63f23a6e6160e01b7bffffffffffffffffffffffffffffffffffffffffffffffffffffffff1916817bffffffffffffffffffffffffffffffffffffffffffffffffffffffff1916146115c0576040517f08c379a00000000000000000000000000000000000000000000000000000000081526004016115b790612cd1565b60405180910390fd5b505b505050505050565b6115e98473ffffffffffffffffffffffffffffffffffffffff166117a2565b1561179a578373ffffffffffffffffffffffffffffffffffffffff1663bc197c8187878686866040518663ffffffff1660e01b815260040161162f959493929190612cf1565b6020604051808303816000875af192505050801561166b57506040513d601f19601f820116820180604052508101906116689190612adb565b60015b61171157611677612b15565b806308c379a014156116d4575061168c612b37565b8061169757506116d6565b806040517f08c379a00000000000000000000000000000000000000000000000000000000081526004016116cb9190611aeb565b60405180910390fd5b505b6040517f08c379a000000000000000000000000000000000000000000000000000000000815260040161170890612c3f565b60405180910390fd5b63bc197c8160e01b7bffffffffffffffffffffffffffffffffffffffffffffffffffffffff1916817bffffffffffffffffffffffffffffffffffffffffffffffffffffffff191614611798576040517f08c379a000000000000000000000000000000000000000000000000000000000815260040161178f90612cd1565b60405180910390fd5b505b505050505050565b600080823b905060008111915050919050565b8280546117c19061238c565b90600052602060002090601f0160209004810192826117e3576000855561182a565b82601f106117fc57805160ff191683800117855561182a565b8280016001018555821561182a579182015b8281111561182957825182559160200191906001019061180e565b5b509050611837919061183b565b5090565b5b8082111561185457600081600090555060010161183c565b5090565b6000604051905090565b600080fd5b600080fd5b600073ffffffffffffffffffffffffffffffffffffffff82169050919050565b60006118978261186c565b9050919050565b6118a78161188c565b81146118b257600080fd5b50565b6000813590506118c48161189e565b92915050565b6000819050919050565b6118dd816118ca565b81146118e857600080fd5b50565b6000813590506118fa816118d4565b92915050565b6000806040838503121561191757611916611862565b5b6000611925858286016118b5565b9250506020611936858286016118eb565b9150509250929050565b611949816118ca565b82525050565b60006020820190506119646000830184611940565b92915050565b60007fffffffff0000000000000000000000000000000000000000000000000000000082169050919050565b61199f8161196a565b81146119aa57600080fd5b50565b6000813590506119bc81611996565b92915050565b6000602082840312156119d8576119d7611862565b5b60006119e6848285016119ad565b91505092915050565b60008115159050919050565b611a04816119ef565b82525050565b6000602082019050611a1f60008301846119fb565b92915050565b600060208284031215611a3b57611a3a611862565b5b6000611a49848285016118eb565b91505092915050565b600081519050919050565b600082825260208201905092915050565b60005b83811015611a8c578082015181840152602081019050611a71565b83811115611a9b576000848401525b50505050565b6000601f19601f8301169050919050565b6000611abd82611a52565b611ac78185611a5d565b9350611ad7818560208601611a6e565b611ae081611aa1565b840191505092915050565b60006020820190508181036000830152611b058184611ab2565b905092915050565b611b168161188c565b82525050565b6000602082019050611b316000830184611b0d565b92915050565b600080600060608486031215611b5057611b4f611862565b5b6000611b5e868287016118b5565b9350506020611b6f868287016118eb565b9250506040611b80868287016118eb565b9150509250925092565b600080fd5b7f4e487b7100000000000000000000000000000000000000000000000000000000600052604160045260246000fd5b611bc782611aa1565b810181811067ffffffffffffffff82111715611be657611be5611b8f565b5b80604052505050565b6000611bf9611858565b9050611c058282611bbe565b919050565b600067ffffffffffffffff821115611c2557611c24611b8f565b5b602082029050602081019050919050565b600080fd5b6000611c4e611c4984611c0a565b611bef565b90508083825260208201905060208402830185811115611c7157611c70611c36565b5b835b81811015611c9a5780611c8688826118eb565b845260208401935050602081019050611c73565b5050509392505050565b600082601f830112611cb957611cb8611b8a565b5b8135611cc9848260208601611c3b565b91505092915050565b600080fd5b600067ffffffffffffffff821115611cf257611cf1611b8f565b5b611cfb82611aa1565b9050602081019050919050565b82818337600083830152505050565b6000611d2a611d2584611cd7565b611bef565b905082815260208101848484011115611d4657611d45611cd2565b5b611d51848285611d08565b509392505050565b600082601f830112611d6e57611d6d611b8a565b5b8135611d7e848260208601611d17565b91505092915050565b600080600080600060a08688031215611da357611da2611862565b5b6000611db1888289016118b5565b9550506020611dc2888289016118b5565b945050604086013567ffffffffffffffff811115611de357611de2611867565b5b611def88828901611ca4565b935050606086013567ffffffffffffffff811115611e1057611e0f611867565b5b611e1c88828901611ca4565b925050608086013567ffffffffffffffff811115611e3d57611e3c611867565b5b611e4988828901611d59565b9150509295509295909350565b600067ffffffffffffffff821115611e7157611e70611b8f565b5b602082029050602081019050919050565b6000611e95611e9084611e56565b611bef565b90508083825260208201905060208402830185811115611eb857611eb7611c36565b5b835b81811015611ee15780611ecd88826118b5565b845260208401935050602081019050611eba565b5050509392505050565b600082601f830112611f0057611eff611b8a565b5b8135611f10848260208601611e82565b91505092915050565b60008060408385031215611f3057611f2f611862565b5b600083013567ffffffffffffffff811115611f4e57611f4d611867565b5b611f5a85828601611eeb565b925050602083013567ffffffffffffffff811115611f7b57611f7a611867565b5b611f8785828601611ca4565b9150509250929050565b600081519050919050565b600082825260208201905092915050565b6000819050602082019050919050565b611fc6816118ca565b82525050565b6000611fd88383611fbd565b60208301905092915050565b6000602082019050919050565b6000611ffc82611f91565b6120068185611f9c565b935061201183611fad565b8060005b838110156120425781516120298882611fcc565b975061203483611fe4565b925050600181019050612015565b5085935050505092915050565b600060208201905081810360008301526120698184611ff1565b905092915050565b60006020828403121561208757612086611862565b5b6000612095848285016118b5565b91505092915050565b6120a7816119ef565b81146120b257600080fd5b50565b6000813590506120c48161209e565b92915050565b600080604083850312156120e1576120e0611862565b5b60006120ef858286016118b5565b9250506020612100858286016120b5565b9150509250929050565b600067ffffffffffffffff82111561212557612124611b8f565b5b61212e82611aa1565b9050602081019050919050565b600061214e6121498461210a565b611bef565b90508281526020810184848401111561216a57612169611cd2565b5b612175848285611d08565b509392505050565b600082601f83011261219257612191611b8a565b5b81356121a284826020860161213b565b91505092915050565b6000602082840312156121c1576121c0611862565b5b600082013567ffffffffffffffff8111156121df576121de611867565b5b6121eb8482850161217d565b91505092915050565b6000806040838503121561220b5761220a611862565b5b6000612219858286016118b5565b925050602061222a858286016118b5565b9150509250929050565b600080600080600060a086880312156122505761224f611862565b5b600061225e888289016118b5565b955050602061226f888289016118b5565b9450506040612280888289016118eb565b9350506060612291888289016118eb565b925050608086013567ffffffffffffffff8111156122b2576122b1611867565b5b6122be88828901611d59565b9150509295509295909350565b7f455243313135353a2062616c616e636520717565727920666f7220746865207a60008201527f65726f2061646472657373000000000000000000000000000000000000000000602082015250565b6000612327602b83611a5d565b9150612332826122cb565b604082019050919050565b600060208201905081810360008301526123568161231a565b9050919050565b7f4e487b7100000000000000000000000000000000000000000000000000000000600052602260045260246000fd5b600060028204905060018216806123a457607f821691505b602082108114156123b8576123b761235d565b5b50919050565b7f455243313135353a207472616e736665722063616c6c6572206973206e6f742060008201527f6f776e6572206e6f7220617070726f7665640000000000000000000000000000602082015250565b600061241a603283611a5d565b9150612425826123be565b604082019050919050565b600060208201905081810360008301526124498161240d565b9050919050565b7f455243313135353a206163636f756e747320616e6420696473206c656e67746860008201527f206d69736d617463680000000000000000000000000000000000000000000000602082015250565b60006124ac602983611a5d565b91506124b782612450565b604082019050919050565b600060208201905081810360008301526124db8161249f565b9050919050565b7f4e487b7100000000000000000000000000000000000000000000000000000000600052603260045260246000fd5b7f4e487b7100000000000000000000000000000000000000000000000000000000600052601160045260246000fd5b600061254b826118ca565b91507fffffffffffffffffffffffffffffffffffffffffffffffffffffffffffffffff82141561257e5761257d612511565b5b600182019050919050565b7f455243313135353a2073657474696e6720617070726f76616c2073746174757360008201527f20666f722073656c660000000000000000000000000000000000000000000000602082015250565b60006125e5602983611a5d565b91506125f082612589565b604082019050919050565b60006020820190508181036000830152612614816125d8565b9050919050565b7f596f7520646964206e6f742063726561746520746869732067616d6521000000600082015250565b6000612651601d83611a5d565b915061265c8261261b565b602082019050919050565b6000602082019050818103600083015261268081612644565b9050919050565b7f455243313135353a2063616c6c6572206973206e6f74206f776e6572206e6f7260008201527f20617070726f7665640000000000000000000000000000000000000000000000602082015250565b60006126e3602983611a5d565b91506126ee82612687565b604082019050919050565b60006020820190508181036000830152612712816126d6565b9050919050565b7f455243313135353a206d696e7420746f20746865207a65726f2061646472657360008201527f7300000000000000000000000000000000000000000000000000000000000000602082015250565b6000612775602183611a5d565b915061278082612719565b604082019050919050565b600060208201905081810360008301526127a481612768565b9050919050565b60006127b6826118ca565b91506127c1836118ca565b9250827fffffffffffffffffffffffffffffffffffffffffffffffffffffffffffffffff038211156127f6576127f5612511565b5b828201905092915050565b60006040820190506128166000830185611940565b6128236020830184611940565b9392505050565b7f455243313135353a2069647320616e6420616d6f756e7473206c656e6774682060008201527f6d69736d61746368000000000000000000000000000000000000000000000000602082015250565b6000612886602883611a5d565b91506128918261282a565b604082019050919050565b600060208201905081810360008301526128b581612879565b9050919050565b7f455243313135353a207472616e7366657220746f20746865207a65726f20616460008201527f6472657373000000000000000000000000000000000000000000000000000000602082015250565b6000612918602583611a5d565b9150612923826128bc565b604082019050919050565b600060208201905081810360008301526129478161290b565b9050919050565b7f455243313135353a20696e73756666696369656e742062616c616e636520666f60008201527f72207472616e7366657200000000000000000000000000000000000000000000602082015250565b60006129aa602a83611a5d565b91506129b58261294e565b604082019050919050565b600060208201905081810360008301526129d98161299d565b9050919050565b600060408201905081810360008301526129fa8185611ff1565b90508181036020830152612a0e8184611ff1565b90509392505050565b600081519050919050565b600082825260208201905092915050565b6000612a3e82612a17565b612a488185612a22565b9350612a58818560208601611a6e565b612a6181611aa1565b840191505092915050565b600060a082019050612a816000830188611b0d565b612a8e6020830187611b0d565b612a9b6040830186611940565b612aa86060830185611940565b8181036080830152612aba8184612a33565b90509695505050505050565b600081519050612ad581611996565b92915050565b600060208284031215612af157612af0611862565b5b6000612aff84828501612ac6565b91505092915050565b60008160e01c9050919050565b600060033d1115612b345760046000803e612b31600051612b08565b90505b90565b600060443d1015612b4757612bca565b612b4f611858565b60043d036004823e80513d602482011167ffffffffffffffff82111715612b77575050612bca565b808201805167ffffffffffffffff811115612b955750505050612bca565b80602083010160043d038501811115612bb2575050505050612bca565b612bc182602001850186611bbe565b82955050505050505b90565b7f455243313135353a207472616e7366657220746f206e6f6e204552433131353560008201527f526563656976657220696d706c656d656e746572000000000000000000000000602082015250565b6000612c29603483611a5d565b9150612c3482612bcd565b604082019050919050565b60006020820190508181036000830152612c5881612c1c565b9050919050565b7f455243313135353a204552433131353552656365697665722072656a6563746560008201527f6420746f6b656e73000000000000000000000000000000000000000000000000602082015250565b6000612cbb602883611a5d565b9150612cc682612c5f565b604082019050919050565b60006020820190508181036000830152612cea81612cae565b9050919050565b600060a082019050612d066000830188611b0d565b612d136020830187611b0d565b8181036040830152612d258186611ff1565b90508181036060830152612d398185611ff1565b90508181036080830152612d4d8184612a33565b9050969550505050505056fea2646970667358221220655a87ff8c3bc42e085c370a6531f328e61cf396d86d07c55a37f90ecedac7fb64736f6c634300080b0033",
  "linkReferences": {},
  "deployedLinkReferences": {}
}