{
  "_format": "hh-sol-artifact-1",
  "contractName": "EndersPack",
  "sourceName": "contracts/NFT.sol",
  "abi": [
    {
      "inputs": [
        {
          "internalType": "string",
          "name": "_name",
          "type": "string"
        },
        {
          "internalType": "string",
          "name": "_symbol",
          "type": "string"
        },
        {
          "internalType": "string",
          "name": "_contractURI",
          "type": "string"
        },
        {
          "internalType": "string",
          "name": "_tokenURIPrefix",
          "type": "string"
        }
      ],
      "stateMutability": "nonpayable",
      "type": "constructor"
    },
    {
      "anonymous": false,
      "inputs": [
        {
          "indexed": true,
          "internalType": "address",
          "name": "account",
          "type": "address"
        },
        {
          "indexed": true,
          "internalType": "address",
          "name": "operator",
          "type": "address"
        },
        {
          "indexed": false,
          "internalType": "bool",
          "name": "approved",
          "type": "bool"
        }
      ],
      "name": "ApprovalForAll",
      "type": "event"
    },
    {
      "anonymous": false,
      "inputs": [
        {
          "indexed": true,
          "internalType": "address",
          "name": "previousOwner",
          "type": "address"
        },
        {
          "indexed": true,
          "internalType": "address",
          "name": "newOwner",
          "type": "address"
        }
      ],
      "name": "OwnershipTransferred",
      "type": "event"
    },
    {
      "anonymous": false,
      "inputs": [
        {
          "indexed": true,
          "internalType": "address",
          "name": "operator",
          "type": "address"
        },
        {
          "indexed": true,
          "internalType": "address",
          "name": "from",
          "type": "address"
        },
        {
          "indexed": true,
          "internalType": "address",
          "name": "to",
          "type": "address"
        },
        {
          "indexed": false,
          "internalType": "uint256[]",
          "name": "ids",
          "type": "uint256[]"
        },
        {
          "indexed": false,
          "internalType": "uint256[]",
          "name": "values",
          "type": "uint256[]"
        }
      ],
      "name": "TransferBatch",
      "type": "event"
    },
    {
      "anonymous": false,
      "inputs": [
        {
          "indexed": true,
          "internalType": "address",
          "name": "operator",
          "type": "address"
        },
        {
          "indexed": true,
          "internalType": "address",
          "name": "from",
          "type": "address"
        },
        {
          "indexed": true,
          "internalType": "address",
          "name": "to",
          "type": "address"
        },
        {
          "indexed": false,
          "internalType": "uint256",
          "name": "id",
          "type": "uint256"
        },
        {
          "indexed": false,
          "internalType": "uint256",
          "name": "value",
          "type": "uint256"
        }
      ],
      "name": "TransferSingle",
      "type": "event"
    },
    {
      "anonymous": false,
      "inputs": [
        {
          "indexed": false,
          "internalType": "string",
          "name": "value",
          "type": "string"
        },
        {
          "indexed": true,
          "internalType": "uint256",
          "name": "id",
          "type": "uint256"
        }
      ],
      "name": "URI",
      "type": "event"
    },
    {
      "stateMutability": "nonpayable",
      "type": "fallback"
    },
    {
      "inputs": [
        {
          "internalType": "address",
          "name": "account",
          "type": "address"
        },
        {
          "internalType": "uint256",
          "name": "id",
          "type": "uint256"
        }
      ],
      "name": "balanceOf",
      "outputs": [
        {
          "internalType": "uint256",
          "name": "",
          "type": "uint256"
        }
      ],
      "stateMutability": "view",
      "type": "function"
    },
    {
      "inputs": [
        {
          "internalType": "address[]",
          "name": "accounts",
          "type": "address[]"
        },
        {
          "internalType": "uint256[]",
          "name": "ids",
          "type": "uint256[]"
        }
      ],
      "name": "balanceOfBatch",
      "outputs": [
        {
          "internalType": "uint256[]",
          "name": "",
          "type": "uint256[]"
        }
      ],
      "stateMutability": "view",
      "type": "function"
    },
    {
      "inputs": [
        {
          "internalType": "address",
          "name": "account",
          "type": "address"
        },
        {
          "internalType": "uint256",
          "name": "id",
          "type": "uint256"
        },
        {
          "internalType": "uint256",
          "name": "value",
          "type": "uint256"
        }
      ],
      "name": "burn",
      "outputs": [],
      "stateMutability": "nonpayable",
      "type": "function"
    },
    {
      "inputs": [
        {
          "internalType": "address",
          "name": "account",
          "type": "address"
        },
        {
          "internalType": "uint256[]",
          "name": "ids",
          "type": "uint256[]"
        },
        {
          "internalType": "uint256[]",
          "name": "values",
          "type": "uint256[]"
        }
      ],
      "name": "burnBatch",
      "outputs": [],
      "stateMutability": "nonpayable",
      "type": "function"
    },
    {
      "inputs": [],
      "name": "contractURI",
      "outputs": [
        {
          "internalType": "string",
          "name": "",
          "type": "string"
        }
      ],
      "stateMutability": "view",
      "type": "function"
    },
    {
      "inputs": [
        {
          "internalType": "uint256",
          "name": "",
          "type": "uint256"
        }
      ],
      "name": "idToIpfs",
      "outputs": [
        {
          "internalType": "string",
          "name": "",
          "type": "string"
        }
      ],
      "stateMutability": "view",
      "type": "function"
    },
    {
      "inputs": [
        {
          "internalType": "address",
          "name": "account",
          "type": "address"
        },
        {
          "internalType": "address",
          "name": "operator",
          "type": "address"
        }
      ],
      "name": "isApprovedForAll",
      "outputs": [
        {
          "internalType": "bool",
          "name": "",
          "type": "bool"
        }
      ],
      "stateMutability": "view",
      "type": "function"
    },
    {
      "inputs": [
        {
          "internalType": "address",
          "name": "_to",
          "type": "address"
        },
        {
          "internalType": "uint256",
          "name": "_optionId",
          "type": "uint256"
        },
        {
          "internalType": "uint256",
          "name": "_amount",
          "type": "uint256"
        },
        {
          "internalType": "bytes",
          "name": "_data",
          "type": "bytes"
        }
      ],
      "name": "mint",
      "outputs": [],
      "stateMutability": "nonpayable",
      "type": "function"
    },
    {
      "inputs": [
        {
          "internalType": "address",
          "name": "to",
          "type": "address"
        },
        {
          "internalType": "uint256[]",
          "name": "ids",
          "type": "uint256[]"
        },
        {
          "internalType": "uint256[]",
          "name": "amounts",
          "type": "uint256[]"
        },
        {
          "internalType": "bytes",
          "name": "",
          "type": "bytes"
        }
      ],
      "name": "mintBatch",
      "outputs": [],
      "stateMutability": "nonpayable",
      "type": "function"
    },
    {
      "inputs": [],
      "name": "name",
      "outputs": [
        {
          "internalType": "string",
          "name": "",
          "type": "string"
        }
      ],
      "stateMutability": "view",
      "type": "function"
    },
    {
      "inputs": [
        {
          "internalType": "address",
          "name": "operator",
          "type": "address"
        },
        {
          "internalType": "address",
          "name": "from",
          "type": "address"
        },
        {
          "internalType": "uint256[]",
          "name": "ids",
          "type": "uint256[]"
        },
        {
          "internalType": "uint256[]",
          "name": "values",
          "type": "uint256[]"
        },
        {
          "internalType": "bytes",
          "name": "data",
          "type": "bytes"
        }
      ],
      "name": "onERC1155BatchReceived",
      "outputs": [
        {
          "internalType": "bytes4",
          "name": "",
          "type": "bytes4"
        }
      ],
      "stateMutability": "nonpayable",
      "type": "function"
    },
    {
      "inputs": [
        {
          "internalType": "address",
          "name": "operator",
          "type": "address"
        },
        {
          "internalType": "address",
          "name": "from",
          "type": "address"
        },
        {
          "internalType": "uint256",
          "name": "id",
          "type": "uint256"
        },
        {
          "internalType": "uint256",
          "name": "value",
          "type": "uint256"
        },
        {
          "internalType": "bytes",
          "name": "data",
          "type": "bytes"
        }
      ],
      "name": "onERC1155Received",
      "outputs": [
        {
          "internalType": "bytes4",
          "name": "",
          "type": "bytes4"
        }
      ],
      "stateMutability": "nonpayable",
      "type": "function"
    },
    {
      "inputs": [],
      "name": "owner",
      "outputs": [
        {
          "internalType": "address",
          "name": "",
          "type": "address"
        }
      ],
      "stateMutability": "view",
      "type": "function"
    },
    {
      "inputs": [],
      "name": "renounceOwnership",
      "outputs": [],
      "stateMutability": "nonpayable",
      "type": "function"
    },
    {
      "inputs": [
        {
          "internalType": "address",
          "name": "from",
          "type": "address"
        },
        {
          "internalType": "address",
          "name": "to",
          "type": "address"
        },
        {
          "internalType": "uint256[]",
          "name": "ids",
          "type": "uint256[]"
        },
        {
          "internalType": "uint256[]",
          "name": "amounts",
          "type": "uint256[]"
        },
        {
          "internalType": "bytes",
          "name": "data",
          "type": "bytes"
        }
      ],
      "name": "safeBatchTransferFrom",
      "outputs": [],
      "stateMutability": "nonpayable",
      "type": "function"
    },
    {
      "inputs": [
        {
          "internalType": "address",
          "name": "from",
          "type": "address"
        },
        {
          "internalType": "address",
          "name": "to",
          "type": "address"
        },
        {
          "internalType": "uint256",
          "name": "id",
          "type": "uint256"
        },
        {
          "internalType": "uint256",
          "name": "amount",
          "type": "uint256"
        },
        {
          "internalType": "bytes",
          "name": "data",
          "type": "bytes"
        }
      ],
      "name": "safeTransferFrom",
      "outputs": [],
      "stateMutability": "nonpayable",
      "type": "function"
    },
    {
      "inputs": [
        {
          "internalType": "address",
          "name": "operator",
          "type": "address"
        },
        {
          "internalType": "bool",
          "name": "approved",
          "type": "bool"
        }
      ],
      "name": "setApprovalForAll",
      "outputs": [],
      "stateMutability": "nonpayable",
      "type": "function"
    },
    {
      "inputs": [
        {
          "internalType": "string",
          "name": "newuri",
          "type": "string"
        }
      ],
      "name": "setContractURI",
      "outputs": [],
      "stateMutability": "nonpayable",
      "type": "function"
    },
    {
      "inputs": [
        {
          "internalType": "uint256[]",
          "name": "ids",
          "type": "uint256[]"
        },
        {
          "internalType": "string[]",
          "name": "hashes",
          "type": "string[]"
        }
      ],
      "name": "setIpfsHashBatch",
      "outputs": [],
      "stateMutability": "nonpayable",
      "type": "function"
    },
    {
      "inputs": [
        {
          "internalType": "string",
          "name": "newuri",
          "type": "string"
        }
      ],
      "name": "setURI",
      "outputs": [],
      "stateMutability": "nonpayable",
      "type": "function"
    },
    {
      "inputs": [
        {
          "internalType": "bytes4",
          "name": "interfaceId",
          "type": "bytes4"
        }
      ],
      "name": "supportsInterface",
      "outputs": [
        {
          "internalType": "bool",
          "name": "",
          "type": "bool"
        }
      ],
      "stateMutability": "view",
      "type": "function"
    },
    {
      "inputs": [],
      "name": "symbol",
      "outputs": [
        {
          "internalType": "string",
          "name": "",
          "type": "string"
        }
      ],
      "stateMutability": "view",
      "type": "function"
    },
    {
      "inputs": [
        {
          "internalType": "uint256",
          "name": "",
          "type": "uint256"
        }
      ],
      "name": "tokenSupply",
      "outputs": [
        {
          "internalType": "uint256",
          "name": "",
          "type": "uint256"
        }
      ],
      "stateMutability": "view",
      "type": "function"
    },
    {
      "inputs": [],
      "name": "tokenURIPrefix",
      "outputs": [
        {
          "internalType": "string",
          "name": "",
          "type": "string"
        }
      ],
      "stateMutability": "view",
      "type": "function"
    },
    {
      "inputs": [
        {
          "internalType": "address",
          "name": "newOwner",
          "type": "address"
        }
      ],
      "name": "transferOwnership",
      "outputs": [],
      "stateMutability": "nonpayable",
      "type": "function"
    },
    {
      "inputs": [
        {
          "internalType": "uint256",
          "name": "id",
          "type": "uint256"
        }
      ],
      "name": "uri",
      "outputs": [
        {
          "internalType": "string",
          "name": "",
          "type": "string"
        }
      ],
      "stateMutability": "view",
      "type": "function"
    }
  ],
  "bytecode": "0x60806040523480156200001157600080fd5b5060405162004ed638038062004ed6833981810160405281019062000037919062000417565b816200004981620000e060201b60201c565b5060016003819055506200007262000066620000fc60201b60201c565b6200010460201b60201c565b83600590805190602001906200008a929190620001ca565b508260069080519060200190620000a3929190620001ca565b508160079080519060200190620000bc929190620001ca565b508060089080519060200190620000d5929190620001ca565b50505050506200056a565b8060029080519060200190620000f8929190620001ca565b5050565b600033905090565b6000600460009054906101000a900473ffffffffffffffffffffffffffffffffffffffff16905081600460006101000a81548173ffffffffffffffffffffffffffffffffffffffff021916908373ffffffffffffffffffffffffffffffffffffffff1602179055508173ffffffffffffffffffffffffffffffffffffffff168173ffffffffffffffffffffffffffffffffffffffff167f8be0079c531659141344cd1fd0a4f28419497f9722a3daafe3b4186f6b6457e060405160405180910390a35050565b828054620001d89062000534565b90600052602060002090601f016020900481019282620001fc576000855562000248565b82601f106200021757805160ff191683800117855562000248565b8280016001018555821562000248579182015b82811115620002475782518255916020019190600101906200022a565b5b5090506200025791906200025b565b5090565b5b80821115620002765760008160009055506001016200025c565b5090565b6000604051905090565b600080fd5b600080fd5b600080fd5b600080fd5b6000601f19601f8301169050919050565b7f4e487b7100000000000000000000000000000000000000000000000000000000600052604160045260246000fd5b620002e38262000298565b810181811067ffffffffffffffff82111715620003055762000304620002a9565b5b80604052505050565b60006200031a6200027a565b9050620003288282620002d8565b919050565b600067ffffffffffffffff8211156200034b576200034a620002a9565b5b620003568262000298565b9050602081019050919050565b60005b838110156200038357808201518184015260208101905062000366565b8381111562000393576000848401525b50505050565b6000620003b0620003aa846200032d565b6200030e565b905082815260208101848484011115620003cf57620003ce62000293565b5b620003dc84828562000363565b509392505050565b600082601f830112620003fc57620003fb6200028e565b5b81516200040e84826020860162000399565b91505092915050565b6000806000806080858703121562000434576200043362000284565b5b600085015167ffffffffffffffff81111562000455576200045462000289565b5b6200046387828801620003e4565b945050602085015167ffffffffffffffff81111562000487576200048662000289565b5b6200049587828801620003e4565b935050604085015167ffffffffffffffff811115620004b957620004b862000289565b5b620004c787828801620003e4565b925050606085015167ffffffffffffffff811115620004eb57620004ea62000289565b5b620004f987828801620003e4565b91505092959194509250565b7f4e487b7100000000000000000000000000000000000000000000000000000000600052602260045260246000fd5b600060028204905060018216806200054d57607f821691505b6020821081141562000564576200056362000505565b5b50919050565b61495c806200057a6000396000f3fe608060405234801561001057600080fd5b50600436106101905760003560e01c8063731133e9116100de578063c0ac998311610097578063f23a6e6111610071578063f23a6e61146104d4578063f242432a14610504578063f2fde38b14610520578063f5298aca1461053c57610191565b8063c0ac998314610468578063e8a3d48514610486578063e985e9c5146104a457610191565b8063731133e9146103a85780638da5cb5b146103c4578063938e3d7b146103e257806395d89b41146103fe578063a22cb4651461041c578063bc197c811461043857610191565b80631f7fdffa1161014b5780634e1273f4116101255780634e1273f41461033657806350751d9d146103665780636b20c45414610382578063715018a61461039e57610191565b80631f7fdffa146102ce5780632693ebf2146102ea5780632eb2c2d61461031a57610191565b8062d27655146101d4578062fdd58e1461020457806301ffc9a71461023457806302fe53051461026457806306fdde03146102805780630e89341c1461029e57610191565b5b60006101d2576040517f08c379a00000000000000000000000000000000000000000000000000000000081526004016101c990612bf9565b60405180910390fd5b005b6101ee60048036038101906101e99190612c63565b610558565b6040516101fb9190612d18565b60405180910390f35b61021e60048036038101906102199190612d98565b6105f8565b60405161022b9190612de7565b60405180910390f35b61024e60048036038101906102499190612e5a565b6106c1565b60405161025b9190612ea2565b60405180910390f35b61027e60048036038101906102799190612ff2565b61073b565b005b6102886107d1565b6040516102959190612d18565b60405180910390f35b6102b860048036038101906102b39190612c63565b61085f565b6040516102c59190612d18565b60405180910390f35b6102e860048036038101906102e391906131a4565b610958565b005b61030460048036038101906102ff9190612c63565b6109f5565b6040516103119190612de7565b60405180910390f35b610334600480360381019061032f919061325f565b610a0d565b005b610350600480360381019061034b91906133f1565b610aae565b60405161035d9190613527565b60405180910390f35b610380600480360381019061037b919061362a565b610bc7565b005b61039c600480360381019061039791906136a2565b610c51565b005b6103a6610cee565b005b6103c260048036038101906103bd919061372d565b610d76565b005b6103cc610e04565b6040516103d991906137bf565b60405180910390f35b6103fc60048036038101906103f79190612ff2565b610e2e565b005b610406610ec4565b6040516104139190612d18565b60405180910390f35b61043660048036038101906104319190613806565b610f52565b005b610452600480360381019061044d91906138f7565b610f68565b60405161045f91906139e2565b60405180910390f35b610470610f99565b60405161047d9190612d18565b60405180910390f35b61048e611027565b60405161049b9190612d18565b60405180910390f35b6104be60048036038101906104b991906139fd565b6110b5565b6040516104cb9190612ea2565b60405180910390f35b6104ee60048036038101906104e99190613a3d565b611149565b6040516104fb91906139e2565b60405180910390f35b61051e60048036038101906105199190613ad7565b611178565b005b61053a60048036038101906105359190613b6e565b611219565b005b61055660048036038101906105519190613b9b565b611311565b005b600a602052806000526040600020600091509050805461057790613c1d565b80601f01602080910402602001604051908101604052809291908181526020018280546105a390613c1d565b80156105f05780601f106105c5576101008083540402835291602001916105f0565b820191906000526020600020905b8154815290600101906020018083116105d357829003601f168201915b505050505081565b60008073ffffffffffffffffffffffffffffffffffffffff168373ffffffffffffffffffffffffffffffffffffffff161415610669576040517f08c379a000000000000000000000000000000000000000000000000000000000815260040161066090613cc1565b60405180910390fd5b60008083815260200190815260200160002060008473ffffffffffffffffffffffffffffffffffffffff1673ffffffffffffffffffffffffffffffffffffffff16815260200190815260200160002054905092915050565b60007f4e2312e0000000000000000000000000000000000000000000000000000000007bffffffffffffffffffffffffffffffffffffffffffffffffffffffff1916827bffffffffffffffffffffffffffffffffffffffffffffffffffffffff191614806107345750610733826113ae565b5b9050919050565b610743611428565b73ffffffffffffffffffffffffffffffffffffffff16610761610e04565b73ffffffffffffffffffffffffffffffffffffffff16146107b7576040517f08c379a00000000000000000000000000000000000000000000000000000000081526004016107ae90613d2d565b60405180910390fd5b80600890805190602001906107cd929190612af9565b5050565b600580546107de90613c1d565b80601f016020809104026020016040519081016040528092919081815260200182805461080a90613c1d565b80156108575780601f1061082c57610100808354040283529160200191610857565b820191906000526020600020905b81548152906001019060200180831161083a57829003601f168201915b505050505081565b60606000600a6000848152602001908152602001600020805461088190613c1d565b80601f01602080910402602001604051908101604052809291908181526020018280546108ad90613c1d565b80156108fa5780601f106108cf576101008083540402835291602001916108fa565b820191906000526020600020905b8154815290600101906020018083116108dd57829003601f168201915b5050505050905060006008805461091090613c1d565b90501161092c5760405180602001604052806000815250610950565b600881604051602001610940929190613e1d565b6040516020818303038152906040525b915050919050565b610960611428565b73ffffffffffffffffffffffffffffffffffffffff1661097e610e04565b73ffffffffffffffffffffffffffffffffffffffff16146109d4576040517f08c379a00000000000000000000000000000000000000000000000000000000081526004016109cb90613d2d565b60405180910390fd5b6109ef84848460405180602001604052806000815250611430565b50505050565b60096020528060005260406000206000915090505481565b610a15611428565b73ffffffffffffffffffffffffffffffffffffffff168573ffffffffffffffffffffffffffffffffffffffff161480610a5b5750610a5a85610a55611428565b6110b5565b5b610a9a576040517f08c379a0000000000000000000000000000000000000000000000000000000008152600401610a9190613eb3565b60405180910390fd5b610aa7858585858561164e565b5050505050565b60608151835114610af4576040517f08c379a0000000000000000000000000000000000000000000000000000000008152600401610aeb90613f45565b60405180910390fd5b6000835167ffffffffffffffff811115610b1157610b10612ec7565b5b604051908082528060200260200182016040528015610b3f5781602001602082028036833780820191505090505b50905060005b8451811015610bbc57610b8c858281518110610b6457610b63613f65565b5b6020026020010151858381518110610b7f57610b7e613f65565b5b60200260200101516105f8565b828281518110610b9f57610b9e613f65565b5b60200260200101818152505080610bb590613fc3565b9050610b45565b508091505092915050565b610bcf611428565b73ffffffffffffffffffffffffffffffffffffffff16610bed610e04565b73ffffffffffffffffffffffffffffffffffffffff1614610c43576040517f08c379a0000000000000000000000000000000000000000000000000000000008152600401610c3a90613d2d565b60405180910390fd5b610c4d8282611962565b5050565b610c59611428565b73ffffffffffffffffffffffffffffffffffffffff168373ffffffffffffffffffffffffffffffffffffffff161480610c9f5750610c9e83610c99611428565b6110b5565b5b610cde576040517f08c379a0000000000000000000000000000000000000000000000000000000008152600401610cd59061407e565b60405180910390fd5b610ce9838383611a07565b505050565b610cf6611428565b73ffffffffffffffffffffffffffffffffffffffff16610d14610e04565b73ffffffffffffffffffffffffffffffffffffffff1614610d6a576040517f08c379a0000000000000000000000000000000000000000000000000000000008152600401610d6190613d2d565b60405180910390fd5b610d746000611cb8565b565b610d7e611428565b73ffffffffffffffffffffffffffffffffffffffff16610d9c610e04565b73ffffffffffffffffffffffffffffffffffffffff1614610df2576040517f08c379a0000000000000000000000000000000000000000000000000000000008152600401610de990613d2d565b60405180910390fd5b610dfe84848484611d7e565b50505050565b6000600460009054906101000a900473ffffffffffffffffffffffffffffffffffffffff16905090565b610e36611428565b73ffffffffffffffffffffffffffffffffffffffff16610e54610e04565b73ffffffffffffffffffffffffffffffffffffffff1614610eaa576040517f08c379a0000000000000000000000000000000000000000000000000000000008152600401610ea190613d2d565b60405180910390fd5b8060079080519060200190610ec0929190612af9565b5050565b60068054610ed190613c1d565b80601f0160208091040260200160405190810160405280929190818152602001828054610efd90613c1d565b8015610f4a5780601f10610f1f57610100808354040283529160200191610f4a565b820191906000526020600020905b815481529060010190602001808311610f2d57829003601f168201915b505050505081565b610f64610f5d611428565b8383611dc6565b5050565b60007fbc197c819b3e337a6f9652dd10becd7eef83032af3b9d958d3d42f6694146621905098975050505050505050565b60088054610fa690613c1d565b80601f0160208091040260200160405190810160405280929190818152602001828054610fd290613c1d565b801561101f5780601f10610ff45761010080835404028352916020019161101f565b820191906000526020600020905b81548152906001019060200180831161100257829003601f168201915b505050505081565b6007805461103490613c1d565b80601f016020809104026020016040519081016040528092919081815260200182805461106090613c1d565b80156110ad5780601f10611082576101008083540402835291602001916110ad565b820191906000526020600020905b81548152906001019060200180831161109057829003601f168201915b505050505081565b6000600160008473ffffffffffffffffffffffffffffffffffffffff1673ffffffffffffffffffffffffffffffffffffffff16815260200190815260200160002060008373ffffffffffffffffffffffffffffffffffffffff1673ffffffffffffffffffffffffffffffffffffffff16815260200190815260200160002060009054906101000a900460ff16905092915050565b60007ff23a6e612e1ff4830e658fe43f4e3cb4a5f8170bd5d9e69fb5d7a7fa9e4fdf9790509695505050505050565b611180611428565b73ffffffffffffffffffffffffffffffffffffffff168573ffffffffffffffffffffffffffffffffffffffff1614806111c657506111c5856111c0611428565b6110b5565b5b611205576040517f08c379a00000000000000000000000000000000000000000000000000000000081526004016111fc9061407e565b60405180910390fd5b6112128585858585611f33565b5050505050565b611221611428565b73ffffffffffffffffffffffffffffffffffffffff1661123f610e04565b73ffffffffffffffffffffffffffffffffffffffff1614611295576040517f08c379a000000000000000000000000000000000000000000000000000000000815260040161128c90613d2d565b60405180910390fd5b600073ffffffffffffffffffffffffffffffffffffffff168173ffffffffffffffffffffffffffffffffffffffff161415611305576040517f08c379a00000000000000000000000000000000000000000000000000000000081526004016112fc90614110565b60405180910390fd5b61130e81611cb8565b50565b611319611428565b73ffffffffffffffffffffffffffffffffffffffff168373ffffffffffffffffffffffffffffffffffffffff16148061135f575061135e83611359611428565b6110b5565b5b61139e576040517f08c379a00000000000000000000000000000000000000000000000000000000081526004016113959061407e565b60405180910390fd5b6113a98383836121b5565b505050565b60007f4e2312e0000000000000000000000000000000000000000000000000000000007bffffffffffffffffffffffffffffffffffffffffffffffffffffffff1916827bffffffffffffffffffffffffffffffffffffffffffffffffffffffff191614806114215750611420826123d2565b5b9050919050565b600033905090565b600073ffffffffffffffffffffffffffffffffffffffff168473ffffffffffffffffffffffffffffffffffffffff1614156114a0576040517f08c379a0000000000000000000000000000000000000000000000000000000008152600401611497906141a2565b60405180910390fd5b81518351146114e4576040517f08c379a00000000000000000000000000000000000000000000000000000000081526004016114db90614234565b60405180910390fd5b60006114ee611428565b90506114ff816000878787876124b4565b60005b84518110156115b85783818151811061151e5761151d613f65565b5b602002602001015160008087848151811061153c5761153b613f65565b5b6020026020010151815260200190815260200160002060008873ffffffffffffffffffffffffffffffffffffffff1673ffffffffffffffffffffffffffffffffffffffff168152602001908152602001600020600082825461159e9190614254565b9250508190555080806115b090613fc3565b915050611502565b508473ffffffffffffffffffffffffffffffffffffffff16600073ffffffffffffffffffffffffffffffffffffffff168273ffffffffffffffffffffffffffffffffffffffff167f4a39dc06d4c0dbc64b70af90fd698a233a518aa5d07e595d983b8c0526c8f7fb87876040516116309291906142aa565b60405180910390a4611647816000878787876124bc565b5050505050565b8151835114611692576040517f08c379a000000000000000000000000000000000000000000000000000000000815260040161168990614234565b60405180910390fd5b600073ffffffffffffffffffffffffffffffffffffffff168473ffffffffffffffffffffffffffffffffffffffff161415611702576040517f08c379a00000000000000000000000000000000000000000000000000000000081526004016116f990614353565b60405180910390fd5b600061170c611428565b905061171c8187878787876124b4565b60005b84518110156118cd57600085828151811061173d5761173c613f65565b5b60200260200101519050600085838151811061175c5761175b613f65565b5b60200260200101519050600080600084815260200190815260200160002060008b73ffffffffffffffffffffffffffffffffffffffff1673ffffffffffffffffffffffffffffffffffffffff168152602001908152602001600020549050818110156117fd576040517f08c379a00000000000000000000000000000000000000000000000000000000081526004016117f4906143e5565b60405180910390fd5b81810360008085815260200190815260200160002060008c73ffffffffffffffffffffffffffffffffffffffff1673ffffffffffffffffffffffffffffffffffffffff168152602001908152602001600020819055508160008085815260200190815260200160002060008b73ffffffffffffffffffffffffffffffffffffffff1673ffffffffffffffffffffffffffffffffffffffff16815260200190815260200160002060008282546118b29190614254565b92505081905550505050806118c690613fc3565b905061171f565b508473ffffffffffffffffffffffffffffffffffffffff168673ffffffffffffffffffffffffffffffffffffffff168273ffffffffffffffffffffffffffffffffffffffff167f4a39dc06d4c0dbc64b70af90fd698a233a518aa5d07e595d983b8c0526c8f7fb87876040516119449291906142aa565b60405180910390a461195a8187878787876124bc565b505050505050565b60005b8251811015611a0257600082828151811061198357611982613f65565b5b60200260200101515111156119ef578181815181106119a5576119a4613f65565b5b6020026020010151600a60008584815181106119c4576119c3613f65565b5b6020026020010151815260200190815260200160002090805190602001906119ed929190612af9565b505b80806119fa90613fc3565b915050611965565b505050565b600073ffffffffffffffffffffffffffffffffffffffff168373ffffffffffffffffffffffffffffffffffffffff161415611a77576040517f08c379a0000000000000000000000000000000000000000000000000000000008152600401611a6e90614477565b60405180910390fd5b8051825114611abb576040517f08c379a0000000000000000000000000000000000000000000000000000000008152600401611ab290614234565b60405180910390fd5b6000611ac5611428565b9050611ae5818560008686604051806020016040528060008152506124b4565b60005b8351811015611c32576000848281518110611b0657611b05613f65565b5b602002602001015190506000848381518110611b2557611b24613f65565b5b60200260200101519050600080600084815260200190815260200160002060008973ffffffffffffffffffffffffffffffffffffffff1673ffffffffffffffffffffffffffffffffffffffff16815260200190815260200160002054905081811015611bc6576040517f08c379a0000000000000000000000000000000000000000000000000000000008152600401611bbd90614509565b60405180910390fd5b81810360008085815260200190815260200160002060008a73ffffffffffffffffffffffffffffffffffffffff1673ffffffffffffffffffffffffffffffffffffffff168152602001908152602001600020819055505050508080611c2a90613fc3565b915050611ae8565b50600073ffffffffffffffffffffffffffffffffffffffff168473ffffffffffffffffffffffffffffffffffffffff168273ffffffffffffffffffffffffffffffffffffffff167f4a39dc06d4c0dbc64b70af90fd698a233a518aa5d07e595d983b8c0526c8f7fb8686604051611caa9291906142aa565b60405180910390a450505050565b6000600460009054906101000a900473ffffffffffffffffffffffffffffffffffffffff16905081600460006101000a81548173ffffffffffffffffffffffffffffffffffffffff021916908373ffffffffffffffffffffffffffffffffffffffff1602179055508173ffffffffffffffffffffffffffffffffffffffff168173ffffffffffffffffffffffffffffffffffffffff167f8be0079c531659141344cd1fd0a4f28419497f9722a3daafe3b4186f6b6457e060405160405180910390a35050565b816009600085815260200190815260200160002054611d9d9190614254565b6009600085815260200190815260200160002081905550611dc084848484612694565b50505050565b8173ffffffffffffffffffffffffffffffffffffffff168373ffffffffffffffffffffffffffffffffffffffff161415611e35576040517f08c379a0000000000000000000000000000000000000000000000000000000008152600401611e2c9061459b565b60405180910390fd5b80600160008573ffffffffffffffffffffffffffffffffffffffff1673ffffffffffffffffffffffffffffffffffffffff16815260200190815260200160002060008473ffffffffffffffffffffffffffffffffffffffff1673ffffffffffffffffffffffffffffffffffffffff16815260200190815260200160002060006101000a81548160ff0219169083151502179055508173ffffffffffffffffffffffffffffffffffffffff168373ffffffffffffffffffffffffffffffffffffffff167f17307eab39ab6107e8899845ad3d59bd9653f200f220920489ca2b5937696c3183604051611f269190612ea2565b60405180910390a3505050565b600073ffffffffffffffffffffffffffffffffffffffff168473ffffffffffffffffffffffffffffffffffffffff161415611fa3576040517f08c379a0000000000000000000000000000000000000000000000000000000008152600401611f9a90614353565b60405180910390fd5b6000611fad611428565b9050611fcd818787611fbe8861282a565b611fc78861282a565b876124b4565b600080600086815260200190815260200160002060008873ffffffffffffffffffffffffffffffffffffffff1673ffffffffffffffffffffffffffffffffffffffff16815260200190815260200160002054905083811015612064576040517f08c379a000000000000000000000000000000000000000000000000000000000815260040161205b906143e5565b60405180910390fd5b83810360008087815260200190815260200160002060008973ffffffffffffffffffffffffffffffffffffffff1673ffffffffffffffffffffffffffffffffffffffff168152602001908152602001600020819055508360008087815260200190815260200160002060008873ffffffffffffffffffffffffffffffffffffffff1673ffffffffffffffffffffffffffffffffffffffff16815260200190815260200160002060008282546121199190614254565b925050819055508573ffffffffffffffffffffffffffffffffffffffff168773ffffffffffffffffffffffffffffffffffffffff168373ffffffffffffffffffffffffffffffffffffffff167fc3d58168c5ae7397731d063d5bbf3d657854427343f4c083240f7aacaa2d0f6288886040516121969291906145bb565b60405180910390a46121ac8288888888886128a4565b50505050505050565b600073ffffffffffffffffffffffffffffffffffffffff168373ffffffffffffffffffffffffffffffffffffffff161415612225576040517f08c379a000000000000000000000000000000000000000000000000000000000815260040161221c90614477565b60405180910390fd5b600061222f611428565b905061225f818560006122418761282a565b61224a8761282a565b604051806020016040528060008152506124b4565b600080600085815260200190815260200160002060008673ffffffffffffffffffffffffffffffffffffffff1673ffffffffffffffffffffffffffffffffffffffff168152602001908152602001600020549050828110156122f6576040517f08c379a00000000000000000000000000000000000000000000000000000000081526004016122ed90614509565b60405180910390fd5b82810360008086815260200190815260200160002060008773ffffffffffffffffffffffffffffffffffffffff1673ffffffffffffffffffffffffffffffffffffffff16815260200190815260200160002081905550600073ffffffffffffffffffffffffffffffffffffffff168573ffffffffffffffffffffffffffffffffffffffff168373ffffffffffffffffffffffffffffffffffffffff167fc3d58168c5ae7397731d063d5bbf3d657854427343f4c083240f7aacaa2d0f6287876040516123c39291906145bb565b60405180910390a45050505050565b60007fd9b67a26000000000000000000000000000000000000000000000000000000007bffffffffffffffffffffffffffffffffffffffffffffffffffffffff1916827bffffffffffffffffffffffffffffffffffffffffffffffffffffffff1916148061249d57507f0e89341c000000000000000000000000000000000000000000000000000000007bffffffffffffffffffffffffffffffffffffffffffffffffffffffff1916827bffffffffffffffffffffffffffffffffffffffffffffffffffffffff1916145b806124ad57506124ac82612a7c565b5b9050919050565b505050505050565b6124db8473ffffffffffffffffffffffffffffffffffffffff16612ae6565b1561268c578373ffffffffffffffffffffffffffffffffffffffff1663bc197c8187878686866040518663ffffffff1660e01b8152600401612521959493929190614639565b6020604051808303816000875af192505050801561255d57506040513d601f19601f8201168201806040525081019061255a91906146b6565b60015b612603576125696146f0565b806308c379a014156125c6575061257e614712565b8061258957506125c8565b806040517f08c379a00000000000000000000000000000000000000000000000000000000081526004016125bd9190612d18565b60405180910390fd5b505b6040517f08c379a00000000000000000000000000000000000000000000000000000000081526004016125fa9061481a565b60405180910390fd5b63bc197c8160e01b7bffffffffffffffffffffffffffffffffffffffffffffffffffffffff1916817bffffffffffffffffffffffffffffffffffffffffffffffffffffffff19161461268a576040517f08c379a0000000000000000000000000000000000000000000000000000000008152600401612681906148ac565b60405180910390fd5b505b505050505050565b600073ffffffffffffffffffffffffffffffffffffffff168473ffffffffffffffffffffffffffffffffffffffff161415612704576040517f08c379a00000000000000000000000000000000000000000000000000000000081526004016126fb906141a2565b60405180910390fd5b600061270e611428565b905061272f816000876127208861282a565b6127298861282a565b876124b4565b8260008086815260200190815260200160002060008773ffffffffffffffffffffffffffffffffffffffff1673ffffffffffffffffffffffffffffffffffffffff168152602001908152602001600020600082825461278e9190614254565b925050819055508473ffffffffffffffffffffffffffffffffffffffff16600073ffffffffffffffffffffffffffffffffffffffff168273ffffffffffffffffffffffffffffffffffffffff167fc3d58168c5ae7397731d063d5bbf3d657854427343f4c083240f7aacaa2d0f62878760405161280c9291906145bb565b60405180910390a4612823816000878787876128a4565b5050505050565b60606000600167ffffffffffffffff81111561284957612848612ec7565b5b6040519080825280602002602001820160405280156128775781602001602082028036833780820191505090505b509050828160008151811061288f5761288e613f65565b5b60200260200101818152505080915050919050565b6128c38473ffffffffffffffffffffffffffffffffffffffff16612ae6565b15612a74578373ffffffffffffffffffffffffffffffffffffffff1663f23a6e6187878686866040518663ffffffff1660e01b81526004016129099594939291906148cc565b6020604051808303816000875af192505050801561294557506040513d601f19601f8201168201806040525081019061294291906146b6565b60015b6129eb576129516146f0565b806308c379a014156129ae5750612966614712565b8061297157506129b0565b806040517f08c379a00000000000000000000000000000000000000000000000000000000081526004016129a59190612d18565b60405180910390fd5b505b6040517f08c379a00000000000000000000000000000000000000000000000000000000081526004016129e29061481a565b60405180910390fd5b63f23a6e6160e01b7bffffffffffffffffffffffffffffffffffffffffffffffffffffffff1916817bffffffffffffffffffffffffffffffffffffffffffffffffffffffff191614612a72576040517f08c379a0000000000000000000000000000000000000000000000000000000008152600401612a69906148ac565b60405180910390fd5b505b505050505050565b60007f01ffc9a7000000000000000000000000000000000000000000000000000000007bffffffffffffffffffffffffffffffffffffffffffffffffffffffff1916827bffffffffffffffffffffffffffffffffffffffffffffffffffffffff1916149050919050565b600080823b905060008111915050919050565b828054612b0590613c1d565b90600052602060002090601f016020900481019282612b275760008555612b6e565b82601f10612b4057805160ff1916838001178555612b6e565b82800160010185558215612b6e579182015b82811115612b6d578251825591602001919060010190612b52565b5b509050612b7b9190612b7f565b5090565b5b80821115612b98576000816000905550600101612b80565b5090565b600082825260208201905092915050565b7f444f4e545f53454e445f4d4f4e45590000000000000000000000000000000000600082015250565b6000612be3600f83612b9c565b9150612bee82612bad565b602082019050919050565b60006020820190508181036000830152612c1281612bd6565b9050919050565b6000604051905090565b600080fd5b600080fd5b6000819050919050565b612c4081612c2d565b8114612c4b57600080fd5b50565b600081359050612c5d81612c37565b92915050565b600060208284031215612c7957612c78612c23565b5b6000612c8784828501612c4e565b91505092915050565b600081519050919050565b60005b83811015612cb9578082015181840152602081019050612c9e565b83811115612cc8576000848401525b50505050565b6000601f19601f8301169050919050565b6000612cea82612c90565b612cf48185612b9c565b9350612d04818560208601612c9b565b612d0d81612cce565b840191505092915050565b60006020820190508181036000830152612d328184612cdf565b905092915050565b600073ffffffffffffffffffffffffffffffffffffffff82169050919050565b6000612d6582612d3a565b9050919050565b612d7581612d5a565b8114612d8057600080fd5b50565b600081359050612d9281612d6c565b92915050565b60008060408385031215612daf57612dae612c23565b5b6000612dbd85828601612d83565b9250506020612dce85828601612c4e565b9150509250929050565b612de181612c2d565b82525050565b6000602082019050612dfc6000830184612dd8565b92915050565b60007fffffffff0000000000000000000000000000000000000000000000000000000082169050919050565b612e3781612e02565b8114612e4257600080fd5b50565b600081359050612e5481612e2e565b92915050565b600060208284031215612e7057612e6f612c23565b5b6000612e7e84828501612e45565b91505092915050565b60008115159050919050565b612e9c81612e87565b82525050565b6000602082019050612eb76000830184612e93565b92915050565b600080fd5b600080fd5b7f4e487b7100000000000000000000000000000000000000000000000000000000600052604160045260246000fd5b612eff82612cce565b810181811067ffffffffffffffff82111715612f1e57612f1d612ec7565b5b80604052505050565b6000612f31612c19565b9050612f3d8282612ef6565b919050565b600067ffffffffffffffff821115612f5d57612f5c612ec7565b5b612f6682612cce565b9050602081019050919050565b82818337600083830152505050565b6000612f95612f9084612f42565b612f27565b905082815260208101848484011115612fb157612fb0612ec2565b5b612fbc848285612f73565b509392505050565b600082601f830112612fd957612fd8612ebd565b5b8135612fe9848260208601612f82565b91505092915050565b60006020828403121561300857613007612c23565b5b600082013567ffffffffffffffff81111561302657613025612c28565b5b61303284828501612fc4565b91505092915050565b600067ffffffffffffffff82111561305657613055612ec7565b5b602082029050602081019050919050565b600080fd5b600061307f61307a8461303b565b612f27565b905080838252602082019050602084028301858111156130a2576130a1613067565b5b835b818110156130cb57806130b78882612c4e565b8452602084019350506020810190506130a4565b5050509392505050565b600082601f8301126130ea576130e9612ebd565b5b81356130fa84826020860161306c565b91505092915050565b600067ffffffffffffffff82111561311e5761311d612ec7565b5b61312782612cce565b9050602081019050919050565b600061314761314284613103565b612f27565b90508281526020810184848401111561316357613162612ec2565b5b61316e848285612f73565b509392505050565b600082601f83011261318b5761318a612ebd565b5b813561319b848260208601613134565b91505092915050565b600080600080608085870312156131be576131bd612c23565b5b60006131cc87828801612d83565b945050602085013567ffffffffffffffff8111156131ed576131ec612c28565b5b6131f9878288016130d5565b935050604085013567ffffffffffffffff81111561321a57613219612c28565b5b613226878288016130d5565b925050606085013567ffffffffffffffff81111561324757613246612c28565b5b61325387828801613176565b91505092959194509250565b600080600080600060a0868803121561327b5761327a612c23565b5b600061328988828901612d83565b955050602061329a88828901612d83565b945050604086013567ffffffffffffffff8111156132bb576132ba612c28565b5b6132c7888289016130d5565b935050606086013567ffffffffffffffff8111156132e8576132e7612c28565b5b6132f4888289016130d5565b925050608086013567ffffffffffffffff81111561331557613314612c28565b5b61332188828901613176565b9150509295509295909350565b600067ffffffffffffffff82111561334957613348612ec7565b5b602082029050602081019050919050565b600061336d6133688461332e565b612f27565b905080838252602082019050602084028301858111156133905761338f613067565b5b835b818110156133b957806133a58882612d83565b845260208401935050602081019050613392565b5050509392505050565b600082601f8301126133d8576133d7612ebd565b5b81356133e884826020860161335a565b91505092915050565b6000806040838503121561340857613407612c23565b5b600083013567ffffffffffffffff81111561342657613425612c28565b5b613432858286016133c3565b925050602083013567ffffffffffffffff81111561345357613452612c28565b5b61345f858286016130d5565b9150509250929050565b600081519050919050565b600082825260208201905092915050565b6000819050602082019050919050565b61349e81612c2d565b82525050565b60006134b08383613495565b60208301905092915050565b6000602082019050919050565b60006134d482613469565b6134de8185613474565b93506134e983613485565b8060005b8381101561351a57815161350188826134a4565b975061350c836134bc565b9250506001810190506134ed565b5085935050505092915050565b6000602082019050818103600083015261354181846134c9565b905092915050565b600067ffffffffffffffff82111561356457613563612ec7565b5b602082029050602081019050919050565b600061358861358384613549565b612f27565b905080838252602082019050602084028301858111156135ab576135aa613067565b5b835b818110156135f257803567ffffffffffffffff8111156135d0576135cf612ebd565b5b8086016135dd8982612fc4565b855260208501945050506020810190506135ad565b5050509392505050565b600082601f83011261361157613610612ebd565b5b8135613621848260208601613575565b91505092915050565b6000806040838503121561364157613640612c23565b5b600083013567ffffffffffffffff81111561365f5761365e612c28565b5b61366b858286016130d5565b925050602083013567ffffffffffffffff81111561368c5761368b612c28565b5b613698858286016135fc565b9150509250929050565b6000806000606084860312156136bb576136ba612c23565b5b60006136c986828701612d83565b935050602084013567ffffffffffffffff8111156136ea576136e9612c28565b5b6136f6868287016130d5565b925050604084013567ffffffffffffffff81111561371757613716612c28565b5b613723868287016130d5565b9150509250925092565b6000806000806080858703121561374757613746612c23565b5b600061375587828801612d83565b945050602061376687828801612c4e565b935050604061377787828801612c4e565b925050606085013567ffffffffffffffff81111561379857613797612c28565b5b6137a487828801613176565b91505092959194509250565b6137b981612d5a565b82525050565b60006020820190506137d460008301846137b0565b92915050565b6137e381612e87565b81146137ee57600080fd5b50565b600081359050613800816137da565b92915050565b6000806040838503121561381d5761381c612c23565b5b600061382b85828601612d83565b925050602061383c858286016137f1565b9150509250929050565b600080fd5b60008083601f84011261386157613860612ebd565b5b8235905067ffffffffffffffff81111561387e5761387d613846565b5b60208301915083602082028301111561389a57613899613067565b5b9250929050565b60008083601f8401126138b7576138b6612ebd565b5b8235905067ffffffffffffffff8111156138d4576138d3613846565b5b6020830191508360018202830111156138f0576138ef613067565b5b9250929050565b60008060008060008060008060a0898b03121561391757613916612c23565b5b60006139258b828c01612d83565b98505060206139368b828c01612d83565b975050604089013567ffffffffffffffff81111561395757613956612c28565b5b6139638b828c0161384b565b9650965050606089013567ffffffffffffffff81111561398657613985612c28565b5b6139928b828c0161384b565b9450945050608089013567ffffffffffffffff8111156139b5576139b4612c28565b5b6139c18b828c016138a1565b92509250509295985092959890939650565b6139dc81612e02565b82525050565b60006020820190506139f760008301846139d3565b92915050565b60008060408385031215613a1457613a13612c23565b5b6000613a2285828601612d83565b9250506020613a3385828601612d83565b9150509250929050565b60008060008060008060a08789031215613a5a57613a59612c23565b5b6000613a6889828a01612d83565b9650506020613a7989828a01612d83565b9550506040613a8a89828a01612c4e565b9450506060613a9b89828a01612c4e565b935050608087013567ffffffffffffffff811115613abc57613abb612c28565b5b613ac889828a016138a1565b92509250509295509295509295565b600080600080600060a08688031215613af357613af2612c23565b5b6000613b0188828901612d83565b9550506020613b1288828901612d83565b9450506040613b2388828901612c4e565b9350506060613b3488828901612c4e565b925050608086013567ffffffffffffffff811115613b5557613b54612c28565b5b613b6188828901613176565b9150509295509295909350565b600060208284031215613b8457613b83612c23565b5b6000613b9284828501612d83565b91505092915050565b600080600060608486031215613bb457613bb3612c23565b5b6000613bc286828701612d83565b9350506020613bd386828701612c4e565b9250506040613be486828701612c4e565b9150509250925092565b7f4e487b7100000000000000000000000000000000000000000000000000000000600052602260045260246000fd5b60006002820490506001821680613c3557607f821691505b60208210811415613c4957613c48613bee565b5b50919050565b7f455243313135353a2062616c616e636520717565727920666f7220746865207a60008201527f65726f2061646472657373000000000000000000000000000000000000000000602082015250565b6000613cab602b83612b9c565b9150613cb682613c4f565b604082019050919050565b60006020820190508181036000830152613cda81613c9e565b9050919050565b7f4f776e61626c653a2063616c6c6572206973206e6f7420746865206f776e6572600082015250565b6000613d17602083612b9c565b9150613d2282613ce1565b602082019050919050565b60006020820190508181036000830152613d4681613d0a565b9050919050565b600081905092915050565b60008190508160005260206000209050919050565b60008154613d7a81613c1d565b613d848186613d4d565b94506001821660008114613d9f5760018114613db057613de3565b60ff19831686528186019350613de3565b613db985613d58565b60005b83811015613ddb57815481890152600182019150602081019050613dbc565b838801955050505b50505092915050565b6000613df782612c90565b613e018185613d4d565b9350613e11818560208601612c9b565b80840191505092915050565b6000613e298285613d6d565b9150613e358284613dec565b91508190509392505050565b7f455243313135353a207472616e736665722063616c6c6572206973206e6f742060008201527f6f776e6572206e6f7220617070726f7665640000000000000000000000000000602082015250565b6000613e9d603283612b9c565b9150613ea882613e41565b604082019050919050565b60006020820190508181036000830152613ecc81613e90565b9050919050565b7f455243313135353a206163636f756e747320616e6420696473206c656e67746860008201527f206d69736d617463680000000000000000000000000000000000000000000000602082015250565b6000613f2f602983612b9c565b9150613f3a82613ed3565b604082019050919050565b60006020820190508181036000830152613f5e81613f22565b9050919050565b7f4e487b7100000000000000000000000000000000000000000000000000000000600052603260045260246000fd5b7f4e487b7100000000000000000000000000000000000000000000000000000000600052601160045260246000fd5b6000613fce82612c2d565b91507fffffffffffffffffffffffffffffffffffffffffffffffffffffffffffffffff82141561400157614000613f94565b5b600182019050919050565b7f455243313135353a2063616c6c6572206973206e6f74206f776e6572206e6f7260008201527f20617070726f7665640000000000000000000000000000000000000000000000602082015250565b6000614068602983612b9c565b91506140738261400c565b604082019050919050565b600060208201905081810360008301526140978161405b565b9050919050565b7f4f776e61626c653a206e6577206f776e657220697320746865207a65726f206160008201527f6464726573730000000000000000000000000000000000000000000000000000602082015250565b60006140fa602683612b9c565b91506141058261409e565b604082019050919050565b60006020820190508181036000830152614129816140ed565b9050919050565b7f455243313135353a206d696e7420746f20746865207a65726f2061646472657360008201527f7300000000000000000000000000000000000000000000000000000000000000602082015250565b600061418c602183612b9c565b915061419782614130565b604082019050919050565b600060208201905081810360008301526141bb8161417f565b9050919050565b7f455243313135353a2069647320616e6420616d6f756e7473206c656e6774682060008201527f6d69736d61746368000000000000000000000000000000000000000000000000602082015250565b600061421e602883612b9c565b9150614229826141c2565b604082019050919050565b6000602082019050818103600083015261424d81614211565b9050919050565b600061425f82612c2d565b915061426a83612c2d565b9250827fffffffffffffffffffffffffffffffffffffffffffffffffffffffffffffffff0382111561429f5761429e613f94565b5b828201905092915050565b600060408201905081810360008301526142c481856134c9565b905081810360208301526142d881846134c9565b90509392505050565b7f455243313135353a207472616e7366657220746f20746865207a65726f20616460008201527f6472657373000000000000000000000000000000000000000000000000000000602082015250565b600061433d602583612b9c565b9150614348826142e1565b604082019050919050565b6000602082019050818103600083015261436c81614330565b9050919050565b7f455243313135353a20696e73756666696369656e742062616c616e636520666f60008201527f72207472616e7366657200000000000000000000000000000000000000000000602082015250565b60006143cf602a83612b9c565b91506143da82614373565b604082019050919050565b600060208201905081810360008301526143fe816143c2565b9050919050565b7f455243313135353a206275726e2066726f6d20746865207a65726f206164647260008201527f6573730000000000000000000000000000000000000000000000000000000000602082015250565b6000614461602383612b9c565b915061446c82614405565b604082019050919050565b6000602082019050818103600083015261449081614454565b9050919050565b7f455243313135353a206275726e20616d6f756e7420657863656564732062616c60008201527f616e636500000000000000000000000000000000000000000000000000000000602082015250565b60006144f3602483612b9c565b91506144fe82614497565b604082019050919050565b60006020820190508181036000830152614522816144e6565b9050919050565b7f455243313135353a2073657474696e6720617070726f76616c2073746174757360008201527f20666f722073656c660000000000000000000000000000000000000000000000602082015250565b6000614585602983612b9c565b915061459082614529565b604082019050919050565b600060208201905081810360008301526145b481614578565b9050919050565b60006040820190506145d06000830185612dd8565b6145dd6020830184612dd8565b9392505050565b600081519050919050565b600082825260208201905092915050565b600061460b826145e4565b61461581856145ef565b9350614625818560208601612c9b565b61462e81612cce565b840191505092915050565b600060a08201905061464e60008301886137b0565b61465b60208301876137b0565b818103604083015261466d81866134c9565b9050818103606083015261468181856134c9565b905081810360808301526146958184614600565b90509695505050505050565b6000815190506146b081612e2e565b92915050565b6000602082840312156146cc576146cb612c23565b5b60006146da848285016146a1565b91505092915050565b60008160e01c9050919050565b600060033d111561470f5760046000803e61470c6000516146e3565b90505b90565b600060443d1015614722576147a5565b61472a612c19565b60043d036004823e80513d602482011167ffffffffffffffff821117156147525750506147a5565b808201805167ffffffffffffffff81111561477057505050506147a5565b80602083010160043d03850181111561478d5750505050506147a5565b61479c82602001850186612ef6565b82955050505050505b90565b7f455243313135353a207472616e7366657220746f206e6f6e204552433131353560008201527f526563656976657220696d706c656d656e746572000000000000000000000000602082015250565b6000614804603483612b9c565b915061480f826147a8565b604082019050919050565b60006020820190508181036000830152614833816147f7565b9050919050565b7f455243313135353a204552433131353552656365697665722072656a6563746560008201527f6420746f6b656e73000000000000000000000000000000000000000000000000602082015250565b6000614896602883612b9c565b91506148a18261483a565b604082019050919050565b600060208201905081810360008301526148c581614889565b9050919050565b600060a0820190506148e160008301886137b0565b6148ee60208301876137b0565b6148fb6040830186612dd8565b6149086060830185612dd8565b818103608083015261491a8184614600565b9050969550505050505056fea26469706673582212205e42fab60206e3198ec87fa82ff4098241e551108c4cc9e9929cd98cefb6c1dc64736f6c634300080b0033",
  "linkReferences": {},
  "deployedLinkReferences": {}
}