{
  "_format": "hh-sol-artifact-1",
  "contractName": "ERC721SeaDrop",
  "sourceName": "src/ERC721SeaDrop.sol",
  "abi": [
    {
      "inputs": [
        {
          "internalType": "string",
          "name": "name",
          "type": "string"
        },
        {
          "internalType": "string",
          "name": "symbol",
          "type": "string"
        },
        {
          "internalType": "address[]",
          "name": "allowedSeaDrop",
          "type": "address[]"
        }
      ],
      "stateMutability": "nonpayable",
      "type": "constructor"
    },
    {
      "inputs": [],
      "name": "AlreadyInitialized",
      "type": "error"
    },
    {
      "inputs": [],
      "name": "ApprovalCallerNotOwnerNorApproved",
      "type": "error"
    },
    {
      "inputs": [],
      "name": "ApprovalQueryForNonexistentToken",
      "type": "error"
    },
    {
      "inputs": [],
      "name": "BalanceQueryForZeroAddress",
      "type": "error"
    },
    {
      "inputs": [
        {
          "internalType": "uint256",
          "name": "newMaxSupply",
          "type": "uint256"
        }
      ],
      "name": "CannotExceedMaxSupplyOfUint64",
      "type": "error"
    },
    {
      "inputs": [
        {
          "internalType": "uint256",
          "name": "basisPoints",
          "type": "uint256"
        }
      ],
      "name": "InvalidRoyaltyBasisPoints",
      "type": "error"
    },
    {
      "inputs": [],
      "name": "MintERC2309QuantityExceedsLimit",
      "type": "error"
    },
    {
      "inputs": [
        {
          "internalType": "uint256",
          "name": "total",
          "type": "uint256"
        },
        {
          "internalType": "uint256",
          "name": "maxSupply",
          "type": "uint256"
        }
      ],
      "name": "MintQuantityExceedsMaxSupply",
      "type": "error"
    },
    {
      "inputs": [],
      "name": "MintToZeroAddress",
      "type": "error"
    },
    {
      "inputs": [],
      "name": "MintZeroQuantity",
      "type": "error"
    },
    {
      "inputs": [],
      "name": "NewOwnerIsZeroAddress",
      "type": "error"
    },
    {
      "inputs": [],
      "name": "NotNextOwner",
      "type": "error"
    },
    {
      "inputs": [],
      "name": "OnlyAllowedSeaDrop",
      "type": "error"
    },
    {
      "inputs": [],
      "name": "OnlyOwner",
      "type": "error"
    },
    {
      "inputs": [
        {
          "internalType": "address",
          "name": "operator",
          "type": "address"
        }
      ],
      "name": "OperatorNotAllowed",
      "type": "error"
    },
    {
      "inputs": [],
      "name": "OwnerQueryForNonexistentToken",
      "type": "error"
    },
    {
      "inputs": [],
      "name": "OwnershipNotInitializedForExtraData",
      "type": "error"
    },
    {
      "inputs": [],
      "name": "ProvenanceHashCannotBeSetAfterMintStarted",
      "type": "error"
    },
    {
      "inputs": [],
      "name": "RoyaltyAddressCannotBeZeroAddress",
      "type": "error"
    },
    {
      "inputs": [],
      "name": "SignersMismatch",
      "type": "error"
    },
    {
      "inputs": [],
      "name": "TokenGatedMismatch",
      "type": "error"
    },
    {
      "inputs": [],
      "name": "TransferCallerNotOwnerNorApproved",
      "type": "error"
    },
    {
      "inputs": [],
      "name": "TransferFromIncorrectOwner",
      "type": "error"
    },
    {
      "inputs": [],
      "name": "TransferToNonERC721ReceiverImplementer",
      "type": "error"
    },
    {
      "inputs": [],
      "name": "TransferToZeroAddress",
      "type": "error"
    },
    {
      "inputs": [],
      "name": "URIQueryForNonexistentToken",
      "type": "error"
    },
    {
      "anonymous": false,
      "inputs": [
        {
          "indexed": false,
          "internalType": "address[]",
          "name": "allowedSeaDrop",
          "type": "address[]"
        }
      ],
      "name": "AllowedSeaDropUpdated",
      "type": "event"
    },
    {
      "anonymous": false,
      "inputs": [
        {
          "indexed": true,
          "internalType": "address",
          "name": "owner",
          "type": "address"
        },
        {
          "indexed": true,
          "internalType": "address",
          "name": "approved",
          "type": "address"
        },
        {
          "indexed": true,
          "internalType": "uint256",
          "name": "tokenId",
          "type": "uint256"
        }
      ],
      "name": "Approval",
      "type": "event"
    },
    {
      "anonymous": false,
      "inputs": [
        {
          "indexed": true,
          "internalType": "address",
          "name": "owner",
          "type": "address"
        },
        {
          "indexed": true,
          "internalType": "address",
          "name": "operator",
          "type": "address"
        },
        {
          "indexed": false,
          "internalType": "bool",
          "name": "approved",
          "type": "bool"
        }
      ],
      "name": "ApprovalForAll",
      "type": "event"
    },
    {
      "anonymous": false,
      "inputs": [
        {
          "indexed": false,
          "internalType": "uint256",
          "name": "_fromTokenId",
          "type": "uint256"
        },
        {
          "indexed": false,
          "internalType": "uint256",
          "name": "_toTokenId",
          "type": "uint256"
        }
      ],
      "name": "BatchMetadataUpdate",
      "type": "event"
    },
    {
      "anonymous": false,
      "inputs": [
        {
          "indexed": true,
          "internalType": "uint256",
          "name": "fromTokenId",
          "type": "uint256"
        },
        {
          "indexed": false,
          "internalType": "uint256",
          "name": "toTokenId",
          "type": "uint256"
        },
        {
          "indexed": true,
          "internalType": "address",
          "name": "from",
          "type": "address"
        },
        {
          "indexed": true,
          "internalType": "address",
          "name": "to",
          "type": "address"
        }
      ],
      "name": "ConsecutiveTransfer",
      "type": "event"
    },
    {
      "anonymous": false,
      "inputs": [
        {
          "indexed": false,
          "internalType": "string",
          "name": "newContractURI",
          "type": "string"
        }
      ],
      "name": "ContractURIUpdated",
      "type": "event"
    },
    {
      "anonymous": false,
      "inputs": [
        {
          "indexed": false,
          "internalType": "uint256",
          "name": "newMaxSupply",
          "type": "uint256"
        }
      ],
      "name": "MaxSupplyUpdated",
      "type": "event"
    },
    {
      "anonymous": false,
      "inputs": [
        {
          "indexed": true,
          "internalType": "address",
          "name": "previousOwner",
          "type": "address"
        },
        {
          "indexed": true,
          "internalType": "address",
          "name": "newOwner",
          "type": "address"
        }
      ],
      "name": "OwnershipTransferred",
      "type": "event"
    },
    {
      "anonymous": false,
      "inputs": [
        {
          "indexed": false,
          "internalType": "address",
          "name": "newPotentialAdministrator",
          "type": "address"
        }
      ],
      "name": "PotentialOwnerUpdated",
      "type": "event"
    },
    {
      "anonymous": false,
      "inputs": [
        {
          "indexed": false,
          "internalType": "bytes32",
          "name": "previousHash",
          "type": "bytes32"
        },
        {
          "indexed": false,
          "internalType": "bytes32",
          "name": "newHash",
          "type": "bytes32"
        }
      ],
      "name": "ProvenanceHashUpdated",
      "type": "event"
    },
    {
      "anonymous": false,
      "inputs": [
        {
          "indexed": false,
          "internalType": "address",
          "name": "receiver",
          "type": "address"
        },
        {
          "indexed": false,
          "internalType": "uint256",
          "name": "bps",
          "type": "uint256"
        }
      ],
      "name": "RoyaltyInfoUpdated",
      "type": "event"
    },
    {
      "anonymous": false,
      "inputs": [],
      "name": "SeaDropTokenDeployed",
      "type": "event"
    },
    {
      "anonymous": false,
      "inputs": [
        {
          "indexed": true,
          "internalType": "address",
          "name": "from",
          "type": "address"
        },
        {
          "indexed": true,
          "internalType": "address",
          "name": "to",
          "type": "address"
        },
        {
          "indexed": true,
          "internalType": "uint256",
          "name": "tokenId",
          "type": "uint256"
        }
      ],
      "name": "Transfer",
      "type": "event"
    },
    {
      "inputs": [],
      "name": "OPERATOR_FILTER_REGISTRY",
      "outputs": [
        {
          "internalType": "contract IOperatorFilterRegistry",
          "name": "",
          "type": "address"
        }
      ],
      "stateMutability": "view",
      "type": "function"
    },
    {
      "inputs": [],
      "name": "acceptOwnership",
      "outputs": [],
      "stateMutability": "nonpayable",
      "type": "function"
    },
    {
      "inputs": [
        {
          "internalType": "address",
          "name": "operator",
          "type": "address"
        },
        {
          "internalType": "uint256",
          "name": "tokenId",
          "type": "uint256"
        }
      ],
      "name": "approve",
      "outputs": [],
      "stateMutability": "nonpayable",
      "type": "function"
    },
    {
      "inputs": [
        {
          "internalType": "address",
          "name": "owner",
          "type": "address"
        }
      ],
      "name": "balanceOf",
      "outputs": [
        {
          "internalType": "uint256",
          "name": "",
          "type": "uint256"
        }
      ],
      "stateMutability": "view",
      "type": "function"
    },
    {
      "inputs": [],
      "name": "baseURI",
      "outputs": [
        {
          "internalType": "string",
          "name": "",
          "type": "string"
        }
      ],
      "stateMutability": "view",
      "type": "function"
    },
    {
      "inputs": [],
      "name": "cancelOwnershipTransfer",
      "outputs": [],
      "stateMutability": "nonpayable",
      "type": "function"
    },
    {
      "inputs": [],
      "name": "contractURI",
      "outputs": [
        {
          "internalType": "string",
          "name": "",
          "type": "string"
        }
      ],
      "stateMutability": "view",
      "type": "function"
    },
    {
      "inputs": [
        {
          "internalType": "uint256",
          "name": "fromTokenId",
          "type": "uint256"
        },
        {
          "internalType": "uint256",
          "name": "toTokenId",
          "type": "uint256"
        }
      ],
      "name": "emitBatchMetadataUpdate",
      "outputs": [],
      "stateMutability": "nonpayable",
      "type": "function"
    },
    {
      "inputs": [
        {
          "internalType": "uint256",
          "name": "tokenId",
          "type": "uint256"
        }
      ],
      "name": "getApproved",
      "outputs": [
        {
          "internalType": "address",
          "name": "",
          "type": "address"
        }
      ],
      "stateMutability": "view",
      "type": "function"
    },
    {
      "inputs": [
        {
          "internalType": "address",
          "name": "minter",
          "type": "address"
        }
      ],
      "name": "getMintStats",
      "outputs": [
        {
          "internalType": "uint256",
          "name": "minterNumMinted",
          "type": "uint256"
        },
        {
          "internalType": "uint256",
          "name": "currentTotalSupply",
          "type": "uint256"
        },
        {
          "internalType": "uint256",
          "name": "maxSupply",
          "type": "uint256"
        }
      ],
      "stateMutability": "view",
      "type": "function"
    },
    {
      "inputs": [
        {
          "internalType": "address",
          "name": "account",
          "type": "address"
        }
      ],
      "name": "getOwnerTokens",
      "outputs": [
        {
          "internalType": "uint256[]",
          "name": "",
          "type": "uint256[]"
        }
      ],
      "stateMutability": "view",
      "type": "function"
    },
    {
      "inputs": [
        {
          "internalType": "address",
          "name": "owner",
          "type": "address"
        },
        {
          "internalType": "address",
          "name": "operator",
          "type": "address"
        }
      ],
      "name": "isApprovedForAll",
      "outputs": [
        {
          "internalType": "bool",
          "name": "",
          "type": "bool"
        }
      ],
      "stateMutability": "view",
      "type": "function"
    },
    {
      "inputs": [],
      "name": "maxSupply",
      "outputs": [
        {
          "internalType": "uint256",
          "name": "",
          "type": "uint256"
        }
      ],
      "stateMutability": "view",
      "type": "function"
    },
    {
      "inputs": [
        {
          "internalType": "address",
          "name": "minter",
          "type": "address"
        },
        {
          "internalType": "uint256",
          "name": "quantity",
          "type": "uint256"
        }
      ],
      "name": "mintSeaDrop",
      "outputs": [],
      "stateMutability": "nonpayable",
      "type": "function"
    },
    {
      "inputs": [
        {
          "components": [
            {
              "internalType": "uint256",
              "name": "maxSupply",
              "type": "uint256"
            },
            {
              "internalType": "string",
              "name": "baseURI",
              "type": "string"
            },
            {
              "internalType": "string",
              "name": "contractURI",
              "type": "string"
            },
            {
              "internalType": "address",
              "name": "seaDropImpl",
              "type": "address"
            },
            {
              "components": [
                {
                  "internalType": "uint80",
                  "name": "mintPrice",
                  "type": "uint80"
                },
                {
                  "internalType": "uint48",
                  "name": "startTime",
                  "type": "uint48"
                },
                {
                  "internalType": "uint48",
                  "name": "endTime",
                  "type": "uint48"
                },
                {
                  "internalType": "uint16",
                  "name": "maxTotalMintableByWallet",
                  "type": "uint16"
                },
                {
                  "internalType": "uint16",
                  "name": "feeBps",
                  "type": "uint16"
                },
                {
                  "internalType": "bool",
                  "name": "restrictFeeRecipients",
                  "type": "bool"
                }
              ],
              "internalType": "struct PublicDrop",
              "name": "publicDrop",
              "type": "tuple"
            },
            {
              "internalType": "string",
              "name": "dropURI",
              "type": "string"
            },
            {
              "components": [
                {
                  "internalType": "bytes32",
                  "name": "merkleRoot",
                  "type": "bytes32"
                },
                {
                  "internalType": "string[]",
                  "name": "publicKeyURIs",
                  "type": "string[]"
                },
                {
                  "internalType": "string",
                  "name": "allowListURI",
                  "type": "string"
                }
              ],
              "internalType": "struct AllowListData",
              "name": "allowListData",
              "type": "tuple"
            },
            {
              "internalType": "address",
              "name": "creatorPayoutAddress",
              "type": "address"
            },
            {
              "internalType": "bytes32",
              "name": "provenanceHash",
              "type": "bytes32"
            },
            {
              "internalType": "address[]",
              "name": "allowedFeeRecipients",
              "type": "address[]"
            },
            {
              "internalType": "address[]",
              "name": "disallowedFeeRecipients",
              "type": "address[]"
            },
            {
              "internalType": "address[]",
              "name": "allowedPayers",
              "type": "address[]"
            },
            {
              "internalType": "address[]",
              "name": "disallowedPayers",
              "type": "address[]"
            },
            {
              "internalType": "address[]",
              "name": "tokenGatedAllowedNftTokens",
              "type": "address[]"
            },
            {
              "components": [
                {
                  "internalType": "uint80",
                  "name": "mintPrice",
                  "type": "uint80"
                },
                {
                  "internalType": "uint16",
                  "name": "maxTotalMintableByWallet",
                  "type": "uint16"
                },
                {
                  "internalType": "uint48",
                  "name": "startTime",
                  "type": "uint48"
                },
                {
                  "internalType": "uint48",
                  "name": "endTime",
                  "type": "uint48"
                },
                {
                  "internalType": "uint8",
                  "name": "dropStageIndex",
                  "type": "uint8"
                },
                {
                  "internalType": "uint32",
                  "name": "maxTokenSupplyForStage",
                  "type": "uint32"
                },
                {
                  "internalType": "uint16",
                  "name": "feeBps",
                  "type": "uint16"
                },
                {
                  "internalType": "bool",
                  "name": "restrictFeeRecipients",
                  "type": "bool"
                }
              ],
              "internalType": "struct TokenGatedDropStage[]",
              "name": "tokenGatedDropStages",
              "type": "tuple[]"
            },
            {
              "internalType": "address[]",
              "name": "disallowedTokenGatedAllowedNftTokens",
              "type": "address[]"
            },
            {
              "internalType": "address[]",
              "name": "signers",
              "type": "address[]"
            },
            {
              "components": [
                {
                  "internalType": "uint80",
                  "name": "minMintPrice",
                  "type": "uint80"
                },
                {
                  "internalType": "uint24",
                  "name": "maxMaxTotalMintableByWallet",
                  "type": "uint24"
                },
                {
                  "internalType": "uint40",
                  "name": "minStartTime",
                  "type": "uint40"
                },
                {
                  "internalType": "uint40",
                  "name": "maxEndTime",
                  "type": "uint40"
                },
                {
                  "internalType": "uint40",
                  "name": "maxMaxTokenSupplyForStage",
                  "type": "uint40"
                },
                {
                  "internalType": "uint16",
                  "name": "minFeeBps",
                  "type": "uint16"
                },
                {
                  "internalType": "uint16",
                  "name": "maxFeeBps",
                  "type": "uint16"
                }
              ],
              "internalType": "struct SignedMintValidationParams[]",
              "name": "signedMintValidationParams",
              "type": "tuple[]"
            },
            {
              "internalType": "address[]",
              "name": "disallowedSigners",
              "type": "address[]"
            }
          ],
          "internalType": "struct ERC721SeaDropStructsErrorsAndEvents.MultiConfigureStruct",
          "name": "config",
          "type": "tuple"
        }
      ],
      "name": "multiConfigure",
      "outputs": [],
      "stateMutability": "nonpayable",
      "type": "function"
    },
    {
      "inputs": [],
      "name": "name",
      "outputs": [
        {
          "internalType": "string",
          "name": "",
          "type": "string"
        }
      ],
      "stateMutability": "view",
      "type": "function"
    },
    {
      "inputs": [],
      "name": "owner",
      "outputs": [
        {
          "internalType": "address",
          "name": "",
          "type": "address"
        }
      ],
      "stateMutability": "view",
      "type": "function"
    },
    {
      "inputs": [
        {
          "internalType": "uint256",
          "name": "tokenId",
          "type": "uint256"
        }
      ],
      "name": "ownerOf",
      "outputs": [
        {
          "internalType": "address",
          "name": "",
          "type": "address"
        }
      ],
      "stateMutability": "view",
      "type": "function"
    },
    {
      "inputs": [
        {
          "internalType": "address",
          "name": "",
          "type": "address"
        },
        {
          "internalType": "uint256",
          "name": "",
          "type": "uint256"
        }
      ],
      "name": "ownerTokens",
      "outputs": [
        {
          "internalType": "uint256",
          "name": "",
          "type": "uint256"
        }
      ],
      "stateMutability": "view",
      "type": "function"
    },
    {
      "inputs": [],
      "name": "provenanceHash",
      "outputs": [
        {
          "internalType": "bytes32",
          "name": "",
          "type": "bytes32"
        }
      ],
      "stateMutability": "view",
      "type": "function"
    },
    {
      "inputs": [],
      "name": "renounceOwnership",
      "outputs": [],
      "stateMutability": "nonpayable",
      "type": "function"
    },
    {
      "inputs": [],
      "name": "royaltyAddress",
      "outputs": [
        {
          "internalType": "address",
          "name": "",
          "type": "address"
        }
      ],
      "stateMutability": "view",
      "type": "function"
    },
    {
      "inputs": [],
      "name": "royaltyBasisPoints",
      "outputs": [
        {
          "internalType": "uint256",
          "name": "",
          "type": "uint256"
        }
      ],
      "stateMutability": "view",
      "type": "function"
    },
    {
      "inputs": [
        {
          "internalType": "uint256",
          "name": "",
          "type": "uint256"
        },
        {
          "internalType": "uint256",
          "name": "_salePrice",
          "type": "uint256"
        }
      ],
      "name": "royaltyInfo",
      "outputs": [
        {
          "internalType": "address",
          "name": "receiver",
          "type": "address"
        },
        {
          "internalType": "uint256",
          "name": "royaltyAmount",
          "type": "uint256"
        }
      ],
      "stateMutability": "view",
      "type": "function"
    },
    {
      "inputs": [
        {
          "internalType": "address",
          "name": "from",
          "type": "address"
        },
        {
          "internalType": "address",
          "name": "to",
          "type": "address"
        },
        {
          "internalType": "uint256",
          "name": "tokenId",
          "type": "uint256"
        }
      ],
      "name": "safeTransferFrom",
      "outputs": [],
      "stateMutability": "nonpayable",
      "type": "function"
    },
    {
      "inputs": [
        {
          "internalType": "address",
          "name": "from",
          "type": "address"
        },
        {
          "internalType": "address",
          "name": "to",
          "type": "address"
        },
        {
          "internalType": "uint256",
          "name": "tokenId",
          "type": "uint256"
        },
        {
          "internalType": "bytes",
          "name": "data",
          "type": "bytes"
        }
      ],
      "name": "safeTransferFrom",
      "outputs": [],
      "stateMutability": "nonpayable",
      "type": "function"
    },
    {
      "inputs": [
        {
          "internalType": "address",
          "name": "operator",
          "type": "address"
        },
        {
          "internalType": "bool",
          "name": "approved",
          "type": "bool"
        }
      ],
      "name": "setApprovalForAll",
      "outputs": [],
      "stateMutability": "nonpayable",
      "type": "function"
    },
    {
      "inputs": [
        {
          "internalType": "string",
          "name": "newBaseURI",
          "type": "string"
        }
      ],
      "name": "setBaseURI",
      "outputs": [],
      "stateMutability": "nonpayable",
      "type": "function"
    },
    {
      "inputs": [
        {
          "internalType": "string",
          "name": "newContractURI",
          "type": "string"
        }
      ],
      "name": "setContractURI",
      "outputs": [],
      "stateMutability": "nonpayable",
      "type": "function"
    },
    {
      "inputs": [
        {
          "internalType": "uint256",
          "name": "newMaxSupply",
          "type": "uint256"
        }
      ],
      "name": "setMaxSupply",
      "outputs": [],
      "stateMutability": "nonpayable",
      "type": "function"
    },
    {
      "inputs": [
        {
          "internalType": "bytes32",
          "name": "newProvenanceHash",
          "type": "bytes32"
        }
      ],
      "name": "setProvenanceHash",
      "outputs": [],
      "stateMutability": "nonpayable",
      "type": "function"
    },
    {
      "inputs": [
        {
          "components": [
            {
              "internalType": "address",
              "name": "royaltyAddress",
              "type": "address"
            },
            {
              "internalType": "uint96",
              "name": "royaltyBps",
              "type": "uint96"
            }
          ],
          "internalType": "struct ISeaDropTokenContractMetadata.RoyaltyInfo",
          "name": "newInfo",
          "type": "tuple"
        }
      ],
      "name": "setRoyaltyInfo",
      "outputs": [],
      "stateMutability": "nonpayable",
      "type": "function"
    },
    {
      "inputs": [
        {
          "internalType": "bytes4",
          "name": "interfaceId",
          "type": "bytes4"
        }
      ],
      "name": "supportsInterface",
      "outputs": [
        {
          "internalType": "bool",
          "name": "",
          "type": "bool"
        }
      ],
      "stateMutability": "view",
      "type": "function"
    },
    {
      "inputs": [],
      "name": "symbol",
      "outputs": [
        {
          "internalType": "string",
          "name": "",
          "type": "string"
        }
      ],
      "stateMutability": "view",
      "type": "function"
    },
    {
      "inputs": [
        {
          "internalType": "uint256",
          "name": "tokenId",
          "type": "uint256"
        }
      ],
      "name": "tokenURI",
      "outputs": [
        {
          "internalType": "string",
          "name": "",
          "type": "string"
        }
      ],
      "stateMutability": "view",
      "type": "function"
    },
    {
      "inputs": [],
      "name": "totalSupply",
      "outputs": [
        {
          "internalType": "uint256",
          "name": "",
          "type": "uint256"
        }
      ],
      "stateMutability": "view",
      "type": "function"
    },
    {
      "inputs": [
        {
          "internalType": "address",
          "name": "from",
          "type": "address"
        },
        {
          "internalType": "address",
          "name": "to",
          "type": "address"
        },
        {
          "internalType": "uint256",
          "name": "tokenId",
          "type": "uint256"
        }
      ],
      "name": "transferFrom",
      "outputs": [],
      "stateMutability": "nonpayable",
      "type": "function"
    },
    {
      "inputs": [
        {
          "internalType": "address",
          "name": "newPotentialOwner",
          "type": "address"
        }
      ],
      "name": "transferOwnership",
      "outputs": [],
      "stateMutability": "nonpayable",
      "type": "function"
    },
    {
      "inputs": [
        {
          "internalType": "address",
          "name": "seaDropImpl",
          "type": "address"
        },
        {
          "components": [
            {
              "internalType": "bytes32",
              "name": "merkleRoot",
              "type": "bytes32"
            },
            {
              "internalType": "string[]",
              "name": "publicKeyURIs",
              "type": "string[]"
            },
            {
              "internalType": "string",
              "name": "allowListURI",
              "type": "string"
            }
          ],
          "internalType": "struct AllowListData",
          "name": "allowListData",
          "type": "tuple"
        }
      ],
      "name": "updateAllowList",
      "outputs": [],
      "stateMutability": "nonpayable",
      "type": "function"
    },
    {
      "inputs": [
        {
          "internalType": "address",
          "name": "seaDropImpl",
          "type": "address"
        },
        {
          "internalType": "address",
          "name": "feeRecipient",
          "type": "address"
        },
        {
          "internalType": "bool",
          "name": "allowed",
          "type": "bool"
        }
      ],
      "name": "updateAllowedFeeRecipient",
      "outputs": [],
      "stateMutability": "nonpayable",
      "type": "function"
    },
    {
      "inputs": [
        {
          "internalType": "address[]",
          "name": "allowedSeaDrop",
          "type": "address[]"
        }
      ],
      "name": "updateAllowedSeaDrop",
      "outputs": [],
      "stateMutability": "nonpayable",
      "type": "function"
    },
    {
      "inputs": [
        {
          "internalType": "address",
          "name": "seaDropImpl",
          "type": "address"
        },
        {
          "internalType": "address",
          "name": "payoutAddress",
          "type": "address"
        }
      ],
      "name": "updateCreatorPayoutAddress",
      "outputs": [],
      "stateMutability": "nonpayable",
      "type": "function"
    },
    {
      "inputs": [
        {
          "internalType": "address",
          "name": "seaDropImpl",
          "type": "address"
        },
        {
          "internalType": "string",
          "name": "dropURI",
          "type": "string"
        }
      ],
      "name": "updateDropURI",
      "outputs": [],
      "stateMutability": "nonpayable",
      "type": "function"
    },
    {
      "inputs": [
        {
          "internalType": "address",
          "name": "seaDropImpl",
          "type": "address"
        },
        {
          "internalType": "address",
          "name": "payer",
          "type": "address"
        },
        {
          "internalType": "bool",
          "name": "allowed",
          "type": "bool"
        }
      ],
      "name": "updatePayer",
      "outputs": [],
      "stateMutability": "nonpayable",
      "type": "function"
    },
    {
      "inputs": [
        {
          "internalType": "address",
          "name": "seaDropImpl",
          "type": "address"
        },
        {
          "components": [
            {
              "internalType": "uint80",
              "name": "mintPrice",
              "type": "uint80"
            },
            {
              "internalType": "uint48",
              "name": "startTime",
              "type": "uint48"
            },
            {
              "internalType": "uint48",
              "name": "endTime",
              "type": "uint48"
            },
            {
              "internalType": "uint16",
              "name": "maxTotalMintableByWallet",
              "type": "uint16"
            },
            {
              "internalType": "uint16",
              "name": "feeBps",
              "type": "uint16"
            },
            {
              "internalType": "bool",
              "name": "restrictFeeRecipients",
              "type": "bool"
            }
          ],
          "internalType": "struct PublicDrop",
          "name": "publicDrop",
          "type": "tuple"
        }
      ],
      "name": "updatePublicDrop",
      "outputs": [],
      "stateMutability": "nonpayable",
      "type": "function"
    },
    {
      "inputs": [
        {
          "internalType": "address",
          "name": "seaDropImpl",
          "type": "address"
        },
        {
          "internalType": "address",
          "name": "signer",
          "type": "address"
        },
        {
          "components": [
            {
              "internalType": "uint80",
              "name": "minMintPrice",
              "type": "uint80"
            },
            {
              "internalType": "uint24",
              "name": "maxMaxTotalMintableByWallet",
              "type": "uint24"
            },
            {
              "internalType": "uint40",
              "name": "minStartTime",
              "type": "uint40"
            },
            {
              "internalType": "uint40",
              "name": "maxEndTime",
              "type": "uint40"
            },
            {
              "internalType": "uint40",
              "name": "maxMaxTokenSupplyForStage",
              "type": "uint40"
            },
            {
              "internalType": "uint16",
              "name": "minFeeBps",
              "type": "uint16"
            },
            {
              "internalType": "uint16",
              "name": "maxFeeBps",
              "type": "uint16"
            }
          ],
          "internalType": "struct SignedMintValidationParams",
          "name": "signedMintValidationParams",
          "type": "tuple"
        }
      ],
      "name": "updateSignedMintValidationParams",
      "outputs": [],
      "stateMutability": "nonpayable",
      "type": "function"
    },
    {
      "inputs": [
        {
          "internalType": "address",
          "name": "seaDropImpl",
          "type": "address"
        },
        {
          "internalType": "address",
          "name": "allowedNftToken",
          "type": "address"
        },
        {
          "components": [
            {
              "internalType": "uint80",
              "name": "mintPrice",
              "type": "uint80"
            },
            {
              "internalType": "uint16",
              "name": "maxTotalMintableByWallet",
              "type": "uint16"
            },
            {
              "internalType": "uint48",
              "name": "startTime",
              "type": "uint48"
            },
            {
              "internalType": "uint48",
              "name": "endTime",
              "type": "uint48"
            },
            {
              "internalType": "uint8",
              "name": "dropStageIndex",
              "type": "uint8"
            },
            {
              "internalType": "uint32",
              "name": "maxTokenSupplyForStage",
              "type": "uint32"
            },
            {
              "internalType": "uint16",
              "name": "feeBps",
              "type": "uint16"
            },
            {
              "internalType": "bool",
              "name": "restrictFeeRecipients",
              "type": "bool"
            }
          ],
          "internalType": "struct TokenGatedDropStage",
          "name": "dropStage",
          "type": "tuple"
        }
      ],
      "name": "updateTokenGatedDrop",
      "outputs": [],
      "stateMutability": "nonpayable",
      "type": "function"
    }
  ],
  "bytecode": "0x60806040526001600f553480156200001657600080fd5b50604051620054b4380380620054b4833981016040819052620000399162000450565b733cc6cdda760b79bafa08df41ecfa224f810dceb66001848481816002620000628382620005f6565b506003620000718282620005f6565b5050600160005550620000836200027a565b50506daaeb6d7670e522a718067333cd4e3b15620001ca5780156200011857604051633e9f1edf60e11b81523060048201526001600160a01b03831660248201526daaeb6d7670e522a718067333cd4e90637d3e3dbe906044015b600060405180830381600087803b158015620000f957600080fd5b505af11580156200010e573d6000803e3d6000fd5b50505050620001ca565b6001600160a01b03821615620001695760405163a0af290360e01b81523060048201526001600160a01b03831660248201526daaeb6d7670e522a718067333cd4e9063a0af290390604401620000de565b604051632210724360e11b81523060048201526daaeb6d7670e522a718067333cd4e90634420e48690602401600060405180830381600087803b158015620001b057600080fd5b505af1158015620001c5573d6000803e3d6000fd5b505050505b5050805160005b818110156200023057600160106000858481518110620001f557620001f5620006c2565b6020908102919091018101516001600160a01b03168252810191909152604001600020805460ff1916911515919091179055600101620001d1565b50815162000246906011906020850190620002f9565b506040517fd7aca75208b9be5ffc04c6a01922020ffd62b55e68e502e317f5344960279af890600090a150505050620006d8565b303b156200029a5760405162dc149f60e41b815260040160405180910390fd5b620002a533620002a7565b565b600880546001600160a01b038381166001600160a01b0319831681179093556040519116919082907f8be0079c531659141344cd1fd0a4f28419497f9722a3daafe3b4186f6b6457e090600090a35050565b82805482825590600052602060002090810192821562000351579160200282015b828111156200035157825182546001600160a01b0319166001600160a01b039091161782556020909201916001909101906200031a565b506200035f92915062000363565b5090565b5b808211156200035f576000815560010162000364565b634e487b7160e01b600052604160045260246000fd5b604051601f8201601f191681016001600160401b0381118282101715620003bb57620003bb6200037a565b604052919050565b600082601f830112620003d557600080fd5b81516001600160401b03811115620003f157620003f16200037a565b602062000407601f8301601f1916820162000390565b82815285828487010111156200041c57600080fd5b60005b838110156200043c5785810183015182820184015282016200041f565b506000928101909101919091529392505050565b6000806000606084860312156200046657600080fd5b83516001600160401b03808211156200047e57600080fd5b6200048c87838801620003c3565b9450602091508186015181811115620004a457600080fd5b620004b288828901620003c3565b945050604086015181811115620004c857600080fd5b8601601f81018813620004da57600080fd5b805182811115620004ef57620004ef6200037a565b8060051b92506200050284840162000390565b818152928201840192848101908a8511156200051d57600080fd5b928501925b848410156200055757835192506001600160a01b0383168314620005465760008081fd5b828252928501929085019062000522565b8096505050505050509250925092565b600181811c908216806200057c57607f821691505b6020821081036200059d57634e487b7160e01b600052602260045260246000fd5b50919050565b601f821115620005f157600081815260208120601f850160051c81016020861015620005cc5750805b601f850160051c820191505b81811015620005ed57828155600101620005d8565b5050505b505050565b81516001600160401b038111156200061257620006126200037a565b6200062a8162000623845462000567565b84620005a3565b602080601f831160018114620006625760008415620006495750858301515b600019600386901b1c1916600185901b178555620005ed565b600085815260208120601f198616915b82811015620006935788860151825594840194600190910190840162000672565b5085821015620006b25787850151600019600388901b60f8161c191681555b5050505050600190811b01905550565b634e487b7160e01b600052603260045260246000fd5b614dcc80620006e86000396000f3fe608060405234801561001057600080fd5b50600436106103155760003560e01c80636c0360eb116101a7578063a22cb465116100ee578063cb743ba811610097578063e8a3d48511610071578063e8a3d485146106fb578063e985e9c514610703578063f2fde38b1461074c57600080fd5b8063cb743ba8146106c0578063d5abeb01146106d3578063d63d4af0146106db57600080fd5b8063b88d4fde116100c8578063b88d4fde14610692578063c6ab67a3146106a5578063c87b56dd146106ad57600080fd5b8063a22cb4651461064e578063a483011414610661578063ad2f852a1461067457600080fd5b80637bc2be7611610150578063911f456b1161012a578063911f456b14610620578063938e3d7b1461063357806395d89b411461064657600080fd5b80637bc2be76146105c1578063840e15d4146105d45780638da5cb5b1461060257600080fd5b8063715018a611610181578063715018a61461059e57806379ba5097146105a65780637a05bc82146105ae57600080fd5b80636c0360eb146105705780636f8b44b01461057857806370a082311461058b57600080fd5b80633680620d1161026b578063511aa644116102145780636352211e116101ee5780636352211e1461053757806364869dad1461054a57806366251b691461055d57600080fd5b8063511aa644146104fe57806355f804b31461051157806360c308b61461052457600080fd5b806342842e0e1161024557806342842e0e146104c557806344dae42c146104d857806348a4c101146104eb57600080fd5b80633680620d1461046f57806341f434341461048257806342260b5d1461049757600080fd5b806318160ddd116102cd57806323b872dd116102a757806323b872dd1461040a57806328b600311461041d5780632a55205a1461043057600080fd5b806318160ddd146103b75780631b73593c146103ef57806323452b9c1461040257600080fd5b8063081812fc116102fe578063081812fc14610357578063095ea7b31461038f578063099b6bfa146103a457600080fd5b806301ffc9a71461031a57806306fdde0314610342575b600080fd5b61032d6103283660046137db565b61075f565b60405190151581526020015b60405180910390f35b61034a610807565b6040516103399190613866565b61036a610365366004613879565b610899565b60405173ffffffffffffffffffffffffffffffffffffffff9091168152602001610339565b6103a261039d3660046138b4565b610903565b005b6103a26103b2366004613879565b61091c565b600154600054037fffffffffffffffffffffffffffffffffffffffffffffffffffffffffffffffff015b604051908152602001610339565b6103a26103fd3660046138e0565b6109c6565b6103a2610a5f565b6103a261041836600461393f565b610ac5565b6103e161042b3660046138b4565b610b08565b61044361043e366004613980565b610b39565b6040805173ffffffffffffffffffffffffffffffffffffffff9093168352602083019190915201610339565b6103a261047d3660046139a2565b610ba2565b61036a6daaeb6d7670e522a718067333cd4e81565b600e547401000000000000000000000000000000000000000090046bffffffffffffffffffffffff166103e1565b6103a26104d336600461393f565b610c05565b6103a26104e63660046139f9565b610c37565b6103a26104f9366004613a2f565b610da8565b6103a261050c366004613b75565b610e48565b6103a261051f366004613cab565b610ead565b6103a2610532366004613ced565b610f41565b61036a610545366004613879565b610f53565b6103a26105583660046138b4565b610f5e565b6103a261056b366004613d62565b611132565b61034a611197565b6103a2610586366004613879565b6111a6565b6103e1610599366004613d90565b611228565b6103a26112aa565b6103a26112be565b6103a26105bc366004613dad565b611378565b6103a26105cf366004613e02565b6113dd565b6105e76105e2366004613d90565b611442565b60408051938452602084019290925290820152606001610339565b60085473ffffffffffffffffffffffffffffffffffffffff1661036a565b6103a261062e366004613e75565b6114af565b6103a2610641366004613cab565b61224a565b61034a612291565b6103a261065c366004613eb1565b6122a0565b6103a261066f366004613980565b6122b4565b600e5473ffffffffffffffffffffffffffffffffffffffff1661036a565b6103a26106a0366004613edf565b6122f2565b600d546103e1565b61034a6106bb366004613879565b612337565b6103a26106ce366004613a2f565b6123d4565b600a546103e1565b6106ee6106e9366004613d90565b612441565b6040516103399190613fc1565b61034a6124ba565b61032d610711366004613d62565b73ffffffffffffffffffffffffffffffffffffffff918216600090815260076020908152604080832093909416825291909152205460ff1690565b6103a261075a366004613d90565b6124c9565b60007fffffffff0000000000000000000000000000000000000000000000000000000082167f1890fe8e0000000000000000000000000000000000000000000000000000000014806107f257507fffffffff0000000000000000000000000000000000000000000000000000000082167f9c15441500000000000000000000000000000000000000000000000000000000145b80610801575061080182612591565b92915050565b60606002805461081690614005565b80601f016020809104026020016040519081016040528092919081815260200182805461084290614005565b801561088f5780601f106108645761010080835404028352916020019161088f565b820191906000526020600020905b81548152906001019060200180831161087257829003601f168201915b5050505050905090565b60006108a482612633565b6108da576040517fcf4700e400000000000000000000000000000000000000000000000000000000815260040160405180910390fd5b5060009081526006602052604090205473ffffffffffffffffffffffffffffffffffffffff1690565b8161090d81612681565b6109178383612786565b505050565b61092461289b565b6000547fffffffffffffffffffffffffffffffffffffffffffffffffffffffffffffffff0115610980576040517fe03264af00000000000000000000000000000000000000000000000000000000815260040160405180910390fd5b600d80549082905560408051828152602081018490527f7c22004198bf87da0f0dab623c72e66ca1200f4454aa3b9ca30f436275428b7c91015b60405180910390a15050565b6109ce61289b565b6109d78261292b565b6040517f01308e6500000000000000000000000000000000000000000000000000000000815273ffffffffffffffffffffffffffffffffffffffff8316906301308e6590610a299084906004016140f6565b600060405180830381600087803b158015610a4357600080fd5b505af1158015610a57573d6000803e3d6000fd5b505050505050565b610a6761298f565b600980547fffffffffffffffffffffffff0000000000000000000000000000000000000000169055604051600081527f11a3cf439fb225bfe74225716b6774765670ec1060e3796802e62139d69974da9060200160405180910390a1565b8273ffffffffffffffffffffffffffffffffffffffff81163314610aec57610aec33612681565b610af78484846129e0565b610b02848484612c96565b50505050565b60126020528160005260406000208181548110610b2457600080fd5b90600052602060002001600091509150505481565b600e8054600091829161271090610b76907401000000000000000000000000000000000000000090046bffffffffffffffffffffffff1686614133565b610b80919061414a565b905473ffffffffffffffffffffffffffffffffffffffff169590945092505050565b610baa61289b565b610bb38261292b565b6040517febb4a55f00000000000000000000000000000000000000000000000000000000815273ffffffffffffffffffffffffffffffffffffffff83169063ebb4a55f90610a29908490600401614342565b8273ffffffffffffffffffffffffffffffffffffffff81163314610c2c57610c2c33612681565b610af7848484612e9e565b610c3f61289b565b6000610c4e6020830183613d90565b73ffffffffffffffffffffffffffffffffffffffff1603610c9b576040517f1cc0baef00000000000000000000000000000000000000000000000000000000815260040160405180910390fd5b612710610cae604083016020840161436f565b6bffffffffffffffffffffffff161115610d1a57610cd2604082016020830161436f565b6040517f3cadbafb0000000000000000000000000000000000000000000000000000000081526bffffffffffffffffffffffff90911660048201526024015b60405180910390fd5b80600e610d27828261438c565b507ff21fccf4d64d86d532c4e4eb86c007b6ad57a460c27d724188625e755ec6cf6d9050610d586020830183613d90565b610d68604084016020850161436f565b6040805173ffffffffffffffffffffffffffffffffffffffff90931683526bffffffffffffffffffffffff9091166020830152015b60405180910390a150565b610db061289b565b610db98361292b565b6040517f8e7d1e4300000000000000000000000000000000000000000000000000000000815273ffffffffffffffffffffffffffffffffffffffff83811660048301528215156024830152841690638e7d1e43906044015b600060405180830381600087803b158015610e2b57600080fd5b505af1158015610e3f573d6000803e3d6000fd5b50505050505050565b610e5061289b565b610e598361292b565b6040517f4d38017800000000000000000000000000000000000000000000000000000000815273ffffffffffffffffffffffffffffffffffffffff841690634d38017890610e1190859085906004016143f1565b610eb561289b565b600b610ec28284836144cb565b50600154600054037fffffffffffffffffffffffffffffffffffffffffffffffffffffffffffffffff0115610f3d577f6bd5c950a8d8df17f772f5af37cb3655737899cbf903264b9795592da439661c600180610f1e60005490565b610f2891906145e5565b604080519283526020830191909152016109ba565b5050565b610f4961298f565b610f3d8282612eb9565b600061080182613029565b600f54600114610fca576040517f08c379a000000000000000000000000000000000000000000000000000000000815260206004820152600a60248201527f5245454e5452414e4359000000000000000000000000000000000000000000006044820152606401610d11565b6002600f55610fd83361292b565b600a54816110076000547fffffffffffffffffffffffffffffffffffffffffffffffffffffffffffffffff0190565b61101191906145f8565b111561108b57806110436000547fffffffffffffffffffffffffffffffffffffffffffffffffffffffffffffffff0190565b61104d91906145f8565b600a546040517fe12d231400000000000000000000000000000000000000000000000000000000815260048101929092526024820152604401610d11565b60015b81811161111e5773ffffffffffffffffffffffffffffffffffffffff83166000908152601260205260409020816110ec6001546000547fffffffffffffffffffffffffffffffffffffffffffffffffffffffffffffffff9190030190565b6110f691906145f8565b81546001810183556000928352602090922090910155806111168161460b565b91505061108e565b5061112982826130e8565b50506001600f55565b61113a61289b565b6111438261292b565b6040517f12738db800000000000000000000000000000000000000000000000000000000815273ffffffffffffffffffffffffffffffffffffffff82811660048301528316906312738db890602401610a29565b60606111a1613102565b905090565b6111ae61289b565b67ffffffffffffffff8111156111f3576040517fb43e913700000000000000000000000000000000000000000000000000000000815260048101829052602401610d11565b600a8190556040518181527f7810bd47de260c3e9ee10061cf438099dd12256c79485f12f94dbccc981e806c90602001610d9d565b600073ffffffffffffffffffffffffffffffffffffffff8216611277576040517f8f4eb60400000000000000000000000000000000000000000000000000000000815260040160405180910390fd5b5073ffffffffffffffffffffffffffffffffffffffff1660009081526005602052604090205467ffffffffffffffff1690565b6112b261298f565b6112bc6000613111565b565b60095473ffffffffffffffffffffffffffffffffffffffff16338114611310576040517fd6eb09ce00000000000000000000000000000000000000000000000000000000815260040160405180910390fd5b600980547fffffffffffffffffffffffff0000000000000000000000000000000000000000169055604051600081527f11a3cf439fb225bfe74225716b6774765670ec1060e3796802e62139d69974da9060200160405180910390a161137581613111565b50565b61138061289b565b6113898361292b565b6040517fb957d0cb00000000000000000000000000000000000000000000000000000000815273ffffffffffffffffffffffffffffffffffffffff84169063b957d0cb90610e119085908590600401614643565b6113e561289b565b6113ee8361292b565b6040517ffd9ab22a00000000000000000000000000000000000000000000000000000000815273ffffffffffffffffffffffffffffffffffffffff84169063fd9ab22a90610e119085908590600401614728565b73ffffffffffffffffffffffffffffffffffffffff811660009081526005602052604080822054901c67ffffffffffffffff1690806114a26000547fffffffffffffffffffffffffffffffffffffffffffffffffffffffffffffffff0190565b600a549395909450915050565b6114b761298f565b803515611529576040517f6f8b44b0000000000000000000000000000000000000000000000000000000008152813560048201523090636f8b44b090602401600060405180830381600087803b15801561151057600080fd5b505af1158015611524573d6000803e3d6000fd5b505050505b6115366020820182614753565b1590506115a057306355f804b36115506020840184614753565b6040518363ffffffff1660e01b815260040161156d929190614643565b600060405180830381600087803b15801561158757600080fd5b505af115801561159b573d6000803e3d6000fd5b505050505b6115ad6040820182614753565b159050611617573063938e3d7b6115c76040840184614753565b6040518363ffffffff1660e01b81526004016115e4929190614643565b600060405180830381600087803b1580156115fe57600080fd5b505af1158015611612573d6000803e3d6000fd5b505050505b61163761162a60e0830160c084016147b8565b65ffffffffffff16151590565b61164a61162a60c0840160a085016147b8565b176001036116bc5730631b73593c6116686080840160608501613d90565b836080016040518363ffffffff1660e01b81526004016116899291906147d3565b600060405180830381600087803b1580156116a357600080fd5b505af11580156116b7573d6000803e3d6000fd5b505050505b6116ca610140820182614753565b1590506117465730637a05bc826116e76080840160608501613d90565b6116f5610140850185614753565b6040518463ffffffff1660e01b8152600401611713939291906147fd565b600060405180830381600087803b15801561172d57600080fd5b505af1158015611741573d6000803e3d6000fd5b505050505b6000611756610160830183614836565b35146117d05730633680620d6117726080840160608501613d90565b611780610160850185614836565b6040518363ffffffff1660e01b815260040161179d929190614874565b600060405180830381600087803b1580156117b757600080fd5b505af11580156117cb573d6000803e3d6000fd5b505050505b60006117e46101a083016101808401613d90565b73ffffffffffffffffffffffffffffffffffffffff16146118ad57306366251b696118156080840160608501613d90565b6118276101a085016101808601613d90565b6040517fffffffff0000000000000000000000000000000000000000000000000000000060e085901b16815273ffffffffffffffffffffffffffffffffffffffff928316600482015291166024820152604401600060405180830381600087803b15801561189457600080fd5b505af11580156118a8573d6000803e3d6000fd5b505050505b6101a081013515611927576040517f099b6bfa0000000000000000000000000000000000000000000000000000000081526101a08201356004820152309063099b6bfa90602401600060405180830381600087803b15801561190e57600080fd5b505af1158015611922573d6000803e3d6000fd5b505050505b60006119376101c08301836148a3565b90501115611a3b5760005b6119506101c08301836148a3565b9050811015611a3957306348a4c10161196f6080850160608601613d90565b61197d6101c08601866148a3565b8581811061198d5761198d61490b565b90506020020160208101906119a29190613d90565b6040517fffffffff0000000000000000000000000000000000000000000000000000000060e085901b16815273ffffffffffffffffffffffffffffffffffffffff92831660048201529116602482015260016044820152606401600060405180830381600087803b158015611a1657600080fd5b505af1158015611a2a573d6000803e3d6000fd5b50505050806001019050611942565b505b6000611a4b6101e08301836148a3565b90501115611b4f5760005b611a646101e08301836148a3565b9050811015611b4d57306348a4c101611a836080850160608601613d90565b611a916101e08601866148a3565b85818110611aa157611aa161490b565b9050602002016020810190611ab69190613d90565b6040517fffffffff0000000000000000000000000000000000000000000000000000000060e085901b16815273ffffffffffffffffffffffffffffffffffffffff92831660048201529116602482015260006044820152606401600060405180830381600087803b158015611b2a57600080fd5b505af1158015611b3e573d6000803e3d6000fd5b50505050806001019050611a56565b505b6000611b5f6102008301836148a3565b90501115611c635760005b611b786102008301836148a3565b9050811015611c61573063cb743ba8611b976080850160608601613d90565b611ba56102008601866148a3565b85818110611bb557611bb561490b565b9050602002016020810190611bca9190613d90565b6040517fffffffff0000000000000000000000000000000000000000000000000000000060e085901b16815273ffffffffffffffffffffffffffffffffffffffff92831660048201529116602482015260016044820152606401600060405180830381600087803b158015611c3e57600080fd5b505af1158015611c52573d6000803e3d6000fd5b50505050806001019050611b6a565b505b6000611c736102208301836148a3565b90501115611d775760005b611c8c6102208301836148a3565b9050811015611d75573063cb743ba8611cab6080850160608601613d90565b611cb96102208601866148a3565b85818110611cc957611cc961490b565b9050602002016020810190611cde9190613d90565b6040517fffffffff0000000000000000000000000000000000000000000000000000000060e085901b16815273ffffffffffffffffffffffffffffffffffffffff92831660048201529116602482015260006044820152606401600060405180830381600087803b158015611d5257600080fd5b505af1158015611d66573d6000803e3d6000fd5b50505050806001019050611c7e565b505b6000611d8761026083018361493a565b90501115611ecb57611d9d6102408201826148a3565b9050611dad61026083018361493a565b905014611de6576040517fb81aa63900000000000000000000000000000000000000000000000000000000815260040160405180910390fd5b60005b611df761026083018361493a565b9050811015611ec95730637bc2be76611e166080850160608601613d90565b611e246102408601866148a3565b85818110611e3457611e3461490b565b9050602002016020810190611e499190613d90565b611e5761026087018761493a565b86818110611e6757611e6761490b565b905061010002016040518463ffffffff1660e01b8152600401611e8c939291906149a2565b600060405180830381600087803b158015611ea657600080fd5b505af1158015611eba573d6000803e3d6000fd5b50505050806001019050611de9565b505b6000611edb6102808301836148a3565b90501115611fe65760005b611ef46102808301836148a3565b9050811015611fe4576040805161010081018252600080825260208201819052918101829052606081018290526080810182905260a0810182905260c0810182905260e081019190915230637bc2be76611f546080860160608701613d90565b611f626102808701876148a3565b86818110611f7257611f7261490b565b9050602002016020810190611f879190613d90565b846040518463ffffffff1660e01b8152600401611fa6939291906149d5565b600060405180830381600087803b158015611fc057600080fd5b505af1158015611fd4573d6000803e3d6000fd5b5050505081600101915050611ee6565b505b6000611ff66102c0830183614a98565b905011156121395761200c6102a08201826148a3565b905061201c6102c0830183614a98565b905014612055576040517f74ef6df700000000000000000000000000000000000000000000000000000000815260040160405180910390fd5b60005b6120666102c0830183614a98565b9050811015612137573063511aa6446120856080850160608601613d90565b6120936102a08601866148a3565b858181106120a3576120a361490b565b90506020020160208101906120b89190613d90565b6120c66102c0870187614a98565b868181106120d6576120d661490b565b905060e002016040518463ffffffff1660e01b81526004016120fa93929190614aff565b600060405180830381600087803b15801561211457600080fd5b505af1158015612128573d6000803e3d6000fd5b50505050806001019050612058565b505b60006121496102e08301836148a3565b905011156113755760005b6121626102e08301836148a3565b9050811015610f3d576040805160e081018252600080825260208201819052918101829052606081018290526080810182905260a0810182905260c08101919091523063511aa6446121ba6080860160608701613d90565b6121c86102e08701876148a3565b868181106121d8576121d861490b565b90506020020160208101906121ed9190613d90565b846040518463ffffffff1660e01b815260040161220c93929190614bc8565b600060405180830381600087803b15801561222657600080fd5b505af115801561223a573d6000803e3d6000fd5b5050505081600101915050612154565b61225261289b565b600c61225f8284836144cb565b507f905d981207a7d0b6c62cc46ab0be2a076d0298e4a86d0ab79882dbd01ac3737882826040516109ba929190614643565b60606003805461081690614005565b816122aa81612681565b6109178383613188565b6122bc61289b565b60408051838152602081018390527f6bd5c950a8d8df17f772f5af37cb3655737899cbf903264b9795592da439661c91016109ba565b8373ffffffffffffffffffffffffffffffffffffffff811633146123195761231933612681565b6123258585858561321f565b612330858585612c96565b5050505050565b606061234282612633565b612378576040517fa14c4b5000000000000000000000000000000000000000000000000000000000815260040160405180910390fd5b6000612382613102565b905080516000036123a257604051806020016040528060008152506123cd565b806123ac84613289565b6040516020016123bd929190614c64565b6040516020818303038152906040525b9392505050565b6123dc61289b565b6123e58361292b565b6040517f7f2a5cca00000000000000000000000000000000000000000000000000000000815273ffffffffffffffffffffffffffffffffffffffff83811660048301528215156024830152841690637f2a5cca90604401610e11565b73ffffffffffffffffffffffffffffffffffffffff81166000908152601260209081526040918290208054835181840281018401909452808452606093928301828280156124ae57602002820191906000526020600020905b81548152602001906001019080831161249a575b50505050509050919050565b6060600c805461081690614005565b6124d161298f565b73ffffffffffffffffffffffffffffffffffffffff811661251e576040517f7448fbae00000000000000000000000000000000000000000000000000000000815260040160405180910390fd5b600980547fffffffffffffffffffffffff00000000000000000000000000000000000000001673ffffffffffffffffffffffffffffffffffffffff83169081179091556040519081527f11a3cf439fb225bfe74225716b6774765670ec1060e3796802e62139d69974da90602001610d9d565b60007fffffffff0000000000000000000000000000000000000000000000000000000082167f2a55205a00000000000000000000000000000000000000000000000000000000148061262457507f49064906000000000000000000000000000000000000000000000000000000007fffffffff000000000000000000000000000000000000000000000000000000008316145b806108015750610801826132eb565b600081600111158015612647575060005482105b80156108015750506000908152600460205260409020547c0100000000000000000000000000000000000000000000000000000000161590565b6daaeb6d7670e522a718067333cd4e3b15611375576040517fc617113400000000000000000000000000000000000000000000000000000000815230600482015273ffffffffffffffffffffffffffffffffffffffff821660248201526daaeb6d7670e522a718067333cd4e9063c617113490604401602060405180830381865afa158015612714573d6000803e3d6000fd5b505050506040513d601f19601f820116820180604052508101906127389190614c93565b611375576040517fede71dcc00000000000000000000000000000000000000000000000000000000815273ffffffffffffffffffffffffffffffffffffffff82166004820152602401610d11565b600061279182610f53565b90503373ffffffffffffffffffffffffffffffffffffffff82161461281a5773ffffffffffffffffffffffffffffffffffffffff8116600090815260076020908152604080832033845290915290205460ff1661281a576040517fcfb3b94200000000000000000000000000000000000000000000000000000000815260040160405180910390fd5b60008281526006602052604080822080547fffffffffffffffffffffffff00000000000000000000000000000000000000001673ffffffffffffffffffffffffffffffffffffffff87811691821790925591518593918516917f8c5be1e5ebec7d5bd14f71427d1e84f3dd0314c0f7b2291e5b200ac8c7c3b92591a4505050565b3033146128f16128c060085473ffffffffffffffffffffffffffffffffffffffff1690565b73ffffffffffffffffffffffffffffffffffffffff163373ffffffffffffffffffffffffffffffffffffffff161490565b176000036112bc576040517f5fc483c500000000000000000000000000000000000000000000000000000000815260040160405180910390fd5b73ffffffffffffffffffffffffffffffffffffffff811660009081526010602052604090205460ff161515600114611375576040517f15e26ff300000000000000000000000000000000000000000000000000000000815260040160405180910390fd5b60085473ffffffffffffffffffffffffffffffffffffffff1633146112bc576040517f5fc483c500000000000000000000000000000000000000000000000000000000815260040160405180910390fd5b60006129eb82613029565b90508373ffffffffffffffffffffffffffffffffffffffff168173ffffffffffffffffffffffffffffffffffffffff1614612a52576040517fa114810000000000000000000000000000000000000000000000000000000000815260040160405180910390fd5b600082815260066020526040902080543380821473ffffffffffffffffffffffffffffffffffffffff881690911417612aef5773ffffffffffffffffffffffffffffffffffffffff8616600090815260076020908152604080832033845290915290205460ff16612aef576040517f59c896be00000000000000000000000000000000000000000000000000000000815260040160405180910390fd5b73ffffffffffffffffffffffffffffffffffffffff8516612b3c576040517fea553b3400000000000000000000000000000000000000000000000000000000815260040160405180910390fd5b8015612b4757600082555b73ffffffffffffffffffffffffffffffffffffffff86811660009081526005602052604080822080547fffffffffffffffffffffffffffffffffffffffffffffffffffffffffffffffff019055918716808252919020805460010190554260a01b177c0200000000000000000000000000000000000000000000000000000000176000858152600460205260408120919091557c020000000000000000000000000000000000000000000000000000000084169003612c3657600184016000818152600460205260408120549003612c34576000548114612c345760008181526004602052604090208490555b505b838573ffffffffffffffffffffffffffffffffffffffff168773ffffffffffffffffffffffffffffffffffffffff167fddf252ad1be2c89b69c2b068fc378daa952ba7f163c4a11628f55a4df523b3ef60405160405180910390a4610a57565b60005b73ffffffffffffffffffffffffffffffffffffffff8416600090815260126020526040902054811015610b025773ffffffffffffffffffffffffffffffffffffffff84166000908152601260205260409020805483919083908110612d0057612d0061490b565b906000526020600020015403612e8c5773ffffffffffffffffffffffffffffffffffffffff8316600090815260126020908152604082208054600181018255908352912001829055805b73ffffffffffffffffffffffffffffffffffffffff8516600090815260126020526040902054612d7c906001906145e5565b811015612e3c5773ffffffffffffffffffffffffffffffffffffffff85166000908152601260205260409020612db38260016145f8565b81548110612dc357612dc361490b565b9060005260206000200154601260008773ffffffffffffffffffffffffffffffffffffffff1673ffffffffffffffffffffffffffffffffffffffff1681526020019081526020016000208281548110612e1e57612e1e61490b565b60009182526020909120015580612e348161460b565b915050612d4a565b5073ffffffffffffffffffffffffffffffffffffffff84166000908152601260205260409020805480612e7157612e71614cb0565b60019003818190600052602060002001600090559055610b02565b80612e968161460b565b915050612c99565b610917838383604051806020016040528060008152506122f2565b6011548160005b82811015612f485760006010600060118481548110612ee157612ee161490b565b60009182526020808320919091015473ffffffffffffffffffffffffffffffffffffffff168352820192909252604001902080547fffffffffffffffffffffffffffffffffffffffffffffffffffffffffffffff0016911515919091179055600101612ec0565b5060005b81811015612fdc57600160106000878785818110612f6c57612f6c61490b565b9050602002016020810190612f819190613d90565b73ffffffffffffffffffffffffffffffffffffffff168152602081019190915260400160002080547fffffffffffffffffffffffffffffffffffffffffffffffffffffffffffffff0016911515919091179055600101612f4c565b50612fe960118585613710565b507fbbd3b69c138de4d317d0bc4290282c4e1cbd1e58b579a5b4f114b598c237454d848460405161301b929190614cdf565b60405180910390a150505050565b600081806001116130b6576000548110156130b657600081815260046020526040812054907c0100000000000000000000000000000000000000000000000000000000821690036130b4575b806000036123cd57507fffffffffffffffffffffffffffffffffffffffffffffffffffffffffffffffff01600081815260046020526040902054613075565b505b6040517fdf2d9b4200000000000000000000000000000000000000000000000000000000815260040160405180910390fd5b610f3d8282604051806020016040528060008152506133cc565b6060600b805461081690614005565b6008805473ffffffffffffffffffffffffffffffffffffffff8381167fffffffffffffffffffffffff0000000000000000000000000000000000000000831681179093556040519116919082907f8be0079c531659141344cd1fd0a4f28419497f9722a3daafe3b4186f6b6457e090600090a35050565b33600081815260076020908152604080832073ffffffffffffffffffffffffffffffffffffffff87168085529083529281902080547fffffffffffffffffffffffffffffffffffffffffffffffffffffffffffffff001686151590811790915590519081529192917f17307eab39ab6107e8899845ad3d59bd9653f200f220920489ca2b5937696c31910160405180910390a35050565b61322a848484610ac5565b73ffffffffffffffffffffffffffffffffffffffff83163b15610b025761325384848484613458565b610b02576040517fd1a57ed600000000000000000000000000000000000000000000000000000000815260040160405180910390fd5b606060a06040510180604052602081039150506000815280825b600183039250600a81066030018353600a9004806132a357508190037fffffffffffffffffffffffffffffffffffffffffffffffffffffffffffffffe0909101908152919050565b60007f01ffc9a7000000000000000000000000000000000000000000000000000000007fffffffff000000000000000000000000000000000000000000000000000000008316148061337e57507f80ac58cd000000000000000000000000000000000000000000000000000000007fffffffff000000000000000000000000000000000000000000000000000000008316145b806108015750507fffffffff00000000000000000000000000000000000000000000000000000000167f5b5e139f000000000000000000000000000000000000000000000000000000001490565b6133d683836135d2565b73ffffffffffffffffffffffffffffffffffffffff83163b15610917576000548281035b61340d6000868380600101945086613458565b613443576040517fd1a57ed600000000000000000000000000000000000000000000000000000000815260040160405180910390fd5b8181106133fa57816000541461233057600080fd5b6040517f150b7a0200000000000000000000000000000000000000000000000000000000815260009073ffffffffffffffffffffffffffffffffffffffff85169063150b7a02906134b3903390899088908890600401614d3a565b6020604051808303816000875af192505050801561350c575060408051601f3d9081017fffffffffffffffffffffffffffffffffffffffffffffffffffffffffffffffe016820190925261350991810190614d79565b60015b613583573d80801561353a576040519150601f19603f3d011682016040523d82523d6000602084013e61353f565b606091505b50805160000361357b576040517fd1a57ed600000000000000000000000000000000000000000000000000000000815260040160405180910390fd5b805181602001fd5b7fffffffff00000000000000000000000000000000000000000000000000000000167f150b7a02000000000000000000000000000000000000000000000000000000001490505b949350505050565b6000805490829003613610576040517fb562e8dd00000000000000000000000000000000000000000000000000000000815260040160405180910390fd5b73ffffffffffffffffffffffffffffffffffffffff831660008181526005602090815260408083208054680100000000000000018802019055848352600490915281206001851460e11b4260a01b178317905582840190839083907fddf252ad1be2c89b69c2b068fc378daa952ba7f163c4a11628f55a4df523b3ef8180a4600183015b8181146136cc57808360007fddf252ad1be2c89b69c2b068fc378daa952ba7f163c4a11628f55a4df523b3ef600080a4600101613694565b5081600003613707576040517f2e07630000000000000000000000000000000000000000000000000000000000815260040160405180910390fd5b60005550505050565b828054828255906000526020600020908101928215613788579160200282015b828111156137885781547fffffffffffffffffffffffff00000000000000000000000000000000000000001673ffffffffffffffffffffffffffffffffffffffff843516178255602090920191600190910190613730565b50613794929150613798565b5090565b5b808211156137945760008155600101613799565b7fffffffff000000000000000000000000000000000000000000000000000000008116811461137557600080fd5b6000602082840312156137ed57600080fd5b81356123cd816137ad565b60005b838110156138135781810151838201526020016137fb565b50506000910152565b600081518084526138348160208601602086016137f8565b601f017fffffffffffffffffffffffffffffffffffffffffffffffffffffffffffffffe0169290920160200192915050565b6020815260006123cd602083018461381c565b60006020828403121561388b57600080fd5b5035919050565b73ffffffffffffffffffffffffffffffffffffffff8116811461137557600080fd5b600080604083850312156138c757600080fd5b82356138d281613892565b946020939093013593505050565b60008082840360e08112156138f457600080fd5b83356138ff81613892565b925060c07fffffffffffffffffffffffffffffffffffffffffffffffffffffffffffffffe08201121561393157600080fd5b506020830190509250929050565b60008060006060848603121561395457600080fd5b833561395f81613892565b9250602084013561396f81613892565b929592945050506040919091013590565b6000806040838503121561399357600080fd5b50508035926020909101359150565b600080604083850312156139b557600080fd5b82356139c081613892565b9150602083013567ffffffffffffffff8111156139dc57600080fd5b8301606081860312156139ee57600080fd5b809150509250929050565b600060408284031215613a0b57600080fd5b50919050565b801515811461137557600080fd5b8035613a2a81613a11565b919050565b600080600060608486031215613a4457600080fd5b8335613a4f81613892565b92506020840135613a5f81613892565b91506040840135613a6f81613a11565b809150509250925092565b7f4e487b7100000000000000000000000000000000000000000000000000000000600052604160045260246000fd5b60405160e0810167ffffffffffffffff81118282101715613acc57613acc613a7a565b60405290565b604051601f82017fffffffffffffffffffffffffffffffffffffffffffffffffffffffffffffffe016810167ffffffffffffffff81118282101715613b1957613b19613a7a565b604052919050565b803569ffffffffffffffffffff81168114613a2a57600080fd5b803562ffffff81168114613a2a57600080fd5b803564ffffffffff81168114613a2a57600080fd5b803561ffff81168114613a2a57600080fd5b6000806000838503610120811215613b8c57600080fd5b8435613b9781613892565b93506020850135613ba781613892565b925060e07fffffffffffffffffffffffffffffffffffffffffffffffffffffffffffffffc082011215613bd957600080fd5b50613be2613aa9565b613bee60408601613b21565b8152613bfc60608601613b3b565b6020820152613c0d60808601613b4e565b6040820152613c1e60a08601613b4e565b6060820152613c2f60c08601613b4e565b6080820152613c4060e08601613b63565b60a0820152613c526101008601613b63565b60c0820152809150509250925092565b60008083601f840112613c7457600080fd5b50813567ffffffffffffffff811115613c8c57600080fd5b602083019150836020828501011115613ca457600080fd5b9250929050565b60008060208385031215613cbe57600080fd5b823567ffffffffffffffff811115613cd557600080fd5b613ce185828601613c62565b90969095509350505050565b60008060208385031215613d0057600080fd5b823567ffffffffffffffff80821115613d1857600080fd5b818501915085601f830112613d2c57600080fd5b813581811115613d3b57600080fd5b8660208260051b8501011115613d5057600080fd5b60209290920196919550909350505050565b60008060408385031215613d7557600080fd5b8235613d8081613892565b915060208301356139ee81613892565b600060208284031215613da257600080fd5b81356123cd81613892565b600080600060408486031215613dc257600080fd5b8335613dcd81613892565b9250602084013567ffffffffffffffff811115613de957600080fd5b613df586828701613c62565b9497909650939450505050565b6000806000838503610140811215613e1957600080fd5b8435613e2481613892565b93506020850135613e3481613892565b92506101007fffffffffffffffffffffffffffffffffffffffffffffffffffffffffffffffc082011215613e6757600080fd5b506040840190509250925092565b600060208284031215613e8757600080fd5b813567ffffffffffffffff811115613e9e57600080fd5b820161030081850312156123cd57600080fd5b60008060408385031215613ec457600080fd5b8235613ecf81613892565b915060208301356139ee81613a11565b60008060008060808587031215613ef557600080fd5b8435613f0081613892565b9350602085810135613f1181613892565b935060408601359250606086013567ffffffffffffffff80821115613f3557600080fd5b818801915088601f830112613f4957600080fd5b813581811115613f5b57613f5b613a7a565b613f8b847fffffffffffffffffffffffffffffffffffffffffffffffffffffffffffffffe0601f84011601613ad2565b91508082528984828501011115613fa157600080fd5b808484018584013760008482840101525080935050505092959194509250565b6020808252825182820181905260009190848201906040850190845b81811015613ff957835183529284019291840191600101613fdd565b50909695505050505050565b600181811c9082168061401957607f821691505b602082108103613a0b577f4e487b7100000000000000000000000000000000000000000000000000000000600052602260045260246000fd5b803565ffffffffffff81168114613a2a57600080fd5b69ffffffffffffffffffff61407c82613b21565b16825261408b60208201614052565b65ffffffffffff8082166020850152806140a760408501614052565b16604085015250506140bb60608201613b63565b61ffff8082166060850152806140d360808501613b63565b166080850152505060a08101356140e981613a11565b80151560a0840152505050565b60c081016108018284614068565b7f4e487b7100000000000000000000000000000000000000000000000000000000600052601160045260246000fd5b808202811582820484141761080157610801614104565b600082614180577f4e487b7100000000000000000000000000000000000000000000000000000000600052601260045260246000fd5b500490565b8183528181602085013750600060208284010152600060207fffffffffffffffffffffffffffffffffffffffffffffffffffffffffffffffe0601f840116840101905092915050565b60008083357fffffffffffffffffffffffffffffffffffffffffffffffffffffffffffffffe184360301811261420357600080fd5b830160208101925035905067ffffffffffffffff81111561422357600080fd5b803603821315613ca457600080fd5b600060608301823584526020808401357fffffffffffffffffffffffffffffffffffffffffffffffffffffffffffffffe185360301811261427257600080fd5b8401818101903567ffffffffffffffff81111561428e57600080fd5b8060051b8036038313156142a157600080fd5b6060848901529381905260809387018401938290880160005b83811015614312577fffffffffffffffffffffffffffffffffffffffffffffffffffffffffffffff808a88030182526142f383866141ce565b6142fe898284614185565b9850505091850191908501906001016142ba565b50505050505061432560408401846141ce565b8583036040870152614338838284614185565b9695505050505050565b6020815260006123cd6020830184614232565b6bffffffffffffffffffffffff8116811461137557600080fd5b60006020828403121561438157600080fd5b81356123cd81614355565b813561439781613892565b73ffffffffffffffffffffffffffffffffffffffff811690507fffffffffffffffffffffffff0000000000000000000000000000000000000000818184541617835560208401356143e781614355565b60a01b1617905550565b73ffffffffffffffffffffffffffffffffffffffff8316815261010081016123cd602083018469ffffffffffffffffffff815116825262ffffff6020820151166020830152604081015164ffffffffff8082166040850152806060840151166060850152806080840151166080850152505060a081015161ffff80821660a08501528060c08401511660c085015250505050565b601f82111561091757600081815260208120601f850160051c810160208610156144ac5750805b601f850160051c820191505b81811015610a57578281556001016144b8565b67ffffffffffffffff8311156144e3576144e3613a7a565b6144f7836144f18354614005565b83614485565b6000601f84116001811461454957600085156145135750838201355b7fffffffffffffffffffffffffffffffffffffffffffffffffffffffffffffffff600387901b1c1916600186901b178355612330565b6000838152602090207fffffffffffffffffffffffffffffffffffffffffffffffffffffffffffffffe0861690835b828110156145985786850135825560209485019460019092019101614578565b50868210156145d3577fffffffffffffffffffffffffffffffffffffffffffffffffffffffffffffffff60f88860031b161c19848701351681555b505060018560011b0183555050505050565b8181038181111561080157610801614104565b8082018082111561080157610801614104565b60007fffffffffffffffffffffffffffffffffffffffffffffffffffffffffffffffff820361463c5761463c614104565b5060010190565b6020815260006135ca602083018486614185565b803563ffffffff81168114613a2a57600080fd5b69ffffffffffffffffffff61467f82613b21565b16825261ffff61469160208301613b63565b1660208301526146a360408201614052565b65ffffffffffff8082166040850152806146bf60608501614052565b1660608501525050608081013560ff811681146146db57600080fd5b60ff1660808301526146ef60a08201614657565b63ffffffff1660a083015261470660c08201613b63565b61ffff1660c083015261471b60e08201613a1f565b80151560e0840152505050565b73ffffffffffffffffffffffffffffffffffffffff8316815261012081016123cd602083018461466b565b60008083357fffffffffffffffffffffffffffffffffffffffffffffffffffffffffffffffe184360301811261478857600080fd5b83018035915067ffffffffffffffff8211156147a357600080fd5b602001915036819003821315613ca457600080fd5b6000602082840312156147ca57600080fd5b6123cd82614052565b73ffffffffffffffffffffffffffffffffffffffff8316815260e081016123cd6020830184614068565b73ffffffffffffffffffffffffffffffffffffffff8416815260406020820152600061482d604083018486614185565b95945050505050565b600082357fffffffffffffffffffffffffffffffffffffffffffffffffffffffffffffffa183360301811261486a57600080fd5b9190910192915050565b73ffffffffffffffffffffffffffffffffffffffff831681526040602082015260006135ca6040830184614232565b60008083357fffffffffffffffffffffffffffffffffffffffffffffffffffffffffffffffe18436030181126148d857600080fd5b83018035915067ffffffffffffffff8211156148f357600080fd5b6020019150600581901b3603821315613ca457600080fd5b7f4e487b7100000000000000000000000000000000000000000000000000000000600052603260045260246000fd5b60008083357fffffffffffffffffffffffffffffffffffffffffffffffffffffffffffffffe184360301811261496f57600080fd5b83018035915067ffffffffffffffff82111561498a57600080fd5b6020019150600881901b3603821315613ca457600080fd5b73ffffffffffffffffffffffffffffffffffffffff84811682528316602082015261014081016135ca604083018461466b565b60006101408201905073ffffffffffffffffffffffffffffffffffffffff808616835280851660208401525069ffffffffffffffffffff835116604083015261ffff602084015116606083015265ffffffffffff60408401511660808301526060830151614a4d60a084018265ffffffffffff169052565b50608083015160ff811660c08401525060a083015163ffffffff811660e08401525060c083015161ffff81166101008401525060e08301518015156101208401525b50949350505050565b60008083357fffffffffffffffffffffffffffffffffffffffffffffffffffffffffffffffe1843603018112614acd57600080fd5b83018035915067ffffffffffffffff821115614ae857600080fd5b602001915060e081023603821315613ca457600080fd5b73ffffffffffffffffffffffffffffffffffffffff848116825283166020820152610120810169ffffffffffffffffffff614b3984613b21565b16604083015262ffffff614b4f60208501613b3b565b166060830152614b6160408401613b4e565b64ffffffffff808216608085015280614b7c60608701613b4e565b1660a085015280614b8f60808701613b4e565b1660c08501525050614ba360a08401613b63565b61ffff1660e0830152614bb860c08401613b63565b61ffff8116610100840152614a8f565b73ffffffffffffffffffffffffffffffffffffffff84811682528316602082015261012081016135ca604083018469ffffffffffffffffffff815116825262ffffff6020820151166020830152604081015164ffffffffff8082166040850152806060840151166060850152806080840151166080850152505060a081015161ffff80821660a08501528060c08401511660c085015250505050565b60008351614c768184602088016137f8565b835190830190614c8a8183602088016137f8565b01949350505050565b600060208284031215614ca557600080fd5b81516123cd81613a11565b7f4e487b7100000000000000000000000000000000000000000000000000000000600052603160045260246000fd5b60208082528181018390526000908460408401835b86811015614d2f578235614d0781613892565b73ffffffffffffffffffffffffffffffffffffffff1682529183019190830190600101614cf4565b509695505050505050565b600073ffffffffffffffffffffffffffffffffffffffff808716835280861660208401525083604083015260806060830152614338608083018461381c565b600060208284031215614d8b57600080fd5b81516123cd816137ad56fea26469706673582212204e1edd11b1d54ba0b77ecdad5efcb45ab6de85dd4a89a2bcfb5225191ca243e664736f6c63430008110033",
  "linkReferences": {},
  "deployedLinkReferences": {}
}