{
  "_format": "hh-sol-artifact-1",
  "contractName": "ExchangeERC1155",
  "sourceName": "src/Exchange.sol",
  "abi": [
    {
      "inputs": [
        {
          "internalType": "address[]",
          "name": "nftAddresses",
          "type": "address[]"
        },
        {
          "internalType": "uint256[]",
          "name": "targetIds",
          "type": "uint256[]"
        },
        {
          "internalType": "contract EndersPack",
          "name": "_targetContract",
          "type": "address"
        }
      ],
      "stateMutability": "nonpayable",
      "type": "constructor"
    },
    {
      "anonymous": false,
      "inputs": [
        {
          "indexed": true,
          "internalType": "address",
          "name": "previousOwner",
          "type": "address"
        },
        {
          "indexed": true,
          "internalType": "address",
          "name": "newOwner",
          "type": "address"
        }
      ],
      "name": "OwnershipTransferred",
      "type": "event"
    },
    {
      "stateMutability": "nonpayable",
      "type": "fallback"
    },
    {
      "inputs": [
        {
          "internalType": "address[]",
          "name": "addresses",
          "type": "address[]"
        }
      ],
      "name": "exchangeAllERC1155",
      "outputs": [],
      "stateMutability": "nonpayable",
      "type": "function"
    },
    {
      "inputs": [
        {
          "internalType": "address",
          "name": "",
          "type": "address"
        }
      ],
      "name": "isAllowedNft",
      "outputs": [
        {
          "internalType": "bool",
          "name": "",
          "type": "bool"
        }
      ],
      "stateMutability": "view",
      "type": "function"
    },
    {
      "inputs": [
        {
          "internalType": "address",
          "name": "",
          "type": "address"
        }
      ],
      "name": "nftToId",
      "outputs": [
        {
          "internalType": "uint256",
          "name": "",
          "type": "uint256"
        }
      ],
      "stateMutability": "view",
      "type": "function"
    },
    {
      "inputs": [
        {
          "internalType": "address",
          "name": "operator",
          "type": "address"
        },
        {
          "internalType": "address",
          "name": "from",
          "type": "address"
        },
        {
          "internalType": "uint256[]",
          "name": "ids",
          "type": "uint256[]"
        },
        {
          "internalType": "uint256[]",
          "name": "values",
          "type": "uint256[]"
        },
        {
          "internalType": "bytes",
          "name": "data",
          "type": "bytes"
        }
      ],
      "name": "onERC1155BatchReceived",
      "outputs": [
        {
          "internalType": "bytes4",
          "name": "",
          "type": "bytes4"
        }
      ],
      "stateMutability": "nonpayable",
      "type": "function"
    },
    {
      "inputs": [
        {
          "internalType": "address",
          "name": "operator",
          "type": "address"
        },
        {
          "internalType": "address",
          "name": "from",
          "type": "address"
        },
        {
          "internalType": "uint256",
          "name": "id",
          "type": "uint256"
        },
        {
          "internalType": "uint256",
          "name": "value",
          "type": "uint256"
        },
        {
          "internalType": "bytes",
          "name": "data",
          "type": "bytes"
        }
      ],
      "name": "onERC1155Received",
      "outputs": [
        {
          "internalType": "bytes4",
          "name": "",
          "type": "bytes4"
        }
      ],
      "stateMutability": "nonpayable",
      "type": "function"
    },
    {
      "inputs": [
        {
          "internalType": "address",
          "name": "",
          "type": "address"
        },
        {
          "internalType": "address",
          "name": "",
          "type": "address"
        },
        {
          "internalType": "uint256",
          "name": "",
          "type": "uint256"
        },
        {
          "internalType": "bytes",
          "name": "",
          "type": "bytes"
        }
      ],
      "name": "onERC721Received",
      "outputs": [
        {
          "internalType": "bytes4",
          "name": "",
          "type": "bytes4"
        }
      ],
      "stateMutability": "nonpayable",
      "type": "function"
    },
    {
      "inputs": [],
      "name": "owner",
      "outputs": [
        {
          "internalType": "address",
          "name": "",
          "type": "address"
        }
      ],
      "stateMutability": "view",
      "type": "function"
    },
    {
      "inputs": [],
      "name": "renounceOwnership",
      "outputs": [],
      "stateMutability": "nonpayable",
      "type": "function"
    },
    {
      "inputs": [
        {
          "internalType": "address",
          "name": "nftAddresss",
          "type": "address"
        },
        {
          "internalType": "uint256",
          "name": "id",
          "type": "uint256"
        }
      ],
      "name": "safeWithdrawal",
      "outputs": [],
      "stateMutability": "nonpayable",
      "type": "function"
    },
    {
      "inputs": [],
      "name": "targetContract",
      "outputs": [
        {
          "internalType": "contract EndersPack",
          "name": "",
          "type": "address"
        }
      ],
      "stateMutability": "view",
      "type": "function"
    },
    {
      "inputs": [
        {
          "internalType": "address",
          "name": "newOwner",
          "type": "address"
        }
      ],
      "name": "transferOwnership",
      "outputs": [],
      "stateMutability": "nonpayable",
      "type": "function"
    },
    {
      "inputs": [
        {
          "internalType": "address",
          "name": "nft",
          "type": "address"
        },
        {
          "internalType": "bool",
          "name": "isAllowed",
          "type": "bool"
        }
      ],
      "name": "updateAllowedNft",
      "outputs": [],
      "stateMutability": "nonpayable",
      "type": "function"
    },
    {
      "inputs": [
        {
          "internalType": "address",
          "name": "nft",
          "type": "address"
        },
        {
          "internalType": "uint256",
          "name": "targetId",
          "type": "uint256"
        }
      ],
      "name": "updateNftsToId",
      "outputs": [],
      "stateMutability": "nonpayable",
      "type": "function"
    }
  ],
  "bytecode": "0x60806040523480156200001157600080fd5b5060405162001af338038062001af38339810160408190526200003491620002a3565b6200003f3362000146565b60038054610100600160a81b0319166101006001600160a01b0384160217905560005b83518160ff1610156200013c57828160ff168151811062000087576200008762000387565b602002602001015160016000868460ff1681518110620000ab57620000ab62000387565b60200260200101516001600160a01b03166001600160a01b0316815260200190815260200160002081905550600160026000868460ff1681518110620000f557620000f562000387565b6020908102919091018101516001600160a01b03168252810191909152604001600020805460ff19169115159190911790558062000133816200039d565b91505062000062565b50505050620003cb565b600080546001600160a01b038381166001600160a01b0319831681178455604051919092169283917f8be0079c531659141344cd1fd0a4f28419497f9722a3daafe3b4186f6b6457e09190a35050565b634e487b7160e01b600052604160045260246000fd5b604051601f8201601f191681016001600160401b0381118282101715620001d757620001d762000196565b604052919050565b60006001600160401b03821115620001fb57620001fb62000196565b5060051b60200190565b6001600160a01b03811681146200021b57600080fd5b50565b600082601f8301126200023057600080fd5b81516020620002496200024383620001df565b620001ac565b82815260059290921b840181019181810190868411156200026957600080fd5b8286015b848110156200028657805183529183019183016200026d565b509695505050505050565b80516200029e8162000205565b919050565b600080600060608486031215620002b957600080fd5b83516001600160401b0380821115620002d157600080fd5b818601915086601f830112620002e657600080fd5b81516020620002f96200024383620001df565b82815260059290921b8401810191818101908a8411156200031957600080fd5b948201945b8386101562000344578551620003348162000205565b825294820194908201906200031e565b918901519197509093505050808211156200035e57600080fd5b506200036d868287016200021e565b9250506200037e6040850162000291565b90509250925092565b634e487b7160e01b600052603260045260246000fd5b600060ff821660ff8103620003c257634e487b7160e01b600052601160045260246000fd5b60010192915050565b61171880620003db6000396000f3fe608060405234801561001057600080fd5b50600436106100df5760003560e01c80638da5cb5b1161008c578063d34dd1f011610066578063d34dd1f01461029b578063e1a1dfe8146102ae578063f23a6e61146102e1578063f2fde38b146102f4576100df565b80638da5cb5b14610224578063bc197c8114610263578063bd90df7014610276576100df565b80632c9f3fa3116100bd5780632c9f3fa3146101db578063715018a6146101ee578063784dc33c146101f6576100df565b80630b0b29c014610148578063150b7a021461015b578063250b0a6e146101c8575b6040517f08c379a000000000000000000000000000000000000000000000000000000000815260206004820152600f60248201527f444f4e545f53454e445f4d4f4e4559000000000000000000000000000000000060448201526064015b60405180910390fd5b005b610146610156366004610fd7565b610307565b61019261016936600461108e565b7f150b7a0200000000000000000000000000000000000000000000000000000000949350505050565b6040517fffffffff0000000000000000000000000000000000000000000000000000000090911681526020015b60405180910390f35b6101466101d6366004611194565b610365565b6101466101e9366004611233565b6108d0565b610146610901565b61021661020436600461125f565b60016020526000908152604090205481565b6040519081526020016101bf565b60005473ffffffffffffffffffffffffffffffffffffffff165b60405173ffffffffffffffffffffffffffffffffffffffff90911681526020016101bf565b610192610271366004611311565b610915565b60035461023e90610100900473ffffffffffffffffffffffffffffffffffffffff1681565b6101466102a9366004611233565b6109b2565b6102d16102bc36600461125f565b60026020526000908152604090205460ff1681565b60405190151581526020016101bf565b6101926102ef3660046113d0565b610a4d565b61014661030236600461125f565b610ae8565b61030f610b9f565b73ffffffffffffffffffffffffffffffffffffffff91909116600090815260026020526040902080547fffffffffffffffffffffffffffffffffffffffffffffffffffffffffffffff0016911515919091179055565b600380547fffffffffffffffffffffffffffffffffffffffffffffffffffffffffffffff001660011790556000805b82518110156108a35760008382815181106103b1576103b161144c565b60200260200101519050600260008584815181106103d1576103d161144c565b60209081029190910181015173ffffffffffffffffffffffffffffffffffffffff1682528101919091526040016000205460ff1661046b576040517f08c379a000000000000000000000000000000000000000000000000000000000815260206004820152600b60248201527f494e56414c49445f4e4654000000000000000000000000000000000000000000604482015260640161013d565b6040517fd63d4af000000000000000000000000000000000000000000000000000000000815233600482015260009073ffffffffffffffffffffffffffffffffffffffff83169063d63d4af090602401600060405180830381865afa1580156104d8573d6000803e3d6000fd5b505050506040513d6000823e601f3d9081017fffffffffffffffffffffffffffffffffffffffffffffffffffffffffffffffe016820160405261051e919081019061147b565b6040517f70a0823100000000000000000000000000000000000000000000000000000000815233600482015290915060009073ffffffffffffffffffffffffffffffffffffffff8416906370a0823190602401602060405180830381865afa15801561058e573d6000803e3d6000fd5b505050506040513d601f19601f820116820180604052508101906105b29190611501565b905060005b82518110156108635782516040517fe985e9c5000000000000000000000000000000000000000000000000000000008152336004820152306024820152610660919073ffffffffffffffffffffffffffffffffffffffff87169063e985e9c590604401602060405180830381865afa158015610637573d6000803e3d6000fd5b505050506040513d601f19601f8201168201806040525081019061065b919061151a565b610c20565b3373ffffffffffffffffffffffffffffffffffffffff168473ffffffffffffffffffffffffffffffffffffffff16636352211e8584815181106106a5576106a561144c565b60200260200101516040518263ffffffff1660e01b81526004016106cb91815260200190565b602060405180830381865afa1580156106e8573d6000803e3d6000fd5b505050506040513d601f19601f8201168201806040525081019061070c9190611537565b73ffffffffffffffffffffffffffffffffffffffff1614610789576040517f08c379a000000000000000000000000000000000000000000000000000000000815260206004820152601560248201527f594f5520415245204e4f5420544845204f574e45520000000000000000000000604482015260640161013d565b8373ffffffffffffffffffffffffffffffffffffffff166342842e0e33308685815181106107b9576107b961144c565b60209081029190910101516040517fffffffff0000000000000000000000000000000000000000000000000000000060e086901b16815273ffffffffffffffffffffffffffffffffffffffff93841660048201529290911660248301526044820152606401600060405180830381600087803b15801561083857600080fd5b505af115801561084c573d6000803e3d6000fd5b50505050808061085b90611554565b9150506105b7565b50801561088d5761088d86858151811061087f5761087f61144c565b602002602001015182610cb8565b505050808061089b90611554565b915050610394565b5050600380547fffffffffffffffffffffffffffffffffffffffffffffffffffffffffffffff0016905550565b6108d8610b9f565b73ffffffffffffffffffffffffffffffffffffffff909116600090815260016020526040902055565b610909610b9f565b6109136000610e76565b565b60035460009060ff16610984576040517f08c379a000000000000000000000000000000000000000000000000000000000815260206004820152601260248201527f4f4e4c595f5748454e5f45584348414e47450000000000000000000000000000604482015260640161013d565b507fbc197c819b3e337a6f9652dd10becd7eef83032af3b9d958d3d42f669414662198975050505050505050565b6109ba610b9f565b6040517f42842e0e00000000000000000000000000000000000000000000000000000000815230600482015233602482015260448101829052829073ffffffffffffffffffffffffffffffffffffffff8216906342842e0e90606401600060405180830381600087803b158015610a3057600080fd5b505af1158015610a44573d6000803e3d6000fd5b50505050505050565b60035460009060ff16610abc576040517f08c379a000000000000000000000000000000000000000000000000000000000815260206004820152601260248201527f4f4e4c595f5748454e5f45584348414e47450000000000000000000000000000604482015260640161013d565b507ff23a6e612e1ff4830e658fe43f4e3cb4a5f8170bd5d9e69fb5d7a7fa9e4fdf979695505050505050565b610af0610b9f565b73ffffffffffffffffffffffffffffffffffffffff8116610b93576040517f08c379a000000000000000000000000000000000000000000000000000000000815260206004820152602660248201527f4f776e61626c653a206e6577206f776e657220697320746865207a65726f206160448201527f6464726573730000000000000000000000000000000000000000000000000000606482015260840161013d565b610b9c81610e76565b50565b60005473ffffffffffffffffffffffffffffffffffffffff163314610913576040517f08c379a000000000000000000000000000000000000000000000000000000000815260206004820181905260248201527f4f776e61626c653a2063616c6c6572206973206e6f7420746865206f776e6572604482015260640161013d565b604051602481018390528115156044820152610cb490606401604080517fffffffffffffffffffffffffffffffffffffffffffffffffffffffffffffffe08184030181529190526020810180517bffffffffffffffffffffffffffffffffffffffffffffffffffffffff167f1c9d7eb300000000000000000000000000000000000000000000000000000000179052610eeb565b5050565b610d386040518060400160405280601281526020017f6d696e74696e67206571756976616c656e7400000000000000000000000000008152508284600160008773ffffffffffffffffffffffffffffffffffffffff1673ffffffffffffffffffffffffffffffffffffffff16815260200190815260200160002054610f0c565b60408051600180825281830190925260009160208083019080368337505060408051600180825281830190925292935060009291506020808301908036833750505073ffffffffffffffffffffffffffffffffffffffff8516600090815260016020526040812054845192935091849190610db557610db561144c565b6020026020010181815250508281600081518110610dd557610dd561144c565b60209081029190910101526003546040517f1f7fdffa00000000000000000000000000000000000000000000000000000000815261010090910473ffffffffffffffffffffffffffffffffffffffff1690631f7fdffa90610e3e903390869086906004016115ee565b600060405180830381600087803b158015610e5857600080fd5b505af1158015610e6c573d6000803e3d6000fd5b5050505050505050565b6000805473ffffffffffffffffffffffffffffffffffffffff8381167fffffffffffffffffffffffff0000000000000000000000000000000000000000831681178455604051919092169283917f8be0079c531659141344cd1fd0a4f28419497f9722a3daafe3b4186f6b6457e09190a35050565b80516a636f6e736f6c652e6c6f67602083016000808483855afa5050505050565b610fa184848484604051602401610f26949392919061164b565b604080517fffffffffffffffffffffffffffffffffffffffffffffffffffffffffffffffe08184030181529190526020810180517bffffffffffffffffffffffffffffffffffffffffffffffffffffffff167f4f04fdc600000000000000000000000000000000000000000000000000000000179052610eeb565b50505050565b73ffffffffffffffffffffffffffffffffffffffff81168114610b9c57600080fd5b8015158114610b9c57600080fd5b60008060408385031215610fea57600080fd5b8235610ff581610fa7565b9150602083013561100581610fc9565b809150509250929050565b7f4e487b7100000000000000000000000000000000000000000000000000000000600052604160045260246000fd5b604051601f82017fffffffffffffffffffffffffffffffffffffffffffffffffffffffffffffffe016810167ffffffffffffffff8111828210171561108657611086611010565b604052919050565b600080600080608085870312156110a457600080fd5b84356110af81610fa7565b93506020858101356110c081610fa7565b935060408601359250606086013567ffffffffffffffff808211156110e457600080fd5b818801915088601f8301126110f857600080fd5b81358181111561110a5761110a611010565b61113a847fffffffffffffffffffffffffffffffffffffffffffffffffffffffffffffffe0601f8401160161103f565b9150808252898482850101111561115057600080fd5b808484018584013760008482840101525080935050505092959194509250565b600067ffffffffffffffff82111561118a5761118a611010565b5060051b60200190565b600060208083850312156111a757600080fd5b823567ffffffffffffffff8111156111be57600080fd5b8301601f810185136111cf57600080fd5b80356111e26111dd82611170565b61103f565b81815260059190911b8201830190838101908783111561120157600080fd5b928401925b8284101561122857833561121981610fa7565b82529284019290840190611206565b979650505050505050565b6000806040838503121561124657600080fd5b823561125181610fa7565b946020939093013593505050565b60006020828403121561127157600080fd5b813561127c81610fa7565b9392505050565b60008083601f84011261129557600080fd5b50813567ffffffffffffffff8111156112ad57600080fd5b6020830191508360208260051b85010111156112c857600080fd5b9250929050565b60008083601f8401126112e157600080fd5b50813567ffffffffffffffff8111156112f957600080fd5b6020830191508360208285010111156112c857600080fd5b60008060008060008060008060a0898b03121561132d57600080fd5b883561133881610fa7565b9750602089013561134881610fa7565b9650604089013567ffffffffffffffff8082111561136557600080fd5b6113718c838d01611283565b909850965060608b013591508082111561138a57600080fd5b6113968c838d01611283565b909650945060808b01359150808211156113af57600080fd5b506113bc8b828c016112cf565b999c989b5096995094979396929594505050565b60008060008060008060a087890312156113e957600080fd5b86356113f481610fa7565b9550602087013561140481610fa7565b94506040870135935060608701359250608087013567ffffffffffffffff81111561142e57600080fd5b61143a89828a016112cf565b979a9699509497509295939492505050565b7f4e487b7100000000000000000000000000000000000000000000000000000000600052603260045260246000fd5b6000602080838503121561148e57600080fd5b825167ffffffffffffffff8111156114a557600080fd5b8301601f810185136114b657600080fd5b80516114c46111dd82611170565b81815260059190911b820183019083810190878311156114e357600080fd5b928401925b82841015611228578351825292840192908401906114e8565b60006020828403121561151357600080fd5b5051919050565b60006020828403121561152c57600080fd5b815161127c81610fc9565b60006020828403121561154957600080fd5b815161127c81610fa7565b60007fffffffffffffffffffffffffffffffffffffffffffffffffffffffffffffffff82036115ac577f4e487b7100000000000000000000000000000000000000000000000000000000600052601160045260246000fd5b5060010190565b600081518084526020808501945080840160005b838110156115e3578151875295820195908201906001016115c7565b509495945050505050565b73ffffffffffffffffffffffffffffffffffffffff8416815260806020820152600061161d60808301856115b3565b828103604084015261162f81856115b3565b8381036060909401939093525050600081526020019392505050565b608081526000855180608084015260005b8181101561167957602081890181015160a086840101520161165c565b50600060a0828501015260a07fffffffffffffffffffffffffffffffffffffffffffffffffffffffffffffffe0601f83011684010191505084602083015273ffffffffffffffffffffffffffffffffffffffff841660408301528260608301529594505050505056fea2646970667358221220cc89d24920cd78bc1ee8415d1cb39ec5b3afff3cbf969ea954598652a9cfa5c964736f6c63430008110033",
  "linkReferences": {},
  "deployedLinkReferences": {}
}