{
  "_format": "hh-sol-artifact-1",
  "contractName": "GameItems",
  "sourceName": "contracts/MockNFT.sol",
  "abi": [
    {
      "inputs": [],
      "stateMutability": "nonpayable",
      "type": "constructor"
    },
    {
      "anonymous": false,
      "inputs": [
        {
          "indexed": true,
          "internalType": "address",
          "name": "account",
          "type": "address"
        },
        {
          "indexed": true,
          "internalType": "address",
          "name": "operator",
          "type": "address"
        },
        {
          "indexed": false,
          "internalType": "bool",
          "name": "approved",
          "type": "bool"
        }
      ],
      "name": "ApprovalForAll",
      "type": "event"
    },
    {
      "anonymous": false,
      "inputs": [
        {
          "indexed": true,
          "internalType": "address",
          "name": "operator",
          "type": "address"
        },
        {
          "indexed": true,
          "internalType": "address",
          "name": "from",
          "type": "address"
        },
        {
          "indexed": true,
          "internalType": "address",
          "name": "to",
          "type": "address"
        },
        {
          "indexed": false,
          "internalType": "uint256[]",
          "name": "ids",
          "type": "uint256[]"
        },
        {
          "indexed": false,
          "internalType": "uint256[]",
          "name": "values",
          "type": "uint256[]"
        }
      ],
      "name": "TransferBatch",
      "type": "event"
    },
    {
      "anonymous": false,
      "inputs": [
        {
          "indexed": true,
          "internalType": "address",
          "name": "operator",
          "type": "address"
        },
        {
          "indexed": true,
          "internalType": "address",
          "name": "from",
          "type": "address"
        },
        {
          "indexed": true,
          "internalType": "address",
          "name": "to",
          "type": "address"
        },
        {
          "indexed": false,
          "internalType": "uint256",
          "name": "id",
          "type": "uint256"
        },
        {
          "indexed": false,
          "internalType": "uint256",
          "name": "value",
          "type": "uint256"
        }
      ],
      "name": "TransferSingle",
      "type": "event"
    },
    {
      "anonymous": false,
      "inputs": [
        {
          "indexed": false,
          "internalType": "string",
          "name": "value",
          "type": "string"
        },
        {
          "indexed": true,
          "internalType": "uint256",
          "name": "id",
          "type": "uint256"
        }
      ],
      "name": "URI",
      "type": "event"
    },
    {
      "inputs": [],
      "name": "GOLD",
      "outputs": [
        {
          "internalType": "uint256",
          "name": "",
          "type": "uint256"
        }
      ],
      "stateMutability": "view",
      "type": "function"
    },
    {
      "inputs": [],
      "name": "SHIELD",
      "outputs": [
        {
          "internalType": "uint256",
          "name": "",
          "type": "uint256"
        }
      ],
      "stateMutability": "view",
      "type": "function"
    },
    {
      "inputs": [],
      "name": "SILVER",
      "outputs": [
        {
          "internalType": "uint256",
          "name": "",
          "type": "uint256"
        }
      ],
      "stateMutability": "view",
      "type": "function"
    },
    {
      "inputs": [],
      "name": "SWORD",
      "outputs": [
        {
          "internalType": "uint256",
          "name": "",
          "type": "uint256"
        }
      ],
      "stateMutability": "view",
      "type": "function"
    },
    {
      "inputs": [],
      "name": "THORS_HAMMER",
      "outputs": [
        {
          "internalType": "uint256",
          "name": "",
          "type": "uint256"
        }
      ],
      "stateMutability": "view",
      "type": "function"
    },
    {
      "inputs": [
        {
          "internalType": "address",
          "name": "account",
          "type": "address"
        },
        {
          "internalType": "uint256",
          "name": "id",
          "type": "uint256"
        }
      ],
      "name": "balanceOf",
      "outputs": [
        {
          "internalType": "uint256",
          "name": "",
          "type": "uint256"
        }
      ],
      "stateMutability": "view",
      "type": "function"
    },
    {
      "inputs": [
        {
          "internalType": "address[]",
          "name": "accounts",
          "type": "address[]"
        },
        {
          "internalType": "uint256[]",
          "name": "ids",
          "type": "uint256[]"
        }
      ],
      "name": "balanceOfBatch",
      "outputs": [
        {
          "internalType": "uint256[]",
          "name": "",
          "type": "uint256[]"
        }
      ],
      "stateMutability": "view",
      "type": "function"
    },
    {
      "inputs": [
        {
          "internalType": "address",
          "name": "account",
          "type": "address"
        },
        {
          "internalType": "address",
          "name": "operator",
          "type": "address"
        }
      ],
      "name": "isApprovedForAll",
      "outputs": [
        {
          "internalType": "bool",
          "name": "",
          "type": "bool"
        }
      ],
      "stateMutability": "view",
      "type": "function"
    },
    {
      "inputs": [
        {
          "internalType": "address",
          "name": "from",
          "type": "address"
        },
        {
          "internalType": "address",
          "name": "to",
          "type": "address"
        },
        {
          "internalType": "uint256[]",
          "name": "ids",
          "type": "uint256[]"
        },
        {
          "internalType": "uint256[]",
          "name": "amounts",
          "type": "uint256[]"
        },
        {
          "internalType": "bytes",
          "name": "data",
          "type": "bytes"
        }
      ],
      "name": "safeBatchTransferFrom",
      "outputs": [],
      "stateMutability": "nonpayable",
      "type": "function"
    },
    {
      "inputs": [
        {
          "internalType": "address",
          "name": "from",
          "type": "address"
        },
        {
          "internalType": "address",
          "name": "to",
          "type": "address"
        },
        {
          "internalType": "uint256",
          "name": "id",
          "type": "uint256"
        },
        {
          "internalType": "uint256",
          "name": "amount",
          "type": "uint256"
        },
        {
          "internalType": "bytes",
          "name": "data",
          "type": "bytes"
        }
      ],
      "name": "safeTransferFrom",
      "outputs": [],
      "stateMutability": "nonpayable",
      "type": "function"
    },
    {
      "inputs": [
        {
          "internalType": "address",
          "name": "operator",
          "type": "address"
        },
        {
          "internalType": "bool",
          "name": "approved",
          "type": "bool"
        }
      ],
      "name": "setApprovalForAll",
      "outputs": [],
      "stateMutability": "nonpayable",
      "type": "function"
    },
    {
      "inputs": [
        {
          "internalType": "bytes4",
          "name": "interfaceId",
          "type": "bytes4"
        }
      ],
      "name": "supportsInterface",
      "outputs": [
        {
          "internalType": "bool",
          "name": "",
          "type": "bool"
        }
      ],
      "stateMutability": "view",
      "type": "function"
    },
    {
      "inputs": [
        {
          "internalType": "uint256",
          "name": "",
          "type": "uint256"
        }
      ],
      "name": "uri",
      "outputs": [
        {
          "internalType": "string",
          "name": "",
          "type": "string"
        }
      ],
      "stateMutability": "view",
      "type": "function"
    }
  ],
  "bytecode": "0x60806040523480156200001157600080fd5b50604051806060016040528060278152602001620033a1602791396200003d816200011560201b60201c565b506200006a336000670de0b6b3a7640000604051806020016040528060008152506200013160201b60201c565b6200009a3360016b033b2e3c9fd0803ce8000000604051806020016040528060008152506200013160201b60201c565b620000bf3360026001604051806020016040528060008152506200013160201b60201c565b620000e7336003633b9aca00604051806020016040528060008152506200013160201b60201c565b6200010f336004633b9aca00604051806020016040528060008152506200013160201b60201c565b62000d19565b80600290805190602001906200012d92919062000594565b5050565b600073ffffffffffffffffffffffffffffffffffffffff168473ffffffffffffffffffffffffffffffffffffffff161415620001a4576040517f08c379a00000000000000000000000000000000000000000000000000000000081526004016200019b90620006cb565b60405180910390fd5b6000620001b6620002f660201b60201c565b9050620001ef81600087620001d188620002fe60201b60201c565b620001e288620002fe60201b60201c565b876200037f60201b60201c565b8260008086815260200190815260200160002060008773ffffffffffffffffffffffffffffffffffffffff1673ffffffffffffffffffffffffffffffffffffffff168152602001908152602001600020600082825462000250919062000726565b925050819055508473ffffffffffffffffffffffffffffffffffffffff16600073ffffffffffffffffffffffffffffffffffffffff168273ffffffffffffffffffffffffffffffffffffffff167fc3d58168c5ae7397731d063d5bbf3d657854427343f4c083240f7aacaa2d0f628787604051620002d092919062000794565b60405180910390a4620002ef816000878787876200038760201b60201c565b5050505050565b600033905090565b60606000600167ffffffffffffffff81111562000320576200031f620007c1565b5b6040519080825280602002602001820160405280156200034f5781602001602082028036833780820191505090505b50905082816000815181106200036a5762000369620007f0565b5b60200260200101818152505080915050919050565b505050505050565b620003b38473ffffffffffffffffffffffffffffffffffffffff166200058160201b6200080a1760201c565b1562000579578373ffffffffffffffffffffffffffffffffffffffff1663f23a6e6187878686866040518663ffffffff1660e01b8152600401620003fc95949392919062000908565b6020604051808303816000875af19250505080156200043b57506040513d601f19601f82011682018060405250810190620004389190620009d8565b60015b620004ed576200044a62000a17565b806308c379a01415620004ae57506200046262000a72565b806200046f5750620004b0565b806040517f08c379a0000000000000000000000000000000000000000000000000000000008152600401620004a5919062000b60565b60405180910390fd5b505b6040517f08c379a0000000000000000000000000000000000000000000000000000000008152600401620004e49062000bfa565b60405180910390fd5b63f23a6e6160e01b7bffffffffffffffffffffffffffffffffffffffffffffffffffffffff1916817bffffffffffffffffffffffffffffffffffffffffffffffffffffffff19161462000577576040517f08c379a00000000000000000000000000000000000000000000000000000000081526004016200056e9062000c92565b60405180910390fd5b505b505050505050565b600080823b905060008111915050919050565b828054620005a29062000ce3565b90600052602060002090601f016020900481019282620005c6576000855562000612565b82601f10620005e157805160ff191683800117855562000612565b8280016001018555821562000612579182015b8281111562000611578251825591602001919060010190620005f4565b5b50905062000621919062000625565b5090565b5b808211156200064057600081600090555060010162000626565b5090565b600082825260208201905092915050565b7f455243313135353a206d696e7420746f20746865207a65726f2061646472657360008201527f7300000000000000000000000000000000000000000000000000000000000000602082015250565b6000620006b360218362000644565b9150620006c08262000655565b604082019050919050565b60006020820190508181036000830152620006e681620006a4565b9050919050565b6000819050919050565b7f4e487b7100000000000000000000000000000000000000000000000000000000600052601160045260246000fd5b60006200073382620006ed565b91506200074083620006ed565b9250827fffffffffffffffffffffffffffffffffffffffffffffffffffffffffffffffff03821115620007785762000777620006f7565b5b828201905092915050565b6200078e81620006ed565b82525050565b6000604082019050620007ab600083018562000783565b620007ba602083018462000783565b9392505050565b7f4e487b7100000000000000000000000000000000000000000000000000000000600052604160045260246000fd5b7f4e487b7100000000000000000000000000000000000000000000000000000000600052603260045260246000fd5b600073ffffffffffffffffffffffffffffffffffffffff82169050919050565b60006200084c826200081f565b9050919050565b6200085e816200083f565b82525050565b600081519050919050565b600082825260208201905092915050565b60005b83811015620008a057808201518184015260208101905062000883565b83811115620008b0576000848401525b50505050565b6000601f19601f8301169050919050565b6000620008d48262000864565b620008e081856200086f565b9350620008f281856020860162000880565b620008fd81620008b6565b840191505092915050565b600060a0820190506200091f600083018862000853565b6200092e602083018762000853565b6200093d604083018662000783565b6200094c606083018562000783565b8181036080830152620009608184620008c7565b90509695505050505050565b6000604051905090565b600080fd5b60007fffffffff0000000000000000000000000000000000000000000000000000000082169050919050565b620009b2816200097b565b8114620009be57600080fd5b50565b600081519050620009d281620009a7565b92915050565b600060208284031215620009f157620009f062000976565b5b600062000a0184828501620009c1565b91505092915050565b60008160e01c9050919050565b600060033d111562000a395760046000803e62000a3660005162000a0a565b90505b90565b62000a4782620008b6565b810181811067ffffffffffffffff8211171562000a695762000a68620007c1565b5b80604052505050565b600060443d101562000a845762000b11565b62000a8e6200096c565b60043d036004823e80513d602482011167ffffffffffffffff8211171562000ab857505062000b11565b808201805167ffffffffffffffff81111562000ad8575050505062000b11565b80602083010160043d03850181111562000af757505050505062000b11565b62000b088260200185018662000a3c565b82955050505050505b90565b600081519050919050565b600062000b2c8262000b14565b62000b38818562000644565b935062000b4a81856020860162000880565b62000b5581620008b6565b840191505092915050565b6000602082019050818103600083015262000b7c818462000b1f565b905092915050565b7f455243313135353a207472616e7366657220746f206e6f6e204552433131353560008201527f526563656976657220696d706c656d656e746572000000000000000000000000602082015250565b600062000be260348362000644565b915062000bef8262000b84565b604082019050919050565b6000602082019050818103600083015262000c158162000bd3565b9050919050565b7f455243313135353a204552433131353552656365697665722072656a6563746560008201527f6420746f6b656e73000000000000000000000000000000000000000000000000602082015250565b600062000c7a60288362000644565b915062000c878262000c1c565b604082019050919050565b6000602082019050818103600083015262000cad8162000c6b565b9050919050565b7f4e487b7100000000000000000000000000000000000000000000000000000000600052602260045260246000fd5b6000600282049050600182168062000cfc57607f821691505b6020821081141562000d135762000d1262000cb4565b5b50919050565b6126788062000d296000396000f3fe608060405234801561001057600080fd5b50600436106100ce5760003560e01c80634e1273f41161008c578063d562e20411610066578063d562e20414610225578063e3e55f0814610243578063e985e9c514610261578063f242432a14610291576100ce565b80634e1273f4146101bb5780635b2725ed146101eb578063a22cb46514610209576100ce565b8062fdd58e146100d357806301ffc9a7146101035780630e89341c1461013357806313dc989f146101635780632eb2c2d6146101815780633e4bee381461019d575b600080fd5b6100ed60048036038101906100e8919061146c565b6102ad565b6040516100fa91906114bb565b60405180910390f35b61011d6004803603810190610118919061152e565b610376565b60405161012a9190611576565b60405180910390f35b61014d60048036038101906101489190611591565b610458565b60405161015a9190611657565b60405180910390f35b61016b6104ec565b60405161017891906114bb565b60405180910390f35b61019b60048036038101906101969190611876565b6104f1565b005b6101a5610592565b6040516101b291906114bb565b60405180910390f35b6101d560048036038101906101d09190611a08565b610597565b6040516101e29190611b3e565b60405180910390f35b6101f36106b0565b60405161020091906114bb565b60405180910390f35b610223600480360381019061021e9190611b8c565b6106b5565b005b61022d6106cb565b60405161023a91906114bb565b60405180910390f35b61024b6106d0565b60405161025891906114bb565b60405180910390f35b61027b60048036038101906102769190611bcc565b6106d5565b6040516102889190611576565b60405180910390f35b6102ab60048036038101906102a69190611c0c565b610769565b005b60008073ffffffffffffffffffffffffffffffffffffffff168373ffffffffffffffffffffffffffffffffffffffff16141561031e576040517f08c379a000000000000000000000000000000000000000000000000000000000815260040161031590611d15565b60405180910390fd5b60008083815260200190815260200160002060008473ffffffffffffffffffffffffffffffffffffffff1673ffffffffffffffffffffffffffffffffffffffff16815260200190815260200160002054905092915050565b60007fd9b67a26000000000000000000000000000000000000000000000000000000007bffffffffffffffffffffffffffffffffffffffffffffffffffffffff1916827bffffffffffffffffffffffffffffffffffffffffffffffffffffffff1916148061044157507f0e89341c000000000000000000000000000000000000000000000000000000007bffffffffffffffffffffffffffffffffffffffffffffffffffffffff1916827bffffffffffffffffffffffffffffffffffffffffffffffffffffffff1916145b8061045157506104508261081d565b5b9050919050565b60606002805461046790611d64565b80601f016020809104026020016040519081016040528092919081815260200182805461049390611d64565b80156104e05780601f106104b5576101008083540402835291602001916104e0565b820191906000526020600020905b8154815290600101906020018083116104c357829003601f168201915b50505050509050919050565b600381565b6104f9610887565b73ffffffffffffffffffffffffffffffffffffffff168573ffffffffffffffffffffffffffffffffffffffff16148061053f575061053e85610539610887565b6106d5565b5b61057e576040517f08c379a000000000000000000000000000000000000000000000000000000000815260040161057590611e08565b60405180910390fd5b61058b858585858561088f565b5050505050565b600081565b606081518351146105dd576040517f08c379a00000000000000000000000000000000000000000000000000000000081526004016105d490611e9a565b60405180910390fd5b6000835167ffffffffffffffff8111156105fa576105f961167e565b5b6040519080825280602002602001820160405280156106285781602001602082028036833780820191505090505b50905060005b84518110156106a55761067585828151811061064d5761064c611eba565b5b602002602001015185838151811061066857610667611eba565b5b60200260200101516102ad565b82828151811061068857610687611eba565b5b6020026020010181815250508061069e90611f18565b905061062e565b508091505092915050565b600481565b6106c76106c0610887565b8383610ba3565b5050565b600281565b600181565b6000600160008473ffffffffffffffffffffffffffffffffffffffff1673ffffffffffffffffffffffffffffffffffffffff16815260200190815260200160002060008373ffffffffffffffffffffffffffffffffffffffff1673ffffffffffffffffffffffffffffffffffffffff16815260200190815260200160002060009054906101000a900460ff16905092915050565b610771610887565b73ffffffffffffffffffffffffffffffffffffffff168573ffffffffffffffffffffffffffffffffffffffff1614806107b757506107b6856107b1610887565b6106d5565b5b6107f6576040517f08c379a00000000000000000000000000000000000000000000000000000000081526004016107ed90611fd3565b60405180910390fd5b6108038585858585610d10565b5050505050565b600080823b905060008111915050919050565b60007f01ffc9a7000000000000000000000000000000000000000000000000000000007bffffffffffffffffffffffffffffffffffffffffffffffffffffffff1916827bffffffffffffffffffffffffffffffffffffffffffffffffffffffff1916149050919050565b600033905090565b81518351146108d3576040517f08c379a00000000000000000000000000000000000000000000000000000000081526004016108ca90612065565b60405180910390fd5b600073ffffffffffffffffffffffffffffffffffffffff168473ffffffffffffffffffffffffffffffffffffffff161415610943576040517f08c379a000000000000000000000000000000000000000000000000000000000815260040161093a906120f7565b60405180910390fd5b600061094d610887565b905061095d818787878787610f92565b60005b8451811015610b0e57600085828151811061097e5761097d611eba565b5b60200260200101519050600085838151811061099d5761099c611eba565b5b60200260200101519050600080600084815260200190815260200160002060008b73ffffffffffffffffffffffffffffffffffffffff1673ffffffffffffffffffffffffffffffffffffffff16815260200190815260200160002054905081811015610a3e576040517f08c379a0000000000000000000000000000000000000000000000000000000008152600401610a3590612189565b60405180910390fd5b81810360008085815260200190815260200160002060008c73ffffffffffffffffffffffffffffffffffffffff1673ffffffffffffffffffffffffffffffffffffffff168152602001908152602001600020819055508160008085815260200190815260200160002060008b73ffffffffffffffffffffffffffffffffffffffff1673ffffffffffffffffffffffffffffffffffffffff1681526020019081526020016000206000828254610af391906121a9565b9250508190555050505080610b0790611f18565b9050610960565b508473ffffffffffffffffffffffffffffffffffffffff168673ffffffffffffffffffffffffffffffffffffffff168273ffffffffffffffffffffffffffffffffffffffff167f4a39dc06d4c0dbc64b70af90fd698a233a518aa5d07e595d983b8c0526c8f7fb8787604051610b859291906121ff565b60405180910390a4610b9b818787878787610f9a565b505050505050565b8173ffffffffffffffffffffffffffffffffffffffff168373ffffffffffffffffffffffffffffffffffffffff161415610c12576040517f08c379a0000000000000000000000000000000000000000000000000000000008152600401610c09906122a8565b60405180910390fd5b80600160008573ffffffffffffffffffffffffffffffffffffffff1673ffffffffffffffffffffffffffffffffffffffff16815260200190815260200160002060008473ffffffffffffffffffffffffffffffffffffffff1673ffffffffffffffffffffffffffffffffffffffff16815260200190815260200160002060006101000a81548160ff0219169083151502179055508173ffffffffffffffffffffffffffffffffffffffff168373ffffffffffffffffffffffffffffffffffffffff167f17307eab39ab6107e8899845ad3d59bd9653f200f220920489ca2b5937696c3183604051610d039190611576565b60405180910390a3505050565b600073ffffffffffffffffffffffffffffffffffffffff168473ffffffffffffffffffffffffffffffffffffffff161415610d80576040517f08c379a0000000000000000000000000000000000000000000000000000000008152600401610d77906120f7565b60405180910390fd5b6000610d8a610887565b9050610daa818787610d9b88611172565b610da488611172565b87610f92565b600080600086815260200190815260200160002060008873ffffffffffffffffffffffffffffffffffffffff1673ffffffffffffffffffffffffffffffffffffffff16815260200190815260200160002054905083811015610e41576040517f08c379a0000000000000000000000000000000000000000000000000000000008152600401610e3890612189565b60405180910390fd5b83810360008087815260200190815260200160002060008973ffffffffffffffffffffffffffffffffffffffff1673ffffffffffffffffffffffffffffffffffffffff168152602001908152602001600020819055508360008087815260200190815260200160002060008873ffffffffffffffffffffffffffffffffffffffff1673ffffffffffffffffffffffffffffffffffffffff1681526020019081526020016000206000828254610ef691906121a9565b925050819055508573ffffffffffffffffffffffffffffffffffffffff168773ffffffffffffffffffffffffffffffffffffffff168373ffffffffffffffffffffffffffffffffffffffff167fc3d58168c5ae7397731d063d5bbf3d657854427343f4c083240f7aacaa2d0f628888604051610f739291906122c8565b60405180910390a4610f898288888888886111ec565b50505050505050565b505050505050565b610fb98473ffffffffffffffffffffffffffffffffffffffff1661080a565b1561116a578373ffffffffffffffffffffffffffffffffffffffff1663bc197c8187878686866040518663ffffffff1660e01b8152600401610fff959493929190612355565b6020604051808303816000875af192505050801561103b57506040513d601f19601f8201168201806040525081019061103891906123d2565b60015b6110e15761104761240c565b806308c379a014156110a4575061105c61242e565b8061106757506110a6565b806040517f08c379a000000000000000000000000000000000000000000000000000000000815260040161109b9190611657565b60405180910390fd5b505b6040517f08c379a00000000000000000000000000000000000000000000000000000000081526004016110d890612536565b60405180910390fd5b63bc197c8160e01b7bffffffffffffffffffffffffffffffffffffffffffffffffffffffff1916817bffffffffffffffffffffffffffffffffffffffffffffffffffffffff191614611168576040517f08c379a000000000000000000000000000000000000000000000000000000000815260040161115f906125c8565b60405180910390fd5b505b505050505050565b60606000600167ffffffffffffffff8111156111915761119061167e565b5b6040519080825280602002602001820160405280156111bf5781602001602082028036833780820191505090505b50905082816000815181106111d7576111d6611eba565b5b60200260200101818152505080915050919050565b61120b8473ffffffffffffffffffffffffffffffffffffffff1661080a565b156113bc578373ffffffffffffffffffffffffffffffffffffffff1663f23a6e6187878686866040518663ffffffff1660e01b81526004016112519594939291906125e8565b6020604051808303816000875af192505050801561128d57506040513d601f19601f8201168201806040525081019061128a91906123d2565b60015b6113335761129961240c565b806308c379a014156112f657506112ae61242e565b806112b957506112f8565b806040517f08c379a00000000000000000000000000000000000000000000000000000000081526004016112ed9190611657565b60405180910390fd5b505b6040517f08c379a000000000000000000000000000000000000000000000000000000000815260040161132a90612536565b60405180910390fd5b63f23a6e6160e01b7bffffffffffffffffffffffffffffffffffffffffffffffffffffffff1916817bffffffffffffffffffffffffffffffffffffffffffffffffffffffff1916146113ba576040517f08c379a00000000000000000000000000000000000000000000000000000000081526004016113b1906125c8565b60405180910390fd5b505b505050505050565b6000604051905090565b600080fd5b600080fd5b600073ffffffffffffffffffffffffffffffffffffffff82169050919050565b6000611403826113d8565b9050919050565b611413816113f8565b811461141e57600080fd5b50565b6000813590506114308161140a565b92915050565b6000819050919050565b61144981611436565b811461145457600080fd5b50565b60008135905061146681611440565b92915050565b60008060408385031215611483576114826113ce565b5b600061149185828601611421565b92505060206114a285828601611457565b9150509250929050565b6114b581611436565b82525050565b60006020820190506114d060008301846114ac565b92915050565b60007fffffffff0000000000000000000000000000000000000000000000000000000082169050919050565b61150b816114d6565b811461151657600080fd5b50565b60008135905061152881611502565b92915050565b600060208284031215611544576115436113ce565b5b600061155284828501611519565b91505092915050565b60008115159050919050565b6115708161155b565b82525050565b600060208201905061158b6000830184611567565b92915050565b6000602082840312156115a7576115a66113ce565b5b60006115b584828501611457565b91505092915050565b600081519050919050565b600082825260208201905092915050565b60005b838110156115f85780820151818401526020810190506115dd565b83811115611607576000848401525b50505050565b6000601f19601f8301169050919050565b6000611629826115be565b61163381856115c9565b93506116438185602086016115da565b61164c8161160d565b840191505092915050565b60006020820190508181036000830152611671818461161e565b905092915050565b600080fd5b7f4e487b7100000000000000000000000000000000000000000000000000000000600052604160045260246000fd5b6116b68261160d565b810181811067ffffffffffffffff821117156116d5576116d461167e565b5b80604052505050565b60006116e86113c4565b90506116f482826116ad565b919050565b600067ffffffffffffffff8211156117145761171361167e565b5b602082029050602081019050919050565b600080fd5b600061173d611738846116f9565b6116de565b905080838252602082019050602084028301858111156117605761175f611725565b5b835b8181101561178957806117758882611457565b845260208401935050602081019050611762565b5050509392505050565b600082601f8301126117a8576117a7611679565b5b81356117b884826020860161172a565b91505092915050565b600080fd5b600067ffffffffffffffff8211156117e1576117e061167e565b5b6117ea8261160d565b9050602081019050919050565b82818337600083830152505050565b6000611819611814846117c6565b6116de565b905082815260208101848484011115611835576118346117c1565b5b6118408482856117f7565b509392505050565b600082601f83011261185d5761185c611679565b5b813561186d848260208601611806565b91505092915050565b600080600080600060a08688031215611892576118916113ce565b5b60006118a088828901611421565b95505060206118b188828901611421565b945050604086013567ffffffffffffffff8111156118d2576118d16113d3565b5b6118de88828901611793565b935050606086013567ffffffffffffffff8111156118ff576118fe6113d3565b5b61190b88828901611793565b925050608086013567ffffffffffffffff81111561192c5761192b6113d3565b5b61193888828901611848565b9150509295509295909350565b600067ffffffffffffffff8211156119605761195f61167e565b5b602082029050602081019050919050565b600061198461197f84611945565b6116de565b905080838252602082019050602084028301858111156119a7576119a6611725565b5b835b818110156119d057806119bc8882611421565b8452602084019350506020810190506119a9565b5050509392505050565b600082601f8301126119ef576119ee611679565b5b81356119ff848260208601611971565b91505092915050565b60008060408385031215611a1f57611a1e6113ce565b5b600083013567ffffffffffffffff811115611a3d57611a3c6113d3565b5b611a49858286016119da565b925050602083013567ffffffffffffffff811115611a6a57611a696113d3565b5b611a7685828601611793565b9150509250929050565b600081519050919050565b600082825260208201905092915050565b6000819050602082019050919050565b611ab581611436565b82525050565b6000611ac78383611aac565b60208301905092915050565b6000602082019050919050565b6000611aeb82611a80565b611af58185611a8b565b9350611b0083611a9c565b8060005b83811015611b31578151611b188882611abb565b9750611b2383611ad3565b925050600181019050611b04565b5085935050505092915050565b60006020820190508181036000830152611b588184611ae0565b905092915050565b611b698161155b565b8114611b7457600080fd5b50565b600081359050611b8681611b60565b92915050565b60008060408385031215611ba357611ba26113ce565b5b6000611bb185828601611421565b9250506020611bc285828601611b77565b9150509250929050565b60008060408385031215611be357611be26113ce565b5b6000611bf185828601611421565b9250506020611c0285828601611421565b9150509250929050565b600080600080600060a08688031215611c2857611c276113ce565b5b6000611c3688828901611421565b9550506020611c4788828901611421565b9450506040611c5888828901611457565b9350506060611c6988828901611457565b925050608086013567ffffffffffffffff811115611c8a57611c896113d3565b5b611c9688828901611848565b9150509295509295909350565b7f455243313135353a2062616c616e636520717565727920666f7220746865207a60008201527f65726f2061646472657373000000000000000000000000000000000000000000602082015250565b6000611cff602b836115c9565b9150611d0a82611ca3565b604082019050919050565b60006020820190508181036000830152611d2e81611cf2565b9050919050565b7f4e487b7100000000000000000000000000000000000000000000000000000000600052602260045260246000fd5b60006002820490506001821680611d7c57607f821691505b60208210811415611d9057611d8f611d35565b5b50919050565b7f455243313135353a207472616e736665722063616c6c6572206973206e6f742060008201527f6f776e6572206e6f7220617070726f7665640000000000000000000000000000602082015250565b6000611df26032836115c9565b9150611dfd82611d96565b604082019050919050565b60006020820190508181036000830152611e2181611de5565b9050919050565b7f455243313135353a206163636f756e747320616e6420696473206c656e67746860008201527f206d69736d617463680000000000000000000000000000000000000000000000602082015250565b6000611e846029836115c9565b9150611e8f82611e28565b604082019050919050565b60006020820190508181036000830152611eb381611e77565b9050919050565b7f4e487b7100000000000000000000000000000000000000000000000000000000600052603260045260246000fd5b7f4e487b7100000000000000000000000000000000000000000000000000000000600052601160045260246000fd5b6000611f2382611436565b91507fffffffffffffffffffffffffffffffffffffffffffffffffffffffffffffffff821415611f5657611f55611ee9565b5b600182019050919050565b7f455243313135353a2063616c6c6572206973206e6f74206f776e6572206e6f7260008201527f20617070726f7665640000000000000000000000000000000000000000000000602082015250565b6000611fbd6029836115c9565b9150611fc882611f61565b604082019050919050565b60006020820190508181036000830152611fec81611fb0565b9050919050565b7f455243313135353a2069647320616e6420616d6f756e7473206c656e6774682060008201527f6d69736d61746368000000000000000000000000000000000000000000000000602082015250565b600061204f6028836115c9565b915061205a82611ff3565b604082019050919050565b6000602082019050818103600083015261207e81612042565b9050919050565b7f455243313135353a207472616e7366657220746f20746865207a65726f20616460008201527f6472657373000000000000000000000000000000000000000000000000000000602082015250565b60006120e16025836115c9565b91506120ec82612085565b604082019050919050565b60006020820190508181036000830152612110816120d4565b9050919050565b7f455243313135353a20696e73756666696369656e742062616c616e636520666f60008201527f72207472616e7366657200000000000000000000000000000000000000000000602082015250565b6000612173602a836115c9565b915061217e82612117565b604082019050919050565b600060208201905081810360008301526121a281612166565b9050919050565b60006121b482611436565b91506121bf83611436565b9250827fffffffffffffffffffffffffffffffffffffffffffffffffffffffffffffffff038211156121f4576121f3611ee9565b5b828201905092915050565b600060408201905081810360008301526122198185611ae0565b9050818103602083015261222d8184611ae0565b90509392505050565b7f455243313135353a2073657474696e6720617070726f76616c2073746174757360008201527f20666f722073656c660000000000000000000000000000000000000000000000602082015250565b60006122926029836115c9565b915061229d82612236565b604082019050919050565b600060208201905081810360008301526122c181612285565b9050919050565b60006040820190506122dd60008301856114ac565b6122ea60208301846114ac565b9392505050565b6122fa816113f8565b82525050565b600081519050919050565b600082825260208201905092915050565b600061232782612300565b612331818561230b565b93506123418185602086016115da565b61234a8161160d565b840191505092915050565b600060a08201905061236a60008301886122f1565b61237760208301876122f1565b81810360408301526123898186611ae0565b9050818103606083015261239d8185611ae0565b905081810360808301526123b1818461231c565b90509695505050505050565b6000815190506123cc81611502565b92915050565b6000602082840312156123e8576123e76113ce565b5b60006123f6848285016123bd565b91505092915050565b60008160e01c9050919050565b600060033d111561242b5760046000803e6124286000516123ff565b90505b90565b600060443d101561243e576124c1565b6124466113c4565b60043d036004823e80513d602482011167ffffffffffffffff8211171561246e5750506124c1565b808201805167ffffffffffffffff81111561248c57505050506124c1565b80602083010160043d0385018111156124a95750505050506124c1565b6124b8826020018501866116ad565b82955050505050505b90565b7f455243313135353a207472616e7366657220746f206e6f6e204552433131353560008201527f526563656976657220696d706c656d656e746572000000000000000000000000602082015250565b60006125206034836115c9565b915061252b826124c4565b604082019050919050565b6000602082019050818103600083015261254f81612513565b9050919050565b7f455243313135353a204552433131353552656365697665722072656a6563746560008201527f6420746f6b656e73000000000000000000000000000000000000000000000000602082015250565b60006125b26028836115c9565b91506125bd82612556565b604082019050919050565b600060208201905081810360008301526125e1816125a5565b9050919050565b600060a0820190506125fd60008301886122f1565b61260a60208301876122f1565b61261760408301866114ac565b61262460608301856114ac565b8181036080830152612636818461231c565b9050969550505050505056fea264697066735822122040817baa596a498155699d4d5da1a3b32bcdb4e218b2c135cd864eaf0e3ee4b064736f6c634300080b003368747470733a2f2f67616d652e6578616d706c652f6170692f6974656d2f7b69647d2e6a736f6e",
  "linkReferences": {},
  "deployedLinkReferences": {}
}