{
  "_format": "hh-sol-artifact-1",
  "contractName": "GenericSigVerifier",
  "sourceName": "contracts/GenericSigVerifier.sol",
  "abi": [
    {
      "inputs": [
        {
          "internalType": "address",
          "name": "target",
          "type": "address"
        }
      ],
      "name": "AddressEmptyCode",
      "type": "error"
    },
    {
      "inputs": [
        {
          "internalType": "address",
          "name": "account",
          "type": "address"
        }
      ],
      "name": "AddressInsufficientBalance",
      "type": "error"
    },
    {
      "inputs": [
        {
          "internalType": "address",
          "name": "implementation",
          "type": "address"
        }
      ],
      "name": "ERC1967InvalidImplementation",
      "type": "error"
    },
    {
      "inputs": [],
      "name": "ERC1967NonPayable",
      "type": "error"
    },
    {
      "inputs": [],
      "name": "FailedInnerCall",
      "type": "error"
    },
    {
      "inputs": [],
      "name": "InvalidInitialization",
      "type": "error"
    },
    {
      "inputs": [],
      "name": "NotInitializing",
      "type": "error"
    },
    {
      "inputs": [
        {
          "internalType": "address",
          "name": "owner",
          "type": "address"
        }
      ],
      "name": "OwnableInvalidOwner",
      "type": "error"
    },
    {
      "inputs": [
        {
          "internalType": "address",
          "name": "account",
          "type": "address"
        }
      ],
      "name": "OwnableUnauthorizedAccount",
      "type": "error"
    },
    {
      "inputs": [],
      "name": "UUPSUnauthorizedCallContext",
      "type": "error"
    },
    {
      "inputs": [
        {
          "internalType": "bytes32",
          "name": "slot",
          "type": "bytes32"
        }
      ],
      "name": "UUPSUnsupportedProxiableUUID",
      "type": "error"
    },
    {
      "anonymous": false,
      "inputs": [],
      "name": "EIP712DomainChanged",
      "type": "event"
    },
    {
      "anonymous": false,
      "inputs": [
        {
          "indexed": false,
          "internalType": "address",
          "name": "to",
          "type": "address"
        },
        {
          "indexed": false,
          "internalType": "bytes",
          "name": "data",
          "type": "bytes"
        },
        {
          "indexed": false,
          "internalType": "uint256",
          "name": "value",
          "type": "uint256"
        }
      ],
      "name": "Execute",
      "type": "event"
    },
    {
      "anonymous": false,
      "inputs": [
        {
          "indexed": false,
          "internalType": "uint64",
          "name": "version",
          "type": "uint64"
        }
      ],
      "name": "Initialized",
      "type": "event"
    },
    {
      "anonymous": false,
      "inputs": [
        {
          "indexed": true,
          "internalType": "address",
          "name": "previousOwner",
          "type": "address"
        },
        {
          "indexed": true,
          "internalType": "address",
          "name": "newOwner",
          "type": "address"
        }
      ],
      "name": "OwnershipTransferred",
      "type": "event"
    },
    {
      "anonymous": false,
      "inputs": [
        {
          "indexed": true,
          "internalType": "address",
          "name": "implementation",
          "type": "address"
        }
      ],
      "name": "Upgraded",
      "type": "event"
    },
    {
      "inputs": [],
      "name": "MESSAGE_TYPE",
      "outputs": [
        {
          "internalType": "string",
          "name": "",
          "type": "string"
        }
      ],
      "stateMutability": "view",
      "type": "function"
    },
    {
      "inputs": [],
      "name": "NAME",
      "outputs": [
        {
          "internalType": "string",
          "name": "",
          "type": "string"
        }
      ],
      "stateMutability": "view",
      "type": "function"
    },
    {
      "inputs": [],
      "name": "UPGRADE_INTERFACE_VERSION",
      "outputs": [
        {
          "internalType": "string",
          "name": "",
          "type": "string"
        }
      ],
      "stateMutability": "view",
      "type": "function"
    },
    {
      "inputs": [],
      "name": "VERSION",
      "outputs": [
        {
          "internalType": "string",
          "name": "",
          "type": "string"
        }
      ],
      "stateMutability": "view",
      "type": "function"
    },
    {
      "inputs": [],
      "name": "eip712Domain",
      "outputs": [
        {
          "internalType": "bytes1",
          "name": "fields",
          "type": "bytes1"
        },
        {
          "internalType": "string",
          "name": "name",
          "type": "string"
        },
        {
          "internalType": "string",
          "name": "version",
          "type": "string"
        },
        {
          "internalType": "uint256",
          "name": "chainId",
          "type": "uint256"
        },
        {
          "internalType": "address",
          "name": "verifyingContract",
          "type": "address"
        },
        {
          "internalType": "bytes32",
          "name": "salt",
          "type": "bytes32"
        },
        {
          "internalType": "uint256[]",
          "name": "extensions",
          "type": "uint256[]"
        }
      ],
      "stateMutability": "view",
      "type": "function"
    },
    {
      "inputs": [
        {
          "components": [
            {
              "internalType": "uint256",
              "name": "timestamp",
              "type": "uint256"
            },
            {
              "internalType": "address",
              "name": "to",
              "type": "address"
            },
            {
              "internalType": "bytes",
              "name": "data",
              "type": "bytes"
            },
            {
              "internalType": "uint256",
              "name": "value",
              "type": "uint256"
            }
          ],
          "internalType": "struct GenericSigVerifier.Mint",
          "name": "mint",
          "type": "tuple"
        },
        {
          "internalType": "bytes",
          "name": "signature",
          "type": "bytes"
        }
      ],
      "name": "execute",
      "outputs": [],
      "stateMutability": "nonpayable",
      "type": "function"
    },
    {
      "inputs": [
        {
          "internalType": "address",
          "name": "_signer",
          "type": "address"
        }
      ],
      "name": "initialize",
      "outputs": [],
      "stateMutability": "nonpayable",
      "type": "function"
    },
    {
      "inputs": [],
      "name": "owner",
      "outputs": [
        {
          "internalType": "address",
          "name": "",
          "type": "address"
        }
      ],
      "stateMutability": "view",
      "type": "function"
    },
    {
      "inputs": [],
      "name": "proxiableUUID",
      "outputs": [
        {
          "internalType": "bytes32",
          "name": "",
          "type": "bytes32"
        }
      ],
      "stateMutability": "view",
      "type": "function"
    },
    {
      "inputs": [],
      "name": "renounceOwnership",
      "outputs": [],
      "stateMutability": "nonpayable",
      "type": "function"
    },
    {
      "inputs": [],
      "name": "signer",
      "outputs": [
        {
          "internalType": "address",
          "name": "",
          "type": "address"
        }
      ],
      "stateMutability": "view",
      "type": "function"
    },
    {
      "inputs": [
        {
          "internalType": "address",
          "name": "newOwner",
          "type": "address"
        }
      ],
      "name": "transferOwnership",
      "outputs": [],
      "stateMutability": "nonpayable",
      "type": "function"
    },
    {
      "inputs": [
        {
          "internalType": "address",
          "name": "_newSigner",
          "type": "address"
        }
      ],
      "name": "updateSigner",
      "outputs": [],
      "stateMutability": "nonpayable",
      "type": "function"
    },
    {
      "inputs": [
        {
          "internalType": "address",
          "name": "newImplementation",
          "type": "address"
        },
        {
          "internalType": "bytes",
          "name": "data",
          "type": "bytes"
        }
      ],
      "name": "upgradeToAndCall",
      "outputs": [],
      "stateMutability": "payable",
      "type": "function"
    },
    {
      "inputs": [
        {
          "components": [
            {
              "internalType": "uint256",
              "name": "timestamp",
              "type": "uint256"
            },
            {
              "internalType": "address",
              "name": "to",
              "type": "address"
            },
            {
              "internalType": "bytes",
              "name": "data",
              "type": "bytes"
            },
            {
              "internalType": "uint256",
              "name": "value",
              "type": "uint256"
            }
          ],
          "internalType": "struct GenericSigVerifier.Mint",
          "name": "mint",
          "type": "tuple"
        },
        {
          "internalType": "bytes",
          "name": "signature",
          "type": "bytes"
        }
      ],
      "name": "verify",
      "outputs": [
        {
          "internalType": "bool",
          "name": "",
          "type": "bool"
        }
      ],
      "stateMutability": "view",
      "type": "function"
    }
  ],
  "bytecode": "0x60a06040523060805234801561001457600080fd5b5060805161186961003e600039600081816108d3015281816108fc0152610a6101526118696000f3fe6080604052600436106100e85760003560e01c8063a3f4df7e1161008a578063c82e824511610059578063c82e8245146102db578063dba710581461030b578063f2fde38b14610320578063ffa1ad741461034057600080fd5b8063a3f4df7e146101fc578063a7ecd37e14610252578063ad3cb1cc14610272578063c4d66de8146102bb57600080fd5b806352d1902d116100c657806352d1902d1461015f578063715018a61461018257806384b0196e146101975780638da5cb5b146101bf57600080fd5b80631eedb607146100ed578063238ac9331461010f5780634f1ef2861461014c575b600080fd5b3480156100f957600080fd5b5061010d610108366004611438565b61036d565b005b34801561011b57600080fd5b5060005461012f906001600160a01b031681565b6040516001600160a01b0390911681526020015b60405180910390f35b61010d61015a3660046114f1565b61043e565b34801561016b57600080fd5b5061017461045d565b604051908152602001610143565b34801561018e57600080fd5b5061010d61048c565b3480156101a357600080fd5b506101ac6104a0565b6040516101439796959493929190611585565b3480156101cb57600080fd5b507f9016d09d72d40fdae2fd8ceac6b6234c7706214fd39c1cd1e609a0528c199300546001600160a01b031661012f565b34801561020857600080fd5b506102456040518060400160405280601e81526020017f456e646572732047617465205369676e6174757265205665726966696572000081525081565b604051610143919061161b565b34801561025e57600080fd5b5061010d61026d36600461162e565b610566565b34801561027e57600080fd5b506102456040518060400160405280600581526020017f352e302e3000000000000000000000000000000000000000000000000000000081525081565b3480156102c757600080fd5b5061010d6102d636600461162e565b610590565b3480156102e757600080fd5b506102fb6102f6366004611438565b610727565b6040519015158152602001610143565b34801561031757600080fd5b506102456107cf565b34801561032c57600080fd5b5061010d61033b36600461162e565b6107eb565b34801561034c57600080fd5b50610245604051806040016040528060018152602001603160f81b81525081565b6103778282610727565b6103c85760405162461bcd60e51b815260206004820152601d60248201527f47656e6572696353696756657269666965723a2077726f6e672073696700000060448201526064015b60405180910390fd5b7f46e0076d5a064cdc22b7e000423513557b99ad0745646b541caa3a4122b1e5f282602001518360400151846060015160405161040793929190611649565b60405180910390a16104398260400151836060015184602001516001600160a01b03166108299092919063ffffffff16565b505050565b6104466108c8565b61044f8261097f565b6104598282610987565b5050565b6000610467610a56565b507f360894a13ba1a3210667c828492db98dca3e2076cc3735a920a3ca505d382bbc90565b610494610a9f565b61049e6000610afa565b565b600060608082808083817fa16a46d94261c7517cc8ff89f61c0ce93598e3c849801011dee649a6a557d10080549091501580156104df57506001810154155b61052b5760405162461bcd60e51b815260206004820152601560248201527f4549503731323a20556e696e697469616c697a6564000000000000000000000060448201526064016103bf565b610533610b6b565b61053b610c40565b60408051600080825260208201909252600f60f81b9c939b5091995046985030975095509350915050565b61056e610a9f565b600080546001600160a01b0319166001600160a01b0392909216919091179055565b7ff0c57e16840df040f15088dc2f81fe391c3923bec73e23a9662efc9c229c6a00805468010000000000000000810460ff16159067ffffffffffffffff166000811580156105db5750825b905060008267ffffffffffffffff1660011480156105f85750303b155b905081158015610606575080155b156106245760405163f92ee8a960e01b815260040160405180910390fd5b845467ffffffffffffffff19166001178555831561065857845468ff00000000000000001916680100000000000000001785555b61066133610c91565b6106b96040518060400160405280601e81526020017f456e646572732047617465205369676e61747572652056657269666965720000815250604051806040016040528060018152602001603160f81b815250610ca2565b600080546001600160a01b0319166001600160a01b038816179055831561071f57845468ff000000000000000019168555604051600181527fc7f505b2f371ae2175ee4913f4499e1f2633a7b5936321eed1cdaeb6115181d29060200160405180910390a15b505050505050565b6000806107ad6040518060600160405280603d8152602001611820603d913980516020918201208651878301516040808a01518051908601206060808c0151835197880196909652918601939093526001600160a01b0390911690840152608083015260a082015260c00160405160208183030381529060405280519060200120610cb4565b6000549091506107c7906001600160a01b03168285610ce7565b949350505050565b6040518060600160405280603d8152602001611820603d913981565b6107f3610a9f565b6001600160a01b03811661081d57604051631e4fbdf760e01b8152600060048201526024016103bf565b61082681610afa565b50565b60608147101561084e5760405163cd78605960e01b81523060048201526024016103bf565b600080856001600160a01b0316848660405161086a919061167b565b60006040518083038185875af1925050503d80600081146108a7576040519150601f19603f3d011682016040523d82523d6000602084013e6108ac565b606091505b50915091506108bc868383610d3f565b925050505b9392505050565b306001600160a01b037f000000000000000000000000000000000000000000000000000000000000000016148061096157507f00000000000000000000000000000000000000000000000000000000000000006001600160a01b03166109557f360894a13ba1a3210667c828492db98dca3e2076cc3735a920a3ca505d382bbc546001600160a01b031690565b6001600160a01b031614155b1561049e5760405163703e46dd60e11b815260040160405180910390fd5b610826610a9f565b816001600160a01b03166352d1902d6040518163ffffffff1660e01b8152600401602060405180830381865afa9250505080156109e1575060408051601f3d908101601f191682019092526109de91810190611697565b60015b610a0957604051634c9c8ce360e01b81526001600160a01b03831660048201526024016103bf565b7f360894a13ba1a3210667c828492db98dca3e2076cc3735a920a3ca505d382bbc8114610a4c57604051632a87526960e21b8152600481018290526024016103bf565b6104398383610d9b565b306001600160a01b037f0000000000000000000000000000000000000000000000000000000000000000161461049e5760405163703e46dd60e11b815260040160405180910390fd5b33610ad17f9016d09d72d40fdae2fd8ceac6b6234c7706214fd39c1cd1e609a0528c199300546001600160a01b031690565b6001600160a01b03161461049e5760405163118cdaa760e01b81523360048201526024016103bf565b7f9016d09d72d40fdae2fd8ceac6b6234c7706214fd39c1cd1e609a0528c19930080546001600160a01b031981166001600160a01b03848116918217845560405192169182907f8be0079c531659141344cd1fd0a4f28419497f9722a3daafe3b4186f6b6457e090600090a3505050565b7fa16a46d94261c7517cc8ff89f61c0ce93598e3c849801011dee649a6a557d10280546060917fa16a46d94261c7517cc8ff89f61c0ce93598e3c849801011dee649a6a557d10091610bbc906116b0565b80601f0160208091040260200160405190810160405280929190818152602001828054610be8906116b0565b8015610c355780601f10610c0a57610100808354040283529160200191610c35565b820191906000526020600020905b815481529060010190602001808311610c1857829003601f168201915b505050505091505090565b7fa16a46d94261c7517cc8ff89f61c0ce93598e3c849801011dee649a6a557d10380546060917fa16a46d94261c7517cc8ff89f61c0ce93598e3c849801011dee649a6a557d10091610bbc906116b0565b610c99610df1565b61082681610e3f565b610caa610df1565b6104598282610e47565b6000610ce1610cc1610eba565b8360405161190160f01b8152600281019290925260228201526042902090565b92915050565b6000806000610cf68585610ec9565b5090925090506000816003811115610d1057610d106116ea565b148015610d2e5750856001600160a01b0316826001600160a01b0316145b806108bc57506108bc868686610f16565b606082610d5457610d4f82611006565b6108c1565b8151158015610d6b57506001600160a01b0384163b155b15610d9457604051639996b31560e01b81526001600160a01b03851660048201526024016103bf565b50806108c1565b610da48261102f565b6040516001600160a01b038316907fbc7cd75a20ee27fd9adebab32041f755214dbc6bffa90cc0225b39da2e5c2d3b90600090a2805115610de95761043982826110a6565b61045961111c565b7ff0c57e16840df040f15088dc2f81fe391c3923bec73e23a9662efc9c229c6a005468010000000000000000900460ff1661049e57604051631afcd79f60e31b815260040160405180910390fd5b6107f3610df1565b610e4f610df1565b7fa16a46d94261c7517cc8ff89f61c0ce93598e3c849801011dee649a6a557d1007fa16a46d94261c7517cc8ff89f61c0ce93598e3c849801011dee649a6a557d102610e9b8482611746565b5060038101610eaa8382611746565b5060008082556001909101555050565b6000610ec461113b565b905090565b60008060008351604103610f035760208401516040850151606086015160001a610ef5888285856111af565b955095509550505050610f0f565b50508151600091506002905b9250925092565b6000806000856001600160a01b03168585604051602401610f38929190611806565b60408051601f198184030181529181526020820180517bffffffffffffffffffffffffffffffffffffffffffffffffffffffff16630b135d3f60e11b17905251610f82919061167b565b600060405180830381855afa9150503d8060008114610fbd576040519150601f19603f3d011682016040523d82523d6000602084013e610fc2565b606091505b5091509150818015610fd657506020815110155b80156108bc57508051630b135d3f60e11b90610ffb9083016020908101908401611697565b149695505050505050565b8051156110165780518082602001fd5b604051630a12f52160e11b815260040160405180910390fd5b806001600160a01b03163b60000361106557604051634c9c8ce360e01b81526001600160a01b03821660048201526024016103bf565b7f360894a13ba1a3210667c828492db98dca3e2076cc3735a920a3ca505d382bbc80546001600160a01b0319166001600160a01b0392909216919091179055565b6060600080846001600160a01b0316846040516110c3919061167b565b600060405180830381855af49150503d80600081146110fe576040519150601f19603f3d011682016040523d82523d6000602084013e611103565b606091505b5091509150611113858383610d3f565b95945050505050565b341561049e5760405163b398979f60e01b815260040160405180910390fd5b60007f8b73c3c69bb8fe3d512ecc4cf759cc79239f7b179b0ffacaa9a75d522b39400f61116661127e565b61116e6112fa565b60408051602081019490945283019190915260608201524660808201523060a082015260c00160405160208183030381529060405280519060200120905090565b600080807f7fffffffffffffffffffffffffffffff5d576e7357a4501ddfe92f46681b20a08411156111ea5750600091506003905082611274565b604080516000808252602082018084528a905260ff891692820192909252606081018790526080810186905260019060a0016020604051602081039080840390855afa15801561123e573d6000803e3d6000fd5b5050604051601f1901519150506001600160a01b03811661126a57506000925060019150829050611274565b9250600091508190505b9450945094915050565b60007fa16a46d94261c7517cc8ff89f61c0ce93598e3c849801011dee649a6a557d100816112aa610b6b565b8051909150156112c257805160209091012092915050565b815480156112d1579392505050565b7fc5d2460186f7233c927e7db2dcc703c0e500b653ca82273b7bfad8045d85a470935050505090565b60007fa16a46d94261c7517cc8ff89f61c0ce93598e3c849801011dee649a6a557d10081611326610c40565b80519091501561133e57805160209091012092915050565b600182015480156112d1579392505050565b634e487b7160e01b600052604160045260246000fd5b6040516080810167ffffffffffffffff8111828210171561138957611389611350565b60405290565b80356001600160a01b03811681146113a657600080fd5b919050565b600082601f8301126113bc57600080fd5b813567ffffffffffffffff808211156113d7576113d7611350565b604051601f8301601f19908116603f011681019082821181831017156113ff576113ff611350565b8160405283815286602085880101111561141857600080fd5b836020870160208301376000602085830101528094505050505092915050565b6000806040838503121561144b57600080fd5b823567ffffffffffffffff8082111561146357600080fd5b908401906080828703121561147757600080fd5b61147f611366565b8235815261148f6020840161138f565b60208201526040830135828111156114a657600080fd5b6114b2888286016113ab565b604083015250606083013560608201528094505060208501359150808211156114da57600080fd5b506114e7858286016113ab565b9150509250929050565b6000806040838503121561150457600080fd5b61150d8361138f565b9150602083013567ffffffffffffffff81111561152957600080fd5b6114e7858286016113ab565b60005b83811015611550578181015183820152602001611538565b50506000910152565b60008151808452611571816020860160208601611535565b601f01601f19169290920160200192915050565b60ff60f81b881681526000602060e0818401526115a560e084018a611559565b83810360408501526115b7818a611559565b606085018990526001600160a01b038816608086015260a0850187905284810360c0860152855180825283870192509083019060005b81811015611609578351835292840192918401916001016115ed565b50909c9b505050505050505050505050565b6020815260006108c16020830184611559565b60006020828403121561164057600080fd5b6108c18261138f565b6001600160a01b038416815260606020820152600061166b6060830185611559565b9050826040830152949350505050565b6000825161168d818460208701611535565b9190910192915050565b6000602082840312156116a957600080fd5b5051919050565b600181811c908216806116c457607f821691505b6020821081036116e457634e487b7160e01b600052602260045260246000fd5b50919050565b634e487b7160e01b600052602160045260246000fd5b601f82111561043957600081815260208120601f850160051c810160208610156117275750805b601f850160051c820191505b8181101561071f57828155600101611733565b815167ffffffffffffffff81111561176057611760611350565b6117748161176e84546116b0565b84611700565b602080601f8311600181146117a957600084156117915750858301515b600019600386901b1c1916600185901b17855561071f565b600085815260208120601f198616915b828110156117d8578886015182559484019460019091019084016117b9565b50858210156117f65787850151600019600388901b60f8161c191681555b5050505050600190811b01905550565b8281526040602082015260006107c7604083018461155956fe4d696e742875696e743235362074696d657374616d702c6164647265737320746f2c6279746573333220646174612c75696e743235362076616c756529a164736f6c6343000814000a",
  "linkReferences": {},
  "deployedLinkReferences": {}
}