{
  "_format": "hh-sol-artifact-1",
  "contractName": "GenericSigVerifier",
  "sourceName": "contracts/GenericSigVerifier.sol",
  "abi": [
    {
      "inputs": [
        {
          "internalType": "address",
          "name": "target",
          "type": "address"
        }
      ],
      "name": "AddressEmptyCode",
      "type": "error"
    },
    {
      "inputs": [
        {
          "internalType": "address",
          "name": "account",
          "type": "address"
        }
      ],
      "name": "AddressInsufficientBalance",
      "type": "error"
    },
    {
      "inputs": [
        {
          "internalType": "address",
          "name": "implementation",
          "type": "address"
        }
      ],
      "name": "ERC1967InvalidImplementation",
      "type": "error"
    },
    {
      "inputs": [],
      "name": "ERC1967NonPayable",
      "type": "error"
    },
    {
      "inputs": [],
      "name": "FailedInnerCall",
      "type": "error"
    },
    {
      "inputs": [],
      "name": "InvalidInitialization",
      "type": "error"
    },
    {
      "inputs": [],
      "name": "NotInitializing",
      "type": "error"
    },
    {
      "inputs": [
        {
          "internalType": "address",
          "name": "owner",
          "type": "address"
        }
      ],
      "name": "OwnableInvalidOwner",
      "type": "error"
    },
    {
      "inputs": [
        {
          "internalType": "address",
          "name": "account",
          "type": "address"
        }
      ],
      "name": "OwnableUnauthorizedAccount",
      "type": "error"
    },
    {
      "inputs": [],
      "name": "UUPSUnauthorizedCallContext",
      "type": "error"
    },
    {
      "inputs": [
        {
          "internalType": "bytes32",
          "name": "slot",
          "type": "bytes32"
        }
      ],
      "name": "UUPSUnsupportedProxiableUUID",
      "type": "error"
    },
    {
      "anonymous": false,
      "inputs": [],
      "name": "EIP712DomainChanged",
      "type": "event"
    },
    {
      "anonymous": false,
      "inputs": [
        {
          "indexed": false,
          "internalType": "address",
          "name": "to",
          "type": "address"
        },
        {
          "indexed": false,
          "internalType": "bytes",
          "name": "data",
          "type": "bytes"
        },
        {
          "indexed": false,
          "internalType": "uint256",
          "name": "value",
          "type": "uint256"
        }
      ],
      "name": "Execute",
      "type": "event"
    },
    {
      "anonymous": false,
      "inputs": [
        {
          "indexed": false,
          "internalType": "uint64",
          "name": "version",
          "type": "uint64"
        }
      ],
      "name": "Initialized",
      "type": "event"
    },
    {
      "anonymous": false,
      "inputs": [
        {
          "indexed": true,
          "internalType": "address",
          "name": "previousOwner",
          "type": "address"
        },
        {
          "indexed": true,
          "internalType": "address",
          "name": "newOwner",
          "type": "address"
        }
      ],
      "name": "OwnershipTransferred",
      "type": "event"
    },
    {
      "anonymous": false,
      "inputs": [
        {
          "indexed": true,
          "internalType": "address",
          "name": "implementation",
          "type": "address"
        }
      ],
      "name": "Upgraded",
      "type": "event"
    },
    {
      "inputs": [],
      "name": "MESSAGE_TYPE",
      "outputs": [
        {
          "internalType": "string",
          "name": "",
          "type": "string"
        }
      ],
      "stateMutability": "view",
      "type": "function"
    },
    {
      "inputs": [],
      "name": "NAME",
      "outputs": [
        {
          "internalType": "string",
          "name": "",
          "type": "string"
        }
      ],
      "stateMutability": "view",
      "type": "function"
    },
    {
      "inputs": [],
      "name": "UPGRADE_INTERFACE_VERSION",
      "outputs": [
        {
          "internalType": "string",
          "name": "",
          "type": "string"
        }
      ],
      "stateMutability": "view",
      "type": "function"
    },
    {
      "inputs": [],
      "name": "VERSION",
      "outputs": [
        {
          "internalType": "string",
          "name": "",
          "type": "string"
        }
      ],
      "stateMutability": "view",
      "type": "function"
    },
    {
      "inputs": [],
      "name": "eip712Domain",
      "outputs": [
        {
          "internalType": "bytes1",
          "name": "fields",
          "type": "bytes1"
        },
        {
          "internalType": "string",
          "name": "name",
          "type": "string"
        },
        {
          "internalType": "string",
          "name": "version",
          "type": "string"
        },
        {
          "internalType": "uint256",
          "name": "chainId",
          "type": "uint256"
        },
        {
          "internalType": "address",
          "name": "verifyingContract",
          "type": "address"
        },
        {
          "internalType": "bytes32",
          "name": "salt",
          "type": "bytes32"
        },
        {
          "internalType": "uint256[]",
          "name": "extensions",
          "type": "uint256[]"
        }
      ],
      "stateMutability": "view",
      "type": "function"
    },
    {
      "inputs": [
        {
          "components": [
            {
              "internalType": "uint256",
              "name": "timestamp",
              "type": "uint256"
            },
            {
              "internalType": "address",
              "name": "to",
              "type": "address"
            },
            {
              "internalType": "bytes",
              "name": "data",
              "type": "bytes"
            },
            {
              "internalType": "uint256",
              "name": "value",
              "type": "uint256"
            }
          ],
          "internalType": "struct GenericSigVerifier.Mint",
          "name": "mint",
          "type": "tuple"
        },
        {
          "internalType": "bytes",
          "name": "signature",
          "type": "bytes"
        }
      ],
      "name": "execute",
      "outputs": [],
      "stateMutability": "nonpayable",
      "type": "function"
    },
    {
      "inputs": [
        {
          "components": [
            {
              "internalType": "uint256",
              "name": "timestamp",
              "type": "uint256"
            },
            {
              "internalType": "address",
              "name": "to",
              "type": "address"
            },
            {
              "internalType": "bytes",
              "name": "data",
              "type": "bytes"
            },
            {
              "internalType": "uint256",
              "name": "value",
              "type": "uint256"
            }
          ],
          "internalType": "struct GenericSigVerifier.Mint",
          "name": "mint",
          "type": "tuple"
        }
      ],
      "name": "getDigest",
      "outputs": [
        {
          "internalType": "bytes32",
          "name": "",
          "type": "bytes32"
        }
      ],
      "stateMutability": "view",
      "type": "function"
    },
    {
      "inputs": [
        {
          "internalType": "address",
          "name": "_signer",
          "type": "address"
        }
      ],
      "name": "initialize",
      "outputs": [],
      "stateMutability": "nonpayable",
      "type": "function"
    },
    {
      "inputs": [],
      "name": "owner",
      "outputs": [
        {
          "internalType": "address",
          "name": "",
          "type": "address"
        }
      ],
      "stateMutability": "view",
      "type": "function"
    },
    {
      "inputs": [],
      "name": "proxiableUUID",
      "outputs": [
        {
          "internalType": "bytes32",
          "name": "",
          "type": "bytes32"
        }
      ],
      "stateMutability": "view",
      "type": "function"
    },
    {
      "inputs": [],
      "name": "renounceOwnership",
      "outputs": [],
      "stateMutability": "nonpayable",
      "type": "function"
    },
    {
      "inputs": [],
      "name": "signer",
      "outputs": [
        {
          "internalType": "address",
          "name": "",
          "type": "address"
        }
      ],
      "stateMutability": "view",
      "type": "function"
    },
    {
      "inputs": [
        {
          "internalType": "address",
          "name": "newOwner",
          "type": "address"
        }
      ],
      "name": "transferOwnership",
      "outputs": [],
      "stateMutability": "nonpayable",
      "type": "function"
    },
    {
      "inputs": [
        {
          "internalType": "address",
          "name": "_newSigner",
          "type": "address"
        }
      ],
      "name": "updateSigner",
      "outputs": [],
      "stateMutability": "nonpayable",
      "type": "function"
    },
    {
      "inputs": [
        {
          "internalType": "address",
          "name": "newImplementation",
          "type": "address"
        },
        {
          "internalType": "bytes",
          "name": "data",
          "type": "bytes"
        }
      ],
      "name": "upgradeToAndCall",
      "outputs": [],
      "stateMutability": "payable",
      "type": "function"
    },
    {
      "inputs": [
        {
          "internalType": "bytes32",
          "name": "",
          "type": "bytes32"
        }
      ],
      "name": "usedSigs",
      "outputs": [
        {
          "internalType": "bool",
          "name": "",
          "type": "bool"
        }
      ],
      "stateMutability": "view",
      "type": "function"
    },
    {
      "inputs": [
        {
          "components": [
            {
              "internalType": "uint256",
              "name": "timestamp",
              "type": "uint256"
            },
            {
              "internalType": "address",
              "name": "to",
              "type": "address"
            },
            {
              "internalType": "bytes",
              "name": "data",
              "type": "bytes"
            },
            {
              "internalType": "uint256",
              "name": "value",
              "type": "uint256"
            }
          ],
          "internalType": "struct GenericSigVerifier.Mint",
          "name": "mint",
          "type": "tuple"
        },
        {
          "internalType": "bytes",
          "name": "signature",
          "type": "bytes"
        }
      ],
      "name": "verify",
      "outputs": [
        {
          "internalType": "bool",
          "name": "",
          "type": "bool"
        }
      ],
      "stateMutability": "view",
      "type": "function"
    },
    {
      "inputs": [
        {
          "internalType": "bytes32",
          "name": "digest",
          "type": "bytes32"
        },
        {
          "internalType": "bytes",
          "name": "signature",
          "type": "bytes"
        }
      ],
      "name": "verifyDigest",
      "outputs": [
        {
          "internalType": "bool",
          "name": "",
          "type": "bool"
        }
      ],
      "stateMutability": "view",
      "type": "function"
    }
  ],
  "bytecode": "0x60a06040523060805234801561001457600080fd5b50608051611a2d61003e60003960008181610a3a01528181610a630152610bcd0152611a2d6000f3fe6080604052600436106101295760003560e01c8063a3f4df7e116100a5578063c82e824511610074578063e8a32a8c11610059578063e8a32a8c146103b1578063f2fde38b146103d1578063ffa1ad74146103f157600080fd5b8063c82e82451461037c578063dba710581461039c57600080fd5b8063a3f4df7e1461029d578063a7ecd37e146102f3578063ad3cb1cc14610313578063c4d66de81461035c57600080fd5b806352d1902d116100fc57806384b0196e116100e157806384b0196e146101f85780638da5cb5b146102205780639e3b71aa1461025d57600080fd5b806352d1902d146101ce578063715018a6146101e357600080fd5b80631eedb6071461012e578063238ac93314610150578063290d75001461018d5780634f1ef286146101bb575b600080fd5b34801561013a57600080fd5b5061014e6101493660046115d2565b61041e565b005b34801561015c57600080fd5b50600054610170906001600160a01b031681565b6040516001600160a01b0390911681526020015b60405180910390f35b34801561019957600080fd5b506101ad6101a8366004611636565b610514565b604051908152602001610184565b61014e6101c936600461166b565b61059f565b3480156101da57600080fd5b506101ad6105be565b3480156101ef57600080fd5b5061014e6105ed565b34801561020457600080fd5b5061020d610601565b60405161018497969594939291906116ff565b34801561022c57600080fd5b507f9016d09d72d40fdae2fd8ceac6b6234c7706214fd39c1cd1e609a0528c199300546001600160a01b0316610170565b34801561026957600080fd5b5061028d610278366004611795565b60016020526000908152604090205460ff1681565b6040519015158152602001610184565b3480156102a957600080fd5b506102e66040518060400160405280601e81526020017f456e646572732047617465205369676e6174757265205665726966696572000081525081565b60405161018491906117ae565b3480156102ff57600080fd5b5061014e61030e3660046117c1565b6106c7565b34801561031f57600080fd5b506102e66040518060400160405280600581526020017f352e302e3000000000000000000000000000000000000000000000000000000081525081565b34801561036857600080fd5b5061014e6103773660046117c1565b6106f1565b34801561038857600080fd5b5061028d6103973660046115d2565b610888565b3480156103a857600080fd5b506102e66108d1565b3480156103bd57600080fd5b5061028d6103cc3660046117dc565b6108ed565b3480156103dd57600080fd5b5061014e6103ec3660046117c1565b610927565b3480156103fd57600080fd5b506102e6604051806040016040528060018152602001603160f81b81525081565b600061042983610514565b905061043581836108ed565b6104865760405162461bcd60e51b815260206004820152601d60248201527f47656e6572696353696756657269666965723a2077726f6e672073696700000060448201526064015b60405180910390fd5b7f46e0076d5a064cdc22b7e000423513557b99ad0745646b541caa3a4122b1e5f28360200151846040015185606001516040516104c59392919061180d565b60405180910390a1600081815260016020818152604092839020805460ff19169092179091559084015160608501519185015161050e926001600160a01b039091169190610965565b50505050565b60006105996040518060600160405280603d81526020016119e4603d913980516020918201208451858301516040808801518051908601206060808a0151835197880196909652918601939093526001600160a01b0390911690840152608083015260a082015260c00160405160208183030381529060405280519060200120610a02565b92915050565b6105a7610a2f565b6105b082610ae6565b6105ba8282610aee565b5050565b60006105c8610bc2565b507f360894a13ba1a3210667c828492db98dca3e2076cc3735a920a3ca505d382bbc90565b6105f5610c0b565b6105ff6000610c66565b565b600060608082808083817fa16a46d94261c7517cc8ff89f61c0ce93598e3c849801011dee649a6a557d100805490915015801561064057506001810154155b61068c5760405162461bcd60e51b815260206004820152601560248201527f4549503731323a20556e696e697469616c697a65640000000000000000000000604482015260640161047d565b610694610cd7565b61069c610dac565b60408051600080825260208201909252600f60f81b9c939b5091995046985030975095509350915050565b6106cf610c0b565b600080546001600160a01b0319166001600160a01b0392909216919091179055565b7ff0c57e16840df040f15088dc2f81fe391c3923bec73e23a9662efc9c229c6a00805468010000000000000000810460ff16159067ffffffffffffffff1660008115801561073c5750825b905060008267ffffffffffffffff1660011480156107595750303b155b905081158015610767575080155b156107855760405163f92ee8a960e01b815260040160405180910390fd5b845467ffffffffffffffff1916600117855583156107b957845468ff00000000000000001916680100000000000000001785555b6107c233610dfd565b61081a6040518060400160405280601e81526020017f456e646572732047617465205369676e61747572652056657269666965720000815250604051806040016040528060018152602001603160f81b815250610e0e565b600080546001600160a01b0319166001600160a01b038816179055831561088057845468ff000000000000000019168555604051600181527fc7f505b2f371ae2175ee4913f4499e1f2633a7b5936321eed1cdaeb6115181d29060200160405180910390a15b505050505050565b60008061089484610514565b6000549091506108ae906001600160a01b03168285610e20565b80156108c9575060008181526001602052604090205460ff16155b949350505050565b6040518060600160405280603d81526020016119e4603d913981565b60008054610905906001600160a01b03168484610e20565b8015610920575060008381526001602052604090205460ff16155b9392505050565b61092f610c0b565b6001600160a01b03811661095957604051631e4fbdf760e01b81526000600482015260240161047d565b61096281610c66565b50565b60608147101561098a5760405163cd78605960e01b815230600482015260240161047d565b600080856001600160a01b031684866040516109a6919061183f565b60006040518083038185875af1925050503d80600081146109e3576040519150601f19603f3d011682016040523d82523d6000602084013e6109e8565b606091505b50915091506109f8868383610e78565b9695505050505050565b6000610599610a0f610ed4565b8360405161190160f01b8152600281019290925260228201526042902090565b306001600160a01b037f0000000000000000000000000000000000000000000000000000000000000000161480610ac857507f00000000000000000000000000000000000000000000000000000000000000006001600160a01b0316610abc7f360894a13ba1a3210667c828492db98dca3e2076cc3735a920a3ca505d382bbc546001600160a01b031690565b6001600160a01b031614155b156105ff5760405163703e46dd60e11b815260040160405180910390fd5b610962610c0b565b816001600160a01b03166352d1902d6040518163ffffffff1660e01b8152600401602060405180830381865afa925050508015610b48575060408051601f3d908101601f19168201909252610b459181019061185b565b60015b610b7057604051634c9c8ce360e01b81526001600160a01b038316600482015260240161047d565b7f360894a13ba1a3210667c828492db98dca3e2076cc3735a920a3ca505d382bbc8114610bb357604051632a87526960e21b81526004810182905260240161047d565b610bbd8383610ee3565b505050565b306001600160a01b037f000000000000000000000000000000000000000000000000000000000000000016146105ff5760405163703e46dd60e11b815260040160405180910390fd5b33610c3d7f9016d09d72d40fdae2fd8ceac6b6234c7706214fd39c1cd1e609a0528c199300546001600160a01b031690565b6001600160a01b0316146105ff5760405163118cdaa760e01b815233600482015260240161047d565b7f9016d09d72d40fdae2fd8ceac6b6234c7706214fd39c1cd1e609a0528c19930080546001600160a01b031981166001600160a01b03848116918217845560405192169182907f8be0079c531659141344cd1fd0a4f28419497f9722a3daafe3b4186f6b6457e090600090a3505050565b7fa16a46d94261c7517cc8ff89f61c0ce93598e3c849801011dee649a6a557d10280546060917fa16a46d94261c7517cc8ff89f61c0ce93598e3c849801011dee649a6a557d10091610d2890611874565b80601f0160208091040260200160405190810160405280929190818152602001828054610d5490611874565b8015610da15780601f10610d7657610100808354040283529160200191610da1565b820191906000526020600020905b815481529060010190602001808311610d8457829003601f168201915b505050505091505090565b7fa16a46d94261c7517cc8ff89f61c0ce93598e3c849801011dee649a6a557d10380546060917fa16a46d94261c7517cc8ff89f61c0ce93598e3c849801011dee649a6a557d10091610d2890611874565b610e05610f39565b61096281610f87565b610e16610f39565b6105ba8282610f8f565b6000806000610e2f8585611002565b5090925090506000816003811115610e4957610e496118ae565b148015610e675750856001600160a01b0316826001600160a01b0316145b806109f857506109f886868661104f565b606082610e8d57610e888261113f565b610920565b8151158015610ea457506001600160a01b0384163b155b15610ecd57604051639996b31560e01b81526001600160a01b038516600482015260240161047d565b5080610920565b6000610ede611168565b905090565b610eec826111dc565b6040516001600160a01b038316907fbc7cd75a20ee27fd9adebab32041f755214dbc6bffa90cc0225b39da2e5c2d3b90600090a2805115610f3157610bbd8282611253565b6105ba6112c9565b7ff0c57e16840df040f15088dc2f81fe391c3923bec73e23a9662efc9c229c6a005468010000000000000000900460ff166105ff57604051631afcd79f60e31b815260040160405180910390fd5b61092f610f39565b610f97610f39565b7fa16a46d94261c7517cc8ff89f61c0ce93598e3c849801011dee649a6a557d1007fa16a46d94261c7517cc8ff89f61c0ce93598e3c849801011dee649a6a557d102610fe3848261190a565b5060038101610ff2838261190a565b5060008082556001909101555050565b6000806000835160410361103c5760208401516040850151606086015160001a61102e888285856112e8565b955095509550505050611048565b50508151600091506002905b9250925092565b6000806000856001600160a01b031685856040516024016110719291906119ca565b60408051601f198184030181529181526020820180517bffffffffffffffffffffffffffffffffffffffffffffffffffffffff16630b135d3f60e11b179052516110bb919061183f565b600060405180830381855afa9150503d80600081146110f6576040519150601f19603f3d011682016040523d82523d6000602084013e6110fb565b606091505b509150915081801561110f57506020815110155b80156109f857508051630b135d3f60e11b90611134908301602090810190840161185b565b149695505050505050565b80511561114f5780518082602001fd5b604051630a12f52160e11b815260040160405180910390fd5b60007f8b73c3c69bb8fe3d512ecc4cf759cc79239f7b179b0ffacaa9a75d522b39400f6111936113b7565b61119b611433565b60408051602081019490945283019190915260608201524660808201523060a082015260c00160405160208183030381529060405280519060200120905090565b806001600160a01b03163b60000361121257604051634c9c8ce360e01b81526001600160a01b038216600482015260240161047d565b7f360894a13ba1a3210667c828492db98dca3e2076cc3735a920a3ca505d382bbc80546001600160a01b0319166001600160a01b0392909216919091179055565b6060600080846001600160a01b031684604051611270919061183f565b600060405180830381855af49150503d80600081146112ab576040519150601f19603f3d011682016040523d82523d6000602084013e6112b0565b606091505b50915091506112c0858383610e78565b95945050505050565b34156105ff5760405163b398979f60e01b815260040160405180910390fd5b600080807f7fffffffffffffffffffffffffffffff5d576e7357a4501ddfe92f46681b20a084111561132357506000915060039050826113ad565b604080516000808252602082018084528a905260ff891692820192909252606081018790526080810186905260019060a0016020604051602081039080840390855afa158015611377573d6000803e3d6000fd5b5050604051601f1901519150506001600160a01b0381166113a3575060009250600191508290506113ad565b9250600091508190505b9450945094915050565b60007fa16a46d94261c7517cc8ff89f61c0ce93598e3c849801011dee649a6a557d100816113e3610cd7565b8051909150156113fb57805160209091012092915050565b8154801561140a579392505050565b7fc5d2460186f7233c927e7db2dcc703c0e500b653ca82273b7bfad8045d85a470935050505090565b60007fa16a46d94261c7517cc8ff89f61c0ce93598e3c849801011dee649a6a557d1008161145f610dac565b80519091501561147757805160209091012092915050565b6001820154801561140a579392505050565b634e487b7160e01b600052604160045260246000fd5b80356001600160a01b03811681146114b657600080fd5b919050565b600082601f8301126114cc57600080fd5b813567ffffffffffffffff808211156114e7576114e7611489565b604051601f8301601f19908116603f0116810190828211818310171561150f5761150f611489565b8160405283815286602085880101111561152857600080fd5b836020870160208301376000602085830101528094505050505092915050565b60006080828403121561155a57600080fd5b6040516080810167ffffffffffffffff828210818311171561157e5761157e611489565b81604052829350843583526115956020860161149f565b602084015260408501359150808211156115ae57600080fd5b506115bb858286016114bb565b604083015250606083013560608201525092915050565b600080604083850312156115e557600080fd5b823567ffffffffffffffff808211156115fd57600080fd5b61160986838701611548565b9350602085013591508082111561161f57600080fd5b5061162c858286016114bb565b9150509250929050565b60006020828403121561164857600080fd5b813567ffffffffffffffff81111561165f57600080fd5b6108c984828501611548565b6000806040838503121561167e57600080fd5b6116878361149f565b9150602083013567ffffffffffffffff8111156116a357600080fd5b61162c858286016114bb565b60005b838110156116ca5781810151838201526020016116b2565b50506000910152565b600081518084526116eb8160208601602086016116af565b601f01601f19169290920160200192915050565b60ff60f81b881681526000602060e08184015261171f60e084018a6116d3565b8381036040850152611731818a6116d3565b606085018990526001600160a01b038816608086015260a0850187905284810360c0860152855180825283870192509083019060005b8181101561178357835183529284019291840191600101611767565b50909c9b505050505050505050505050565b6000602082840312156117a757600080fd5b5035919050565b60208152600061092060208301846116d3565b6000602082840312156117d357600080fd5b6109208261149f565b600080604083850312156117ef57600080fd5b82359150602083013567ffffffffffffffff8111156116a357600080fd5b6001600160a01b038416815260606020820152600061182f60608301856116d3565b9050826040830152949350505050565b600082516118518184602087016116af565b9190910192915050565b60006020828403121561186d57600080fd5b5051919050565b600181811c9082168061188857607f821691505b6020821081036118a857634e487b7160e01b600052602260045260246000fd5b50919050565b634e487b7160e01b600052602160045260246000fd5b601f821115610bbd57600081815260208120601f850160051c810160208610156118eb5750805b601f850160051c820191505b81811015610880578281556001016118f7565b815167ffffffffffffffff81111561192457611924611489565b611938816119328454611874565b846118c4565b602080601f83116001811461196d57600084156119555750858301515b600019600386901b1c1916600185901b178555610880565b600085815260208120601f198616915b8281101561199c5788860151825594840194600190910190840161197d565b50858210156119ba5787850151600019600388901b60f8161c191681555b5050505050600190811b01905550565b8281526040602082015260006108c960408301846116d356fe4d696e742875696e743235362074696d657374616d702c6164647265737320746f2c6279746573333220646174612c75696e743235362076616c756529a164736f6c6343000814000a",
  "linkReferences": {},
  "deployedLinkReferences": {}
}