{
  "_format": "hh-sol-artifact-1",
  "contractName": "EndersRentNative",
  "sourceName": "contracts/Rent/RentNativeTokens.sol",
  "abi": [
    {
      "inputs": [
        {
          "internalType": "address",
          "name": "_feeReceiver",
          "type": "address"
        },
        {
          "internalType": "uint256",
          "name": "_ownerCut",
          "type": "uint256"
        }
      ],
      "stateMutability": "nonpayable",
      "type": "constructor"
    },
    {
      "anonymous": false,
      "inputs": [
        {
          "indexed": true,
          "internalType": "address",
          "name": "account",
          "type": "address"
        },
        {
          "indexed": true,
          "internalType": "address",
          "name": "operator",
          "type": "address"
        },
        {
          "indexed": false,
          "internalType": "bool",
          "name": "approved",
          "type": "bool"
        }
      ],
      "name": "ApprovalForAll",
      "type": "event"
    },
    {
      "anonymous": false,
      "inputs": [
        {
          "indexed": false,
          "internalType": "address",
          "name": "newReceiver",
          "type": "address"
        }
      ],
      "name": "ChangedFeeReceiver",
      "type": "event"
    },
    {
      "anonymous": false,
      "inputs": [
        {
          "indexed": true,
          "internalType": "address",
          "name": "previousOwner",
          "type": "address"
        },
        {
          "indexed": true,
          "internalType": "address",
          "name": "newOwner",
          "type": "address"
        }
      ],
      "name": "OwnershipTransferred",
      "type": "event"
    },
    {
      "anonymous": false,
      "inputs": [
        {
          "indexed": false,
          "internalType": "address",
          "name": "account",
          "type": "address"
        }
      ],
      "name": "Paused",
      "type": "event"
    },
    {
      "anonymous": false,
      "inputs": [
        {
          "indexed": true,
          "internalType": "uint256",
          "name": "_rentId",
          "type": "uint256"
        }
      ],
      "name": "RentAuctionCancelled",
      "type": "event"
    },
    {
      "anonymous": false,
      "inputs": [
        {
          "indexed": true,
          "internalType": "uint256",
          "name": "_rentId",
          "type": "uint256"
        },
        {
          "indexed": false,
          "internalType": "address",
          "name": "_nft",
          "type": "address"
        },
        {
          "indexed": false,
          "internalType": "uint256",
          "name": "_nftId",
          "type": "uint256"
        },
        {
          "indexed": false,
          "internalType": "uint256",
          "name": "priceUSD",
          "type": "uint256"
        },
        {
          "indexed": false,
          "internalType": "uint256",
          "name": "_startedAt",
          "type": "uint256"
        },
        {
          "indexed": false,
          "internalType": "address",
          "name": "_seller",
          "type": "address"
        }
      ],
      "name": "RentAuctionCreated",
      "type": "event"
    },
    {
      "anonymous": false,
      "inputs": [
        {
          "indexed": true,
          "internalType": "uint256",
          "name": "_rentId",
          "type": "uint256"
        },
        {
          "indexed": false,
          "internalType": "address",
          "name": "_seller",
          "type": "address"
        },
        {
          "indexed": false,
          "internalType": "address",
          "name": "_buyer",
          "type": "address"
        }
      ],
      "name": "RentedEnd",
      "type": "event"
    },
    {
      "anonymous": false,
      "inputs": [
        {
          "indexed": true,
          "internalType": "uint256",
          "name": "_rentId",
          "type": "uint256"
        },
        {
          "indexed": false,
          "internalType": "address",
          "name": "_buyer",
          "type": "address"
        },
        {
          "indexed": false,
          "internalType": "uint256",
          "name": "_cost",
          "type": "uint256"
        },
        {
          "indexed": false,
          "internalType": "uint256",
          "name": "_daysToRent",
          "type": "uint256"
        },
        {
          "indexed": false,
          "internalType": "uint256",
          "name": "_startedAt",
          "type": "uint256"
        }
      ],
      "name": "RentedSuccessful",
      "type": "event"
    },
    {
      "anonymous": false,
      "inputs": [
        {
          "indexed": true,
          "internalType": "address",
          "name": "operator",
          "type": "address"
        },
        {
          "indexed": true,
          "internalType": "address",
          "name": "from",
          "type": "address"
        },
        {
          "indexed": true,
          "internalType": "address",
          "name": "to",
          "type": "address"
        },
        {
          "indexed": false,
          "internalType": "uint256[]",
          "name": "ids",
          "type": "uint256[]"
        },
        {
          "indexed": false,
          "internalType": "uint256[]",
          "name": "values",
          "type": "uint256[]"
        }
      ],
      "name": "TransferBatch",
      "type": "event"
    },
    {
      "anonymous": false,
      "inputs": [
        {
          "indexed": true,
          "internalType": "address",
          "name": "operator",
          "type": "address"
        },
        {
          "indexed": true,
          "internalType": "address",
          "name": "from",
          "type": "address"
        },
        {
          "indexed": true,
          "internalType": "address",
          "name": "to",
          "type": "address"
        },
        {
          "indexed": false,
          "internalType": "uint256",
          "name": "id",
          "type": "uint256"
        },
        {
          "indexed": false,
          "internalType": "uint256",
          "name": "value",
          "type": "uint256"
        }
      ],
      "name": "TransferSingle",
      "type": "event"
    },
    {
      "anonymous": false,
      "inputs": [
        {
          "indexed": false,
          "internalType": "string",
          "name": "value",
          "type": "string"
        },
        {
          "indexed": true,
          "internalType": "uint256",
          "name": "id",
          "type": "uint256"
        }
      ],
      "name": "URI",
      "type": "event"
    },
    {
      "anonymous": false,
      "inputs": [
        {
          "indexed": false,
          "internalType": "address",
          "name": "account",
          "type": "address"
        }
      ],
      "name": "Unpaused",
      "type": "event"
    },
    {
      "inputs": [
        {
          "internalType": "address",
          "name": "account",
          "type": "address"
        },
        {
          "internalType": "uint256",
          "name": "id",
          "type": "uint256"
        }
      ],
      "name": "balanceOf",
      "outputs": [
        {
          "internalType": "uint256",
          "name": "",
          "type": "uint256"
        }
      ],
      "stateMutability": "view",
      "type": "function"
    },
    {
      "inputs": [
        {
          "internalType": "address[]",
          "name": "accounts",
          "type": "address[]"
        },
        {
          "internalType": "uint256[]",
          "name": "ids",
          "type": "uint256[]"
        }
      ],
      "name": "balanceOfBatch",
      "outputs": [
        {
          "internalType": "uint256[]",
          "name": "",
          "type": "uint256[]"
        }
      ],
      "stateMutability": "view",
      "type": "function"
    },
    {
      "inputs": [
        {
          "internalType": "uint256",
          "name": "rentId",
          "type": "uint256"
        }
      ],
      "name": "cancelRent",
      "outputs": [],
      "stateMutability": "nonpayable",
      "type": "function"
    },
    {
      "inputs": [
        {
          "internalType": "address",
          "name": "_nftAddress",
          "type": "address"
        },
        {
          "internalType": "uint256",
          "name": "_tokenId",
          "type": "uint256"
        },
        {
          "internalType": "uint256",
          "name": "_price",
          "type": "uint256"
        }
      ],
      "name": "createRent",
      "outputs": [],
      "stateMutability": "nonpayable",
      "type": "function"
    },
    {
      "inputs": [
        {
          "internalType": "uint256",
          "name": "amount",
          "type": "uint256"
        },
        {
          "internalType": "address",
          "name": "token",
          "type": "address"
        },
        {
          "internalType": "address",
          "name": "recipient",
          "type": "address"
        }
      ],
      "name": "emergencyWithdraw",
      "outputs": [],
      "stateMutability": "nonpayable",
      "type": "function"
    },
    {
      "inputs": [],
      "name": "feeReceiver",
      "outputs": [
        {
          "internalType": "address",
          "name": "",
          "type": "address"
        }
      ],
      "stateMutability": "view",
      "type": "function"
    },
    {
      "inputs": [],
      "name": "genesisBlock",
      "outputs": [
        {
          "internalType": "uint256",
          "name": "",
          "type": "uint256"
        }
      ],
      "stateMutability": "view",
      "type": "function"
    },
    {
      "inputs": [
        {
          "internalType": "uint256[]",
          "name": "rentIds",
          "type": "uint256[]"
        }
      ],
      "name": "getRents",
      "outputs": [
        {
          "components": [
            {
              "internalType": "address",
              "name": "seller",
              "type": "address"
            },
            {
              "internalType": "address",
              "name": "buyer",
              "type": "address"
            },
            {
              "internalType": "address",
              "name": "nft",
              "type": "address"
            },
            {
              "internalType": "uint256",
              "name": "nftId",
              "type": "uint256"
            },
            {
              "internalType": "uint256",
              "name": "amount",
              "type": "uint256"
            },
            {
              "internalType": "uint256",
              "name": "price",
              "type": "uint256"
            },
            {
              "internalType": "uint256",
              "name": "duration",
              "type": "uint256"
            },
            {
              "internalType": "uint256",
              "name": "startedAt",
              "type": "uint256"
            },
            {
              "internalType": "enum EndersRentNative.SaleStatus",
              "name": "status",
              "type": "uint8"
            }
          ],
          "internalType": "struct EndersRentNative.Rent[]",
          "name": "",
          "type": "tuple[]"
        }
      ],
      "stateMutability": "view",
      "type": "function"
    },
    {
      "inputs": [
        {
          "internalType": "uint256",
          "name": "",
          "type": "uint256"
        }
      ],
      "name": "ipfsURIs",
      "outputs": [
        {
          "internalType": "string",
          "name": "",
          "type": "string"
        }
      ],
      "stateMutability": "view",
      "type": "function"
    },
    {
      "inputs": [
        {
          "internalType": "address",
          "name": "",
          "type": "address"
        }
      ],
      "name": "isAllowed",
      "outputs": [
        {
          "internalType": "bool",
          "name": "",
          "type": "bool"
        }
      ],
      "stateMutability": "view",
      "type": "function"
    },
    {
      "inputs": [
        {
          "internalType": "address",
          "name": "account",
          "type": "address"
        },
        {
          "internalType": "address",
          "name": "operator",
          "type": "address"
        }
      ],
      "name": "isApprovedForAll",
      "outputs": [
        {
          "internalType": "bool",
          "name": "",
          "type": "bool"
        }
      ],
      "stateMutability": "view",
      "type": "function"
    },
    {
      "inputs": [
        {
          "internalType": "uint256",
          "name": "rentId",
          "type": "uint256"
        }
      ],
      "name": "isOnSale",
      "outputs": [
        {
          "internalType": "bool",
          "name": "",
          "type": "bool"
        }
      ],
      "stateMutability": "view",
      "type": "function"
    },
    {
      "inputs": [
        {
          "internalType": "address",
          "name": "",
          "type": "address"
        },
        {
          "internalType": "address",
          "name": "",
          "type": "address"
        },
        {
          "internalType": "uint256[]",
          "name": "",
          "type": "uint256[]"
        },
        {
          "internalType": "uint256[]",
          "name": "",
          "type": "uint256[]"
        },
        {
          "internalType": "bytes",
          "name": "",
          "type": "bytes"
        }
      ],
      "name": "onERC1155BatchReceived",
      "outputs": [
        {
          "internalType": "bytes4",
          "name": "",
          "type": "bytes4"
        }
      ],
      "stateMutability": "nonpayable",
      "type": "function"
    },
    {
      "inputs": [
        {
          "internalType": "address",
          "name": "",
          "type": "address"
        },
        {
          "internalType": "address",
          "name": "",
          "type": "address"
        },
        {
          "internalType": "uint256",
          "name": "",
          "type": "uint256"
        },
        {
          "internalType": "uint256",
          "name": "",
          "type": "uint256"
        },
        {
          "internalType": "bytes",
          "name": "",
          "type": "bytes"
        }
      ],
      "name": "onERC1155Received",
      "outputs": [
        {
          "internalType": "bytes4",
          "name": "",
          "type": "bytes4"
        }
      ],
      "stateMutability": "nonpayable",
      "type": "function"
    },
    {
      "inputs": [],
      "name": "owner",
      "outputs": [
        {
          "internalType": "address",
          "name": "",
          "type": "address"
        }
      ],
      "stateMutability": "view",
      "type": "function"
    },
    {
      "inputs": [],
      "name": "ownerCut",
      "outputs": [
        {
          "internalType": "uint256",
          "name": "",
          "type": "uint256"
        }
      ],
      "stateMutability": "view",
      "type": "function"
    },
    {
      "inputs": [],
      "name": "paused",
      "outputs": [
        {
          "internalType": "bool",
          "name": "",
          "type": "bool"
        }
      ],
      "stateMutability": "view",
      "type": "function"
    },
    {
      "inputs": [
        {
          "internalType": "uint256",
          "name": "rentId",
          "type": "uint256"
        }
      ],
      "name": "redeemRent",
      "outputs": [],
      "stateMutability": "nonpayable",
      "type": "function"
    },
    {
      "inputs": [],
      "name": "renounceOwnership",
      "outputs": [],
      "stateMutability": "nonpayable",
      "type": "function"
    },
    {
      "inputs": [
        {
          "internalType": "uint256",
          "name": "rentId",
          "type": "uint256"
        },
        {
          "internalType": "uint256",
          "name": "daysToRent",
          "type": "uint256"
        }
      ],
      "name": "rent",
      "outputs": [],
      "stateMutability": "payable",
      "type": "function"
    },
    {
      "inputs": [
        {
          "internalType": "uint256[]",
          "name": "rentId",
          "type": "uint256[]"
        },
        {
          "internalType": "uint256",
          "name": "daysToRent",
          "type": "uint256"
        }
      ],
      "name": "rentBatch",
      "outputs": [],
      "stateMutability": "payable",
      "type": "function"
    },
    {
      "inputs": [
        {
          "internalType": "uint256",
          "name": "",
          "type": "uint256"
        }
      ],
      "name": "rents",
      "outputs": [
        {
          "internalType": "address",
          "name": "seller",
          "type": "address"
        },
        {
          "internalType": "address",
          "name": "buyer",
          "type": "address"
        },
        {
          "internalType": "address",
          "name": "nft",
          "type": "address"
        },
        {
          "internalType": "uint256",
          "name": "nftId",
          "type": "uint256"
        },
        {
          "internalType": "uint256",
          "name": "amount",
          "type": "uint256"
        },
        {
          "internalType": "uint256",
          "name": "price",
          "type": "uint256"
        },
        {
          "internalType": "uint256",
          "name": "duration",
          "type": "uint256"
        },
        {
          "internalType": "uint256",
          "name": "startedAt",
          "type": "uint256"
        },
        {
          "internalType": "enum EndersRentNative.SaleStatus",
          "name": "status",
          "type": "uint8"
        }
      ],
      "stateMutability": "view",
      "type": "function"
    },
    {
      "inputs": [],
      "name": "restartTrading",
      "outputs": [],
      "stateMutability": "nonpayable",
      "type": "function"
    },
    {
      "inputs": [
        {
          "internalType": "address",
          "name": "from",
          "type": "address"
        },
        {
          "internalType": "address",
          "name": "to",
          "type": "address"
        },
        {
          "internalType": "uint256[]",
          "name": "ids",
          "type": "uint256[]"
        },
        {
          "internalType": "uint256[]",
          "name": "amounts",
          "type": "uint256[]"
        },
        {
          "internalType": "bytes",
          "name": "data",
          "type": "bytes"
        }
      ],
      "name": "safeBatchTransferFrom",
      "outputs": [],
      "stateMutability": "nonpayable",
      "type": "function"
    },
    {
      "inputs": [
        {
          "internalType": "address",
          "name": "from",
          "type": "address"
        },
        {
          "internalType": "address",
          "name": "to",
          "type": "address"
        },
        {
          "internalType": "uint256",
          "name": "tokenId",
          "type": "uint256"
        },
        {
          "internalType": "uint256",
          "name": "amount",
          "type": "uint256"
        },
        {
          "internalType": "bytes",
          "name": "data",
          "type": "bytes"
        }
      ],
      "name": "safeTransferFrom",
      "outputs": [],
      "stateMutability": "nonpayable",
      "type": "function"
    },
    {
      "inputs": [
        {
          "internalType": "address",
          "name": "operator",
          "type": "address"
        },
        {
          "internalType": "bool",
          "name": "approved",
          "type": "bool"
        }
      ],
      "name": "setApprovalForAll",
      "outputs": [],
      "stateMutability": "nonpayable",
      "type": "function"
    },
    {
      "inputs": [
        {
          "internalType": "address",
          "name": "_feeReceiver",
          "type": "address"
        }
      ],
      "name": "setFeeReceiver",
      "outputs": [],
      "stateMutability": "nonpayable",
      "type": "function"
    },
    {
      "inputs": [
        {
          "internalType": "uint256[]",
          "name": "ids",
          "type": "uint256[]"
        },
        {
          "internalType": "string[]",
          "name": "uris",
          "type": "string[]"
        }
      ],
      "name": "setIpfsHashBatch",
      "outputs": [],
      "stateMutability": "nonpayable",
      "type": "function"
    },
    {
      "inputs": [
        {
          "internalType": "address",
          "name": "nftAddress",
          "type": "address"
        },
        {
          "internalType": "bool",
          "name": "allow",
          "type": "bool"
        }
      ],
      "name": "setNftAllowed",
      "outputs": [],
      "stateMutability": "nonpayable",
      "type": "function"
    },
    {
      "inputs": [
        {
          "internalType": "uint256",
          "name": "_ownerCut",
          "type": "uint256"
        }
      ],
      "name": "setOwnerCut",
      "outputs": [],
      "stateMutability": "nonpayable",
      "type": "function"
    },
    {
      "inputs": [],
      "name": "stopTrading",
      "outputs": [],
      "stateMutability": "nonpayable",
      "type": "function"
    },
    {
      "inputs": [
        {
          "internalType": "bytes4",
          "name": "interfaceId",
          "type": "bytes4"
        }
      ],
      "name": "supportsInterface",
      "outputs": [
        {
          "internalType": "bool",
          "name": "",
          "type": "bool"
        }
      ],
      "stateMutability": "view",
      "type": "function"
    },
    {
      "inputs": [],
      "name": "tokenIdTracker",
      "outputs": [
        {
          "internalType": "uint256",
          "name": "_value",
          "type": "uint256"
        }
      ],
      "stateMutability": "view",
      "type": "function"
    },
    {
      "inputs": [
        {
          "internalType": "address",
          "name": "newOwner",
          "type": "address"
        }
      ],
      "name": "transferOwnership",
      "outputs": [],
      "stateMutability": "nonpayable",
      "type": "function"
    },
    {
      "inputs": [
        {
          "internalType": "uint256",
          "name": "saleId",
          "type": "uint256"
        },
        {
          "internalType": "uint256",
          "name": "newPrice",
          "type": "uint256"
        }
      ],
      "name": "updateSalePrice",
      "outputs": [],
      "stateMutability": "nonpayable",
      "type": "function"
    },
    {
      "inputs": [
        {
          "internalType": "uint256",
          "name": "saleId",
          "type": "uint256"
        },
        {
          "internalType": "address",
          "name": "receiver",
          "type": "address"
        }
      ],
      "name": "updateSaleReceiver",
      "outputs": [],
      "stateMutability": "nonpayable",
      "type": "function"
    },
    {
      "inputs": [
        {
          "internalType": "uint256",
          "name": "id",
          "type": "uint256"
        }
      ],
      "name": "uri",
      "outputs": [
        {
          "internalType": "string",
          "name": "",
          "type": "string"
        }
      ],
      "stateMutability": "view",
      "type": "function"
    },
    {
      "stateMutability": "payable",
      "type": "receive"
    }
  ],
  "bytecode": "0x60806040523480156200001157600080fd5b5060405162003bea38038062003bea833981016040819052620000349162000163565b60408051808201909152600781526652656e7420454760c81b60208201526200005d81620000ff565b50620000693362000111565b6003805460ff60a01b191690556001600455612710811115620000d25760405162461bcd60e51b815260206004820152601d60248201527f52656e74616c3a42414420494e50555420494e204f574e455220435554000000604482015260640160405180910390fd5b600755600680546001600160a01b0319166001600160a01b03929092169190911790554360085562000310565b60026200010d828262000244565b5050565b600380546001600160a01b038381166001600160a01b0319831681179093556040519116919082907f8be0079c531659141344cd1fd0a4f28419497f9722a3daafe3b4186f6b6457e090600090a35050565b600080604083850312156200017757600080fd5b82516001600160a01b03811681146200018f57600080fd5b6020939093015192949293505050565b634e487b7160e01b600052604160045260246000fd5b600181811c90821680620001ca57607f821691505b602082108103620001eb57634e487b7160e01b600052602260045260246000fd5b50919050565b601f8211156200023f57600081815260208120601f850160051c810160208610156200021a5750805b601f850160051c820191505b818110156200023b5782815560010162000226565b5050505b505050565b81516001600160401b038111156200026057620002606200019f565b6200027881620002718454620001b5565b84620001f1565b602080601f831160018114620002b05760008415620002975750858301515b600019600386901b1c1916600185901b1785556200023b565b600085815260208120601f198616915b82811015620002e157888601518255948401946001909101908401620002c0565b5085821015620003005787850151600019600388901b60f8161c191681555b5050505050600190811b01905550565b6138ca80620003206000396000f3fe60806040526004361061026d5760003560e01c80637185f16311610153578063b3f00674116100cb578063efdcd9741161007f578063f23a6e6111610064578063f23a6e61146107d3578063f242432a146107ff578063f2fde38b1461081a57600080fd5b8063efdcd97414610793578063f0f2805f146107b357600080fd5b8063bc197c81116100b0578063bc197c81146106e5578063d2cee46f1461072a578063e985e9c51461074a57600080fd5b8063b3f0067414610695578063babcc539146106b557600080fd5b8063857529f1116101225780638da5cb5b116101075780638da5cb5b146105b7578063a05d098c146105e9578063a22cb4651461067557600080fd5b8063857529f11461057757806386ca84921461059757600080fd5b80637185f16314610519578063757de5731461052e578063783a112b1461054e57806383b5ff8b1461056157600080fd5b80634896672e116101e657806350751d9d116101b55780635c975abb1161019a5780635c975abb146104c557806368ef82f6146104e4578063715018a61461050457600080fd5b806350751d9d1461048557806356c5a1d5146104a557600080fd5b80634896672e1461040f5780634cdc9c631461042f5780634e1273f4146104455780635040a8b61461047257600080fd5b8063186c04111161023d5780632cb4bc5f116102225780632cb4bc5f146103ad5780632cdddc1b146103da5780632eb2c2d6146103ef57600080fd5b8063186c04111461036d5780631e1d7bb51461038d57600080fd5b8062fdd58e146102c657806301ffc9a7146102f957806302bf3d56146103295780630e89341c1461034057600080fd5b366102c15760405162461bcd60e51b815260206004820152601660248201527f52656e74616c3a444f4e542053454e442056414c55450000000000000000000060448201526064015b60405180910390fd5b005b600080fd5b3480156102d257600080fd5b506102e66102e1366004612c83565b61083a565b6040519081526020015b60405180910390f35b34801561030557600080fd5b50610319610314366004612cc3565b6108e1565b60405190151581526020016102f0565b34801561033557600080fd5b506005546102e69081565b34801561034c57600080fd5b5061036061035b366004612ce0565b6108ec565b6040516102f09190612d3f565b34801561037957600080fd5b506102bf610388366004612d52565b610990565b34801561039957600080fd5b506102bf6103a8366004612d8c565b610a18565b3480156103b957600080fd5b506103cd6103c8366004612e9b565b610a4b565b6040516102f09190612f10565b3480156103e657600080fd5b506102bf610bb8565b3480156103fb57600080fd5b506102bf61040a36600461304f565b610bd2565b34801561041b57600080fd5b506102bf61042a3660046130f9565b610c47565b34801561043b57600080fd5b506102e660085481565b34801561045157600080fd5b5061046561046036600461311b565b610cb5565b6040516102f09190613221565b6102bf610480366004613234565b610df3565b34801561049157600080fd5b506102bf6104a0366004613279565b610e3b565b3480156104b157600080fd5b506103606104c0366004612ce0565b610edd565b3480156104d157600080fd5b50600354600160a01b900460ff16610319565b3480156104f057600080fd5b506102bf6104ff366004612ce0565b610f77565b34801561051057600080fd5b506102bf611107565b34801561052557600080fd5b506102bf611119565b34801561053a57600080fd5b506102bf610549366004612ce0565b611131565b6102bf61055c3660046130f9565b61113e565b34801561056d57600080fd5b506102e660075481565b34801561058357600080fd5b506102bf610592366004612ce0565b61156f565b3480156105a357600080fd5b506102bf6105b236600461336e565b611698565b3480156105c357600080fd5b506003546001600160a01b03165b6040516001600160a01b0390911681526020016102f0565b3480156105f557600080fd5b50610660610604366004612ce0565b6009602052600090815260409020805460018201546002830154600384015460048501546005860154600687015460078801546008909801546001600160a01b0397881698968816979095169593949293919290919060ff1689565b6040516102f0999897969594939291906133a1565b34801561068157600080fd5b506102bf610690366004612d8c565b6117ea565b3480156106a157600080fd5b506006546105d1906001600160a01b031681565b3480156106c157600080fd5b506103196106d0366004613402565b600a6020526000908152604090205460ff1681565b3480156106f157600080fd5b5061071161070036600461304f565b63bc197c8160e01b95945050505050565b6040516001600160e01b031990911681526020016102f0565b34801561073657600080fd5b506102bf61074536600461341d565b6117f5565b34801561075657600080fd5b50610319610765366004613459565b6001600160a01b03918216600090815260016020908152604080832093909416825291909152205460ff1690565b34801561079f57600080fd5b506102bf6107ae366004613402565b6118aa565b3480156107bf57600080fd5b506103196107ce366004612ce0565b611906565b3480156107df57600080fd5b506107116107ee366004613483565b63f23a6e6160e01b95945050505050565b34801561080b57600080fd5b506102bf61040a366004613483565b34801561082657600080fd5b506102bf610835366004613402565b611924565b60006001600160a01b0383166108b85760405162461bcd60e51b815260206004820152602a60248201527f455243313135353a2061646472657373207a65726f206973206e6f742061207660448201527f616c6964206f776e65720000000000000000000000000000000000000000000060648201526084016102b6565b506000818152602081815260408083206001600160a01b03861684529091529020545b92915050565b60006108db826119b4565b6000818152600b602052604081208054606092919061090a906134e8565b80601f0160208091040260200160405190810160405280929190818152602001828054610936906134e8565b80156109835780601f1061095857610100808354040283529160200191610983565b820191906000526020600020905b81548152906001019060200180831161096657829003601f168201915b5093979650505050505050565b6109986119f2565b600082815260096020526040902060028101546001600160a01b03166109f75760405162461bcd60e51b815260206004820152601460248201527352656e74616c3a4e4f545f415641494c41424c4560601b60448201526064016102b6565b80546001600160a01b0319166001600160a01b039290921691909117905550565b610a206119f2565b6001600160a01b03919091166000908152600a60205260409020805460ff1916911515919091179055565b60606000825167ffffffffffffffff811115610a6957610a69612dc3565b604051908082528060200260200182016040528015610aa257816020015b610a8f612bf0565b815260200190600190039081610a875790505b50905060005b8351811015610bb15760096000858381518110610ac757610ac7613522565b602090810291909101810151825281810192909252604090810160002081516101208101835281546001600160a01b0390811682526001830154811694820194909452600282015490931691830191909152600380820154606084015260048201546080840152600582015460a0840152600682015460c0840152600782015460e0840152600882015461010084019160ff90911690811115610b6c57610b6c612ed8565b6003811115610b7d57610b7d612ed8565b81525050828281518110610b9357610b93613522565b60200260200101819052508080610ba99061354e565b915050610aa8565b5092915050565b610bc06119f2565b610bc8611a4c565b610bd0611aa5565b565b60405162461bcd60e51b815260206004820152602860248201527f52656e74616c3a2057524150504544204e4654532043414e275420424520545260448201527f414e53464552454400000000000000000000000000000000000000000000000060648201526084016102b6565b5050505050565b610c4f6119f2565b600082815260096020526040902060028101546001600160a01b0316610cae5760405162461bcd60e51b815260206004820152601460248201527352656e74616c3a4e4f545f415641494c41424c4560601b60448201526064016102b6565b6005015550565b60608151835114610d2e5760405162461bcd60e51b815260206004820152602960248201527f455243313135353a206163636f756e747320616e6420696473206c656e67746860448201527f206d69736d61746368000000000000000000000000000000000000000000000060648201526084016102b6565b6000835167ffffffffffffffff811115610d4a57610d4a612dc3565b604051908082528060200260200182016040528015610d73578160200160208202803683370190505b50905060005b8451811015610deb57610dbe858281518110610d9757610d97613522565b6020026020010151858381518110610db157610db1613522565b602002602001015161083a565b828281518110610dd057610dd0613522565b6020908102919091010152610de48161354e565b9050610d79565b509392505050565b815160005b81811015610e3557610e23848281518110610e1557610e15613522565b60200260200101518461113e565b80610e2d8161354e565b915050610df8565b50505050565b610e436119f2565b60005b8251811015610ed8576000828281518110610e6357610e63613522565b6020026020010151511115610ec657818181518110610e8457610e84613522565b6020026020010151600b6000858481518110610ea257610ea2613522565b602002602001015181526020019081526020016000209081610ec491906135ad565b505b80610ed08161354e565b915050610e46565b505050565b600b6020526000908152604090208054610ef6906134e8565b80601f0160208091040260200160405190810160405280929190818152602001828054610f22906134e8565b8015610f6f5780601f10610f4457610100808354040283529160200191610f6f565b820191906000526020600020905b815481529060010190602001808311610f5257829003601f168201915b505050505081565b600081815260096020526040902060028101546001600160a01b0316610fd65760405162461bcd60e51b815260206004820152601460248201527352656e74616c3a4e4f545f415641494c41424c4560601b60448201526064016102b6565b80546001600160a01b0316331461102f5760405162461bcd60e51b815260206004820152601060248201527f52656e74616c3a4e4f545f4f574e45520000000000000000000000000000000060448201526064016102b6565b6001600882015460ff16600381111561104a5761104a612ed8565b146110975760405162461bcd60e51b815260206004820152601260248201527f52656e74616c3a4e46545f494e5f52454e54000000000000000000000000000060448201526064016102b6565b806007015481600601546110ab919061366d565b4210156110fa5760405162461bcd60e51b815260206004820152601860248201527f52656e74616c3a4e46545f5354494c4c5f494e5f52454e54000000000000000060448201526064016102b6565b61110382611afa565b5050565b61110f6119f2565b610bd06000611bbc565b6111216119f2565b611129611c0e565b610bd0611c68565b6111396119f2565b600755565b611146611cab565b61114e611c0e565b6000828152600960205260408120600581015490919061116f908490613680565b9050600083116111e75760405162461bcd60e51b815260206004820152602760248201527f52656e74616c3a52454e542054494d45204d555354204245204752454154455260448201527f205448414e20300000000000000000000000000000000000000000000000000060648201526084016102b6565b6000600883015460ff16600381111561120257611202612ed8565b1461124f5760405162461bcd60e51b815260206004820181905260248201527f52656e74616c3a4e4654204e4f5420415641494c41424c4520544f2052454e5460448201526064016102b6565b3361125983611d04565b6112a55760405162461bcd60e51b815260206004820152601460248201527f52656e74616c3a4e4f5420415641494c41424c4500000000000000000000000060448201526064016102b6565b813410156112f55760405162461bcd60e51b815260206004820152601760248201527f52656e74616c3a4e4f5420454e4f5547482056414c554500000000000000000060448201526064016102b6565b6000612710600754846113089190613680565b6113129190613697565b9050600061132082856136b9565b85546040519192506001600160a01b031690600090829084908381818185875af1925050503d8060008114611371576040519150601f19603f3d011682016040523d82523d6000602084013e611376565b606091505b50509050806113c75760405162461bcd60e51b815260206004820152601060248201527f5472616e73666572206661696c65642e0000000000000000000000000000000060448201526064016102b6565b6006546040516000916001600160a01b03169086908381818185875af1925050503d8060008114611414576040519150601f19603f3d011682016040523d82523d6000602084013e611419565b606091505b505090508061146a5760405162461bcd60e51b815260206004820152601060248201527f5472616e73666572206661696c65642e0000000000000000000000000000000060448201526064016102b6565b6114b086896003015460016040518060400160405280600481526020017f3078303000000000000000000000000000000000000000000000000000000000815250611d45565b600888018054600160ff199091168117909155880180546001600160a01b0319166001600160a01b0388161790556114eb8962015180613680565b60068901554260078901556115013060016117ea565b60068801546007890154604080516001600160a01b038a168152602081018b90529081019290925260608201528a907f768fac593b200d349060565ac70fb7efb0718ec73a79089c125bbcdf6e5419559060800160405180910390a250505050505050506111036001600455565b600081815260096020526040902060028101546001600160a01b03166115ce5760405162461bcd60e51b815260206004820152601460248201527352656e74616c3a4e4f545f415641494c41424c4560601b60448201526064016102b6565b80546001600160a01b031633146116275760405162461bcd60e51b815260206004820152601060248201527f52656e74616c3a4e4f545f4f574e45520000000000000000000000000000000060448201526064016102b6565b6001600882015460ff16600381111561164257611642612ed8565b0361168f5760405162461bcd60e51b815260206004820152601260248201527f52656e74616c3a4e46545f494e5f52454e54000000000000000000000000000060448201526064016102b6565b61110382611e75565b6116a0611c0e565b6001600160a01b0383166000908152600a6020526040902054339060ff1661170a5760405162461bcd60e51b815260206004820152601b60248201527f52656e74616c3a20494e56414c4944204e46542041444452455353000000000060448201526064016102b6565b611715848285611f91565b6117615760405162461bcd60e51b815260206004820152601160248201527f52656e74616c3a204e4f54204f574e455200000000000000000000000000000060448201526064016102b6565b61176e848285600161202d565b6000604051806101200160405280836001600160a01b0316815260200160006001600160a01b03168152602001866001600160a01b031681526020018581526020016001815260200184815260200160008152602001428152602001600060038111156117dd576117dd612ed8565b90529050610c40816120b5565b611103338383612201565b6117fd6119f2565b6001600160a01b03821661181e57610ed86001600160a01b038216846122f5565b6040517fa9059cbb0000000000000000000000000000000000000000000000000000000081526001600160a01b0382811660048301526024820185905283169063a9059cbb906044016020604051808303816000875af1158015611886573d6000803e3d6000fd5b505050506040513d601f19601f82011682018060405250810190610e3591906136cc565b6118b26119f2565b600680546001600160a01b0319166001600160a01b0383169081179091556040519081527fce118ac8247ab22e55e5f2799d4f5dcf662d59fe0d207b98d6a89764ae81d4819060200160405180910390a150565b600081815260096020526040812061191d81611d04565b9392505050565b61192c6119f2565b6001600160a01b0381166119a85760405162461bcd60e51b815260206004820152602660248201527f4f776e61626c653a206e6577206f776e657220697320746865207a65726f206160448201527f646472657373000000000000000000000000000000000000000000000000000060648201526084016102b6565b6119b181611bbc565b50565b60006001600160e01b031982167f4e2312e00000000000000000000000000000000000000000000000000000000014806108db57506108db8261240e565b6003546001600160a01b03163314610bd05760405162461bcd60e51b815260206004820181905260248201527f4f776e61626c653a2063616c6c6572206973206e6f7420746865206f776e657260448201526064016102b6565b600354600160a01b900460ff16610bd05760405162461bcd60e51b815260206004820152601460248201527f5061757361626c653a206e6f742070617573656400000000000000000000000060448201526064016102b6565b611aad611a4c565b6003805460ff60a01b191690557f5db9ee0a495bf2e6ff9c91a7834c1ba4fdd244a5e8aa4e537bd38aeae4b073aa335b6040516001600160a01b03909116815260200160405180910390a1565b600081815260096020526040902060088101805460ff191660021790556001810154611b2e906001600160a01b0316612650565b6001808201546003830154611b4e926001600160a01b03909216916126c6565b60048101548154611b699184916001600160a01b0316612875565b80546001820154604080516001600160a01b03938416815292909116602083015283917faac0b84b68673acc47173a7c84cee2d1ef5235d62db6f8c0c738dce2537df30491015b60405180910390a25050565b600380546001600160a01b038381166001600160a01b0319831681179093556040519116919082907f8be0079c531659141344cd1fd0a4f28419497f9722a3daafe3b4186f6b6457e090600090a35050565b600354600160a01b900460ff1615610bd05760405162461bcd60e51b815260206004820152601060248201527f5061757361626c653a207061757365640000000000000000000000000000000060448201526064016102b6565b611c70611c0e565b6003805460ff60a01b1916600160a01b1790557f62e78cea01bee320cd4e420270b5ea74000d11b0c9f74754ebdbfc544b05a258611add3390565b600260045403611cfd5760405162461bcd60e51b815260206004820152601f60248201527f5265656e7472616e637947756172643a207265656e7472616e742063616c6c0060448201526064016102b6565b6002600455565b6000611d1c82600201546001600160a01b0316151590565b80156108db57506000600883015460ff166003811115611d3e57611d3e612ed8565b1492915050565b6001600160a01b038416611dc15760405162461bcd60e51b815260206004820152602160248201527f455243313135353a206d696e7420746f20746865207a65726f2061646472657360448201527f730000000000000000000000000000000000000000000000000000000000000060648201526084016102b6565b336000611dcd856128e3565b90506000611dda856128e3565b90506000868152602081815260408083206001600160a01b038b16845290915281208054879290611e0c90849061366d565b909155505060408051878152602081018790526001600160a01b03808a1692600092918716917fc3d58168c5ae7397731d063d5bbf3d657854427343f4c083240f7aacaa2d0f62910160405180910390a4611e6c8360008989898961292e565b50505050505050565b60008181526009602052604090206001600882015460ff166003811115611e9e57611e9e612ed8565b03611f385760405162461bcd60e51b8152602060048201526044602482018190527f52656e74616c3a20594f5552204e46542049532052454e5445442c20594f5520908201527f43414e27542043414e43454c20495420554e54494c205448452046494e414c2060648201527f4441544500000000000000000000000000000000000000000000000000000000608482015260a4016102b6565b60088101805460ff1916600317905560048101548154611f629184916001600160a01b0316612875565b60405182907fd2df70ec5c7586524a4a47f3aeac113abcf287d54fac7dcc7ea18afd797707d890600090a25050565b600080846040517efdd58e0000000000000000000000000000000000000000000000000000000081526001600160a01b0386811660048301526024820186905291925060009183169062fdd58e90604401602060405180830381865afa158015611fff573d6000803e3d6000fd5b505050506040513d601f19601f8201168201806040525081019061202391906136e9565b1195945050505050565b604051637921219560e11b81526001600160a01b038481166004830152306024830152604482018490526064820183905260a06084830152600060a483015285919082169063f242432a9060c4015b600060405180830381600087803b15801561209657600080fd5b505af11580156120aa573d6000803e3d6000fd5b505050505050505050565b60006120c060055490565b600081815260096020908152604091829020855181546001600160a01b03199081166001600160a01b0392831617835592870151600180840180548616928416929092179091559387015160028301805490941691161790915560608501516003808301919091556080860151600483015560a0860151600583015560c0860151600683015560e08601516007830155610100860151600883018054959650879593949193909260ff199091169190849081111561218057612180612ed8565b0217905550506005805460010190555060408083015160608085015160a08087015160e0880151885187516001600160a01b0397881681526020810195909552968401919091529282019290925291909216608082015282917f20debd17a7b41707a9b1ac9583b415435adaabb513108753ea47f88a29d06eeb9101611bb0565b816001600160a01b0316836001600160a01b0316036122885760405162461bcd60e51b815260206004820152602960248201527f455243313135353a2073657474696e6720617070726f76616c2073746174757360448201527f20666f722073656c66000000000000000000000000000000000000000000000060648201526084016102b6565b6001600160a01b03838116600081815260016020908152604080832094871680845294825291829020805460ff191686151590811790915591519182527f17307eab39ab6107e8899845ad3d59bd9653f200f220920489ca2b5937696c31910160405180910390a3505050565b804710156123455760405162461bcd60e51b815260206004820152601d60248201527f416464726573733a20696e73756666696369656e742062616c616e636500000060448201526064016102b6565b6000826001600160a01b03168260405160006040518083038185875af1925050503d8060008114612392576040519150601f19603f3d011682016040523d82523d6000602084013e612397565b606091505b5050905080610ed85760405162461bcd60e51b815260206004820152603a60248201527f416464726573733a20756e61626c6520746f2073656e642076616c75652c207260448201527f6563697069656e74206d6179206861766520726576657274656400000000000060648201526084016102b6565b60006001600160e01b031982167fd9b67a2600000000000000000000000000000000000000000000000000000000148061247157506001600160e01b031982167f0e89341c00000000000000000000000000000000000000000000000000000000145b806108db57507f01ffc9a7000000000000000000000000000000000000000000000000000000006001600160e01b03198316146108db565b84518110156125e25760008582815181106124c6576124c6613522565b6020026020010151905060008583815181106124e4576124e4613522565b602090810291909101810151600084815280835260408082206001600160a01b038e16835290935291909120549091508181101561258a5760405162461bcd60e51b815260206004820152602a60248201527f455243313135353a20696e73756666696369656e742062616c616e636520666f60448201527f72207472616e736665720000000000000000000000000000000000000000000060648201526084016102b6565b6000838152602081815260408083206001600160a01b038e8116855292528083208585039055908b168252812080548492906125c790849061366d565b92505081905550505050806125db9061354e565b90506124a9565b50846001600160a01b0316866001600160a01b0316826001600160a01b03167f4a39dc06d4c0dbc64b70af90fd698a233a518aa5d07e595d983b8c0526c8f7fb8787604051612632929190613702565b60405180910390a4612648818787878787612ad3565b505050505050565b6040516001600160a01b03821660248201526119b19060440160408051601f198184030181529190526020810180517bffffffffffffffffffffffffffffffffffffffffffffffffffffffff167f2c2ecbc200000000000000000000000000000000000000000000000000000000179052612bcf565b6001600160a01b0383166127425760405162461bcd60e51b815260206004820152602360248201527f455243313135353a206275726e2066726f6d20746865207a65726f206164647260448201527f657373000000000000000000000000000000000000000000000000000000000060648201526084016102b6565b33600061274e846128e3565b9050600061275b846128e3565b60408051602080820183526000918290528882528181528282206001600160a01b038b16835290522054909150848110156127fd5760405162461bcd60e51b8152602060048201526024808201527f455243313135353a206275726e20616d6f756e7420657863656564732062616c60448201527f616e63650000000000000000000000000000000000000000000000000000000060648201526084016102b6565b6000868152602081815260408083206001600160a01b038b81168086529184528285208a8703905582518b81529384018a90529092908816917fc3d58168c5ae7397731d063d5bbf3d657854427343f4c083240f7aacaa2d0f62910160405180910390a4604080516020810190915260009052611e6c565b600083815260096020526040808220600281015460038201549251637921219560e11b81523060048201526001600160a01b03868116602483015260448201949094526064810187905260a0608482015260a48101949094529092911690819063f242432a9060c40161207c565b6040805160018082528183019092526060916000919060208083019080368337019050509050828160008151811061291d5761291d613522565b602090810291909101015292915050565b6001600160a01b0384163b156126485760405163f23a6e6160e01b81526001600160a01b0385169063f23a6e61906129729089908990889088908890600401613730565b6020604051808303816000875af19250505080156129ad575060408051601f3d908101601f191682019092526129aa91810190613773565b60015b612a62576129b9613790565b806308c379a0036129f257506129cd6137ac565b806129d857506129f4565b8060405162461bcd60e51b81526004016102b69190612d3f565b505b60405162461bcd60e51b815260206004820152603460248201527f455243313135353a207472616e7366657220746f206e6f6e2d4552433131353560448201527f526563656976657220696d706c656d656e74657200000000000000000000000060648201526084016102b6565b6001600160e01b0319811663f23a6e6160e01b14611e6c5760405162461bcd60e51b815260206004820152602860248201527f455243313135353a204552433131353552656365697665722072656a656374656044820152676420746f6b656e7360c01b60648201526084016102b6565b6001600160a01b0384163b156126485760405163bc197c8160e01b81526001600160a01b0385169063bc197c8190612b179089908990889088908890600401613836565b6020604051808303816000875af1925050508015612b52575060408051601f3d908101601f19168201909252612b4f91810190613773565b60015b612b5e576129b9613790565b6001600160e01b0319811663bc197c8160e01b14611e6c5760405162461bcd60e51b815260206004820152602860248201527f455243313135353a204552433131353552656365697665722072656a656374656044820152676420746f6b656e7360c01b60648201526084016102b6565b80516a636f6e736f6c652e6c6f67602083016000808483855afa5050505050565b60405180610120016040528060006001600160a01b0316815260200160006001600160a01b0316815260200160006001600160a01b03168152602001600081526020016000815260200160008152602001600081526020016000815260200160006003811115612c6257612c62612ed8565b905290565b80356001600160a01b0381168114612c7e57600080fd5b919050565b60008060408385031215612c9657600080fd5b612c9f83612c67565b946020939093013593505050565b6001600160e01b0319811681146119b157600080fd5b600060208284031215612cd557600080fd5b813561191d81612cad565b600060208284031215612cf257600080fd5b5035919050565b6000815180845260005b81811015612d1f57602081850181015186830182015201612d03565b506000602082860101526020601f19601f83011685010191505092915050565b60208152600061191d6020830184612cf9565b60008060408385031215612d6557600080fd5b82359150612d7560208401612c67565b90509250929050565b80151581146119b157600080fd5b60008060408385031215612d9f57600080fd5b612da883612c67565b91506020830135612db881612d7e565b809150509250929050565b634e487b7160e01b600052604160045260246000fd5b601f8201601f1916810167ffffffffffffffff81118282101715612dff57612dff612dc3565b6040525050565b600067ffffffffffffffff821115612e2057612e20612dc3565b5060051b60200190565b600082601f830112612e3b57600080fd5b81356020612e4882612e06565b604051612e558282612dd9565b83815260059390931b8501820192828101915086841115612e7557600080fd5b8286015b84811015612e905780358352918301918301612e79565b509695505050505050565b600060208284031215612ead57600080fd5b813567ffffffffffffffff811115612ec457600080fd5b612ed084828501612e2a565b949350505050565b634e487b7160e01b600052602160045260246000fd5b60048110612f0c57634e487b7160e01b600052602160045260246000fd5b9052565b602080825282518282018190526000919060409081850190868401855b82811015612fc457815180516001600160a01b03908116865287820151168786015285810151612f67878701826001600160a01b03169052565b50606081810151908601526080808201519086015260a0808201519086015260c0808201519086015260e080820151908601526101009081015190612fae81870183612eee565b5050610120939093019290850190600101612f2d565b5091979650505050505050565b600067ffffffffffffffff831115612feb57612feb612dc3565b604051613002601f8501601f191660200182612dd9565b80915083815284848401111561301757600080fd5b83836020830137600060208583010152509392505050565b600082601f83011261304057600080fd5b61191d83833560208501612fd1565b600080600080600060a0868803121561306757600080fd5b61307086612c67565b945061307e60208701612c67565b9350604086013567ffffffffffffffff8082111561309b57600080fd5b6130a789838a01612e2a565b945060608801359150808211156130bd57600080fd5b6130c989838a01612e2a565b935060808801359150808211156130df57600080fd5b506130ec8882890161302f565b9150509295509295909350565b6000806040838503121561310c57600080fd5b50508035926020909101359150565b6000806040838503121561312e57600080fd5b823567ffffffffffffffff8082111561314657600080fd5b818501915085601f83011261315a57600080fd5b8135602061316782612e06565b6040516131748282612dd9565b83815260059390931b850182019282810191508984111561319457600080fd5b948201945b838610156131b9576131aa86612c67565b82529482019490820190613199565b965050860135925050808211156131cf57600080fd5b506131dc85828601612e2a565b9150509250929050565b600081518084526020808501945080840160005b83811015613216578151875295820195908201906001016131fa565b509495945050505050565b60208152600061191d60208301846131e6565b6000806040838503121561324757600080fd5b823567ffffffffffffffff81111561325e57600080fd5b61326a85828601612e2a565b95602094909401359450505050565b600080604080848603121561328d57600080fd5b833567ffffffffffffffff808211156132a557600080fd5b6132b187838801612e2a565b94506020915081860135818111156132c857600080fd5b8601601f810188136132d957600080fd5b80356132e481612e06565b85516132f08282612dd9565b82815260059290921b830185019185810191508a83111561331057600080fd5b8584015b8381101561335c5780358681111561332c5760008081fd5b8501603f81018d1361333e5760008081fd5b61334e8d898301358b8401612fd1565b845250918601918601613314565b50809750505050505050509250929050565b60008060006060848603121561338357600080fd5b61338c84612c67565b95602085013595506040909401359392505050565b6000610120820190506001600160a01b03808c168352808b166020840152808a166040840152508760608301528660808301528560a08301528460c08301528360e08301526133f4610100830184612eee565b9a9950505050505050505050565b60006020828403121561341457600080fd5b61191d82612c67565b60008060006060848603121561343257600080fd5b8335925061344260208501612c67565b915061345060408501612c67565b90509250925092565b6000806040838503121561346c57600080fd5b61347583612c67565b9150612d7560208401612c67565b600080600080600060a0868803121561349b57600080fd5b6134a486612c67565b94506134b260208701612c67565b93506040860135925060608601359150608086013567ffffffffffffffff8111156134dc57600080fd5b6130ec8882890161302f565b600181811c908216806134fc57607f821691505b60208210810361351c57634e487b7160e01b600052602260045260246000fd5b50919050565b634e487b7160e01b600052603260045260246000fd5b634e487b7160e01b600052601160045260246000fd5b60006001820161356057613560613538565b5060010190565b601f821115610ed857600081815260208120601f850160051c8101602086101561358e5750805b601f850160051c820191505b818110156126485782815560010161359a565b815167ffffffffffffffff8111156135c7576135c7612dc3565b6135db816135d584546134e8565b84613567565b602080601f83116001811461361057600084156135f85750858301515b600019600386901b1c1916600185901b178555612648565b600085815260208120601f198616915b8281101561363f57888601518255948401946001909101908401613620565b508582101561365d5787850151600019600388901b60f8161c191681555b5050505050600190811b01905550565b808201808211156108db576108db613538565b80820281158282048414176108db576108db613538565b6000826136b457634e487b7160e01b600052601260045260246000fd5b500490565b818103818111156108db576108db613538565b6000602082840312156136de57600080fd5b815161191d81612d7e565b6000602082840312156136fb57600080fd5b5051919050565b60408152600061371560408301856131e6565b828103602084015261372781856131e6565b95945050505050565b60006001600160a01b03808816835280871660208401525084604083015283606083015260a0608083015261376860a0830184612cf9565b979650505050505050565b60006020828403121561378557600080fd5b815161191d81612cad565b600060033d11156137a95760046000803e5060005160e01c5b90565b600060443d10156137ba5790565b6040516003193d81016004833e81513d67ffffffffffffffff81602484011181841117156137ea57505050505090565b82850191508151818111156138025750505050505090565b843d870101602082850101111561381c5750505050505090565b61382b60208286010187612dd9565b509095945050505050565b60006001600160a01b03808816835280871660208401525060a0604083015261386260a08301866131e6565b828103606084015261387481866131e6565b905082810360808401526138888185612cf9565b9897505050505050505056fea264697066735822122000d3a868968595f3b4c72b6f7b44a2e97481b966360cacb904d15b03e8bd931764736f6c63430008110033",
  "linkReferences": {},
  "deployedLinkReferences": {}
}