{
  "_format": "hh-sol-artifact-1",
  "contractName": "RentMultiTokens",
  "sourceName": "contracts/Rent/RentMultiTokens.sol",
  "abi": [
    {
      "inputs": [
        {
          "internalType": "address",
          "name": "_feeReceiver",
          "type": "address"
        },
        {
          "internalType": "address",
          "name": "_wcurrency",
          "type": "address"
        },
        {
          "internalType": "address",
          "name": "_priceFeedW",
          "type": "address"
        },
        {
          "internalType": "uint256",
          "name": "_decimals",
          "type": "uint256"
        },
        {
          "internalType": "uint256",
          "name": "_ownerCut",
          "type": "uint256"
        }
      ],
      "stateMutability": "nonpayable",
      "type": "constructor"
    },
    {
      "anonymous": false,
      "inputs": [
        {
          "indexed": true,
          "internalType": "address",
          "name": "account",
          "type": "address"
        },
        {
          "indexed": true,
          "internalType": "address",
          "name": "operator",
          "type": "address"
        },
        {
          "indexed": false,
          "internalType": "bool",
          "name": "approved",
          "type": "bool"
        }
      ],
      "name": "ApprovalForAll",
      "type": "event"
    },
    {
      "anonymous": false,
      "inputs": [
        {
          "indexed": false,
          "internalType": "address",
          "name": "newReceiver",
          "type": "address"
        }
      ],
      "name": "ChangedFeeReceiver",
      "type": "event"
    },
    {
      "anonymous": false,
      "inputs": [
        {
          "indexed": true,
          "internalType": "address",
          "name": "previousOwner",
          "type": "address"
        },
        {
          "indexed": true,
          "internalType": "address",
          "name": "newOwner",
          "type": "address"
        }
      ],
      "name": "OwnershipTransferred",
      "type": "event"
    },
    {
      "anonymous": false,
      "inputs": [
        {
          "indexed": false,
          "internalType": "address",
          "name": "account",
          "type": "address"
        }
      ],
      "name": "Paused",
      "type": "event"
    },
    {
      "anonymous": false,
      "inputs": [
        {
          "indexed": true,
          "internalType": "uint256",
          "name": "_rentId",
          "type": "uint256"
        }
      ],
      "name": "RentAuctionCancelled",
      "type": "event"
    },
    {
      "anonymous": false,
      "inputs": [
        {
          "indexed": true,
          "internalType": "uint256",
          "name": "_rentId",
          "type": "uint256"
        },
        {
          "indexed": false,
          "internalType": "address",
          "name": "_nft",
          "type": "address"
        },
        {
          "indexed": false,
          "internalType": "uint256",
          "name": "_nftId",
          "type": "uint256"
        },
        {
          "indexed": false,
          "internalType": "uint256",
          "name": "priceUSD",
          "type": "uint256"
        },
        {
          "indexed": false,
          "internalType": "address[]",
          "name": "_tokens",
          "type": "address[]"
        },
        {
          "indexed": false,
          "internalType": "uint256",
          "name": "_startedAt",
          "type": "uint256"
        },
        {
          "indexed": false,
          "internalType": "address",
          "name": "_seller",
          "type": "address"
        }
      ],
      "name": "RentAuctionCreated",
      "type": "event"
    },
    {
      "anonymous": false,
      "inputs": [
        {
          "indexed": true,
          "internalType": "uint256",
          "name": "_rentId",
          "type": "uint256"
        },
        {
          "indexed": false,
          "internalType": "address",
          "name": "_seller",
          "type": "address"
        },
        {
          "indexed": false,
          "internalType": "address",
          "name": "_buyer",
          "type": "address"
        }
      ],
      "name": "RentedEnd",
      "type": "event"
    },
    {
      "anonymous": false,
      "inputs": [
        {
          "indexed": true,
          "internalType": "uint256",
          "name": "_rentId",
          "type": "uint256"
        },
        {
          "indexed": false,
          "internalType": "address",
          "name": "_buyer",
          "type": "address"
        },
        {
          "indexed": false,
          "internalType": "uint256",
          "name": "_cost",
          "type": "uint256"
        },
        {
          "indexed": false,
          "internalType": "address",
          "name": "_tokenUsed",
          "type": "address"
        },
        {
          "indexed": false,
          "internalType": "uint256",
          "name": "_daysToRent",
          "type": "uint256"
        },
        {
          "indexed": false,
          "internalType": "uint256",
          "name": "_startedAt",
          "type": "uint256"
        }
      ],
      "name": "RentedSuccessful",
      "type": "event"
    },
    {
      "anonymous": false,
      "inputs": [
        {
          "indexed": true,
          "internalType": "address",
          "name": "operator",
          "type": "address"
        },
        {
          "indexed": true,
          "internalType": "address",
          "name": "from",
          "type": "address"
        },
        {
          "indexed": true,
          "internalType": "address",
          "name": "to",
          "type": "address"
        },
        {
          "indexed": false,
          "internalType": "uint256[]",
          "name": "ids",
          "type": "uint256[]"
        },
        {
          "indexed": false,
          "internalType": "uint256[]",
          "name": "values",
          "type": "uint256[]"
        }
      ],
      "name": "TransferBatch",
      "type": "event"
    },
    {
      "anonymous": false,
      "inputs": [
        {
          "indexed": true,
          "internalType": "address",
          "name": "operator",
          "type": "address"
        },
        {
          "indexed": true,
          "internalType": "address",
          "name": "from",
          "type": "address"
        },
        {
          "indexed": true,
          "internalType": "address",
          "name": "to",
          "type": "address"
        },
        {
          "indexed": false,
          "internalType": "uint256",
          "name": "id",
          "type": "uint256"
        },
        {
          "indexed": false,
          "internalType": "uint256",
          "name": "value",
          "type": "uint256"
        }
      ],
      "name": "TransferSingle",
      "type": "event"
    },
    {
      "anonymous": false,
      "inputs": [
        {
          "indexed": false,
          "internalType": "string",
          "name": "value",
          "type": "string"
        },
        {
          "indexed": true,
          "internalType": "uint256",
          "name": "id",
          "type": "uint256"
        }
      ],
      "name": "URI",
      "type": "event"
    },
    {
      "anonymous": false,
      "inputs": [
        {
          "indexed": false,
          "internalType": "address",
          "name": "account",
          "type": "address"
        }
      ],
      "name": "Unpaused",
      "type": "event"
    },
    {
      "inputs": [
        {
          "internalType": "address",
          "name": "_token",
          "type": "address"
        },
        {
          "internalType": "address",
          "name": "priceFeed",
          "type": "address"
        },
        {
          "internalType": "uint256",
          "name": "decimals",
          "type": "uint256"
        }
      ],
      "name": "addToken",
      "outputs": [],
      "stateMutability": "nonpayable",
      "type": "function"
    },
    {
      "inputs": [
        {
          "internalType": "address",
          "name": "account",
          "type": "address"
        },
        {
          "internalType": "uint256",
          "name": "id",
          "type": "uint256"
        }
      ],
      "name": "balanceOf",
      "outputs": [
        {
          "internalType": "uint256",
          "name": "",
          "type": "uint256"
        }
      ],
      "stateMutability": "view",
      "type": "function"
    },
    {
      "inputs": [
        {
          "internalType": "address[]",
          "name": "accounts",
          "type": "address[]"
        },
        {
          "internalType": "uint256[]",
          "name": "ids",
          "type": "uint256[]"
        }
      ],
      "name": "balanceOfBatch",
      "outputs": [
        {
          "internalType": "uint256[]",
          "name": "",
          "type": "uint256[]"
        }
      ],
      "stateMutability": "view",
      "type": "function"
    },
    {
      "inputs": [
        {
          "internalType": "uint256",
          "name": "rentId",
          "type": "uint256"
        }
      ],
      "name": "cancelRent",
      "outputs": [],
      "stateMutability": "nonpayable",
      "type": "function"
    },
    {
      "inputs": [
        {
          "internalType": "address",
          "name": "_nftAddress",
          "type": "address"
        },
        {
          "internalType": "uint256",
          "name": "_tokenId",
          "type": "uint256"
        },
        {
          "internalType": "uint256",
          "name": "_priceUSD",
          "type": "uint256"
        },
        {
          "internalType": "address[]",
          "name": "_tokens",
          "type": "address[]"
        }
      ],
      "name": "createRent",
      "outputs": [],
      "stateMutability": "nonpayable",
      "type": "function"
    },
    {
      "inputs": [
        {
          "internalType": "address",
          "name": "",
          "type": "address"
        }
      ],
      "name": "decimalsByToken",
      "outputs": [
        {
          "internalType": "uint256",
          "name": "",
          "type": "uint256"
        }
      ],
      "stateMutability": "view",
      "type": "function"
    },
    {
      "inputs": [],
      "name": "decimalsUSD",
      "outputs": [
        {
          "internalType": "uint256",
          "name": "",
          "type": "uint256"
        }
      ],
      "stateMutability": "view",
      "type": "function"
    },
    {
      "inputs": [
        {
          "internalType": "uint256",
          "name": "amount",
          "type": "uint256"
        },
        {
          "internalType": "address",
          "name": "token",
          "type": "address"
        },
        {
          "internalType": "address",
          "name": "recipient",
          "type": "address"
        }
      ],
      "name": "emergencyWithdraw",
      "outputs": [],
      "stateMutability": "nonpayable",
      "type": "function"
    },
    {
      "inputs": [],
      "name": "feeReceiver",
      "outputs": [
        {
          "internalType": "address",
          "name": "",
          "type": "address"
        }
      ],
      "stateMutability": "view",
      "type": "function"
    },
    {
      "inputs": [],
      "name": "genesisBlock",
      "outputs": [
        {
          "internalType": "uint256",
          "name": "",
          "type": "uint256"
        }
      ],
      "stateMutability": "view",
      "type": "function"
    },
    {
      "inputs": [
        {
          "internalType": "uint256",
          "name": "rentId",
          "type": "uint256"
        },
        {
          "internalType": "address",
          "name": "tokenToGet",
          "type": "address"
        }
      ],
      "name": "getRatePrice",
      "outputs": [
        {
          "internalType": "uint256",
          "name": "",
          "type": "uint256"
        }
      ],
      "stateMutability": "view",
      "type": "function"
    },
    {
      "inputs": [
        {
          "internalType": "uint256[]",
          "name": "rentIds",
          "type": "uint256[]"
        }
      ],
      "name": "getRents",
      "outputs": [
        {
          "components": [
            {
              "internalType": "address",
              "name": "seller",
              "type": "address"
            },
            {
              "internalType": "address",
              "name": "buyer",
              "type": "address"
            },
            {
              "internalType": "address",
              "name": "nft",
              "type": "address"
            },
            {
              "internalType": "uint256",
              "name": "nftId",
              "type": "uint256"
            },
            {
              "internalType": "uint256",
              "name": "amount",
              "type": "uint256"
            },
            {
              "internalType": "uint256",
              "name": "priceUSD",
              "type": "uint256"
            },
            {
              "internalType": "address[]",
              "name": "tokens",
              "type": "address[]"
            },
            {
              "internalType": "uint256",
              "name": "duration",
              "type": "uint256"
            },
            {
              "internalType": "uint256",
              "name": "startedAt",
              "type": "uint256"
            },
            {
              "internalType": "enum RentMultiTokens.SaleStatus",
              "name": "status",
              "type": "uint8"
            }
          ],
          "internalType": "struct RentMultiTokens.Rent[]",
          "name": "",
          "type": "tuple[]"
        }
      ],
      "stateMutability": "view",
      "type": "function"
    },
    {
      "inputs": [
        {
          "internalType": "uint256",
          "name": "",
          "type": "uint256"
        }
      ],
      "name": "ipfsURIs",
      "outputs": [
        {
          "internalType": "string",
          "name": "",
          "type": "string"
        }
      ],
      "stateMutability": "view",
      "type": "function"
    },
    {
      "inputs": [
        {
          "internalType": "address",
          "name": "",
          "type": "address"
        }
      ],
      "name": "isAllowed",
      "outputs": [
        {
          "internalType": "bool",
          "name": "",
          "type": "bool"
        }
      ],
      "stateMutability": "view",
      "type": "function"
    },
    {
      "inputs": [
        {
          "internalType": "address",
          "name": "account",
          "type": "address"
        },
        {
          "internalType": "address",
          "name": "operator",
          "type": "address"
        }
      ],
      "name": "isApprovedForAll",
      "outputs": [
        {
          "internalType": "bool",
          "name": "",
          "type": "bool"
        }
      ],
      "stateMutability": "view",
      "type": "function"
    },
    {
      "inputs": [
        {
          "internalType": "uint256",
          "name": "rentId",
          "type": "uint256"
        }
      ],
      "name": "isOnSale",
      "outputs": [
        {
          "internalType": "bool",
          "name": "",
          "type": "bool"
        }
      ],
      "stateMutability": "view",
      "type": "function"
    },
    {
      "inputs": [
        {
          "internalType": "address",
          "name": "_token",
          "type": "address"
        }
      ],
      "name": "isTokenAllowed",
      "outputs": [
        {
          "internalType": "bool",
          "name": "",
          "type": "bool"
        }
      ],
      "stateMutability": "view",
      "type": "function"
    },
    {
      "inputs": [
        {
          "internalType": "address",
          "name": "",
          "type": "address"
        },
        {
          "internalType": "address",
          "name": "",
          "type": "address"
        },
        {
          "internalType": "uint256[]",
          "name": "",
          "type": "uint256[]"
        },
        {
          "internalType": "uint256[]",
          "name": "",
          "type": "uint256[]"
        },
        {
          "internalType": "bytes",
          "name": "",
          "type": "bytes"
        }
      ],
      "name": "onERC1155BatchReceived",
      "outputs": [
        {
          "internalType": "bytes4",
          "name": "",
          "type": "bytes4"
        }
      ],
      "stateMutability": "nonpayable",
      "type": "function"
    },
    {
      "inputs": [
        {
          "internalType": "address",
          "name": "",
          "type": "address"
        },
        {
          "internalType": "address",
          "name": "",
          "type": "address"
        },
        {
          "internalType": "uint256",
          "name": "",
          "type": "uint256"
        },
        {
          "internalType": "uint256",
          "name": "",
          "type": "uint256"
        },
        {
          "internalType": "bytes",
          "name": "",
          "type": "bytes"
        }
      ],
      "name": "onERC1155Received",
      "outputs": [
        {
          "internalType": "bytes4",
          "name": "",
          "type": "bytes4"
        }
      ],
      "stateMutability": "nonpayable",
      "type": "function"
    },
    {
      "inputs": [],
      "name": "owner",
      "outputs": [
        {
          "internalType": "address",
          "name": "",
          "type": "address"
        }
      ],
      "stateMutability": "view",
      "type": "function"
    },
    {
      "inputs": [],
      "name": "ownerCut",
      "outputs": [
        {
          "internalType": "uint256",
          "name": "",
          "type": "uint256"
        }
      ],
      "stateMutability": "view",
      "type": "function"
    },
    {
      "inputs": [],
      "name": "paused",
      "outputs": [
        {
          "internalType": "bool",
          "name": "",
          "type": "bool"
        }
      ],
      "stateMutability": "view",
      "type": "function"
    },
    {
      "inputs": [
        {
          "internalType": "address",
          "name": "",
          "type": "address"
        }
      ],
      "name": "priceFeedsByToken",
      "outputs": [
        {
          "internalType": "address",
          "name": "",
          "type": "address"
        }
      ],
      "stateMutability": "view",
      "type": "function"
    },
    {
      "inputs": [
        {
          "internalType": "uint256",
          "name": "rentId",
          "type": "uint256"
        }
      ],
      "name": "redeemRent",
      "outputs": [],
      "stateMutability": "nonpayable",
      "type": "function"
    },
    {
      "inputs": [],
      "name": "renounceOwnership",
      "outputs": [],
      "stateMutability": "nonpayable",
      "type": "function"
    },
    {
      "inputs": [
        {
          "internalType": "uint256",
          "name": "rentId",
          "type": "uint256"
        },
        {
          "internalType": "uint256",
          "name": "daysToRent",
          "type": "uint256"
        },
        {
          "internalType": "address",
          "name": "tokenToPay",
          "type": "address"
        }
      ],
      "name": "rent",
      "outputs": [],
      "stateMutability": "payable",
      "type": "function"
    },
    {
      "inputs": [
        {
          "internalType": "uint256[]",
          "name": "rentId",
          "type": "uint256[]"
        },
        {
          "internalType": "uint256",
          "name": "daysToRent",
          "type": "uint256"
        },
        {
          "internalType": "address",
          "name": "tokenToPay",
          "type": "address"
        }
      ],
      "name": "rentBatch",
      "outputs": [],
      "stateMutability": "payable",
      "type": "function"
    },
    {
      "inputs": [
        {
          "internalType": "uint256",
          "name": "",
          "type": "uint256"
        }
      ],
      "name": "rents",
      "outputs": [
        {
          "internalType": "address",
          "name": "seller",
          "type": "address"
        },
        {
          "internalType": "address",
          "name": "buyer",
          "type": "address"
        },
        {
          "internalType": "address",
          "name": "nft",
          "type": "address"
        },
        {
          "internalType": "uint256",
          "name": "nftId",
          "type": "uint256"
        },
        {
          "internalType": "uint256",
          "name": "amount",
          "type": "uint256"
        },
        {
          "internalType": "uint256",
          "name": "priceUSD",
          "type": "uint256"
        },
        {
          "internalType": "uint256",
          "name": "duration",
          "type": "uint256"
        },
        {
          "internalType": "uint256",
          "name": "startedAt",
          "type": "uint256"
        },
        {
          "internalType": "enum RentMultiTokens.SaleStatus",
          "name": "status",
          "type": "uint8"
        }
      ],
      "stateMutability": "view",
      "type": "function"
    },
    {
      "inputs": [],
      "name": "restartTrading",
      "outputs": [],
      "stateMutability": "nonpayable",
      "type": "function"
    },
    {
      "inputs": [
        {
          "internalType": "address",
          "name": "from",
          "type": "address"
        },
        {
          "internalType": "address",
          "name": "to",
          "type": "address"
        },
        {
          "internalType": "uint256[]",
          "name": "ids",
          "type": "uint256[]"
        },
        {
          "internalType": "uint256[]",
          "name": "amounts",
          "type": "uint256[]"
        },
        {
          "internalType": "bytes",
          "name": "data",
          "type": "bytes"
        }
      ],
      "name": "safeBatchTransferFrom",
      "outputs": [],
      "stateMutability": "nonpayable",
      "type": "function"
    },
    {
      "inputs": [
        {
          "internalType": "address",
          "name": "from",
          "type": "address"
        },
        {
          "internalType": "address",
          "name": "to",
          "type": "address"
        },
        {
          "internalType": "uint256",
          "name": "id",
          "type": "uint256"
        },
        {
          "internalType": "uint256",
          "name": "amount",
          "type": "uint256"
        },
        {
          "internalType": "bytes",
          "name": "data",
          "type": "bytes"
        }
      ],
      "name": "safeTransferFrom",
      "outputs": [],
      "stateMutability": "nonpayable",
      "type": "function"
    },
    {
      "inputs": [
        {
          "internalType": "address",
          "name": "operator",
          "type": "address"
        },
        {
          "internalType": "bool",
          "name": "approved",
          "type": "bool"
        }
      ],
      "name": "setApprovalForAll",
      "outputs": [],
      "stateMutability": "nonpayable",
      "type": "function"
    },
    {
      "inputs": [
        {
          "internalType": "address",
          "name": "_feeReceiver",
          "type": "address"
        }
      ],
      "name": "setFeeReceiver",
      "outputs": [],
      "stateMutability": "nonpayable",
      "type": "function"
    },
    {
      "inputs": [
        {
          "internalType": "uint256[]",
          "name": "ids",
          "type": "uint256[]"
        },
        {
          "internalType": "string[]",
          "name": "uris",
          "type": "string[]"
        }
      ],
      "name": "setIpfsHashBatch",
      "outputs": [],
      "stateMutability": "nonpayable",
      "type": "function"
    },
    {
      "inputs": [
        {
          "internalType": "address",
          "name": "nftAddress",
          "type": "address"
        },
        {
          "internalType": "bool",
          "name": "allow",
          "type": "bool"
        }
      ],
      "name": "setNftAllowed",
      "outputs": [],
      "stateMutability": "nonpayable",
      "type": "function"
    },
    {
      "inputs": [
        {
          "internalType": "uint256",
          "name": "_ownerCut",
          "type": "uint256"
        }
      ],
      "name": "setOwnerCut",
      "outputs": [],
      "stateMutability": "nonpayable",
      "type": "function"
    },
    {
      "inputs": [],
      "name": "stopTrading",
      "outputs": [],
      "stateMutability": "nonpayable",
      "type": "function"
    },
    {
      "inputs": [
        {
          "internalType": "bytes4",
          "name": "interfaceId",
          "type": "bytes4"
        }
      ],
      "name": "supportsInterface",
      "outputs": [
        {
          "internalType": "bool",
          "name": "",
          "type": "bool"
        }
      ],
      "stateMutability": "view",
      "type": "function"
    },
    {
      "inputs": [],
      "name": "tokenIdTracker",
      "outputs": [
        {
          "internalType": "uint256",
          "name": "_value",
          "type": "uint256"
        }
      ],
      "stateMutability": "view",
      "type": "function"
    },
    {
      "inputs": [
        {
          "internalType": "address",
          "name": "newOwner",
          "type": "address"
        }
      ],
      "name": "transferOwnership",
      "outputs": [],
      "stateMutability": "nonpayable",
      "type": "function"
    },
    {
      "inputs": [
        {
          "internalType": "uint256",
          "name": "saleId",
          "type": "uint256"
        },
        {
          "internalType": "uint256",
          "name": "newPrice",
          "type": "uint256"
        }
      ],
      "name": "updateSalePrice",
      "outputs": [],
      "stateMutability": "nonpayable",
      "type": "function"
    },
    {
      "inputs": [
        {
          "internalType": "uint256",
          "name": "saleId",
          "type": "uint256"
        },
        {
          "internalType": "address",
          "name": "receiver",
          "type": "address"
        }
      ],
      "name": "updateSaleReceiver",
      "outputs": [],
      "stateMutability": "nonpayable",
      "type": "function"
    },
    {
      "inputs": [
        {
          "internalType": "uint256",
          "name": "id",
          "type": "uint256"
        }
      ],
      "name": "uri",
      "outputs": [
        {
          "internalType": "string",
          "name": "",
          "type": "string"
        }
      ],
      "stateMutability": "view",
      "type": "function"
    },
    {
      "inputs": [],
      "name": "wcurrency",
      "outputs": [
        {
          "internalType": "address",
          "name": "",
          "type": "address"
        }
      ],
      "stateMutability": "view",
      "type": "function"
    },
    {
      "stateMutability": "payable",
      "type": "receive"
    }
  ],
  "bytecode": "0x608060405260066009553480156200001657600080fd5b5060405162004b0138038062004b018339810160408190526200003991620001bb565b60408051808201909152600781526652656e7420454760c81b602082015262000062816200013a565b506200006e336200014c565b6003805460ff60a01b191690556001600455612710811115620000d75760405162461bcd60e51b815260206004820152601d60248201527f52656e74616c3a42414420494e50555420494e204f574e455220435554000000604482015260640160405180910390fd5b600755600680546001600160a01b03199081166001600160a01b039687161790915543600855600f8054821694861694851790556000938452600c60209081526040808620805490931694909616939093179055600d9091529190205562000389565b6002620001488282620002bd565b5050565b600380546001600160a01b038381166001600160a01b0319831681179093556040519116919082907f8be0079c531659141344cd1fd0a4f28419497f9722a3daafe3b4186f6b6457e090600090a35050565b80516001600160a01b0381168114620001b657600080fd5b919050565b600080600080600060a08688031215620001d457600080fd5b620001df866200019e565b9450620001ef602087016200019e565b9350620001ff604087016200019e565b6060870151608090970151959894975095949392505050565b634e487b7160e01b600052604160045260246000fd5b600181811c908216806200024357607f821691505b6020821081036200026457634e487b7160e01b600052602260045260246000fd5b50919050565b601f821115620002b857600081815260208120601f850160051c81016020861015620002935750805b601f850160051c820191505b81811015620002b4578281556001016200029f565b5050505b505050565b81516001600160401b03811115620002d957620002d962000218565b620002f181620002ea84546200022e565b846200026a565b602080601f831160018114620003295760008415620003105750858301515b600019600386901b1c1916600185901b178555620002b4565b600085815260208120601f198616915b828110156200035a5788860151825594840194600190910190840162000339565b5085821015620003795787850151600019600388901b60f8161c191681555b5050505050600190811b01905550565b61476880620003996000396000f3fe6080604052600436106102e95760003560e01c8063757de57311610184578063bd05ceff116100d6578063efdcd9741161008a578063f242432a11610064578063f242432a14610958578063f2fde38b14610978578063f9eaee0d1461099857600080fd5b8063efdcd974146108ec578063f0f2805f1461090c578063f23a6e611461092c57600080fd5b8063d6c8d378116100bb578063d6c8d3781461087a578063e4ad40581461088d578063e985e9c5146108a357600080fd5b8063bd05ceff14610847578063d2cee46f1461085a57600080fd5b8063a05d098c11610138578063b3f0067411610112578063b3f00674146107b2578063babcc539146107d2578063bc197c811461080257600080fd5b8063a05d098c146106e6578063a22cb46514610772578063b383f2291461079257600080fd5b8063857529f111610169578063857529f11461067b5780638da5cb5b1461069b5780638e782723146106b957600080fd5b8063757de5731461064557806383b5ff8b1461066557600080fd5b80632eb2c2d61161023d57806356c5a1d5116101f15780636daa9850116101cb5780636daa9850146105fb578063715018a61461061b5780637185f1631461063057600080fd5b806356c5a1d51461059c5780635c975abb146105bc57806368ef82f6146105db57600080fd5b80634cdc9c63116102225780634cdc9c63146105395780634e1273f41461054f57806350751d9d1461057c57600080fd5b80632eb2c2d6146104f95780634896672e1461051957600080fd5b8063098f3c3c1161029f5780631e1d7bb5116102795780631e1d7bb5146104975780632cb4bc5f146104b75780632cdddc1b146104e457600080fd5b8063098f3c3c1461042a5780630e89341c1461044a578063186c04111461047757600080fd5b806301ffc9a7116102d057806301ffc9a71461039557806302bf3d56146103c557806304a455eb146103dc57600080fd5b8062e0cc8814610342578062fdd58e1461037557600080fd5b3661033d5760405162461bcd60e51b815260206004820152601660248201527f52656e74616c3a444f4e542053454e442056414c55450000000000000000000060448201526064015b60405180910390fd5b005b600080fd5b34801561034e57600080fd5b5061036261035d3660046138e1565b6109b8565b6040519081526020015b60405180910390f35b34801561038157600080fd5b5061036261039036600461390d565b610a7f565b3480156103a157600080fd5b506103b56103b036600461394d565b610b23565b604051901515815260200161036c565b3480156103d157600080fd5b506005546103629081565b3480156103e857600080fd5b506104126103f736600461396a565b600c602052600090815260409020546001600160a01b031681565b6040516001600160a01b03909116815260200161036c565b34801561043657600080fd5b50600f54610412906001600160a01b031681565b34801561045657600080fd5b5061046a610465366004613985565b610b2e565b60405161036c91906139e4565b34801561048357600080fd5b5061033b6104923660046138e1565b610bd2565b3480156104a357600080fd5b5061033b6104b2366004613a05565b610c51565b3480156104c357600080fd5b506104d76104d2366004613b14565b610c84565b60405161036c9190613bcd565b3480156104f057600080fd5b5061033b610e49565b34801561050557600080fd5b5061033b610514366004613d34565b610e63565b34801561052557600080fd5b5061033b610534366004613dde565b610f05565b34801561054557600080fd5b5061036260085481565b34801561055b57600080fd5b5061056f61056a366004613e6d565b610f6a565b60405161036c9190613f01565b34801561058857600080fd5b5061033b610597366004613f14565b6110a8565b3480156105a857600080fd5b5061046a6105b7366004613985565b61114a565b3480156105c857600080fd5b50600354600160a01b900460ff166103b5565b3480156105e757600080fd5b5061033b6105f6366004613985565b6111e4565b34801561060757600080fd5b5061033b610616366004614009565b61136b565b34801561062757600080fd5b5061033b6113b0565b34801561063c57600080fd5b5061033b6113c2565b34801561065157600080fd5b5061033b610660366004613985565b6113da565b34801561067157600080fd5b5061036260075481565b34801561068757600080fd5b5061033b610696366004613985565b6113e7565b3480156106a757600080fd5b506003546001600160a01b0316610412565b3480156106c557600080fd5b506103626106d436600461396a565b600d6020526000908152604090205481565b3480156106f257600080fd5b5061075d610701366004613985565b600a602052600090815260409020805460018201546002830154600384015460048501546005860154600787015460088801546009909801546001600160a01b0397881698968816979095169593949293919290919060ff1689565b60405161036c99989796959493929190614045565b34801561077e57600080fd5b5061033b61078d366004613a05565b611507565b34801561079e57600080fd5b5061033b6107ad3660046140a6565b611512565b3480156107be57600080fd5b50600654610412906001600160a01b031681565b3480156107de57600080fd5b506103b56107ed36600461396a565b600b6020526000908152604090205460ff1681565b34801561080e57600080fd5b5061082e61081d366004613d34565b63bc197c8160e01b95945050505050565b6040516001600160e01b0319909116815260200161036c565b61033b610855366004614107565b61179c565b34801561086657600080fd5b5061033b61087536600461415e565b6117df565b61033b610888366004614191565b61189a565b34801561089957600080fd5b5061036260095481565b3480156108af57600080fd5b506103b56108be3660046141bd565b6001600160a01b03918216600090815260016020908152604080832093909416825291909152205460ff1690565b3480156108f857600080fd5b5061033b61090736600461396a565b612140565b34801561091857600080fd5b506103b5610927366004613985565b61219c565b34801561093857600080fd5b5061082e6109473660046141e7565b63f23a6e6160e01b95945050505050565b34801561096457600080fd5b5061033b6109733660046141e7565b6121ba565b34801561098457600080fd5b5061033b61099336600461396a565b612255565b3480156109a457600080fd5b506103b56109b336600461396a565b6122e5565b6000828152600a602052604081206109cf81612348565b610a125760405162461bcd60e51b815260206004820152601460248201527352656e74616c3a4e4f545f415641494c41424c4560601b6044820152606401610332565b6009546001600160a01b0384166000908152600d602052604090205463050c197691600891839190610a45908490614262565b610a4f9190614275565b610a5a90600a61436c565b8460050154610a699190614378565b610a73919061438f565b93505050505b92915050565b60006001600160a01b038316610afd5760405162461bcd60e51b815260206004820152602a60248201527f455243313135353a2061646472657373207a65726f206973206e6f742061207660448201527f616c6964206f776e6572000000000000000000000000000000000000000000006064820152608401610332565b506000908152602081815260408083206001600160a01b03949094168352929052205490565b6000610a7982612380565b6000818152600e6020526040812080546060929190610b4c906143b1565b80601f0160208091040260200160405190810160405280929190818152602001828054610b78906143b1565b8015610bc55780601f10610b9a57610100808354040283529160200191610bc5565b820191906000526020600020905b815481529060010190602001808311610ba857829003601f168201915b5093979650505050505050565b610bda6123be565b6000828152600a602052604090206008810154610c305760405162461bcd60e51b815260206004820152601460248201527352656e74616c3a4e4f545f415641494c41424c4560601b6044820152606401610332565b80546001600160a01b0319166001600160a01b039290921691909117905550565b610c596123be565b6001600160a01b03919091166000908152600b60205260409020805460ff1916911515919091179055565b60606000825167ffffffffffffffff811115610ca257610ca2613a3c565b604051908082528060200260200182016040528015610cdb57816020015b610cc86137cd565b815260200190600190039081610cc05790505b50905060005b8351811015610e4257600a6000858381518110610d0057610d006143eb565b602090810291909101810151825281810192909252604090810160002081516101408101835281546001600160a01b0390811682526001830154811682860152600283015416818401526003820154606082015260048201546080820152600582015460a08201526006820180548451818702810187019095528085529194929360c0860193909290830182828015610dc257602002820191906000526020600020905b81546001600160a01b03168152600190910190602001808311610da4575b50505091835250506007820154602082015260088201546040820152600982015460609091019060ff166003811115610dfd57610dfd613b95565b6003811115610e0e57610e0e613b95565b81525050828281518110610e2457610e246143eb565b60200260200101819052508080610e3a90614401565b915050610ce1565b5092915050565b610e516123be565b610e59612418565b610e61612471565b565b6001600160a01b038516331480610e7f5750610e7f85336108be565b610ef15760405162461bcd60e51b815260206004820152602e60248201527f455243313135353a2063616c6c6572206973206e6f7420746f6b656e206f776e60448201527f6572206f7220617070726f7665640000000000000000000000000000000000006064820152608401610332565b610efe85858585856124c6565b5050505050565b610f0d6123be565b6000828152600a602052604090206008810154610f635760405162461bcd60e51b815260206004820152601460248201527352656e74616c3a4e4f545f415641494c41424c4560601b6044820152606401610332565b6005015550565b60608151835114610fe35760405162461bcd60e51b815260206004820152602960248201527f455243313135353a206163636f756e747320616e6420696473206c656e67746860448201527f206d69736d6174636800000000000000000000000000000000000000000000006064820152608401610332565b6000835167ffffffffffffffff811115610fff57610fff613a3c565b604051908082528060200260200182016040528015611028578160200160208202803683370190505b50905060005b84518110156110a05761107385828151811061104c5761104c6143eb565b6020026020010151858381518110611066576110666143eb565b6020026020010151610a7f565b828281518110611085576110856143eb565b602090810291909101015261109981614401565b905061102e565b509392505050565b6110b06123be565b60005b82518110156111455760008282815181106110d0576110d06143eb565b6020026020010151511115611133578181815181106110f1576110f16143eb565b6020026020010151600e600085848151811061110f5761110f6143eb565b6020026020010151815260200190815260200160002090816111319190614460565b505b8061113d81614401565b9150506110b3565b505050565b600e6020526000908152604090208054611163906143b1565b80601f016020809104026020016040519081016040528092919081815260200182805461118f906143b1565b80156111dc5780601f106111b1576101008083540402835291602001916111dc565b820191906000526020600020905b8154815290600101906020018083116111bf57829003601f168201915b505050505081565b6000818152600a60205260409020600881015461123a5760405162461bcd60e51b815260206004820152601460248201527352656e74616c3a4e4f545f415641494c41424c4560601b6044820152606401610332565b80546001600160a01b031633146112935760405162461bcd60e51b815260206004820152601060248201527f52656e74616c3a4e4f545f4f574e4552000000000000000000000000000000006044820152606401610332565b6001600982015460ff1660038111156112ae576112ae613b95565b146112fb5760405162461bcd60e51b815260206004820152601260248201527f52656e74616c3a4e46545f494e5f52454e5400000000000000000000000000006044820152606401610332565b8060080154816007015461130f9190614262565b42101561135e5760405162461bcd60e51b815260206004820152601860248201527f52656e74616c3a4e46545f5354494c4c5f494e5f52454e5400000000000000006044820152606401610332565b61136782612731565b5050565b6113736123be565b6001600160a01b039283166000908152600c6020908152604080832080546001600160a01b0319169590961694909417909455600d909352912055565b6113b86123be565b610e6160006127f3565b6113ca6123be565b6113d2612845565b610e6161289f565b6113e26123be565b600755565b6000818152600a60205260409020600881015461143d5760405162461bcd60e51b815260206004820152601460248201527352656e74616c3a4e4f545f415641494c41424c4560601b6044820152606401610332565b80546001600160a01b031633146114965760405162461bcd60e51b815260206004820152601060248201527f52656e74616c3a4e4f545f4f574e4552000000000000000000000000000000006044820152606401610332565b6001600982015460ff1660038111156114b1576114b1613b95565b036114fe5760405162461bcd60e51b815260206004820152601260248201527f52656e74616c3a4e46545f494e5f52454e5400000000000000000000000000006044820152606401610332565b611367826128e2565b6113673383836129fe565b61151a612845565b6001600160a01b0384166000908152600b6020526040902054339060ff166115845760405162461bcd60e51b815260206004820152601b60248201527f52656e74616c3a20494e56414c4944204e4654204144445245535300000000006044820152606401610332565b61158f858286612af2565b6115db5760405162461bcd60e51b815260206004820152601160248201527f52656e74616c3a204e4f54204f574e45520000000000000000000000000000006044820152606401610332565b60008251116116525760405162461bcd60e51b815260206004820152603a60248201527f52656e74616c3a20596f75206861766520746f20616363657074206174206c6560448201527f617374206f6e6520746f6b656e2061732061207061796d656e740000000000006064820152608401610332565b61165f8582866001612b8e565b60005b82518110156117115761168d838281518110611680576116806143eb565b60200260200101516122e5565b6116ff5760405162461bcd60e51b815260206004820152602f60248201527f52656e74616c3a204f4e45204f462054484520544f4b454e5320544f2050415960448201527f204953204e4f5420414c4c4f57454400000000000000000000000000000000006064820152608401610332565b8061170981614401565b915050611662565b506000604051806101400160405280836001600160a01b0316815260200160006001600160a01b03168152602001876001600160a01b0316815260200186815260200160018152602001858152602001848152602001600081526020014281526020016000600381111561178757611787613b95565b9052905061179481612c16565b505050505050565b825160005b81811015610efe576117cd8582815181106117be576117be6143eb565b6020026020010151858561189a565b806117d781614401565b9150506117a1565b6117e76123be565b6001600160a01b038216611808576111456001600160a01b03821684612d50565b6040517fa9059cbb0000000000000000000000000000000000000000000000000000000081526001600160a01b0382811660048301526024820185905283169063a9059cbb906044016020604051808303816000875af1158015611870573d6000803e3d6000fd5b505050506040513d601f19601f820116820180604052508101906118949190614520565b50505050565b6118a2612e69565b6118aa612845565b6000838152600a60205260408120908361192c5760405162461bcd60e51b815260206004820152602760248201527f52656e74616c3a52454e542054494d45204d555354204245204752454154455260448201527f205448414e2030000000000000000000000000000000000000000000000000006064820152608401610332565b60005b600683015481101561199e57836001600160a01b031683600601828154811061195a5761195a6143eb565b6000918252602090912001546001600160a01b03160361198c578461197f87866109b8565b6119899190614378565b91505b8061199681614401565b91505061192f565b50806000036119ef5760405162461bcd60e51b815260206004820152601860248201527f52656e74616c3a544f4b454e204e4f5420414c4c4f57454400000000000000006044820152606401610332565b6000600983015460ff166003811115611a0a57611a0a613b95565b14611a575760405162461bcd60e51b815260206004820181905260248201527f52656e74616c3a4e4654204e4f5420415641494c41424c4520544f2052454e546044820152606401610332565b600f5433906001600160a01b0390811690851603611c9357611a7883612348565b611ac45760405162461bcd60e51b815260206004820152601460248201527f52656e74616c3a4e4f5420415641494c41424c450000000000000000000000006044820152606401610332565b81341015611b145760405162461bcd60e51b815260206004820152601760248201527f52656e74616c3a4e4f5420454e4f5547482056414c55450000000000000000006044820152606401610332565b600061271060075484611b279190614378565b611b31919061438f565b90506000611b3f8285614275565b85546040519192506001600160a01b031690600090829084908381818185875af1925050503d8060008114611b90576040519150601f19603f3d011682016040523d82523d6000602084013e611b95565b606091505b5050905080611be65760405162461bcd60e51b815260206004820152601060248201527f5472616e73666572206661696c65642e000000000000000000000000000000006044820152606401610332565b6006546040516000916001600160a01b03169086908381818185875af1925050503d8060008114611c33576040519150601f19603f3d011682016040523d82523d6000602084013e611c38565b606091505b5050905080611c895760405162461bcd60e51b815260206004820152601060248201527f5472616e73666572206661696c65642e000000000000000000000000000000006044820152606401610332565b5050505050612035565b611c9c846122e5565b611d0e5760405162461bcd60e51b815260206004820152602360248201527f52656e74616c3a20544f4b454e20544f20504159204953204e4f5420414c4c4f60448201527f57454400000000000000000000000000000000000000000000000000000000006064820152608401610332565b6040517f70a082310000000000000000000000000000000000000000000000000000000081526001600160a01b0382811660048301528391908616906370a0823190602401602060405180830381865afa158015611d70573d6000803e3d6000fd5b505050506040513d601f19601f82011682018060405250810190611d94919061453d565b11611de15760405162461bcd60e51b815260206004820152601b60248201527f52656e74616c3a20494e535546494349454e542042414c414e434500000000006044820152606401610332565b6040517fdd62ed3e0000000000000000000000000000000000000000000000000000000081526001600160a01b03828116600483015230602483015283919086169063dd62ed3e90604401602060405180830381865afa158015611e49573d6000803e3d6000fd5b505050506040513d601f19601f82011682018060405250810190611e6d919061453d565b11611eba5760405162461bcd60e51b815260206004820152601d60248201527f52656e74616c3a20494e535546494349454e5420414c4c4f57414e43450000006044820152606401610332565b611ec383612348565b611f065760405162461bcd60e51b815260206004820152601460248201527352656e74616c3a4e4f545f415641494c41424c4560601b6044820152606401610332565b600061271060075484611f199190614378565b611f23919061438f565b90506000611f318285614275565b85546040516323b872dd60e01b81526001600160a01b0386811660048301529182166024820152604481018390529192508716906323b872dd906064016020604051808303816000875af1158015611f8d573d6000803e3d6000fd5b505050506040513d601f19601f82011682018060405250810190611fb19190614520565b506006546040516323b872dd60e01b81526001600160a01b038581166004830152918216602482015260448101849052908716906323b872dd906064016020604051808303816000875af115801561200d573d6000803e3d6000fd5b505050506040513d601f19601f820116820180604052508101906120319190614520565b5050505b61207b81846003015460016040518060400160405280600481526020017f3078303000000000000000000000000000000000000000000000000000000000815250612ec2565b600983018054600160ff199091168117909155830180546001600160a01b0319166001600160a01b0383161790556120b68562015180614378565b60078401554260088401556120cc306001611507565b60078301546008840154604080516001600160a01b038086168252602082018790528816918101919091526060810192909252608082015286907f5f262de3496133c26492da95483c4bdb89fb2631cb86acb944e41d7ab8a78b739060a00160405180910390a25050506111456001600455565b6121486123be565b600680546001600160a01b0319166001600160a01b0383169081179091556040519081527fce118ac8247ab22e55e5f2799d4f5dcf662d59fe0d207b98d6a89764ae81d4819060200160405180910390a150565b6000818152600a602052604081206121b381612348565b9392505050565b6001600160a01b0385163314806121d657506121d685336108be565b6122485760405162461bcd60e51b815260206004820152602e60248201527f455243313135353a2063616c6c6572206973206e6f7420746f6b656e206f776e60448201527f6572206f7220617070726f7665640000000000000000000000000000000000006064820152608401610332565b610efe8585858585612ff2565b61225d6123be565b6001600160a01b0381166122d95760405162461bcd60e51b815260206004820152602660248201527f4f776e61626c653a206e6577206f776e657220697320746865207a65726f206160448201527f64647265737300000000000000000000000000000000000000000000000000006064820152608401610332565b6122e2816127f3565b50565b6001600160a01b0381166000908152600c6020908152604080832054905160609190911b6bffffffffffffffffffffffff19169181019190915281906034016040516020818303038152906040525111612340576000610a79565b600192915050565b60006123578260080154151590565b8015610a7957506000600983015460ff16600381111561237957612379613b95565b1492915050565b60006001600160e01b031982167f4e2312e0000000000000000000000000000000000000000000000000000000001480610a795750610a7982613192565b6003546001600160a01b03163314610e615760405162461bcd60e51b815260206004820181905260248201527f4f776e61626c653a2063616c6c6572206973206e6f7420746865206f776e65726044820152606401610332565b600354600160a01b900460ff16610e615760405162461bcd60e51b815260206004820152601460248201527f5061757361626c653a206e6f74207061757365640000000000000000000000006044820152606401610332565b612479612418565b6003805460ff60a01b191690557f5db9ee0a495bf2e6ff9c91a7834c1ba4fdd244a5e8aa4e537bd38aeae4b073aa335b6040516001600160a01b03909116815260200160405180910390a1565b815183511461253d5760405162461bcd60e51b815260206004820152602860248201527f455243313135353a2069647320616e6420616d6f756e7473206c656e6774682060448201527f6d69736d617463680000000000000000000000000000000000000000000000006064820152608401610332565b6001600160a01b0384166125a15760405162461bcd60e51b815260206004820152602560248201527f455243313135353a207472616e7366657220746f20746865207a65726f206164604482015264647265737360d81b6064820152608401610332565b3360005b84518110156126cb5760008582815181106125c2576125c26143eb565b6020026020010151905060008583815181106125e0576125e06143eb565b602090810291909101810151600084815280835260408082206001600160a01b038e1683529093529190912054909150818110156126735760405162461bcd60e51b815260206004820152602a60248201527f455243313135353a20696e73756666696369656e742062616c616e636520666f60448201526939103a3930b739b332b960b11b6064820152608401610332565b6000838152602081815260408083206001600160a01b038e8116855292528083208585039055908b168252812080548492906126b0908490614262565b92505081905550505050806126c490614401565b90506125a5565b50846001600160a01b0316866001600160a01b0316826001600160a01b03167f4a39dc06d4c0dbc64b70af90fd698a233a518aa5d07e595d983b8c0526c8f7fb878760405161271b929190614556565b60405180910390a461179481878787878761322d565b6000818152600a6020526040902060098101805460ff191660021790556001810154612765906001600160a01b03166133d2565b6001808201546003830154612785926001600160a01b0390921691613448565b600481015481546127a09184916001600160a01b03166135f7565b80546001820154604080516001600160a01b03938416815292909116602083015283917faac0b84b68673acc47173a7c84cee2d1ef5235d62db6f8c0c738dce2537df30491015b60405180910390a25050565b600380546001600160a01b038381166001600160a01b0319831681179093556040519116919082907f8be0079c531659141344cd1fd0a4f28419497f9722a3daafe3b4186f6b6457e090600090a35050565b600354600160a01b900460ff1615610e615760405162461bcd60e51b815260206004820152601060248201527f5061757361626c653a20706175736564000000000000000000000000000000006044820152606401610332565b6128a7612845565b6003805460ff60a01b1916600160a01b1790557f62e78cea01bee320cd4e420270b5ea74000d11b0c9f74754ebdbfc544b05a2586124a93390565b6000818152600a602052604090206001600982015460ff16600381111561290b5761290b613b95565b036129a55760405162461bcd60e51b8152602060048201526044602482018190527f52656e74616c3a20594f5552204e46542049532052454e5445442c20594f5520908201527f43414e27542043414e43454c20495420554e54494c205448452046494e414c2060648201527f4441544500000000000000000000000000000000000000000000000000000000608482015260a401610332565b60098101805460ff19166003179055600481015481546129cf9184916001600160a01b03166135f7565b60405182907fd2df70ec5c7586524a4a47f3aeac113abcf287d54fac7dcc7ea18afd797707d890600090a25050565b816001600160a01b0316836001600160a01b031603612a855760405162461bcd60e51b815260206004820152602960248201527f455243313135353a2073657474696e6720617070726f76616c2073746174757360448201527f20666f722073656c6600000000000000000000000000000000000000000000006064820152608401610332565b6001600160a01b03838116600081815260016020908152604080832094871680845294825291829020805460ff191686151590811790915591519182527f17307eab39ab6107e8899845ad3d59bd9653f200f220920489ca2b5937696c31910160405180910390a3505050565b600080846040517efdd58e0000000000000000000000000000000000000000000000000000000081526001600160a01b0386811660048301526024820186905291925060009183169062fdd58e90604401602060405180830381865afa158015612b60573d6000803e3d6000fd5b505050506040513d601f19601f82011682018060405250810190612b84919061453d565b1195945050505050565b604051637921219560e11b81526001600160a01b038481166004830152306024830152604482018490526064820183905260a06084830152600060a483015285919082169063f242432a9060c4015b600060405180830381600087803b158015612bf757600080fd5b505af1158015612c0b573d6000803e3d6000fd5b505050505050505050565b6000612c2160055490565b6000818152600a6020908152604091829020855181546001600160a01b03199081166001600160a01b0392831617835587840151600184018054831691841691909117905593870151600283018054909516911617909255606085015160038301556080850151600483015560a0850151600583015560c085015180519394508593612cb3926006850192019061384b565b5060e08201516007820155610100820151600882015561012082015160098201805460ff19166001836003811115612ced57612ced613b95565b02179055505060058054600101905550807f5cd0fb2f2d2ae088833adcd3c302abb49f7352140ca08b48f5f029004fe119ff836040015184606001518560a001518660c0015187610100015188600001516040516127e796959493929190614584565b80471015612da05760405162461bcd60e51b815260206004820152601d60248201527f416464726573733a20696e73756666696369656e742062616c616e63650000006044820152606401610332565b6000826001600160a01b03168260405160006040518083038185875af1925050503d8060008114612ded576040519150601f19603f3d011682016040523d82523d6000602084013e612df2565b606091505b50509050806111455760405162461bcd60e51b815260206004820152603a60248201527f416464726573733a20756e61626c6520746f2073656e642076616c75652c207260448201527f6563697069656e74206d617920686176652072657665727465640000000000006064820152608401610332565b600260045403612ebb5760405162461bcd60e51b815260206004820152601f60248201527f5265656e7472616e637947756172643a207265656e7472616e742063616c6c006044820152606401610332565b6002600455565b6001600160a01b038416612f3e5760405162461bcd60e51b815260206004820152602160248201527f455243313135353a206d696e7420746f20746865207a65726f2061646472657360448201527f73000000000000000000000000000000000000000000000000000000000000006064820152608401610332565b336000612f4a85613665565b90506000612f5785613665565b90506000868152602081815260408083206001600160a01b038b16845290915281208054879290612f89908490614262565b909155505060408051878152602081018790526001600160a01b03808a1692600092918716917fc3d58168c5ae7397731d063d5bbf3d657854427343f4c083240f7aacaa2d0f62910160405180910390a4612fe9836000898989896136b0565b50505050505050565b6001600160a01b0384166130565760405162461bcd60e51b815260206004820152602560248201527f455243313135353a207472616e7366657220746f20746865207a65726f206164604482015264647265737360d81b6064820152608401610332565b33600061306285613665565b9050600061306f85613665565b90506000868152602081815260408083206001600160a01b038c168452909152902054858110156130f55760405162461bcd60e51b815260206004820152602a60248201527f455243313135353a20696e73756666696369656e742062616c616e636520666f60448201526939103a3930b739b332b960b11b6064820152608401610332565b6000878152602081815260408083206001600160a01b038d8116855292528083208985039055908a16825281208054889290613132908490614262565b909155505060408051888152602081018890526001600160a01b03808b16928c821692918816917fc3d58168c5ae7397731d063d5bbf3d657854427343f4c083240f7aacaa2d0f62910160405180910390a4612c0b848a8a8a8a8a6136b0565b60006001600160e01b031982167fd9b67a260000000000000000000000000000000000000000000000000000000014806131f557506001600160e01b031982167f0e89341c00000000000000000000000000000000000000000000000000000000145b80610a7957507f01ffc9a7000000000000000000000000000000000000000000000000000000006001600160e01b0319831614610a79565b6001600160a01b0384163b156117945760405163bc197c8160e01b81526001600160a01b0385169063bc197c819061327190899089908890889088906004016145ce565b6020604051808303816000875af19250505080156132ac575060408051601f3d908101601f191682019092526132a99181019061462c565b60015b613361576132b8614649565b806308c379a0036132f157506132cc614665565b806132d757506132f3565b8060405162461bcd60e51b815260040161033291906139e4565b505b60405162461bcd60e51b815260206004820152603460248201527f455243313135353a207472616e7366657220746f206e6f6e2d4552433131353560448201527f526563656976657220696d706c656d656e7465720000000000000000000000006064820152608401610332565b6001600160e01b0319811663bc197c8160e01b14612fe95760405162461bcd60e51b815260206004820152602860248201527f455243313135353a204552433131353552656365697665722072656a656374656044820152676420746f6b656e7360c01b6064820152608401610332565b6040516001600160a01b03821660248201526122e29060440160408051601f198184030181529190526020810180517bffffffffffffffffffffffffffffffffffffffffffffffffffffffff167f2c2ecbc2000000000000000000000000000000000000000000000000000000001790526137ac565b6001600160a01b0383166134c45760405162461bcd60e51b815260206004820152602360248201527f455243313135353a206275726e2066726f6d20746865207a65726f206164647260448201527f65737300000000000000000000000000000000000000000000000000000000006064820152608401610332565b3360006134d084613665565b905060006134dd84613665565b60408051602080820183526000918290528882528181528282206001600160a01b038b168352905220549091508481101561357f5760405162461bcd60e51b8152602060048201526024808201527f455243313135353a206275726e20616d6f756e7420657863656564732062616c60448201527f616e6365000000000000000000000000000000000000000000000000000000006064820152608401610332565b6000868152602081815260408083206001600160a01b038b81168086529184528285208a8703905582518b81529384018a90529092908816917fc3d58168c5ae7397731d063d5bbf3d657854427343f4c083240f7aacaa2d0f62910160405180910390a4604080516020810190915260009052612fe9565b6000838152600a6020526040808220600281015460038201549251637921219560e11b81523060048201526001600160a01b03868116602483015260448201949094526064810187905260a0608482015260a48101949094529092911690819063f242432a9060c401612bdd565b6040805160018082528183019092526060916000919060208083019080368337019050509050828160008151811061369f5761369f6143eb565b602090810291909101015292915050565b6001600160a01b0384163b156117945760405163f23a6e6160e01b81526001600160a01b0385169063f23a6e61906136f490899089908890889088906004016146ef565b6020604051808303816000875af192505050801561372f575060408051601f3d908101601f1916820190925261372c9181019061462c565b60015b61373b576132b8614649565b6001600160e01b0319811663f23a6e6160e01b14612fe95760405162461bcd60e51b815260206004820152602860248201527f455243313135353a204552433131353552656365697665722072656a656374656044820152676420746f6b656e7360c01b6064820152608401610332565b80516a636f6e736f6c652e6c6f67602083016000808483855afa5050505050565b60405180610140016040528060006001600160a01b0316815260200160006001600160a01b0316815260200160006001600160a01b031681526020016000815260200160008152602001600081526020016060815260200160008152602001600081526020016000600381111561384657613846613b95565b905290565b8280548282559060005260206000209081019282156138a0579160200282015b828111156138a057825182546001600160a01b0319166001600160a01b0390911617825560209092019160019091019061386b565b506138ac9291506138b0565b5090565b5b808211156138ac57600081556001016138b1565b80356001600160a01b03811681146138dc57600080fd5b919050565b600080604083850312156138f457600080fd5b82359150613904602084016138c5565b90509250929050565b6000806040838503121561392057600080fd5b613929836138c5565b946020939093013593505050565b6001600160e01b0319811681146122e257600080fd5b60006020828403121561395f57600080fd5b81356121b381613937565b60006020828403121561397c57600080fd5b6121b3826138c5565b60006020828403121561399757600080fd5b5035919050565b6000815180845260005b818110156139c4576020818501810151868301820152016139a8565b506000602082860101526020601f19601f83011685010191505092915050565b6020815260006121b3602083018461399e565b80151581146122e257600080fd5b60008060408385031215613a1857600080fd5b613a21836138c5565b91506020830135613a31816139f7565b809150509250929050565b634e487b7160e01b600052604160045260246000fd5b601f8201601f1916810167ffffffffffffffff81118282101715613a7857613a78613a3c565b6040525050565b600067ffffffffffffffff821115613a9957613a99613a3c565b5060051b60200190565b600082601f830112613ab457600080fd5b81356020613ac182613a7f565b604051613ace8282613a52565b83815260059390931b8501820192828101915086841115613aee57600080fd5b8286015b84811015613b095780358352918301918301613af2565b509695505050505050565b600060208284031215613b2657600080fd5b813567ffffffffffffffff811115613b3d57600080fd5b613b4984828501613aa3565b949350505050565b600081518084526020808501945080840160005b83811015613b8a5781516001600160a01b031687529582019590820190600101613b65565b509495945050505050565b634e487b7160e01b600052602160045260246000fd5b60048110613bc957634e487b7160e01b600052602160045260246000fd5b9052565b60006020808301818452808551808352604092508286019150828160051b87010184880160005b83811015613ca857603f19898403018552815180516001600160a01b03908116855288820151811689860152878201511687850152606080820151908501526080808201519085015260a0808201519085015260c0808201516101408287018190529190613c6483880182613b51565b9250505060e0808301518187015250610100808301518187015250610120808301519250613c9481870184613bab565b509588019593505090860190600101613bf4565b509098975050505050505050565b600067ffffffffffffffff831115613cd057613cd0613a3c565b604051613ce7601f8501601f191660200182613a52565b809150838152848484011115613cfc57600080fd5b83836020830137600060208583010152509392505050565b600082601f830112613d2557600080fd5b6121b383833560208501613cb6565b600080600080600060a08688031215613d4c57600080fd5b613d55866138c5565b9450613d63602087016138c5565b9350604086013567ffffffffffffffff80821115613d8057600080fd5b613d8c89838a01613aa3565b94506060880135915080821115613da257600080fd5b613dae89838a01613aa3565b93506080880135915080821115613dc457600080fd5b50613dd188828901613d14565b9150509295509295909350565b60008060408385031215613df157600080fd5b50508035926020909101359150565b600082601f830112613e1157600080fd5b81356020613e1e82613a7f565b604051613e2b8282613a52565b83815260059390931b8501820192828101915086841115613e4b57600080fd5b8286015b84811015613b0957613e60816138c5565b8352918301918301613e4f565b60008060408385031215613e8057600080fd5b823567ffffffffffffffff80821115613e9857600080fd5b613ea486838701613e00565b93506020850135915080821115613eba57600080fd5b50613ec785828601613aa3565b9150509250929050565b600081518084526020808501945080840160005b83811015613b8a57815187529582019590820190600101613ee5565b6020815260006121b36020830184613ed1565b6000806040808486031215613f2857600080fd5b833567ffffffffffffffff80821115613f4057600080fd5b613f4c87838801613aa3565b9450602091508186013581811115613f6357600080fd5b8601601f81018813613f7457600080fd5b8035613f7f81613a7f565b8551613f8b8282613a52565b82815260059290921b830185019185810191508a831115613fab57600080fd5b8584015b83811015613ff757803586811115613fc75760008081fd5b8501603f81018d13613fd95760008081fd5b613fe98d898301358b8401613cb6565b845250918601918601613faf565b50809750505050505050509250929050565b60008060006060848603121561401e57600080fd5b614027846138c5565b9250614035602085016138c5565b9150604084013590509250925092565b6000610120820190506001600160a01b03808c168352808b166020840152808a166040840152508760608301528660808301528560a08301528460c08301528360e0830152614098610100830184613bab565b9a9950505050505050505050565b600080600080608085870312156140bc57600080fd5b6140c5856138c5565b93506020850135925060408501359150606085013567ffffffffffffffff8111156140ef57600080fd5b6140fb87828801613e00565b91505092959194509250565b60008060006060848603121561411c57600080fd5b833567ffffffffffffffff81111561413357600080fd5b61413f86828701613aa3565b93505060208401359150614155604085016138c5565b90509250925092565b60008060006060848603121561417357600080fd5b83359250614183602085016138c5565b9150614155604085016138c5565b6000806000606084860312156141a657600080fd5b8335925060208401359150614155604085016138c5565b600080604083850312156141d057600080fd5b6141d9836138c5565b9150613904602084016138c5565b600080600080600060a086880312156141ff57600080fd5b614208866138c5565b9450614216602087016138c5565b93506040860135925060608601359150608086013567ffffffffffffffff81111561424057600080fd5b613dd188828901613d14565b634e487b7160e01b600052601160045260246000fd5b80820180821115610a7957610a7961424c565b81810381811115610a7957610a7961424c565b600181815b808511156142c35781600019048211156142a9576142a961424c565b808516156142b657918102915b93841c939080029061428d565b509250929050565b6000826142da57506001610a79565b816142e757506000610a79565b81600181146142fd576002811461430757614323565b6001915050610a79565b60ff8411156143185761431861424c565b50506001821b610a79565b5060208310610133831016604e8410600b8410161715614346575081810a610a79565b6143508383614288565b80600019048211156143645761436461424c565b029392505050565b60006121b383836142cb565b8082028115828204841417610a7957610a7961424c565b6000826143ac57634e487b7160e01b600052601260045260246000fd5b500490565b600181811c908216806143c557607f821691505b6020821081036143e557634e487b7160e01b600052602260045260246000fd5b50919050565b634e487b7160e01b600052603260045260246000fd5b6000600182016144135761441361424c565b5060010190565b601f82111561114557600081815260208120601f850160051c810160208610156144415750805b601f850160051c820191505b818110156117945782815560010161444d565b815167ffffffffffffffff81111561447a5761447a613a3c565b61448e8161448884546143b1565b8461441a565b602080601f8311600181146144c357600084156144ab5750858301515b600019600386901b1c1916600185901b178555611794565b600085815260208120601f198616915b828110156144f2578886015182559484019460019091019084016144d3565b50858210156145105787850151600019600388901b60f8161c191681555b5050505050600190811b01905550565b60006020828403121561453257600080fd5b81516121b3816139f7565b60006020828403121561454f57600080fd5b5051919050565b6040815260006145696040830185613ed1565b828103602084015261457b8185613ed1565b95945050505050565b60006001600160a01b03808916835287602084015286604084015260c060608401526145b360c0840187613b51565b60808401959095529290921660a09091015250949350505050565b60006001600160a01b03808816835280871660208401525060a060408301526145fa60a0830186613ed1565b828103606084015261460c8186613ed1565b90508281036080840152614620818561399e565b98975050505050505050565b60006020828403121561463e57600080fd5b81516121b381613937565b600060033d11156146625760046000803e5060005160e01c5b90565b600060443d10156146735790565b6040516003193d81016004833e81513d67ffffffffffffffff81602484011181841117156146a357505050505090565b82850191508151818111156146bb5750505050505090565b843d87010160208285010111156146d55750505050505090565b6146e460208286010187613a52565b509095945050505050565b60006001600160a01b03808816835280871660208401525084604083015283606083015260a0608083015261472760a083018461399e565b97965050505050505056fea26469706673582212207f001afa556703b9bda01a225b1465aaebe39275fd697de6d93bf10671e7acf964736f6c63430008110033",
  "linkReferences": {},
  "deployedLinkReferences": {}
}